:10000000F9C0000028C1000026C1000024C1000082
:1000100022C1000020C100001EC100001CC1000060
:100020001AC1000018C1000016C1000014C1000070
:1000300012C1000010C100000EC100000CC1000080
:100040000AC1000008C1000006C1000004C1000090
:1000500002C1000000C10000FEC000000C94193372
:10006000FAC000000C9448360C947E36F4C00000B0
:10007000F2C00000F0C00000EEC00000ECC00000C4
:10008000EAC00000E8C00000E6C00000E4C00000D4
:100090000C94D4360C940A37DEC000000C94CF25A3
:1000A000DAC00000D8C00000D6C00000D4C00000F4
:1000B000D2C00000D0C00000CEC00000CCC0000004
:1000C000CAC00000C8C000000C94592F0C946037BF
:1000D0000C949637C0C000000C94EC370C94223876
:1000E000BAC0000000000A0B02090C0D0E0807033D
:1000F00004010000000000000000000000000000FB
:1001000000000000000000000000000000000000EF
:1001100012111000000000000000000000000000AC
:100120000000000000000000000001021020200874
:100130000810204010204080020102010804020142
:1001400001020408102040808040201008040201B1
:10015000800402018040201008040201080402010A
:100160000102040810204080010204081020408091
:1001700005050505070508080808020202020A0A23
:100180000808040404040101010101010101030341
:10019000030303030303040707070C0C0C0C0C0CEC
:1001A0000C0C0202020206060606060606060B0BE9
:1001B0000B0B0B0B0B0B00002200250028002B0063
:1001C0002E003100340002010000050108010B017E
:1001D00000002100240027002A002D0030003300F9
:1001E00001010000040107010A01142FA73633376B
:1001F000BF374B3811241FBECFEFD1E2DEBFCDBFDA
:1002000000E00CBF12E0A0E0B2E0EEE1F2E700E0B7
:100210000BBF02C007900D92AE3FB107D9F729E09E
:10022000AEEFB2E001C01D92A43AB207E1F710E0D0
:10023000CAEFD0E000E006C021970109802FFE013F
:100240000E94DC38C53FD10780E00807A9F70E946B
:10025000E3300C940D39D4CECF93DF93882349F04B
:10026000EB0181500E942C3499838883DF91CF91D8
:100270000895FB0111821082F9CF0F931F938B0118
:100280009C0183E036952795179507958A95D1F7B8
:1002900002501D4F462F477021E030E0F90102C0A7
:1002A000EE0FFF1F4A95E2F7AF01F80120812423EA
:1002B000CB010196211102C090E080E01F910F91C7
:1002C00008950F931F938B019C0183E0369527952A
:1002D000179507958A95D1F7677081E090E001C086
:1002E000880F6A95EAF7F801E250FD4F2081452B0F
:1002F00031F48095822380831F910F910895822B82
:10030000FACFCF92DF92EF92FF92CF93DF936B0100
:100310007C0160E086E3C816D104E104F10490F4A6
:1003200086E38C0D0E94B534E6012196AE01C7012B
:10033000B601C7DFCE01DF91CF91FF90EF90DF9044
:10034000CF9008958C2DEECF882341F08150682FF7
:1003500070E090E080E050E040E0B3CF089590E09E
:1003600080E008950F931F93009709F487C06115EB
:10037000710509F483C000911A0210911B022091AB
:100380001C0230911D020E3F1F4F2F4F3F4F09F0AF
:1003900066C04FEF5FEFBA0140931A0250931B0201
:1003A00060931C0270931D0240911A0250911B022F
:1003B00060911C0270911D02DC011296ED91FC917E
:1003C00080819181A281B38180937F039093800388
:1003D000A0938103B093820384819581A681B78124
:1003E00080937B0390937C03A0937D03B0937E0363
:1003F00080859185A285B385809377039093780358
:10040000A0937903B0937A0384859585A685B785F3
:100410008093730390937403A0937503B093760352
:1004200010926F0310927003109271031092720376
:1004300035D683E798E09093080380930703909361
:100440000A038093090319D5009731F421E030E0C5
:1004500030938403209383031F910F91089500919B
:100460001A0210911B0220911C0230911D02DB0127
:100470000D931D932D933C93139796CF8FEF9FEF82
:10048000EBCF8F929F92AF92BF92CF92DF92EF927B
:10049000FF921F93CF93DF934B015C011091860372
:1004A00082E090E09093840380938303811491040D
:1004B000A104B10441F480918603811104C08091AC
:1004C0008503C1E08111C0E0C12CD12C760180915F
:1004D0008603811106C080918503811102C0CC235F
:1004E000D9F083E090E09093840380938303CC233E
:1004F00079F1CCE9DFEF111102C00E94D70BCE01D8
:10050000DF91CF911F91FF90EF90DF90CF90BF9040
:10051000AF909F908F9008956AE070E080E090E047
:100520000E94943380E1C80E87E2D81EE11CF11CC2
:100530008FEF88169806A806B80631F0C1E08C1433
:100540009D04AE04BF0408F0C0E080E0CAD4BFCF71
:10055000D0E0C0E0D0CFCF92DF92EF92FF920F9326
:100560001F93CF93DF938F3F910511F008F050C098
:1005700020918303309184032330310539F0209199
:100580008303309184032130310531F424E030E0DD
:1005900030938403209383036A017B01EC01823052
:1005A0009105A0F011E0AE01C701B60165D4AB0121
:1005B000BC01CE011123F9F0DF91CF911F910F9172
:1005C000FF90EF90DF90CF900C94000E8C01000F05
:1005D000111F095F1C4FD8018D919C91892B11F33C
:1005E0000E940A0E0297F1F6D801ED91FC91CE011E
:1005F0001995182FD8CF0E94220E90E080E0DF914D
:10060000CF911F910F91FF90EF90DF90CF900895C1
:100610008FEF9FEFF4CF80E064C4CF93DF9386E049
:1006200090E09093840380938303B4D4EC01E7E0DB
:10063000F3E084E0DF011D928A95E9F70E946F0BD9
:100640001092840310928303CE01DF91CF9108951D
:1006500080918503089580916E03089560931A0236
:1006600070931B0280931C0290931D0290E080E027
:100670000895FC0191E080914C03811190E09183F9
:1006800008954F925F926F927F928F929F92AF9256
:10069000BF92CF92DF92EF92FF9280914C038F5FD7
:1006A000853008F070C080934C03C0903703D09021
:1006B0003803E0903903F0903A038FEFC81AD80A54
:1006C000E80AF80AC0923703D0923803E09239035F
:1006D000F0923A03C114D104E104F10499F4809139
:1006E0003B0390913C03A0913D03B0913E030196E2
:1006F000A11DB11D80933B0390933C03A0933D0348
:10070000B0933E0380903F0390904003A09041033C
:10071000B090420360913B0370913C0380913D0394
:1007200090913E030E940032A50194010E94B632CE
:1007300020E030E040E85FE40E94B6322B013C014B
:10074000C701B6010E940032A50194010E94B63291
:100750009B01AC01C301B2010E946C316093330371
:10076000709334038093350390933603FF90EF909A
:10077000DF90CF90BF90AF909F908F907F906F90C1
:100780005F904F90089510924C038FCF4F925F92DD
:100790006F927F928F929F92AF92BF92CF92DF9291
:1007A000EF92FF92CF93DF9300D000D01F921F9261
:1007B000CDB7DEB744E659E066E779E08AE699E02E
:1007C00056D2C0900802D0900902E0900A02F09040
:1007D0000B0220916A0930916B0940916C0950918C
:1007E0006D09C701B6010E94B63220910C0230910A
:1007F0000D0240910E0250910F020E946B314B018D
:100800005C018092820990928309A0928409B0923F
:100810008509409010025090110260901202709071
:10082000130220916E0930916F0940917009509127
:100830007109C701B6010E94B632A30192010E945C
:100840006B316D837E838F83988760938609709365
:1008500087098093880990938909209172093091C2
:1008600073094091740950917509C701B6010E943E
:10087000B632A30192010E946B3160938A09709392
:100880008B0980938C0990938D0980928E099092A8
:100890008F09A0929009B09291092D813E814F81DC
:1008A000588520939209309393094093940950936B
:1008B000950960939609709397098093980990938E
:1008C0009909C0900002D0900102E0900202F090DD
:1008D0000302A701960160916009709161098091FE
:1008E0006209909163090E94D031882341F0C0923F
:1008F0006009D0926109E0926209F092630967E3AE
:1009000070E080E090E0B9DC90935F0980935E092D
:1009100043E050E0BE016D5F7F4F9EDCC09004025B
:10092000D0900502E0900602F0900702A701960120
:100930006091540970915509809156099091570919
:100940000E94D031882341F0C0925409D0925509B9
:10095000E0925609F092570968E370E080E090E079
:100960008CDC909353098093520943E050E0BE0120
:100970006F5F7F4F71DCA0901802B0901902C09099
:100980001402D0901502E0901602F0901702AB818D
:10099000BC8195010E94E4380E94003220E030E0E2
:1009A00040E057E30E94B632A70196010E946C31E5
:1009B00060939A0970939B0980939C0990939D0979
:1009C000A981BA8195010E94E4380E94003220E09A
:1009D00030E040E057E30E94B632A70196010E9442
:1009E0006C3160939E0970939F098093A009909346
:1009F000A10944E659E066E779E08AE699E039D151
:100A00008091430390914403A0914503B091460324
:100A10000196A11DB11D8093430390934403A093BD
:100A20004503B0934603892B8A2B8B2B99F4809135
:100A3000470390914803A0914903B0914A0301965E
:100A4000A11DB11D8093470390934803A0934903D0
:100A5000B0934A0328960FB6F894DEBF0FBECDBF01
:100A6000DF91CF91FF90EF90DF90CF90BF90AF904C
:100A70009F908F907F906F905F904F900895AF926E
:100A8000BF92CF92DF92EF92FF921F93CF93DF93AB
:100A9000EDE1F3E085E3DF011D928A95E9F780E05F
:100AA00090E0A0E8BFEB80AB91ABA2ABB3AB8AE028
:100AB00097EDA3E2BCE382A393A3A4A3B5A38EEB1B
:100AC0009FEAA8E9B0E884839583A683B78387E487
:100AD0009FE9A9E2B3E780879187A287B3878BE478
:100AE00099EFAFEAB5E284879587A687B78786E254
:100AF00091E2A8E1B8EC808B918BA28BB38BA1E142
:100B0000B3E0B383A283EBE0F3E01196FC93EE93A2
:100B100089E592E0918380839383828395838483A4
:100B200081E393E015969C938E93149781E293E072
:100B300013969C938E93129783E393E017969C935E
:100B40008E931697EAE6F9E088E3DF011D928A9515
:100B5000E9F7CCE4D9E08EE1FE0111928A95E9F73C
:100B600011E01D8F80E0A82E82E0B82EF501808173
:100B70009181A281B3818C8B9D8BAE8BBF8BC12C5D
:100B8000D12C7601C394CD86DE86EF86F88A67E3A2
:100B900070E080E090E0B5DB9B8B8A8B198B18822C
:100BA0001C8FF50184819581A681B78188879987FB
:100BB000AA87BB87C982DA82EB82FC8268E370E095
:100BC00080E090E09EDB9F838E831D83188E198EBC
:100BD0001A8E1B8EDF91CF911F91FF90EF90DF90C7
:100BE000CF90BF90AF9008958091580981111DC09A
:100BF00081E0809358098091590990915A09A091F8
:100C00005B09B0915C090197A105B10571F4809170
:100C10005D09882351F067E370E080E090E02DDB10
:100C200090935F0980935E098FDB80914C0981115D
:100C30001DC081E080934C0980914D0990914E092F
:100C4000A0914F09B09150090197A105B10571F428
:100C500080915109882351F068E370E080E090E0D2
:100C60000CDB90935309809352096ECB08950C943A
:100C7000482E0C947B2E4F925F926F927F928F92B0
:100C80009F92AF92BF92CF92DF92EF92FF920F931B
:100C90001F93F89440905E0350905F036090600350
:100CA00070906103C0905203D0905303E0905403BE
:100CB000F0905503452B09F0A4C09B01AC01241909
:100CC00035094609570929013A0100915A03109143
:100CD0005B0320915C0330915D0348015901840C52
:100CE000951CA61CB71C80169106A206B306A0F49C
:100CF00000915603109157032091580330915903E6
:100D00000F5F1F4F2F4F3F4F009356031093570312
:100D1000209358033093590380925A0390925B03B7
:100D2000A0925C03B0925D030091560310915703AB
:100D3000209158033091590380926203909263038B
:100D4000A0926403B0926503009366031093670357
:100D5000209368033093690360935E0370935F038D
:100D60008093600390936103A0E1B7E2A301920135
:100D70000E94F3386C0D7D1D8E1D9F1D60935203E4
:100D800070935303809354039093550300911A0278
:100D900010911B0220911C0230911D020F3F1F4F2A
:100DA0002F4F3F4FF1F000911A0210911B0220913A
:100DB0001C0230911D020E3F1F4F2F4F3F4F89F0F5
:100DC000C0901A02D0901B02E0901C02F0901D020D
:100DD00021E08C149D04AE04BF0408F420E02093AD
:100DE0006E0378941F910F91FF90EF90DF90CF905A
:100DF000BF90AF909F908F907F906F905F904F903B
:100E000008954B015C0184189508A608B708A30152
:100E10009201261B370B480B590B64157505860587
:100E20009705D0F082169306A406B50640F420E09C
:100E300030E0A90181149104A104B10491F4A0E16E
:100E4000B7E20E94F338A7019601261B370B480B27
:100E5000590BCA01B901C5CF82169306A406B5067F
:100E600070F7A0E1B7E2A50194010E94F3386C0D80
:100E70007D1D8E1D9F1DB5CFFECECF93DF9300D07D
:100E80001F92CDB7DEB71C821B821A821982109284
:100E90006A0310926B0310926C0310926D03BE01F3
:100EA0006F5F7F4FCE0103960E943D2469817A8156
:100EB0008B819C810E94271D009761F4BE016F5FAA
:100EC0007F4FCE0103960E94492469817A818B81EC
:100ED0009C812ED50F900F900F900F90DF91CF91A6
:100EE0000895FF920F931F93CF93DF93082F60E035
:100EF00070E0CB010E949433FF24F3940E94101CF5
:100F0000EC01892B89F010E0CE3F8FEFD80769F014
:100F1000002361F160E070E0CB010E94943381E036
:100F200090E0892B59F322C011E025D5EC01892BE3
:100F300021F0CE3F8FEFD80759F711111EC011E0F5
:100F4000229609F410E00E94C01BEC01892B21F0CD
:100F5000CE3F8FEFD807E1F6111111C011E0CE3F5F
:100F60008FEFD80709F410E001110BC0CE01DF911B
:100F7000CF911F910F91FF90089511E0E4CF11E000
:100F8000F3CF60E070E0CB010E9494331F25812FE6
:100F900090E0C7CFCF93DF9380916E03882321F039
:100FA00060E070E0CB014CD635D6D0E0C0E0892BB4
:100FB00071F06AE070E080E090E00E94943381E09C
:100FC00090DF28D62196C03D27E0D20781F727D6AB
:100FD0000E947B1D109286031092850310927F035E
:100FE00010928003109281031092820310927B036F
:100FF00010927C0310927D0310927E03109277036F
:10100000109278031092790310927A03109273036E
:1010100010927403109275031092760310926F036E
:101020001092700310927103109272034EEF5FEFF3
:101030006FEF7FEF40931A0250931B0260931C02E4
:1010400070931D0210926E03E2E6F3E028E0DF01E8
:101050001D922A95E9F710925E0310925F03109299
:1010600060031092610310925A0310925B03109276
:101070005C0310925D031092560310925703109276
:101080005803109259031092520310925303109276
:10109000540310925503DF91CF910895109292035B
:1010A000109293031092940310929503109291035F
:1010B00080919A0390919B039093900380938F0368
:1010C00010928E0310928D031092890310928A035E
:1010D00010928B0310928C03109297031092960338
:1010E00090E080E00895CF92DF92EF92FF920F930D
:1010F0001F93CF938C01892B09F055C020919A033F
:1011000030919B0380918F039091900340919A03BB
:1011100050919B035093900340938F0328173907F6
:1011200081F010928E0310928D0310928903109219
:101130008A0310928B0310928C03109297031092E3
:10114000960380919A0390919B03019761F580919A
:10115000960390919703892B21F480911E028111AF
:1011600012C080919603909197030197E1F48091CA
:10117000890390918A03A0918B03B0918C0301970E
:10118000A105B10581F41092890310928A0310928F
:101190008B0310928C0310921E0282E090E09093D9
:1011A00097038093960380919A0390919B030197F4
:1011B00009F01CC18091B0039091B1038017910791
:1011C00009F014C18091AC039091AD03A091AE03DE
:1011D000B091AF03009709F409C12091AB0321112D
:1011E0000DC04091AC035091AD036091AE0370917E
:1011F000AF03452B462B472B09F4F8C020919603EB
:10120000309197032230310509F0F0C020918D0311
:101210002111ECC0FC01C080D180E280F38080917C
:101220009103882309F4D3C080919D0390919E037C
:10123000892B09F4FDC020919D0330919E0381E02C
:101240002230310509F080E020919D0330919E030A
:10125000C1E02130310549F020919D0330919E037A
:10126000C1E02230310509F0C0E0882309F456C0FE
:101270002091A7033091A8034091A9035091AA039C
:10128000C701B6010E94B23287FD14C02091A703A6
:101290003091A8034091A9035091AA036091920351
:1012A0007091930380919403909195030E94D031A3
:1012B00087FD22C02091A7033091A8034091A90384
:1012C0005091AA03C701B6010E94B232181634F534
:1012D0002091A7033091A8034091A9035091AA033C
:1012E0006091920370919303809194039091950380
:1012F0000E94D031811112C080919F039091A00370
:10130000A091A103B091A203892B8A2B8B2B19F4F6
:1013100081E080938E0381E080938D03CC2309F4D8
:1013200056C02091A7033091A8034091A903509182
:10133000AA03C701B6010E94D03187FF14C02091D3
:10134000A7033091A8034091A9035091AA0360918B
:1013500092037091930380919403909195030E945E
:10136000B23287FF22C02091A7033091A803409199
:10137000A9035091AA03C701B6010E94D03181117F
:1013800026C02091A7033091A8034091A903509152
:10139000AA036091920370919303809194039091BA
:1013A00095030E94B232181694F480919F03909195
:1013B000A003A091A103B091A203892B8A2B8B2BB0
:1013C00019F481E080938E0381E080938D0381E0A6
:1013D00090918D03911180E080939103C0929203CC
:1013E000D0929303E0929403F0929503012B09F0BD
:1013F00067C18091960390919703892BD9F410923D
:101400009C0310928D0380911E02882379F082E064
:1014100090E0909397038093960310921E02209180
:101420009A0330919B0381E0232BE9F080E01BC0FD
:1014300081E00ACF10921E0280919C03882349F01C
:1014400010928E03109297031092960310929C03B1
:10145000EDCF80919A0390919B03892BE1F08091CD
:101460008D0310928D0320919603309197032230C3
:10147000310509F45EC088F42115310509F448C02E
:101480002130310509F4F3C010928E0310928D03C0
:1014900010929C0338C081E0E6CF2330310509F477
:1014A000B1C02430310581F74091890350918A03FE
:1014B00060918B0370918C03411551056105710595
:1014C00061F04150510961097109409389035093BA
:1014D0008A0360938B0370938C034091890350912E
:1014E0008A0360918B0370918C03452B462B472B0D
:1014F000D9F420919803309199032130310509F0F6
:1015000046C010928E0310929703109296030CC05F
:1015100080911E02882341F082E090E0909397032F
:101520008093960310921E021092870380918E037F
:10153000CEC08823C9F380919F039091A003A0910E
:10154000A103B091A203181619061A061B060CF087
:101550007DC080919A0390919B03019709F076C01A
:1015600080919F039091A003A091A103B091A20349
:101570008093890390938A03A0938B03B0938C0389
:1015800083E090E09093970380939603CDCF4091B2
:10159000A3035091A4036091A5037091A603452B6A
:1015A000462B472BA9F010928E038091A3039091B4
:1015B000A403A091A503B091A603809389039093FF
:1015C0008A03A0938B03B0938C0381E090E0DACF81
:1015D000882399F080911F0290912002A09121020E
:1015E000B09122028093890390938A03A0938B0386
:1015F000B0938C0384E090E0C5CF10928E0382E01C
:1016000090E0C0CF8091890390918A03A0918B03D1
:10161000B0918C030097A105B10559F00197A1097C
:10162000B1098093890390938A03A0938B03B093AD
:101630008C038091890390918A03A0918B03B091D0
:101640008C03892B8A2B8B2B09F06ECF80911F0284
:1016500090912002A0912102B0912202892B8A2B25
:101660008B2B09F44ECF81E080938E03B3CF409152
:10167000890350918A0360918B0370918C0341150B
:1016800051056105710561F0415051096109710908
:101690004093890350938A0360938B0370938C0368
:1016A0004091890350918A0360918B0370918C0360
:1016B000452B462B472B09F037CF8111C7CF9FCF42
:1016C00080918703882309F431CF80918803CF91DB
:1016D0001F910F91FF90EF90DF90CF90089510929F
:1016E0009203109293031092940310929503109218
:1016F0009103109297031092960310929003109208
:101700008F031092B1031092B00310928E031092C7
:101710008D031092890310928A0310928B0310920A
:101720008C0310928803109287031092AC031092DE
:10173000AD031092AE031092AF031092AB03109260
:10174000A7031092A8031092A9031092AA0388EE8F
:1017500093E0A0E0B0E080931F0290932002A0935A
:101760002102B09322021092A3031092A4031092BC
:10177000A5031092A60310929F031092A00310924B
:10178000A1031092A20310929E0310929D0381E088
:1017900080931E0210929C0310929B0310929A0356
:1017A000109299031092980390E080E00895809140
:1017B0009A0390919B03892B19F580911E0288232F
:1017C00051F080919C03811106C081E080938803D1
:1017D00080938703089520919C0330911E0281E03D
:1017E00090E0332311F090E080E030E082239323F7
:1017F000892B21F01092880381E0EACF10928703B1
:10180000089582E090E0FA01918380838FEF9FEF4B
:101810000895CF93DF93EA01009711F00E949B1E79
:101820001982188290E080E0DF91CF910895DB016A
:10183000009719F48FEF8C9308952EEF2C93FC01F1
:101840003F96EF30F10508F034C08827E55DF34F8F
:101850008F4F0C94DC38570C550C530C510C4F0C1B
:101860004B0C4D0C490C470C450C420C3E0C3A0CF1
:10187000400C590C80E311968C93089589E2FBCFBC
:1018800082E2F9CF11961C92089583E2F4CF81E2AF
:10189000F2CF81E1F0CF87E2EECF8AE2ECCF80E1B8
:1018A000EACF84E2E8CF88E2E6CF86E2E4CF81E3C4
:1018B000E2CF80E2E0CF8091BE039091BF03089514
:1018C0009093BF038093BE0308958091BD03089554
:1018D0009091BD03892B8093BD030895982F909517
:1018E0008091BD0389238093BD0308958091BC033B
:1018F00008958091BA039091BB0308956115710515
:1019000059F0FB0130E020E070E060E0241735077B
:1019100019F06115710511F0CB010895A081B18115
:10192000A817B90709F4BF012F5F3F4F3696EECFD6
:101930008091C00381111CC060D266D29093B30322
:101940008093B2030E9499160E94AB169093B7033E
:101950008093B6030E94281B0E942F1B9093B5030F
:101960008093B40381E08093C00390E080E0089509
:1019700084EF9FEF08958F929F92AF92BF92CF9284
:10198000DF92EF92FF920F931F93CF93DF9300D0DC
:1019900000D000D01F92CDB7DEB71A861986188600
:1019A0001F821E821D821C821B821A8219828091D4
:1019B000C00307EF1FEF882309F49CC08E010D5F61
:1019C0001F4F9E012B5F3F4FAE01495F5F4FBE012E
:1019D000675F7F4F90E080E00E94AC1C8C01009715
:1019E00021F00596029708F0DBC029853A8521157C
:1019F000310509F402C1ED80FE804B815C81B701A5
:101A0000640F751F8F8198858617970708F4F5C0B6
:101A1000E20EF31ED7019C91903C09F07FC042304A
:101A2000510508F47BC011968C914091BE035091F2
:101A3000BF03452B09F49CC0913F08F071C02CE115
:101A4000290F2D3008F48BC02DE2290F203108F426
:101A500089C0903C21F48150823008F483C088E32F
:101A6000890F8B3008F481C097E1C92E9CE0D92EF4
:101A7000E1E0FCE06D817E81AE014F5F5F4F8985C3
:101A80009A8519955C01C114D104A1F189809A80CD
:101A90008114910479F18B819C818815990508F452
:101AA00087C010E000E04B815C8170E060E0C7011E
:101AB0000E94063901151105E9F449815A816985A9
:101AC0007A858D819E81680F791FC501F601199570
:101AD000E980FA800D811E812F81388549855A85DC
:101AE0006FEF7FEF81E090E00E94471C8C01892B13
:101AF00009F056C0C8012A960FB6F894DEBF0FBE93
:101B0000CDBFDF91CF911F910F91FF90EF90DF90AC
:101B1000CF90BF90AF909F908F90089580E085CF39
:101B200030E020E0220F331FF901EE54FC4F01900A
:101B3000F081E02D309709F497CF892F90E0199527
:101B4000009709F491CFDC011296ED91FC91139767
:101B50001496CD90DC90309709F08CCF1FC021E017
:101B600030E0E0CF22E030E0DDCF23E030E0DACF3C
:101B7000D12CC12CE9E0FCE09F3F09F07BCFE09144
:101B8000B203F091B303309721F4C90104EF1FEFC2
:101B90000CC08FEF90E019950097A9F604EF1FEFA6
:101BA00089859A85009709F4A5CF0E949B1EA2CF34
:101BB0000E94761D8C0189859A850E949B1E70E08B
:101BC00060E0C4010E940F1D98878F830E94441C0F
:101BD0009E838D836F8178856115710559F0C801E9
:101BE0000E9427209A87898706EF1FEF892B09F02B
:101BF00058CF59CF08EF1FEF56CF08EF1FEFD0CFC8
:101C00002091C003222319F020E00C94B01687EF36
:101C10009FEF08958091BE039091BF0308950E94A5
:101C2000341B0E948E1AF5D0E2EBF3E088E0DF016E
:101C30001D928A95E9F71092C00390E080E0089524
:101C40000C94EC1821E040E050E0BA010C94B0167E
:101C500086E090E0FA019183808390E080E008952F
:101C600047E050E06CE572E049CEDF92EF92FF92E0
:101C70000F931F93CF93DF938A01EC01C60FD71FF9
:101C8000E090C403F090C503D9800E945E1DD81671
:101C9000190678F082E090E0F801918380838EEF5E
:101CA0009FEFDF91CF911F910F91FF90EF90DF9009
:101CB0000895EF2841F482E090E0F8019183808359
:101CC00084EF9FEFEECF89818093C30390E001966C
:101CD000F8019183808390E080E0E3CFCF93DF939E
:101CE000EA010E949D19882321F00E946B1D0E9429
:101CF0009E1982E090E0998388838BEF9FEFDF91BC
:101D0000CF910895CF93DF93EB0186E0FB01119211
:101D10008A95E9F78FEF8883D8DD8983E7DD8A83A9
:101D2000E8DD9D838C83DF91CF910895CF93DF937E
:101D3000EA010E94A019811109C082E090E0998314
:101D4000888385EF9FEFDF91CF91089590E080E049
:101D5000B7DD81E090E09983888390E080E0F3CF65
:101D60000F931F93CF93DF93EA018C01060F171F88
:101D70000E94A01981110BC082E090E099838883B2
:101D800085EF9FEFDF91CF911F910F910895F8019B
:101D90008181823038F082E090E0998388838EEFF1
:101DA0009FEFF0CF81E090E08BDD88E090E09983B9
:101DB000888390E080E0E6CFCF93DF930097D1F463
:101DC000EB01FB01329686E0DF011D928A95E9F76F
:101DD0008FEF888385E089831A820E945E1D8B8342
:101DE0000E945D1D9D838C8381E08E838F83DF91B4
:101DF000CF910895DF91CF911ACD80E39EE090932B
:101E0000C2038093C10308958091C1039091C203DE
:101E100008951092C2031092C10308958091C403E3
:101E20009091C5030895411105C0611571058105A3
:101E3000910561F06093C4037093C5038093C6035A
:101E40009093C7034093C80381E0089580E008950C
:101E5000FF920F931F93CF93DF938A01EC01C60F7C
:101E6000D71FF9800E945E1DF816190668F082E0FF
:101E700090E0F801918380838EEF9FEFDF91CF9107
:101E80001F910F91FF9008956C817D818E819F81BC
:101E90004B81C9DF811108C082E090E0F801918395
:101EA000808384EF9FEFEACF89818093C30390E022
:101EB0000196F8019183808390E080E0DFCFCF939B
:101EC000DF93EA01FC01E60FF71F648175818681CB
:101ED00097814381A8DF811109C082E090E0998356
:101EE000888384EF9FEFDF91CF91089581E090E0A8
:101EF0009983888390E080E0F6CFE4ECF3E04081C2
:101F0000518162817381480F511D611D711D408394
:101F10005183628373830895CF93C091C3034C2F81
:101F200050E06091C4037091C50301960E94FD3892
:101F30008C2FE3DF1092C303CF910895009799F49B
:101F40008091C4039091C5032FEFFB012083892B5F
:101F500059F02091C30330E02F5F3F4F241735071E
:101F600019F4CB01D9CF63CC0895009799F48091EF
:101F7000C4039091C5032FEFFB012083892B59F0F7
:101F80002091C30330E02F5F3F4F2417350719F42A
:101F9000CB01C2CF4CCC089523E1AC01249FC001FA
:101FA000259F900D1124E091CD03F091CE03E80F11
:101FB000F91F238134812250310981E0223031051B
:101FC00008F080E008950F931F93CF93DF93009163
:101FD000CF031091D003D0E0C0E080E00C171D07C4
:101FE00049F491E0811190E0892FDF91CF911F9109
:101FF0000F9108958111F5CFCE01CEDF2196EECF5E
:10200000A091CD03B091CE03109729F12091CF0379
:102010003091D00382179307F0F453E1589F900159
:10202000599F300D1124A20FB31FED91FC91119710
:10203000309789F012968C91681768F48DE0689F4C
:10204000E00DF11D112480819181892B21F081E027
:102050009281491708F080E008959C0143E1429F76
:10206000C001439F900D1124E091CD03F091CE0368
:10207000E80FF91F8385823091F481E090E065815B
:10208000768140912302509124026417750711F460
:1020900090E080E0892B19F081E0232B09F080E0AB
:1020A0000895FC01A081B1818DE0689FA00DB11D54
:1020B000112413964D915C9185859685489F9001DA
:1020C000499F300D589F300D1124C90101966111AF
:1020D00003C0478144FD04960895EF92FF920F9349
:1020E0001F93CF93DF93EA01FC01E60FF71F0281F4
:1020F0001381E480F5804F2D6E2DC80181DF8111A1
:102100000DC082E090E0998388838EEF9FEFDF918E
:10211000CF911F910F91FF90EF900895C8013CDF80
:10212000882339F082E090E09983888388EF9FEFDD
:10213000EECF10932A0200932902E0922B02F09234
:102140002C0281E090E09983888390E080E0DFCFEB
:10215000CF92DF92EF92FF920F931F93CF93DF9373
:102160007A01EC01C60FD71FC0902902D0902A0235
:1021700000912B0210912C02412F602FC60140DFED
:10218000811110C082E090E0F701918380838AEF93
:102190009FEFDF91CF911F910F91FF90EF90DF9014
:1021A000CF900895C601F8DE882341F082E090E0E8
:1021B000F7019183808388EF9FEFEBCF4C815D81A6
:1021C0006E817F819A8189818F3F41F082E090E02A
:1021D000F701918380838EEF9FEFDBCFE3E1EC9DEE
:1021E0009001ED9D300D1124E091CD03F091CE03CF
:1021F000E20FF31F0190F081E02D2DE0029FE00D32
:10220000F11D11240190F081E02D27E0129FE00DD7
:10221000F11D1124808391838B81828343835483B6
:10222000658376831F5F10932C0281E090E0F701B5
:102230009183808390E080E0ACCFEF92FF920F9388
:102240001F93CF93DF937A018C01060F171FC09164
:10225000CD03D091CE03209781F021E030E0F8014A
:10226000828193814091CF035091D00384179507C9
:1022700010F030E020E0232B71F482E090E0F701D1
:10228000918380838EEF9FEFDF91CF911F910F910C
:10229000FF90EF90089543E1489F9001499F300DD2
:1022A0001124C20FD31F78DE882341F082E090E032
:1022B000F7019183808388EF9FEFE6CFF8012481B7
:1022C000358120383105C8F687818111D6CF41810B
:1022D000842F90E08F7E009741F082E090E0F7013C
:1022E0009183808386EF9FEFCFCF4F833E832D83F3
:1022F000268128871986223010F421E0288721E0E2
:1023000030E0F70131832083BFCF88E090E0FA010D
:102310009183808390E080E00895FB018FEF8083BC
:1023200081E181838FEF9FEF9383828380E890E048
:1023300095838483168217820895FB018FEF808333
:1023400091E0918382839383848384E3858381E016
:1023500090E0978386830895DF92EF92FF920F9328
:102360001F93CF93DF93EA01FC01E60FF71F8181F2
:10237000813071F082E090E0998388838FEF9FEF46
:10238000DF91CF911F910F91FF90EF90DF90089513
:1023900082819381D4802581E680F7800091CD03EE
:1023A0001091CE030115110539F482E090E0998374
:1023B00088838CEF9FEFE4CF4091CF035091D003FF
:1023C0008417950738F082E090E0998388838EEF38
:1023D0009FEFD6CF892B39F082E090E099838883F4
:1023E00086EF9FEFCDCF8D2D8D7FB1F72130A1F7F7
:1023F00081E0D11006C091E0E916F10431F080E0EF
:1024000004C0E2E0EE16F104D0F3882329F390E053
:1024100080E0C2DD882339F082E090E099838883F0
:1024200088EF9FEFADCFF801D38681E08487F686F1
:10243000E586108A178681E090E09983888390E092
:1024400080E09ECF4CE050E066E872E057CA8F9281
:102450009F92BF92CF92DF92EF92FF920F931F93C2
:10246000CF93DF93EA01FC01E60FF71F828193818E
:102470000481B580E091CD03F091CE03309791F4C3
:1024800082E090E0998388838CEF9FEFDF91CF917A
:102490001F910F91FF90EF90DF90CF90BF909F9092
:1024A0008F9008952091CF033091D0038217930726
:1024B00038F082E090E0998388838EEF9FEFE6CF3B
:1024C00023E1289F6001299FD00C1124EC0DFD1DF4
:1024D000E080F180E114F10499F28281081748F755
:1024E0008DE0089F80011124E00EF11EF70180812C
:1024F0009181892B29F6BB20E1F2F7E0BF9E4001D4
:102500001124C4010E94621EF70191838083E0912F
:10251000CD03F091CE03EC0DFD1D0190F081E02D77
:10252000E00FF11F80819181009739F482E090E003
:10253000998388838DEF9FEFA9CFA40170E060E0BD
:102540000E9406398091CD039091CE03C80ED91E0A
:10255000F60180819181080F191FF801B28281E094
:1025600090E09983888390E080E090CFAF92BF9213
:10257000CF92DF92FF920F931F93CF93DF93EA01E5
:10258000FC01E60FF71F82819381F4800091CD0357
:102590001091CE030115110581F482E090E099833A
:1025A00088838CEF9FEFDF91CF911F910F91FF9068
:1025B000DF90CF90BF90AF9008952091CF033091DE
:1025C000D0038217930738F082E090E099838883E4
:1025D0008EEF9FEFE8CF2FEF2F0D2C3FA8F723E1D1
:1025E000289F6001299FD00C11240C0D1D1DF8019E
:1025F00080819181892B89F6FDE0FF9E5001112495
:10260000C5010E94621EF80191838083E091CD0391
:10261000F091CE03EC0DFD1D80819181009739F47E
:1026200082E090E0998388838DEF9FEFBCCFA50176
:1026300070E060E00E940639E091CD03F091CE0396
:10264000EC0DFD1DF28281E090E09983888390E09B
:1026500080E0A9CFCF92DF92EF92FF920F931F936A
:10266000CF93DF93860F971FFC0102811381809126
:10267000CD039091CE03892B81F082E090E0FA01A6
:10268000918380838CEF9FEFDF91CF911F910F910A
:10269000FF90EF90DF90CF900895C801B0E0A0E0E8
:1026A0000197A109B1098F3F9F4FA105B10540F0E6
:1026B00082E090E0FA01918380838EEF9FEFE4CF78
:1026C0007A0183E1809F6001819FD00C1124C601B3
:1026D0000E94621EEC01009741F482E090E0F70155
:1026E000918380838DEF9FEFCFCFA60170E060E0F4
:1026F0000E940639D093CE03C093CD031093D0032C
:102700000093CF0390E080E02FEF3FEF41E061E0E6
:1027100070E08017910741F481E090E0F701918328
:10272000808390E080E0B0CF3A8B298B1B864C876A
:102730007E876D87188A1F8601966396EACFEF928F
:10274000FF921F93CF93DF93EC0110E0F12CE12C6B
:102750006A811617B0F083E0689FB0011124AE01C2
:102760004F5E5F4FC7010E94C71E009721F02FEFF9
:102770003FEF3A8B298BDF91CF911F91FF90EF9024
:102780000895612FCE018DDC61E070E00E940F1D85
:10279000E816F90608F47C011F5FDACFF89420915F
:1027A000CB033091CC0381E02115310509F080E0A5
:1027B000232B09F0789408952F923F924F925F92C5
:1027C0006F927F928F929F92AF92BF92CF92DF9241
:1027D000EF92FF920F931F93CF93DF933C01660E0E
:1027E000771EF301828193814C01B12CA12CC09101
:1027F000CD03D091CE03209769F021E030E06091C5
:10280000CF037091D0038617970710F030E020E0D7
:10281000232BD1F482E090E0FA01918380838EEF44
:102820009FEFDF91CF911F910F91FF90EF90DF907D
:10283000CF90BF90AF909F908F907F906F905F9060
:102840004F903F902F90089580922D0290922E02EB
:10285000A0922F02B092300263E1689F9001699FBD
:10286000300D1124C20FD31FF3018181833040F05A
:1028700082E090E0FA019183808386EF9FEFD1CFD1
:102880002A012B813C81232BF1F4288139819F81FE
:1028900091FF2EC0232B09F46FC02091D2039A819F
:1028A000422F490F5527551FBA0141E050E06138CA
:1028B000710514F050E040E0452B09F45DC02A8713
:1028C000920F9093D2038150823008F481C066DF6A
:1028D000882309F4D8C0F3018181813009F48DC0C7
:1028E00008F47BC0823009F4C6C090E080E0ADC03F
:1028F000232B09F441C02091D1039A81E22FE90FE3
:10290000FF27FF1F41E050E0ED3FF10514F050E0DC
:1029100040E0452B89F12A87920F9093D103D3CFC2
:10292000A081B181A20FB31F11966C91060F111DEA
:102930000196295F3F4F8417950794F38D859E85F7
:10294000089F1001099F300C189F300C1124C114EE
:10295000D104D1F48F8184FF17C00E945D1DF5E082
:102960002F0E311C21E08215930508F420E0A70109
:10297000435F5F4F21110EC082E090E0F20191832E
:10298000808387EF9FEF4DCF0E945D1D2FEF221AAE
:10299000320AE8CF88819981E80EF91EF701148385
:1029A0000383FFEFCF1ADF0A7A018A818C151D0499
:1029B00009F00CF48CCFE881F981EE0DFF1D428106
:1029C00050E030E020E010E000E090E080E0B3CFA5
:1029D000F12CE12CD12CC12CE8CF81E090E09C833C
:1029E0008B83F1DA882309F480CF81E090E00E94A4
:1029F000600C80E40E946E0C78CF89899A890196D8
:102A000061F083E090E09C838B8382E090E00E9401
:102A1000600C80E40E94680C68CF8D819E812091BB
:102A200023023091240282179307D1F46091270288
:102A300070912802AE014F5E5F4F80912502909108
:102A400026020E94E61F0097E1F2789422E030E02F
:102A5000F20131832083892B99F08DEF9FEFE1CE36
:102A600089288A288B2869F6029758F6CE0167DEF6
:102A7000188A1F86E8CF82E090E09C838B8335CF55
:102A800090E080E0CECE82E090E0F20191838083FE
:102A900085EF9FEFC6CE8F929F92AF92BF92CF925B
:102AA000DF92EF92FF920F931F93CF93DF93EA0190
:102AB0008C01060F171FF8018181833098F082E0A6
:102AC00090E09983888386EF9FEFDF91CF911F91EC
:102AD0000F91FF90EF90DF90CF90BF90AF909F90BD
:102AE0008F9008958091CD039091CE03892B61F052
:102AF00081E090E02091CF033091D003232B11F49B
:102B000090E080E0892B39F482E090E0998388831B
:102B10008EEF9FEFDACF42DE882309F4E0C0F801A0
:102B20008181813009F496C0E8F0823099F42091D7
:102B3000CF033091D003E091CD03F091CE0390E02C
:102B400080E041E050E02817390709F0BEC03BDAC9
:102B5000811117C0789481E090E09983888390E098
:102B600080E0B3CF2091CF033091D003E091CD032B
:102B7000F091CE0390E080E041E050E02817390763
:102B800041F481E090E00E94600C80E40E946E0CB1
:102B9000E1CF63817481672B11F0548343830196E5
:102BA0007396ECCFE091CD03F091CE03E00FF11FCF
:102BB0002381348122303105D9F4218932892F3F94
:102BC0003F4FB1F425813681409123025091240278
:102BD0002417350761F5AF014F5E5F4F6091270203
:102BE0007091280280912502909126020E94E61F92
:102BF000EFEFCE1ADE0AEE0AFE0A0D5E1F4F40917D
:102C0000CF035091D00370E060E0C416D506E6060D
:102C1000F70644F5009731F27894892B09F49BCF9D
:102C200082E090E0998388838DEF9FEF4ECFC114AF
:102C3000D104E104F104E1F622303105C8F6CF01F8
:102C40007EDDE091CD03F091CE03E00FF11F108AFD
:102C50001786CECF10E000E090E080E0C12CD12CB0
:102C60007601CDCF0097C1F610E000E0812C912CC9
:102C7000540183E0E82EF12C1AC0E091CD03F091CD
:102C8000CE03E00FF11F83819481029749F4F4820F
:102C9000E38282E090E00E94600C80E40E94680C75
:102CA000FFEF8F1A9F0AAF0ABF0A0D5E1F4F809178
:102CB000CF039091D003B0E0A0E088169906AA0651
:102CC000BB06DCF290E080E0A7CF638174816230C4
:102CD000710511F4548343830196739634CF82E0D7
:102CE00090E09983888385EF9FEFEFCE0097B9F44A
:102CF0008FEFFB01808320912D0230912E0243E162
:102D0000429FC001439F900D1124E091CD03F091AB
:102D1000CE03E80FF91F8285FB01818308950C948F
:102D2000170C88E090E0FA019183808390E080E0C6
:102D300008951092CC031092CB03EDECF3E086E003
:102D4000DF011D928A95E9F782E292E19093CA032E
:102D50008093C90308958091C9039091CA0308958F
:102D60002F923F924F925F926F927F928F929F929B
:102D7000AF92BF92CF92DF92EF92FF920F931F9389
:102D8000CF93DF93CDB7DEB72F970FB6F894DEBFA2
:102D90000FBECDBFF894E091CB03F091CC033196F8
:102DA000F093CC03E093CB0378944090CD03509004
:102DB000CE034114510409F40CC2E091CF03F09109
:102DC000D003EF2B09F405C22D8749875A876B87FB
:102DD0007C8798878F831201B12CA12C10E000E032
:102DE0008091CF039091D003A816B90618F401156D
:102DF000110529F1F8948091CB039091CC030197B0
:102E00009093CC038093CB037894C8012F960FB690
:102E1000F894DEBF0FBECDBFDF91CF911F910F9110
:102E2000FF90EF90DF90CF90BF90AF909F908F90EA
:102E30007F906F905F904F903F902F900895710119
:102E4000E418F508D10117968C91179781FD54C0AD
:102E500013968D919C911497039709F04DC0159688
:102E60008D919C91EF81F8858E179F0709F044C0E2
:102E7000B50190E080E07FD48A832091CD0330912A
:102E8000CE033D832C833D85332309F44CC04C8114
:102E90005D81452B09F49AC18091CF039091D003B5
:102EA000A816B90608F092C1C501D7D88823E9F061
:102EB0006C817D816E0D7F1D7D836C83DB011F9690
:102EC0008D919C91892B89F0D12CC12CF12CE12C76
:102ED000AC81BD8112968C9112978E151F0409F05A
:102EE00094F450961C921E921F972A81222321F05F
:102EF000B50190E080E041D43FEFA31AB30A43E16B
:102F0000240E311C6DCFAC81BD81ED91FC91EC0D97
:102F1000FD1D858196810FD7BFEFEB1AFB0AEDE00F
:102F2000CE0ED11CD5CFEC81FD81309709F44EC176
:102F30008091CF039091D003A816B90608F046C13E
:102F4000EE0DFF1DFF87EE87C50187D88B83882391
:102F500039F1AE85BF851F968D919C915097019652
:102F600021E01D964D915C918417950709F020E0B2
:102F70002E831982712C10E000E0AE85BF85129679
:102F80008C91781608F45DC0EE85FF858785908961
:102F90000196658576850E94A638908B8787A5CF98
:102FA000B1E0BE83E6CF992493946BC08BD6F60133
:102FB0009683858382C0D601ED90FC90B7E06B9E2E
:102FC000E00CF11C1124F7016381748180818F3F33
:102FD00061F121E030E002C0220F331F8A95E2F751
:102FE000C901092E000CAA0BBB0BFB0140815181CA
:102FF0006281738184239523A623B72321E0892B43
:103000008A2B8B2B09F420E0D4012C93D701119645
:103010008C91F60123853485820F932F911D880EA4
:10302000991E1486138663949BC0418150E0C401AD
:103030000E94FD38EBCF998206EF1FEFC5C01982C1
:10304000C3C0F981F111A0CFEDE07E9E7001112483
:10305000AE85BF85CD90DC90CE0CDF1C15D49D8352
:103060008C83BB81BB2309F49ECF81E0EE85FF8575
:1030700027853089232B09F080E0982E882309F4D6
:1030800058C0672D8E859F850CD8D60118969C93C5
:103090008E93179761E070E0C2D4EE85FF85218999
:1030A00032892F3F320709F481CFBC01C901CFD744
:1030B000D60116969C938E931597D60115968D91F1
:1030C0009C911697009709F4B6CFEC81FD818E0F85
:1030D0009F1F1A969C938E931997AE85BF85ED918D
:1030E000FC911197EE0EFF1EF701218532851486A3
:1030F00013861A968C91870DD9018D93711016C085
:10310000EE85FF85878184FF11C049855A856B85CF
:103110007C85F9014183528363837483F70183853E
:1031200094850496A80FB91F14861386F701B287F9
:10313000A187D60115968D919C911697892B09F43C
:1031400043C0EE85FF8525813681809123029091D1
:1031500024022817390779F019968D909C90612CDC
:10316000D60112968C911297681608F424CF1A96FD
:103170009C928E921997BE81BB2309F460CF61E0C7
:1031800070E0F601878190854AD4D6011796ED90BC
:10319000FC90189715964D915C91E1E0F0E0BA81B2
:1031A000BB2311F0F0E0E0E00C811D819C01B50132
:1031B000882799278E1B9F0B6AD38C01892B21F0BE
:1031C000F60185819681B7D57394D7CE0FEF1FEFA7
:1031D0008CCE10E000E00ECE2F923F924F925F9285
:1031E0006F927F928F929F92AF92BF92CF92DF9217
:1031F000EF92FF920F931F93CF93DF938091CD03B4
:103200009091CE0310E000E0892BA9F0C7DA0AEF15
:103210001FEF882381F02090CF033090D003C0911E
:10322000CD03D091CE03D12CC12C10E000E02C14A2
:103230003D04A9F47894C801DF91CF911F910F91BB
:10324000FF90EF90DF90CF90BF90AF909F908F90C6
:103250007F906F905F904F903F902F900895C601A0
:103260000E942D10882309F18B819C810397E9F43A
:103270008F859889892BC9F0B60190E080E07BD2D8
:1032800021E030E0882311F030E020E04424552490
:10329000421A530AB12CA12C912C812C8A818815B9
:1032A000190409F038F4188A1F864FEFC41AD40A9B
:1032B0006396BDCFE881F981EA0DFB1D858196817A
:1032C000892BA1F161E070E087819085A8D33C0152
:1032D000DBD28C01E881F981EA0DFB1D81859285A5
:1032E00025813681200F311FAC01421B530B9A01FF
:1032F00047815085421B530B70E060E00E94063905
:10330000E881F981EA0DFB1DE780F0844581568153
:103310009301B601C201BBD28C01892B39F0E8813F
:10332000F981EA0DFB1D8581968105D55FEF851A30
:10333000950A8DE0A80EB11CB1CF30CA78940895DB
:103340002F923F924F925F926F927F929F92AF9295
:10335000BF92CF92DF92EF92FF920F931F93CF9382
:10336000DF9300D000D0CDB7DEB70091CD03109130
:10337000CE03992493940115110509F43EC0A09041
:10338000CF03B090D0030ADA982E8823B1F11092BF
:10339000CE031092CD031092D0031092CF0310925F
:1033A000D1031092D2038FEF9FEFDC0180932D02A7
:1033B00090932E02A0932F02B093300278947FD383
:1033C0001E830D83C12CD12C7601C501B0E0A0E095
:1033D00089839A83AB83BC8322242A94322C8981EB
:1033E0009A81AB81BC81C816D906EA06FB06F4F0C7
:1033F000C801A1D480E40E946E0C892D26960FB6D8
:10340000F894DEBF0FBECDBFDF91CF911F910F911A
:10341000FF90EF90DF90CF90BF90AF909F907F9004
:103420006F905F904F903F902F900895AD81BE8137
:1034300015968D919C91169720912302309124022C
:1034400082179307D1F451968D919C91EED5ED8121
:10345000FE8180819181B12CA12C412C512C320113
:10346000892B89F5BFEFCB1ADB0AEB0AFB0AED814A
:10347000FE817396FE83ED83B2CFC114D104E104C3
:10348000F10429F7029718F7ED81FE81818992896D
:103490008F3F980709F029D5AD81BE8152963C92A5
:1034A0002E925197D4CF8A0D9B1DDC018D919C915A
:1034B000009709F040D4BFEF4B1A5B0A6B0A7B0AF6
:1034C000EDE0AE0EB11CAD81BE818D919C91119746
:1034D00012964C9150E070E060E044165506660686
:1034E00077060CF328D4BECFCF93DF93EA0128DF11
:1034F000811109C082E090E09983888385EF9FEF76
:10350000DF91CF91089581E090E00E94600C81E00E
:1035100090E09983888390E080E0F2CF11DF1092F1
:10352000CA031092C903089542E050E06EEC72E0C5
:103530000C947E0CFF920F931F93CF93DF938A011D
:10354000EC01C60FD71FF980B9D20897F8161906F3
:1035500071F068F082E090E0F801918380838EEF53
:103560009FEFDF91CF911F910F91FF9008956C8194
:103570007D818E819F814B810E94130F811108C034
:1035800082E090E0F8019183808384EF9FEFE9CFA0
:10359000F9800E940E0F4F2D50E0BE01685F7F4FF3
:1035A0000E94FD3889810E947D0F81E090E0F80142
:1035B0009183808390E080E0D4CFDF92EF92FF92FE
:1035C0000F931F93CF93DF938A01EC01C60FD71F90
:1035D0000E940E0F7C01D98071D2DD2059F0029734
:1035E00021E030E0D816190619F010F030E020E0A4
:1035F000232B79F482E090E0F801918380838EEFB1
:103600009FEFDF91CF911F910F91FF90EF90DF908F
:103610000895EF2841F482E090E0F80191838083DF
:1036200084EF9FEFEECFF9800E940E0F4F2D50E0F8
:10363000BE016E5F7F4F0E94FD3889810E947D0F21
:1036400081E090E0F8019183808390E080E0D9CF21
:1036500084E99AE19093D4038093D30308958091F1
:10366000D3039091D40308950895FC011182108230
:10367000938382830895DB011D921C92DC011296D4
:10368000ED91FC9113977183608313967C936E93F5
:1036900012970895FC0180819181DB018D939C93A9
:1036A000A081B181109741F08D919C91918380838D
:1036B000892B11F4F383E2830895FC0180819181C9
:1036C000DB018D939C93892B11F473836283718347
:1036D00060830895FC011182108293838283089590
:1036E000CF93DF931F921F92CDB7DEB71A82198254
:1036F000F894BE016F5F7F4F8AED93E0CBDF898145
:103700009A81009709F017D389819A81892B89F7CB
:10371000BE016F5F7F4F8EED93E0BCDF89819A81A0
:10372000009709F008D389819A81892B89F77894C9
:103730000F900F90DF91CF910895CF93DF931F9259
:103740001F92CDB7DEB71A821982F894BE016F5F5F
:103750007F4F86ED93E09EDF89819A81009709F083
:10376000EAD289819A81892B89F778940F900F90FA
:10377000DF91CF91089581E0089590E080E0089571
:10378000EF92FF920F931F93CF93DF931F921F929D
:10379000CDB7DEB71A8219828091D50307EF1FEFEC
:1037A0008823A1F1F894BE016F5F7F4F8EED93E007
:1037B00071DF789489819A81EE24E394F12C892B2E
:1037C00051F4F894BE016F5F7F4F8AED93E062DFA2
:1037D0007894F12CE12C89819A810EEF1FEF0097EC
:1037E000A9F0FC014281538164E070E07AD68C013B
:1037F000892B61F0F89469817A81C701880F991F3C
:10380000880F991F86529C4F58DF7894C8010F90FB
:103810000F90DF91CF911F910F91FF90EF9008953E
:103820000F931F93CF93DF9300D01F92CDB7DEB7D6
:103830001C821B821A8219828091D50307EF1FEF29
:103840008823C1F0AE014D5F5F4F64E070E0CE01B0
:103850000196BAD68C01892B69F4E981FA818B81B2
:103860009C8193838283F89469817A8186ED93E0C9
:1038700002DF7894C8010F900F900F900F90DF91A6
:10388000CF911F910F910895BFD7049608958F92FD
:103890009F92AF92BF92CF92DF92EF92FF920F93DF
:1038A0001F93CF93DF931F921F92CDB7DEB71A827B
:1038B0001982BC016F5F7F4F6330710598F0AA24B5
:1038C000AA94BA2CC5010F900F90DF91CF911F9150
:1038D0000F91FF90EF90DF90CF90BF90AF909F90AF
:1038E0008F9008954115510551F3480159018A01FE
:1038F0006C01CADF8815990511F7E114F104F9F29A
:103900008E0D9F1DA816B906D0F28091D50388238D
:10391000F1F0F894B501645071099701AE014F5F61
:103920005F4FC8010496E5D65C01892B71F489814B
:103930009A81F80193838283C601880F991F880FAB
:10394000991FB80186529C4F96DE7894BBCF87EFC3
:10395000A82EBB24BA94B6CFAF92BF92CF92DF927B
:10396000EF92FF920F931F93CF93DF931F921F92BB
:10397000CDB7DEB71A821982892B09F047C06115CD
:10398000710509F443C04115510509F43FC02115E3
:10399000310509F43BC001151105C1F18091D50332
:1039A0008823B9F179016A015B01F894BE016F5F68
:1039B0007F4F86ED93E06EDE789489819A8100973F
:1039C00059F1DC0112966D917C91A8010496AAD65A
:1039D0008C01E981FA81D501ED93FC938281938179
:1039E0000496F601918380834FDFD7018D939C93DA
:1039F000C8010F900F90DF91CF911F910F91FF9011
:103A0000EF90DF90CF90BF90AF9008950FEF1FEF32
:103A1000EFCF07EF1FEFECCF0EEF1FEFE9CFCF9304
:103A2000DF93EC01672B71F4F8D68C179D0760F0DB
:103A3000EBD62496C80FD91FEAD68C0F9D1FDF91B5
:103A4000CF910895E7D6F1CF90E080E0F8CF0F93C3
:103A50001F93CF93DF932091D50321112BC08B01AE
:103A6000EC018AED93E001DE8EED93E0FEDD86ED64
:103A700093E0FBDD97D00097C1F4CFD670E060E013
:103A8000CEDF41E352E062E070E081D1009769F45B
:103A90008091310290913202D2D6B801CE0107D581
:103AA000009719F421E02093D503DF91CF911F9166
:103AB0000F91089584EF9FEFF8CFACC6AEC6CF93B9
:103AC000DF93AED6EC01892B11F40ADE36DECE018F
:103AD000DF91CF910895CF93DF93A2D6EC01892B8C
:103AE00009F4FEDDCE01DF91CF910895809131027E
:103AF000909132020895CF93DF938091D503D0E067
:103B0000C0E08823D1F0A0D6EC01892BB1F4E8DD28
:103B100014DE8091310290913202E7D1E8D2EC01BB
:103B2000892B59F48AED93E0D5DD8EED93E0D2DD5B
:103B300086ED93E0CFDD1092D503CE01DF91CF91DA
:103B40000895EF92FF920F931F93CF93DF93EC01B1
:103B50007A018B010F5F1F4F0E9DA0010F9D500D2D
:103B60001E9D500D112470E060E00E94063990E027
:103B700080E0F0E0E0E02FEFE816F90639F4DF919D
:103B8000CF911F910F91FF90EF9008951A821982A3
:103B90002883309711F0D283C1830196FE01C00FB4
:103BA000D11FEACFCF92DF92EF92FF920F931F9334
:103BB000CF93DF930BE015E00C7F43E050E063E32D
:103BC00072E089E392E020D483E3E82E82E0F82ECD
:103BD00099E3C92E92E0D92ECAE7D5E0D7014D91DD
:103BE0005D917D01F601619171916F0119830883E7
:103BF0005D834C835B834A837F836E839B012F5F4E
:103C00003F4F249FC001259F900D349F900D11249C
:103C1000998788870115110511F0C80192DF888501
:103C20009985080F191F2A96F9E3EF16F2E0FF06AF
:103C3000A9F6E4EEF3E084E291E0DF019C011D923D
:103C400021503040E1F71092E3031092E20310920A
:103C500099051092980510929D0510929C0510925E
:103C60009B0510929A0510929F0510929E05109246
:103C7000A1051092A0051092A3051092A205109222
:103C8000A7051092A6051092A5051092A405109202
:103C9000A9051092A8051092AB051092AA051092E2
:103CA000770510927605109279051092780590E0CC
:103CB00080E0DF91CF911F910F91FF90EF90DF9007
:103CC000CF9008950097F1F0F894A9E3B2E0EAE705
:103CD000F5E030E020E04D915D9148175907A8F0DC
:103CE000428153814115510581F08AE0829FF001A4
:103CF000839FF00D1124E658FA4F8081918100973F
:103D000059F4789490E080E008952F5F3F4F3A9601
:103D10002330310501F7F5CFDC0111966D917C91CF
:103D2000718360834150510953834283FC01219385
:103D3000CF0178940895009749F1DC018E91853088
:103D400041F4E0917805F09179053097F9F0CD01D3
:103D500019948530D8F4282F30E0F8948FEF8C93A5
:103D60008AE0829FF001839FF00D1124E658FA4FFC
:103D70008081918112969C938E931197B183A08339
:103D80008281938101969383828378940895CF9260
:103D9000DF92EF92FF920F931F93CF93DF939C01DB
:103DA00087EE93E08C7F4115510509F49BC02115E6
:103DB000310509F497C06115710509F493C07A01C2
:103DC000AB01B9016D5F7F4F6C7F9B012F5F3F4F50
:103DD000249F8001259F100D349F100D1124F8940D
:103DE0002091980530919905232B59F42091A00535
:103DF0003091A1052115310569F12017310708F02F
:103E000058C02091A2053091A305232B91F4209155
:103E1000A0053091A105820F931F2091AA05309132
:103E2000AB052115310509F441C02017310708F011
:103E300056C07894CFEFDFEF86EF9FEFF701D18385
:103E4000C083DF91CF911F910F91FF90EF90DF9092
:103E5000CF900895C3E0D0E0C090E203D090E30398
:103E600021E231E02C193D092017310710F32AE037
:103E70002C9FF0012D9FF00D1124E658FA4F9183ED
:103E8000808355834483538342837783668311877A
:103E90000087009709F055DE0C0D1D1D1093E303FC
:103EA0000093E203789490E080E0C8CFC4E0D0E0D3
:103EB000D3CFC3E0D0E02AE02C9FF0012D9FF00D7E
:103EC0001124E658FA4F91838083558344835383AA
:103ED000428377836683009729F333DEE3CFC4E020
:103EE000D0E0E9CF8FEF9FEFACCF9C010397029713
:103EF00008F069C0F89484E09AE0482F50E0241755
:103F000035070CF44DC091E08AE0829FF001839F59
:103F1000F00D1124E658FA4F118210821582148296
:103F200013821282178216829923B1F1809198052B
:103F300090919905892BA9F42091A0053091A105B4
:103F40002115310571F08091E2039091E303821B0A
:103F5000930B9093E3038093E2031092A1051092D8
:103F6000A0058091A2059091A305892BA9F4209129
:103F7000AA053091AB052115310571F08091E2035E
:103F80009091E303821B930B9093E3038093E203EE
:103F90001092AB051092AA05789490E080E0089505
:103FA000949FF001959FF00D1124E658FA4F40813F
:103FB0005181452B31F440855185452B11F48150B9
:103FC0009CCF90E0A1CF8FEF9FEF08954115510551
:103FD00049F1009739F16115710521F1F8942091AB
:103FE000760530917705232BB9F42091780530912F
:103FF0007905232B89F49093770580937605709348
:10400000790560937805789425E030E090E080E0D1
:10401000FA0131832083089578942FEF3FEF86EFE4
:104020009FEFF6CF8FEF9FEF0895059769F4F8940F
:104030001092770510927605109279051092780506
:10404000789490E080E008958FEF9FEF08956115D8
:10405000710519F4F0E0E0E011C08530910581F4BC
:10406000E0917605F09177053097A1F3CB010196A9
:104070001995009779F3FC0185E08193CF010895AC
:104080009C01235031092230310520F72AE0289F76
:10409000D001299FB00D1124A658BA4F2D913C9103
:1040A0001197232BB9F216962D913C91179726174D
:1040B000370780F2F89412962D913C9113972115B1
:1040C000310529F0ED91FC911197309711F4789416
:1040D000C1CF4181528111965C934E932150310999
:1040E00013963C932E93129781937894C7CFE8E070
:1040F000F5E08EE6DF011D928A95E9F7E4EEF3E044
:1041000084E291E0DF019C011D9221503040E1F7F3
:104110001092E3031092E203EAE7F5E082E3DF01A5
:104120001D928A95E9F7E6E7F5E084E0DF011D924C
:104130008A95E9F790E080E00895CF93DF93C091EE
:104140003F02D0914002CF3FDC0761F40E94BA2FBA
:104150009093400280933F0297FF09C0D0934002A2
:10416000C0933F0284EF9FEFDF91CF91089590E0DD
:1041700080E0FACF8230910528F48093AC0590E07E
:1041800080E008958FEF9FEF08954F925F926F92B6
:104190007F92AF92BF92CF92DF92EF92FF920F93F6
:1041A0001F93CF93DF931F921F92CDB7DEB71A8272
:1041B0001982009709F47AC06115710509F476C077
:1041C00020913F023091400207EF1FEF2F3F3F4FFA
:1041D00009F446C06B015C01412C512C3201F12CD9
:1041E000E12C10E000E09E012F5F3F4FA6014E1929
:1041F0005F09B5016E0D7F1D80913F0290914002D5
:104200000E941930892B09F04BC089819A8100974F
:1042100041F4E114F10429F42091AC05222309F4BE
:1042200042C0E80EF91EEC14FD04D0F480E84816F4
:1042300084E858068EE16806710420F560E070E0BD
:10424000CB010E9494332AE0420E511C611C711C68
:104250000A3F4FEF140721F0043F8FEF1807A1F436
:10426000C8010F900F90DF91CF911F910F91FF9098
:10427000EF90DF90CF90BF90AF907F906F905F9066
:104280004F90089501EF1FEF81E090E0013F2FEF85
:10429000120711F090E080E0892B09F4A4CFE0CF61
:1042A00004EF1FEFDDCF0AEF1FEFDACF0FEF1FEFA5
:1042B000D7CF4F925F926F927F92AF92BF92CF9281
:1042C000DF92EF92FF920F931F93CF93DF931F9292
:1042D0001F92CDB7DEB71A821982009709F47AC00F
:1042E0006115710509F476C020913F0230914002BA
:1042F00007EF1FEF2F3F3F4F09F446C06B015C01F2
:10430000412C512C3201F12CE12C10E000E09E01F7
:104310002F5F3F4FA6014E195F09B5016E0D7F1D3E
:1043200080913F02909140020E94CF2F892B09F08B
:104330004BC089819A81009741F4E114F10429F47A
:104340002091AC05222309F442C0E80EF91EEC14BA
:10435000FD04D0F480E4481682E458068FE0680635
:10436000710420F560E070E0CB010E9494332AE0F4
:10437000420E511C611C711C0E3F4FEF140721F0BF
:10438000043F8FEF1807A1F4C8010F900F90DF9141
:10439000CF911F910F91FF90EF90DF90CF90BF9042
:1043A000AF907F906F905F904F90089502EF1FEF56
:1043B00081E090E0023F2FEF120711F090E080E0E3
:1043C000892B09F4A4CFE0CF04EF1FEFDDCF0EEF70
:1043D0001FEFDACF0FEF1FEFD7CF80913F02909101
:1043E00040028F3F980751F00E94B22F892B49F469
:1043F0008FEF9FEF9093400280933F0290E080E028
:10440000089584EF9FEF0895CF92DF92EF92FF928D
:104410000F931F93CF93DF9321E04115510509F0CE
:1044200020E04150510921112CC0DC01FB01D12CAD
:10443000C12C21E022C03FEFC31AD30A7D010D91A8
:104440001D91E701EA80FB80E016F106A8F42081C7
:104450003181E280F380F182E08233832283ED9028
:10446000FC9011979D0122503109E901F982E882FF
:1044700011961C930E9320E03296C416D506D8F2FE
:10448000D2CFDF91CF911F910F91FF90EF90DF90EE
:10449000CF900895FC01680F791F90E080E0E61747
:1044A000F70709F408952191820F911DF8CF20910B
:1044B000AD05211113C041DE009791F41092B305B0
:1044C0001092B2051092B1051092B0051092AF058E
:1044D0001092AE0521E02093AD05089584EF9FEF83
:1044E0000895AF92BF92CF92DF92EF92FF920F9317
:1044F0001F93CF93DF93009709F460C046305105B6
:1045000008F45CC02091AD05C7EFDFEF222309F46A
:1045100049C08C01060F171FF801C080D180C1145B
:10452000D10409F44EC096012A5F3F4F421753074A
:1045300008F447C07C018091B2059091B305938344
:104540008283B6016C5F7F4F5801A60EB71EC8016B
:10455000A1DFF5019183808364E070E0C80115DE7E
:10456000EC01892BF9F481E090E004DEB601C8018A
:1045700004960BDEEC01892B91F462E070E0C5013A
:1045800004DEEC01892B59F4C701D5DB8091B2051B
:104590009091B30501969093B3058093B20590E096
:1045A00080E0E8DDCE01DF91CF911F910F91FF9068
:1045B000EF90DF90CF90BF90AF900895CFEFDFEFF7
:1045C000F1CFC9EFDFEFEECF6F927F928F929F9284
:1045D000AF92BF92CF92DF92EF92FF920F931F9311
:1045E000CF93DF9300D01F92CDB7DEB7009709F4C9
:1045F0007AC04115510509F476C02091AD0507EF49
:104600001FEF222309F44DC03A017B015C0164E0F5
:1046100070E0CE0101964DDE8C01892B09F041C07E
:1046200009811A810115110509F45AC0480186E073
:10463000880E911CB701680D791D809141029091FF
:10464000420205DD6C01009709F450C0A70170E03B
:1046500060E00E94063989819A81AB81BC81EC0CB3
:10466000FD1CF70181939193A193B1937F0181E0A8
:1046700090E080DDB801C7011CDE892B31F562E0D6
:1046800070E0C701800F911F14DE8C01892BE9F4C3
:1046900090E080E06FDDF501D182C082F30191826C
:1046A0008082C8010F900F900F900F90DF91CF91F3
:1046B0001F910F91FF90EF90DF90CF90BF90AF9040
:1046C0009F908F907F906F90089590E080E052DDF2
:1046D000F50111821082F30111821082C6012BDBD9
:1046E00009EF1FEFDECF0FEF1FEFDBCF06EF1FEF5E
:1046F000D8CF0097A1F04115510589F0211531055A
:1047000071F0F90136966E177F0748F0DC012D93A2
:104710003C93DA01ED93FC9390E080E008958FEFF5
:104720009FEF0895AF92BF92CF92DF92EF92FF92E8
:104730000F931F93CF93DF93009709F45FC0411548
:10474000510509F45BC06530710508F457C020912C
:10475000AD05C7EFDFEF222391F1DC01CD90DC90B6
:1047600011971296ED91FC9196012A5F3F4FC9EF88
:10477000DFEF2617370719F5C091AE05D091AF05C9
:10478000209749F521E030E03093AF052093AE0546
:104790007A018C01F093B105E093B0055601B4E0C5
:1047A000AB0EB11CB50176DE0A0D1B1DF801208190
:1047B00031818217930729F5D701CD92DC92CE0182
:1047C000DF91CF911F910F91FF90EF90DF90CF90ED
:1047D000BF90AF9008952091B0053091B1052F5F43
:1047E0003F4FCCEFDFEFE217F30790F2CBEFDFEFB5
:1047F0002E173F0768F2D0E0C0E0CACFCFEFDFEF5F
:10480000DECFC3EFDFEFDBCF84E090E0089582E0FE
:1048100090E008958CEF9FEF089580E290E0089576
:104820001092B3051092B2051092B1051092B00526
:104830001092AF051092AE0590E080E0089590933D
:1048400042028093410208958091AD05882391F042
:10485000C4DD009789F41092B3051092B20510924E
:10486000B1051092B0051092AF051092AE051092EE
:10487000AD05089590E080E00895009749F0611536
:10488000710531F0FC0111821082FB01118210824E
:104890000895F3CF90E080E00895809138069091DC
:1048A0003906891B990B0895909139068091380635
:1048B0002FEF3FEF981748F4E92FF0E0E65CF94F4F
:1048C000208130E09F5F90933906C9010895E091FF
:1048D000390680913806E81730F4F0E0E65CF94FCD
:1048E000808190E008958FEF9FEF0895089591E003
:1048F00090931406809337061092160610921506B0
:1049000008951092C70681E08093C5061092C406F0
:1049100061E084E10E94F13461E085E10E94F134BC
:10492000E9EBF0E080818E7F808380818D7F8083C2
:1049300088E48093B80085E48093BC0008954132F8
:1049400008F041C09091C7069111FCCF91E090937F
:10495000C7062093C5062FEF20935A0610929F0694
:10496000240F20939E069093C6069091C606880F4A
:10497000892B8093C6068091C406813011F5109270
:10498000C4068091C6068093BB008091BC0083FD65
:10499000F8CF85EC8093BC008091C7068130E1F3AD
:1049A00080919F06841710F440919F06A0EAB6E01C
:1049B000962FFB018E2F891B841730F48D918193E4
:1049C000F9CF85EEE7CF40E0842F08950F93413271
:1049D00008F04BC09091C7069111FCCF92E09093E4
:1049E000C7060093C5069FEF90935A0610929F0644
:1049F00040939E06362FA0EAB6E0FB019E2F931B44
:104A0000941718F491919D93F9CF1092C606909146
:104A1000C606880F892B8093C6068091C406813014
:104A200011F51092C4068091C6068093BB00809158
:104A3000BC0083FDF8CF85EC8093BC00222321F0DD
:104A40008091C7068230D1F380915A068F3F79F06A
:104A500080915A06803269F080915A06803359F06D
:104A600084E00F91089585EEE7CF81E0FACF80E0F2
:104A7000F8CF82E0F6CF83E0F4CF20917C06260FBA
:104A80003327331F21323105E4F42091C706243047
:104A9000D1F4FC0190E080E0861760F4A0917C06E0
:104AA0002191AC014258594FA40FB52FB11D2C9341
:104AB0000196F2CF80917C06680F60937C0680E0BF
:104AC000089581E0089582E00895CF93DF931F92C7
:104AD000CDB7DEB76983209114062223F9F0209127
:104AE0001506203258F021E030E0FC0133832283A8
:104AF00090E080E00F90DF91CF91089580911606AD
:104B0000E82FF0E0E95EF94F998190838F5F809301
:104B100016068093150681E090E0ECCF61E0CE01AF
:104B20000196ABDFF8CFCF92DF92EF92FF920F9317
:104B30001F93CF93DF937C01CB018A012091140650
:104B4000222389F0EB016B01C40ED51ECC15DD05C7
:104B500061F06991D701ED91FC910190F081E02D18
:104B6000C7011995F3CF642F88DFC801DF91CF917A
:104B70001F910F91FF90EF90DF90CF90089585EDFA
:104B80008093BC008091BC0084FDFCCF1092C706CE
:104B9000089585EC8093BC001092C70608951F927B
:104BA0000F920FB60F9211240BB60F922F933F93D3
:104BB0004F935F936F937F938F939F93AF93BF9325
:104BC000EF93FF938091B900887F803609F44CC041
:104BD00008F03FC0883209F4A8C028F5803109F4F4
:104BE0009CC0C8F4882309F4F8C0883009F495C043
:104BF000FF91EF91BF91AF919F918F917F916F91B5
:104C00005F914F913F912F910F900BBE0F900FBE70
:104C10000F901F901895883109F487C0803241F7B2
:104C200080935A0614C0803409F49CC040F4803349
:104C3000B9F38833E9F680935A06ABDFD9CF8035D4
:104C400009F484C0883509F495C0883489F697DF63
:104C5000CFCF883909F48CC038F5883729F050F463
:104C6000883611F0803721F683E08093C7061092D2
:104C70005B0657C0883809F47BC0803919F080384A
:104C800009F0B6CF80915B06803208F071C0E091E8
:104C90005B0681E08E0F80935B068091BB00F0E0A5
:104CA000E45AF94F80833DC0803B39F0E0F4803A0C
:104CB00009F479C0883A09F09BCF84E08093C70655
:104CC00010927D0610927C06E091C206F091C30618
:104CD000199580917C0681110FC081E080937C063C
:104CE00010927E0609C0803C09F475C0883C09F426
:104CF00072C0883B09F07CCFE0917D0681E08E0F89
:104D000080937D06F0E0E258F94F80818093BB00EC
:104D100090917D0680917C0629C08091C606809383
:104D2000BB0085EC8093BC0063CF90919F0680917F
:104D30009E06981758F5E0919F0681E08E0F8093AC
:104D40009F06F0E0E056F94F8081E9CFE0919F06A1
:104D500081E08E0F80939F068091BB00F0E0E056CB
:104D6000F94F808390919F0680919E069817C8F214
:104D700085E8D8CFE0919F0681E08E0F80939F0653
:104D80008091BB00F0E0E056F94F80838091C5062A
:104D900081115DCF81E08093C40684EA8093BC00DA
:104DA0001092C70625CFF5DE80915B06803230F485
:104DB000E0915B06F0E0E45AF94F108260915B06E7
:104DC00070E0E091C006F091C1068CE596E019957F
:104DD00010925B060DCF85ECE1CF10925A0637CFCB
:104DE0001092390610923806109216061092150687
:104DF00088CD0F93062F21E04091150667E176E0FC
:104E000080913706E3DD1092160610921506109277
:104E100014060F9108954F925F926F927F92AF9216
:104E2000BF92CF92EF92FF920F931F93CF93DF9396
:104E30005C01F62ED42F28013901EE2011F1862FC6
:104E400056DDCE2DC43008F0C3E0C150B8F028E0E4
:104E5000C29FC0011124A301920104C05695479539
:104E6000379527958A95D2F7B901D501ED91FC9137
:104E70000190F081E02DC5011995E7CF60E0C501F3
:104E8000B8DF4D2FD13208F040E22C2D6AE376E0F6
:104E90008F2D55DD1092390680933806DF91CF9122
:104EA0001F910F91FF90EF90CF90BF90AF907F90A8
:104EB0006F905F904F900895CF92EF920F931F9352
:104EC000C22EE12C00E010E09801A5DF1F910F91A8
:104ED000EF90CF90089521E0EFCF61E08ACF0F935C
:104EE0001F93CF93DF93EC01062F142F8981FFDCF2
:104EF000602F88E096E0E9DD612F88E096E0E5DD4F
:104F000088E096E0EADF8883DF91CF911F910F91CF
:104F100008951F93CF93DF93EC01162F462F4F7701
:104F20006AE8DDDF1983DF91CF911F910895FF9229
:104F30000F931F93CF93DF93EC01F62E142F052FC1
:104F40008981D5DC6F2D88E096E0BFDD602F88E099
:104F500096E0BBDD612F88E096E0B7DD88E096E063
:104F6000BCDF8883DF91CF911F910F91FF9008954F
:104F7000CF92DF92EF92FF921F93CF93DF93EC01DA
:104F8000162F69017A018981B2DC612F88E096E0F1
:104F90009CDD6F2D77278827992788E096E095DD9F
:104FA000B7018827992788E096E08FDD99278F2D14
:104FB0007E2D6D2D88E096E088DD6C2D88E096E0F2
:104FC00084DD88E096E089DF8883DF91CF911F91AF
:104FD000FF90EF90DF90CF9008951F93CF93DF93D2
:104FE000EC01162F898183DC612F88E096E06DDD6E
:104FF00088E096E072DF888341E0698188E096E08E
:105000006ADF88E096E050DCDF91CF911F91089530
:105010001F93CF93DF93EC01162F898168DC612FFA
:1050200088E096E052DD88E096E057DF888342E032
:10503000698188E096E04FDF88E096E035DCD82F84
:1050400080E0C82F88E096E02FDC8C2B9D2BDF9131
:10505000CF911F910895DF92EF92FF920F931F93CC
:10506000CF93DF937C01C62FD42E052F122FFC0186
:1050700081813DDC6C2F88E096E027DDCD2DD02F9F
:10508000115028F0699188E096E01FDDF9CF88E0A3
:1050900096E023DFF7018083DF91CF911F910F917D
:1050A000FF90EF90DF900895EF92FF920F931F9380
:1050B000CF93DF93EC01E62EF42E052F122F89817A
:1050C00016DC6E2D88E096E000DD88E096E005DFD6
:1050D0008883412F698188E096E0FDDECF2DD02FB7
:1050E000115028F088E096E0DFDB8993F9CFDF915B
:1050F000CF911F910F91FF90EF9008956115710569
:1051000029F460E56ADF8F5F880F089561307105CB
:1051100011F460E7F7CF8FEF0895CF92DF92EF920F
:10512000FF92CF93DF93EC016A017B0141E060E8DD
:10513000D6DE41E06FEFCE01D2DE40E060E0CE018E
:10514000CEDE4F8161E9CE01CADE41E060E0CE01F2
:10515000C6DE40E06FEFCE01C2DE40E060E8CE0187
:10516000BEDE42E0C114D104E104F10491F068EF25
:10517000CE014EDF009739F0DC01A70196010E94B5
:10518000F3386B017C01A701960164E0CE01F0DEEB
:1051900044E060E0CE01DF91CF91FF90EF90DF908F
:1051A000CF909DCE0F931F93CF93DF93EC010E947E
:1051B00063337E836D8363E1CE010FDF8770C9F4B3
:1051C0008A819B81892BB9F30E9463332D813E81B3
:1051D000621B730B8A819B818617970760F781E0BA
:1051E0008C830FEF1FEFC801DF91CF911F910F91BB
:1051F00008956EE1CE010CDF8C0141E06BE0CE0141
:105200006EDEF1CFEF92FF920F931F93CF93DF9358
:10521000EC017B018A0141E060E861DE41E06FEF73
:10522000CE015DDE40E060E0CE0159DE46E06FEF8A
:10523000CE0155DE63E8CE01D0DE482F446063E83E
:10524000CE014DDE47E06FEFCE0149DE41E061E87F
:10525000CE0145DE41E060E8CE0141DE4BE664E987
:10526000CE013DDE40E063E8CE0139DE0E946333CB
:105270007E836D8363E8CE01B0DE811111C08A8127
:105280009B81892BB9F30E9463332D813E81621B80
:10529000730B8A819B818617970760F780E031C086
:1052A00041E063E8CE011BDE62E9CE0196DE982F75
:1052B0009F77F7019083881F8827881FF8018083D4
:1052C00040E061E8CE010BDE46E06FEFCE0107DE85
:1052D00063E8CE0182DE482F4B7F63E8CE01FFDD1D
:1052E00041E06FEFCE01FBDD41E060E0CE01F7DD94
:1052F00040E06FEFCE01F3DD40E060E8CE01EFDD8E
:1053000081E0DF91CF911F910F91FF90EF90089571
:10531000CF93DF93EB0161E060DE84FB992790F986
:10532000988383FB992790F99A8382FB992790F9B8
:10533000998386FB992790F99B83881F8827881F6C
:105340008C83DF91CF9108959C013327A90102C07E
:10535000440F551F9A95E2F7CA01019608950F93DD
:105360001F930097B9F00197B0E0A0E050E040E053
:105370008C019D010027012B022B032B39F0B695E0
:10538000A795979587954F5F5F4FF2CF342F2227D0
:10539000822B932B1F910F9108954F925F926F92E2
:1053A0007F928F929F92AF92BF92CF92DF92EF92B5
:1053B000FF925C01A62FB0E020E03FE24AE350E01C
:1053C0000E94F3386B017C0124EFC20E21E0D21E53
:1053D000E11CF11C88EE482E83E0582E612C712CC4
:1053E000C701B601A30192010E94BA38D5010E94FB
:1053F000F3384B015C01C701B60120ED37E040E016
:1054000050E00E94BA38C501B401620F731F841FB7
:10541000951FA30192010E94BA38CA01B901FF90F9
:10542000EF90DF90CF90BF90AF909F908F907F9044
:105430006F905F904F900895EF92FF920F931F939C
:10544000CF93DF938C017B01EA0170E060E056DED0
:1054500090E09983888366E4C801BFDD90E00196FF
:105460009D838C83688199DF6A877B878C879D8782
:1054700061E5C801CDDD68DF9F838E8368818DDFA4
:105480006E877F87888B998B60E7C801A6DD8F5F69
:10549000880F90E09B838A8361E7C801B9DD54DF00
:1054A00099878887F7012381222331F02E813F815C
:1054B000821B930B998788876A81888599856DDF20
:1054C0006A8B7B8B8C8B9D8BDF91CF911F910F9182
:1054D000FF90EF900895CF92DF92EF92FF920F939B
:1054E0001F93CF93DF93CDB7DEB76B970FB6F894CA
:1054F000DEBF0FBECDBF8C01BE01695E7F4F08DFEE
:10550000AE014F5F5F4FBE01695E7F4FC80194DF00
:105510008F89882309F454C06B857C858D859E8591
:105520006C57724F8F4F9F4F298D222309F44DC026
:10553000CB84DC84ED84FE8422EBC20E22E0D21EFA
:10554000E11CF11CCC0CDD1CEE1CFF1C6C0D7D1D48
:105550008E1D9F1D2A8D222371F0CF84D888E98863
:10556000FA88F4E9CF0EF2E0DF1EE11CF11C6C0DAD
:105570007D1D8E1D9F1D2B8D222371F0CB88DC8815
:10558000ED88FE8826E2C20E22E0D21EE11CF11C4C
:105590006C0D7D1D8E1D9F1DF801608771878287B0
:1055A00093876B960FB6F894DEBF0FBECDBFDF9129
:1055B000CF911F910F91FF90EF90DF90CF900895C2
:1055C00066E37BE080E090E0AFCF288D222311F2EC
:1055D000CB84DC84ED84FE84E4E9CE0EE2E0DE1EC2
:1055E000E11CF11CB3CF8F929F92AF92BF92CF92EA
:1055F000DF92EF92FF924B015C01A42FB0E020E01C
:105600003FE24AE350E00E94F3386B017C0124EF53
:10561000C20E21E0D21EE11CF11CA8EEB3E0A501F0
:1056200094010E94F3384B015C01C701B60120EDE3
:1056300037E040E050E00E94BA38820E931EA41E6C
:10564000B51EC701B60128EE33E040E050E00E94ED
:10565000BA38C501B4010E94BA38CA01B901FF9035
:10566000EF90DF90CF90BF90AF909F908F90089574
:105670008F929F92AF92BF92CF92DF92EF92FF9262
:105680000F931F93CF93DF93CDB7DEB76B970FB612
:10569000F894DEBF0FBECDBF40322EE45207610545
:1056A000710508F48DC04A015B017C01BE01695E91
:1056B0007F4F2EDEAE014F5F5F4FBE01695E7F4FB1
:1056C000C701BADE8F8908EE18E020E030E08823B9
:1056D00041F00B851C852D853E850A5C144F2F4FAC
:1056E0003F4F898D882309F45BC08B859C85AD85F0
:1056F000BE858E549D4FAF4FBF4F880F991FAA1F75
:10570000BB1F080F191F2A1F3B1FCA8CCC2061F03A
:105710008F859889A989BA898C569D4FAF4FBF4F05
:10572000080F191F2A1F3B1FDB8CDD2009F445C021
:105730000A5D1D4F2F4F3F4F80169106A206B306FC
:1057400008F43EC0C501B401601B710B820B930BC2
:105750004B8149DF9B01CC2021F02F813885260F1A
:10576000371FC901FCDDAC0161E7C701E0DBF701D0
:1057700080869186A286B3868D2D6B960FB6F8949F
:10578000DEBF0FBECDBFDF91CF911F910F91FF9074
:10579000EF90DF90CF90BF90AF909F908F90089543
:1057A000888D882309F4B1CF8B859C85AD85BE8516
:1057B0008C569D4FAF4FBF4FA4CFDD24D394DCCF89
:1057C000D12CDACFCF93DF93EC01462F416060E01C
:1057D00086DB79D77E836D8363E1CE01FEDB877044
:1057E00081F48A819B81892BB9F36DD72D813E810C
:1057F000621B730B8A819B818617970768F780E08D
:1058000009C041E06BE0CE016ADB40E060E0CE0120
:1058100066DB81E0DF91CF910895EF92FF920F93C5
:105820001F93CF93DF9300D000D01F921F92CDB76C
:10583000DEB78C01662339F069E8CFDB482F416081
:1058400069E8C8014CDB40E068E8C80148DB41E09A
:1058500060E8C80144DB41E06FEFC80140DB40E095
:1058600060E0C8013CDB61E9C801B7DBF801878370
:1058700041E060E0C80133DB40E06FEFC8012FDB9F
:1058800040E060E8C8012BDB60E6C801A6DB482FDA
:10589000426160E6C80123DB40E250E064E4C801F5
:1058A00046DB4FEF61E0C8011ADBAE01495F5F4F95
:1058B000BE01685F7F4FC801A5DC81110FC0F12CCC
:1058C0008F2D28960FB6F894DEBF0FBECDBFDF91A7
:1058D000CF911F910F91FF90EF90089526E0AE01B8
:1058E0004F5F5F4F60EBC801DFDB41E06FEFC80146
:1058F000F6DA40E06FE4C801F2DA4CE26EE4C80187
:10590000EEDA40E06FEFC801EADA44EB66EBC8017B
:10591000E6DA8F81ACE0811101C0A0E0B88580E0BB
:1059200090E0EE24E394F12C482F46954695469559
:1059300050E021E030E02C0F3D1F240F351FF9010E
:105940002081682F67708A1710F0B91397C1E1E0C2
:10595000F0E0EC0FFD1F4E0F5F1FF70102C0EE0FCE
:10596000FF1F6A95E2F7BF0160952623FA012083A5
:105970008F5F8033C9F626E0AE014F5F5F4F60EB6B
:10598000C80169DB41E06FEFC801A9DA40E060E0DF
:10599000C801A5DA40E06FEFC801A1DA40E069E094
:1059A000C8019DDA40E060E1C80199DA40E061E1B8
:1059B000C80195DA41E064E2C80191DA4FEF65E28F
:1059C000C8018DDA40E065E7C80189DA41E06FEF90
:1059D000C80185DA4CE26EE4C80181DA40E068E48F
:1059E000C8017DDA40E260E3C80179DA40E06FEF98
:1059F000C80175DA49E060E3C80171DA40E064E5A6
:105A0000C8016DDA44E061E3C80169DA43E062E3AA
:105A1000C80165DA43E860E4C80161DA45E266E49A
:105A2000C8015DDA40E060E6C80159DA40E067E2AB
:105A3000C80155DA46E060E5C80151DA40E061E5A9
:105A4000C8014DDA46E962E5C80149DA48E066E591
:105A5000C80145DA40E367E5C80141DA40E061E6A4
:105A6000C8013DDA40E062E6C80139DA40E064E6A8
:105A7000C80135DA40E065E6C80131DA40EA66E699
:105A8000C8012DDA41E06FEFC80129DA42E362E292
:105A9000C80125DA44E167E4C80121DA4FEF69E47F
:105AA000C8011DDA40E06AE4C80119DA40E06FEF8E
:105AB000C80115DA4AE06AE7C80111DA40E06BE78D
:105AC000C8010DDA41E268E7C80109DA41E06FEF89
:105AD000C80105DA44E363E2C80101DA40E062E4A8
