:1000000005C100000C94F12C0C941C2D0C94472D70
:100010000C94722D0C949D2D0C94C82D0C94F32DE2
:100020000C941E2E24C1000022C1000020C100003B
:100030001EC100001CC100001AC1000018C1000050
:1000400016C1000014C1000012C1000010C1000060
:100050000EC100000CC100000AC100000C94492E22
:1000600006C100000C941D320C94533200C10000F4
:10007000FEC00000FCC00000FAC00000F8C0000094
:10008000F6C00000F4C00000F2C00000F0C00000A4
:100090000C94A9320C94DF32EAC00000E8C00000E2
:1000A000E6C00000E4C00000E2C00000E0C00000C4
:1000B000DEC00000DCC00000DAC00000D8C00000D4
:1000C000D6C00000D4C000000C941F290C94353316
:1000D0000C946B33CCC000000C94C1330C94F733F8
:1000E000C6C0000000000A0B02090C0D0E08070331
:1000F00004010000000000000000000000000000FB
:1001000000000000000000000000000000000000EF
:1001100012111000000000000000000000000000AC
:100120000000000000000000000001021020200874
:100130000810204010204080020102010804020142
:1001400001020408102040808040201008040201B1
:10015000800402018040201008040201080402010A
:100160000102040810204080010204081020408091
:1001700005050505070508080808020202020A0A23
:100180000808040404040101010101010101030341
:10019000030303030303040707070C0C0C0C0C0CEC
:1001A0000C0C0202020206060606060606060B0BE9
:1001B0000B0B0B0B0B0B000020002300260029006B
:1001C0002C002F003200000100000301060109018C
:1001D00000002200250028002B002E0031003400F2
:1001E00002010000050108010B01000021002400AC
:1001F00027002A002D003000330001010000040117
:1002000007010A017C3208339433203411241FBEC5
:10021000CFEFD1E2DEBFCDBF00E00CBF13E0A0E026
:10022000B2E0E8ECF9E600E00BBF02C007900D92E7
:10023000AC30B107D9F729E0ACE0B3E001C01D92C2
:10024000A232B207E1F711E0C6E0D1E000E006C05B
:1002500021970109802FFE010E94B134C230D107DD
:1002600080E00807A9F70E943B2A0C94E234C8CE2C
:10027000FC01A781B0858C9191858923A481B581EA
:100280009C9140815181628173812681922359F032
:1002900081110BC04F5F5F4F6F4F7F4F4083518382
:1002A0006283738308958111F5CF4150510961092B
:1002B0007109F4CF8DE093E0DBCF88E193E0D8CFF4
:1002C00083E293E0D5CF8EE293E0D2CFFC01A4810C
:1002D000B5818C9196818923A781B0859C914081BD
:1002E0005181628173812185922359F0882359F0CD
:1002F0004F5F5F4F6F4F7F4F4083518362837383A4
:1003000008958823A9F34150510961097109F4CF77
:100310008DE093E0DBCF88E193E0D8CF83E293E0F8
:10032000D5CF8EE293E0D2CF0F931F93CF93DF937D
:10033000D82FC62F8A01A0910C038BE0A89FD00173
:100340001124A35FBC4F1D921D921D921C92139706
:1003500081E01A968C931A978D2F90E0FC01E65D50
:10036000FE4FE4911696EC931697FC01E059FE4F70
:10037000E491F0E0EE0FFF1FEA54FE4F8591949157
:1003800015969C938E931497862F90E0FC01E65D62
:10039000FE4FE4911996EC931997FC01E059FE4F3A
:1003A000E491F0E0EE0FFF1FEA54FE4F8591949127
:1003B00018969C938E93179760E08D2F0E948A3039
:1003C00060E08C2F0E948A3080910C03813009F408
:1003D0003FC0A8F0823009F462C0833009F486C0BF
:1003E00080910C0391E0980F90930C03F8018083A7
:1003F00090E080E0DF91CF911F910F91089580E010
:10040000D23049F081E0D33031F08EEE8D0F843060
:10041000D8F487E18D1B41E050E06AE571E00E946D
:10042000772C80E0C23049F081E0C33031F08EEEAD
:100430008C0F843058F487E18C1B41E050E068E871
:1004400071E00E94772CCCCF8FEFE5CF8FEFF5CF07
:1004500080E0D23049F081E0D33031F08EEE8D0F64
:100460008430C8F487E18D1B41E050E06DE571E018
:100470000E94772C80E0C23049F081E0C33031F037
:100480008EEE8C0F843048F487E18C1B41E050E005
:100490006BE871E0D6CF8FEFE7CF8FEFF7CF80E03B
:1004A000D23049F081E0D33031F08EEE8D0F8430C0
:1004B000C8F487E18D1B41E050E060E671E00E94E6
:1004C000772C80E0C23049F081E0C33031F08EEE0D
:1004D0008C0F843048F487E18C1B41E050E06EE8DB
:1004E00071E0AFCF8FEFE7CF8FEFF7CF80E0D23063
:1004F00049F081E0D33031F08EEE8D0F8430C8F4B6
:1005000087E18D1B41E050E063E671E00E94772CAB
:1005100080E0C23049F081E0C33031F08EEE8C0FC4
:10052000843048F487E18C1B41E050E061E971E0E0
:1005300088CF8FEFE7CF8FEFF7CF9BE0899FF00158
:100540001124E35FFC4F80819181A281B381FB0183
:1005500080839183A283B38390E080E008959BE041
:10056000899FF0011124E35FFC4F108211821282F7
:10057000138290E080E0089590E080E00895CF92AB
:10058000DF92EF92FF92CF93882351F16A017B01B2
:10059000CFEFC80F20E030E0A901CB01B6010E94E7
:1005A000282B18168CF0C701B60190580E94312BE9
:1005B0009B01AC016C2F70E090E080E0CF91FF9048
:1005C000EF90DF90CF90B2C0C701B6010E942C2BF4
:1005D0008C2FCF91FF90EF90DF90CF900C94502F05
:1005E000CF91FF90EF90DF90CF9008950F931F93DE
:1005F0008B019C0183E036952795179507958A9581
:10060000D1F7075C1C4F462F477021E030E0F9011D
:1006100002C0EE0FFF1F4A95E2F7AF01F8012081FB
:100620002423CB010196211102C090E080E01F91AC
:100630000F9108950F931F938B019C0183E03695D2
:100640002795179507958A95D1F7677081E090E017
:1006500001C0880F6A95EAF7F801E75CFC4F20813A
:10066000452B31F48095822380831F910F9108954B
:10067000822BFACF2F923F924F925F926F927F928E
:100680008F929F92AF92BF92CF92DF92EF92FF92A2
:100690000F931F93CF93DF93D62EC72E782E692EFC
:1006A00049015A01280161E08D2D0E948A30CD2D2B
:1006B000DC2D8E010F5F1F4FA8016D2D7C2D872D26
:1006C000962DB8DF20E030E0A901C201B7010E94F9
:1006D0000F2C181664F4C201B7010E94312B2B01B4
:1006E000C501B4010E94312BA201CE0123D0C80163
:1006F000DF91CF911F910F91FF90EF90DF90CF90FE
:10070000BF90AF909F908F907F906F905F904F9031
:100710003F902F900895882341F08150682F70E01A
:1007200090E080E050E040E085CF0895862FB90149
:100730000C94502F9C01FC01EC51FF4FE491E150CF
:10074000E231E0F4F0E08827E755FC4F8F4F0C943E
:10075000B134BB03C203C503DC03F103BE030604CB
:10076000120416042D04420457046E048304BE03CD
:100770009804AF04C40484B5806884BD60E0822F0F
:100780000C94C63084B58062F8CF809180008C7F55
:1007900082608093800080918100807E8061682BE0
:1007A0006093810050938700409386008091800081
:1007B000806880938000E2CF809180008C7F82608F
:1007C0008093800080918100807E8061682B60939F
:1007D0008100509387004093860080918000806262
:1007E000E8CF809180008C7F826080938000809130
:1007F0008100807E8061682B609381005093870028
:1008000040938600809180008860D3CF8091B000B3
:1008100080688093B0008091B100887F682B6093DE
:10082000B100ACCF8091B0008062F3CF8091900096
:100830008C7F82608093900080919100807E8061A7
:10084000682B60939100509397004093960080919D
:10085000900080688093900091CF809190008C7F71
:1008600082608093900080919100807E8061682BEF
:100870006093910050939700409396008091900070
:100880008062E8CF809190008C7F8260809390009E
:1008900080919100807E8061682B609391005093DD
:1008A000970040939600809190008860D3CF80910C
:1008B000A0008C7F82608093A0008091A100807E48
:1008C0008061682B6093A1005093A7004093A6001D
:1008D0008091A00080688093A00050CF8091A000FC
:1008E0008C7F82608093A0008091A100807E8061D7
:1008F000682B6093A1005093A7004093A6008091BD
:10090000A0008062E8CF8091A0008C7F82608093FD
:10091000A0008091A100807E8061682B6093A1007F
:100920005093A7004093A6008091A0008860D3CF89
:10093000809120018C7F8260809320018091210131
:10094000807E8061682B6093210150932701409342
:100950002601809120018068809320010FCF809133
:1009600020018C7F82608093200180912101807E14
:100970008061682B609321015093270140932601E9
:10098000809120018062E8CF809120018C7F82607D
:100990008093200180912101807E8061682B60938B
:1009A0002101509327014093260180912001886006
:1009B000D3CF90E080E008950F931F93009709F440
:1009C00087C06115710509F483C000914002109140
:1009D000410220914202309143020E3F1F4F2F4FA0
:1009E0003F4F09F066C04FEF5FEFBA0140934002FE
:1009F000509341026093420270934302409140023F
:100A0000509141026091420270914302DC011296C2
:100A1000ED91FC9180819181A281B3818093B80393
:100A20009093B903A093BA03B093BB0384819581DB
:100A3000A681B7818093B4039093B503A093B603C6
:100A4000B093B70380859185A285B3858093B00369
:100A50009093B103A093B203B093B30384859585BB
:100A6000A685B7858093AC039093AD03A093AE03A6
:100A7000B093AF031092A8031092A9031092AA0397
:100A80001092AB03C2D78AE29DE090934303809318
:100A900042039093450380934403A6D6009731F414
:100AA00021E030E03093BD032093BC031F910F91F0
:100AB000089500914002109141022091420230912C
:100AC0004302DB010D931D932D933C93139796CF17
:100AD0008FEF9FEFEBCF8F929F92AF92BF92CF920B
:100AE000DF92EF92FF921F93CF93DF934B015C0154
:100AF0001091BF0382E090E09093BD038093BC030C
:100B000081149104A104B10441F48091BF038111C7
:100B100004C08091BE03C1E08111C0E0C12CD12C82
:100B200076018091BF03811106C08091BE038111BF
:100B300002C0CC23D9F083E090E09093BD03809372
:100B4000BC03CC2379F1CCE9DFEF111102C00E9484
:100B50008E10CE01DF91CF911F91FF90EF90DF902B
:100B6000CF90BF90AF909F908F9008956AE070E013
:100B700080E090E00E94B82E80E1C80E87E2D81E87
:100B8000E11CF11C8FEF88169806A806B80631F014
:100B9000C1E08C149D04AE04BF0408F0C0E080E006
:100BA00057D6BFCFD0E0C0E0D0CFCF92DF92EF9248
:100BB000FF920F931F93CF93DF938F3F910511F017
:100BC00008F050C02091BC033091BD0323303105A3
:100BD00039F02091BC033091BD032130310531F44F
:100BE00024E030E03093BD032093BC036A017B0115
:100BF000EC0182309105A0F011E0AE01C701B60111
:100C0000F2D5AB01BC01CE011123F9F0DF91CF91F8
:100C10001F910F91FF90EF90DF90CF900C94B7123F
:100C20008C01000F111F0E5B1C4FD8018D919C9100
:100C3000892B11F30E94C1120297F1F6D801ED91B0
:100C4000FC91CE011995182FD8CF0E94D91290E0AF
:100C500080E0DF91CF911F910F91FF90EF90DF9097
:100C6000CF9008958FEF9FEFF4CF80E0F1C5CF9341
:100C7000DF9386E090E09093BD038093BC0341D660
:100C8000EC01E2E4F3E084E0DF011D928A95E9F7EC
:100C90000E9426101092BD031092BC03CE01DF917A
:100CA000CF9108958091BE0308958091A703089580
:100CB00060934002709341028093420290934302FA
:100CC00090E080E008954F925F926F927F928F92B2
:100CD0009F92AF92BF92CF92DF92EF92FF920F93CB
:100CE0001F93CF93DF9300D000D01F921F92CDB7F8
:100CF000DEB7C0900002D0900102E0900202F090B6
:100D00000302A70196016091E5087091E6088091C1
:100D1000E7089091E8080E94282B882341F0C092B0
:100D2000E508D092E608E092E708F092E8088091A2
:100D3000E40881111092E408BE016B5F7F4F80913F
:100D4000E908FBDBC0900402D0900502E0900602A7
:100D5000F0900702A70196016091D9087091DA0816
:100D60008091DB089091DC080E94282B882341F0B9
:100D7000C092D908D092DA08E092DB08F092DC0841
:100D80008091D80881111092D808BE016F5F7F4F03
:100D90008091DD08D2DB60913C0270913D02809130
:100DA0003E0290913F020E945F2B20E030E040E045
:100DB0005AE20E94132C6B017C016D817E818F8130
:100DC00098850E945F2BA70196010E94132C2B018E
:100DD0003C014092100950921109609212097092E0
:100DE000130969817A818B819C810E945F2BA70105
:100DF00096010E94132C6B017C01C0921409D092C1
:100E00001509E0921609F092170980901802909047
:100E10001902A0901A02B0901B02A5019401C3010F
:100E2000B2010E940F2C18160CF0D5C18091080257
:100E300090910902A0910A02B0910B0280931809C7
:100E400090931909A0931A09B0931B09A501940165
:100E5000C701B6010E940F2C18160CF0C5C1809175
:100E60000C0290910D02A0910E02B0910F0280939E
:100E70001C0990931D09A0931E09B0931F0965E0FA
:100E800070E080E090E0B2DB8C01909309098093E0
:100E9000080980901C0990901D09A0901E09B0902F
:100EA0001F09C0901C02D0901D02E0901E02F0901D
:100EB0001F02A7019601B401C5010E940F2C18164C
:100EC00094F0C0902002D0902102E0902202F09095
:100ED0002302A7019601B401C5010E94282B87FDBA
:100EE00002C064017501E894F7F820E030E04FE7B4
:100EF00053E4C701B6010E94282B181634F4C12C04
:100F0000D12C9FE7E92E93E4F92EB701A601C80181
:100F100036DB66E070E080E090E068DB8C01909367
:100F20000109809300098090180990901909A090F8
:100F30001A09B0901B09C0902402D0902502E090BD
:100F40002602F0902702A7019601B401C5010E9474
:100F50000F2C181694F0C0902802D0902902E0902F
:100F60002A02F0902B02A7019601B401C5010E944C
:100F7000282B87FD02C064017501E894F7F820E092
:100F800030E04FE753E4C701B6010E94282B181642
:100F900034F4C12CD12C8FE7E82E83E4F82EB7016E
:100FA000A601C801ECDA64E070E080E090E01EDBAE
:100FB0006C019093F9088093F80880901C09909038
:100FC0001D09A0901E09B0901F09E0902C02F0901E
:100FD0002D0200912E0210912F029701A801B40159
:100FE000C5010E940F2C181694F0E0903002F0908A
:100FF000310200913202109133029701A801B4012D
:10100000C5010E94282B87FD02C07401850120E0E4
:1010100030E04FE753E4B701C8010E94282B1816AF
:101020000CF4EBC020E030E0A901B701C8010E9438
:101030000F2C87FF04C0E12CF12C00E010E0A70189
:10104000B801C6019CDA67E070E080E090E0CEDA9B
:101050006C019093F1088093F008809018099090AB
:101060001909A0901A09B0901B09E0903402F09081
:10107000350200913602109137029701A801B401A0
:10108000C5010E940F2C181694F0E0903802F090E1
:10109000390200913A0210913B029701A801B40174
:1010A000C5010E94282B87FD02C07401850120E044
:1010B00030E04FE753E4B701C8010E94282B18160F
:1010C0000CF4A0C020E030E0A901B701C8010E94E3
:1010D0000F2C87FF04C0E12CF12C00E010E0A701E9
:1010E000B801C6014CDAC0907A03D0907B03E0903F
:1010F0007C03F0907D038FEFC81AD80AE80AF80A3B
:10110000C0927A03D0927B03E0927C03F0927D033D
:10111000C114D104E104F10499F480917E0390910B
:101120007F03A0918003B09181030196A11DB11DA1
:1011300080937E0390937F03A0938003B0938103F9
:101140008090820390908303A0908403B0908503E5
:1011500060917E0370917F03809180039091810361
:101160000E945D2BA50194010E94132C20E030E029
:1011700040E85FE40E94132C2B013C01C701B6013B
:101180000E945D2BA50194010E94132C9B01AC01D0
:10119000C301B2010E94C42A60937603709377035F
:1011A000809378039093790328960FB6F894DEBF66
:1011B0000FBECDBFDF91CF911F910F91FF90EF90A8
:1011C000DF90CF90BF90AF909F908F907F906F9067
:1011D0005F904F9008958091100290911102A0911C
:1011E0001202B09113022ACE80911402909115023E
:1011F000A0911602B09117023ACEE12CF12C0FE724
:1012000013E41DCFE12CF12C0FE713E468CF8F928C
:101210009F92AF92BF92DF92EF92FF920F931F9334
:10122000CF93DF93E0E6F3E08BE2DF011D928A9536
:10123000E9F780E090E0A0E8BFEB86A397A3A0A722
:10124000B1A78AE097EDA3E2BCE382A393A3A4A392
:10125000B5A382E897E9AFE7B2E484839583A683D8
:10126000B78380E795E4A8EBBFEB80879187A287DF
:10127000B38787E69DEDA8E5B6E684879587A687C0
:10128000B7878DE992EBA9E6B0E9808B918BA28BB1
:10129000B38BA4E5B3E0B383A283E6E4F3E0119655
:1012A000FC93EE9389E792E091838083938382831A
:1012B00095838483978386839187808793878287AA
:1012C0009587848784E793E015969C938E93149773
:1012D00084E693E013969C938E93129786E793E0AF
:1012E00017969C938E931697E0E1F9E080E1DF0179
:1012F0001D928A95E9F7C2EDD8E08EE3FE011192C6
:101300008A95E9F7DD24D394DDAE00E012E0F80120
:1013100080819181A281B3818B8B9C8BAD8BBE8BA5
:10132000812C912C540183948D869E86AF86B88A39
:1013300049EE58E063E082E00E949401D98A1A8A5B
:101340001B861882DCAEF80184819581A681B78165
:101350008F839887A987BA8789829A82AB82BC8259
:101360004DED58E063E182E10E949401DD821E822E
:1013700018AADBAE89AA9AAAABAABCAAE12CF12CC6
:101380008701A801970165E070E080E090E072D9E4
:101390009FAB8EABDDAA18A6DAAE89A69AA6ABA63D
:1013A000BCA6A801970166E070E080E090E062D9F9
:1013B0009FA78EA7DDA618A2D9AE89A29AA2ABA23A
:1013C000BCA2A801970164E070E080E090E052D9EF
:1013D0009FA38EA3DDA2188ED8AE898E9A8EAB8E77
:1013E000BC8EA801970167E070E080E090E042D9F0
:1013F0009F8F8E8FDD8E8F89B2D88B85DF91CF91B5
:101400001F910F91FF90EF90DF90BF90AF909F9052
:101410008F90A5C88091DE08811113C081E0809370
:10142000DE088091DF089091E008A091E108B0917A
:10143000E2080197A105B10521F48091E30881112B
:101440009BD88091D208811113C081E08093D2088B
:101450008091D3089091D408A091D508B091D60876
:101460000197A105B10521F48091D708811184D895
:101470008091020981112AC081E080930209809144
:10148000030990910409A0910509B09106090197FB
:10149000A105B105D9F4809107098823B9F065E069
:1014A00070E080E090E0A2D8909309098093080949
:1014B00040E050E0BA0163D865E070E080E090E081
:1014C00095D8909309098093080925D98091FA0845
:1014D00081112AC081E08093FA088091FB089091E5
:1014E000FC08A091FD08B091FE080197A105B10587
:1014F000D9F48091FF088823B9F066E070E080E0BD
:1015000090E074D8909301098093000940E050E086
:10151000BA0135D866E070E080E090E067D890933B
:10152000010980930009F7D88091F20881112AC03F
:1015300081E08093F2088091F3089091F408A091E3
:10154000F508B091F6080197A105B105D9F480918D
:10155000F7088823B9F064E070E080E090E046D8B6
:101560009093F9088093F80840E050E0BA0107D85A
:1015700064E070E080E090E039D89093F9088093BF
:10158000F808C9D88091EA0881112BC081E08093C6
:10159000EA088091EB089091EC08A091ED08B091D9
:1015A000EE080197A105B105E1F48091EF088823C9
:1015B000C1F067E070E080E090E018D89093F10807
:1015C0008093F00840E050E0BA010E94BF0267E05B
:1015D00070E080E090E00AD89093F1088093F008E2
:1015E0009AC808954F925F926F927F928F929F92C6
:1015F000AF92BF92CF92DF92EF92FF920F931F9321
:10160000F8944090970350909803609099037090DD
:101610009A03C0908B03D0908C03E0908D03F090E0
:101620008E03452B09F0A4C09B01AC012419350998
:101630004609570929013A01009193031091940337
:10164000209195033091960348015901840C951C13
:10165000A61CB71C80169106A206B306A0F4009142
:101660008F031091900320919103309192030F5FAB
:101670001F4F2F4F3F4F00938F03109390032093E2
:101680009103309392038092930390929403A092DB
:101690009503B092960300918F03109190032091CF
:1016A00091033091920380929B0390929C03A092AD
:1016B0009D03B0929E0300939F031093A003209379
:1016C000A1033093A20360939703709398038093D0
:1016D000990390939A03A0E1B7E2A30192010E94BB
:1016E000B9346C0D7D1D8E1D9F1D60938B0370930F
:1016F0008C0380938D0390938E0300914002109190
:10170000410220914202309143020F3F1F4F2F4F61
:101710003F4FF1F0009140021091410220914202AE
:10172000309143020E3F1F4F2F4F3F4F89F0C09023
:101730004002D0904102E0904202F090430221E04A
:101740008C149D04AE04BF0408F420E02093A7038A
:1017500078941F910F91FF90EF90DF90CF90BF9002
:10176000AF909F908F907F906F905F904F90089573
:101770004B015C0184189508A608B708A3019201E3
:10178000261B370B480B590B641575058605970505
:10179000D0F082169306A406B50640F420E030E0AF
:1017A000A90181149104A104B10491F4A0E1B7E26C
:1017B0000E94B934A7019601261B370B480B590B21
:1017C000CA01B901C5CF82169306A406B50670F703
:1017D000A0E1B7E2A50194010E94B9346C0D7D1D12
:1017E0008E1D9F1DB5CFFECECF93DF9300D01F92ED
:1017F000CDB7DEB71C821B821A8219821092A30316
:101800001092A4031092A5031092A603BE016F5F6D
:101810007F4FCE0103960E94EF2869817A818B81E8
:101820009C810E94DD21009761F4BE016F5F7F4FB4
:10183000CE0103960E94FB2869817A818B819C816D
:101840002ED50F900F900F900F90DF91CF910895AC
:10185000FF920F931F93CF93DF93082F60E070E008
:10186000CB010E94B82EFF24F3940E94C620EC0105
:10187000892B89F010E0CE3F8FEFD80769F0002365
:1018800061F160E070E0CB010E94B82E81E090E051
:10189000892B59F322C011E025D5EC01892B21F0C9
:1018A000CE3F8FEFD80759F711111EC011E02296D5
:1018B00009F410E00E947620EC01892B21F0CE3F44
:1018C0008FEFD807E1F6111111C011E0CE3F8FEF75
:1018D000D80709F410E001110BC0CE01DF91CF91C0
:1018E0001F910F91FF90089511E0E4CF11E0F3CF25
:1018F00060E070E0CB010E94B82E1F25812F90E0A0
:10190000C7CFCF93DF938091A703882321F060E0B6
:1019100070E0CB014CD635D6D0E0C0E0892B71F019
:101920006AE070E080E090E00E94B82E81E090DFF5
:1019300028D62196C03D27E0D20781F727D60E94FE
:1019400031221092BF031092BE031092B80310927E
:10195000B9031092BA031092BB031092B403109211
:10196000B5031092B6031092B7031092B003109211
:10197000B1031092B2031092B3031092AC03109211
:10198000AD031092AE031092AF031092A803109211
:10199000A9031092AA031092AB034EEF5FEF6FEF13
:1019A0007FEF409340025093410260934202709354
:1019B00043021092A703EBE9F3E028E0DF011D9258
:1019C0002A95E9F7109297031092980310929903C1
:1019D00010929A031092930310929403109295031D
:1019E0001092960310928F0310929003109291031D
:1019F0001092920310928B0310928C0310928D031D
:101A000010928E03DF91CF9108951092CB03109224
:101A1000CC031092CD031092CE031092CA03809192
:101A2000D3039091D4039093C9038093C803109279
:101A3000C7031092C6031092C2031092C303109200
:101A4000C4031092C5031092D0031092CF0390E00C
:101A500080E00895CF92DF92EF92FF920F931F9351
:101A6000CF938C01892B09F055C02091D30330917D
:101A7000D4038091C8039091C9034091D30350913E
:101A8000D4035093C9034093C8032817390781F042
:101A90001092C7031092C6031092C2031092C303A0
:101AA0001092C4031092C5031092D0031092CF037A
:101AB0008091D3039091D403019761F58091CF0376
:101AC0009091D003892B21F480914402811112C09E
:101AD0008091CF039091D0030197E1F48091C203EC
:101AE0009091C303A091C403B091C5030197A105D0
:101AF000B10581F41092C2031092C3031092C40383
:101B00001092C5031092440282E090E09093D003BB
:101B10008093CF038091D3039091D403019709F070
:101B20001CC18091E9039091EA038017910709F0A5
:101B300014C18091E5039091E603A091E703B09171
:101B4000E803009709F409C12091E40321110DC0B5
:101B50004091E5035091E6036091E7037091E8033B
:101B6000452B462B472B09F4F8C02091CF03309129
:101B7000D0032230310509F0F0C02091C6032111B5
:101B8000ECC0FC01C080D180E280F3808091CA0368
:101B9000882309F4D3C08091D6039091D703892B71
:101BA00009F4FDC02091D6033091D70381E02230A3
:101BB000310509F080E02091D6033091D703C1E0D0
:101BC0002130310549F02091D6033091D703C1E08F
:101BD0002230310509F0C0E0882309F456C0209175
:101BE000E0033091E1034091E2035091E303C70128
:101BF000B6010E940F2C87FD14C02091E0033091A4
:101C0000E1034091E2035091E3036091CB037091B3
:101C1000CC038091CD039091CE030E94282B87FDA9
:101C200022C02091E0033091E1034091E203509102
:101C3000E303C701B6010E940F2C181634F520915A
:101C4000E0033091E1034091E2035091E30360919E
:101C5000CB037091CC038091CD039091CE030E9471
:101C6000282B811112C08091D8039091D903A091A3
:101C7000DA03B091DB03892B8A2B8B2B19F481E0DB
:101C80008093C70381E08093C603CC2309F456C038
:101C90002091E0033091E1034091E2035091E3038E
:101CA000C701B6010E94282B87FF14C02091E003D2
:101CB0003091E1034091E2035091E3036091CB0343
:101CC0007091CC038091CD039091CE030E940F2C94
:101CD00087FF22C02091E0033091E1034091E203AD
:101CE0005091E303C701B6010E94282B811126C041
:101CF0002091E0033091E1034091E2035091E3032E
:101D00006091CB037091CC038091CD039091CE0371
:101D10000E940F2C181694F48091D8039091D90347
:101D2000A091DA03B091DB03892B8A2B8B2B19F45A
:101D300081E08093C70381E08093C60381E09091A6
:101D4000C603911180E08093CA03C092CB03D09266
:101D5000CC03E092CD03F092CE03012B09F067C1D2
:101D60008091CF039091D003892BD9F41092D503A1
:101D70001092C60380914402882379F082E090E0BB
:101D80009093D0038093CF03109244022091D30309
:101D90003091D40381E0232BE9F080E01BC081E087
:101DA0000ACF109244028091D503882349F0109203
:101DB000C7031092D0031092CF031092D503EDCF3A
:101DC0008091D3039091D403892BE1F08091C603D5
:101DD0001092C6032091CF033091D00322303105F9
:101DE00009F45EC088F42115310509F448C021309A
:101DF000310509F4F3C01092C7031092C603109284
:101E0000D50338C081E0E6CF2330310509F4B1C0F5
:101E10002430310581F74091C2035091C303609192
:101E2000C4037091C503411551056105710561F049
:101E300041505109610971094093C2035093C30392
:101E40006093C4037093C5034091C2035091C303D0
:101E50006091C4037091C503452B462B472BD9F4E1
:101E60002091D1033091D2032130310509F046C0D1
:101E70001092C7031092D0031092CF030CC0809130
:101E80004402882341F082E090E09093D003809355
:101E9000CF03109244021092C0038091C703CEC0BA
:101EA0008823C9F38091D8039091D903A091DA03D4
:101EB000B091DB03181619061A061B060CF07DC03C
:101EC0008091D3039091D403019709F076C080915B
:101ED000D8039091D903A091DA03B091DB038093EA
:101EE000C2039093C303A093C403B093C50383E0DC
:101EF00090E09093D0038093CF03CDCF4091DC034B
:101F00005091DD036091DE037091DF03452B462B7A
:101F1000472BA9F01092C7038091DC039091DD0359
:101F2000A091DE03B091DF038093C2039093C303BB
:101F3000A093C403B093C50381E090E0DACF882377
:101F400099F08091450290914602A0914702B0918C
:101F500048028093C2039093C303A093C403B09339
:101F6000C50384E090E0C5CF1092C70382E090E003
:101F7000C0CF8091C2039091C303A091C403B091DC
:101F8000C5030097A105B10559F00197A109B10951
:101F90008093C2039093C303A093C403B093C5037B
:101FA0008091C2039091C303A091C403B091C50373
:101FB000892B8A2B8B2B09F06ECF80914502909153
:101FC0004602A0914702B0914802892B8A2B8B2BA5
:101FD00009F44ECF81E08093C703B3CF4091C20391
:101FE0005091C3036091C4037091C503411551051D
:101FF0006105710561F04150510961097109409312
:10200000C2035093C3036093C4037093C50340910C
:10201000C2035091C3036091C4037091C503452B63
:10202000462B472B09F037CF8111C7CF9FCF809127
:10203000C003882309F431CF8091C103CF911F9150
:102040000F91FF90EF90DF90CF9008951092CB0307
:102050001092CC031092CD031092CE031092CA03BB
:102060001092D0031092CF031092C9031092C803AC
:102070001092EA031092E9031092C7031092C6036C
:102080001092C2031092C3031092C4031092C503AE
:102090001092C1031092C0031092E5031092E60360
:1020A0001092E7031092E8031092E4031092E00309
:1020B0001092E1031092E2031092E30388EE93E0A2
:1020C000A0E0B0E08093450290934602A0934702BF
:1020D000B09348021092DC031092DD031092DE03ED
:1020E0001092DF031092D8031092D9031092DA03F2
:1020F0001092DB031092D7031092D60381E08093F5
:1021000044021092D5031092D4031092D30310927C
:10211000D2031092D10390E080E008958091D30320
:102120009091D403892B19F580914402882351F0B2
:102130008091D503811106C081E08093C103809313
:10214000C00308952091D5033091440281E090E0CE
:10215000332311F090E080E030E082239323892B39
:1021600021F01092C10381E0EACF1092C0030895DC
:1021700082E090E0FA01918380838FEF9FEF0895D2
:10218000CF93DF93EA01009711F00E945123198247
:10219000188290E080E0DF91CF910895DB010097F5
:1021A00019F48FEF8C9308952EEF2C93FC013F963A
:1021B000EF30F10508F034C08827EE51FF4E8F4F05
:1021C0000C94B1340E110C110A11081106110211F0
:1021D00004110011FE10FC10F910F510F110F710A9
:1021E000101180E311968C93089589E2FBCF82E26F
:1021F000F9CF11961C92089583E2F4CF81E2F2CFD9
:1022000081E1F0CF87E2EECF8AE2ECCF80E1EACF46
:1022100084E2E8CF88E2E6CF86E2E4CF81E3E2CF52
:1022200080E2E0CF8091F7039091F80308959093B6
:10223000F8038093F70308958091F6030895909131
:10224000F603892B8093F6030895982F909580913B
:10225000F60389238093F60308958091F50308958A
:102260008091F3039091F40308956115710559F07D
:10227000FB0130E020E070E060E02417350719F042
:102280006115710511F0CB010895A081B181A817E6
:10229000B90709F4BF012F5F3F4F3696EECF80910B
:1022A000F90381111CC060D266D29093EC03809335
:1022B000EB030E944F1B0E94611B9093F0038093DD
:1022C000EF030E94DE1F0E94E51F9093EE038093B0
:1022D000ED0381E08093F90390E080E0089584EFBE
:1022E0009FEF08958F929F92AF92BF92CF92DF920D
:1022F000EF92FF920F931F93CF93DF9300D000D004
:1023000000D01F92CDB7DEB71A86198618861F82B5
:102310001E821D821C821B821A8219828091F903FF
:1023200007EF1FEF882309F49CC08E010D5F1F4F3C
:102330009E012B5F3F4FAE01495F5F4FBE01675F5C
:102340007F4F90E080E00E9462218C01009721F095
:102350000596029708F0DBC029853A8521153105DD
:1023600009F402C1ED80FE804B815C81B701640FEE
:10237000751F8F8198858617970708F4F5C0E20EC0
:10238000F31ED7019C91903C09F07FC0423051056B
:1023900008F47BC011968C914091F7035091F8039B
:1023A000452B09F49CC0913F08F071C02CE1290F26
:1023B0002D3008F48BC02DE2290F203108F489C09C
:1023C000903C21F48150823008F483C088E3890F67
:1023D0008B3008F481C09EECC92E90E1D92EE8EB39
:1023E000F0E16D817E81AE014F5F5F4F89859A85F7
:1023F00019955C01C114D104A1F189809A808114DE
:10240000910479F18B819C818815990508F487C026
:1024100010E000E04B815C8170E060E0C7010E9449
:10242000DB3401151105E9F449815A8169857A8502
:102430008D819E81680F791FC501F6011995E9808C
:10244000FA800D811E812F81388549855A856FEF6D
:102450007FEF81E090E00E94FD208C01892B09F044
:1024600056C0C8012A960FB6F894DEBF0FBECDBF86
:10247000DF91CF911F910F91FF90EF90DF90CF9060
:10248000BF90AF909F908F90089580E085CF30E00F
:1024900020E0220F331FF901E551FC4F0190F0813C
:1024A000E02D309709F497CF892F90E01995009788
:1024B00009F491CFDC011296ED91FC9113971496DB
:1024C000CD90DC90309709F08CCF1FC021E030E038
:1024D000E0CF22E030E0DDCF23E030E0DACFD12CD6
:1024E000C12CE0ECF0E19F3F09F07BCFE091EB03E2
:1024F000F091EC03309721F4C90104EF1FEF0CC0F9
:102500008FEF90E019950097A9F604EF1FEF8985EA
:102510009A85009709F4A5CF0E945123A2CF0E946B
:102520002C228C0189859A850E94512370E060E0FD
:10253000C4010E94C52198878F830E94FA209E8340
:102540008D836F8178856115710559F0C8010E94EE
:10255000DD249A87898706EF1FEF892B09F058CF72
:1025600059CF08EF1FEF56CF08EF1FEFD0CF2091C4
:10257000F903222319F020E00C94661B87EF9FEFEC
:1025800008958091F7039091F80308950E94EA1F3F
:102590000E94441FF5D0EBEEF3E088E0DF011D92CE
:1025A0008A95E9F71092F90390E080E008950C9481
:1025B000A21D21E040E050E0BA010C94661B86E0C9
:1025C00090E0FA019183808390E080E0089547E0F5
:1025D00050E06CE772E049CEDF92EF92FF920F93EA
:1025E0001F93CF93DF938A01EC01C60FD71FE090B2
:1025F000FD03F090FE03D9800E941422D81619061C
:1026000078F082E090E0F801918380838EEF9FEF75
:10261000DF91CF911F910F91FF90EF90DF90089580
:10262000EF2841F482E090E0F8019183808384EF09
:102630009FEFEECF89818093FC0390E00196F80133
:102640009183808390E080E0E3CFCF93DF93EA0132
:102650000E94531E882321F00E9421220E94541EB2
:1026600082E090E0998388838BEF9FEFDF91CF9199
:102670000895CF93DF93EB0186E0FB0111928A95D9
:10268000E9F78FEF8883D8DD8983E7DD8A83E8DD8A
:102690009D838C83DF91CF910895CF93DF93EA01DF
:1026A0000E94561E811109C082E090E099838883C0
:1026B00085EF9FEFDF91CF91089590E080E0B7DD47
:1026C00081E090E09983888390E080E0F3CF0F93DE
:1026D0001F93CF93DF93EA018C01060F171F0E940F
:1026E000561E81110BC082E090E09983888385EFAC
:1026F0009FEFDF91CF911F910F910895F801818194
:10270000823038F082E090E0998388838EEF9FEFEB
:10271000F0CF81E090E08BDD88E090E099838883C2
:1027200090E080E0E6CFCF93DF930097D1F4EB0108
:10273000FB01329686E0DF011D928A95E9F78FEF63
:10274000888385E089831A820E9414228B830E94E9
:1027500013229D838C8381E08E838F83DF91CF91C1
:102760000895DF91CF911ACD87EE92E19093FB030C
:102770008093FA0308958091FA039091FB030895E2
:102780001092FB031092FA0308958091FD0390913B
:10279000FE030895411105C061157105810591057C
:1027A00061F06093FD037093FE038093FF039093A9
:1027B00000044093010481E0089580E00895FF92B1
:1027C0000F931F93CF93DF938A01EC01C60FD71F9E
:1027D000F9800E941422F816190668F082E090E051
:1027E000F801918380838EEF9FEFDF91CF911F914E
:1027F0000F91FF9008956C817D818E819F814B8127
:10280000C9DF811108C082E090E0F80191838083E4
:1028100084EF9FEFEACF89818093FC0390E00196DB
:10282000F8019183808390E080E0DFCFCF93DF9346
:10283000EA01FC01E60FF71F6481758186819781AB
:102840004381A8DF811109C082E090E099838883E9
:1028500084EF9FEFDF91CF91089581E090E099831D
:10286000888390E080E0F6CFEDEFF3E04081518186
:1028700062817381480F511D611D711D4083518319
:10288000628373830895CF93C091FC034C2F50E073
:102890006091FD037091FE0301960E94D2348C2F4B
:1028A000E3DF1092FC03CF910895009799F4809193
:1028B000FD039091FE032FEFFB012083892B59F03C
:1028C0002091FC0330E02F5F3F4F2417350719F4A8
:1028D000CB01D9CF63CC0895009799F48091FD0383
:1028E0009091FE032FEFFB012083892B59F020915B
:1028F000FC0330E02F5F3F4F2417350719F4CB015D
:10290000C2CF4CCC089523E1AC01249FC001259F88
:10291000900D1124E0910604F0910704E80FF91FCF
:10292000238134812250310981E02230310508F0C1
:1029300080E008950F931F93CF93DF9300910804D5
:1029400010910904D0E0C0E080E00C171D0749F4A5
:1029500091E0811190E0892FDF91CF911F910F912C
:1029600008958111F5CFCE01CEDF2196EECFA09153
:102970000604B0910704109729F1209108043091C2
:10298000090482179307F0F453E1589F9001599F6F
:10299000300D1124A20FB31FED91FC9111973097C8
:1029A00089F012968C91681768F48DE0689FE00DAD
:1029B000F11D112480819181892B21F081E0928188
:1029C000491708F080E008959C0143E1429FC0014F
:1029D000439F900D1124E0910604F0910704E80F45
:1029E000F91F8385823091F481E090E065817681E2
:1029F0004091490250914A026417750711F490E022
:102A000080E0892B19F081E0232B09F080E0089504
:102A1000FC01A081B1818DE0689FA00DB11D112442
:102A200013964D915C9185859685489F9001499FAD
:102A3000300D589F300D1124C9010196611103C05A
:102A4000478144FD04960895EF92FF920F931F93E0
:102A5000CF93DF93EA01FC01E60FF71F0281138198
:102A6000E480F5804F2D6E2DC80181DF81110DC0EE
:102A700082E090E0998388838EEF9FEFDF91CF9182
:102A80001F910F91FF90EF900895C8013CDF8823BC
:102A900039F082E090E09983888388EF9FEFEECF52
:102AA0001093500200934F02E0925102F0925202B2
:102AB00081E090E09983888390E080E0DFCFCF923F
:102AC000DF92EF92FF920F931F93CF93DF937A01E0
:102AD000EC01C60FD71FC0904F02D090500200915A
:102AE000510210915202412F602FC60140DF811127
:102AF00010C082E090E0F701918380838AEF9FEF1E
:102B0000DF91CF911F910F91FF90EF90DF90CF90C9
:102B10000895C601F8DE882341F082E090E0F701D5
:102B20009183808388EF9FEFEBCF4C815D816E8135
:102B30007F819A8189818F3F41F082E090E0F701A7
:102B4000918380838EEF9FEFDBCFE3E1EC9D9001DB
:102B5000ED9D300D1124E0910604F0910704E20F81
:102B6000F31F0190F081E02D2DE0029FE00DF11D9B
:102B700011240190F081E02D27E0129FE00DF11D5E
:102B80001124808391838B81828343835483658363
:102B900076831F5F1093520281E090E0F7019183EA
:102BA000808390E080E0ACCFEF92FF920F931F9371
:102BB000CF93DF937A018C01060F171FC091060493
:102BC000D0910704209781F021E030E0F801828164
:102BD000938140910804509109048417950710F0DF
:102BE00030E020E0232B71F482E090E0F701918344
:102BF00080838EEF9FEFDF91CF911F910F91FF9018
:102C0000EF90089543E1489F9001499F300D1124B2
:102C1000C20FD31F78DE882341F082E090E0F701F5
:102C20009183808388EF9FEFE6CFF801248135817F
:102C300020383105C8F687818111D6CF4181842F94
:102C400090E08F7E009741F082E090E0F701918361
:102C5000808386EF9FEFCFCF4F833E832D832681E6
:102C600028871986223010F421E0288721E030E0FF
:102C7000F70131832083BFCF88E090E0FA01918390
:102C8000808390E080E00895FB018FEF808381E1F5
:102C900081838FEF9FEF9383828380E890E0958319
:102CA0008483168217820895FB018FEF808391E061
:102CB000918382839383848384E3858381E090E09E
:102CC000978386830895DF92EF92FF920F931F936D
:102CD000CF93DF93EA01FC01E60FF71F818181307A
:102CE00071F082E090E0998388838FEF9FEFDF910E
:102CF000CF911F910F91FF90EF90DF900895828107
:102D00009381D4802581E680F7800091060410919C
:102D100007040115110539F482E090E09983888356
:102D20008CEF9FEFE4CF4091080450910904841781
:102D3000950738F082E090E0998388838EEF9FEFCB
:102D4000D6CF892B39F082E090E09983888386EF93
:102D50009FEFCDCF8D2D8D7FB1F72130A1F781E091
:102D6000D11006C091E0E916F10431F080E004C012
:102D7000E2E0EE16F104D0F3882329F390E080E03E
:102D8000C2DD882339F082E090E09983888388EF60
:102D90009FEFADCFF801D38681E08487F686E58684
:102DA000108A178681E090E09983888390E080E024
:102DB0009ECF4CE050E066EA72E057CA8F929F9235
:102DC000BF92CF92DF92EF92FF920F931F93CF9318
:102DD000DF93EA01FC01E60FF71F828193810481F2
:102DE000B580E0910604F0910704309791F482E0F9
:102DF00090E0998388838CEF9FEFDF91CF911F91B3
:102E00000F91FF90EF90DF90CF90BF909F908F90A9
:102E1000089520910804309109048217930738F02F
:102E200082E090E0998388838EEF9FEFE6CF23E1E5
:102E3000289F6001299FD00C1124EC0DFD1DE0801E
:102E4000F180E114F10499F28281081748F78DE0CE
:102E5000089F80011124E00EF11EF701808191810D
:102E6000892B29F6BB20E1F2F7E0BF9E4001112437
:102E7000C4010E941823F70191838083E091060426
:102E8000F0910704EC0DFD1D0190F081E02DE00FA5
:102E9000F11F80819181009739F482E090E099835D
:102EA00088838DEF9FEFA9CFA40170E060E00E94BE
:102EB000DB348091060490910704C80ED91EF601F8
:102EC00080819181080F191FF801B28281E090E0A2
:102ED0009983888390E080E090CFAF92BF92CF92A9
:102EE000DF92FF920F931F93CF93DF93EA01FC01D0
:102EF000E60FF71F82819381F48000910604109100
:102F000007040115110581F482E090E0998388831C
:102F10008CEF9FEFDF91CF911F910F91FF90DF908A
:102F2000CF90BF90AF90089520910804309109048C
:102F30008217930738F082E090E0998388838EEFC0
:102F40009FEFE8CF2FEF2F0D2C3FA8F723E1289F0D
:102F50006001299FD00C11240C0D1D1DF8018081EA
:102F60009181892B89F6FDE0FF9E50011124C50156
:102F70000E941823F80191838083E0910604F09168
:102F80000704EC0DFD1D80819181009739F482E0EA
:102F900090E0998388838DEF9FEFBCCFA50170E00F
:102FA00060E00E94DB34E0910604F0910704EC0D30
:102FB000FD1DF28281E090E09983888390E080E0BB
:102FC000A9CFCF92DF92EF92FF920F931F93CF93EF
:102FD000DF93860F971FFC01028113818091060405
:102FE00090910704892B81F082E090E0FA019183AF
:102FF00080838CEF9FEFDF91CF911F910F91FF9016
:10300000EF90DF90CF900895C801B0E0A0E0019765
:10301000A109B1098F3F9F4FA105B10540F082E0A2
:1030200090E0FA01918380838EEF9FEFE4CF7A01E5
:1030300083E1809F6001819FD00C1124C6010E9412
:103040001823EC01009741F482E090E0F7019183AE
:1030500080838DEF9FEFCFCFA60170E060E00E94EC
:10306000DB34D0930704C093060410930904009343
:10307000080490E080E02FEF3FEF41E061E070E076
:103080008017910741F481E090E0F70191838083FC
:1030900090E080E0B0CF3A8B298B1B864C877E87EF
:1030A0006D87188A1F8601966396EACFEF92FF928A
:1030B0001F93CF93DF93EC0110E0F12CE12C6A8198
:1030C0001617B0F083E0689FB0011124AE014F5E87
:1030D0005F4FC7010E947D23009721F02FEF3FEF44
:1030E0003A8B298BDF91CF911F91FF90EF9008953C
:1030F000612FCE018DDC61E070E00E94C521E816F1
:10310000F90608F47C011F5FDACFF89420910404DB
:103110003091050481E02115310509F080E0232B71
:1031200009F0789408952F923F924F925F926F9298
:103130007F928F929F92AF92BF92CF92DF92EF9247
:10314000FF920F931F93CF93DF933C01660E771E80
:10315000F301828193814C01B12CA12CC091060412
:10316000D0910704209769F021E030E060910804D5
:10317000709109048617970710F030E020E0232BA8
:10318000D1F482E090E0FA01918380838EEF9FEF8B
:10319000DF91CF911F910F91FF90EF90DF90CF9033
:1031A000BF90AF909F908F907F906F905F904F9067
:1031B0003F902F9008958092530290925402A092D3
:1031C0005502B092560263E1689F9001699F300DED
:1031D0001124C20FD31FF3018181833040F082E0BC
:1031E00090E0FA019183808386EF9FEFD1CF2A018F
:1031F0002B813C81232BF1F4288139819F8191FF20
:103200002EC0232B09F46FC020910B049A81422F0A
:10321000490F5527551FBA0141E050E0613871054B
:1032200014F050E040E0452B09F45DC02A87920F6E
:1032300090930B048150823008F481C066DF8823AC
:1032400009F4D8C0F3018181813009F48DC008F4FC
:103250007BC0823009F4C6C090E080E0ADC0232B73
:1032600009F441C020910A049A81E22FE90FFF2757
:10327000FF1F41E050E0ED3FF10514F050E040E069
:10328000452B89F12A87920F90930A04D3CFA0810E
:10329000B181A20FB31F11966C91060F111D0196FB
:1032A000295F3F4F8417950794F38D859E85089F6E
:1032B0001001099F300C189F300C1124C114D10447
:1032C000D1F48F8184FF17C00E941322F5E02F0EE6
:1032D000311C21E08215930508F420E0A701435F2B
:1032E0005F4F21110EC082E090E0F2019183808354
:1032F00087EF9FEF4DCF0E9413222FEF221A320A41
:10330000E8CF88819981E80EF91EF70114830383C1
:10331000FFEFCF1ADF0A7A018A818C151D0409F0AC
:103320000CF48CCFE881F981EE0DFF1D428150E055
:1033300030E020E010E000E090E080E0B3CFF12C3E
:10334000E12CD12CC12CE8CF81E090E09C838B83D1
:10335000F1DA882309F480CF81E090E00E94171110
:1033600080E40E94251178CF89899A89019661F0BD
:1033700083E090E09C838B8382E090E00E941711B1
:1033800080E40E941F1168CF8D819E8120914902A7
:1033900030914A0282179307D1F460914D027091E7
:1033A0004E02AE014F5E5F4F80914B0290914C02F6
:1033B0000E949C240097E1F2789422E030E0F20130
:1033C00031832083892B99F08DEF9FEFE1CE8928FF
:1033D0008A288B2869F6892B59F6CE0167DE188A70
:1033E0001F86E8CF82E090E09C838B8335CF90E00E
:1033F00080E0CECE82E090E0F2019183808385EF81
:103400009FEFC6CE8F929F92AF92BF92CF92DF92E4
:10341000EF92FF920F931F93CF93DF93EA018C01FA
:10342000060F171FF8018181833098F082E090E049
:103430009983888386EF9FEFDF91CF911F910F9142
:10344000FF90EF90DF90CF90BF90AF909F908F90C4
:1034500008958091060490910704892B61F081E022
:1034600090E02091080430910904232B11F490E09E
:1034700080E0892B39F482E090E0998388838EEF95
:103480009FEFDACF42DE882309F4DFC0F8018181A3
:10349000813009F495C0E8F0823099F42091080455
:1034A00030910904E0910604F091070490E080E077
:1034B00041E050E02817390709F0BDC03BDA81111F
:1034C00017C0789481E090E09983888390E080E051
:1034D000B3CF2091080430910904E0910604F091E3
:1034E000070490E080E041E050E02817390741F4FC
:1034F00081E090E00E94171180E40E942511E1CF45
:1035000063817481672B11F0548343830196739612
:10351000ECCFE0910604F0910704E00FF11F238146
:10352000348122303105D9F4218932892F3F3F4F30
:10353000B1F4258136814091490250914A02241705
:10354000350761F5AF014F5E5F4F60914D0270919D
:103550004E0280914B0290914C020E949C24EFEF0E
:10356000CE1ADE0AEE0AFE0A0D5E1F4F40910804D5
:103570005091090470E060E0C416D506E606F7062F
:103580003CF5009731F27894892B09F49BCF82E0C7
:1035900090E0998388838DEF9FEF4ECFC114D104C3
:1035A000E104F104E1F6232BD1F6CF017FDDE091B8
:1035B0000604F0910704E00FF11F108A1786CFCFA1
:1035C00010E000E090E080E0C12CD12C7601CECF5D
:1035D0000097C9F610E000E0812C912C540183E0A3
:1035E000E82EF12C1AC0E0910604F0910704E00FD8
:1035F000F11F83819481029749F4F482E38282E08F
:1036000090E00E94171180E40E941F11FFEF8F1AB3
:103610009F0AAF0ABF0A0D5E1F4F80910804909168
:103620000904B0E0A0E088169906AA06BB06DCF201
:1036300090E080E0A8CF638174816230710511F45D
:10364000548343830196739635CF82E090E099834B
:10365000888385EF9FEFF0CE0097B9F48FEFFB01E1
:103660008083209153023091540243E1429FC00174
:10367000439F900D1124E0910604F0910704E80F98
:10368000F91F8285FB01818308950C94CE1088E098
:1036900090E0FA019183808390E080E00895109299
:1036A000050410920404E6E0F4E086E0DF011D92D8
:1036B0008A95E9F789ED96E19093030480930204DB
:1036C0000895809102049091030408952F923F92EF
:1036D0004F925F926F927F928F929F92AF92BF9222
:1036E000CF92DF92EF92FF920F931F93CF93DF93CE
:1036F000CDB7DEB72F970FB6F894DEBF0FBECDBFA4
:10370000F894E0910404F09105043196F0930504D7
:10371000E093040478944090060450900704411408
:10372000510409F40CC2E0910804F0910904EF2B54
:1037300009F405C22D8749875A876B877C8798874C
:103740008F831201B12CA12C10E000E080910804BD
:1037500090910904A816B90618F40115110529F16C
:10376000F8948091040490910504019790930504C6
:10377000809304047894C8012F960FB6F894DEBFA6
:103780000FBECDBFDF91CF911F910F91FF90EF90B2
:10379000DF90CF90BF90AF909F908F907F906F9071
:1037A0005F904F903F902F9008957101E418F508B5
:1037B000D10117968C91179781FD54C013968D9166
:1037C0009C911497039709F04DC015968D919C918B
:1037D000EF81F8858E179F0709F044C0B50190E08E
:1037E00080E07FD48A8320910604309107043D83D2
:1037F0002C833D85332309F44CC04C815D81452BDE
:1038000009F49AC18091080490910904A816B90698
:1038100008F092C1C501D8D88823E9F06C817D8178
:103820006E0D7F1D7D836C83DB011F968D919C91B6
:10383000892B89F0D12CC12CF12CE12CAC81BD81DC
:1038400012968C9112978E151F0409F094F45096DD
:103850001C921E921F972A81222321F0B50190E02D
:1038600080E041D43FEFA31AB30A43E1240E311C98
:103870006DCFAC81BD81ED91FC91EC0DFD1D85817D
:1038800096810FD7BFEFEB1AFB0AEDE0CE0ED11CED
:10389000D5CFEC81FD81309709F44EC180910804A9
:1038A00090910904A816B90608F046C1EE0DFF1D57
:1038B000FF87EE87C50188D88B83882339F1AE85D1
:1038C000BF851F968D919C915097019621E01D9682
:1038D0004D915C918417950709F020E02E831982A1
:1038E000712C10E000E0AE85BF8512968C917816A1
:1038F00008F45DC0EE85FF85878590890196658512
:1039000076850E947B34908B8787A5CFB1E0BE83FC
:10391000E6CF992493946BC08BD6F601968385836A
:1039200082C0D601ED90FC90B7E06B9EE00CF11CDC
:103930001124F7016381748180818F3F61F121E05F
:1039400030E002C0220F331F8A95E2F7C901092E29
:10395000000CAA0BBB0BFB0140815181628173817A
:1039600084239523A623B72321E0892B8A2B8B2B35
:1039700009F420E0D4012C93D70111968C91F60123
:1039800023853485820F932F911D880E991E1486EE
:10399000138663949BC0418150E0C4010E94D234DD
:1039A000EBCF998206EF1FEFC5C01982C3C0F98122
:1039B000F111A0CFEDE07E9E70011124AE85BF8590
:1039C000CD90DC90CE0CDF1C15D49D838C83BB8105
:1039D000BB2309F49ECF81E0EE85FF8527853089E2
:1039E000232B09F080E0982E882309F458C0672D16
:1039F0008E859F850DD8D60118969C938E93179728
:103A000061E070E0C2D4EE85FF85218932892F3FC5
:103A1000320709F481CFBC01C901CFD7D601169670
:103A20009C938E931597D60115968D919C91169720
:103A3000009709F4B6CFEC81FD818E0F9F1F1A9677
:103A40009C938E931997AE85BF85ED91FC9111974C
:103A5000EE0EFF1EF70121853285148613861A9615
:103A60008C91870DD9018D93711016C0EE85FF855D
:103A7000878184FF11C049855A856B857C85F90152
:103A80004183528363837483F7018385948504960D
:103A9000A80FB91F14861386F701B287A187D60134
:103AA00015968D919C911697892B09F443C0EE854C
:103AB000FF85258136818091490290914A0228171D
:103AC000390779F019968D909C90612CD601129649
:103AD0008C911297681608F424CF1A969C928E92B5
:103AE0001997BE81BB2309F460CF61E070E0F60155
:103AF000878190854AD4D6011796ED90FC9018974F
:103B000015964D915C91E1E0F0E0BA81BB2311F094
:103B1000F0E0E0E00C811D819C01B5018827992728
:103B20008E1B9F0B6AD38C01892B21F0F6018581B6
:103B30009681B7D57394D7CE0FEF1FEF8CCE10E0E0
:103B400000E00ECE2F923F924F925F926F927F9243
:103B50008F929F92AF92BF92CF92DF92EF92FF929D
:103B60000F931F93CF93DF938091060490910704E6
:103B700010E000E0892BA9F0C8DA0AEF1FEF8823D4
:103B800081F02090080430900904C0910604D0917F
:103B90000704D12CC12C10E000E02C143D04A9F442
:103BA0007894C801DF91CF911F910F91FF90EF9012
:103BB000DF90CF90BF90AF909F908F907F906F904D
:103BC0005F904F903F902F900895C6010E94E4149B
:103BD000882309F18B819C810397E9F48F8598896B
:103BE000892BC9F0B60190E080E07BD221E030E083
:103BF000882311F030E020E044245524421A530A6F
:103C0000B12CA12C912C812C8A818815190409F0E2
:103C100038F4188A1F864FEFC41AD40A6396BDCFB2
:103C2000E881F981EA0DFB1D85819681892BA1F13F
:103C300061E070E087819085A8D33C01DBD28C01E4
:103C4000E881F981EA0DFB1D818592852581368108
:103C5000200F311FAC01421B530B9A014781508545
:103C6000421B530B70E060E00E94DB34E881F98175
:103C7000EA0DFB1DE780F084458156819301B60172
:103C8000C201BBD28C01892B39F0E881F981EA0DA0
:103C9000FB1D8581968105D55FEF851A950A8DE01C
:103CA000A80EB11CB1CF31CA789408952F923F92DB
:103CB0004F925F926F927F929F92AF92BF92CF92FC
:103CC000DF92EF92FF920F931F93CF93DF9300D079
:103CD00000D0CDB7DEB700910604109107049924F7
:103CE00093940115110509F43EC0A0900804B0900A
:103CF00009040BDA982E8823B1F110920704109270
:103D00000604109209041092080410920A041092FA
:103D10000B048FEF9FEFDC018093530290935402CA
:103D2000A0935502B093560278947FD31E830D83DF
:103D3000C12CD12C7601C501B0E0A0E089839A8323
:103D4000AB83BC8322242A94322C89819A81AB8153
:103D5000BC81C816D906EA06FB06F4F0C801A1D456
:103D600080E40E942511892D26960FB6F894DEBFB7
:103D70000FBECDBFDF91CF911F910F91FF90EF90BC
:103D8000DF90CF90BF90AF909F907F906F905F90AB
:103D90004F903F902F900895AD81BE8115968D91E3
:103DA0009C9116972091490230914A0282179307FD
:103DB000D1F451968D919C91EED5ED81FE8180815B
:103DC0009181B12CA12C412C512C3201892B89F5E8
:103DD000BFEFCB1ADB0AEB0AFB0AED81FE8173967B
:103DE000FE83ED83B2CFC114D104E104F10429F7BD
:103DF000892B19F7ED81FE81818992898F3F980780
:103E000009F029D5AD81BE8152963C922E925197F0
:103E1000D4CF8A0D9B1DDC018D919C91009709F0F8
:103E200040D4BFEF4B1A5B0A6B0A7B0AEDE0AE0E83
:103E3000B11CAD81BE818D919C91119712964C91D0
:103E400050E070E060E044165506660677060CF315
:103E500028D4BECFCF93DF93EA0128DF811109C0B8
:103E600082E090E09983888385EF9FEFDF91CF9187
:103E7000089581E090E00E94171181E090E099831D
:103E8000888390E080E0F2CF11DF1092030410925B
:103E90000204089542E050E06EEE72E00C94351199
:103EA000FF920F931F93CF93DF938A01EC01C60F0C
:103EB000D71FF980B9D20897F816190671F068F083
:103EC00082E090E0F801918380838EEF9FEFDF9195
:103ED000CF911F910F91FF9008956C817D818E810C
:103EE0009F814B810E94CA13811108C082E090E03B
:103EF000F8019183808384EF9FEFE9CFF9800E94DE
:103F0000C5134F2D50E0BE01685F7F4F0E94D23431
:103F100089810E94341481E090E0F80191838083CC
:103F200090E080E0D4CFDF92EF92FF920F931F9347
:103F3000CF93DF938A01EC01C60FD71F0E94C513F0
:103F40007C01D98071D2DD2059F0029721E030E068
:103F5000D816190619F010F030E020E0232B79F480
:103F600082E090E0F801918380838EEF9FEFDF91F4
:103F7000CF911F910F91FF90EF90DF900895EF2860
:103F800041F482E090E0F8019183808384EF9FEF19
:103F9000EECFF9800E94C5134F2D50E0BE016E5F39
:103FA0007F4F0E94D23489810E94341481E090E0D6
:103FB000F8019183808390E080E0D9CF8AE49FE18B
:103FC00090930D0480930C04089580910C049091BB
:103FD0000D0408950895FC01118210829383828359
:103FE0000895DB011D921C92DC011296ED91FC916B
:103FF00013977183608313967C936E931297089541
:10400000FC0180819181DB018D939C93A081B18122
:10401000109741F08D919C9191838083892B11F4AD
:10402000F383E2830895FC0180819181DB018D930C
:104030009C93892B11F47383628371836083089549
:10404000FC0111821082938382830895CF93DF93C2
:104050001F921F92CDB7DEB71A821982F894BE0163
:104060006F5F7F4F83E194E0CBDF89819A81009776
:1040700009F017D389819A81892B89F7BE016F5F77
:104080007F4F87E194E0BCDF89819A81009709F036
:1040900008D389819A81892B89F778940F900F90A2
:1040A000DF91CF910895CF93DF931F921F92CDB7E9
:1040B000DEB71A821982F894BE016F5F7F4F8FE0DE
:1040C00094E09EDF89819A81009709F0EAD2898184
:1040D0009A81892B89F778940F900F90DF91CF9177
:1040E000089581E0089590E080E00895EF92FF92B6
:1040F0000F931F93CF93DF931F921F92CDB7DEB71D
:104100001A82198280910E0407EF1FEF8823A1F114
:10411000F894BE016F5F7F4F87E194E071DF789480
:1041200089819A81EE24E394F12C892B51F4F8943F
:10413000BE016F5F7F4F83E194E062DF7894F12CE2
:10414000E12C89819A810EEF1FEF0097A9F0FC0105
:104150004281538164E070E076D68C01892B61F056
:10416000F89469817A81C701880F991F880F991F78
:104170008D5E9B4F58DF7894C8010F900F90DF91B0
:10418000CF911F910F91FF90EF9008950F931F9380
:10419000CF93DF9300D01F92CDB7DEB71C821B8276
:1041A0001A82198280910E0407EF1FEF8823C1F055
:1041B000AE014D5F5F4F64E070E0CE010196B6D670
:1041C0008C01892B69F4E981FA818B819C8193832D
:1041D0008283F89469817A818FE094E002DF789499
:1041E000C8010F900F900F900F90DF91CF911F910A
:1041F0000F910895BBD7049608958F929F92AF9226
:10420000BF92CF92DF92EF92FF920F931F93CF93C3
:10421000DF931F921F92CDB7DEB71A821982BC01BD
:104220006F5F7F4F6330710598F0AA24AA94BA2C6F
:10423000C5010F900F90DF91CF911F910F91FF90CB
:10424000EF90DF90CF90BF90AF909F908F900895A8
:104250004115510551F3480159018A016C01CADF2A
:104260008815990511F7E114F104F9F28E0D9F1DDF
:10427000A816B906D0F280910E048823F1F0F894C4
:10428000B501645071099701AE014F5F5F4FC801DE
:104290000496E1D65C01892B71F489819A81F80139
:1042A00093838283C601880F991F880F991FB801D5
:1042B0008D5E9B4F96DE7894BBCF87EFA82EBB24F4
:1042C000BA94B6CFAF92BF92CF92DF92EF92FF92A5
:1042D0000F931F93CF93DF931F921F92CDB7DEB73B
:1042E0001A821982892B09F047C06115710509F4FA
:1042F00043C04115510509F43FC02115310509F4AA
:104300003BC001151105C1F180910E048823B9F15C
:1043100079016A015B01F894BE016F5F7F4F8FE006
:1043200094E06EDE789489819A81009759F1DC01DE
:1043300012966D917C91A8010496A6D68C01E98114
:10434000FA81D501ED93FC93828193810496F60165
:10435000918380834FDFD7018D939C93C8010F9089
:104360000F90DF91CF911F910F91FF90EF90DF9011
:10437000CF90BF90AF9008950FEF1FEFEFCF07EFF3
:104380001FEFECCF0EEF1FEFE9CFCF93DF93EC01E0
:10439000672B71F4F4D68C179D0760F0E7D624964E
:1043A000C80FD91FE6D68C0F9D1FDF91CF910895BE
:1043B000E3D6F1CF90E080E0F8CF0F931F93CF9337
:1043C000DF9320910E0421112BC08B01EC0183E1BE
:1043D00094E001DE87E194E0FEDD8FE094E0FBDD18
:1043E00097D00097C1F4CBD670E060E0CEDF47E510
:1043F00052E062E070E081D1009769F48091570249
:1044000090915802CED6B801CE0103D5009719F489
:1044100021E020930E04DF91CF911F910F91089519
:1044200084EF9FEFF8CFA8C6AAC6CF93DF93AAD692
:10443000EC01892B11F40ADE36DECE01DF91CF913B
:104440000895CF93DF939ED6EC01892B09F4FEDD0E
:10445000CE01DF91CF91089580915702909158023B
:104460000895CF93DF9380910E04D0E0C0E08823BD
:10447000D1F09CD6EC01892BB1F4E8DD14DE8091FB
:10448000570290915802E7D1E8D2EC01892B59F4F8
:1044900083E194E0D5DD87E194E0D2DD8FE094E024
:1044A000CFDD10920E04CE01DF91CF910895EF92EF
:1044B000FF920F931F93CF93DF93EC017A018B014F
:1044C0000F5F1F4F0E9DA0010F9D500D1E9D500DA3
:1044D000112470E060E00E94DB3490E080E0F0E0C6
:1044E000E0E02FEFE816F90639F4DF91CF911F9144
:1044F0000F91FF90EF9008951A82198228833097C8
:1045000011F0D283C1830196FE01C00FD11FEACF03
:10451000CF92DF92EF92FF920F931F93CF93DF938F
:1045200008E915E00C7F43E050E069E572E08FE5B3
:1045300092E01CD489E5E82E82E0F82E9FE5C92E92
:1045400092E0D92EC7E1D6E0D7014D915D917D0172
:10455000F601619171916F01198308835D834C832A
:104560005B834A837F836E839B012F5F3F4F249F32
:10457000C001259F900D349F900D11249987888745
:104580000115110511F0C80192DF88859985080F82
:10459000191F2A96FFE5EF16F2E0FF06A9F6EDE1F6
:1045A000F4E088E791E0DF019C011D92215030404A
:1045B000E1F710921C0410921B0410923606109220
:1045C000350610923A06109239061092380610926B
:1045D000370610923C0610923B0610923E0610924F
:1045E0003D061092400610923F061092440610922B
:1045F000430610924206109241061092460610920F
:104600004506109248061092470610921406109222
:104610001306109216061092150690E080E0DF91C6
:10462000CF911F910F91FF90EF90DF90CF90089561
:104630000097F1F0F894AFE5B2E0E7E1F6E030E0A2
:1046400020E04D915D9148175907A8F042815381B0
:104650004115510581F08AE0829FF001839FF00DA2
:104660001124E95EF94F80819181009759F4789483
:1046700090E080E008952F5F3F4F3A962330310558
:1046800001F7F5CFDC0111966D917C917183608308
:104690004150510953834283FC012193CF01789407
:1046A0000895009749F1DC018E91853041F4E09145
:1046B0001506F09116063097F9F0CD011994853062
:1046C000D8F4282F30E0F8948FEF8C938AE0829F03
:1046D000F001839FF00D1124E95EF94F80819181F3
:1046E00012969C938E931197B183A08382819381BC
:1046F00001969383828378940895CF92DF92EF920C
:10470000FF920F931F93CF93DF939C0180E294E07D
:104710008C7F4115510509F49BC02115310509F421
:1047200097C06115710509F493C07A01AB01B90115
:104730006D5F7F4F6C7F9B012F5F3F4F249F8001F8
:10474000259F100D349F100D1124F89420913506EB
:1047500030913606232B59F420913D0630913E06C8
:104760002115310569F12017310708F058C0209153
:104770003F0630914006232B91F420913D06309165
:104780003E06820F931F209147063091480621155F
:10479000310509F441C02017310708F056C078945C
:1047A000CFEFDFEF86EF9FEFF701D183C083DF917B
:1047B000CF911F910F91FF90EF90DF90CF900895D0
:1047C000C3E0D0E0C0901B04D0901C0425E731E08A
:1047D0002C193D092017310710F32AE02C9FF00116
:1047E0002D9FF00D1124E95EF94F9183808355834D
:1047F00044835383428377836683118700870097BE
:1048000009F055DE0C0D1D1D10931C0400931B04B4
:10481000789490E080E0C8CFC4E0D0E0D3CFC3E08C
:10482000D0E02AE02C9FF0012D9FF00D1124E95ECD
:10483000F94F9183808355834483538342837783E5
:104840006683009729F333DEE3CFC4E0D0E0E9CFFD
:104850008FEF9FEFACCF9C010397029708F069C0E0
:10486000F89484E09AE0482F50E0241735070CF4C0
:104870004DC091E08AE0829FF001839FF00D1124EA
:10488000E95EF94F1182108215821482138212821E
:10489000178216829923B1F18091350690913606E0
:1048A000892BA9F420913D0630913E062115310552
:1048B00071F080911B0490911C04821B930B9093C8
:1048C0001C0480931B0410923E0610923D068091BA
:1048D0003F0690914006892BA9F42091470630911C
:1048E00048062115310571F080911B0490911C043C
:1048F000821B930B90931C0480931B041092480618
:1049000010924706789490E080E00895949FF0011B
:10491000959FF00D1124E95EF94F40815181452B9F
:1049200031F440855185452B11F481509CCF90E0A6
:10493000A1CF8FEF9FEF08954115510549F10097E1
:1049400039F16115710521F1F89420911306309128
:104950001406232BB9F42091150630911606232B4B
:1049600089F490931406809313067093160660934F
:104970001506789425E030E090E080E0FA0131837C
:104980002083089578942FEF3FEF86EF9FEFF6CFC7
:104990008FEF9FEF0895059769F4F894109214062D
:1049A000109213061092160610921506789490E055
:1049B00080E008958FEF9FEF08956115710519F458
:1049C000F0E0E0E011C08530910581F4E09113063C
:1049D000F09114063097A1F3CB0101961995009739
:1049E00079F3FC0185E08193CF0108959C01235068
:1049F00031092230310520F72AE0289FD001299F74
:104A0000B00D1124A95EB94F2D913C911197232B24
:104A1000B9F216962D913C9117972617370780F219
:104A2000F89412962D913C9113972115310529F098
:104A3000ED91FC911197309711F47894C1CF418199
:104A4000528111965C934E932150310913963C93F9
:104A50002E93129781937894C7CFE5E9F5E08EE71E
:104A6000DF011D928A95E9F7EDE1F4E088E791E036
:104A7000DF019C011D9221503040E1F710921C048F
:104A800010921B04E7E1F6E082E3DF011D928A95B4
:104A9000E9F7E3E1F6E084E0DF011D928A95E9F7AA
:104AA00090E080E00895CF93DF93C0916502D091AC
:104AB0006602CF3FDC0759F423D4909366028093BB
:104AC000650297FF09C0D0936602C093650284EF28
:104AD0009FEFDF91CF91089590E080E0FACF823090
:104AE000910528F48093490690E080E008958FEFC7
:104AF0009FEF08954F925F926F927F92AF92BF9215
:104B0000CF92DF92EF92FF920F931F93CF93DF9399
:104B10001F921F92CDB7DEB71A821982009709F44F
:104B200079C06115710509F475C020916502309155
:104B3000660207EF1FEF2F3F3F4F09F445C06B019F
:104B40005C01412C512C3201F12CE12C10E000E0F1
:104B50009E012F5F3F4FA6014E195F09B5016E0DF3
:104B60007F1D809165029091660229D4892B09F0FE
:104B70004BC089819A81009741F4E114F10429F432
:104B800020914906222309F442C0E80EF91EEC14D4
:104B9000FD04D0F480E8481684E858068EE16806E3
:104BA000710420F560E070E0CB010E94B82E2AE08D
:104BB000420E511C611C711C0A3F4FEF140721F07B
:104BC000043F8FEF1807A1F4C8010F900F90DF91F9
:104BD000CF911F910F91FF90EF90DF90CF90BF90FA
:104BE000AF907F906F905F904F90089501EF1FEF0F
:104BF00081E090E0013F2FEF120711F090E080E09C
:104C0000892B09F4A5CFE0CF04EF1FEFDDCF0AEF2A
:104C10001FEFDACF0FEF1FEFD7CF4F925F926F9258
:104C20007F92AF92BF92CF92DF92EF92FF920F935B
:104C30001F93CF93DF931F921F92CDB7DEB71A82D7
:104C40001982009709F479C06115710509F475C0DE
:104C5000209165023091660207EF1FEF2F3F3F4F13
:104C600009F445C06B015C01412C512C3201F12C3F
:104C7000E12C10E000E09E012F5F3F4FA6014E198E
:104C80005F09B5016E0D7F1D8091650290916602EE
:104C90004CD3892B09F04BC089819A81009741F44C
:104CA000E114F10429F420914906222309F442C0B9
:104CB000E80EF91EEC14FD04D0F480E4481682E4FA
:104CC00058068FE06806710420F560E070E0CB01C3
:104CD0000E94B82E2AE0420E511C611C711C0E3F2E
:104CE0004FEF140721F0043F8FEF1807A1F4C8011C
:104CF0000F900F90DF91CF911F910F91FF90EF9048
:104D0000DF90CF90BF90AF907F906F905F904F906B
:104D1000089502EF1FEF81E090E0023F2FEF1207AE
:104D200011F090E080E0892B09F4A5CFE0CF04EFEB
:104D30001FEFDDCF0EEF1FEFDACF0FEF1FEFD7CF53
:104D400080916502909166028F3F980749F0D0D21A
:104D5000892B49F48FEF9FEF909366028093650251
:104D600090E080E0089584EF9FEF0895CF92DF9266
:104D7000EF92FF920F931F93CF93DF9321E04115A2
:104D8000510509F020E04150510921112CC0DC01EE
:104D9000FB01D12CC12C21E022C03FEFC31AD30A62
:104DA0007D010D911D91E701EA80FB80E016F1067F
:104DB000A8F420813181E280F380F182E0823383A4
:104DC0002283ED90FC9011979D0122503109E90159
:104DD000F982E88211961C930E9320E03296C41655
:104DE000D506D8F2D2CFDF91CF911F910F91FF90CE
:104DF000EF90DF90CF900895FC01680F791F90E04D
:104E000080E0E617F70709F408952191820F911DBC
:104E1000F8CF20914A06211113C045DE009791F486
:104E20001092500610924F0610924E0610924D06A8
:104E300010924C0610924B0621E020934A060895EA
:104E400084EF9FEF0895AF92BF92CF92DF92EF92DF
:104E5000FF920F931F93CF93DF93009709F460C0E5
:104E60004630510508F45CC020914A06C7EFDFEFD9
:104E7000222309F449C08C01060F171FF801C080D6
:104E8000D180C114D10409F44EC096012A5F3F4F6E
:104E90004217530708F447C07C0180914F06909158
:104EA000500693838283B6016C5F7F4F5801A60E34
:104EB000B71EC801A1DFF5019183808364E070E033
:104EC000C80118DEEC01892BF9F481E090E007DEDF
:104ED000B601C80104960EDEEC01892B91F462E064
:104EE00070E0C50107DEEC01892B59F4C701D9DB5D
:104EF00080914F06909150060196909350068093B2
:104F00004F0690E080E0EBDDCE01DF91CF911F9165
:104F10000F91FF90EF90DF90CF90BF90AF900895EA
:104F2000CFEFDFEFF1CFC9EFDFEFEECF6F927F92E0
:104F30008F929F92AF92BF92CF92DF92EF92FF92A9
:104F40000F931F93CF93DF9300D01F92CDB7DEB79F
:104F5000009709F47AC04115510509F476C02091F3
:104F60004A0607EF1FEF222309F44DC03A017B01E7
:104F70005C0164E070E0CE0101964FDE8C01892B6C
:104F800009F041C009811A810115110509F45AC0BF
:104F9000480186E0880E911CB701680D791D80914B
:104FA00067029091680209DD6C01009709F450C016
:104FB000A70170E060E00E94DB3489819A81AB81B7
:104FC000BC81EC0CFD1CF70181939193A193B193EB
:104FD0007F0181E090E083DDB801C7011EDE892BEF
:104FE00031F562E070E0C701800F911F16DE8C0181
:104FF000892BE9F490E080E072DDF501D182C08276
:10500000F30191828082C8010F900F900F900F9052
:10501000DF91CF911F910F91FF90EF90DF90CF9094
:10502000BF90AF909F908F907F906F90089590E089
:1050300080E055DDF50111821082F30111821082AA
:10504000C6012FDB09EF1FEFDECF0FEF1FEFDBCF26
:1050500006EF1FEFD8CF0097A1F04115510589F059
:105060002115310571F0F90136966E177F0748F06A
:10507000DC012D933C93DA01ED93FC9390E080E00A
:1050800008958FEF9FEF0895AF92BF92CF92DF9276
:10509000EF92FF920F931F93CF93DF93009709F442
:1050A0005FC04115510509F45BC06530710508F416
:1050B00057C020914A06C7EFDFEF222391F1DC01B0
:1050C000CD90DC9011971296ED91FC9196012A5F9C
:1050D0003F4FC9EFDFEF2617370719F5C0914B0691
:1050E000D0914C06209749F521E030E030934C06F2
:1050F00020934B067A018C01F0934E06E0934D0607
:105100005601B4E0AB0EB11CB50176DE0A0D1B1DD5
:10511000F801208131818217930729F5D701CD92BB
:10512000DC92CE01DF91CF911F910F91FF90EF9014
:10513000DF90CF90BF90AF90089520914D063091B1
:105140004E062F5F3F4FCCEFDFEFE217F30790F2F1
:10515000CBEFDFEF2E173F0768F2D0E0C0E0CACFF9
:10516000CFEFDFEFDECFC3EFDFEFDBCF84E090E008
:10517000089582E090E008958CEF9FEF089580E21B
:1051800090E008951092500610924F0610924E062D
:1051900010924D0610924C0610924B0690E080E063
:1051A00008959093680280936702089580914A065B
:1051B000882391F0C5DD009789F410925006109273
:1051C0004F0610924E0610924D0610924C06109209
:1051D0004B0610924A06089590E080E008950097EB
:1051E00049F06115710531F0FC0111821082FB015B
:1051F000118210820895F3CF26E030E040E855E2B6
:1052000060E070E090E080E000C08130910571F0D6
:105210001CF4892B39F008958230910551F00397E1
:1052200059F008958EE596E00C94BD318BEF96E031
:10523000FBCF88E997E0F8CF85E398E0F5CF1F92A0
:105240000F920FB60F9211240BB60F922F933F932C
:105250004F935F936F937F938F939F93AF93BF937E
:10526000EF93FF938FE89DEF9093250180932401A6
:10527000BAD0FF91EF91BF91AF919F918F917F91A4
:105280006F915F914F913F912F910F900BBE0F90B7
:105290000FBE0F901F9018958FE89DEF90932501FA
:1052A00080932401A3E7B0E08C918E7F8C93E0E2A1
:1052B000F1E080818C7F8083E1E2F1E08081877E74
:1052C000808380818460808380818C7F80838C91C7
:1052D00081608C930895E3E7F0E0808190819E7F68
:1052E00090838170089581E0089510925106089589
:1052F00068EE73E080E090E03BD590E080E00895B8
:1053000026E030E040E052EC61E070E090E080E0C8
:105310007CDF8EE596E067D7892B21F08EE596E05D
:105320007CD7F7CF90E080E00895CF92DF92EF92A4
:10533000FF920F931F93CF93DF936B017A01E901E3
:10534000198218828EE596E04ED7892B69F1860185
:10535000CC24C39482E0D82E80915106811110C0D4
:105360008EE596E05AD70297B9F7C0925106F80138
:10537000D1928F0188819981019699838883ECCF9E
:10538000888199818E159F0578F48EE596E045D742
:105390008F3F9807A9F3F80181938F018881998144
:1053A000019699838883ECCF90E080E0DF91CF91E4
:1053B0001F910F91FF90EF90DF90CF9008950F9382
:1053C0001F93CF93DF93EA0189018EE596E00E9457
:1053D0004D34F801D183C08390E080E0DF91CF911C
:1053E0001F910F910895CF92DF92EF92FF92CF938A
:1053F000DF938091520691E0980F90935206882394
:1054000079F021E030E030935406209353068093E6
:105410005206DF91CF91FF90EF90DF90CF900895EB
:105420007894C0917A02D0917B026E8D7F8D88A195
:1054300099A143D120E030E040E85FE4F4D16B0172
:105440007C016A8D7B8D8C8D9D8D37D19B01AC014C
:10545000C701B60199D005D16B017C010E9463069A
:10546000B701A60190E080E00E94D505F8948091F4
:1054700052068150CCCF0F931F93CF93DF9310929E
:10548000210910922009AAD4B7DEC0917A02D091E6
:105490007B02198218826FEF7FEFCB010E945806C2
:1054A00070E060E090E080E00E94D904009709F08D
:1054B0003AC00E940709F8947894BE016A5D7F4F54
:1054C0008A819B810E94DC04892B59F46FEF7FEF66
:1054D000CB010E946B050E945206882311F081E0E7
:1054E0008AA7F894D9DE0E945506882311F080E03F
:1054F00008C00E9452068111FACF81E09AA591114D
:10550000F6CF8093200978940E9412118C01789430
:105510008091200981110CC00E940A0A0E9437065E
:10552000F89490E080E0DF91CF911F910F91089562
:105530000E9435060E9455068823D9F081E08093A9
:1055400021099091210981E0911180E08093200947
:10555000809121098111BFDE0130110529F40E94DB
:105560001211892B09F4C1DE0E9412118C01BBDEDD
:10557000CFCF0E9452068111E1CF81E09AA591110F
:10558000DECF80E0DCCF5058BB27AA270ED00DC15C
:10559000FED030F003D120F031F49F3F11F41EF41F
:1055A000F3C00EF4E095E7FBE9C0E92F0FD180F3DB
:1055B000BA17620773078407950718F071F49EF510
:1055C00027C10EF4E0950B2EBA2FA02D0B01B901C7
:1055D00090010C01CA01A0011124FF27591B99F069
:1055E000593F50F4503E68F11A16F040A22F232F75
:1055F000342F4427585FF3CF469537952795A795C5
:10560000F0405395C9F77EF41F16BA0B620B730B6B
:10561000840BBAF09150A1F0FF0FBB1F661F771FDC
:10562000881FC2F70EC0BA0F621F731F841F48F491
:10563000879577956795B795F7959E3F08F0B3CF17
:105640009395880F08F09927EE0F97958795089501
:1056500071D008F481E0089504D06894B111D9C0E4
:105660000895BCD088F09F5790F0B92F9927B75173
:10567000A0F0D1F0660F771F881F991F1AF0BA9516
:10568000C9F712C0B13081F0C3D0B1E00895C0C0F5
:10569000672F782F8827B85F39F0B93FCCF386950C
:1056A00077956795B395D9F73EF490958095709569
:1056B00061957F4F8F4F9F4F0895E89409C097FBE6
:1056C0003EF490958095709561957F4F8F4F9F4FD9
:1056D0009923A9F0F92F96E9BB279395F69587951D
:1056E00077956795B795F111F8CFFAF4BB0F11F4E0
:1056F00060FF1BC06F5F7F4F8F4F9F4F16C0882387
:1057000011F096E911C0772321F09EE8872F762FBC
:1057100005C0662371F096E8862F70E060E02AF0FD
:105720009A95660F771F881FDAF7880F96958795E9
:1057300097F90895990F0008550FAA0BE0E8FEEFBE
:1057400016161706E807F907C0F012161306E40745
:10575000F50798F0621B730B840B950B39F40A263E
:1057600061F0232B242B252B21F408950A2609F41C
:10577000A140A6958FEF811D811D089597F99F6720
:1057800080E870E060E008959FEF80EC08950024C9
:105790000A941616170618060906089500240A9496
:1057A00012161306140605060895092E0394000C1C
:1057B00011F4882352F0BB0F40F4BF2B11F460FFAB
:1057C00004C06F5F7F4F8F4F9F4F089557FD9058D4
:1057D000440F551F59F05F3F71F04795880F97FBB5
:1057E000991F61F09F3F79F087950895121613066F
:1057F0001406551FF2CF4695F1DF08C0161617069E
:105800001806991FF1CF86957105610508940895D2
:10581000E894BB2766277727CB0197F908958ADF9D
:1058200008F48FEF08950BD0C0CFB1DF28F0B6DFBA
:1058300018F0952309F0A2CFA7CF1124EACFC6DF35
:10584000A0F3959FD1F3950F50E0551F629FF00193
:10585000729FBB27F00DB11D639FAA27F00DB11DEC
:10586000AA1F649F6627B00DA11D661F829F222775
:10587000B00DA11D621F739FB00DA11D621F839FFC
:10588000A00D611D221F749F3327A00D611D231FD2
:10589000849F600D211D822F762F6A2F11249F5720
:1058A00050408AF0E1F088234AF0EE0FFF1FBB1F43
:1058B000661F771F881F91505040A9F79E3F5105E2
:1058C00070F05CCFA6CF5F3FECF3983EDCF386959B
:1058D00077956795B795F795E7959F5FC1F7FE2B8D
:1058E000880F911D9695879597F9089508958830AA
:1058F00008F076C0E82FF0E0EE0FFF1FE759FD4FEC
:10590000718360838150873008F03DC0E82FF0E05C
:105910008827E257F34D8F4F0C94B134CB2C952C44
:105920009D2CA92CB62CD72CE42C809169008C7F5F
:10593000482B40936900E89A089580916900837F1D
:10594000440F551F440F551F482B40936900E99A97
:105950000895809169008F7C74E0440F551F7A95FB
:10596000E1F7482B40936900EA9A08958091690015
:105970008F7366E0440F551F6A95E1F7482B4093FB
:105980006900EB9A089580916A008C7F482B4093C0
:105990006A00EC9A089580916A00837F440F551F36
:1059A000440F551F482B40936A00ED9A089580914B
:1059B0006A008F7C24E0440F551F2A95E1F7482B9D
:1059C00040936A00EE9A089580916A008F7396E082
:1059D000440F551F9A95E1F7482B40936A00EF9AC0
:1059E00008951F920F920FB60F9211240BB60F92CB
:1059F0002F933F934F935F936F937F938F939F93D7
:105A0000AF93BF93EF93FF93E0916D02F0916E021D
:105A10001995FF91EF91BF91AF919F918F917F91D8
:105A20006F915F914F913F912F910F900BBE0F900F
:105A30000FBE0F901F9018951F920F920FB60F92E6
:105A400011240BB60F922F933F934F935F936F9355
:105A50007F938F939F93AF93BF93EF93FF93E091C7
:105A60006F02F09170021995FF91EF91BF91AF9184
:105A70009F918F917F916F915F914F913F912F9166
:105A80000F900BBE0F900FBE0F901F9018951F9296
:105A90000F920FB60F9211240BB60F922F933F93D4
:105AA0004F935F936F937F938F939F93AF93BF9326
:105AB000EF93FF93E0917102F09172021995FF91BB
:105AC000EF91BF91AF919F918F917F916F915F9176
:105AD0004F913F912F910F900BBE0F900FBE0F90E3
