:1000000005C100000C94AA0D0C94D50D0C94000EA3
:100010000C942B0E0C94560E0C94810E0C94AC0E7A
:100020000C94D70E24C1000022C1000020C10000A2
:100030001EC100001CC100001AC1000018C1000050
:1000400016C1000014C1000012C1000010C1000060
:100050000EC100000CC100000AC100000C94020F88
:1000600006C100000C947B120C94B11200C1000078
:10007000FEC00000FCC00000FAC00000F8C0000094
:10008000F6C00000F4C00000F2C00000F0C00000A4
:100090000C9407130C943D13EAC00000E8C0000064
:1000A000E6C00000E4C00000E2C00000E0C00000C4
:1000B000DEC00000DCC00000DAC00000D8C00000D4
:1000C000D6C00000D4C000000C94E00A0C94931336
:1000D0000C94C913CCC000000C941F140C9455143C
:1000E000C6C0000000000A0B02090C0D0E08070331
:1000F00004010000000000000000000000000000FB
:1001000000000000000000000000000000000000EF
:1001100012111000000000000000000000000000AC
:100120000000000000000000000001021020200874
:100130000810204010204080020102010804020142
:1001400001020408102040808040201008040201B1
:10015000800402018040201008040201080402010A
:100160000102040810204080010204081020408091
:1001700005050505070508080808020202020A0A23
:100180000808040404040101010101010101030341
:10019000030303030303040707070C0C0C0C0C0CEC
:1001A0000C0C0202020206060606060606060B0BE9
:1001B0000B0B0B0B0B0B000020002300260029006B
:1001C0002C002F003200000100000301060109018C
:1001D00000002200250028002B002E0031003400F2
:1001E00002010000050108010B01000021002400AC
:1001F00027002A002D003000330001010000040117
:1002000007010A01DA126613F2137E1411241FBECD
:10021000CFEFD1E2DEBFCDBF00E00CBF12E0A0E027
:10022000B2E0E8E0FAE200E00BBF02C007900D92F6
:10023000A83CB107D9F725E0A8ECB2E001C01D92B7
:10024000A63EB207E1F711E0C6E0D1E000E006C04B
:1002500021970109802FFE010E94FA14C230D107B4
:1002600080E00807A9F70E94460B0C940215C8CE3F
:10027000611102C00C94E8106130E1F362E0FACF42
:10028000662319F061E00C94241160E0FCCFCF925A
:10029000DF92EF92FF92CF93882351F16A017B01A5
:1002A000CFEFC80F20E030E0A901CB01B6010E94DA
:1002B000E20B18168CF0C701B60190580E94EB0BA8
:1002C0009B01AC016C2F70E090E080E0CF91FF903B
:1002D000EF90DF90CF90B2C0C701B6010E94E60B4D
:1002E0008C2FCF91FF90EF90DF90CF900C94AE0FBA
:1002F000CF91FF90EF90DF90CF9008950F931F93D1
:100300008B019C0183E036952795179507958A9573
:10031000D1F708531D4F462F477021E030E0F90117
:1003200002C0EE0FFF1F4A95E2F7AF01F8012081EE
:100330002423CB010196211102C090E080E01F919F
:100340000F9108950F931F938B019C0183E03695C5
:100350002795179507958A95D1F7677081E090E00A
:1003600001C0880F6A95EAF7F801E853FD4F208134
:10037000452B31F48095822380831F910F9108953E
:10038000822BFACF2F923F924F925F926F927F9281
:100390008F929F92AF92BF92CF92DF92EF92FF9295
:1003A0000F931F93CF93DF93D62EC72E782E692EEF
:1003B00049015A01280161E08D2D0E94E810CD2DE0
:1003C000DC2D8E010F5F1F4FA8016D2D7C2D872D19
:1003D000962DB8DF20E030E0A901C201B7010E94EC
:1003E000C90C181664F4C201B7010E94EB0B2B0173
:1003F000C501B4010E94EB0BA201CE0123D0C801BC
:10040000DF91CF911F910F91FF90EF90DF90CF90F0
:10041000BF90AF909F908F907F906F905F904F9024
:100420003F902F900895882341F08150682F70E00D
:1004300090E080E050E040E085CF0895862FB9013C
:100440000C94AE0F9C01FC01EC51FF4FE491E15084
:10045000E231E0F4F0E08827EF5CFD4F8F4F0C9421
:10046000FA1443024A024D026402790246028E02E5
:100470009A029E02B502CA02DF02F6020B0346028E
:10048000200337034C0384B5806884BD60E0822F6D
:100490000C94241184B58062F8CF809180008C7F09
:1004A00082608093800080918100807E8061682BD3
:1004B0006093810050938700409386008091800074
:1004C000806880938000E2CF809180008C7F826082
:1004D0008093800080918100807E8061682B609392
:1004E0008100509387004093860080918000806255
:1004F000E8CF809180008C7F826080938000809123
:100500008100807E8061682B60938100509387001A
:1005100040938600809180008860D3CF8091B000A6
:1005200080688093B0008091B100887F682B6093D1
:10053000B100ACCF8091B0008062F3CF8091900089
:100540008C7F82608093900080919100807E80619A
:10055000682B609391005093970040939600809190
:10056000900080688093900091CF809190008C7F64
:1005700082608093900080919100807E8061682BE2
:100580006093910050939700409396008091900063
:100590008062E8CF809190008C7F82608093900091
:1005A00080919100807E8061682B609391005093D0
:1005B000970040939600809190008860D3CF8091FF
:1005C000A0008C7F82608093A0008091A100807E3B
:1005D0008061682B6093A1005093A7004093A60010
:1005E0008091A00080688093A00050CF8091A000EF
:1005F0008C7F82608093A0008091A100807E8061CA
:10060000682B6093A1005093A7004093A6008091AF
:10061000A0008062E8CF8091A0008C7F82608093F0
:10062000A0008091A100807E8061682B6093A10072
:100630005093A7004093A6008091A0008860D3CF7C
:10064000809120018C7F8260809320018091210124
:10065000807E8061682B6093210150932701409335
:100660002601809120018068809320010FCF809126
:1006700020018C7F82608093200180912101807E07
:100680008061682B609321015093270140932601DC
:10069000809120018062E8CF809120018C7F826070
:1006A0008093200180912101807E8061682B60937E
:1006B00021015093270140932601809120018860F9
:1006C000D3CFFC01A781B0858C9191858923A4812A
:1006D000B5819C91408151816281738126819223F1
:1006E00059F081110BC04F5F5F4F6F4F7F4F4083B9
:1006F00051836283738308958111F5CF415051096D
:1007000061097109F4CF82ED92E0DBCF8DED92E0CB
:10071000D8CF88EE92E0D5CF83EF92E0D2CFFC0124
:10072000A481B5818C9196818923A781B0859C9104
:1007300040815181628173812185922359F0882300
:1007400059F04F5F5F4F6F4F7F4F408351836283FC
:10075000738308958823A9F34150510961097109F0
:10076000F4CF82ED92E0DBCF8DED92E0D8CF88EE32
:1007700092E0D5CF83EF92E0D2CF0F931F93CF9328
:10078000DF93D82FC62F8A01A091D1028BE0A89FBA
:10079000D0011124AE52BD4F1D921D921D921C928C
:1007A000139781E01A968C931A978D2F90E0FC0195
:1007B000E65DFE4FE4911696EC931697FC01E05926
:1007C000FE4FE491F0E0EE0FFF1FEA54FE4F8591DB
:1007D000949115969C938E931497862F90E0FC012C
:1007E000E65DFE4FE4911996EC931997FC01E059F0
:1007F000FE4FE491F0E0EE0FFF1FEA54FE4F8591AB
:10080000949118969C938E93179760E08D2F0E9479
:10081000E81060E08C2F0E94E8108091D1028130B6
:1008200009F43FC0A8F0823009F462C0833009F4B3
:1008300086C08091D10291E0980F9093D102F80187
:10084000808390E080E0DF91CF911F910F91089518
:1008500080E0D23049F081E0D33031F08EEE8D0F60
:100860008430D8F487E18D1B41E050E063E873E009
:100870000E94310D80E0C23049F081E0C33031F098
:100880008EEE8C0F843058F487E18C1B41E050E0F1
:1008900061EB73E00E94310DCCCF8FEFE5CF8FEF8E
:1008A000F5CF80E0D23049F081E0D33031F08EEEE8
:1008B0008D0F8430C8F487E18D1B41E050E066E87D
:1008C00073E00E94310D80E0C23049F081E0C33016
:1008D00031F08EEE8C0F843048F487E18C1B41E0C0
:1008E00050E064EB73E0D6CF8FEFE7CF8FEFF7CF19
:1008F00080E0D23049F081E0D33031F08EEE8D0FC0
:100900008430C8F487E18D1B41E050E069E873E072
:100910000E94310D80E0C23049F081E0C33031F0F7
:100920008EEE8C0F843048F487E18C1B41E050E060
:1009300067EB73E0AFCF8FEFE7CF8FEFF7CF80E0BC
:10094000D23049F081E0D33031F08EEE8D0F84301B
:10095000C8F487E18D1B41E050E06CE873E00E9431
:10096000310D80E0C23049F081E0C33031F08EEECD
:100970008C0F843048F487E18C1B41E050E06AEB37
:1009800073E088CF8FEFE7CF8FEFF7CF9BE0899FA2
:10099000F0011124EE52FD4F80819181A281B3813B
:1009A000FB0180839183A283B38390E080E008956C
:1009B0009BE0899FF0011124EE52FD4F10821182BD
:1009C0001282138290E080E0089590E080E0089524
:1009D0002F923F924F925F926F927F928F929F924F
:1009E000AF92BF92CF92DF92EF92FF920F931F933D
:1009F000CF93DF93CDB7DEB766970FB6F894DEBF1F
:100A00000FBECDBFC0904402D0904502E090460298
:100A1000F0904702A70196016091970570919805A3
:100A20008091990590919A05CDD6882341F0C09286
:100A30009705D0929805E0929905F0929A058091D9
:100A40009605811110929605BE016F5F7F4F8091D0
:100A50009B059CDFC0904802D0904902E0904A027A
:100A6000F0904B02A701960160918B0570918C0567
:100A700080918D0590918E05A5D6882341F0C09276
:100A80008B05D0928C05E0928D05F0928E058091B9
:100A90008A05811110928A05BE016B5F7F4F80919C
:100AA0008F0574DF6091A0027091A1028091A20273
:100AB0009091A302BED620E030E040E05AE26DD72C
:100AC0004B015C01C0906C02D0906D02E0906E0210
:100AD000F0906F0269817A818B819C81AAD6A501F1
:100AE00094015BD7A701960158D76F87788B898BC4
:100AF0009A8B6D817E818F8198859BD6A50194010B
:100B00004CD79B01AC01C701B60147D76B8B7C8BDF
:100B10008D8B9E8B8090640290906502A0906602FF
:100B2000B0906702C0906802D0906902E0906A02BB
:100B3000F0906B0220915402309155024091560280
:100B400050915702C501B40128D72B013C012091D7
:100B50005C0230915D0240915E0250915F02C701DC
:100B6000B6011BD79B01AC01C301B201C7D52B0154
:100B70003C012091CC053091CD054091CE0550919E
:100B8000CF056F85788989899A89B7D59B01AC0192
:100B9000C301B201B2D56B877C878D879E87209178
:100BA00058023091590240915A0250915B02C5019E
:100BB000B401F3D64B015C012091600230916102D7
:100BC0004091620250916302C701B601E6D69B01D3
:100BD000AC01C501B40192D56B017C012091D00517
:100BE0003091D1054091D2055091D3056B897C8914
:100BF0008D899E8982D59B01AC01C701B6017DD547
:100C00002B013C012091000230910102409102022F
:100C100050910302C2D62091D4053091D505409160
:100C2000D6055091D70569D520912C0230912D021F
:100C300040912E0250912F02B0D66B017C01C092E0
:100C40008005D0928105E0928205F0928305209183
:100C50003402309135024091360250913702C3017F
:100C6000B2019BD62091D8053091D9054091DA0583
:100C70005091DB0543D5A701960140D56B017C015E
:100C8000A0903C02B0903D0200913E0210913F02C4
:100C90009B01AC01B501C80195D587FD11C0A0909D
:100CA0002402B0902502009126021091270296019D
:100CB000A701B501C8016DD6181614F056018701B9
:100CC000FF24F3949501A8016091500270915102A4
:100CD000809152029091530275D5811101C0F12C7F
:100CE0006F2D8CE0CDDA64E070E080E090E006DB10
:100CF0004C019093CB058093CA05C0907802D090A8
:100D00007902E0907A02F0907B029501A801C70178
:100D1000B60158D587FD11C0C0907C02D0907D02ED
:100D2000E0907E02F0907F029501A801C701B60114
:100D300030D6181614F065017801E894F7F820E031
:100D400030E04FE753E4C701B6013CD5181634F440
:100D5000C12CD12C3FE7E32E33E4F32EB701A601DB
:100D6000C40195DA65E070E080E090E0C7DA4C01FC
:100D70009093BB058093BA05C0908002D090810209
:100D8000E0908202F09083029501A801B601C701AC
:100D900019D587FD11C0C0908402D0908502E090E3
:100DA0008602F09087029501A801B601C701F1D52E
:100DB000181614F06501780120E030E04FE753E4A5
:100DC000B601C701FFD418160CF4D1C120E030E001
:100DD000A901B601C701DDD587FF04C0C12CD12C04
:100DE000E12CF12CA601B701C40151DA20910402D3
:100DF0003091050240910602509107026B857C8577
:100E00008D859E85CAD52091DC053091DD05409108
:100E1000DE055091DF0571D420913002309131020E
:100E20004091320250913302B8D54B015C012091C0
:100E300038023091390240913A0250913B026B8561
:100E40007C858D859E85A9D52091E0053091E105B1
:100E50004091E2055091E30551D4A50194014ED48F
:100E60007B018C013090400220904102809142022F
:100E70008987909143029A879701A801632D722D6B
:100E8000A1D487FD16C03090280220902902A0919D
:100E90002A02A987B0912B02BA879701A801632D76
:100EA000722DCD0176D5181624F03E2C2F2C0987F3
:100EB0001A8711E0232D322D49855A8560914C0205
:100EC00070914D0280914E0290914F027BD481111E
:100ED00001C010E0612F8DE0D3D967E070E080E0C1
:100EE00090E00CDA8C019093C3058093C205C0900A
:100EF0009002D0909102E0909202F0909302232D04
:100F0000322D49855A85C701B6015CD487FD15C0CD
:100F1000C0909402D0909502E0909602F0909702D3
:100F2000232D322D49855A85C701B60132D51816B1
:100F300024F0C32CD22CE984FA84E894F7F820E05A
:100F400030E04FE753E4C701B6013CD4181634F43F
:100F5000C12CD12C8FE7E82E83E4F82EB701A6012F
:100F6000C80195D966E070E080E090E0C7D96C01D7
:100F70009093B3058093B205E0909802F0909902A7
:100F800000919A0210919B02232D322D49855A859A
:100F9000B701C80117D487FD15C0E0909C02F090FE
:100FA0009D0200919E0210919F02232D322D4985B2
:100FB0005A85B701C801EDD4181624F0E32CF22CA1
:100FC00009851A8520E030E04FE753E4B701C801F6
:100FD000F9D318160CF4D2C020E030E0A901B70113
:100FE000C801D7D487FF04C0E12CF12C00E010E049
:100FF000A701B801C6014BD98F859889A989BA89FB
:101000008093CC059093CD05A093CE05B093CF05EA
:101010008B899C89AD89BE898093D0059093D10539
:10102000A093D205B093D30520918005309181051E
:101030004091820550918305609170027091710218
:101040008091720290917302A8D42091D4053091BE
:10105000D5054091D6055091D70550D36093D4055E
:101060007093D5058093D6059093D70520910802FB
:101070003091090240910A0250910B02C301B20162
:101080008CD4209174023091750240917602509177
:10109000770283D42091D8053091D9054091DA05A3
:1010A0005091DB052BD36093D8057093D9058093BD
:1010B000DA059093DB0520918802309189024091F6
:1010C0008A0250918B02C501B40167D42091DC05DE
:1010D0003091DD054091DE055091DF050FD360931F
:1010E000DC057093DD058093DE059093DF0520918C
:1010F0000C0230910D0240910E0250910F026B854F
:101100007C858D859E8549D420918C0230918D02FD
:1011100040918E0250918F0240D42091E005309191
:10112000E1054091E2055091E305E8D26093E005C6
:101130007093E1058093E2059093E30566960FB600
:10114000F894DEBF0FBECDBFDF91CF911F910F91FD
:10115000FF90EF90DF90CF90BF90AF909F908F90D7
:101160007F906F905F904F903F902F900895C12C8B
:10117000D12C9FE7E92E23E4F22E34CEE12CF12C82
:101180000FE713E435CF8F929F92AF92BF92DF9219
:10119000EF92FF920F931F93CF93DF93E0E0F2E083
:1011A00080899189A289B389C4E8D5E08093CC0570
:1011B0009093CD05A093CE05B093CF058093D00535
:1011C0009093D105A093D205B093D30584899589D6
:1011D000A689B7898093D4059093D505A093D605A9
:1011E000B093D705848D958DA68DB78D8093D80546
:1011F0009093D905A093DA05B093DB05808D918D8E
:10120000A28DB38D8093DC059093DD05A093DE0560
:10121000B093DF0580A191A1A2A1B3A18093E005C5
:101220009093E105A093E205B093E3051F8A1C8625
:101230008091440290914502A0914602B0914702EC
:101240008B8B9C8BAD8BBE8B812C912C540183940A
:101250008D869E86AF86B88A4BE955E063E082E0D2
:101260008CDADD24D394D98A1A8A8F89A1DB1B8674
:1012700018828091480290914902A0914A02B0914F
:101280004B028F839887A987BA8789829A82AB821B
:10129000BC824FE855E062E183E16FDADD821E82B5
:1012A0008B8586DB18A289A29AA2ABA2BCA261E0C0
:1012B0008CE00E943801DDA21092C4058092C50521
:1012C0009092C605A092C705B092C805E12CF12CFA
:1012D0008701A801970164E070E080E090E052D8B7
:1012E0009093CB058093CA05D092C90518AA89AA04
:1012F0009AAAABAABCAAA801970165E070E080E0B9
:1013000090E040D89FAB8EABDDAA188E898E9A8E66
:10131000AB8EBC8E61E08DE00E943801DD8E18AE90
:1013200089AE9AAEABAEBCAEA801970167E070E0A3
:1013300080E090E027D89FAF8EAFDDAE18A689A6DB
:101340009AA6ABA6BCA6A801970166E070E080E073
:1013500090E018D89FA78EA7DDA6DF91CF911F91AF
:101360000F91FF90EF90DF90BF90AF909F908F9084
:10137000089580919005811113C081E080939005BC
:101380008091910590919205A0919305B09194055B
:101390000197A105B10521F480919505811115DB17
:1013A00080918405811113C081E080938405809130
:1013B000850590918605A0918705B09188050197D4
:1013C000A105B10521F4809189058111FEDA809192
:1013D000A405811103C081E08093A4058091C40518
:1013E00081112EC081E08093C4058091C505909144
:1013F000C605A091C705B091C8050197A105B10523
:10140000F9F48091C9058823D9F064E070E080E0A8
:1014100090E00E947E019093CB058093CA0540E046
:1014200050E0BA010E94470164E070E080E090E083
:101430000E947E019093CB058093CA050E941302FF
:101440008091B40581112EC081E08093B405809114
:10145000B5059091B605A091B705B091B805019773
:10146000A105B105F9F48091B9058823D9F065E0AB
:1014700070E080E090E00E947E019093BB05809335
:10148000BA0540E050E0BA010E94470165E070E013
:1014900080E090E00E947E019093BB058093BA05A6
:1014A0000E94130280919C05811103C081E080930A
:1014B0009C058091BC0581112EC081E08093BC0504
:1014C0008091BD059091BE05A091BF05B091C0056A
:1014D0000197A105B105F9F48091C1058823D9F0E0
:1014E00067E070E080E090E00E947E019093C30589
:1014F0008093C20540E050E0BA010E94470167E0D6
:1015000070E080E090E00E947E019093C30580939C
:10151000C2050E9413028091AC0581112EC081E0AA
:101520008093AC058091AD059091AE05A091AF057B
:10153000B091B0050197A105B105F9F48091B1050D
:101540008823D9F066E070E080E090E00E947E01A0
:101550009093B3058093B20540E050E0BA010E9439
:10156000470166E070E080E090E00E947E01909389
:10157000B3058093B2050C941302089526E030E081
:1015800040E855E260E070E090E080E000C081302B
:10159000910569F01CF4892B39F00895823091058A
:1015A00049F0039751F008958CE093E044C789EA2D
:1015B00093E0FCCF86E494E0F9CF83EE94E0F6CF9D
:1015C0001F920F920FB60F9211240BB60F922F930A
:1015D0003F934F935F936F937F938F939F93AF93BB
:1015E000BF93EF93FF938FE89DEF90932501809336
:1015F000240134D0FF91EF91BF91AF919F918F91D2
:101600007F916F915F914F913F912F910F900BBE02
:101610000F900FBE0F901F9018958FE89DEF90933D
:10162000250180932401A3E7B0E08C918E7F8C93F9
:10163000E0E2F1E080818C7F8083E1E2F1E0808173
:10164000877E808380818460808380818C7F80839B
:101650008C9181608C93089581E0089580910003BE
:1016600091E0980F90930003882349F021E030E047
:10167000309302032093010380930003089578942C
:10168000A7D9F894809100038150F6CFCF93DF93D0
:101690001092E5051092E405FFD370DFC091B4020B
:1016A000D091B502198218826EDDF894B6DF2881D8
:1016B000398181E0232B09F080E08093E405789460
:1016C00078948091E405811107C053DEF89490E08E
:1016D00080E0DF91CF9108952881398181E0232B2B
:1016E00009F480E08093E5059091E50581E0911192
:1016F00080E08093E405B0DFE4CF5058BB27AA27F1
:101700000ED00DC1FED030F003D120F031F49F3F58
:1017100011F41EF4F3C00EF4E095E7FBE9C0E92FE5
:101720000FD180F3BA17620773078407950718F083
:1017300071F49EF527C10EF4E0950B2EBA2FA02D63
:101740000B01B90190010C01CA01A0011124FF276E
:10175000591B99F0593F50F4503E68F11A16F04069
:10176000A22F232F342F4427585FF3CF4695379568
:101770002795A795F0405395C9F77EF41F16BA0B2D
:10178000620B730B840BBAF09150A1F0FF0FBB1FDB
:10179000661F771F881FC2F70EC0BA0F621F731F24
:1017A000841F48F4879577956795B795F7959E3F81
:1017B00008F0B3CF9395880F08F09927EE0F97950F
:1017C0008795089571D008F481E0089504D0689455
:1017D000B111D9C00895BCD088F09F5790F0B92FAF
:1017E0009927B751A0F0D1F0660F771F881F991F76
:1017F0001AF0BA95C9F712C0B13081F0C3D0B1E088
:101800000895C0C0672F782F8827B85F39F0B93F97
:10181000CCF3869577956795B395D9F73EF4909577
:101820008095709561957F4F8F4F9F4F0895E894F5
:1018300009C097FB3EF490958095709561957F4F18
:101840008F4F9F4F9923A9F0F92F96E9BB279395C6
:10185000F695879577956795B795F111F8CFFAF4D6
:10186000BB0F11F460FF1BC06F5F7F4F8F4F9F4F07
:1018700016C0882311F096E911C0772321F09EE865
:10188000872F762F05C0662371F096E8862F70E0CB
:1018900060E02AF09A95660F771F881FDAF7880FA5
:1018A0009695879597F90895990F0008550FAA0BFB
:1018B000E0E8FEEF16161706E807F907C0F0121663
:1018C0001306E407F50798F0621B730B840B950B66
:1018D00039F40A2661F0232B242B252B21F40895BB
:1018E0000A2609F4A140A6958FEF811D811D089558
:1018F00097F99F6780E870E060E008959FEF80ECC3
:10190000089500240A941616170618060906089565
:1019100000240A9412161306140605060895092ECB
:101920000394000C11F4882352F0BB0F40F4BF2B3A
:1019300011F460FF04C06F5F7F4F8F4F9F4F08957A
:1019400057FD9058440F551F59F05F3F71F0479570
:10195000880F97FB991F61F09F3F79F08795089555
:10196000121613061406551FF2CF4695F1DF08C074
:10197000161617061806991FF1CF86957105610591
:1019800008940895E894BB2766277727CB0197F939
:1019900008958ADF08F48FEF08950BD0C0CFB1DF30
:1019A00028F0B6DF18F0952309F0A2CFA7CF1124B5
:1019B000EACFC6DFA0F3959FD1F3950F50E0551FF6
:1019C000629FF001729FBB27F00DB11D639FAA2794
:1019D000F00DB11DAA1F649F6627B00DA11D661FE3
:1019E000829F2227B00DA11D621F739FB00DA11D04
:1019F000621F839FA00D611D221F749F3327A00DBE
:101A0000611D231F849F600D211D822F762F6A2F59
:101A100011249F5750408AF0E1F088234AF0EE0FDE
:101A2000FF1FBB1F661F771F881F91505040A9F7EB
:101A30009E3F510570F05CCFA6CF5F3FECF3983E20
:101A4000DCF3869577956795B795F795E7959F5F52
:101A5000C1F7FE2B880F911D9695879597F90895EC
:101A60000895883008F075C0E82FF0E0EE0FFF1FF2
:101A7000EC55FD4F718360838150873008F03CC086
:101A8000E82FF0E08827E95BF24F8F4FB3C7840D52
:101A90004E0D560D620D6F0D900D9D0D80916900DC
:101AA0008C7F482B40936900E89A089580916900E3
:101AB000837F440F551F440F551F482B40936900E7
:101AC000E99A0895809169008F7C74E0440F551F56
:101AD0007A95E1F7482B40936900EA9A089580913E
:101AE00069008F7366E0440F551F6A95E1F7482B34
:101AF00040936900EB9A089580916A008C7F482B8F
:101B000040936A00EC9A089580916A00837F440FA5
:101B1000551F440F551F482B40936A00ED9A0895B6
:101B200080916A008F7C24E0440F551F2A95E1F7CD
:101B3000482B40936A00EE9A089580916A008F7353
:101B400096E0440F551F9A95E1F7482B40936A00A1
:101B5000EF9A08951F920F920FB60F9211240BB6B1
:101B60000F922F933F934F935F936F937F938F9336
:101B70009F93AF93BF93EF93FF93E091A802F091EF
:101B8000A9021995FF91EF91BF91AF919F918F910C
:101B90007F916F915F914F913F912F910F900BBE6D
:101BA0000F900FBE0F901F9018951F920F920FB6B7
:101BB0000F9211240BB60F922F933F934F935F9385
:101BC0006F937F938F939F93AF93BF93EF93FF9305
:101BD000E091AA02F091AB021995FF91EF91BF91AC
:101BE000AF919F918F917F916F915F914F913F91B5
:101BF0002F910F900BBE0F900FBE0F901F90189556
:101C00001F920F920FB60F9211240BB60F922F93C3
:101C10003F934F935F936F937F938F939F93AF9374
:101C2000BF93EF93FF93E091AC02F091AD02199551
:101C3000FF91EF91BF91AF919F918F917F916F91A4
:101C40005F914F913F912F910F900BBE0F900FBE60
:101C50000F901F9018951F920F920FB60F9211249C
:101C60000BB60F922F933F934F935F936F937F9396
:101C70008F939F93AF93BF93EF93FF93E091AE0247
:101C8000F091AF021995FF91EF91BF91AF919F91A4
:101C90008F917F916F915F914F913F912F910F9015
:101CA0000BBE0F900FBE0F901F9018951F920F92B2
:101CB0000FB60F9211240BB60F922F933F934F93B1
:101CC0005F936F937F938F939F93AF93BF93EF93A4
:101CD000FF93E091A402F091A5021995FF91EF9175
:101CE000BF91AF919F918F917F916F915F914F9134
:101CF0003F912F910F900BBE0F900FBE0F901F9032
:101D000018951F920F920FB60F9211240BB60F92D7
:101D10002F933F934F935F936F937F938F939F93F3
:101D2000AF93BF93EF93FF93E091A602F091A702C8
:101D30001995FF91EF91BF91AF919F918F917F91F5
:101D40006F915F914F913F912F910F900BBE0F902C
:101D50000FBE0F901F9018951F920F920FB60F9203
:101D600011240BB60F922F933F934F935F936F9372
:101D70007F938F939F93AF93BF93EF93FF93E091E4
:101D8000B002F091B1021995FF91EF91BF91AF911F
:101D90009F918F917F916F915F914F913F912F9183
:101DA0000F900BBE0F900FBE0F901F9018951F92B3
:101DB0000F920FB60F9211240BB60F922F933F93F1
:101DC0004F935F936F937F938F939F93AF93BF9343
:101DD000EF93FF93E091B202F091B3021995FF9156
:101DE000EF91BF91AF919F918F917F916F915F9193
:101DF0004F913F912F910F900BBE0F900FBE0F9000
:101E00001F9018951F920F920FB60F9211242F93C7
:101E10003F938F939F93AF93BF93809104039091CF
:101E20000503A0910603B09107033091030323E05B
:101E3000230F2D3758F50196A11DB11D20930303E3
:101E40008093040390930503A0930603B0930703C4
:101E50008091080390910903A0910A03B0910B03AC
:101E60000196A11DB11D8093080390930903A093CF
:101E70000A03B0930B03BF91AF919F918F913F9154
:101E80002F910F900FBE0F901F90189526E8230FEB
:101E90000296A11DB11DD2CF789484B5826084BD15
:101EA00084B5816084BD85B5826085BD85B581605E
:101EB00085BDEEE6F0E0808181608083E1E8F0E0BE
:101EC0001082808182608083808181608083E0E8ED
:101ED000F0E0808181608083E1EBF0E080818460CC
:101EE0008083E0EBF0E0808181608083E1E9F0E0D5
:101EF000808182608083808181608083E0E9F0E07E
:101F0000808181608083E1EAF0E08081826080836B
:101F1000808181608083E0EAF0E08081816080835D
:101F2000E1E2F1E080818260808380818160808352
:101F3000E0E2F1E0808181608083EAE7F0E0808187
:101F400084608083808182608083808181608083DF
:101F50008081806880831092C10008951F93CF9381
:101F6000DF93182FEB0161E033D1209731F460E06B
:101F7000812FDF91CF911F9167C1CF3FD10511F420
:101F800061E0F6CFE12FF0E0EC51FF4FE491E1503A
:101F9000E23108F0B2C0F0E08827EF52F04F8F4FE7
:101FA00029C5E30FEB0FF00FFA0F04107D100E1090
:101FB00016101E10281032103C104B1055107D10BA
:101FC0005F106910731084B5806884BDC7BDDF9150
:101FD000CF911F91089584B5806284BDC8BDF7CFAD
:101FE00080918000806880938000D0938900C093A6
:101FF0008800EDCF80918000806280938000D09334
:102000008B00C0938A00E3CF80918000886080932A
:102010008000D0938D00C0938C00D9CF8091B00008
:1020200080688093B000C093B300D1CF8091B0009E
:1020300080628093B000C093B400C9CF80919000BB
:10204000806880939000D0939900C0939800BFCF90
:1020500080919000806280939000D0939B00C09309
:102060009A00B5CF80919000886080939000D093C3
:102070009D00C0939C00ABCF8091A00080688093AE
:10208000A0008091A0008F7B8093A000D093A90036
:10209000C093A8009CCF8091A00080628093A00094
:1020A000D093AB00C093AA0092CF8091A00088602B
:1020B0008093A000D093AD00C093AC0088CF8091F6
:1020C0002001806880932001D0932901C0932801CA
:1020D0007ECF80912001806280932001D0932B01DC
:1020E000C0932A0174CF80912001886080932001E1
:1020F000D0932D01C0932C016ACFC038D1050CF0CC
:102100003FCF35CF8150823108F059C0E82FF0E041
:102110008827E357FF4E8F4F6DC4AD10B1109F104D
:10212000A510A910DF10B410BA10BE10C410C8104A
:10213000CC10D210D610DF10DA10E010E41080912D
:1021400080008F77809380000895809180008F7D3C
:10215000F9CF80918000877FF5CF84B58F7784BDDC
:10216000089584B58F7DFBCF8091B0008F778093E9
:10217000B00008958091B0008F7DF9CF80919000DC
:102180008F77809390000895809190008F7DF9CF94
:1021900080919000877FF5CF8091A0008F7780930A
:1021A000A00008958091A0008F7DF9CF8091A000BC
:1021B000877FF5CF809120018F778093200108954C
:1021C000809120018F7DF9CF80912001877FF5CF0D
:1021D000CF93DF9390E0FC01E65DFE4F24918059A0
:1021E0009E4FFC0184918823C9F090E0880F991FCD
:1021F000FC01E651FE4FA591B491FC01E053FE4F66
:10220000C591D49161110DC09FB7F8948C91209520
:1022100082238C938881282328839FBFDF91CF91CD
:102220000895623051F49FB7F8943C91822F8095C5
:1022300083238C93E8812E2BEFCF8FB7F894EC910A
:102240002E2B2C938FBFEACF1F93CF93DF93282F92
:1022500030E0F901EC51FF4F8491F901E65DFE4F4A
:10226000D491F901E059FE4FC491CC23A1F0162F6F
:10227000811148DFEC2FF0E0EE0FFF1FE053FE4F1F
:10228000A591B4918FB7F894EC91111108C0D09535
:10229000DE23DC938FBFDF91CF911F910895DE2B5A
:1022A000F8CFFC01918D228D892F90E0805C9F4FAB
:1022B000821B91098F7399270895FC01918D828D5E
:1022C000981731F0828DE80FF11D858D90E008950B
:1022D0008FEF9FEF0895FC01918D828D981761F02B
:1022E000A28DAE0FBF2FB11D5D968C91928D9F5F19
:1022F0009F73928F90E008958FEF9FEF0895FC01F8
:10230000538D448D252F30E0842F90E0821B930B5A
:10231000541710F0CF96089501970895FC01A48DED
:10232000A80FB92FB11DA35ABF4F2C91848D90E0F7
:1023300001968F739927848FA689B7892C93A089DA
:10234000B1898C91837080648C93938D848D981364
:1023500006C00288F389E02D80818F7D80830895F7
:10236000CF93DF93EC01888D8823B1F0AA89BB89D4
:10237000E889F9898C9185FD03C0808186FD0CC0B8
:102380000FB607FCF7CF8C9185FFF2CF808185FFD8
:10239000EDCFCE01C3DFEACFDF91CF910895EF9269
:1023A000FF920F931F93CF93DF93EC0181E0888F0F
:1023B0009B8D8C8D98131AC0E889F989808185FFDF
:1023C00015C09FB7F894EE89FF896083E889F98981
:1023D00080818370806480839FBF81E090E0DF9183
:1023E000CF911F910F91FF90EF900895F62E0B8DD6
:1023F00010E00F5F1F4F0F731127E02E8C8D8E1191
:102400000BC00FB607FCFACFE889F989808185FFF8
:10241000F5CFCE0183DFF2CFEB8DEC0FFD2FF11D59
:10242000E35AFF4FF0829FB7F8940B8FEA89FB893C
:1024300080818062D0CFCF92DF92EF92FF921F9384
:10244000CF93DF93EC016A017B01122FE889F989B0
:1024500082E08083C11481EED806E104F10499F092
:1024600060E079E08DE390E0A7019601A1D22150D0
:1024700031094109510956954795379527952115F9
:1024800080E1380790F0E889F989108260E874E803
:102490008EE190E0A70196018BD2215031094109CC
:1024A00051095695479537952795EC85FD853083DD
:1024B000EE85FF852083188EEC89FD891083EA89DB
:1024C000FB89808180618083EA89FB8980818860C3
:1024D0008083EA89FB89808180688083EA89FB891F
:1024E00080818F7D8083DF91CF911F91FF90EF904E
:1024F000DF90CF9008951F920F920FB60F92112484
:102500000BB60F922F938F939F93EF93FF93E091CE
:102510001C03F0911D038081E0912203F0912303BD
:1025200082FD1DC09081809125038F5F8F73209164
:102530002603821741F0E0912503F0E0E45FFC4FB1
:10254000958F80932503FF91EF919F918F912F910C
:102550000F900BBE0F900FBE0F901F9018958081AB
:10256000F2CF1F920F920FB60F9211240BB60F925B
:102570002F933F934F935F936F937F938F939F938B
:10258000AF93BF93EF93FF938CE093E0C7DEFF918F
:10259000EF91BF91AF919F918F917F916F915F91DB
:1025A0004F913F912F910F900BBE0F900FBE0F9048
:1025B0001F901895ECE0F3E01382128288EE93E00E
:1025C000A0E0B0E084839583A683B7838AEB92E092
:1025D0009183808385EC90E09587848784EC90E0FC
:1025E0009787868780EC90E0918B808B81EC90E0E0
:1025F000938B828B82EC90E0958B848B86EC90E0C1
:10260000978B868B118E128E138E148E08951F92C7
:102610000F920FB60F9211240BB60F922F938F9338
:102620009F93EF93FF93E091B903F091BA038081F8
:10263000E091BF03F091C00382FD1DC090818091A5
:10264000C2038F5F8F732091C303821741F0E09123
:10265000C203F0E0E755FC4F958F8093C203FF91D2
:10266000EF919F918F912F910F900BBE0F900FBE06
:102670000F901F9018958081F2CF1F920F920FB686
:102680000F9211240BB60F922F933F934F935F93AA
:102690006F937F938F939F93AF93BF93EF93FF932A
:1026A00089EA93E03BDEFF91EF91BF91AF919F915B
:1026B0008F917F916F915F914F913F912F910F90EB
:1026C0000BBE0F900FBE0F901F901895E9EAF3E034
:1026D0001382128288EE93E0A0E0B0E084839583B9
:1026E000A683B7838AEB92E0918380838DEC90E0A0
:1026F000958784878CEC90E09787868788EC90E0BC
:10270000918B808B89EC90E0938B828B8AEC90E0AC
:10271000958B848B8EEC90E0978B868B118E128E2E
:10272000138E148E08951F920F920FB60F921124DC
:102730000BB60F922F938F939F93EF93FF93E0919C
:102740005604F09157048081E0915C04F0915D049F
:1027500082FD1DC0908180915F048F5F8F732091F7
:102760006004821741F0E0915F04F0E0EA5BFB4F08
:10277000958F80935F04FF91EF919F918F912F919F
:102780000F900BBE0F900FBE0F901F901895808179
:10279000F2CF1F920F920FB60F9211240BB60F9229
:1027A0002F933F934F935F936F937F938F939F9359
:1027B000AF93BF93EF93FF9386E494E0AFDDFF9177
:1027C000EF91BF91AF919F918F917F916F915F91A9
:1027D0004F913F912F910F900BBE0F900FBE0F9016
:1027E0001F901895E6E4F4E01382128288EE93E0DD
:1027F000A0E0B0E084839583A683B7838AEB92E060
:102800009183808385ED90E09587848784ED90E0C7
:102810009787868780ED90E0918B808B81ED90E0AB
:10282000938B828B82ED90E0958B848B86ED90E08C
:10283000978B868B118E128E138E148E08951F9295
:102840000F920FB60F9211240BB60F922F938F9306
:102850009F93EF93FF93E091F304F091F404808150
:10286000E091F904F091FA0482FD1DC090818091FD
:10287000FC048F5F8F732091FD04821741F0E0917B
:10288000FC04F0E0ED51FB4F958F8093FC04FF9129
:10289000EF919F918F912F910F900BBE0F900FBED4
:1028A0000F901F9018958081F2CF1F920F920FB654
:1028B0000F9211240BB60F922F933F934F935F9378
:1028C0006F937F938F939F93AF93BF93EF93FF93F8
:1028D00083EE94E023DDFF91EF91BF91AF919F9143
:1028E0008F917F916F915F914F913F912F910F90B9
:1028F0000BBE0F900FBE0F901F901895E3EEF4E003
:102900001382128288EE93E0A0E0B0E08483958386
:10291000A683B7838AEB92E09183808385E391E07D
:102920009587848784E391E09787868780E391E0A9
:10293000918B808B81E391E0938B828B82E391E09A
:10294000958B848B86E391E0978B868B118E128E0C
:10295000138E148E0895AF92BF92CF92DF92EF92B2
:10296000FF920F931F93CF93DF936C017B018B0139
:10297000040F151FEB015E01AE18BF08C017D10789
:1029800059F06991D601ED91FC910190F081E02D13
:10299000C6011995892B79F7C501DF91CF911F9158
:1029A0000F91FF90EF90DF90CF90BF90AF90089580
:1029B000A1E21A2EAA1BBB1BFD010DC0AA1FBB1F43
:1029C000EE1FFF1FA217B307E407F50720F0A21BB5
:1029D000B30BE40BF50B661F771F881F991F1A9422
:1029E00069F760957095809590959B01AC01BD014C
:1029F000CF010895EE0FFF1F881F8BBF0790F69140
:082A0000E02D1994F894FFCFBA
:102A0800DE2C0F4361741D43660BB64442C2B644C4
:102A180000000000000000000000000000000000AE
:102A2800000000000000000000000000EA3C8540B3
:102A3800FCC57140433DA144E956A84400007F43CA
:102A480000007F43000080BF000080BF000000003E
:102A5800000000000000803F0000803F1D5AE4BDD8
:102A68001D5AE43D9A99993E7CD9203F0000C842FE
:102A78000AD7233C0AD7233C0000803F00007FC3CD
:102A880000007F430000803F0AD7233C0AD7233C3D
:102A98000000000000007FC300007F430000803F6B
:102AA800A0989E49300D300D300D300D300D300D91
:102AB800300D300DFE0200000000CF11AB147F1165
:082AC800B01151116B115D11F9
:00000001FF
