:1000000005C100000C940C0D0C94370D0C94620D7E
:100010000C948D0D0C94B80D0C94E30D0C940E0EF5
:100020000C94390E24C1000022C1000020C1000040
:100030001EC100001CC100001AC1000018C1000050
:1000400016C1000014C1000012C1000010C1000060
:100050000EC100000CC100000AC100000C94640E27
:1000600006C100000C94DD110C94131200C10000B5
:10007000FEC00000FCC00000FAC00000F8C0000094
:10008000F6C00000F4C00000F2C00000F0C00000A4
:100090000C9469120C949F12EAC00000E8C00000A2
:1000A000E6C00000E4C00000E2C00000E0C00000C4
:1000B000DEC00000DCC00000DAC00000D8C00000D4
:1000C000D6C00000D4C000000C94420A0C94F51273
:1000D0000C942B13CCC000000C9481130C94B71318
:1000E000C6C0000000000A0B02090C0D0E08070331
:1000F00004010000000000000000000000000000FB
:1001000000000000000000000000000000000000EF
:1001100012111000000000000000000000000000AC
:100120000000000000000000000001021020200874
:100130000810204010204080020102010804020142
:1001400001020408102040808040201008040201B1
:10015000800402018040201008040201080402010A
:100160000102040810204080010204081020408091
:1001700005050505070508080808020202020A0A23
:100180000808040404040101010101010101030341
:10019000030303030303040707070C0C0C0C0C0CEC
:1001A0000C0C0202020206060606060606060B0BE9
:1001B0000B0B0B0B0B0B000020002300260029006B
:1001C0002C002F003200000100000301060109018C
:1001D00000002200250028002B002E0031003400F2
:1001E00002010000050108010B01000021002400AC
:1001F00027002A002D003000330001010000040117
:1002000007010A013C12C8125413E01311241FBE47
:10021000CFEFD1E2DEBFCDBF00E00CBF12E0A0E027
:10022000B2E0ECECF8E200E00BBF02C007900D92E8
:10023000A03BB107D9F725E0A0EBB2E001C01D92C9
:10024000A43CB207E1F711E0C6E0D1E000E006C04F
:1002500021970109802FFE010E945C14C230D10752
:1002600080E00807A9F70E94A80A0C946414C8CE7D
:10027000CF92DF92EF92FF92CF93882351F16A01E0
:100280007B01CFEFC80F20E030E0A901CB01B60120
:100290000E94440B18168CF0C701B60190580E94BA
:1002A0004D0B9B01AC016C2F70E090E080E0CF9192
:1002B000FF90EF90DF90CF90B2C0C701B6010E94CF
:1002C000480B8C2FCF91FF90EF90DF90CF900C9444
:1002D000100FCF91FF90EF90DF90CF9008950F9384
:1002E0001F938B019C0183E0369527951795079501
:1002F0008A95D1F700551D4F462F477021E030E019
:10030000F90102C0EE0FFF1F4A95E2F7AF01F801B5
:1003100020812423CB010196211102C090E080E0CE
:100320001F910F9108950F931F938B019C0183E000
:1003300036952795179507958A95D1F7677081E0CF
:1003400090E001C0880F6A95EAF7F801E055FD4F8B
:100350002081452B31F48095822380831F910F915A
:100360000895822BFACF2F923F924F925F926F9215
:100370007F928F929F92AF92BF92CF92DF92EF9235
:10038000FF920F931F93CF93DF93D62EC72E782E15
:10039000692E49015A01280161E08D2D0E944A1001
:1003A000CD2DDC2D8E010F5F1F4FA8016D2D7C2DF3
:1003B000872D962DB8DF20E030E0A901C201B701FA
:1003C0000E942B0C181664F4C201B7010E944D0B59
:1003D0002B01C501B4010E944D0BA201CE0123D017
:1003E000C801DF91CF911F910F91FF90EF90DF90A7
:1003F000CF90BF90AF909F908F907F906F905F90C5
:100400004F903F902F900895882341F08150682F9E
:1004100070E090E080E050E040E085CF0895862FC6
:10042000B9010C94100F9C01FC01EC51FF4FE491B9
:10043000E150E231E0F4F0E08827EE5DFD4F8F4FB0
:100440000C945C1434023B023E0255026A023702ED
:100450007F028B028F02A602BB02D002E702FC02DF
:100460003702110328033D0384B5806884BD60E032
:10047000822F0C94861084B58062F8CF8091800022
:100480008C7F82608093800080918100807E80617B
:10049000682B609381005093870040938600809181
:1004A0008000806880938000E2CF809180008C7F04
:1004B00082608093800080918100807E8061682BC3
:1004C0006093810050938700409386008091800064
:1004D0008062E8CF809180008C7F82608093800072
:1004E00080918100807E8061682B609381005093B1
:1004F000870040938600809180008860D3CF8091F0
:10050000B00080688093B0008091B100887F682B34
:100510006093B100ACCF8091B0008062F3CF809146
:1005200090008C7F82608093900080919100807E0B
:100530008061682B609391005093970040939600E0
:100540008091900080688093900091CF809190007E
:100550008C7F82608093900080919100807E80618A
:10056000682B609391005093970040939600809180
:1005700090008062E8CF809190008C7F82608093B1
:10058000900080919100807E8061682B6093910043
:100590005093970040939600809190008860D3CF4D
:1005A0008091A0008C7F82608093A0008091A10048
:1005B000807E8061682B6093A1005093A7004093D8
:1005C000A6008091A00080688093A00050CF809109
:1005D000A0008C7F82608093A0008091A100807E2B
:1005E0008061682B6093A1005093A7004093A60000
:1005F0008091A0008062E8CF8091A0008C7F826013
:100600008093A0008091A100807E8061682B609320
:10061000A1005093A7004093A6008091A00088609D
:10062000D3CF809120018C7F8260809320018091C4
:100630002101807E8061682B609321015093270106
:1006400040932601809120018068809320010FCF84
:10065000809120018C7F8260809320018091210114
:10066000807E8061682B6093210150932701409325
:100670002601809120018062E8CF809120018C7F4B
:1006800082608093200180912101807E8061682BAF
:10069000609321015093270140932601809120010E
:1006A0008860D3CFFC01A781B0858C919185892387
:1006B000A481B5819C9140815181628173812681A1
:1006C000922359F081110BC04F5F5F4F6F4F7F4FE7
:1006D000408351836283738308958111F5CF415024
:1006E000510961097109F4CF8AEB92E0DBCF85EC07
:1006F00092E0D8CF80ED92E0D5CF8BED92E0D2CFD3
:10070000FC01A481B5818C9196818923A781B08554
:100710009C9140815181628173812185922359F09E
:10072000882359F04F5F5F4F6F4F7F4F4083518356
:100730006283738308958823A9F3415051096109A5
:100740007109F4CF8AEB92E0DBCF85EC92E0D8CF51
:1007500080ED92E0D5CF8BED92E0D2CF0F931F9337
:10076000CF93DF93D82FC62F8A01A091B9028BE0D7
:10077000A89FD0011124A654BD4F1D921D921D9219
:100780001C92139781E01A968C931A978D2F90E004
:10079000FC01E65DFE4FE4911696EC931697FC0182
:1007A000E059FE4FE491F0E0EE0FFF1FEA54FE4FD8
:1007B0008591949115969C938E931497862F90E033
:1007C000FC01E65DFE4FE4911996EC931997FC014C
:1007D000E059FE4FE491F0E0EE0FFF1FEA54FE4FA8
:1007E0008591949118969C938E93179760E08D2F26
:1007F0000E944A1060E08C2F0E944A108091B9023A
:10080000813009F43FC0A8F0823009F462C083301F
:1008100009F486C08091B90291E0980F9093B902D3
:10082000F801808390E080E0DF91CF911F910F91DC
:10083000089580E0D23049F081E0D33031F08EEE7F
:100840008D0F8430D8F487E18D1B41E050E064E7E0
:1008500073E00E94930C80E0C23049F081E0C33025
:1008600031F08EEE8C0F843058F487E18C1B41E020
:1008700050E062EA73E00E94930CCCCF8FEFE5CF9B
:100880008FEFF5CF80E0D23049F081E0D33031F006
:100890008EEE8D0F8430C8F487E18D1B41E050E06F
:1008A00067E773E00E94930C80E0C23049F081E07A
:1008B000C33031F08EEE8C0F843048F487E18C1B0E
:1008C00041E050E065EA73E0D6CF8FEFE7CF8FEFDE
:1008D000F7CF80E0D23049F081E0D33031F08EEEB6
:1008E0008D0F8430C8F487E18D1B41E050E06AE74A
:1008F00073E00E94930C80E0C23049F081E0C33085
:1009000031F08EEE8C0F843048F487E18C1B41E08F
:1009100050E068EA73E0AFCF8FEFE7CF8FEFF7CF0C
:1009200080E0D23049F081E0D33031F08EEE8D0F8F
:100930008430C0F487E18D1B41E050E06DE773E047
:10094000F2D780E0C23049F081E0C33031F08EEE62
:100950008C0F843048F487E18C1B41E050E06BEA57
:1009600073E089CF8FEFE8CF8FEFF7CF9BE0899FC0
:10097000F0011124E654FD4F80819181A281B38161
:10098000FB0180839183A283B38390E080E008958C
:100990009BE0899FF0011124E654FD4F10821182E3
:1009A0001282138290E080E0089590E080E0089544
:1009B0002F923F924F925F926F927F928F929F926F
:1009C000AF92BF92CF92DF92EF92FF920F931F935D
:1009D000CF93DF93CDB7DEB766970FB6F894DEBF3F
:1009E0000FBECDBFC0903402D0903502E0903602E9
:1009F000F0903702A701960160917B0570917C050C
:100A000080917D0590917E053FD6882341F0C0926C
:100A10007B05D0927C05E0927D05F0927E05809169
:100A20007A05811110927A05BE016F5F7F4F809128
:100A30007F059CDFC0903802D0903902E0903A02E6
:100A4000F0903B02A701960160916F0570917005CF
:100A5000809171059091720517D6882341F0C0925C
:100A60006F05D0927005E0927105F0927205809149
:100A70006E05811110926E05BE016B5F7F4F8091F4
:100A8000730574DF609188027091890280918A02F7
:100A900090918B0230D620E030E040E05AE2DFD681
:100AA0004B015C01C0905402D0905502E090560278
:100AB000F090570269817A818B819C811CD6A501B7
:100AC0009401CDD6A7019601CAD66F87788B898B02
:100AD0009A8B6D817E818F8198850DD6A5019401B9
:100AE000BED69B01AC01C701B601B9D66B8B7C8B1E
:100AF0008D8B9E8B80904C0290904D02A0904E0268
:100B0000B0904F02C0905002D0905102E09052023B
:100B1000F090530220913C0230913D0240913E0200
:100B200050913F02C501B4019AD62B013C0120919E
:100B30004402309145024091460250914702C7015C
:100B4000B6018DD69B01AC01C301B20139D52B0191
:100B50003C012091A0053091A1054091A205509142
:100B6000A3056F85788989899A8929D59B01AC016C
:100B7000C301B20124D56B877C878D879E87209126
:100B80004002309141024091420250914302C5011E
:100B9000B40165D64B015C012091480230914902B5
:100BA00040914A0250914B02C701B60158D69B01B1
:100BB000AC01C501B40104D56B017C012091A405F1
:100BC0003091A5054091A6055091A7056B897C89B8
:100BD0008D899E89F4D49B01AC01C701B601EFD485
:100BE0002B013C0120910002309101024091020250
:100BF0005091030234D62091A8053091A905409167
:100C0000AA055091AB05DBD4209124023091250236
:100C1000409126025091270222D66B017C01C0929E
:100C2000BE05D092BF05E092C005F092C1052091AB
:100C30002C0230912D0240912E0250912F02C301BF
:100C4000B2010DD62091AC053091AD054091AE05B5
:100C50005091AF05B5D4A7019601B2D45B018C01C8
:100C600065E070E080E090E03ADB4C0190939F05F6
:100C700080939E05C0906002D0906102E090620275
:100C8000F09063029501A801C701B601FDD487FD6C
:100C900011C0C0906402D0906502E0906602F090AE
:100CA00067029501A801C701B601D5D5181614F041
:100CB00065017801E894F7F820E030E04FE753E46D
:100CC000C701B601E1D4181634F4C12CD12C3FE78A
:100CD000E32E33E4F32EB701A601C401C9DA64E0C0
:100CE00070E080E090E0FBDA4C0190938F058093F8
:100CF0008E05C0906802D0906902E0906A02F09080
:100D00006B029501A801B601C701BED487FD11C0D1
:100D1000C0906C02D0906D02E0906E02F0906F0275
:100D20009501A801B601C70196D5181614F0650102
:100D3000780120E030E04FE753E4B601C701A4D4C6
:100D400018160CF498C120E030E0A901B601C701E3
:100D500082D587FF04C0C12CD12CE12CF12CA60137
:100D6000B701C40185DA2091040230910502409157
:100D70000602509107026B857C858D859E856FD517
:100D80002091B0053091B1054091B2055091B30565
:100D900016D4209128023091290240912A025091C4
:100DA0002B025DD54B015C01209130023091310264
:100DB00040913202509133026B857C858D859E85F2
:100DC0004ED52091B4053091B5054091B6055091AE
:100DD000B705F6D3A5019401F3D3362E272E8987C4
:100DE0009A8766E070E080E090E079DA8C01909379
:100DF000970580939605C0907802D0907902E09094
:100E00007A02F0907B02232D322D49855A85C70145
:100E1000B6013AD487FD15C0C0907C02D0907D0207
:100E2000E0907E02F0907F02232D322D49855A8575
:100E3000C701B60110D5181624F0C32CD22CE984B2
:100E4000FA84E894F7F820E030E04FE753E4C70174
:100E5000B6011AD4181634F4C12CD12C8FE7E82E21
:100E600083E4F82EB701A601C80102DA67E070E05A
:100E700080E090E034DA6C019093870580938605DA
:100E8000E0908002F0908102009182021091830232
:100E9000232D322D49855A85B701C801F5D387FD29
:100EA00015C0E0908402F0908502009186021091B6
:100EB0008702232D322D49855A85B701C801CBD42D
:100EC000181624F0E32CF22C09851A8520E030E076
:100ED0004FE753E4B701C801D7D318160CF4D2C0BA
:100EE00020E030E0A901B701C801B5D487FF04C0F4
:100EF000E12CF12C00E010E0A701B801C601B8D93F
:100F00008F859889A989BA898093A0059093A105B6
:100F1000A093A205B093A3058B899C89AD89BE8956
:100F20008093A4059093A505A093A605B093A7056B
:100F30002091BE053091BF054091C0055091C1057B
:100F4000609158027091590280915A0290915B020F
:100F500086D42091A8053091A9054091AA05509109
:100F6000AB052ED36093A8057093A9058093AA05BD
:100F70009093AB05209108023091090240910A023A
:100F800050910B02C301B2016AD420915C023091EE
:100F90005D0240915E0250915F0261D42091AC05E8
:100FA0003091AD054091AE055091AF0509D36093E6
:100FB000AC057093AD058093AE059093AF0520917D
:100FC0007002309171024091720250917302C5011A
:100FD000B40145D42091B0053091B1054091B205DE
:100FE0005091B305EDD26093B0057093B105809335
:100FF000B2059093B30520910C0230910D024091FF
:101000000E0250910F026B857C858D859E8527D4BD
:1010100020917402309175024091760250917702CE
:101020001ED42091B4053091B5054091B60550917C
:10103000B705C6D26093B4057093B5058093B60525
:101040009093B70566960FB6F894DEBF0FBECDBF7E
:10105000DF91CF911F910F91FF90EF90DF90CF9094
:10106000BF90AF909F908F907F906F905F904F90C8
:101070003F902F900895C12CD12C9FE7E92E23E4B7
:10108000F22E6DCEE12CF12C0FE713E435CF4F9209
:101090005F926F927F92AF92BF92DF92EF92FF9238
:1010A0000F931F93CF93DF931092E7021092E60203
:1010B000C8E6D5E086E5FE0111928A95E9F7DD24C0
:1010C000D394D092B90580E0A82E82E0B82EF50125
:1010D00084A995A9A6A9B7A98B8B9C8BAD8BBE8B38
:1010E000412C512C320143944D865E866F86788A5E
:1010F0004FE755E063E082E031DBD98A1A8A1B862C
:101100001882D092B805F50180AD91ADA2ADB3AD16
:101110008F839887A987BA8749825A826B827C829B
:1011200043E755E063E182E119DBDD821E8218AA04
:10113000D092BD0549AA5AAA6BAA7CAAE12CF12C2F
:101140008701A801970165E070E080E090E00BD98D
:101150009FAB8EABDDAA18A2D092BB0549A25AA2C2
:101160006BA27CA2A801970164E070E080E090E0AF
:10117000FAD89FA38EA3DDA218A6D092BC0549A6DB
:101180005AA66BA67CA6A801970166E070E080E0F5
:1011900090E0E9D89FA78EA7DDA6188ED092BA0559
:1011A000498E5A8E6B8E7C8EA801970167E070E0A5
:1011B00080E090E0D8D89F8F8E8FDD8EF5018089FA
:1011C0009189A289B38988AF99AFAAAFBBAF8CAF21
:1011D0009DAFAEAFBFAF84899589A689B78980934B
:1011E000A8059093A905A093AA05B093AB05848D9B
:1011F000958DA68DB78D8093AC059093AD05A0938A
:10120000AE05B093AF05808D918DA28DB38D809387
:10121000B0059093B105A093B205B093B30580A13A
:1012200091A1A2A1B3A18093B4059093B505A09319
:10123000B605B093B7058F89ABDB8B85DF91CF9176
:101240001F910F91FF90EF90DF90BF90AF907F9034
:101250006F905F904F909CCB80917405811113C06B
:1012600081E0809374058091750590917605A09139
:101270007705B09178050197A105B10521F480911A
:101280007905811192DB80916805811113C081E09D
:10129000809368058091690590916A05A0916B051E
:1012A000B0916C050197A105B10521F480916D0500
:1012B00081117BDB8091980581112DC081E08093A5
:1012C00098058091990590919A05A0919B05B09100
:1012D0009C050197A105B105F1F480919D05882336
:1012E000D1F065E070E080E090E00E946F019093A3
:1012F0009F0580939E0540E050E0BA010E943801AE
:1013000065E070E080E090E00E946F0190939F059F
:1013100080939E0579D88091880581112DC081E048
:10132000809388058091890590918A05A0918B050D
:10133000B0918C050197A105B105F1F480918D055F
:101340008823D1F064E070E080E090E00E946F01BB
:1013500090938F0580938E0540E050E0BA010E9483
:10136000380164E070E080E090E00E946F019093AB
:101370008F0580938E0548D88091900581112DC0EE
:1013800081E0809390058091910590919205A091C4
:101390009305B09194050197A105B105F1F48091F1
:1013A00095058823D1F066E070E080E090E00E942F
:1013B0006F01909397058093960540E050E0BA0145
:1013C0000E94380166E070E080E090E00E946F01CA
:1013D000909397058093960517D880918005811189
:1013E0002EC081E0809380058091810590918205D7
:1013F000A0918305B09184050197A105B105F9F489
:10140000809185058823D9F067E070E080E090E066
:101410000E946F01909387058093860540E050E01D
:10142000BA010E94380167E070E080E090E00E941D
:101430006F0190938705809386050C9404020895AC
:1014400026E030E040E855E260E070E090E080E0C7
:1014500000C08130910569F01CF4892B39F00895A2
:101460008230910549F0039751F0089584EF92E09E
:1014700044C781E993E0FCCF8EE294E0F9CF8BEC96
:1014800094E0F6CF1F920F920FB60F9211240BB675
:101490000F922F933F934F935F936F937F938F930D
:1014A0009F93AF93BF93EF93FF938FE89DEF90933C
:1014B00025018093240134D0FF91EF91BF91AF912A
:1014C0009F918F917F916F915F914F913F912F915C
:1014D0000F900BBE0F900FBE0F901F9018958FE8C6
:1014E0009DEF9093250180932401A3E7B0E08C91B8
:1014F0008E7F8C93E0E2F1E080818C7F8083E1E25B
:10150000F1E08081877E8083808184608083808118
:101510008C7F80838C9181608C93089581E0089505
:101520008091E80291E0980F9093E802882349F0B7
:1015300021E030E03093EA022093E9028093E80250
:101540000895789435DAF8948091E8028150F6CFC6
:10155000CF93DF931092C3051092C205FFD370DFC3
:10156000C0919C02D0919D021982188290DDF8945E
:10157000B6DF81E028813981232B09F080E0809358
:10158000C205789478948091C205811107C064DE09
:10159000F89490E080E0DF91CF91089581E0288178
:1015A0003981232B09F480E08093C3059091C30512
:1015B00081E0911180E08093C205B0DFE4CF505804
:1015C000BB27AA270ED00DC1FED030F003D120F0EA
:1015D00031F49F3F11F41EF4F3C00EF4E095E7FBE5
:1015E000E9C0E92F0FD180F3BA17620773078407A8
:1015F000950718F071F49EF527C10EF4E0950B2EB7
:10160000BA2FA02D0B01B90190010C01CA01A00154
:101610001124FF27591B99F0593F50F4503E68F1AF
:101620001A16F040A22F232F342F4427585FF3CFF0
:10163000469537952795A795F0405395C9F77EF4C1
:101640001F16BA0B620B730B840BBAF09150A1F00A
:10165000FF0FBB1F661F771F881FC2F70EC0BA0F90
:10166000621F731F841F48F4879577956795B79518
:10167000F7959E3F08F0B3CF9395880F08F0992710
:10168000EE0F97958795089571D008F481E008953D
:1016900004D06894B111D9C00895BCD088F09F5788
:1016A00090F0B92F9927B751A0F0D1F0660F771FAE
:1016B000881F991F1AF0BA95C9F712C0B13081F08E
:1016C000C3D0B1E00895C0C0672F782F8827B85FD6
:1016D00039F0B93FCCF3869577956795B395D9F7EF
:1016E0003EF490958095709561957F4F8F4F9F4FF9
:1016F0000895E89409C097FB3EF490958095709505
:1017000061957F4F8F4F9F4F9923A9F0F92F96E94D
:10171000BB279395F695879577956795B795F111C2
:10172000F8CFFAF4BB0F11F460FF1BC06F5F7F4F5F
:101730008F4F9F4F16C0882311F096E911C0772371
:1017400021F09EE8872F762F05C0662371F096E87A
:10175000862F70E060E02AF09A95660F771F881F49
:10176000DAF7880F9695879597F90895990F0008ED
:10177000550FAA0BE0E8FEEF16161706E807F90763
:10178000C0F012161306E407F50798F0621B730BFE
:10179000840B950B39F40A2661F0232B242B252B7F
:1017A00021F408950A2609F4A140A6958FEF811D22
:1017B000811D089597F99F6780E870E060E00895C3
:1017C0009FEF80EC089500240A9416161706180659
:1017D0000906089500240A94121613061406050635
:1017E0000895092E0394000C11F4882352F0BB0FC6
:1017F00040F4BF2B11F460FF04C06F5F7F4F8F4F29
:101800009F4F089557FD9058440F551F59F05F3F63
:1018100071F04795880F97FB991F61F09F3F79F012
:1018200087950895121613061406551FF2CF469594
:10183000F1DF08C0161617061806991FF1CF869516
:101840007105610508940895E894BB2766277727FA
:10185000CB0197F908958ADF08F48FEF08950BD034
:10186000C0CFB1DF28F0B6DF18F0952309F0A2CF82
:10187000A7CF1124EACFC6DFA0F3959FD1F3950F30
:1018800050E0551F629FF001729FBB27F00DB11D04
:10189000639FAA27F00DB11DAA1F649F6627B00D94
:1018A000A11D661F829F2227B00DA11D621F739F7D
:1018B000B00DA11D621F839FA00D611D221F749F8B
:1018C0003327A00D611D231F849F600D211D822FD2
:1018D000762F6A2F11249F5750408AF0E1F0882319
:1018E0004AF0EE0FFF1FBB1F661F771F881F915026
:1018F0005040A9F79E3F510570F05CCFA6CF5F3FE7
:10190000ECF3983EDCF3869577956795B795F79558
:10191000E7959F5FC1F7FE2B880F911D96958795E0
:1019200097F908950895883008F075C0E82FF0E021
:10193000EE0FFF1FE457FD4F7183608381508730A6
:1019400008F03CC0E82FF0E08827E755F34F8F4FB1
:10195000B3C7E60CB00CB80CC40CD10CF20CFF0CE5
:10196000809169008C7F482B40936900E89A089524
:1019700080916900837F440F551F440F551F482BEA
:1019800040936900E99A0895809169008F7C74E022
:10199000440F551F7A95E1F7482B40936900EA9A66
:1019A0000895809169008F7366E0440F551F6A9512
:1019B000E1F7482B40936900EB9A089580916A0003
:1019C0008C7F482B40936A00EC9A089580916A00BE
:1019D000837F440F551F440F551F482B40936A00C7
:1019E000ED9A089580916A008F7C24E0440F551F82
:1019F0002A95E1F7482B40936A00EE9A089580916A
:101A00006A008F7396E0440F551F9A95E1F7482BB3
:101A100040936A00EF9A08951F920F920FB60F92AB
:101A200011240BB60F922F933F934F935F936F93B5
:101A30007F938F939F93AF93BF93EF93FF93E09127
:101A40009002F09191021995FF91EF91BF91AF91A2
:101A50009F918F917F916F915F914F913F912F91C6
:101A60000F900BBE0F900FBE0F901F9018951F92F6
:101A70000F920FB60F9211240BB60F922F933F9334
:101A80004F935F936F937F938F939F93AF93BF9386
:101A9000EF93FF93E0919202F09193021995FF91D9
:101AA000EF91BF91AF919F918F917F916F915F91D6
:101AB0004F913F912F910F900BBE0F900FBE0F9043
:101AC0001F9018951F920F920FB60F9211240BB60C
:101AD0000F922F933F934F935F936F937F938F93C7
:101AE0009F93AF93BF93EF93FF93E0919402F09194
:101AF00095021995FF91EF91BF91AF919F918F91B1
:101B00007F916F915F914F913F912F910F900BBEFD
:101B10000F900FBE0F901F9018951F920F920FB647
:101B20000F9211240BB60F922F933F934F935F9315
:101B30006F937F938F939F93AF93BF93EF93FF9395
:101B4000E0919602F09197021995FF91EF91BF9164
:101B5000AF919F918F917F916F915F914F913F9145
:101B60002F910F900BBE0F900FBE0F901F901895E6
:101B70001F920F920FB60F9211240BB60F922F9354
:101B80003F934F935F936F937F938F939F93AF9305
:101B9000BF93EF93FF93E0918C02F0918D02199522
:101BA000FF91EF91BF91AF919F918F917F916F9135
:101BB0005F914F913F912F910F900BBE0F900FBEF1
:101BC0000F901F9018951F920F920FB60F9211242D
:101BD0000BB60F922F933F934F935F936F937F9327
:101BE0008F939F93AF93BF93EF93FF93E0918E02F8
:101BF000F0918F021995FF91EF91BF91AF919F9155
:101C00008F917F916F915F914F913F912F910F90A5
:101C10000BBE0F900FBE0F901F9018951F920F9242
:101C20000FB60F9211240BB60F922F933F934F9341
:101C30005F936F937F938F939F93AF93BF93EF9334
:101C4000FF93E0919802F09199021995FF91EF911D
:101C5000BF91AF919F918F917F916F915F914F91C4
:101C60003F912F910F900BBE0F900FBE0F901F90C2
:101C700018951F920F920FB60F9211240BB60F9268
:101C80002F933F934F935F936F937F938F939F9384
:101C9000AF93BF93EF93FF93E0919A02F0919B0271
:101CA0001995FF91EF91BF91AF919F918F917F9186
:101CB0006F915F914F913F912F910F900BBE0F90BD
:101CC0000FBE0F901F9018951F920F920FB60F9294
:101CD00011242F933F938F939F93AF93BF93809142
:101CE000EC029091ED02A091EE02B091EF023091E2
:101CF000EB0223E0230F2D3758F50196A11DB11DEE
:101D00002093EB028093EC029093ED02A093EE02FD
:101D1000B093EF028091F0029091F102A091F20253
:101D2000B091F3020196A11DB11D8093F002909332
:101D3000F102A093F202B093F302BF91AF919F9191
:101D40008F913F912F910F900FBE0F901F9018957C
:101D500026E8230F0296A11DB11DD2CF789484B539
:101D6000826084BD84B5816084BD85B5826085BD97
:101D700085B5816085BDEEE6F0E08081816080837D
:101D8000E1E8F0E010828081826080838081816060
:101D90008083E0E8F0E0808181608083E1EBF0E027
:101DA000808184608083E0EBF0E0808181608083CB
:101DB000E1E9F0E0808182608083808181608083BE
:101DC000E0E9F0E0808181608083E1EAF0E08081F9
:101DD00082608083808181608083E0EAF0E080819E
:101DE00081608083E1E2F1E0808182608083808194
:101DF00081608083E0E2F1E0808181608083EAE7B6
:101E0000F0E0808184608083808182608083808133
:101E1000816080838081806880831092C1000895F2
:101E20001F93CF93DF93182FEB0161E033D12097FD
:101E300031F460E0812FDF91CF911F9167C1CF3FD7
:101E4000D10511F461E0F6CFE12FF0E0EC51FF4F46
:101E5000E491E150E23108F0B2C0F0E08827ED5C97
:101E6000F04F8F4F29C5450F4D0F520F5C0F660F76
:101E7000DF0F700F780F800F8A0F940F9E0FAD0F3A
:101E8000B70FDF0FC10FCB0FD50F84B5806884BDAE
:101E9000C7BDDF91CF911F91089584B5806284BD45
:101EA000C8BDF7CF80918000806880938000D09378
:101EB0008900C0938800EDCF80918000806280937C
:101EC0008000D0938B00C0938A00E3CF8091800084
:101ED000886080938000D0938D00C0938C00D9CF10
:101EE0008091B00080688093B000C093B300D1CFE0
:101EF0008091B00080628093B000C093B400C9CFDD
:101F000080919000806880939000D0939900C09356
:101F10009800BFCF80919000806280939000D09312
:101F20009B00C0939A00B5CF809190008860809309
:101F30009000D0939D00C0939C00ABCF8091A000F7
:101F400080688093A0008091A0008F7B8093A00088
:101F5000D093A900C093A8009CCF8091A00080627C
:101F60008093A000D093AB00C093AA0092CF809141
:101F7000A00088608093A000D093AD00C093AC0017
:101F800088CF80912001806880932001D09329011F
:101F9000C09328017ECF8091200180628093200130
:101FA000D0932B01C0932A0174CF809120018860C7
:101FB00080932001D0932D01C0932C016ACFC038AB
:101FC000D1050CF03FCF35CF8150823108F059C098
:101FD000E82FF0E08827E151F04F8F4F6DC40F10CC
:101FE0001310011007100B10411016101C102010B8
:101FF00026102A102E103410381041103C104210B8
:102000004610809180008F778093800008958091A2
:1020100080008F7DF9CF80918000877FF5CF84B5D8
:102020008F7784BD089584B58F7DFBCF8091B000FC
:102030008F778093B00008958091B0008F7DF9CFA5
:10204000809190008F778093900008958091900008
:102050008F7DF9CF80919000877FF5CF8091A00090
:102060008F778093A00008958091A0008F7DF9CF95
:102070008091A000877FF5CF809120018F7780939A
:1020800020010895809120018F7DF9CF809120015A
:10209000877FF5CFCF93DF9390E0FC01E65DFE4FA5
:1020A000249180599E4FFC0184918823C9F090E0CF
:1020B000880F991FFC01E651FE4FA591B491FC01D8
:1020C000E053FE4FC591D49161110DC09FB7F894B4
:1020D0008C91209582238C938881282328839FBF0D
:1020E000DF91CF910895623051F49FB7F8943C91FD
:1020F000822F809583238C93E8812E2BEFCF8FB78F
:10210000F894EC912E2B2C938FBFEACF1F93CF9393
:10211000DF93282F30E0F901EC51FF4F8491F90152
:10212000E65DFE4FD491F901E059FE4FC491CC23F6
:10213000A1F0162F811148DFEC2FF0E0EE0FFF1F0A
:10214000E053FE4FA591B4918FB7F894EC91111123
:1021500008C0D095DE23DC938FBFDF91CF911F9114
:102160000895DE2BF8CFFC01918D228D892F90E010
:10217000805C9F4F821B91098F7399270895FC0102
:10218000918D828D981731F0828DE80FF11D858D2C
:1021900090E008958FEF9FEF0895FC01918D828D5F
:1021A000981761F0A28DAE0FBF2FB11D5D968C9177
:1021B000928D9F5F9F73928F90E008958FEF9FEFB6
:1021C0000895FC01538D448D252F30E0842F90E03D
:1021D000821B930B541710F0CF9608950197089522
:1021E000FC01A48DA80FB92FB11DA35ABF4F2C918C
:1021F000848D90E001968F739927848FA689B78983
:102200002C93A089B1898C91837080648C93938D79
:10221000848D981306C00288F389E02D80818F7D1C
:1022200080830895CF93DF93EC01888D8823B1F0EC
:10223000AA89BB89E889F9898C9185FD03C08081D1
:1022400086FD0CC00FB607FCF7CF8C9185FFF2CF4F
:10225000808185FFEDCFCE01C3DFEACFDF91CF9143
:102260000895EF92FF920F931F93CF93DF93EC01AA
:1022700081E0888F9B8D8C8D98131AC0E889F9892D
:10228000808185FF15C09FB7F894EE89FF89608330
:10229000E889F98980818370806480839FBF81E0B1
:1022A00090E0DF91CF911F910F91FF90EF900895F3
:1022B000F62E0B8D10E00F5F1F4F0F731127E02ECE
:1022C0008C8D8E110BC00FB607FCFACFE889F98907
:1022D000808185FFF5CFCE0183DFF2CFEB8DEC0F50
:1022E000FD2FF11DE35AFF4FF0829FB7F8940B8F3B
:1022F000EA89FB8980818062D0CFCF92DF92EF9212
:10230000FF921F93CF93DF93EC016A017B01122FA1
:10231000E889F98982E08083C11481EED806E1045E
:10232000F10499F060E079E08DE390E0A701960177
:10233000A1D2215031094109510956954795379548
:102340002795211580E1380790F0E889F9891082F6
:1023500060E874E88EE190E0A70196018BD22150ED
:102360003109410951095695479537952795EC85CF
:10237000FD853083EE85FF852083188EEC89FD89ED
:102380001083EA89FB89808180618083EA89FB89E7
:10239000808188608083EA89FB898081806880836E
:1023A000EA89FB8980818F7D8083DF91CF911F91A6
:1023B000FF90EF90DF90CF9008951F920F920FB68D
:1023C0000F9211240BB60F922F938F939F93EF933D
:1023D000FF93E0910403F09105038081E0910A03EB
:1023E000F0910B0382FD1DC0908180910D038F5FE2
:1023F0008F7320910E03821741F0E0910D03F0E0FE
:10240000EC50FD4F958F80930D03FF91EF919F91BD
:102410008F912F910F900BBE0F900FBE0F901F90BA
:1024200018958081F2CF1F920F920FB60F92112450
:102430000BB60F922F933F934F935F936F937F93BE
:102440008F939F93AF93BF93EF93FF9384EF92E0AB
:10245000C7DEFF91EF91BF91AF919F918F917F91D7
:102460006F915F914F913F912F910F900BBE0F9005
:102470000FBE0F901F901895E4EFF2E013821282C6
:1024800088EE93E0A0E0B0E084839583A683B783D1
:1024900082EA92E09183808385EC90E0958784873F
:1024A00084EC90E09787868780EC90E0918B808B1E
:1024B00081EC90E0938B828B82EC90E0958B848B07
:1024C00086EC90E0978B868B118E128E138E148E75
:1024D00008951F920F920FB60F9211240BB60F9210
:1024E0002F938F939F93EF93FF93E091A103F0912C
:1024F000A2038081E091A703F091A80382FD1DC093
:1025000090818091AA038F5F8F732091AB03821714
:1025100041F0E091AA03F0E0EF56FC4F958F8093D5
:10252000AA03FF91EF919F918F912F910F900BBE76
:102530000F900FBE0F901F9018958081F2CF1F92C1
:102540000F920FB60F9211240BB60F922F933F9359
:102550004F935F936F937F938F939F93AF93BF93AB
:10256000EF93FF9381E993E03BDEFF91EF91BF9101
:10257000AF919F918F917F916F915F914F913F911B
:102580002F910F900BBE0F900FBE0F901F901895BC
:10259000E1E9F3E01382128288EE93E0A0E0B0E07C
:1025A00084839583A683B78382EA92E091838083B4
:1025B0008DEC90E0958784878CEC90E097878687F8
:1025C00088EC90E0918B808B89EC90E0938B828BF0
:1025D0008AEC90E0958B848B8EEC90E0978B868BC9
:1025E000118E128E138E148E08951F920F920FB6B5
:1025F0000F9211240BB60F922F938F939F93EF930B
:10260000FF93E0913E04F0913F048081E091440407
:10261000F091450482FD1DC09081809147048F5F39
:102620008F7320914804821741F0E0914704F0E055
:10263000E25DFB4F958F80934704FF91EF919F914F
:102640008F912F910F900BBE0F900FBE0F901F9088
:1026500018958081F2CF1F920F920FB60F9211241E
:102660000BB60F922F933F934F935F936F937F938C
:102670008F939F93AF93BF93EF93FF938EE294E07A
:10268000AFDDFF91EF91BF91AF919F918F917F91BE
:102690006F915F914F913F912F910F900BBE0F90D3
:1026A0000FBE0F901F901895EEE2F4E01382128295
:1026B00088EE93E0A0E0B0E084839583A683B7839F
:1026C00082EA92E09183808385ED90E0958784870C
:1026D00084ED90E09787868780ED90E0918B808BEA
:1026E00081ED90E0938B828B82ED90E0958B848BD3
:1026F00086ED90E0978B868B118E128E138E148E42
:1027000008951F920F920FB60F9211240BB60F92DD
:102710002F938F939F93EF93FF93E091DB04F091BE
:10272000DC048081E091E104F091E20482FD1DC0AF
:1027300090818091E4048F5F8F732091E50482176C
:1027400041F0E091E404F0E0E553FB4F958F809376
:10275000E404FF91EF919F918F912F910F900BBE09
:102760000F900FBE0F901F9018958081F2CF1F928F
:102770000F920FB60F9211240BB60F922F933F9327
:102780004F935F936F937F938F939F93AF93BF9379
:10279000EF93FF938BEC94E023DDFF91EF91BF91DA
:1027A000AF919F918F917F916F915F914F913F91E9
:1027B0002F910F900BBE0F900FBE0F901F9018958A
:1027C000EBECF4E01382128288EE93E0A0E0B0E03C
:1027D00084839583A683B78382EA92E09183808382
:1027E00085E391E09587848784E391E097878687E6
:1027F00080E391E0918B808B81E391E0938B828BDE
:1028000082E391E0958B848B86E391E0978B868BB6
:10281000118E128E138E148E0895AF92BF92CF92A6
:10282000DF92EF92FF920F931F93CF93DF936C0190
:102830007B018B01040F151FEB015E01AE18BF0871
:10284000C017D10759F06991D601ED91FC91019023
:10285000F081E02DC6011995892B79F7C501DF912B
:10286000CF911F910F91FF90EF90DF90CF90BF908D
:10287000AF900895A1E21A2EAA1BBB1BFD010DC04B
:10288000AA1FBB1FEE1FFF1FA217B307E407F50720
:1028900020F0A21BB30BE40BF50B661F771F881FFC
:1028A000991F1A9469F760957095809590959B0192
:1028B000AC01BD01CF010895EE0FFF1F881F8BBF34
:0C28C0000790F691E02D1994F894FFCFDA
:1028CC00000000000000000001D9FC44E12FFF448F
:1028DC0000000000000000000000000000000000EC
:1028EC00000000000000C8420000C8421CBDF442B9
:1028FC005C6EF042000080BF000080BF0000803F93
:10290C000000803FAE47E1BDAE47E13DCDCC4C3E33
:10291C007CD9203F0000C8420AD7233C0AD7233C6D
:10292C000000000000007FC300007F430000000097
:10293C000AD7233C0AD7233C0000000000007FC3C9
:10294C0000007F430000000059EC474A920C920CA7
:10295C00920C920C920C920C920C920CE6020000CF
:10296C00000031110D14E1101211B310CD10BF1075
:00000001FF
