:1000000005C100000C94F62E0C94212F0C944C2F5B
:100010000C94772F0C94A22F0C94CD2F0C94F82FC6
:100020000C94233024C1000022C1000020C1000034
:100030001EC100001CC100001AC1000018C1000050
:1000400016C1000014C1000012C1000010C1000060
:100050000EC100000CC100000AC100000C944E301B
:1000600006C100000C9422340C94583400C10000E6
:10007000FEC00000FCC00000FAC00000F8C0000094
:10008000F6C00000F4C00000F2C00000F0C00000A4
:100090000C94AE340C94E434EAC00000E8C00000D4
:1000A000E6C00000E4C00000E2C00000E0C00000C4
:1000B000DEC00000DCC00000DAC00000D8C00000D4
:1000C000D6C00000D4C000000C94BC2A0C943A3571
:1000D0000C947035CCC000000C94C6350C94FC35E3
:1000E000C6C0000000000A0B02090C0D0E08070331
:1000F00004010000000000000000000000000000FB
:1001000000000000000000000000000000000000EF
:1001100012111000000000000000000000000000AC
:100120000000000000000000000001021020200874
:100130000810204010204080020102010804020142
:1001400001020408102040808040201008040201B1
:10015000800402018040201008040201080402010A
:100160000102040810204080010204081020408091
:1001700005050505070508080808020202020A0A23
:100180000808040404040101010101010101030341
:10019000030303030303040707070C0C0C0C0C0CEC
:1001A0000C0C0202020206060606060606060B0BE9
:1001B0000B0B0B0B0B0B000020002300260029006B
:1001C0002C002F003200000100000301060109018C
:1001D00000002200250028002B002E0031003400F2
:1001E00002010000050108010B01000021002400AC
:1001F00027002A002D003000330001010000040117
:1002000007010A0181340D359935253611241FBEA9
:10021000CFEFD1E2DEBFCDBF00E00CBF13E0A0E026
:10022000B2E0E2EDFDE600E00BBF02C007900D92E8
:10023000A83BB107D9F729E0A8EBB3E001C01D92B4
:10024000A03EB207E1F711E0C6E0D1E000E006C051
:1002500021970109802FFE010E94B636C230D107D6
:1002600080E00807A9F70E94D82B0C94E736C8CE87
:10027000CF92DF92EF92FF92CF93882351F16A01E0
:100280007B01CFEFC80F20E030E0A901CB01B60120
:100290000E94C52C18168CF0C701B60190580E9418
:1002A000362D9B01AC016C2F70E090E080E0CF9187
:1002B000FF90EF90DF90CF90B2C0C701B6010E94CF
:1002C000312D8C2FCF91FF90EF90DF90CF900C9439
:1002D0005531CF91FF90EF90DF90CF9008950F931D
:1002E0001F938B019C0183E0369527951795079501
:1002F0008A95D1F708541C4F462F477021E030E013
:10030000F90102C0EE0FFF1F4A95E2F7AF01F801B5
:1003100020812423CB010196211102C090E080E0CE
:100320001F910F9108950F931F938B019C0183E000
:1003300036952795179507958A95D1F7677081E0CF
:1003400090E001C0880F6A95EAF7F801E854FC4F85
:100350002081452B31F48095822380831F910F915A
:100360000895822BFACF2F923F924F925F926F9215
:100370007F928F929F92AF92BF92CF92DF92EF9235
:10038000FF920F931F93CF93DF93D62EC72E782E15
:10039000692E49015A01280161E08D2D0E948F329A
:1003A000CD2DDC2D8E010F5F1F4FA8016D2D7C2DF3
:1003B000872D962DB8DF20E030E0A901C201B701FA
:1003C0000E94142E181664F4C201B7010E94362D43
:1003D0002B01C501B4010E94362DA201CE0123D00C
:1003E000C801DF91CF911F910F91FF90EF90DF90A7
:1003F000CF90BF90AF909F908F907F906F905F90C5
:100400004F903F902F900895882341F08150682F9E
:1004100070E090E080E050E040E085CF0895862FC6
:10042000B9010C9455319C01FC01EC51FF4FE49152
:10043000E150E231E0F4F0E08827EE5DFD4F8F4FB0
:100440000C94B63634023B023E0255026A02370271
:100450007F028B028F02A602BB02D002E702FC02DF
:100460003702110328033D0384B5806884BD60E032
:10047000822F0C94CB3284B58062F8CF80918000BB
:100480008C7F82608093800080918100807E80617B
:10049000682B609381005093870040938600809181
:1004A0008000806880938000E2CF809180008C7F04
:1004B00082608093800080918100807E8061682BC3
:1004C0006093810050938700409386008091800064
:1004D0008062E8CF809180008C7F82608093800072
:1004E00080918100807E8061682B609381005093B1
:1004F000870040938600809180008860D3CF8091F0
:10050000B00080688093B0008091B100887F682B34
:100510006093B100ACCF8091B0008062F3CF809146
:1005200090008C7F82608093900080919100807E0B
:100530008061682B609391005093970040939600E0
:100540008091900080688093900091CF809190007E
:100550008C7F82608093900080919100807E80618A
:10056000682B609391005093970040939600809180
:1005700090008062E8CF809190008C7F82608093B1
:10058000900080919100807E8061682B6093910043
:100590005093970040939600809190008860D3CF4D
:1005A0008091A0008C7F82608093A0008091A10048
:1005B000807E8061682B6093A1005093A7004093D8
:1005C000A6008091A00080688093A00050CF809109
:1005D000A0008C7F82608093A0008091A100807E2B
:1005E0008061682B6093A1005093A7004093A60000
:1005F0008091A0008062E8CF8091A0008C7F826013
:100600008093A0008091A100807E8061682B609320
:10061000A1005093A7004093A6008091A00088609D
:10062000D3CF809120018C7F8260809320018091C4
:100630002101807E8061682B609321015093270106
:1006400040932601809120018068809320010FCF84
:10065000809120018C7F8260809320018091210114
:10066000807E8061682B6093210150932701409325
:100670002601809120018062E8CF809120018C7F4B
:1006800082608093200180912101807E8061682BAF
:10069000609321015093270140932601809120010E
:1006A0008860D3CFFC01A781B0858C919185892387
:1006B000A481B5819C9140815181628173812681A1
:1006C000922359F081110BC04F5F5F4F6F4F7F4FE7
:1006D000408351836283738308958111F5CF415024
:1006E000510961097109F4CF82EC93E0DBCF8DEC05
:1006F00093E0D8CF88ED93E0D5CF83EE93E0D2CFCF
:10070000FC01A481B5818C9196818923A781B08554
:100710009C9140815181628173812185922359F09E
:10072000882359F04F5F5F4F6F4F7F4F4083518356
:100730006283738308958823A9F3415051096109A5
:100740007109F4CF82EC93E0DBCF8DEC93E0D8CF4E
:1007500088ED93E0D5CF83EE93E0D2CF0F931F9334
:10076000CF93DF93D82FC62F8A01A091C1038BE0CE
:10077000A89FD0011124AE53BC4F1D921D921D9213
:100780001C92139781E01A968C931A978D2F90E004
:10079000FC01E65DFE4FE4911696EC931697FC0182
:1007A000E059FE4FE491F0E0EE0FFF1FEA54FE4FD8
:1007B0008591949115969C938E931497862F90E033
:1007C000FC01E65DFE4FE4911996EC931997FC014C
:1007D000E059FE4FE491F0E0EE0FFF1FEA54FE4FA8
:1007E0008591949118969C938E93179760E08D2F26
:1007F0000E948F3260E08C2F0E948F328091C10363
:10080000813009F43FC0A8F0823009F462C083301F
:1008100009F486C08091C10391E0980F9093C103C1
:10082000F801808390E080E0DF91CF911F910F91DC
:10083000089580E0D23049F081E0D33031F08EEE7F
:100840008D0F8430D8F487E18D1B41E050E064E7E0
:1008500073E00E947C2E80E0C23049F081E0C3301A
:1008600031F08EEE8C0F843058F487E18C1B41E020
:1008700050E062EA73E00E947C2ECCCF8FEFE5CF90
:100880008FEFF5CF80E0D23049F081E0D33031F006
:100890008EEE8D0F8430C8F487E18D1B41E050E06F
:1008A00067E773E00E947C2E80E0C23049F081E06F
:1008B000C33031F08EEE8C0F843048F487E18C1B0E
:1008C00041E050E065EA73E0D6CF8FEFE7CF8FEFDE
:1008D000F7CF80E0D23049F081E0D33031F08EEEB6
:1008E0008D0F8430C8F487E18D1B41E050E06AE74A
:1008F00073E00E947C2E80E0C23049F081E0C3307A
:1009000031F08EEE8C0F843048F487E18C1B41E08F
:1009100050E068EA73E0AFCF8FEFE7CF8FEFF7CF0C
:1009200080E0D23049F081E0D33031F08EEE8D0F8F
:100930008430C8F487E18D1B41E050E06DE773E03F
:100940000E947C2E80E0C23049F081E0C33031F05B
:100950008EEE8C0F843048F487E18C1B41E050E030
:100960006BEA73E088CF8FEFE7CF8FEFF7CF9BE095
:10097000899FF0011124EE53FC4F80819181A28167
:10098000B381FB0180839183A283B38390E080E0F5
:1009900008959BE0899FF0011124EE53FC4F1082D3
:1009A00011821282138290E080E0089590E080E04E
:1009B000089590E080E008950F931F93009709F445
:1009C00089C06115710509F485C00091EC02109190
:1009D000ED022091EE023091EF020E3F1F4F2F4F9C
:1009E0003F4F09F068C04FEF5FEFBA014093EC0250
:1009F0005093ED026093EE027093EF024091EC028F
:100A00005091ED026091EE027091EF02DC011296BE
:100A1000ED91FC9180819181A281B38180936404E6
:100A200090936504A0936604B093670484819581D4
:100A3000A681B7818093600490936104A0936204BF
:100A4000B093630480859185A285B38580935C040F
:100A500090935D04A0935E04B0935F0484859585B4
:100A6000A685B7858093580490935904A0935A049F
:100A7000B0935B04109254041092550410925604E3
:100A8000109257040E94A20E87EC9EE09093EF0311
:100A90008093EE039093F1038093F0030E94910DF5
:100AA000009731F421E030E030936904209368042A
:100AB0001F910F9108950091EC021091ED02209189
:100AC000EE023091EF02DB010D931D932D933C93C9
:100AD000139794CF8FEF9FEFEBCF8F929F92AF92B0
:100AE000BF92CF92DF92EF92FF921F93CF93DF934B
:100AF0004B015C0110916B0482E090E090936904DB
:100B00008093680481149104A104B10441F480919C
:100B10006B04811104C080916A04C1E08111C0E0BE
:100B2000C12CD12C760180916B04811106C080917B
:100B30006A04811102C0CC23D9F083E090E0909345
:100B4000690480936804CC2379F1CCE9DFEF1111BB
:100B500002C00E942B12CE01DF91CF911F91FF9016
:100B6000EF90DF90CF90BF90AF909F908F900895BF
:100B70006AE070E080E090E00E94BD3080E1C80E45
:100B800087E2D81EE11CF11C8FEF88169806A80694
:100B9000B80631F0C1E08C149D04AE04BF0408F027
:100BA000C0E080E0F2D7BFCFD0E0C0E0D0CFCF929E
:100BB000DF92EF92FF920F931F93CF93DF938F3FBC
:100BC000910511F008F050C020916804309169043B
:100BD0002330310539F020916804309169042130C7
:100BE000310531F424E030E0309369042093680447
:100BF0006A017B01EC0182309105A0F011E0AE01A9
:100C0000C701B6018DD7AB01BC01CE011123F9F0AC
:100C1000DF91CF911F910F91FF90EF90DF90CF90D8
:100C20000C9454148C01000F111F02511C4FD80159
:100C30008D919C91892B11F30E945E140297F1F61D
:100C4000D801ED91FC91CE011995182FD8CF0E94B3
:100C5000761490E080E0DF91CF911F910F91FF908B
:100C6000EF90DF90CF9008958FEF9FEFF4CF80E06B
:100C70008CC7CF93DF9386E090E0909369048093D4
:100C80006804DCD7EC01EEEEF3E084E0DF011D92B6
:100C90008A95E9F70E94C3111092690410926804C2
:100CA000CE01DF91CF91089580916A0408958091DB
:100CB000530408956093EC027093ED028093EE026A
:100CC0009093EF0290E080E008952F923F924F9230
:100CD0005F926F927F928F929F92AF92BF92CF92CC
:100CE000DF92EF92FF920F931F93CF93DF9300D089
:100CF00000D0CDB7DEB74B015C015E834D83190197
:100D000067017801DA014D905D906D907C90AC01A7
:100D10009B01C301B2010E94142E87FD53C0A301A1
:100D20009201C501B4010E94602C6B017C01A301FA
:100D30009201ED81FE8164817581868197810E9497
:100D4000602C9B01AC01C701B6010E94C92C6B014C
:100D50007C0119821A821B821C82E981FA81EE0FC2
:100D6000FF1FEE0FFF1FE20DF31D80809180A28018
:100D7000B380A501940164817581868197810E9469
:100D8000602CA70196010E94182EA50194010E94D3
:100D9000612C26960FB6F894DEBF0FBECDBFDF9153
:100DA000CF911F910F91FF90EF90DF90CF90BF9068
:100DB000AF909F908F907F906F905F904F903F90FB
:100DC0002F9008958601000F111F000F111F2D8114
:100DD0003E81020F131FD8014D905D906D907C9065
:100DE000A5019401C301B2010E94142E18160CF043
:100DF0006DC0260137017694679457944794198201
:100E00001A821B821C82D701C60129813A814B813B
:100E10005C81821B930BA40BB50B0297A105B10556
:100E200058F5C901880F991F880F991F4D815E8160
:100E3000480F591F5E834D83DA01CD90DD90ED9010
:100E4000FC90A7019601C501B4010E94602C4B01E2
:100E50005C01A7019601ED81FE8164817581868127
:100E600097810E94602C9B01AC01C501B4010E94D6
:100E7000C92C6B017C0171CFF201EE0FFF1FEE0F49
:100E8000FF1F2D813E81E20FF31FA50194016081B8
:100E90007181828193810E94142E181634F0498248
:100EA0005A826B827C822601370189819A81AB81CB
:100EB000BC81840D951DA61DB71D730162012C0117
:100EC0003D0176946794579447949DCFA70196016E
:100ED000215031094109510929833A834B835C83AD
:100EE000F8013497C080D180E280F380A701960199
:100EF000C501B4010E94602C4B015C01A701960161
:100F0000C301B201AECF2F923F924F925F926F9288
:100F10007F928F929F92AF92BF92CF92DF92EF9289
:100F2000FF920F931F93CF93DF93CDB7DEB72D972B
:100F30000FB6F894DEBF0FBECDBFC0900402D090B4
:100F40000502E0900602F0900702A7019601609169
:100F5000A9097091AA098091AB099091AC090E94EE
:100F6000C52C882341F0C092A909D092AA09E09229
:100F7000AB09F092AC098091A80981111092A809DF
:100F8000BE016F5F7F4F8091AD09F1DCC090080218
:100F9000D0900902E0900A02F0900B02A70196019E
:100FA00060919D0970919E0980919F099091A0097F
:100FB0000E94C52C882341F0C0929D09D0929E09C1
:100FC000E0929F09F092A00980919C0981111092F2
:100FD0009C09BE016B5F7F4F8091A109C8DC6091C5
:100FE000E8027091E9028091EA029091EB020E947E
:100FF000642D20E030E040E05AE20E94182E4B01C0
:101000005C01C0900C02D0900D02E0900E02F090B6
:101010000F0269817A818B819C810E94642DA501D8
:1010200094010E94182EA70196010E94182E2B01F0
:101030003C016D817E818F8198850E94642DA50180
:1010400094010E94182E9B01AC01C701B6010E94B9
:10105000182E4B015C012091CE093091CF094091AF
:10106000D0095091D109C301B2010E94602C609354
:101070007E0970937F098093800990938109209164
:10108000D2093091D3094091D4095091D509C501B5
:10109000B4010E94602C609382097093830980934D
:1010A00084099093850960911002709111028091DA
:1010B0001202909113021AE0E12EF12C00E010E0F0
:1010C00028E132E044E452E000DE69877A878B87CA
:1010D0009C87609386097093870980938809909311
:1010E0008909609114027091150280911602909105
:1010F000170220E732E04CE952E0E7DD60938A090D
:1011000070938B0980938C0990938D0929853A857A
:101110004B855C8520938E0930938F09409390090D
:101120005093910960939209709393098093940965
:101130009093950965E070E080E090E0D0D88C0154
:101140009093CD098093CC0920908A0930908B0927
:1011500030918C09398740918D094D87C090C80224
:10116000D090C902E090CA02F090CB02A70196018C
:10117000B10189859D850E94142E1816A4F0C09097
:10118000CC02D090CD02E090CE02F090CF02A70129
:101190009601B10189859D850E94C52C87FD03C0FC
:1011A0006101E984FD84E894F7F820E030E04FE73E
:1011B00053E4C701B6010E94C52C181634F4C12CA3
:1011C000D12C9FE7E92E93E4F92EB701A601C801BF
:1011D0004FD864E070E080E090E081D87C0190938B
:1011E000BD098093BC0920908A0930908B095091E9
:1011F0008C09598780918D098D87C090D002D0903D
:10120000D1020091D2021091D3029601A801B1013E
:1012100089859D850E94142E1816A4F0C090D402D2
:10122000D090D5020091D6021091D7029601A80164
:10123000B10189859D850E94C52C87FD03C0610190
:1012400009851D8520E030E04FE753E4B601C80171
:101250000E94C52C18160CF443C120E030E0A9010F
:10126000B601C8010E94142E87FF04C0C12CD12CE6
:1012700000E010E0A601B801C7010E94380166E055
:1012800070E080E090E02BD88C019093C5098093AA
:10129000C409209086093090870990918809998720
:1012A000A0918909AD87C090D802D090D902E09072
:1012B000DA02F090DB02A7019601B101892F9A2F83
:1012C0000E94142E1816A4F0C090DC02D090DD020B
:1012D000E090DE02F090DF02A7019601B10189855E
:1012E0009D850E94C52C87FD03C06101E984FD84B2
:1012F000E894F7F820E030E04FE753E4C701B60187
:101300000E94C52C181634F4C12CD12C8FE7E82E7E
:1013100083E4F82EB701A601C8010E94380167E0F6
:1013200070E080E090E00E946F017C019093B5092D
:101330008093B4092090860930908709B09188097C
:10134000B987209189092D87C090E002D090E102F1
:101350000091E2021091E3029601A801B1018B2FE6
:101360009D850E94142E1816A4F0C090E402D0901F
:10137000E5020091E6021091E7029601A801B10191
:1013800089859D850E94C52C87FD03C06101098563
:101390001D8520E030E04FE753E4B601C8010E940C
:1013A000C52C18160CF4A1C020E030E0A901B6014C
:1013B000C8010E94142E87FF04C0C12CD12C00E06C
:1013C00010E0A601B801C7010E9438014092CE0981
:1013D0005092CF096092D0097092D1098092D209BF
:1013E0009092D309A092D409B092D509C090260456
:1013F000D0902704E0902804F09029043FEFC31A0E
:10140000D30AE30AF30AC0922604D0922704E0929A
:101410002804F0922904C114D104E104F10499F4E0
:1014200080912A0490912B04A0912C04B0912D045A
:101430000196A11DB11D80932A0490932B04A093C3
:101440002C04B0932D0480902E0490902F04A09033
:101450003004B090310460912A0470912B04809183
:101460002C0490912D040E94622DA50194010E94EC
:10147000182E20E030E040E85FE40E94182E2B0197
:101480003C01C701B6010E94622DA50194010E9492
:10149000182E9B01AC01C301B2010E94612C609324
:1014A00022047093230480932404909325042D96A2
:1014B0000FB6F894DEBF0FBECDBFDF91CF911F9165
:1014C0000F91FF90EF90DF90CF90BF90AF909F90E3
:1014D0008F907F906F905F904F903F902F900895E6
:1014E000C12CD12C0FE713E4C5CEC12CD12C0FE7B2
:1014F00013E467CF4F925F926F927F92AF92BF9249
:10150000DF92EF92FF920F931F93CF93DF93ECE064
:10151000F4E08BE2DF011D928A95E9F780E090E02C
:10152000A0E8BFEB86A397A3A0A7B1A78AE097ED99
:10153000A3E2BCE382A393A3A4A3B5A389EF99EA92
:10154000A2EDBBEF84839583A683B78382E49FEAF1
:10155000A4E7BCE780879187A287B38784ED91E8F1
:10156000AAE3B8E384879587A687B7878DE891EBD0
:10157000A0E6B7E4808B918BA28BB38BA0E0B4E0A4
:10158000B383A283E2EFF3E01196FC93EE9385E23E
:1015900093E091838083938382839583848397836D
:1015A000868391878087938782879587848780E267
:1015B00094E015969C938E93149780E194E0139693
:1015C0009C938E93129782E294E017969C938E934D
:1015D0001697EEE7F9E088E1DF011D928A95E9F7B9
:1015E000C6E9D9E088E4FE0111928A95E9F7DD2485
:1015F000D394D092D90980E0A82E82E0B82EF501CC
:1016000084819581A681B7818B8B9C8BAD8BBE8BA2
:10161000412C512C320143944D865E866F86788A28
:101620004DEA59E063E082E099D8D98A1A8A1B868C
:101630001882D092D809F50180859185A285B3855D
:101640008F839887A987BA8749825A826B827C8266
:1016500041EA59E063E182E181D8DD821E8218AA65
:10166000D092DD0949AA5AAA6BAA7CAAE12CF12CD6
:101670008701A801970165E070E080E090E00E949A
:10168000B3019FAB8EABDDAA18A2D092DB0949A2B1
:101690005AA26BA27CA2A801970164E070E080E0EE
:1016A00090E00E94B3019FA38EA3DDA218A6D09262
:1016B000DC0949A65AA66BA67CA6A801970166E09C
:1016C00070E080E090E00E94B3019FA78EA7DDA6A6
:1016D000188ED092DA09498E5A8E6B8E7C8EA801B4
:1016E000970167E070E080E090E00E94B3019F8F77
:1016F0008E8FDD8EF50180819181A281B38188AFCB
:1017000099AFAAAFBBAF8CAF9DAFAEAFBFAF8F8964
:1017100040D98B85DF91CF911F910F91FF90EF9072
:10172000DF90BF90AF907F906F905F904F9031C9E6
:101730008091A209811113C081E08093A209809158
:10174000A3099091A409A091A509B091A6090197B8
:10175000A105B10521F48091A709811127D98091B4
:101760009609811113C081E08093960980919709B1
:1017700090919809A0919909B0919A090197A105B2
:10178000B10521F480919B09811110D98091C6097E
:1017900081112EC081E08093C6098091C709909184
:1017A000C809A091C909B091CA090197A105B1055D
:1017B000F9F48091CB098823D9F065E070E080E0EE
:1017C00090E00E946F019093CD098093CC0940E096
:1017D00050E0BA010E94380165E070E080E090E0DE
:1017E0000E946F019093CD098093CC090E9404025E
:1017F0008091B60981112EC081E08093B609809155
:10180000B7099091B809A091B909B091BA090197A7
:10181000A105B105F9F48091BB098823D9F064E0F2
:1018200070E080E090E00E946F019093BD0980938A
:10183000BC0940E050E0BA010E94380164E070E069
:1018400080E090E00E946F019093BD098093BC09F5
:101850000E9404028091BE0981112EC081E0809314
:10186000BE098091BF099091C009A091C109B091B2
:10187000C2090197A105B105F9F48091C309882334
:10188000D9F066E070E080E090E00E946F019093F4
:10189000C5098093C40940E050E0BA010E943801B4
:1018A00066E070E080E090E00E946F019093C509CF
:1018B0008093C4090E9404028091AE0981112EC058
:1018C00081E08093AE098091AF099091B009A09119
:1018D000B109B091B2090197A105B105F9F4809160
:1018E000B3098823D9F067E070E080E090E00E94BF
:1018F0006F019093B5098093B40940E050E0BA01BC
:101900000E94380167E070E080E090E00E946F0183
:101910009093B5098093B4090C94040208954F92F2
:101920005F926F927F928F929F92AF92BF92CF926F
:10193000DF92EF92FF920F931F93F894409043042D
:10194000509044046090450470904604C090370461
:10195000D0903804E0903904F0903A04452B09F017
:10196000A4C09B01AC012419350946095709290176
:101970003A0100913F0410914004209141043091BC
:10198000420448015901840C951CA61CB71C801602
:101990009106A206B306A0F400913B0410913C040A
:1019A00020913D0430913E040F5F1F4F2F4F3F4F5A
:1019B00000933B0410933C0420933D0430933E0479
:1019C00080923F0490924004A0924104B09242045D
:1019D00000913B0410913C0420913D0430913E0461
:1019E0008092470490924804A0924904B0924A041D
:1019F00000934B0410934C0420934D0430934E04F9
:101A00006093430470934404809345049093460488
:101A1000A0E1B7E2A30192010E94BE366C0D7D1DCC
:101A20008E1D9F1D60933704709338048093390492
:101A300090933A040091EC021091ED022091EE0295
:101A40003091EF020F3F1F4F2F4F3F4FF1F00091AA
:101A5000EC021091ED022091EE023091EF020E3F68
:101A60001F4F2F4F3F4F89F0C090EC02D090ED02F6
:101A7000E090EE02F090EF0221E08C149D04AE04A1
:101A8000BF0408F420E02093530478941F910F9131
:101A9000FF90EF90DF90CF90BF90AF909F908F908E
:101AA0007F906F905F904F9008954B015C01841878
:101AB0009508A608B708A3019201261B370B480B0F
:101AC000590B6415750586059705D0F082169306A7
:101AD000A406B50640F420E030E0A9018114910489
:101AE000A104B10491F4A0E1B7E20E94BE36A701BF
:101AF0009601261B370B480B590BCA01B901C5CFFC
:101B000082169306A406B50670F7A0E1B7E2A50118
:101B100094010E94BE366C0D7D1D8E1D9F1DB5CF9C
:101B2000FECECF93DF9300D01F92CDB7DEB71C82DD
:101B30001B821A82198210924F0410925004109244
:101B4000510410925204BE016F5F7F4FCE01039685
:101B50000E948C2A69817A818B819C810E947A23E0
:101B6000009761F4BE016F5F7F4FCE0103960E9424
:101B7000982A69817A818B819C812ED50F900F9054
:101B80000F900F90DF91CF910895FF920F931F93C5
:101B9000CF93DF93082F60E070E0CB010E94BD304F
:101BA000FF24F3940E946322EC01892B89F010E05A
:101BB000CE3F8FEFD80769F0002361F160E070E05D
:101BC000CB010E94BD3081E090E0892B59F322C007
:101BD00011E025D5EC01892B21F0CE3F8FEFD807FE
:101BE00059F711111EC011E0229609F410E00E946D
:101BF0001322EC01892B21F0CE3F8FEFD807E1F6BD
:101C0000111111C011E0CE3F8FEFD80709F410E099
:101C100001110BC0CE01DF91CF911F910F91FF9069
:101C2000089511E0E4CF11E0F3CF60E070E0CB0164
:101C30000E94BD301F25812F90E0C7CFCF93DF9347
:101C400080915304882321F060E070E0CB014CD6F2
:101C500035D6D0E0C0E0892B71F06AE070E080E01A
:101C600090E00E94BD3081E090DF28D62196C03DF3
:101C700027E0D20781F727D60E94CE2310926B046B
:101C800010926A0410926404109265041092660423
:101C90001092670410926004109261041092620422
:101CA0001092630410925C0410925D0410925E0422
:101CB00010925F04109258041092590410925A0422
:101CC00010925B0410925404109255041092560422
:101CD000109257044EEF5FEF6FEF7FEF4093EC02EF
:101CE0005093ED026093EE027093EF021092530452
:101CF000E7E4F4E028E0DF011D922A95E9F710926D
:101D00004304109244041092450410924604109229
:101D10003F04109240041092410410924204109229
:101D20003B0410923C0410923D0410923E04109229
:101D30003704109238041092390410923A04DF915B
:101D4000CF9108951092770410927804109279043C
:101D500010927A041092760480917F04909180040E
:101D6000909375048093740410927304109272041B
:101D700010926E0410926F0410927004109271040D
:101D800010927C0410927B0490E080E00895CF9242
:101D9000DF92EF92FF920F931F93CF938C01892BC9
:101DA00009F055C020917F04309180048091740423
:101DB0009091750440917F04509180045093750474
:101DC000409374042817390781F01092730410921D
:101DD000720410926E0410926F04109270041092AC
:101DE000710410927C0410927B0480917F04909186
:101DF0008004019761F580917B0490917C04892B8C
:101E000021F48091F002811112C080917B049091A5
:101E10007C040197E1F480916E0490916F04A0918D
:101E20007004B09171040197A105B10581F410927D
:101E30006E0410926F04109270041092710410924C
:101E4000F00282E090E090937C0480937B04809188
:101E50007F0490918004019709F01CC18091950442
:101E6000909196048017910709F014C18091910414
:101E700090919204A0919304B0919404009709F476
:101E800009C12091900421110DC0409191045091FD
:101E900092046091930470919404452B462B472B38
:101EA00009F4F8C020917B0430917C042230310584
:101EB00009F0F0C0209172042111ECC0FC01C08037
:101EC000D180E280F38080917604882309F4D3C026
:101ED0008091820490918304892B09F4FDC02091A4
:101EE00082043091830481E02230310509F080E0E2
:101EF0002091820430918304C1E02130310549F002
:101F00002091820430918304C1E02230310509F030
:101F1000C0E0882309F456C020918C0430918D04D0
:101F200040918E0450918F04C701B6010E94142E77
:101F300087FD14C020918C0430918D0440918E0453
:101F400050918F04609177047091780480917904A6
:101F500090917A040E94C52C87FD22C020918C04A8
:101F600030918D0440918E0450918F04C701B601C9
:101F70000E94142E181634F520918C0430918D0493
:101F800040918E0450918F04609177047091780491
:101F90008091790490917A040E94C52C811112C01D
:101FA0008091840490918504A0918604B091870467
:101FB000892B8A2B8B2B19F481E08093730481E0A9
:101FC00080937204CC2309F456C020918C04309184
:101FD0008D0440918E0450918F04C701B6010E9478
:101FE000C52C87FF14C020918C0430918D04409142
:101FF0008E0450918F0460917704709178048091E1
:10200000790490917A040E94142E87FF22C02091B7
:102010008C0430918D0440918E0450918F04C7013F
:10202000B6010E94C52C811126C020918C043091EC
:102030008D0440918E0450918F04609177047091CB
:1020400078048091790490917A040E94142E1816D5
:1020500094F48091840490918504A0918604B091B9
:102060008704892B8A2B8B2B19F481E080937304CE
:1020700081E08093720481E090917204911180E07C
:1020800080937604C0927704D0927804E092790429
:10209000F0927A04012B09F067C180917B04909142
:1020A0007C04892BD9F410928104109272048091DF
:1020B000F002882379F082E090E090937C04809392
:1020C0007B041092F00220917F043091800481E023
:1020D000232BE9F080E01BC081E00ACF1092F002D0
:1020E00080918104882349F01092730410927C043B
:1020F00010927B0410928104EDCF80917F04909127
:102100008004892BE1F08091720410927204209176
:102110007B0430917C042230310509F45EC088F4E0
:102120002115310509F448C02130310509F4F3C007
:1021300010927304109272041092810438C081E0EE
:10214000E6CF2330310509F4B1C02430310581F7E1
:1021500040916E0450916F0460917004709171040D
:10216000411551056105710561F041505109610941
:10217000710940936E0450936F04609370047093E0
:10218000710440916E0450916F04609170047091DD
:102190007104452B462B472BD9F420917D043091B7
:1021A0007E042130310509F046C01092730410926C
:1021B0007C0410927B040CC08091F002882341F0D3
:1021C00082E090E090937C0480937B041092F00274
:1021D00010926C0480917304CEC08823C9F380915F
:1021E000840490918504A0918604B0918704181608
:1021F00019061A061B060CF07DC080917F04909191
:102200008004019709F076C0809184049091850440
:10221000A0918604B091870480936E0490936F041C
:10222000A0937004B093710483E090E090937C04D9
:1022300080937B04CDCF40918804509189046091B4
:102240008A0470918B04452B462B472BA9F01092E2
:1022500073048091880490918904A0918A04B091BC
:102260008B0480936E0490936F04A0937004B093DA
:10227000710481E090E0DACF882399F08091F10237
:102280009091F202A091F302B091F40280936E0457
:1022900090936F04A0937004B093710484E090E075
:1022A000C5CF1092730482E090E0C0CF80916E049D
:1022B00090916F04A0917004B09171040097A105F2
:1022C000B10559F00197A109B10980936E0490936B
:1022D0006F04A0937004B093710480916E04909188
:1022E0006F04A0917004B0917104892B8A2B8B2B01
:1022F00009F06ECF8091F1029091F202A091F30269
:10230000B091F402892B8A2B8B2B09F44ECF81E0FC
:1023100080937304B3CF40916E0450916F04609129
:10232000700470917104411551056105710561F0EA
:10233000415051096109710940936E0450936F0433
:10234000609370047093710440916E0450916F0417
:102350006091700470917104452B462B472B09F056
:1023600037CF8111C7CF9FCF80916C04882309F4A8
:1023700031CF80916D04CF911F910F91FF90EF901D
:10238000DF90CF9008951092770410927804109205
:10239000790410927A041092760410927C041092C0
:1023A0007B0410927504109274041092960410929B
:1023B0009504109273041092720410926E0410929D
:1023C0006F04109270041092710410926D041092B8
:1023D0006C04109291041092920410929304109243
:1023E00094041092900410928C0410928D04109218
:1023F0008E0410928F0488EE93E0A0E0B0E080930A
:10240000F1029093F202A093F302B093F4021092BF
:1024100088041092890410928A0410928B041092FE
:1024200084041092850410928604109287041092FE
:1024300083041092820481E08093F0021092810460
:102440001092800410927F0410927E0410927D04FA
:1024500090E080E0089580917F0490918004892B22
:1024600019F58091F002882351F080918104811147
:1024700006C081E080936D0480936C0408952091E0
:1024800081043091F00281E090E0332311F090E07C
:1024900080E030E082239323892B21F010926D0499
:1024A00081E0EACF10926C04089582E090E0FA0196
:1024B000918380838FEF9FEF0895CF93DF93EA019D
:1024C000009711F00E94EE241982188290E080E0BB
:1024D000DF91CF910895DB01009719F48FEF8C9372
:1024E00008952EEF2C93FC013F96EF30F10508F094
:1024F00034C08827E158FD4E8F4F0C94B636AB128E
:10250000A912A712A512A3129F12A1129D129B122B
:102510009912961292128E129412AD1280E31196B5
:102520008C93089589E2FBCF82E2F9CF11961C9239
:10253000089583E2F4CF81E2F2CF81E1F0CF87E228
:10254000EECF8AE2ECCF80E1EACF84E2E8CF88E206
:10255000E6CF86E2E4CF81E3E2CF80E2E0CF809174
:10256000A3049091A40408959093A4048093A304D9
:1025700008958091A20408959091A204892B8093DC
:10258000A2040895982F90958091A20489238093A6
:10259000A20408958091A104089580919F049091D0
:1025A000A00408956115710559F0FB0130E020E0A9
:1025B00070E060E02417350719F06115710511F01E
:1025C000CB010895A081B181A817B90709F4BF0113
:1025D0002F5F3F4F3696EECF8091A50481111CC02E
:1025E00060D266D290939804809397040E94EC1C6A
:1025F0000E94FE1C90939C0480939B040E947B216C
:102600000E94822190939A048093990481E08093A0
:10261000A50490E080E0089584EF9FEF08958F92E5
:102620009F92AF92BF92CF92DF92EF92FF920F9361
:102630001F93CF93DF9300D000D000D01F92CDB76F
:10264000DEB71A86198618861F821E821D821C829A
:102650001B821A8219828091A50407EF1FEF88233D
:1026600009F49CC08E010D5F1F4F9E012B5F3F4FF1
:10267000AE01495F5F4FBE01675F7F4F90E080E032
:102680000E94FF228C01009721F00596029708F026
:10269000DBC029853A852115310509F402C1ED8099
:1026A000FE804B815C81B701640F751F8F81988517
:1026B0008617970708F4F5C0E20EF31ED7019C9128
:1026C000903C09F07FC04230510508F47BC0119660
:1026D0008C914091A3045091A404452B09F49CC013
:1026E000913F08F071C02CE1290F2D3008F48BC008
:1026F0002DE2290F203108F489C0903C21F481504B
:10270000823008F483C088E3890F8B3008F481C0DD
:102710009BE6C92E92E1D92EE5E5F2E16D817E813D
:10272000AE014F5F5F4F89859A8519955C01C11491
:10273000D104A1F189809A808114910479F18B816F
:102740009C818815990508F487C010E000E04B8152
:102750005C8170E060E0C7010E94E0360115110560
:10276000E9F449815A8169857A858D819E81680F56
:10277000791FC501F6011995E980FA800D811E8146
:102780002F81388549855A856FEF7FEF81E090E092
:102790000E949A228C01892B09F056C0C8012A9602
:1027A0000FB6F894DEBF0FBECDBFDF91CF911F9162
:1027B0000F91FF90EF90DF90CF90BF90AF909F90E0
:1027C0008F90089580E085CF30E020E0220F331F06
:1027D000F901E956FB4F0190F081E02D309709F4A3
:1027E00097CF892F90E01995009709F491CFDC01DC
:1027F0001296ED91FC9113971496CD90DC90309742
:1028000009F08CCF1FC021E030E0E0CF22E030E0C3
:10281000DDCF23E030E0DACFD12CC12CEDE5F2E1C1
:102820009F3F09F07BCFE0919704F0919804309797
:1028300021F4C90104EF1FEF0CC08FEF90E0199550
:102840000097A9F604EF1FEF89859A85009709F490
:10285000A5CF0E94EE24A2CF0E94C9238C018985B6
:102860009A850E94EE2470E060E0C4010E94622319
:1028700098878F830E9497229E838D836F817885AE
:102880006115710559F0C8010E947A269A878987D7
:1028900006EF1FEF892B09F058CF59CF08EF1FEF34
:1028A00056CF08EF1FEFD0CF2091A504222319F0B7
:1028B00020E00C94031D87EF9FEF08958091A304FF
:1028C0009091A40408950E9487210E94E120F5D0F0
:1028D000E7E9F4E088E0DF011D928A95E9F71092BC
:1028E000A50490E080E008950C943F1F21E040E0B3
:1028F00050E0BA010C94031D86E090E0FA01918348
:10290000808390E080E0089547E050E068E273E063
:1029100049CEDF92EF92FF920F931F93CF93DF93F5
:102920008A01EC01C60FD71FE090A904F090AA0419
:10293000D9800E94B123D816190678F082E090E081
:10294000F801918380838EEF9FEFDF91CF911F91EC
:102950000F91FF90EF90DF900895EF2841F482E00F
:1029600090E0F8019183808384EF9FEFEECF89811F
:102970008093A80490E00196F8019183808390E011
:1029800080E0E3CFCF93DF93EA010E94F01F88231A
:1029900021F00E94BE230E94F11F82E090E0998303
:1029A00088838BEF9FEFDF91CF910895CF93DF93D3
:1029B000EB0186E0FB0111928A95E9F78FEF88839E
:1029C000D8DD8983E7DD8A83E8DD9D838C83DF9111
:1029D000CF910895CF93DF93EA010E94F31F8111F5
:1029E00009C082E090E09983888385EF9FEFDF91B3
:1029F000CF91089590E080E0B7DD81E090E0998389
:102A0000888390E080E0F3CF0F931F93CF93DF9301
:102A1000EA018C01060F171F0E94F31F81110BC0E2
:102A200082E090E09983888385EF9FEFDF91CF91DB
:102A30001F910F910895F8018181823038F082E072
:102A400090E0998388838EEF9FEFF0CF81E090E054
:102A50008BDD88E090E09983888390E080E0E6CF8A
:102A6000CF93DF930097D1F4EB01FB01329686E020
:102A7000DF011D928A95E9F78FEF888385E08983CE
:102A80001A820E94B1238B830E94B0239D838C8382
:102A900081E08E838F83DF91CF910895DF91CF9175
:102AA0001ACD84E894E19093A7048093A604089536
:102AB0008091A6049091A70408951092A704109203
:102AC000A60408958091A9049091AA040895411143
:102AD00005C0611571058105910561F06093A90438
:102AE0007093AA048093AB049093AC044093AD041C
:102AF00081E0089580E00895FF920F931F93CF9394
:102B0000DF938A01EC01C60FD71FF9800E94B12321
:102B1000F816190668F082E090E0F801918380834E
:102B20008EEF9FEFDF91CF911F910F91FF9008954E
:102B30006C817D818E819F814B81C9DF811108C0AD
:102B400082E090E0F8019183808384EF9FEFEACFE9
:102B500089818093A80490E00196F8019183808395
:102B600090E080E0DFCFCF93DF93EA01FC01E60F36
:102B7000F71F64817581868197814381A8DF811168
:102B800009C082E090E09983888384EF9FEFDF9112
:102B9000CF91089581E090E09983888390E080E070
:102BA000F6CFE9EAF4E04081518162817381480FF8
:102BB000511D611D711D408351836283738308958C
:102BC000CF93C091A8044C2F50E06091A90470915C
:102BD000AA0401960E94D7368C2FE3DF1092A80436
:102BE000CF910895009799F48091A9049091AA0437
:102BF0002FEFFB012083892B59F02091A80430E0AE
:102C00002F5F3F4F2417350719F4CB01D9CF63CC81
:102C10000895009799F48091A9049091AA042FEF48
:102C2000FB012083892B59F02091A80430E02F5F0D
:102C30003F4F2417350719F4CB01C2CF4CCC089570
:102C400023E1AC01249FC001259F900D1124E09148
:102C5000B204F091B304E80FF91F238134812250AC
:102C6000310981E02230310508F080E008950F93AA
:102C70001F93CF93DF930091B4041091B504D0E07B
:102C8000C0E080E00C171D0749F491E0811190E04D
:102C9000892FDF91CF911F910F9108958111F5CF69
:102CA000CE01CEDF2196EECFA091B204B091B30455
:102CB000109729F12091B4043091B504821793073D
:102CC000F0F453E1589F9001599F300D1124A20F49
:102CD000B31FED91FC911197309789F012968C916A
:102CE000681768F48DE0689FE00DF11D1124808164
:102CF0009181892B21F081E09281491708F080E0D1
:102D000008959C0143E1429FC001439F900D11240F
:102D1000E091B204F091B304E80FF91F838582308B
:102D200091F481E090E0658176814091F5025091C7
:102D3000F6026417750711F490E080E0892B19F012
:102D400081E0232B09F080E00895FC01A081B1818E
:102D50008DE0689FA00DB11D112413964D915C91DB
:102D600085859685489F9001499F300D589F300D6D
:102D70001124C9010196611103C0478144FD0496E5
:102D80000895EF92FF920F931F93CF93DF93EA0181
:102D9000FC01E60FF71F02811381E480F5804F2DBF
:102DA0006E2DC80181DF81110DC082E090E0998312
:102DB00088838EEF9FEFDF91CF911F910F91FF904E
:102DC000EF900895C8013CDF882339F082E090E05D
:102DD0009983888388EF9FEFEECF1093FC020093D6
:102DE000FB02E092FD02F092FE0281E090E0998306
:102DF000888390E080E0DFCFCF92DF92EF92FF9266
:102E00000F931F93CF93DF937A01EC01C60FD71F67
:102E1000C090FB02D090FC020091FD021091FE02D6
:102E2000412F602FC60140DF811110C082E090E089
:102E3000F701918380838AEF9FEFDF91CF911F91FC
:102E40000F91FF90EF90DF90CF900895C601F8DECC
:102E5000882341F082E090E0F7019183808388EF3E
:102E60009FEFEBCF4C815D816E817F819A8189815B
:102E70008F3F41F082E090E0F701918380838EEFF5
:102E80009FEFDBCFE3E1EC9D9001ED9D300D112430
:102E9000E091B204F091B304E20FF31F0190F081CE
:102EA000E02D2DE0029FE00DF11D11240190F08135
:102EB000E02D27E0129FE00DF11D11248083918306
:102EC0008B81828343835483658376831F5F109352
:102ED000FE0281E090E0F7019183808390E080E042
:102EE000ACCFEF92FF920F931F93CF93DF937A01B2
:102EF0008C01060F171FC091B204D091B304209724
:102F000081F021E030E0F801828193814091B404A6
:102F10005091B5048417950710F030E020E0232B82
:102F200071F482E090E0F701918380838EEF9FEF50
:102F3000DF91CF911F910F91FF90EF90089543E1A2
:102F4000489F9001499F300D1124C20FD31F78DE96
:102F5000882341F082E090E0F7019183808388EF3D
:102F60009FEFE6CFF8012481358120383105C8F67E
:102F700087818111D6CF4181842F90E08F7E009789
:102F800041F082E090E0F7019183808386EF9FEF2C
:102F9000CFCF4F833E832D83268128871986223009
:102FA00010F421E0288721E030E0F701318320830D
:102FB000BFCF88E090E0FA019183808390E080E0C9
:102FC0000895FB018FEF808381E181838FEF9FEF75
:102FD0009383828380E890E09583848316821782AE
:102FE0000895FB018FEF808391E091838283938327
:102FF000848384E3858381E090E0978386830895CA
:10300000DF92EF92FF920F931F93CF93DF93EA012A
:10301000FC01E60FF71F8181813071F082E090E0C2
:10302000998388838FEF9FEFDF91CF911F910F914D
:10303000FF90EF90DF90089582819381D480258165
:10304000E680F7800091B2041091B30401151105D8
:1030500039F482E090E0998388838CEF9FEFE4CF8E
:103060004091B4045091B5048417950738F082E07C
:1030700090E0998388838EEF9FEFD6CF892B39F02C
:1030800082E090E09983888386EF9FEFCDCF8D2DEE
:103090008D7FB1F72130A1F781E0D11006C091E01A
:1030A000E916F10431F080E004C0E2E0EE16F1042C
:1030B000D0F3882329F390E080E0C2DD882339F043
:1030C00082E090E09983888388EF9FEFADCFF8018D
:1030D000D38681E08487F686E586108A178681E0AC
:1030E00090E09983888390E080E09ECF4CE050E0B0
:1030F00062E573E057CA8F929F92BF92CF92DF92A0
:10310000EF92FF920F931F93CF93DF93EA01FC019D
:10311000E60FF71F828193810481B580E091B204AC
:10312000F091B304309791F482E090E09983888322
:103130008CEF9FEFDF91CF911F910F91FF90EF9058
:10314000DF90CF90BF909F908F9008952091B4040E
:103150003091B5048217930738F082E090E09983AC
:1031600088838EEF9FEFE6CF23E1289F6001299FA0
:10317000D00C1124EC0DFD1DE080F180E114F10470
:1031800099F28281081748F78DE0089F8001112489
:10319000E00EF11EF70180819181892B29F6BB2079
:1031A000E1F2F7E0BF9E40011124C4010E94B52462
:1031B000F70191838083E091B204F091B304EC0DA8
:1031C000FD1D0190F081E02DE00FF11F80819181C4
:1031D000009739F482E090E0998388838DEF9FEF28
:1031E000A9CFA40170E060E00E94E0368091B204B3
:1031F0009091B304C80ED91EF60180819181080F09
:10320000191FF801B28281E090E09983888390E0F1
:1032100080E090CFAF92BF92CF92DF92FF920F9358
:103220001F93CF93DF93EA01FC01E60FF71F828122
:103230009381F4800091B2041091B304011511053B
:1032400081F482E090E0998388838CEF9FEFDF9197
:10325000CF911F910F91FF90DF90CF90BF90AF90D3
:1032600008952091B4043091B5048217930738F083
:1032700082E090E0998388838EEF9FEFE8CF2FEF75
:103280002F0D2C3FA8F723E1289F6001299FD00C28
:1032900011240C0D1D1DF80180819181892B89F667
:1032A000FDE0FF9E50011124C5010E94B524F801E4
:1032B00091838083E091B204F091B304EC0DFD1D85
:1032C00080819181009739F482E090E0998388832E
:1032D0008DEF9FEFBCCFA50170E060E00E94E0366B
:1032E000E091B204F091B304EC0DFD1DF28281E097
:1032F00090E09983888390E080E0A9CFCF92DF921D
:10330000EF92FF920F931F93CF93DF93860F971F38
:10331000FC01028113818091B2049091B304892B46
:1033200081F082E090E0FA01918380838CEF9FEF3F
:10333000DF91CF911F910F91FF90EF90DF90CF9091
:103340000895C801B0E0A0E00197A109B1098F3F3D
:103350009F4FA105B10540F082E090E0FA01918312
:1033600080838EEF9FEFE4CF7A0183E1809F60013D
:10337000819FD00C1124C6010E94B524EC01009756
:1033800041F482E090E0F701918380838DEF9FEF1D
:10339000CFCFA60170E060E00E94E036D093B30486
:1033A000C093B2041093B5040093B40490E080E09D
:1033B0002FEF3FEF41E061E070E08017910741F4AB
:1033C00081E090E0F7019183808390E080E0B0CFCE
:1033D0003A8B298B1B864C877E876D87188A1F86C0
:1033E00001966396EACFEF92FF921F93CF93DF93FC
:1033F000EC0110E0F12CE12C6A811617B0F083E0AB
:10340000689FB0011124AE014F5E5F4FC7010E945B
:103410001A25009721F02FEF3FEF3A8B298BDF9190
:10342000CF911F91FF90EF900895612FCE018DDC19
:1034300061E070E00E946223E816F90608F47C015E
:103440001F5FDACFF8942091B0043091B10481E08D
:103450002115310509F080E0232B09F078940895B7
:103460002F923F924F925F926F927F928F929F9294
:10347000AF92BF92CF92DF92EF92FF920F931F9382
:10348000CF93DF933C01660E771EF3018281938117
:103490004C01B12CA12CC091B204D091B30420975F
:1034A00069F021E030E06091B4047091B5048617B2
:1034B000970710F030E020E0232BD1F482E090E079
:1034C000FA01918380838EEF9FEFDF91CF911F915F
:1034D0000F91FF90EF90DF90CF90BF90AF909F90B3
:1034E0008F907F906F905F904F903F902F900895B6
:1034F0008092FF0290920003A0920103B092020317
:1035000063E1689F9001699F300D1124C20FD31FA2
:10351000F3018181833040F082E090E0FA019183F1
:10352000808386EF9FEFD1CF2A012B813C81232B13
:10353000F1F4288139819F8191FF2EC0232B09F45A
:103540006FC02091B7049A81422F490F5527551F0C
:10355000BA0141E050E06138710514F050E040E0FC
:10356000452B09F45DC02A87920F9093B7048150D0
:10357000823008F481C066DF882309F4D8C0F301E3
:103580008181813009F48DC008F47BC0823009F458
:10359000C6C090E080E0ADC0232B09F441C020916B
:1035A000B6049A81E22FE90FFF27FF1F41E050E0A8
:1035B000ED3FF10514F050E040E0452B89F12A87FA
:1035C000920F9093B604D3CFA081B181A20FB31F05
:1035D00011966C91060F111D0196295F3F4F8417BC
:1035E000950794F38D859E85089F1001099F300CE7
:1035F000189F300C1124C114D104D1F48F8184FFA1
:1036000017C00E94B023F5E02F0E311C21E0821577
:10361000930508F420E0A701435F5F4F21110EC01E
:1036200082E090E0F2019183808387EF9FEF4DCF9E
:103630000E94B0232FEF221A320AE8CF88819981A5
:10364000E80EF91EF70114830383FFEFCF1ADF0A98
:103650007A018A818C151D0409F00CF48CCFE88165
:10366000F981EE0DFF1D428150E030E020E010E0D6
:1036700000E090E080E0B3CFF12CE12CD12CC12C04
:10368000E8CF81E090E09C838B83F1DA882309F412
:1036900080CF81E090E00E94B41280E40E94C212C8
:1036A00078CF89899A89019661F083E090E09C83C4
:1036B0008B8382E090E00E94B41280E40E94BC12EE
:1036C00068CF8D819E812091F5023091F60282179C
:1036D0009307D1F46091F9027091FA02AE014F5E46
:1036E0005F4F8091F7029091F8020E94392600976F
:1036F000E1F2789422E030E0F20131832083892BDB
:1037000099F08DEF9FEFE1CE89288A288B2869F602
:10371000892B59F6CE0167DE188A1F86E8CF82E032
:1037200090E09C838B8335CF90E080E0CECE82E02A
:1037300090E0F2019183808385EF9FEFC6CE8F9258
:103740009F92AF92BF92CF92DF92EF92FF920F9330
:103750001F93CF93DF93EA018C01060F171FF80127
:103760008181833098F082E090E09983888386EFAE
:103770009FEFDF91CF911F910F91FF90EF90DF901E
:10378000CF90BF90AF909F908F9008958091B2049A
:103790009091B304892B61F081E090E02091B40412
:1037A0003091B504232B11F490E080E0892B39F49B
:1037B00082E090E0998388838EEF9FEFDACF42DE3C
:1037C000882309F4DFC0F8018181813009F495C0B4
:1037D000E8F0823099F42091B4043091B504E0917E
:1037E000B204F091B30490E080E041E050E028178B
:1037F000390709F0BDC03BDA811117C0789481E028
:1038000090E09983888390E080E0B3CF2091B40466
:103810003091B504E091B204F091B30490E080E0FF
:1038200041E050E02817390741F481E090E00E9420
:10383000B41280E40E94C212E1CF63817481672BCD
:1038400011F05483438301967396ECCFE091B20458
:10385000F091B304E00FF11F238134812230310550
:10386000D9F4218932892F3F3F4FB1F42581368128
:103870004091F5025091F6022417350761F5AF012A
:103880004F5E5F4F6091F9027091FA028091F702EA
:103890009091F8020E943926EFEFCE1ADE0AEE0A66
:1038A000FE0A0D5E1F4F4091B4045091B50470E0C4
:1038B00060E0C416D506E606F7063CF5009731F23F
:1038C0007894892B09F49BCF82E090E099838883D8
:1038D0008DEF9FEF4ECFC114D104E104F104E1F666
:1038E000232BD1F6CF017FDDE091B204F091B30438
:1038F000E00FF11F108A1786CFCF10E000E090E0B4
:1039000080E0C12CD12C7601CECF0097C9F610E013
:1039100000E0812C912C540183E0E82EF12C1AC098
:10392000E091B204F091B304E00FF11F8381948120
:10393000029749F4F482E38282E090E00E94B4129C
:1039400080E40E94BC12FFEF8F1A9F0AAF0ABF0AE1
:103950000D5E1F4F8091B4049091B504B0E0A0E0DB
:1039600088169906AA06BB06DCF290E080E0A8CF94
:10397000638174816230710511F45483438301962D
:10398000739635CF82E090E09983888385EF9FEF2F
:10399000F0CE0097B9F48FEFFB0180832091FF02F6
:1039A0003091000343E1429FC001439F900D1124D9
:1039B000E091B204F091B304E80FF91F8285FB0196
:1039C000818308950C946B1288E090E0FA01918352
:1039D000808390E080E008951092B1041092B004CA
:1039E000E2EBF4E086E0DF011D928A95E9F786E7D5
:1039F00098E19093AF048093AE0408958091AE0453
:103A00009091AF0408952F923F924F925F926F92E0
:103A10007F928F929F92AF92BF92CF92DF92EF925E
:103A2000FF920F931F93CF93DF93CDB7DEB72F97FE
:103A30000FB6F894DEBF0FBECDBFF894E091B0048E
:103A4000F091B1043196F093B104E093B00478940E
:103A50004090B2045090B3044114510409F40CC2D4
:103A6000E091B404F091B504EF2B09F405C22D8761
:103A700049875A876B877C8798878F831201B12C7F
:103A8000A12C10E000E08091B4049091B504A81638
:103A9000B90618F40115110529F1F8948091B004C4
:103AA0009091B10401979093B1048093B0047894FD
:103AB000C8012F960FB6F894DEBF0FBECDBFDF91C1
:103AC000CF911F910F91FF90EF90DF90CF90BF901B
:103AD000AF909F908F907F906F905F904F903F90AE
:103AE0002F9008957101E418F508D10117968C9173
:103AF000179781FD54C013968D919C91149703974D
:103B000009F04DC015968D919C91EF81F8858E1727
:103B10009F0709F044C0B50190E080E07FD48A831C
:103B20002091B2043091B3043D832C833D8533232F
:103B300009F44CC04C815D81452B09F49AC18091F8
:103B4000B4049091B504A816B90608F092C1C50155
:103B5000D8D88823E9F06C817D816E0D7F1D7D832F
:103B60006C83DB011F968D919C91892B89F0D12C60
:103B7000C12CF12CE12CAC81BD8112968C91129755
:103B80008E151F0409F094F450961C921E921F97F4
:103B90002A81222321F0B50190E080E041D43FEF5B
:103BA000A31AB30A43E1240E311C6DCFAC81BD8151
:103BB000ED91FC91EC0DFD1D858196810FD7BFEF36
:103BC000EB1AFB0AEDE0CE0ED11CD5CFEC81FD81C6
:103BD000309709F44EC18091B4049091B504A816B1
:103BE000B90608F046C1EE0DFF1DFF87EE87C5013F
:103BF00088D88B83882339F1AE85BF851F968D9138
:103C00009C915097019621E01D964D915C918417EF
:103C1000950709F020E02E831982712C10E000E056
:103C2000AE85BF8512968C91781608F45DC0EE853E
:103C3000FF85878590890196658576850E94803607
:103C4000908B8787A5CFB1E0BE83E6CF992493946C
:103C50006BC08BD6F6019683858382C0D601ED902A
:103C6000FC90B7E06B9EE00CF11C1124F70163811E
:103C7000748180818F3F61F121E030E002C0220F2A
:103C8000331F8A95E2F7C901092E000CAA0BBB0B62
:103C9000FB01408151816281738184239523A62396
:103CA000B72321E0892B8A2B8B2B09F420E0D40148
:103CB0002C93D70111968C91F60123853485820FC0
:103CC000932F911D880E991E1486138663949BC0B2
:103CD000418150E0C4010E94D736EBCF998206EFB4
:103CE0001FEFC5C01982C3C0F981F111A0CFEDE06B
:103CF0007E9E70011124AE85BF85CD90DC90CE0CE8
:103D0000DF1C15D49D838C83BB81BB2309F49ECF1C
:103D100081E0EE85FF8527853089232B09F080E03F
:103D2000982E882309F458C0672D8E859F850DD85D
:103D3000D60118969C938E93179761E070E0C2D4D9
:103D4000EE85FF85218932892F3F320709F481CF23
:103D5000BC01C901CFD7D60116969C938E931597B7
:103D6000D60115968D919C911697009709F4B6CFC0
:103D7000EC81FD818E0F9F1F1A969C938E9319974D
:103D8000AE85BF85ED91FC911197EE0EFF1EF701F8
:103D900021853285148613861A968C91870DD90158
:103DA0008D93711016C0EE85FF85878184FF11C049
:103DB00049855A856B857C85F901418352836383EC
:103DC0007483F701838594850496A80FB91F148620
:103DD0001386F701B287A187D60115968D919C9124
:103DE0001697892B09F443C0EE85FF85258136811E
:103DF0008091F5029091F6022817390779F019960B
:103E00008D909C90612CD60112968C911297681619
:103E100008F424CF1A969C928E921997BE81BB23E8
:103E200009F460CF61E070E0F601878190854AD4A3
:103E3000D6011796ED90FC90189715964D915C91D0
:103E4000E1E0F0E0BA81BB2311F0F0E0E0E00C81AA
:103E50001D819C01B501882799278E1B9F0B6AD372
:103E60008C01892B21F0F60185819681B7D5739459
:103E7000D7CE0FEF1FEF8CCE10E000E00ECE2F92CA
:103E80003F924F925F926F927F928F929F92AF92EA
:103E9000BF92CF92DF92EF92FF920F931F93CF9337
:103EA000DF938091B2049091B30410E000E0892B7D
:103EB000A9F0C8DA0AEF1FEF882381F02090B4043C
:103EC0003090B504C091B204D091B304D12CC12C70
:103ED00010E000E02C143D04A9F47894C801DF91AF
:103EE000CF911F910F91FF90EF90DF90CF90BF90F7
:103EF000AF909F908F907F906F905F904F903F908A
:103F00002F900895C6010E948116882309F18B81A4
:103F10009C810397E9F48F859889892BC9F0B601B4
:103F200090E080E07BD221E030E0882311F030E0A7
:103F300020E044245524421A530AB12CA12C912C80
:103F4000812C8A818815190409F038F4188A1F8693
:103F50004FEFC41AD40A6396BDCFE881F981EA0D08
:103F6000FB1D85819681892BA1F161E070E087813D
:103F70009085A8D33C01DBD28C01E881F981EA0D60
:103F8000FB1D8185928525813681200F311FAC0173
:103F9000421B530B9A0147815085421B530B70E023
:103FA00060E00E94E036E881F981EA0DFB1DE780C0
:103FB000F084458156819301B601C201BBD28C01C8
:103FC000892B39F0E881F981EA0DFB1D8581968105
:103FD00005D55FEF851A950A8DE0A80EB11CB1CF0B
:103FE00031CA789408952F923F924F925F926F92C8
:103FF0007F929F92AF92BF92CF92DF92EF92FF9209
:104000000F931F93CF93DF9300D000D0CDB7DEB7CF
:104010000091B2041091B3049924939401151105F1
:1040200009F43EC0A090B404B090B5040BDA982E09
:104030008823B1F11092B3041092B2041092B50427
:104040001092B4041092B6041092B7048FEF9FEF51
:10405000DC018093FF0290930003A0930103B093CF
:10406000020378947FD31E830D83C12CD12C76015B
:10407000C501B0E0A0E089839A83AB83BC8322248E
:104080002A94322C89819A81AB81BC81C816D906C9
:10409000EA06FB06F4F0C801A1D480E40E94C21233
:1040A000892D26960FB6F894DEBF0FBECDBFDF91E7
:1040B000CF911F910F91FF90EF90DF90CF90BF9025
:1040C000AF909F907F906F905F904F903F902F9018
:1040D0000895AD81BE8115968D919C911697209182
:1040E000F5023091F60282179307D1F451968D9123
:1040F0009C91EED5ED81FE8180819181B12CA12C26
:10410000412C512C3201892B89F5BFEFCB1ADB0AE8
:10411000EB0AFB0AED81FE817396FE83ED83B2CF3D
:10412000C114D104E104F10429F7892B19F7ED81B9
:10413000FE81818992898F3F980709F029D5AD8149
:10414000BE8152963C922E925197D4CF8A0D9B1DE0
:10415000DC018D919C91009709F040D4BFEF4B1A80
:104160005B0A6B0A7B0AEDE0AE0EB11CAD81BE812D
:104170008D919C91119712964C9150E070E060E007
:1041800044165506660677060CF328D4BECFCF93A7
:10419000DF93EA0128DF811109C082E090E0998372
:1041A000888385EF9FEFDF91CF91089581E090E0C4
:1041B0000E94B41281E090E09983888390E080E0CF
:1041C000F2CF11DF1092AF041092AE04089542E0D6
:1041D00050E06AE973E00C94D212FF920F931F93A0
:1041E000CF93DF938A01EC01C60FD71FF980B9D2B4
:1041F0000897F816190671F068F082E090E0F8016F
:10420000918380838EEF9FEFDF91CF911F910F916C
:10421000FF9008956C817D818E819F814B810E94EA
:104220006715811108C082E090E0F80191838083D6
:1042300084EF9FEFE9CFF9800E9462154F2D50E087
:10424000BE01685F7F4F0E94D73689810E94D115D9
:1042500081E090E0F8019183808390E080E0D4CF0A
:10426000DF92EF92FF920F931F93CF93DF938A0118
:10427000EC01C60FD71F0E9462157C01D98071D254
:10428000DD2059F0029721E030E0D816190619F028
:1042900010F030E020E0232B79F482E090E0F80188
:1042A000918380838EEF9FEFDF91CF911F910F91CC
:1042B000FF90EF90DF900895EF2841F482E090E0C6
:1042C000F8019183808384EF9FEFEECFF9800E9405
:1042D00062154F2D50E0BE016E5F7F4F0E94D736B2
:1042E00089810E94D11581E090E0F801918380835B
:1042F00090E080E0D9CF87EE90E29093B90480936C
:10430000B80408958091B8049091B904089508956F
:10431000FC0111821082938382830895DB011D9238
:104320001C92DC011296ED91FC91139771836083CE
:1043300013967C936E9312970895FC01808191816E
:10434000DB018D939C93A081B181109741F08D91F9
:104350009C9191838083892B11F4F383E2830895E8
:10436000FC0180819181DB018D939C93892B11F459
:1043700073836283718360830895FC0111821082CC
:10438000938382830895CF93DF931F921F92CDB7BB
:10439000DEB71A821982F894BE016F5F7F4F8FEBF0
:1043A00094E0CBDF89819A81009709F017D3898146
:1043B0009A81892B89F7BE016F5F7F4F83EC94E070
:1043C000BCDF89819A81009709F008D389819A819D
:1043D000892B89F778940F900F90DF91CF910895F2
:1043E000CF93DF931F921F92CDB7DEB71A82198247
:1043F000F894BE016F5F7F4F8BEB94E09EDF898165
:104400009A81009709F0EAD289819A81892B89F7EC
:1044100078940F900F90DF91CF91089581E00895E7
:1044200090E080E00895EF92FF920F931F93CF9357
:10443000DF931F921F92CDB7DEB71A821982809147
:10444000BA0407EF1FEF8823A1F1F894BE016F5F54
:104450007F4F83EC94E071DF789489819A81EE2418
:10446000E394F12C892B51F4F894BE016F5F7F4FD8
:104470008FEB94E062DF7894F12CE12C89819A81B2
:104480000EEF1FEF0097A9F0FC014281538164E019
:1044900070E076D68C01892B61F0F89469817A817D
:1044A000C701880F991F880F991F81549B4F58DFB0
:1044B0007894C8010F900F90DF91CF911F910F91C9
:1044C000FF90EF9008950F931F93CF93DF9300D049
:1044D0001F92CDB7DEB71C821B821A82198280918F
:1044E000BA0407EF1FEF8823C1F0AE014D5F5F4FA5
:1044F00064E070E0CE010196B6D68C01892B69F498
:10450000E981FA818B819C8193838283F89469810C
:104510007A818BEB94E002DF7894C8010F900F90C2
:104520000F900F90DF91CF911F910F910895BBD7FE
:10453000049608958F929F92AF92BF92CF92DF928E
:10454000EF92FF920F931F93CF93DF931F921F92CF
:10455000CDB7DEB71A821982BC016F5F7F4F63301F
:10456000710598F0AA24AA94BA2CC5010F900F9057
:10457000DF91CF911F910F91FF90EF90DF90CF903F
:10458000BF90AF909F908F9008954115510551F3C2
:10459000480159018A016C01CADF8815990511F794
:1045A000E114F104F9F28E0D9F1DA816B906D0F2A0
:1045B0008091BA048823F1F0F894B5016450710930
:1045C0009701AE014F5F5F4FC8010496E1D65C01D1
:1045D000892B71F489819A81F80193838283C601C2
:1045E000880F991F880F991FB80181549B4F96DE41
:1045F0007894BBCF87EFA82EBB24BA94B6CFAF92E6
:10460000BF92CF92DF92EF92FF920F931F93CF93BF
:10461000DF931F921F92CDB7DEB71A821982892BC2
:1046200009F047C06115710509F443C041155105F2
:1046300009F43FC02115310509F43BC001151105EE
:10464000C1F18091BA048823B9F179016A015B0153
:10465000F894BE016F5F7F4F8BEB94E06EDE789431
:1046600089819A81009759F1DC0112966D917C91B4
:10467000A8010496A6D68C01E981FA81D501ED93B3
:10468000FC93828193810496F601918380834FDFAE
:10469000D7018D939C93C8010F900F90DF91CF911C
:1046A0001F910F91FF90EF90DF90CF90BF90AF9050
:1046B00008950FEF1FEFEFCF07EF1FEFECCF0EEFD7
:1046C0001FEFE9CFCF93DF93EC01672B71F4F4D6A2
:1046D0008C179D0760F0E7D62496C80FD91FE6D641
:1046E0008C0F9D1FDF91CF910895E3D6F1CF90E01D
:1046F00080E0F8CF0F931F93CF93DF932091BA04FC
:1047000021112BC08B01EC018FEB94E001DE83ECD7
:1047100094E0FEDD8BEB94E0FBDD97D00097C1F4D5
:10472000CBD670E060E0CEDF43E053E062E070E0C3
:1047300081D1009769F48091030390910403CED650
:10474000B801CE0103D5009719F421E02093BA04F3
:10475000DF91CF911F910F91089584EF9FEFF8CFD4
:10476000A8C6AAC6CF93DF93AAD6EC01892B11F471
:104770000ADE36DECE01DF91CF910895CF93DF932D
:104780009ED6EC01892B09F4FEDDCE01DF91CF919D
:10479000089580910303909104030895CF93DF93CC
:1047A0008091BA04D0E0C0E08823D1F09CD6EC011F
:1047B000892BB1F4E8DD14DE8091030390910403AA
:1047C000E7D1E8D2EC01892B59F48FEB94E0D5DDE9
:1047D00083EC94E0D2DD8BEB94E0CFDD1092BA0451
:1047E000CE01DF91CF910895EF92FF920F931F9327
:1047F000CF93DF93EC017A018B010F5F1F4F0E9D6A
:10480000A0010F9D500D1E9D500D112470E060E021
:104810000E94E03690E080E0F0E0E0E02FEFE81664
:10482000F90639F4DF91CF911F910F91FF90EF902E
:1048300008951A8219822883309711F0D283C18398
:104840000196FE01C00FD11FEACFCF92DF92EF9207
:10485000FF920F931F93CF93DF9304E416E00C7F36
:1048600043E050E065E073E08BE093E01CD485E02A
:10487000E82E83E0F82E9BE0C92E93E0D92EC3ECFE
:10488000D6E0D7014D915D917D01F6016191719165
:104890006F01198308835D834C835B834A837F8325
:1048A0006E839B012F5F3F4F249FC001259F900D7A
:1048B000349F900D1124998788870115110511F0F7
:1048C000C80192DF88859985080F191F2A96FBE099
:1048D000EF16F3E0FF06A9F6E9ECF4E088E791E0D3
:1048E000DF019C011D9221503040E1F71092C80475
:1048F0001092C7041092E2061092E1061092E606AA
:104900001092E5061092E4061092E3061092E80673
:104910001092E7061092EA061092E9061092EC0651
:104920001092EB061092F0061092EF061092EE062F
:104930001092ED061092F2061092F1061092F40613
:104940001092F3061092C0061092BF061092C20693
:104950001092C10690E080E0DF91CF911F910F91FE
:10496000FF90EF90DF90CF9008950097F1F0F894CA
:10497000ABE0B3E0E3ECF6E030E020E04D915D9198
:1049800048175907A8F0428153814115510581F01C
:104990008AE0829FF001839FF00D1124ED53F94FBF
:1049A00080819181009759F4789490E080E0089597
:1049B0002F5F3F4F3A962330310501F7F5CFDC01E9
:1049C00011966D917C91718360834150510953839D
:1049D0004283FC012193CF0178940895009749F117
:1049E000DC018E91853041F4E091C106F091C20660
:1049F0003097F9F0CD0119948530D8F4282F30E0A4
:104A0000F8948FEF8C938AE0829FF001839FF00DE2
:104A10001124ED53F94F8081918112969C938E93CE
:104A20001197B183A08382819381019693838283BE
:104A300078940895CF92DF92EF92FF920F931F9395
:104A4000CF93DF939C018CEC94E08C7F4115510552
:104A500009F49BC02115310509F497C06115710552
:104A600009F493C07A01AB01B9016D5F7F4F6C7F90
:104A70009B012F5F3F4F249F8001259F100D349F86
:104A8000100D1124F8942091E1063091E206232BB9
:104A900059F42091E9063091EA062115310569F1B2
:104AA0002017310708F058C02091EB063091EC0632
:104AB000232B91F42091E9063091EA06820F931F8F
:104AC0002091F3063091F4062115310509F441C017
:104AD0002017310708F056C07894CFEFDFEF86EF4C
:104AE0009FEFF701D183C083DF91CF911F910F9189
:104AF000FF90EF90DF90CF900895C3E0D0E0C0909A
:104B0000C704D090C80425E731E02C193D092017CF
:104B1000310710F32AE02C9FF0012D9FF00D112496
:104B2000ED53F94F918380835583448353834283AC
:104B30007783668311870087009709F055DE0C0D97
:104B40001D1D1093C8040093C704789490E080E082
:104B5000C8CFC4E0D0E0D3CFC3E0D0E02AE02C9FA0
:104B6000F0012D9FF00D1124ED53F94F91838083B7
:104B7000558344835383428377836683009729F365
:104B800033DEE3CFC4E0D0E0E9CF8FEF9FEFACCFCF
:104B90009C010397029708F069C0F89484E09AE0BA
:104BA000482F50E0241735070CF44DC091E08AE0FF
:104BB000829FF001839FF00D1124ED53F94F118274
:104BC0001082158214821382128217821682992310
:104BD000B1F18091E1069091E206892BA9F4209130
:104BE000E9063091EA062115310571F08091C7047C
:104BF0009091C804821B930B9093C8048093C704C0
:104C00001092EA061092E9068091EB069091EC066C
:104C1000892BA9F42091F3063091F4062115310572
:104C200071F08091C7049091C804821B930B9093FC
:104C3000C8048093C7041092F4061092F306789487
:104C400090E080E00895949FF001959FF00D11246D
:104C5000ED53F94F40815181452B31F44085518509
:104C6000452B11F481509CCF90E0A1CF8FEF9FEFA7
:104C700008954115510549F1009739F16115710504
:104C800021F1F8942091BF063091C006232BB9F48E
:104C90002091C1063091C206232B89F49093C0065F
:104CA0008093BF067093C2066093C106789425E096
:104CB00030E090E080E0FA01318320830895789419
:104CC0002FEF3FEF86EF9FEFF6CF8FEF9FEF089527
:104CD000059769F4F8941092C0061092BF061092DE
:104CE000C2061092C106789490E080E008958FEF9C
:104CF0009FEF08956115710519F4F0E0E0E011C02F
:104D00008530910581F4E091BF06F091C00630979F
:104D1000A1F3CB0101961995009779F3FC0185E089
:104D20008193CF0108959C01235031092230310530
:104D300020F72AE0289FD001299FB00D1124AD5300
:104D4000B94F2D913C911197232BB9F216962D91C5
:104D50003C9117972617370780F2F89412962D91F9
:104D60003C9113972115310529F0ED91FC91119794
:104D7000309711F47894C1CF4181528111965C93A0
:104D80004E932150310913963C932E9312978193A1
:104D90007894C7CFE1E4F6E08EE7DF011D928A95B3
:104DA000E9F7E9ECF4E088E791E0DF019C011D926E
:104DB00021503040E1F71092C8041092C704E3EC90
:104DC000F6E082E3DF011D928A95E9F7EFEBF6E06A
:104DD00084E0DF011D928A95E9F790E080E0089574
:104DE000CF93DF93C0911103D0911203CF3FDC0723
:104DF00059F423D4909312038093110397FF09C0B1
:104E0000D0931203C093110384EF9FEFDF91CF91F2
:104E1000089590E080E0FACF8230910528F48093E5
:104E2000F50690E080E008958FEF9FEF08954F9290
:104E30005F926F927F92AF92BF92CF92DF92EF928A
:104E4000FF920F931F93CF93DF931F921F92CDB7C3
:104E5000DEB71A821982009709F479C061157105CD
:104E600009F475C0209111033091120307EF1FEF71
:104E70002F3F3F4F09F445C06B015C01412C512C81
:104E80003201F12CE12C10E000E09E012F5F3F4F3A
:104E9000A6014E195F09B5016E0D7F1D80911103AA
:104EA0009091120329D4892B09F04BC089819A81F2
:104EB000009741F4E114F10429F42091F50622232E
:104EC00009F442C0E80EF91EEC14FD04D0F480E8A9
:104ED000481684E858068EE16806710420F560E003
:104EE00070E0CB010E94BD302AE0420E511C611CD3
:104EF000711C0A3F4FEF140721F0043F8FEF180792
:104F0000A1F4C8010F900F90DF91CF911F910F91E5
:104F1000FF90EF90DF90CF90BF90AF907F906F9019
:104F20005F904F90089501EF1FEF81E090E0013F07
:104F30002FEF120711F090E080E0892B09F4A5CF44
:104F4000E0CF04EF1FEFDDCF0AEF1FEFDACF0FEF57
:104F50001FEFD7CF4F925F926F927F92AF92BF9227
:104F6000CF92DF92EF92FF920F931F93CF93DF9335
:104F70001F921F92CDB7DEB71A821982009709F4EB
:104F800079C06115710509F475C020911103309144
:104F9000120307EF1FEF2F3F3F4F09F445C06B018E
:104FA0005C01412C512C3201F12CE12C10E000E08D
:104FB0009E012F5F3F4FA6014E195F09B5016E0D8F
:104FC0007F1D80911103909112034CD3892B09F01E
:104FD0004BC089819A81009741F4E114F10429F4CE
:104FE0002091F506222309F442C0E80EF91EEC14C4
:104FF000FD04D0F480E4481682E458068FE0680689
:10500000710420F560E070E0CB010E94BD302AE021
:10501000420E511C611C711C0E3F4FEF140721F012
:10502000043F8FEF1807A1F4C8010F900F90DF9194
:10503000CF911F910F91FF90EF90DF90CF90BF9095
:10504000AF907F906F905F904F90089502EF1FEFA9
:1050500081E090E0023F2FEF120711F090E080E036
:10506000892B09F4A5CFE0CF04EF1FEFDDCF0EEFC2
:105070001FEFDACF0FEF1FEFD7CF80911103909181
:1050800012038F3F980749F0D0D2892B49F48FEF54
:105090009FEF909312038093110390E080E00895B6
:1050A00084EF9FEF0895CF92DF92EF92FF920F93DC
:1050B0001F93CF93DF9321E04115510509F020E0C4
:1050C0004150510921112CC0DC01FB01D12CC12C14
:1050D00021E022C03FEFC31AD30A7D010D911D913B
:1050E000E701EA80FB80E016F106A8F42081318117
:1050F000E280F380F182E08233832283ED90FC90A2
:1051000011979D0122503109E901F982E882119637
:105110001C930E9320E03296C416D506D8F2D2CF57
:10512000DF91CF911F910F91FF90EF90DF90CF9083
:105130000895FC01680F791F90E080E0E617F707FB
:1051400009F408952191820F911DF8CF2091F60660
:10515000211113C045DE009791F41092FC061092C5
:10516000FB061092FA061092F9061092F8061092B9
:10517000F70621E02093F606089584EF9FEF089547
:10518000AF92BF92CF92DF92EF92FF920F931F9355
:10519000CF93DF93009709F460C04630510508F4BF
:1051A0005CC02091F606C7EFDFEF222309F449C067
:1051B0008C01060F171FF801C080D180C114D104E3
:1051C00009F44EC096012A5F3F4F4217530708F477
:1051D00047C07C018091FB069091FC0693838283FB
:1051E000B6016C5F7F4F5801A60EB71EC801A1DF44
:1051F000F5019183808364E070E0C80118DEEC0162
:10520000892BF9F481E090E007DEB601C80104962D
:105210000EDEEC01892B91F462E070E0C50107DE3F
:10522000EC01892B59F4C701D9DB8091FB069091E1
:10523000FC0601969093FC068093FB0690E080E0CC
:10524000EBDDCE01DF91CF911F910F91FF90EF9099
:10525000DF90CF90BF90AF900895CFEFDFEFF1CF09
:10526000C9EFDFEFEECF6F927F928F929F92AF9256
:10527000BF92CF92DF92EF92FF920F931F93CF9343
:10528000DF9300D01F92CDB7DEB7009709F47AC044
:105290004115510509F476C02091F60607EF1FEF7E
:1052A000222309F44DC03A017B015C0164E070E007
:1052B000CE0101964FDE8C01892B09F041C0098196
:1052C0001A810115110509F45AC0480186E0880EBB
:1052D000911CB701680D791D8091130390911403FF
:1052E00009DD6C01009709F450C0A70170E060E08F
:1052F0000E94E03689819A81AB81BC81EC0CFD1C57
:10530000F70181939193A193B1937F0181E090E0A4
:1053100083DDB801C7011EDE892B31F562E070E044
:10532000C701800F911F16DE8C01892BE9F490E0F4
:1053300080E072DDF501D182C082F301918280822A
:10534000C8010F900F900F900F90DF91CF911F9198
:105350000F91FF90EF90DF90CF90BF90AF909F9014
:105360008F907F906F90089590E080E055DDF5017B
:1053700011821082F30111821082C6012FDB09EF26
:105380001FEFDECF0FEF1FEFDBCF06EF1FEFD8CF02
:105390000097A1F04115510589F02115310571F0F3
:1053A000F90136966E177F0748F0DC012D933C9388
:1053B000DA01ED93FC9390E080E008958FEF9FEF8A
:1053C0000895AF92BF92CF92DF92EF92FF920F9328
:1053D0001F93CF93DF93009709F45FC041155105E8
:1053E00009F45BC06530710508F457C02091F606DA
:1053F000C7EFDFEF222391F1DC01CD90DC90119714
:105400001296ED91FC9196012A5F3F4FC9EFDFEFB5
:105410002617370719F5C091F706D091F80620979F
:1054200049F521E030E03093F8062093F7067A0141
:105430008C01F093FA06E093F9065601B4E0AB0E46
:10544000B11CB50176DE0A0D1B1DF80120813181EA
:105450008217930729F5D701CD92DC92CE01DF9117
:10546000CF911F910F91FF90EF90DF90CF90BF9061
:10547000AF9008952091F9063091FA062F5F3F4FC3
:10548000CCEFDFEFE217F30790F2CBEFDFEF2E1751
:105490003F0768F2D0E0C0E0CACFCFEFDFEFDECF4A
:1054A000C3EFDFEFDBCF84E090E0089582E090E08F
:1054B00008958CEF9FEF089580E290E00895109298
:1054C000FC061092FB061092FA061092F906109252
:1054D000F8061092F70690E080E008959093140388
:1054E0008093130308958091F606882391F0C5DD1B
:1054F000009789F41092FC061092FB061092FA06AF
:105500001092F9061092F8061092F7061092F6061D
:10551000089590E080E00895009749F061157105C5
:1055200031F0FC0111821082FB011182108208957A
:10553000F3CF26E030E040E855E260E070E090E034
:1055400080E000C08130910571F01CF4892B39F0A6
:1055500008958230910551F0039759F008958AE03B
:1055600097E00C94C23387EA97E0FBCF84E498E09D
:10557000F8CF81EE98E0F5CF1F920F920FB60F9201
:1055800011240BB60F922F933F934F935F936F931A
:105590007F938F939F93AF93BF93EF93FF938FE886
:1055A0009DEF9093250180932401BAD0FF91EF9154
:1055B000BF91AF919F918F917F916F915F914F912B
:1055C0003F912F910F900BBE0F900FBE0F901F9029
:1055D00018958FE89DEF9093250180932401A3E710
:1055E000B0E08C918E7F8C93E0E2F1E080818C7F43
:1055F0008083E1E2F1E08081877E80838081846026
:10560000808380818C7F80838C9181608C930895CE
:10561000E3E7F0E0808190819E7F90838170089520
:1056200081E008951092FD06089568EE73E080E031
:1056300090E0A3D590E080E0089526E030E040E0DF
:1056400052EC61E070E090E080E07CDF8AE097E07F
:10565000CFD7892B21F08AE097E0E4D7F7CF90E00D
:1056600080E00895CF92DF92EF92FF920F931F9305
:10567000CF93DF936B017A01E901198218828AE0E6
:1056800097E0B6D7892B69F18601CC24C39482E0D8
:10569000D82E8091FD06811110C08AE097E0C2D714
:1056A0000297B9F7C092FD06F801D1928F01888167
:1056B0009981019699838883ECCF888199818E1591
:1056C0009F0578F48AE097E0ADD78F3F9807A9F35C
:1056D000F80181938F01888199810196998388834C
:1056E000ECCF90E080E0DF91CF911F910F91FF9080
:1056F000EF90DF90CF9008950F931F93CF93DF9398
:10570000EA0189018AE097E00E945236F801D183CC
:10571000C08390E080E0DF91CF911F910F910895B9
:10572000CF92DF92EF92FF92CF93DF938091FE06AC
:1057300091E0980F9093FE06882379F021E030E005
:10574000309300072093FF068093FE06DF91CF91F0
:10575000FF90EF90DF90CF9008957894C09126034A
:10576000D09127036E8D7F8D88A199A1ABD120E0C8
:1057700030E040E85FE45CD26B017C016A8D7B8D98
:105780008C8D9D8D9FD19B01AC01C701B60199D035
:105790006DD16B017C010E948307B701A60190E0E7
:1057A00080E00E94D705F8948091FE068150CCCF0E
:1057B0000F931F93CF93DF931092DF091092DE09AE
:1057C00012D5B7DEC0912603D09127031982188223
:1057D0006FEF7FEFCB010E945A0670E060E090E02F
:1057E00080E00E94D904009709F03AC00E947A0A2A
:1057F000F8947894BE016A5D7F4F8A819B810E94F4
:10580000DC04892B59F46FEF7FEFCB010E946D050B
:105810000E945406882311F081E08AA7F894D9DE0B
:105820000E945706882311F080E008C00E945406A9
:105830008111FACF81E09AA59111F6CF8093DE090C
:1058400078940E94AF128C0178948091DE098111C6
:105850000CC00E94980B0E943906F89490E080E0FA
:10586000DF91CF911F910F9108950E9437060E94FA
:1058700057068823D9F081E08093DF099091DF09F2
:1058800081E0911180E08093DE098091DF09811130
:10589000BFDE0130110529F40E94AF12892B09F4F3
:1058A000C1DE0E94AF128C01BBDECFCF0E94540636
:1058B0008111E1CF81E09AA59111DECF80E0DCCFAC
:1058C0005058BB27AA270ED075C166D130F06BD1D6
:1058D00020F031F49F3F11F41EF45BC10EF4E0950B
:1058E000E7FB51C1E92F77D180F3BA17620773073D
:1058F0008407950718F071F49EF58FC10EF4E095BA
:105900000B2EBA2FA02D0B01B90190010C01CA0179
:10591000A0011124FF27591B99F0593F50F4503E24
:1059200068F11A16F040A22F232F342F4427585F16
:10593000F3CF469537952795A795F0405395C9F72E
:105940007EF41F16BA0B620B730B840BBAF09150E6
:10595000A1F0FF0FBB1F661F771F881FC2F70EC085
:10596000BA0F621F731F841F48F487957795679558
:10597000B795F7959E3F08F0B3CF9395880F08F041
:105980009927EE0F979587950895D9D008F481E06F
:1059900008950CD00FC107D140F0FED030F021F4B3
:1059A0005F3F19F0F0C0511139C1F3C014D198F321
:1059B0009923C9F35523B1F3951B550BBB27AA2790
:1059C00062177307840738F09F5F5F4F220F331F02
:1059D000441FAA1FA9F333D00E2E3AF0E0E830D0CE
:1059E00091505040E695001CCAF729D0FE2F27D0D1
:1059F000660F771F881FBB1F261737074807AB079F
:105A0000B0E809F0BB0B802DBF01FF2793585F4F13
:105A10002AF09E3F510568F0B6C000C15F3FECF32D
:105A2000983EDCF3869577956795B795F7959F5FD8
:105A3000C9F7880F911D9695879597F90895E1E02C
:105A4000660F771F881FBB1F621773078407BA078B
:105A500020F0621B730B840BBA0BEE1F88F7E095E6
:105A6000089504D06894B111D9C00895BCD088F0CD
:105A70009F5790F0B92F9927B751A0F0D1F0660F3A
:105A8000771F881F991F1AF0BA95C9F712C0B13055
:105A900081F0C3D0B1E00895C0C0672F782F882768
:105AA000B85F39F0B93FCCF3869577956795B39594
:105AB000D9F73EF490958095709561957F4F8F4F03
:105AC0009F4F0895E89409C097FB3EF49095809508
:105AD000709561957F4F8F4F9F4F9923A9F0F92FB4
