:1000000005C100000C94E10C0C940C0D0C94370D00
:100010000C94620D0C948D0D0C94B80D0C94E30DA2
:100020000C940E0E24C1000022C1000020C100006B
:100030001EC100001CC100001AC1000018C1000050
:1000400016C1000014C1000012C1000010C1000060
:100050000EC100000CC100000AC100000C94390E52
:1000600006C100000C94B2110C94E81100C100000C
:10007000FEC00000FCC00000FAC00000F8C0000094
:10008000F6C00000F4C00000F2C00000F0C00000A4
:100090000C943E120C947412EAC00000E8C00000F8
:1000A000E6C00000E4C00000E2C00000E0C00000C4
:1000B000DEC00000DCC00000DAC00000D8C00000D4
:1000C000D6C00000D4C000000C94170A0C94CA12C9
:1000D0000C940013CCC000000C9456130C948C1399
:1000E000C6C0000000000A0B02090C0D0E08070331
:1000F00004010000000000000000000000000000FB
:1001000000000000000000000000000000000000EF
:1001100012111000000000000000000000000000AC
:100120000000000000000000000001021020200874
:100130000810204010204080020102010804020142
:1001400001020408102040808040201008040201B1
:10015000800402018040201008040201080402010A
:100160000102040810204080010204081020408091
:1001700005050505070508080808020202020A0A23
:100180000808040404040101010101010101030341
:10019000030303030303040707070C0C0C0C0C0CEC
:1001A0000C0C0202020206060606060606060B0BE9
:1001B0000B0B0B0B0B0B000020002300260029006B
:1001C0002C002F003200000100000301060109018C
:1001D00000002200250028002B002E0031003400F2
:1001E00002010000050108010B01000021002400AC
:1001F00027002A002D003000330001010000040117
:1002000007010A0111129D122913B51311241FBEF3
:10021000CFEFD1E2DEBFCDBF00E00CBF12E0A0E027
:10022000B2E0E6E7F8E200E00BBF02C007900D92F3
:10023000A03AB107D9F725E0A0EAB2E001C01D92CB
:10024000A83BB207E1F711E0C6E0D1E000E006C04C
:1002500021970109802FFE010E943114C230D1077D
:1002600080E00807A9F70E947D0A0C943914C8CED3
:10027000CF92DF92EF92FF92CF93882351F16A01E0
:100280007B01CFEFC80F20E030E0A901CB01B60120
:100290000E94190B18168CF0C701B60190580E94E5
:1002A000220B9B01AC016C2F70E090E080E0CF91BD
:1002B000FF90EF90DF90CF90B2C0C701B6010E94CF
:1002C0001D0B8C2FCF91FF90EF90DF90CF900C946F
:1002D000E50ECF91FF90EF90DF90CF9008950F93B0
:1002E0001F938B019C0183E0369527951795079501
:1002F0008A95D1F700561D4F462F477021E030E018
:10030000F90102C0EE0FFF1F4A95E2F7AF01F801B5
:1003100020812423CB010196211102C090E080E0CE
:100320001F910F9108950F931F938B019C0183E000
:1003300036952795179507958A95D1F7677081E0CF
:1003400090E001C0880F6A95EAF7F801E056FD4F8A
:100350002081452B31F48095822380831F910F915A
:100360000895822BFACF2F923F924F925F926F9215
:100370007F928F929F92AF92BF92CF92DF92EF9235
:10038000FF920F931F93CF93DF93D62EC72E782E15
:10039000692E49015A01280161E08D2D0E941F102C
:1003A000CD2DDC2D8E010F5F1F4FA8016D2D7C2DF3
:1003B000872D962DB8DF20E030E0A901C201B701FA
:1003C0000E94000C181664F4C201B7010E94220BAF
:1003D0002B01C501B4010E94220BA201CE0123D042
:1003E000C801DF91CF911F910F91FF90EF90DF90A7
:1003F000CF90BF90AF909F908F907F906F905F90C5
:100400004F903F902F900895882341F08150682F9E
:1004100070E090E080E050E040E085CF0895862FC6
:10042000B9010C94E50E9C01FC01EC51FF4FE491E5
:10043000E150E231E0F4F0E08827EE5DFD4F8F4FB0
:100440000C94311434023B023E0255026A02370218
:100450007F028B028F02A602BB02D002E702FC02DF
:100460003702110328033D0384B5806884BD60E032
:10047000822F0C945B1084B58062F8CF809180004D
:100480008C7F82608093800080918100807E80617B
:10049000682B609381005093870040938600809181
:1004A0008000806880938000E2CF809180008C7F04
:1004B00082608093800080918100807E8061682BC3
:1004C0006093810050938700409386008091800064
:1004D0008062E8CF809180008C7F82608093800072
:1004E00080918100807E8061682B609381005093B1
:1004F000870040938600809180008860D3CF8091F0
:10050000B00080688093B0008091B100887F682B34
:100510006093B100ACCF8091B0008062F3CF809146
:1005200090008C7F82608093900080919100807E0B
:100530008061682B609391005093970040939600E0
:100540008091900080688093900091CF809190007E
:100550008C7F82608093900080919100807E80618A
:10056000682B609391005093970040939600809180
:1005700090008062E8CF809190008C7F82608093B1
:10058000900080919100807E8061682B6093910043
:100590005093970040939600809190008860D3CF4D
:1005A0008091A0008C7F82608093A0008091A10048
:1005B000807E8061682B6093A1005093A7004093D8
:1005C000A6008091A00080688093A00050CF809109
:1005D000A0008C7F82608093A0008091A100807E2B
:1005E0008061682B6093A1005093A7004093A60000
:1005F0008091A0008062E8CF8091A0008C7F826013
:100600008093A0008091A100807E8061682B609320
:10061000A1005093A7004093A6008091A00088609D
:10062000D3CF809120018C7F8260809320018091C4
:100630002101807E8061682B609321015093270106
:1006400040932601809120018068809320010FCF84
:10065000809120018C7F8260809320018091210114
:10066000807E8061682B6093210150932701409325
:100670002601809120018062E8CF809120018C7F4B
:1006800082608093200180912101807E8061682BAF
:10069000609321015093270140932601809120010E
:1006A0008860D3CFFC01A781B0858C919185892387
:1006B000A481B5819C9140815181628173812681A1
:1006C000922359F081110BC04F5F5F4F6F4F7F4FE7
:1006D000408351836283738308958111F5CF415024
:1006E000510961097109F4CF8AEA92E0DBCF85EB09
:1006F00092E0D8CF80EC92E0D5CF8BEC92E0D2CFD5
:10070000FC01A481B5818C9196818923A781B08554
:100710009C9140815181628173812185922359F09E
:10072000882359F04F5F5F4F6F4F7F4F4083518356
:100730006283738308958823A9F3415051096109A5
:100740007109F4CF8AEA92E0DBCF85EB92E0D8CF53
:1007500080EC92E0D5CF8BEC92E0D2CF0F931F9339
:10076000CF93DF93D82FC62F8A01A091A9028BE0E7
:10077000A89FD0011124A655BD4F1D921D921D9218
:100780001C92139781E01A968C931A978D2F90E004
:10079000FC01E65DFE4FE4911696EC931697FC0182
:1007A000E059FE4FE491F0E0EE0FFF1FEA54FE4FD8
:1007B0008591949115969C938E931497862F90E033
:1007C000FC01E65DFE4FE4911996EC931997FC014C
:1007D000E059FE4FE491F0E0EE0FFF1FEA54FE4FA8
:1007E0008591949118969C938E93179760E08D2F26
:1007F0000E941F1060E08C2F0E941F108091A902A0
:10080000813009F43FC0A8F0823009F462C083301F
:1008100009F485C08091A90291E0980F9093A902F4
:10082000F801808390E080E0DF91CF911F910F91DC
:10083000089580E0D23049F081E0D33031F08EEE7F
:100840008D0F8430D8F487E18D1B41E050E064E7E0
:1008500073E00E94680C80E0C23049F081E0C33050
:1008600031F08EEE8C0F843058F487E18C1B41E020
:1008700050E062EA73E00E94680CCCCF8FEFE5CFC6
:100880008FEFF5CF80E0D23049F081E0D33031F006
:100890008EEE8D0F8430C8F487E18D1B41E050E06F
:1008A00067E773E00E94680C80E0C23049F081E0A5
:1008B000C33031F08EEE8C0F843048F487E18C1B0E
:1008C00041E050E065EA73E0D6CF8FEFE7CF8FEFDE
:1008D000F7CF80E0D23049F081E0D33031F08EEEB6
:1008E0008D0F8430C0F487E18D1B41E050E06AE752
:1008F00073E0EED780E0C23049F081E0C33031F0E0
:100900008EEE8C0F843048F487E18C1B41E050E080
:1009100068EA73E0B0CF8FEFE8CF8FEFF7CF80E0DA
:10092000D23049F081E0D33031F08EEE8D0F84303B
:10093000C0F487E18D1B41E050E06DE773E0C8D75C
:1009400080E0C23049F081E0C33031F08EEE8C0F90
:10095000843048F487E18C1B41E050E06BEA73E09F
:100960008ACF8FEFE8CF8FEFF7CF9BE0899FF00121
:100970001124E655FD4F80819181A281B381FB0155
:1009800080839183A283B38390E080E008959BE00D
:10099000899FF0011124E655FD4F108211821282C9
:1009A000138290E080E0089590E080E008952F9217
:1009B0003F924F925F926F927F928F929F92AF92EF
:1009C000BF92CF92DF92EF92FF920F931F93CF933C
:1009D000DF93CDB7DEB762970FB6F894DEBF0FBED8
:1009E000CDBFC0903402D0903502E0903602F09036
:1009F0003702A701960160916B0570916C0580919B
:100A00006D0590916E0515D6882341F0C0926B0557
:100A1000D0926C05E0926D05F0926E0580916A05AA
:100A2000811110926A05BE016F5F7F4F80916F0543
:100A30009CDFC0903802D0903902E0903A02F090EA
:100A40003B02A701960160915F057091600580915E
:100A5000610590916205EDD5882341F0C0925F0554
:100A6000D0926005E0926105F092620580915E058A
:100A7000811110925E05BE016B5F7F4F809163050F
:100A800074DF609178027091790280917A0290917E
:100A90007B0206D620E030E040E05AE2B5D66B019A
:100AA0007C0169817A818B819C81FAD5A7019601AD
:100AB000ABD62B013C016D817E818F819885F0D56D
:100AC000A7019601A1D64B015C01C0903C02D090D9
:100AD0003D02E0903E02F0903F02A7019601C30163
:100AE000B20192D66B877C878D879E87A70196017E
:100AF000C501B40189D66F87788B898B9A8B209139
:100B000094053091950540919605509197052CD507
:100B10006B017C01209190053091910540919205E7
:100B2000509193056B857C858D859E851DD59B0198
:100B3000AC0160914002709141028091420290911B
:100B4000430212D56093AE057093AF058093B00554
:100B50009093B105A70196016091440270914502FE
:100B60008091460290914702FFD46B017C01C092B4
:100B7000B205D092B305E092B405F092B50520918C
:100B800000023091010240910202509103023CD6D2
:100B9000209198053091990540919A0550919B05B7
:100BA000E3D42091240230912502409126025091F5
:100BB00027022AD62B013C0120912C0230912D02D4
:100BC00040912E0250912F02C701B6011DD62091EF
:100BD0009C0530919D0540919E0550919F05C5D47F
:100BE000A3019201C2D48B016C0165E070E080E04A
:100BF00090E075DB7C0190938F0580938E0580904B
:100C0000500290905102A0905202B090530298016D
:100C1000A601C501B4010DD587FD11C08090540215
:100C200090905502A0905602B09057029801A601EC
:100C3000C501B401E5D5181614F048015601E89431
:100C4000B7F820E030E04FE753E4C501B401F1D438
:100C5000181634F4812C912C5FE7A52E53E4B52EA1
:100C6000B501A401C70104DB64E070E080E090E01E
:100C700036DB7C0190937F0580937E05809058023F
:100C800090905902A0905A02B0905B029801A60180
:100C9000B401C501CED487FD11C080905C02909054
:100CA0005D02A0905E02B0905F029801A601B401BF
:100CB000C501A6D5181614F04801560120E030E011
:100CC0004FE753E4B401C501B4D418160CF4A9C11C
:100CD00020E030E0A901B401C50192D587FF04C02E
:100CE000812C912CA12CB12CA401B501C701C0DA33
:100CF000C090AE05D090AF05E090B005F090B10582
:100D000020910402309105024091060250910702A1
:100D1000C701B60179D52091A0053091A105409178
:100D2000A2055091A30520D42091280230912902D8
:100D300040912A0250912B0267D54B015C01209112
:100D40003002309131024091320250913302C7019A
:100D5000B6015AD52091A4053091A5054091A6056C
:100D60005091A70502D4A5019401FFD3362E272E5A
:100D700089879A8766E070E080E090E0B0DA8C01C5
:100D80009093870580938605C0906802D090690291
:100D9000E0906A02F0906B02232D322D49855A852E
:100DA000C701B60146D487FD15C0C0906C02D09033
:100DB0006D02E0906E02F0906F02232D322D498576
:100DC0005A85C701B6011CD5181624F0C32CD22CA5
:100DD000E984FA84E894F7F820E030E04FE753E440
:100DE000C701B60126D4181634F4C12CD12C2FE734
:100DF000E22E23E4F22EB701A601C80139DA67E03A
:100E000070E080E090E06BDA6C019093770580935E
:100E100076051091700200917102F0907202E090DC
:100E20007302232D322D49855A85612F702F8F2D06
:100E30009E2DFFD387FD16C010917402009175029C
:100E4000F0907602E0907702232D322D49855A8565
:100E5000612F702F8F2D9E2DD3D418161CF0810179
:100E6000F984EA8420E030E04FE753E4612F702FEB
:100E70008F2D9E2DDED318160CF4DAC020E030E062
:100E8000A901612F702F8F2D9E2DBAD487FF04C02A
:100E900010E000E0F12CE12C412F502F6F2D7E2D22
:100EA000C601E6D98B859C85AD85BE85809390056E
:100EB00090939105A0939205B09393058F8598899F
:100EC000A989BA898093940590939505A093960576
:100ED000B0939705209148023091490240914A020F
:100EE00050914B02C301B2018FD4209198053091EB
:100EF000990540919A0550919B0537D360939805C9
:100F00007093990580939A0590939B052091B20563
:100F10003091B3054091B4055091B5056091080238
:100F20007091090280910A0290910B026DD4209178
:100F30004C0230914D0240914E0250914F0264D4C8
:100F400020919C0530919D0540919E0550919F05F3
:100F50000CD360939C0570939D0580939E059093A0
:100F60009F05209160023091610240916202509190
:100F70006302C501B40148D42091A0053091A105B8
:100F80004091A2055091A305F0D26093A005709303
:100F9000A1058093A2059093A3052091AE05309101
:100FA000AF054091B0055091B10560910C02709170
:100FB0000D0280910E0290910F0226D420916402BE
:100FC0003091650240916602509167021DD42091D4
:100FD000A4053091A5054091A6055091A705C5D25D
:100FE0006093A4057093A5058093A6059093A7052B
:100FF00062960FB6F894DEBF0FBECDBFDF91CF91E2
:101000001F910F91FF90EF90DF90CF90BF90AF9026
:101010009F908F907F906F905F904F903F902F9018
:101020000895812C912C3FE7A32E43E4B42E5CCE8F
:1010300010E000E08FE7F82E93E4E92E2DCF4F92D9
:101040005F926F927F92AF92BF92DF92EF92FF9288
:101050000F931F93CF93DF931092D7021092D60273
:10106000C8E5D5E086E5FE0111928A95E9F7DD2411
:10107000D394D092A90580E0A82E82E0B82EF50185
:1010800084A995A9A6A9B7A98B8B9C8BAD8BBE8B88
:10109000412C512C320143944D865E866F86788AAE
:1010A0004FE655E063E082E059DBD98A1A8A1B8655
:1010B0001882D092A805F50180AD91ADA2ADB3AD77
:1010C0008F839887A987BA8749825A826B827C82EC
:1010D00043E655E063E182E141DBDD821E8218AA2E
:1010E000D092AD0549AA5AAA6BAA7CAAE12CF12C90
:1010F0008701A801970165E070E080E090E033D9B6
:101100009FAB8EABDDAA18A2D092AB0549A25AA222
:101110006BA27CA2A801970164E070E080E090E0FF
:1011200022D99FA38EA3DDA218A6D092AC0549A612
:101130005AA66BA67CA6A801970166E070E080E045
:1011400090E011D99FA78EA7DDA6188ED092AA0590
:10115000498E5A8E6B8E7C8EA801970167E070E0F5
:1011600080E090E000D99F8F8E8FDD8EF501808921
:101170009189A289B38988AF99AFAAAFBBAF8CAF71
:101180009DAFAEAFBFAF84899589A689B78980939B
:10119000980590939905A0939A05B0939B05848D2B
:1011A000958DA68DB78D80939C0590939D05A093FA
:1011B0009E05B0939F05808D918DA28DB38D8093F8
:1011C000A0059093A105A093A205B093A30580A1CB
:1011D00091A1A2A1B3A18093A4059093A505A0938A
:1011E000A605B093A7058F89D2DB8B85DF91CF91C0
:1011F0001F910F91FF90EF90DF90BF90AF907F9085
:101200006F905F904F90C3CB80916405811113C0A4
:1012100081E0809364058091650590916605A091B9
:101220006705B09168050197A105B10521F480918A
:1012300069058111B9DB80915805811113C081E0E6
:10124000809358058091590590915A05A0915B05AE
:10125000B0915C050197A105B10521F480915D0570
:101260008111A2DB8091880581112BC081E08093E0
:1012700088058091890590918A05A0918B05B09190
:101280008C050197A105B105E1F480918D058823B6
:10129000C1F065E070E080E090E021D890938F0588
:1012A00080938E0540E050E0BA010E94380165E06D
:1012B00070E080E090E013D890938F0580938E05C6
:1012C000A3D88091780581112DC081E080937805A5
:1012D0008091790590917A05A0917B05B0917C056C
:1012E0000197A105B105F1F480917D058823D1F026
:1012F00064E070E080E090E00E946F0190937F05D1
:1013000080937E0540E050E0BA010E94380164E01D
:1013100070E080E090E00E946F0190937F058093E1
:101320007E0572D88091800581112DC081E0809367
:1013300080058091810590918205A0918305B091EF
:1013400084050197A105B105F1F4809185058823F5
:10135000D1F066E070E080E090E00E946F01909331
:1013600087058093860540E050E0BA010E9438016D
:1013700066E070E080E090E00E946F019093870546
:101380008093860541D88091700581112DC081E040
:10139000809370058091710590917205A0917305FD
:1013A000B09174050197A105B105F1F4809175051F
:1013B0008823D1F067E070E080E090E00E946F0148
:1013C000909377058093760540E050E0BA010E9443
:1013D000380167E070E080E090E00E946F01909338
:1013E00077058093760510C8089526E030E040E840
:1013F00055E260E070E090E080E000C0813091054F
:1014000069F01CF4892B39F008958230910549F078
:10141000039751F0089584EE92E044C781E893E089
:10142000FCCF8EE194E0F9CF8BEB94E0F6CF1F92E6
:101430000F920FB60F9211240BB60F922F933F937A
:101440004F935F936F937F938F939F93AF93BF93CC
:10145000EF93FF938FE89DEF9093250180932401F4
:1014600034D0FF91EF91BF91AF919F918F917F9178
:101470006F915F914F913F912F910F900BBE0F9005
:101480000FBE0F901F9018958FE89DEF9093250148
:1014900080932401A3E7B0E08C918E7F8C93E0E2EF
:1014A000F1E080818C7F8083E1E2F1E08081877EC2
:1014B000808380818460808380818C7F80838C9115
:1014C00081608C93089581E008958091D80291E025
:1014D000980F9093D802882349F021E030E03093B0
:1014E000DA022093D9028093D802089578945FDAC3
:1014F000F8948091D8028150F6CFCF93DF93109269
:10150000B7051092B605FFD370DFC0918C02D09161
:101510008D021982188293DDF894B6DF81E028816C
:101520003981232B09F080E08093B6057894789474
:101530008091B605811107C067DEF89490E080E0E5
:10154000DF91CF91089581E028813981232B09F41F
:1015500080E08093B7059091B70581E0911180E01C
:101560008093B605B0DFE4CF5058BB27AA270ED032
:101570000DC1FED030F003D120F031F49F3F11F4C3
:101580001EF4F3C00EF4E095E7FBE9C0E92F0FD19C
:1015900080F3BA17620773078407950718F071F490
:1015A0009EF527C10EF4E0950B2EBA2FA02D0B014E
:1015B000B90190010C01CA01A0011124FF27591B98
:1015C00099F0593F50F4503E68F11A16F040A22F9E
:1015D000232F342F4427585FF3CF4695379527950F
:1015E000A795F0405395C9F77EF41F16BA0B620B0E
:1015F000730B840BBAF09150A1F0FF0FBB1F661F55
:10160000771F881FC2F70EC0BA0F621F731F841F97
:1016100048F4879577956795B795F7959E3F08F0BD
:10162000B3CF9395880F08F09927EE0F979587957C
:10163000089571D008F481E0089504D06894B11140
:10164000D9C00895BCD088F09F5790F0B92F992742
:10165000B751A0F0D1F0660F771F881F991F1AF0BD
:10166000BA95C9F712C0B13081F0C3D0B1E0089586
:10167000C0C0672F782F8827B85F39F0B93FCCF307
:10168000869577956795B395D9F73EF490958095B3
:10169000709561957F4F8F4F9F4F0895E89409C0D3
:1016A00097FB3EF490958095709561957F4F8F4F95
:1016B0009F4F9923A9F0F92F96E9BB279395F695AB
:1016C000879577956795B795F111F8CFFAF4BB0F29
:1016D00011F460FF1BC06F5F7F4F8F4F9F4F16C08D
:1016E000882311F096E911C0772321F09EE8872F17
:1016F000762F05C0662371F096E8862F70E060E0D3
:101700002AF09A95660F771F881FDAF7880F96954B
:10171000879597F90895990F0008550FAA0BE0E8EF
:10172000FEEF16161706E807F907C0F012161306A3
:10173000E407F50798F0621B730B840B950B39F4E3
:101740000A2661F0232B242B252B21F408950A2649
:1017500009F4A140A6958FEF811D811D089597F989
:101760009F6780E870E060E008959FEF80EC089547
:1017700000240A9416161706180609060895002470
:101780000A9412161306140605060895092E0394EA
:10179000000C11F4882352F0BB0F40F4BF2B11F45E
:1017A00060FF04C06F5F7F4F8F4F9F4F089557FDBD
:1017B0009058440F551F59F05F3F71F04795880FBF
:1017C00097FB991F61F09F3F79F087950895121656
:1017D00013061406551FF2CF4695F1DF08C0161602
:1017E00017061806991FF1CF8695710561050894B3
:1017F0000895E894BB2766277727CB0197F90895CA
:101800008ADF08F48FEF08950BD0C0CFB1DF28F046
:10181000B6DF18F0952309F0A2CFA7CF1124EACFA5
:10182000C6DFA0F3959FD1F3950F50E0551F629F3F
:10183000F001729FBB27F00DB11D639FAA27F00D29
:10184000B11DAA1F649F6627B00DA11D661F829F50
:101850002227B00DA11D621F739FB00DA11D621F35
:10186000839FA00D611D221F749F3327A00D611D52
:10187000231F849F600D211D822F762F6A2F112434
:101880009F5750408AF0E1F088234AF0EE0FFF1F87
:10189000BB1F661F771F881F91505040A9F79E3FBE
:1018A000510570F05CCFA6CF5F3FECF3983EDCF3C0
:1018B000869577956795B795F795E7959F5FC1F7FB
:1018C000FE2B880F911D9695879597F90895089599
:1018D000883008F075C0E82FF0E0EE0FFF1FE458E5
:1018E000FD4F718360838150873008F03CC0E82F42
:1018F000F0E08827E258F34F8F4FB3C7BB0C850C3D
:101900008D0C990CA60CC70CD40C809169008C7FAF
:10191000482B40936900E89A089580916900837F7D
:10192000440F551F440F551F482B40936900E99AF7
:101930000895809169008F7C74E0440F551F7A955B
:10194000E1F7482B40936900EA9A08958091690075
:101950008F7366E0440F551F6A95E1F7482B40935B
:101960006900EB9A089580916A008C7F482B409320
:101970006A00EC9A089580916A00837F440F551F96
:10198000440F551F482B40936A00ED9A08958091AB
:101990006A008F7C24E0440F551F2A95E1F7482BFD
:1019A00040936A00EE9A089580916A008F7396E0E2
:1019B000440F551F9A95E1F7482B40936A00EF9A20
:1019C00008951F920F920FB60F9211240BB60F922B
:1019D0002F933F934F935F936F937F938F939F9337
:1019E000AF93BF93EF93FF93E0918002F091810258
:1019F0001995FF91EF91BF91AF919F918F917F9139
:101A00006F915F914F913F912F910F900BBE0F906F
:101A10000FBE0F901F9018951F920F920FB60F9246
:101A200011240BB60F922F933F934F935F936F93B5
:101A30007F938F939F93AF93BF93EF93FF93E09127
:101A40008202F09183021995FF91EF91BF91AF91BE
:101A50009F918F917F916F915F914F913F912F91C6
:101A60000F900BBE0F900FBE0F901F9018951F92F6
:101A70000F920FB60F9211240BB60F922F933F9334
:101A80004F935F936F937F938F939F93AF93BF9386
:101A9000EF93FF93E0918402F09185021995FF91F5
:101AA000EF91BF91AF919F918F917F916F915F91D6
:101AB0004F913F912F910F900BBE0F900FBE0F9043
:101AC0001F9018951F920F920FB60F9211240BB60C
:101AD0000F922F933F934F935F936F937F938F93C7
:101AE0009F93AF93BF93EF93FF93E0918602F091A2
:101AF00087021995FF91EF91BF91AF919F918F91BF
:101B00007F916F915F914F913F912F910F900BBEFD
:101B10000F900FBE0F901F9018951F920F920FB647
:101B20000F9211240BB60F922F933F934F935F9315
:101B30006F937F938F939F93AF93BF93EF93FF9395
:101B4000E0917C02F0917D021995FF91EF91BF9198
:101B5000AF919F918F917F916F915F914F913F9145
:101B60002F910F900BBE0F900FBE0F901F901895E6
:101B70001F920F920FB60F9211240BB60F922F9354
:101B80003F934F935F936F937F938F939F93AF9305
:101B9000BF93EF93FF93E0917E02F0917F0219953E
:101BA000FF91EF91BF91AF919F918F917F916F9135
:101BB0005F914F913F912F910F900BBE0F900FBEF1
:101BC0000F901F9018951F920F920FB60F9211242D
:101BD0000BB60F922F933F934F935F936F937F9327
:101BE0008F939F93AF93BF93EF93FF93E0918802FE
:101BF000F09189021995FF91EF91BF91AF919F915B
:101C00008F917F916F915F914F913F912F910F90A5
:101C10000BBE0F900FBE0F901F9018951F920F9242
:101C20000FB60F9211240BB60F922F933F934F9341
:101C30005F936F937F938F939F93AF93BF93EF9334
:101C4000FF93E0918A02F0918B021995FF91EF9139
:101C5000BF91AF919F918F917F916F915F914F91C4
:101C60003F912F910F900BBE0F900FBE0F901F90C2
:101C700018951F920F920FB60F9211242F933F9336
:101C80008F939F93AF93BF938091DC029091DD027D
:101C9000A091DE02B091DF023091DB0223E0230F3E
:101CA0002D3758F50196A11DB11D2093DB028093BD
:101CB000DC029093DD02A093DE02B093DF028091FC
:101CC000E0029091E102A091E202B091E30201965C
:101CD000A11DB11D8093E0029093E102A093E20266
:101CE000B093E302BF91AF919F918F913F912F915C
:101CF0000F900FBE0F901F90189526E8230F0296A5
:101D0000A11DB11DD2CF789484B5826084BD84B505
:101D1000816084BD85B5826085BD85B5816085BDE6
:101D2000EEE6F0E0808181608083E1E8F0E01082FF
:101D3000808182608083808181608083E0E8F0E040
:101D4000808181608083E1EBF0E08081846080832A
:101D5000E0EBF0E0808181608083E1E9F0E0808168
:101D600082608083808181608083E0E9F0E080810F
:101D700081608083E1EAF0E08081826080838081FD
:101D800081608083E0EAF0E0808181608083E1E22D
:101D9000F1E0808182608083808181608083E0E2E5
:101DA000F1E0808181608083EAE7F0E080818460F7
:101DB0008083808182608083808181608083808154
:101DC000806880831092C10008951F93CF93DF93A2
:101DD000182FEB0161E033D1209731F460E0812FBF
:101DE000DF91CF911F9167C1CF3FD10511F461E021
:101DF000F6CFE12FF0E0EC51FF4FE491E150E231FA
:101E000008F0B2C0F0E08827E85FF04F8F4F29C597
:101E10001A0F220F270F310F3B0FB40F450F4D0F35
:101E2000550F5F0F690F730F820F8C0FB40F960F52
:101E3000A00FAA0F84B5806884BDC7BDDF91CF9184
:101E40001F91089584B5806284BDC8BDF7CF80918D
:101E50008000806880938000D0938900C0938800C0
:101E6000EDCF80918000806280938000D0938B00C2
:101E7000C0938A00E3CF80918000886080938000C7
:101E8000D0938D00C0938C00D9CF8091B000806832
:101E90008093B000C093B300D1CF8091B000806236
:101EA0008093B000C093B400C9CF80919000806847
:101EB00080939000D0939900C0939800BFCF8091F9
:101EC0009000806280939000D0939B00C0939A0012
:101ED000B5CF80919000886080939000D0939D0052
:101EE000C0939C00ABCF8091A00080688093A0003D
:101EF0008091A0008F7B8093A000D093A900C09315
:101F0000A8009CCF8091A00080628093A000D09315
:101F1000AB00C093AA0092CF8091A000886080930C
:101F2000A000D093AD00C093AC0088CF8091200179
:101F3000806880932001D0932901C09328017ECF2F
:101F400080912001806280932001D0932B01C09367
:101F50002A0174CF80912001886080932001D09362
:101F60002D01C0932C016ACFC038D1050CF03FCFB2
:101F700035CF8150823108F059C0E82FF0E0882732
:101F8000EC53F04F8F4F6DC4E40FE80FD60FDC0F0A
:101F9000E00F1610EB0FF10FF50FFB0FFF0F031003
:101FA00009100D101610111017101B1080918000D1
:101FB0008F77809380000895809180008F7DF9CF86
:101FC00080918000877FF5CF84B58F7784BD089599
:101FD00084B58F7DFBCF8091B0008F778093B00068
:101FE00008958091B0008F7DF9CF809190008F7718
:101FF000809390000895809190008F7DF9CF80911B
:102000009000877FF5CF8091A0008F778093A0000C
:1020100008958091A0008F7DF9CF8091A000877FE7
:10202000F5CF809120018F778093200108958091D2
:1020300020018F7DF9CF80912001877FF5CFCF934D
:10204000DF9390E0FC01E65DFE4F249180599E4FA6
:10205000FC0184918823C9F090E0880F991FFC014E
:10206000E651FE4FA591B491FC01E053FE4FC5919E
:10207000D49161110DC09FB7F8948C912095822363
:102080008C938881282328839FBFDF91CF91089567
:10209000623051F49FB7F8943C91822F809583234E
:1020A0008C93E8812E2BEFCF8FB7F894EC912E2BE9
:1020B0002C938FBFEACF1F93CF93DF93282F30E06D
:1020C000F901EC51FF4F8491F901E65DFE4FD49187
:1020D000F901E059FE4FC491CC23A1F0162F8111D4
:1020E00048DFEC2FF0E0EE0FFF1FE053FE4FA5910D
:1020F000B4918FB7F894EC91111108C0D095DE23FC
:10210000DC938FBFDF91CF911F910895DE2BF8CF25
:10211000FC01918D228D892F90E0805C9F4F821B66
:1021200091098F7399270895FC01918D828D9817DD
:1021300031F0828DE80FF11D858D90E008958FEFCD
:102140009FEF0895FC01918D828D981761F0A28D0B
:10215000AE0FBF2FB11D5D968C91928D9F5F9F73C7
:10216000928F90E008958FEF9FEF0895FC01538DBB
:10217000448D252F30E0842F90E0821B930B541761
:1021800010F0CF96089501970895FC01A48DA80F33
:10219000B92FB11DA35ABF4F2C91848D90E00196A9
:1021A0008F739927848FA689B7892C93A089B189C9
:1021B0008C91837080648C93938D848D981306C06A
:1021C0000288F389E02D80818F7D80830895CF93ED
:1021D000DF93EC01888D8823B1F0AA89BB89E88957
:1021E000F9898C9185FD03C0808186FD0CC00FB6F6
:1021F00007FCF7CF8C9185FFF2CF808185FFEDCF73
:10220000CE01C3DFEACFDF91CF910895EF92FF9225
:102210000F931F93CF93DF93EC0181E0888F9B8D09
:102220008C8D98131AC0E889F989808185FF15C0C3
:102230009FB7F894EE89FF896083E889F9898081E6
:102240008370806480839FBF81E090E0DF91CF91B5
:102250001F910F91FF90EF900895F62E0B8D10E0D7
:102260000F5F1F4F0F731127E02E8C8D8E110BC047
:102270000FB607FCFACFE889F989808185FFF5CF91
:10228000CE0183DFF2CFEB8DEC0FFD2FF11DE35A72
:10229000FF4FF0829FB7F8940B8FEA89FB8980810A
:1022A0008062D0CFCF92DF92EF92FF921F93CF93B5
:1022B000DF93EC016A017B01122FE889F98982E042
:1022C0008083C11481EED806E104F10499F060E046
:1022D00079E08DE390E0A7019601A1D22150310968
:1022E000410951095695479537952795211580E164
:1022F000380790F0E889F989108260E874E88EE187
:1023000090E0A70196018BD2215031094109510972
:102310005695479537952795EC85FD853083EE8555
:10232000FF852083188EEC89FD891083EA89FB895B
:10233000808180618083EA89FB89808188608083D5
:10234000EA89FB89808180688083EA89FB898081B2
:102350008F7D8083DF91CF911F91FF90EF90DF9071
:10236000CF9008951F920F920FB60F9211240BB6C3
:102370000F922F938F939F93EF93FF93E091F4022B
:10238000F091F5028081E091FA02F091FB0282FD6A
:102390001DC090818091FD028F5F8F732091FE029E
:1023A000821741F0E091FD02F0E0EC51FD4F958F76
:1023B0008093FD02FF91EF919F918F912F910F904C
:1023C0000BBE0F900FBE0F901F9018958081F2CF1B
:1023D0001F920F920FB60F9211240BB60F922F93EC
:1023E0003F934F935F936F937F938F939F93AF939D
:1023F000BF93EF93FF9384EE92E0C7DEFF91EF91DE
:10240000BF91AF919F918F917F916F915F914F910C
:102410003F912F910F900BBE0F900FBE0F901F900A
:102420001895E4EEF2E01382128288EE93E0A0E0C9
:10243000B0E084839583A683B78382E992E0918399
:10244000808385EC90E09587848784EC90E0978783
:10245000868780EC90E0918B808B81EC90E0938B71
:10246000828B82EC90E0958B848B86EC90E0978B4E
:10247000868B118E128E138E148E08951F920F92DA
:102480000FB60F9211240BB60F922F938F939F9339
:10249000EF93FF93E0919103F09192038081E0919B
:1024A0009703F091980382FD1DC0908180919A035B
:1024B0008F5F8F7320919B03821741F0E0919A0305
:1024C000F0E0EF57FC4F958F80939A03FF91EF91C7
:1024D0009F918F912F910F900BBE0F900FBE0F9079
:1024E0001F9018958081F2CF1F920F920FB60F9216
:1024F00011240BB60F922F933F934F935F936F93DB
:102500007F938F939F93AF93BF93EF93FF9381E854
:1025100093E03BDEFF91EF91BF91AF919F918F913F
:102520007F916F915F914F913F912F910F900BBED3
:102530000F900FBE0F901F901895E1E8F3E0138203
:10254000128288EE93E0A0E0B0E084839583A683B6
:10255000B78382E992E0918380838DEC90E0958748
:1025600084878CEC90E09787868788EC90E0918B4D
:10257000808B89EC90E0938B828B8AEC90E0958B3A
:10258000848B8EEC90E0978B868B118E128E138E3F
:10259000148E08951F920F920FB60F9211240BB64E
:1025A0000F922F938F939F93EF93FF93E0912E04BD
:1025B000F0912F048081E0913404F091350482FD84
:1025C0001DC09081809137048F5F8F7320913804F4
:1025D000821741F0E0913704F0E0E25EFB4F958F07
:1025E00080933704FF91EF919F918F912F910F90DE
:1025F0000BBE0F900FBE0F901F9018958081F2CFE9
:102600001F920F920FB60F9211240BB60F922F93B9
:102610003F934F935F936F937F938F939F93AF936A
:10262000BF93EF93FF938EE194E0AFDDFF91EF91C5
:10263000BF91AF919F918F917F916F915F914F91DA
:102640003F912F910F900BBE0F900FBE0F901F90D8
:102650001895EEE1F4E01382128288EE93E0A0E098
:10266000B0E084839583A683B78382E992E0918367
:10267000808385ED90E09587848784ED90E097874F
:10268000868780ED90E0918B808B81ED90E0938B3D
:10269000828B82ED90E0958B848B86ED90E0978B1A
:1026A000868B118E128E138E148E08951F920F92A8
:1026B0000FB60F9211240BB60F922F938F939F9307
:1026C000EF93FF93E091CB04F091CC048081E091F3
:1026D000D104F091D20482FD1DC090818091D40478
:1026E0008F5F8F732091D504821741F0E091D4045D
:1026F000F0E0E554FB4F958F8093D404FF91EF9168
:102700009F918F912F910F900BBE0F900FBE0F9046
:102710001F9018958081F2CF1F920F920FB60F92E3
:1027200011240BB60F922F933F934F935F936F93A8
:102730007F938F939F93AF93BF93EF93FF938BEB15
:1027400094E023DDFF91EF91BF91AF919F918F9125
:102750007F916F915F914F913F912F910F900BBEA1
:102760000F900FBE0F901F901895EBEBF4E01382C3
:10277000128288EE93E0A0E0B0E084839583A68384
:10278000B78382E992E09183808385E391E0958726
:10279000848784E391E09787868780E391E0918B3B
:1027A000808B81E391E0938B828B82E391E0958B28
:1027B000848B86E391E0978B868B118E128E138E1D
:1027C000148E0895AF92BF92CF92DF92EF92FF9254
:1027D0000F931F93CF93DF936C017B018B01040F49
:1027E000151FEB015E01AE18BF08C017D10759F0E5
:1027F0006991D601ED91FC910190F081E02DC60127
:102800001995892B79F7C501DF91CF911F910F9110
:10281000FF90EF90DF90CF90BF90AF900895A1E22E
:102820001A2EAA1BBB1BFD010DC0AA1FBB1FEE1F4A
:10283000FF1FA217B307E407F50720F0A21BB30B95
:10284000E40BF50B661F771F881F991F1A9469F711
:1028500060957095809590959B01AC01BD01CF016D
:102860000895EE0FFF1F881F8BBF0790F691E02D94
:062870001994F894FFCF5B
:10287600000000000000000001D9FC44E12FFF44E5
:102886000000000000000000000000000000000042
:10289600000000000000C8420000C8421CBDF4420F
:1028A6005C6EF042000080BF000080BF0000C8429E
:1028B6001F856B3E1F856B3E0AD7233C0AD7233CF8
:1028C6000000000000007FC300007F4300000000FE
:1028D6000AD7233C0AD7233C0000000000007FC330
:1028E60000007F430000000059EC474A670C670C64
:1028F600670C670C670C670C670C670CD602000048
:1029060000000611E213B610E7108810A21094100A
:00000001FF
