:10000000F9C0000028C1000026C1000024C1000082
:1000100022C1000020C100001EC100001CC1000060
:100020001AC1000018C1000016C1000014C1000070
:1000300012C1000010C100000EC100000CC1000080
:100040000AC1000008C1000006C1000004C1000090
:1000500002C1000000C10000FEC000000C945A3034
:10006000FAC000000C9466330C949C33F4C000007A
:10007000F2C00000F0C00000EEC00000ECC00000C4
:10008000EAC00000E8C00000E6C00000E4C00000D4
:100090000C94F2330C942834DEC000000C947F23BF
:1000A000DAC00000D8C00000D6C00000D4C00000F4
:1000B000D2C00000D0C00000CEC00000CCC0000004
:1000C000CAC00000C8C000000C94092D0C947E34F6
:1000D0000C94B434C0C000000C940A350C94403524
:1000E000BAC0000000000A0B02090C0D0E0807033D
:1000F00004010000000000000000000000000000FB
:1001000000000000000000000000000000000000EF
:1001100012111000000000000000000000000000AC
:100120000000000000000000000001021020200874
:100130000810204010204080020102010804020142
:1001400001020408102040808040201008040201B1
:10015000800402018040201008040201080402010A
:100160000102040810204080010204081020408091
:1001700005050505070508080808020202020A0A23
:100180000808040404040101010101010101030341
:10019000030303030303040707070C0C0C0C0C0CEC
:1001A0000C0C0202020206060606060606060B0BE9
:1001B0000B0B0B0B0B0B00002200250028002B0063
:1001C0002E003100340002010000050108010B017E
:1001D00000002100240027002A002D0030003300F9
:1001E00001010000040107010A01C42CC533513488
:1001F000DD34693511241FBECFEFD1E2DEBFCDBFA4
:1002000000E00CBF12E0A0E0B2E0EAE5FCE600E0AE
:100210000BBF02C007900D92A83EB107D9F729E0A5
:10022000A8EEB2E001C01D92AA34B207E1F710E0D7
:10023000CAEFD0E000E006C021970109802FFE013F
:100240000E94FA35C53FD10780E00807A9F70E9450
:10025000242E0C942B36D4CE90E080E008950F939A
:100260001F93009709F487C06115710509F483C0D5
:1002700000910402109105022091060230910702BC
:100280000E3F1F4F2F4F3F4F09F066C04FEF5FEFFC
:10029000BA014093040250930502609306027093E2
:1002A000070240910402509105026091060270918C
:1002B0000702DC011296ED91FC9180819181A2816F
:1002C000B3818093520390935303A0935403B0934C
:1002D000550384819581A681B78180934E039093C5
:1002E0004F03A0935003B093510380859185A2855D
:1002F000B38580934A0390934B03A0934C03B09330
:100300004D0384859585A685B78580934603909394
:100310004703A0934803B0934903109242031092FD
:100320004303109244031092450369D484E296E09B
:100330009093E9028093E8029093EB028093EA02A3
:100340004DD3009731F421E030E0309357032093F0
:1003500056031F910F910895009104021091050218
:100360002091060230910702DB010D931D932D931E
:100370003C93139796CF8FEF9FEFEBCF8F929F9287
:10038000AF92BF92CF92DF92EF92FF921F93CF93E3
:10039000DF934B015C011091590382E090E0909350
:1003A00057038093560381149104A104B10441F4CE
:1003B00080915903811104C080915803C1E08111DB
:1003C000C0E0C12CD12C760180915903811106C067
:1003D00080915803811102C0CC23D1F083E090E0DA
:1003E0009093570380935603CC2371F1CCE9DFEF50
:1003F000111101C08DD7CE01DF91CF911F91FF90D8
:10040000EF90DF90CF90BF90AF909F908F90089526
:100410006AE070E080E090E00E94D53080E1C80E94
:1004200087E2D81EE11CF11C8FEF88169806A806FB
:10043000B80631F0C1E08C149D04AE04BF0408F08E
:10044000C0E080E0FFD2C0CFD0E0C0E0D1CFCF92FB
:10045000DF92EF92FF920F931F93CF93DF938F3F23
:10046000910511F008F050C02091560330915703C8
:100470002330310539F02091560330915703213054
:10048000310531F424E030E03093570320935603D4
:100490006A017B01EC0182309105A0F011E0AE0110
:1004A000C701B6019AD2AB01BC01CE011123F9F00C
:1004B000DF91CF911F910F91FF90EF90DF90CF9040
:1004C0000C94B10B8C01000F111F08511D4FD80166
:1004D0008D919C91892B11F30E94BB0B0297F1F631
:1004E000D801ED91FC91CE011995182FD8CF0E941B
:1004F000D30B90E080E0DF91CF911F910F91FF909F
:10050000EF90DF90CF9008958FEF9FEFF4CF80E0D2
:1005100099C2CF93DF9386E090E090935703809346
:100520005603E9D2EC01E8EEF2E084E0DF011D922F
:100530008A95E9F785D61092570310925603CE019B
:10054000DF91CF91089580915803089580914103E0
:1005500008956093040270930502809306029093BD
:10056000070290E080E008954F925F926F927F9231
:100570008F929F92AF92BF92CF92DF92EF92FF92B3
:1005800040E259E060E379E084E299E021D1C09053
:100590000002D0900102E0900202F0900302A70155
:1005A0009601609124097091250980912609909106
:1005B00027090E94F72F60933C0970933D098093AF
:1005C0003E0990933F09A701960160912809709117
:1005D000290980912A0990912B090E94F72F609395
:1005E0004009709341098093420990934309A70100
:1005F000960160912C0970912D0980912E0990919E
:100600002F090E94F72F6093440970934509809346
:1006100046099093470940E259E060E379E084E2BB
:1006200099E0D8D0C0901403D0901503E090160341
:10063000F09017038FEFC81AD80AE80AF80AC09298
:100640001403D0921503E0921603F0921703C1141D
:10065000D104E104F10499F48091180390911903F5
:10066000A0911A03B0911B030196A11DB11D8093A7
:10067000180390931903A0931A03B0931B0380905F
:100680001C0390901D03A0901E03B0901F03609167
:1006900018037091190380911A0390911B030E9413
:1006A000412FA50194010E94F72F20E030E040E89F
:1006B0005FE40E94F72F2B013C01C701B6010E94A5
:1006C000412FA50194010E94F72F9B01AC01C301AA
:1006D000B2010E94AD2E60931003709311038093BA
:1006E000120390931303FF90EF90DF90CF90BF9091
:1006F000AF909F908F907F906F905F904F900895F4
:10070000EAEFF2E08BE2DF011D928A95E9F780E0E3
:1007100090E0A0E8BFEB86A397A3A0A7B1A78DECBC
:100720009CECACE4BDE382A393A3A4A3B5A385E2B0
:1007300099ECA0E3B3E784839583A683B7838BE327
:100740009DE7A9E5BFE680879187A287B38781E708
:100750009AEBACE6BCE184879587A687B7878EE7DE
:1007600096E6A5E9B2E0808B918BA28BB38BAEEEBF
:10077000B2E0B383A2838CEE92E011969C938E93A9
:1007800082E492E09093ED028093EC028EE093E09D
:1007900015969C938E9314978EEF92E013969C93EC
:1007A0008E93129780E193E017969C938E93169701
:1007B000E4E2F9E084E2DF011D928A95E9F7E0E2E4
:1007C000F9E084E0DF011D928A95E9F70895089524
:1007D0000C94F82B0C942B2C4F925F926F927F927B
:1007E0008F929F92AF92BF92CF92DF92EF92FF9241
:1007F0000F931F93F8944090310350903203609010
:10080000330370903403C0902503D0902603E0900A
:100810002703F0902803452B09F0A4C09B01AC01ED
:10082000241935094609570929013A0100912D0378
:1008300010912E0320912F0330913003480159016C
:10084000840C951CA61CB71C80169106A206B30644
:10085000A0F40091290310912A0320912B033091D9
:100860002C030F5F1F4F2F4F3F4F0093290310930F
:100870002A0320932B0330932C0380922D03909214
:100880002E03A0922F03B092300300912903109100
:100890002A0320912B0330912C03809235039092F0
:1008A0003603A0923703B0923803009339031093B4
:1008B0003A0320933B0330933C03609331037093DE
:1008C00032038093330390933403A0E5B3ECA30188
:1008D00092010E9402366C0D7D1D8E1D9F1D60933E
:1008E0002503709326038093270390932803009198
:1008F00004021091050220910602309107020F3F79
:100900001F4F2F4F3F4FF1F000910402109105024D
:1009100020910602309107020E3F1F4F2F4F3F4F8D
:1009200089F0C0900402D0900502E0900602F09099
:10093000070221E08C149D04AE04BF0408F420E0FB
:100940002093410378941F910F91FF90EF90DF90D7
:10095000CF90BF90AF909F908F907F906F905F905F
:100960004F9008954B015C0184189508A608B708BC
:10097000A3019201261B370B480B590B6415750513
:1009800086059705D0F082169306A406B50640F4B6
:1009900020E030E0A90181149104A104B10491F494
:1009A000A0E5B3EC0E940236A7019601261B370B87
:1009B000480B590BCA01B901C5CF82169306A4068C
:1009C000B50670F7A0E5B3ECA50194010E940236CC
:1009D0006C0D7D1D8E1D9F1DB5CFFECECF93DF9379
:1009E00000D01F92CDB7DEB71C821B821A821982FB
:1009F00010923D0310923E0310923F031092400369
:100A0000BE016F5F7F4FCE0103960E94ED21698189
:100A10007A818B819C810E94D71A009761F4BE0174
:100A20006F5F7F4FCE0103960E94F92169817A8121
:100A30008B819C812ED50F900F900F900F90DF919E
:100A4000CF910895FF920F931F93CF93DF93082FB9
:100A500060E070E0CB010E94D530FF24F3940E9447
:100A6000C019EC01892B89F010E0CE3F8FEFD80739
:100A700069F0002361F160E070E0CB010E94D530A5
:100A800081E090E0892B59F322C011E025D5EC01DB
:100A9000892B21F0CE3F8FEFD80759F711111EC0D7
:100AA00011E0229609F410E00E947019EC01892BE4
:100AB00021F0CE3F8FEFD807E1F6111111C011E000
:100AC000CE3F8FEFD80709F410E001110BC0CE0123
:100AD000DF91CF911F910F91FF90089511E0E4CF26
:100AE00011E0F3CF60E070E0CB010E94D5301F250C
:100AF000812F90E0C7CFCF93DF938091410388236C
:100B000021F060E070E0CB014CD635D6D0E0C0E0FB
:100B1000892B71F06AE070E080E090E00E94D530AF
:100B200081E090DF28D62196C03D27E0D20781F7EB
:100B300027D60E942B1B1092590310925803109233
:100B400052031092530310925403109255031092C3
:100B50004E0310924F0310925003109251031092C3
:100B60004A0310924B0310924C0310924D031092C3
:100B700046031092470310924803109249031092C3
:100B800042031092430310924403109245034EEF28
:100B90005FEF6FEF7FEF4093040250930502609385
:100BA00006027093070210924103E5E3F3E028E0A8
:100BB000DF011D922A95E9F710923103109232035A
:100BC000109233031092340310922D0310922E03CF
:100BD00010922F03109230031092290310922A03CF
:100BE00010922B0310922C031092250310922603CF
:100BF0001092270310922803DF91CF91089510924D
:100C000065031092660310926703109268031092B6
:100C1000640380916D0390916E03909363038093BE
:100C20006203109261031092600310925C031092B1
:100C30005D0310925E0310925F0310926A0310929C
:100C4000690390E080E00895CF92DF92EF92FF92E7
:100C50000F931F93CF938C01892B09F055C02091DE
:100C60006D0330916E038091620390916303409114
:100C70006D0350916E0350936303409362032817F2
:100C8000390781F0109261031092600310925C03A7
:100C900010925D0310925E0310925F0310926A033C
:100CA0001092690380916D0390916E03019761F535
:100CB0008091690390916A03892B21F48091080245
:100CC000811112C08091690390916A030197E1F448
:100CD00080915C0390915D03A0915E03B0915F03EE
:100CE0000197A105B10581F410925C0310925D0398
:100CF00010925E0310925F031092080282E090E06F
:100D000090936A038093690380916D0390916E03C1
:100D1000019709F01CC1809183039091840380178F
:100D2000910709F014C180917F0390918003A091F5
:100D30008103B0918203009709F409C120917E03D9
:100D400021110DC040917F03509180036091810378
:100D500070918203452B462B472B09F4F8C0209154
:100D6000690330916A032230310509F0F0C0209107
:100D700060032111ECC0FC01C080D180E280F380CF
:100D800080916403882309F4D3C08091700390910B
:100D90007103892B09F4FDC0209170033091710318
:100DA00081E02230310509F080E02091700330911C
:100DB0007103C1E02130310549F020917003309179
:100DC0007103C1E02230310509F0C0E0882309F445
:100DD00056C020917A0330917B0340917C0350915F
:100DE0007D03C701B6010E94F32F87FD14C0209137
:100DF0007A0330917B0340917C0350917D03609195
:100E000065037091660380916703909168030E9467
:100E1000112F87FD22C020917A0330917B034091EE
:100E20007C0350917D03C701B6010E94F32F181671
:100E300034F520917A0330917B0340917C035091EB
:100E40007D036091650370916603809167039091C3
:100E500068030E94112F811112C08091720390913A
:100E60007303A0917403B0917503892B8A2B8B2B8C
:100E700019F481E08093610381E080936003CC23C7
:100E800009F456C020917A0330917B0340917C0392
:100E900050917D03C701B6010E94112F87FF14C036
:100EA00020917A0330917B0340917C0350917D0324
:100EB0006091650370916603809167039091680368
:100EC0000E94F32F87FF22C020917A0330917B0389
:100ED00040917C0350917D03C701B6010E94112F00
:100EE000811126C020917A0330917B0340917C03CD
:100EF00050917D0360916503709166038091670353
:100F0000909168030E94F32F181694F48091720355
:100F100090917303A0917403B0917503892B8A2B70
:100F20008B2B19F481E08093610381E0809360034F
:100F300081E090916003911180E080936403C092FE
:100F40006503D0926603E0926703F0926803012B79
:100F500009F067C18091690390916A03892BD9F4E4
:100F600010926F031092600380910802882379F039
:100F700082E090E090936A038093690310920802E4
:100F800020916D0330916E0381E0232BE9F080E026
:100F90001BC081E00ACF1092080280916F03882362
:100FA00049F01092610310926A0310926903109243
:100FB0006F03EDCF80916D0390916E03892BE1F06B
:100FC00080916003109260032091690330916A035D
:100FD0002230310509F45EC088F42115310509F489
:100FE00048C02130310509F4F3C01092610310921A
:100FF000600310926F0338C081E0E6CF23303105E3
:1010000009F4B1C02430310581F740915C0350915F
:101010005D0360915E0370915F03411551056105A9
:10102000710561F0415051096109710940935C03F8
:1010300050935D0360935E0370935F0340915C0384
:1010400050915D0360915E0370915F03452B462BC9
:10105000472BD9F420916B0330916C03213031057B
:1010600009F046C01092610310926A03109269035E
:101070000CC080910802882341F082E090E09093B8
:101080006A03809369031092080210925A038091B8
:101090006103CEC08823C9F38091720390917303DA
:1010A000A0917403B0917503181619061A061B0651
:1010B0000CF07DC080916D0390916E03019709F053
:1010C00076C08091720390917303A0917403B091E4
:1010D000750380935C0390935D03A0935E03B093CC
:1010E0005F0383E090E090936A0380936903CDCF20
:1010F0004091760350917703609178037091790362
:10110000452B462B472BA9F0109261038091760363
:1011100090917703A0917803B091790380935C0359
:1011200090935D03A0935E03B0935F0381E090E032
:10113000DACF882399F08091090290910A02A09158
:101140000B02B0910C0280935C0390935D03A0931B
:101150005E03B0935F0384E090E0C5CF109261031B
:1011600082E090E0C0CF80915C0390915D03A091FC
:101170005E03B0915F030097A105B10559F0019797
:10118000A109B10980935C0390935D03A0935E0372
:10119000B0935F0380915C0390915D03A0915E0327
:1011A000B0915F03892B8A2B8B2B09F06ECF809136
:1011B000090290910A02A0910B02B0910C02892BB6
:1011C0008A2B8B2B09F44ECF81E080936103B3CF40
:1011D00040915C0350915D0360915E0370915F03E9
:1011E000411551056105710561F0415051096109D1
:1011F000710940935C0350935D0360935E037093A9
:101200005F0340915C0350915D0360915E037091B8
:101210005F03452B462B472B09F037CF8111C7CFF2
:101220009FCF80915A03882309F431CF80915B03CB
:10123000CF911F910F91FF90EF90DF90CF90089585
:101240001092650310926603109267031092680370
:101250001092640310926A03109269031092630360
:101260001092620310928403109283031092610320
:101270001092600310925C0310925D0310925E0363
:1012800010925F0310925B0310925A0310927F0337
:1012900010928003109281031092820310927E03B9
:1012A00010927A0310927B0310927C0310927D03BC
:1012B00088EE93E0A0E0B0E08093090290930A02E8
:1012C000A0930B02B0930C02109276031092770356
:1012D00010927803109279031092720310927303A4
:1012E00010927403109275031092710310927003A0
:1012F00081E08093080210926F0310926E031092A7
:101300006D0310926C0310926B0390E080E00895DF
:1013100080916D0390916E03892B19F580910802DD
:10132000882351F080916F03811106C081E0809382
:101330005B0380935A03089520916F033091080254
:1013400081E090E0332311F090E080E030E08223F0
:101350009323892B21F010925B0381E0EACF109256
:101360005A03089582E090E0FA01918380838FEF21
:101370009FEF0895CF93DF93EA01009711F00E9449
:101380004B1C1982188290E080E0DF91CF91089584
:10139000DB01009719F48FEF8C9308952EEF2C93B7
:1013A000FC013F96EF30F10508F034C08827E45285
:1013B000F64F8F4F0C94FA35080A060A040A020AFF
:1013C000000AFC09FE09FA09F809F609F309EF0910
:1013D000EB09F1090A0A80E311968C93089589E2DA
:1013E000FBCF82E2F9CF11961C92089583E2F4CFED
:1013F00081E2F2CF81E1F0CF87E2EECF8AE2ECCF5B
:1014000080E1EACF84E2E8CF88E2E6CF86E2E4CF6B
:1014100081E3E2CF80E2E0CF80919103909192034B
:10142000089590939203809391030895809190037F
:10143000089590919003892B809390030895982F9D
:1014400090958091900389238093900308958091D3
:101450008F03089580918D0390918E0308956115F7
:10146000710559F0FB0130E020E070E060E02417E6
:10147000350719F06115710511F0CB010895A081B0
:10148000B181A817B90709F4BF012F5F3F4F369606
:10149000EECF8091930381111CC060D266D29093ED
:1014A0008603809385030E9449140E945B149093E5
:1014B0008A03809389030E94D8180E94DF189093B2
:1014C00088038093870381E08093930390E080E01A
:1014D000089584EF9FEF08958F929F92AF92BF92ED
:1014E000CF92DF92EF92FF920F931F93CF93DF93F0
:1014F00000D000D000D01F92CDB7DEB71A86198673
:1015000018861F821E821D821C821B821A821982EB
:101510008091930307EF1FEF882309F49CC08E018D
:101520000D5F1F4F9E012B5F3F4FAE01495F5F4F25
:10153000BE01675F7F4F90E080E00E945C1A8C01E3
:10154000009721F00596029708F0DBC029853A85BF
:101550002115310509F402C1ED80FE804B815C81CB
:10156000B701640F751F8F8198858617970708F458
:10157000F5C0E20EF31ED7019C91903C09F07FC0AC
:101580004230510508F47BC011968C914091910333
:1015900050919203452B09F49CC0913F08F071C013
:1015A0002CE1290F2D3008F48BC02DE2290F2031BA
:1015B00008F489C0903C21F48150823008F483C043
:1015C00088E3890F8B3008F481C098ECC92E99E02C
:1015D000D92EE2EBF9E06D817E81AE014F5F5F4F66
:1015E00089859A8519955C01C114D104A1F189807E
:1015F0009A808114910479F18B819C8188159905D9
:1016000008F487C010E000E04B815C8170E060E08E
:10161000C7010E94243601151105E9F449815A8158
:1016200069857A858D819E81680F791FC501F601D4
:101630001995E980FA800D811E812F8138854985B1
:101640005A856FEF7FEF81E090E00E94F7198C01DF
:10165000892B09F056C0C8012A960FB6F894DEBF50
:101660000FBECDBFDF91CF911F910F91FF90EF90F3
:10167000DF90CF90BF90AF909F908F90089580E0C3
:1016800085CF30E020E0220F331FF901EB57FC4FEC
:101690000190F081E02D309709F497CF892F90E0E9
:1016A0001995009709F491CFDC011296ED91FC9108
:1016B00013971496CD90DC90309709F08CCF1FC013
:1016C00021E030E0E0CF22E030E0DDCF23E030E089
:1016D000DACFD12CC12CEAEBF9E09F3F09F07BCFA8
:1016E000E0918503F0918603309721F4C90104EF5E
:1016F0001FEF0CC08FEF90E019950097A9F604EF4B
:101700001FEF89859A85009709F4A5CF0E944B1C8D
:10171000A2CF0E94261B8C0189859A850E944B1CB2
:1017200070E060E0C4010E94BF1A98878F830E9416
:10173000F4199E838D836F8178856115710559F049
:10174000C8010E94D71D9A87898706EF1FEF892B52
:1017500009F058CF59CF08EF1FEF56CF08EF1FEF12
:10176000D0CF20919303222319F020E00C94601431
:1017700087EF9FEF089580919103909192030895D0
:101780000E94E4180E943E18F5D0E5E8F3E088E0F6
:10179000DF011D928A95E9F71092930390E080E0B3
:1017A00008950C949C1621E040E050E0BA010C949E
:1017B000601486E090E0FA019183808390E080E0FD
:1017C000089547E050E065E472E049CEDF92EF9281
:1017D000FF920F931F93CF93DF938A01EC01C60F03
:1017E000D71FE0909703F0909803D9800E940E1BBA
:1017F000D816190678F082E090E0F8019183808392
:101800008EEF9FEFDF91CF911F910F91FF90EF909F
:10181000DF900895EF2841F482E090E0F801918391
:10182000808384EF9FEFEECF89818093960390E0D1
:101830000196F8019183808390E080E0E3CFCF931D
:10184000DF93EA010E944D17882321F00E941B1BA1
:101850000E944E1782E090E0998388838BEF9FEF80
:10186000DF91CF910895CF93DF93EB0186E0FB01E9
:1018700011928A95E9F78FEF8883D8DD8983E7DDB8
:101880008A83E8DD9D838C83DF91CF910895CF9388
:10189000DF93EA010E945017811109C082E090E0B5
:1018A0009983888385EF9FEFDF91CF91089590E032
:1018B00080E0B7DD81E090E09983888390E080E06C
:1018C000F3CF0F931F93CF93DF93EA018C01060FA1
:1018D000171F0E94501781110BC082E090E099837E
:1018E000888385EF9FEFDF91CF911F910F9108952E
:1018F000F8018181823038F082E090E0998388831A
:101900008EEF9FEFF0CF81E090E08BDD88E090E0FC
:101910009983888390E080E0E6CFCF93DF930097B0
:10192000D1F4EB01FB01329686E0DF011D928A952E
:10193000E9F78FEF888385E089831A820E940E1B66
:101940008B830E940D1B9D838C8381E08E838F830C
:10195000DF91CF910895DF91CF911ACD81EE9BE079
:1019600090939503809394030895809194039091AC
:101970009503089510929503109294030895809111
:101980009703909198030895411105C06115710561
:101990008105910561F0609397037093980380939C
:1019A000990390939A0340939B0381E0089580E00C
:1019B0000895FF920F931F93CF93DF938A01EC0159
:1019C000C60FD71FF9800E940E1BF816190668F083
:1019D00082E090E0F801918380838EEF9FEFDF91AA
:1019E000CF911F910F91FF9008956C817D818E8121
:1019F0009F814B81C9DF811108C082E090E0F8012E
:101A00009183808384EF9FEFEACF8981809396034F
:101A100090E00196F8019183808390E080E0DFCF31
:101A2000CF93DF93EA01FC01E60FF71F6481758114
:101A3000868197814381A8DF811109C082E090E00F
:101A40009983888384EF9FEFDF91CF91089581E0A0
:101A500090E09983888390E080E0F6CFE7E9F3E0B7
:101A60004081518162817381480F511D611D711D3B
:101A700040835183628373830895CF93C09196030B
:101A80004C2F50E0609197037091980301960E944B
:101A90001B368C2FE3DF10929603CF9108950097A9
:101AA00099F480919703909198032FEFFB01208385
:101AB000892B59F02091960330E02F5F3F4F241778
:101AC000350719F4CB01D9CF63CC0895009799F469
:101AD00080919703909198032FEFFB012083892B2E
:101AE00059F02091960330E02F5F3F4F24173507C0
:101AF00019F4CB01C2CF4CCC089523E1AC01249F53
:101B0000C001259F900D1124E091A003F091A10345
:101B1000E80FF91F238134812250310981E02230FE
:101B2000310508F080E008950F931F93CF93DF9362
:101B30000091A2031091A303D0E0C0E080E00C1755
:101B40001D0749F491E0811190E0892FDF91CF9139
:101B50001F910F9108958111F5CFCE01CEDF21960F
:101B6000EECFA091A003B091A103109729F120918D
:101B7000A2033091A30382179307F0F453E1589F17
:101B80009001599F300D1124A20FB31FED91FC91CC
:101B90001197309789F012968C91681768F48DE050
:101BA000689FE00DF11D112480819181892B21F026
:101BB00081E09281491708F080E008959C0143E19B
:101BC000429FC001439F900D1124E091A003F0912A
:101BD000A103E80FF91F8385823091F481E090E042
:101BE0006581768140910D0250910E026417750750
:101BF00011F490E080E0892B19F081E0232B09F0AB
:101C000080E00895FC01A081B1818DE0689FA00D66
:101C1000B11D112413964D915C9185859685489F41
:101C20009001499F300D589F300D1124C901019634
:101C3000611103C0478144FD04960895EF92FF921D
:101C40000F931F93CF93DF93EA01FC01E60FF71F79
:101C500002811381E480F5804F2D6E2DC80181DF54
:101C600081110DC082E090E0998388838EEF9FEF11
:101C7000DF91CF911F910F91FF90EF900895C801D0
:101C80003CDF882339F082E090E09983888388EFF5
:101C90009FEFEECF1093140200931302E09215020F
:101CA000F092160281E090E09983888390E080E0D2
:101CB000DFCFCF92DF92EF92FF920F931F93CF93DC
:101CC000DF937A01EC01C60FD71FC0901302D090AA
:101CD00014020091150210911602412F602FC601C7
:101CE00040DF811110C082E090E0F7019183808392
:101CF0008AEF9FEFDF91CF911F910F91FF90EF90AF
:101D0000DF90CF900895C601F8DE882341F082E08D
:101D100090E0F7019183808388EF9FEFEBCF4C81B8
:101D20005D816E817F819A8189818F3F41F082E060
:101D300090E0F701918380838EEF9FEFDBCFE3E1AB
:101D4000EC9D9001ED9D300D1124E091A003F091E8
:101D5000A103E20FF31F0190F081E02D2DE0029F1F
:101D6000E00DF11D11240190F081E02D27E0129F7C
:101D7000E00DF11D1124808391838B818283438345
:101D80005483658376831F5F1093160281E090E091
:101D9000F7019183808390E080E0ACCFEF92FF92D7
:101DA0000F931F93CF93DF937A018C01060F171FB8
:101DB000C091A003D091A103209781F021E030E0F1
:101DC000F801828193814091A2035091A30384176B
:101DD000950710F030E020E0232B71F482E090E0D2
:101DE000F701918380838EEF9FEFDF91CF911F9159
:101DF0000F91FF90EF90089543E1489F9001499F14
:101E0000300D1124C20FD31F78DE882341F082E009
:101E100090E0F7019183808388EF9FEFE6CFF80190
:101E20002481358120383105C8F687818111D6CFCC
:101E30004181842F90E08F7E009741F082E090E016
:101E4000F7019183808386EF9FEFCFCF4F833E834F
:101E50002D83268128871986223010F421E02887D7
:101E600021E030E0F70131832083BFCF88E090E0AC
:101E7000FA019183808390E080E00895FB018FEF69
:101E8000808381E181838FEF9FEF9383828380E85A
:101E900090E095838483168217820895FB018FEF6B
:101EA000808391E0918382839383848384E3858319
:101EB00081E090E0978386830895DF92EF92FF920E
:101EC0000F931F93CF93DF93EA01FC01E60FF71FF7
:101ED0008181813071F082E090E0998388838FEF77
:101EE0009FEFDF91CF911F910F91FF90EF90DF90C7
:101EF000089582819381D4802581E680F7800091C6
:101F0000A0031091A1030115110539F482E090E0BE
:101F1000998388838CEF9FEFE4CF4091A203509187
:101F2000A3038417950738F082E090E099838883B3
:101F30008EEF9FEFD6CF892B39F082E090E0998326
:101F4000888386EF9FEFCDCF8D2D8D7FB1F7213028
:101F5000A1F781E0D11006C091E0E916F10431F05B
:101F600080E004C0E2E0EE16F104D0F3882329F308
:101F700090E080E0C2DD882339F082E090E0998330
:101F8000888388EF9FEFADCFF801D38681E0848707
:101F9000F686E586108A178681E090E0998388832B
:101FA00090E080E09ECF4CE050E06FE672E057CAD0
:101FB0008F929F92BF92CF92DF92EF92FF920F93F8
:101FC0001F93CF93DF93EA01FC01E60FF71F828195
:101FD00093810481B580E091A003F091A103309733
:101FE00091F482E090E0998388838CEF9FEFDF91FA
:101FF000CF911F910F91FF90EF90DF90CF90BF9006
:102000009F908F9008952091A2033091A30382178F
:10201000930738F082E090E0998388838EEF9FEFFA
:10202000E6CF23E1289F6001299FD00C1124EC0DFD
:10203000FD1DE080F180E114F10499F2828108171E
:1020400048F78DE0089F80011124E00EF11EF70192
:1020500080819181892B29F6BB20E1F2F7E0BF9EB8
:1020600040011124C4010E94121CF7019183808356
:10207000E091A003F091A103EC0DFD1D0190F08112
:10208000E02DE00FF11F80819181009739F482E00B
:1020900090E0998388838DEF9FEFA9CFA40170E032
:1020A00060E00E9424368091A0039091A103C80EA5
:1020B000D91EF60180819181080F191FF801B282A3
:1020C00081E090E09983888390E080E090CFAF92A8
:1020D000BF92CF92DF92FF920F931F93CF93DF9324
:1020E000EA01FC01E60FF71F82819381F4800091E1
:1020F000A0031091A1030115110581F482E090E085
:10210000998388838CEF9FEFDF91CF911F910F917F
:10211000FF90DF90CF90BF90AF9008952091A203E1
:102120003091A3038217930738F082E090E09983FF
:1021300088838EEF9FEFE8CF2FEF2F0D2C3FA8F76E
:1021400023E1289F6001299FD00C11240C0D1D1D37
:10215000F80180819181892B89F6FDE0FF9E500175
:102160001124C5010E94121CF80191838083E09123
:10217000A003F091A103EC0DFD1D808191810097DA
:1021800039F482E090E0998388838DEF9FEFBCCF94
:10219000A50170E060E00E942436E091A003F09178
:1021A000A103EC0DFD1DF28281E090E0998388830C
:1021B00090E080E0A9CFCF92DF92EF92FF920F9351
:1021C0001F93CF93DF93860F971FFC01028113812A
:1021D0008091A0039091A103892B81F082E090E08F
:1021E000FA01918380838CEF9FEFDF91CF911F9154
:1021F0000F91FF90EF90DF90CF900895C801B0E06D
:10220000A0E00197A109B1098F3F9F4FA105B1053A
:1022100040F082E090E0FA01918380838EEF9FEF9F
:10222000E4CF7A0183E1809F6001819FD00C11246B
:10223000C6010E94121CEC01009741F482E090E07C
:10224000F701918380838DEF9FEFCFCFA60170E0E0
:1022500060E00E942436D093A103C093A0031093A2
:10226000A3030093A20390E080E02FEF3FEF41E053
:1022700061E070E08017910741F481E090E0F701A0
:102280009183808390E080E0B0CF3A8B298B1B86CE
:102290004C877E876D87188A1F8601966396EACFE2
:1022A000EF92FF921F93CF93DF93EC0110E0F12C9C
:1022B000E12C6A811617B0F083E0689FB001112409
:1022C000AE014F5E5F4FC7010E94771C009721F05F
:1022D0002FEF3FEF3A8B298BDF91CF911F91FF902A
:1022E000EF900895612FCE018DDC61E070E00E94D7
:1022F000BF1AE816F90608F47C011F5FDACFF894DC
:1023000020919E0330919F0381E02115310509F052
:1023100080E0232B09F0789408952F923F924F92FA
:102320005F926F927F928F929F92AF92BF92CF9265
:10233000DF92EF92FF920F931F93CF93DF933C01B5
:10234000660E771EF301828193814C01B12CA12C82
:10235000C091A003D091A103209769F021E030E063
:102360006091A2037091A3038617970710F030E0E5
:1023700020E0232BD1F482E090E0FA019183808366
:102380008EEF9FEFDF91CF911F910F91FF90EF9014
:10239000DF90CF90BF90AF909F908F907F906F9085
:1023A0005F904F903F902F900895809217029092E7
:1023B0001802A0921902B0921A0263E1689F90017C
:1023C000699F300D1124C20FD31FF3018181833027
:1023D00040F082E090E0FA019183808386EF9FEFE6
:1023E000D1CF2A012B813C81232BF1F42881398123
:1023F0009F8191FF2EC0232B09F46FC02091A5036C
:102400009A81422F490F5527551FBA0141E050E0EC
:102410006138710514F050E040E0452B09F45DC0CF
:102420002A87920F9093A5038150823008F481C0CF
:1024300066DF882309F4D8C0F3018181813009F473
:102440008DC008F47BC0823009F4C6C090E080E003
:10245000ADC0232B09F441C02091A4039A81E22F3F
:10246000E90FFF27FF1F41E050E0ED3FF10514F0B9
:1024700050E040E0452B89F12A87920F9093A40306
:10248000D3CFA081B181A20FB31F11966C91060F1B
:10249000111D0196295F3F4F8417950794F38D8591
:1024A0009E85089F1001099F300C189F300C112445
:1024B000C114D104D1F48F8184FF17C00E940D1B79
:1024C000F5E02F0E311C21E08215930508F420E081
:1024D000A701435F5F4F21110EC082E090E0F2013F
:1024E0009183808387EF9FEF4DCF0E940D1B2FEFCD
:1024F000221A320AE8CF88819981E80EF91EF70185
:1025000014830383FFEFCF1ADF0A7A018A818C15C7
:102510001D0409F00CF48CCFE881F981EE0DFF1D4C
:10252000428150E030E020E010E000E090E080E008
:10253000B3CFF12CE12CD12CC12CE8CF81E090E07D
:102540009C838B83F1DA882309F480CF81E090E0CB
:102550000E94110A80E40E941F0A78CF89899A8913
:10256000019661F083E090E09C838B8382E090E0B1
:102570000E94110A80E40E94190A68CF8D819E8111
:1025800020910D0230910E0282179307D1F46091D1
:10259000110270911202AE014F5E5F4F80910F02E7
:1025A000909110020E94961D0097E1F2789422E02B
:1025B00030E0F20131832083892B99F08DEF9FEF7A
:1025C000E1CE89288A288B2869F6892B59F6CE0115
:1025D00067DE188A1F86E8CF82E090E09C838B83B9
:1025E00035CF90E080E0CECE82E090E0F2019183A2
:1025F000808385EF9FEFC6CE8F929F92AF92BF925E
:10260000CF92DF92EF92FF920F931F93CF93DF93BE
:10261000EA018C01060F171FF8018181833098F0C1
:1026200082E090E09983888386EF9FEFDF91CF91DE
:102630001F910F91FF90EF90DF90CF90BF90AF90E0
:102640009F908F9008958091A0039091A103892B72
:1026500061F081E090E02091A2033091A303232B4D
:1026600011F490E080E0892B39F482E090E09983C6
:1026700088838EEF9FEFDACF42DE882309F4DFC034
:10268000F8018181813009F495C0E8F0823099F435
:102690002091A2033091A303E091A003F091A10344
:1026A00090E080E041E050E02817390709F0BDC014
:1026B0003BDA811117C0789481E090E09983888398
:1026C00090E080E0B3CF2091A2033091A303E0918A
:1026D000A003F091A10390E080E041E050E02817D2
:1026E000390741F481E090E00E94110A80E40E94E1
:1026F0001F0AE1CF63817481672B11F054834383F8
:1027000001967396ECCFE091A003F091A103E00F46
:10271000F11F2381348122303105D9F42189328996
:102720002F3F3F4FB1F42581368140910D025091EA
:102730000E022417350761F5AF014F5E5F4F6091C0
:1027400011027091120280910F02909110020E946A
:10275000961DEFEFCE1ADE0AEE0AFE0A0D5E1F4F3F
:102760004091A2035091A30370E060E0C416D50627
:10277000E606F7063CF5009731F27894892B09F4C8
:102780009BCF82E090E0998388838DEF9FEF4ECFBF
:10279000C114D104E104F104E1F6232BD1F6CF01F9
:1027A0007FDDE091A003F091A103E00FF11F108AFB
:1027B0001786CFCF10E000E090E080E0C12CD12C54
:1027C0007601CECF0097C9F610E000E0812C912C65
:1027D000540183E0E82EF12C1AC0E091A003F0919F
:1027E000A103E00FF11F83819481029749F4F482E1
:1027F000E38282E090E00E94110A80E40E94190ABC
:10280000FFEF8F1A9F0AAF0ABF0A0D5E1F4F80911C
:10281000A2039091A303B0E0A0E088169906AA064F
:10282000BB06DCF290E080E0A8CF63817481623067
:10283000710511F4548343830196739635CF82E07A
:1028400090E09983888385EF9FEFF0CE0097B9F4ED
:102850008FEFFB018083209117023091180243E132
:10286000429FC001439F900D1124E091A003F0917D
:10287000A103E80FF91F8285FB01818308950C9461
:10288000C80988E090E0FA019183808390E080E0BD
:10289000089510929F0310929E03E0EAF3E086E011
:1028A000DF011D928A95E9F783ED9FE090939D03E8
:1028B00080939C03089580919C0390919D030895BB
:1028C0002F923F924F925F926F927F928F929F9240
:1028D000AF92BF92CF92DF92EF92FF920F931F932E
:1028E000CF93DF93CDB7DEB72F970FB6F894DEBF47
:1028F0000FBECDBFF894E0919E03F0919F033196F7
:10290000F0939F03E0939E0378944090A00350902F
:10291000A1034114510409F40CC2E091A203F09107
:10292000A303EF2B09F405C22D8749875A876B87CC
:102930007C8798878F831201B12CA12C10E000E0D6
:102940008091A2039091A303A816B90618F401156B
:10295000110529F1F89480919E0390919F030197AE
:1029600090939F0380939E037894C8012F960FB68F
:10297000F894DEBF0FBECDBFDF91CF911F910F91B5
:10298000FF90EF90DF90CF90BF90AF909F908F908F
:102990007F906F905F904F903F902F9008957101BE
:1029A000E418F508D10117968C91179781FD54C052
:1029B00013968D919C911497039709F04DC015962D
:1029C0008D919C91EF81F8858E179F0709F044C087
:1029D000B50190E080E07FD48A832091A0033091FC
:1029E000A1033D832C833D85332309F44CC04C81E6
:1029F0005D81452B09F49AC18091A2039091A303B4
:102A0000A816B90608F092C1C501D8D88823E9F004
:102A10006C817D816E0D7F1D7D836C83DB011F9634
:102A20008D919C91892B89F0D12CC12CF12CE12C1A
:102A3000AC81BD8112968C9112978E151F0409F0FE
:102A400094F450961C921E921F972A81222321F003
:102A5000B50190E080E041D43FEFA31AB30A43E10F
:102A6000240E311C6DCFAC81BD81ED91FC91EC0D3C
:102A7000FD1D858196810FD7BFEFEB1AFB0AEDE0B4
:102A8000CE0ED11CD5CFEC81FD81309709F44EC11B
:102A90008091A2039091A303A816B90608F046C13D
:102AA000EE0DFF1DFF87EE87C50188D88B83882335
:102AB00039F1AE85BF851F968D919C9150970196F7
:102AC00021E01D964D915C918417950709F020E057
:102AD0002E831982712C10E000E0AE85BF8512961E
:102AE0008C91781608F45DC0EE85FF858785908906
:102AF0000196658576850E94C435908B8787A5CF22
:102B0000B1E0BE83E6CF992493946BC08BD6F601D7
:102B10009683858382C0D601ED90FC90B7E06B9ED2
:102B2000E00CF11C1124F7016381748180818F3FD7
:102B300061F121E030E002C0220F331F8A95E2F7F5
:102B4000C901092E000CAA0BBB0BFB01408151816E
:102B50006281738184239523A623B72321E0892BE7
:102B60008A2B8B2B09F420E0D4012C93D7011196EA
:102B70008C91F60123853485820F932F911D880E49
:102B8000991E1486138663949BC0418150E0C40152
:102B90000E941B36EBCF998206EF1FEFC5C019824A
:102BA000C3C0F981F111A0CFEDE07E9E7001112428
:102BB000AE85BF85CD90DC90CE0CDF1C15D49D83F7
:102BC0008C83BB81BB2309F49ECF81E0EE85FF851A
:102BD00027853089232B09F080E0982E882309F47B
:102BE00058C0672D8E859F850DD8D60118969C9369
:102BF0008E93179761E070E0C2D4EE85FF8521893E
:102C000032892F3F320709F481CFBC01C901CFD7E8
:102C1000D60116969C938E931597D60115968D9195
:102C20009C911697009709F4B6CFEC81FD818E0F29
:102C30009F1F1A969C938E931997AE85BF85ED9131
:102C4000FC911197EE0EFF1EF70121853285148647
:102C500013861A968C91870DD9018D93711016C029
:102C6000EE85FF85878184FF11C049855A856B8574
:102C70007C85F9014183528363837483F7018385E3
:102C800094850496A80FB91F14861386F701B2879E
:102C9000A187D60115968D919C911697892B09F4E1
:102CA00043C0EE85FF852581368180910D0290918C
:102CB0000E022817390779F019968D909C90612C97
:102CC000D60112968C911297681608F424CF1A96A2
:102CD0009C928E921997BE81BB2309F460CF61E06C
:102CE00070E0F601878190854AD4D6011796ED9061
:102CF000FC90189715964D915C91E1E0F0E0BA8157
:102D0000BB2311F0F0E0E0E00C811D819C01B501D6
:102D1000882799278E1B9F0B6AD38C01892B21F062
:102D2000F60185819681B7D57394D7CE0FEF1FEF4B
:102D30008CCE10E000E00ECE2F923F924F925F9229
:102D40006F927F928F929F92AF92BF92CF92DF92BB
:102D5000EF92FF920F931F93CF93DF938091A00385
:102D60009091A10310E000E0892BA9F0C8DA0AEFE6
:102D70001FEF882381F02090A2033090A303C0911D
:102D8000A003D091A103D12CC12C10E000E02C14A1
:102D90003D04A9F47894C801DF91CF911F910F9160
:102DA000FF90EF90DF90CF90BF90AF909F908F906B
:102DB0007F906F905F904F903F902F900895C60145
:102DC0000E94DE0D882309F18B819C810397E9F431
:102DD0008F859889892BC9F0B60190E080E07BD27D
:102DE00021E030E0882311F030E020E04424552435
:102DF000421A530AB12CA12C912C812C8A8188155E
:102E0000190409F038F4188A1F864FEFC41AD40A3F
:102E10006396BDCFE881F981EA0DFB1D858196811E
:102E2000892BA1F161E070E087819085A8D33C01F6
:102E3000DBD28C01E881F981EA0DFB1D8185928549
:102E400025813681200F311FAC01421B530B9A01A3
:102E500047815085421B530B70E060E00E9424368E
:102E6000E881F981EA0DFB1DE780F08445815681F8
:102E70009301B601C201BBD28C01892B39F0E881E4
:102E8000F981EA0DFB1D8581968105D55FEF851AD5
:102E9000950A8DE0A80EB11CB1CF31CA789408957F
:102EA0002F923F924F925F926F927F929F92AF923A
:102EB000BF92CF92DF92EF92FF920F931F93CF9327
:102EC000DF9300D000D0CDB7DEB70091A003109102
:102ED000A103992493940115110509F43EC0A09013
:102EE000A203B090A3030BDA982E8823B1F11092BD
:102EF000A1031092A0031092A3031092A2031092B8
:102F0000A4031092A5038FEF9FEFDC0180931702BB
:102F100090931802A0931902B0931A0278947FD369
:102F20001E830D83C12CD12C7601C501B0E0A0E039
:102F300089839A83AB83BC8322242A94322C89818F
:102F40009A81AB81BC81C816D906EA06FB06F4F06B
:102F5000C801A1D480E40E941F0A892D26960FB6CD
:102F6000F894DEBF0FBECDBFDF91CF911F910F91BF
:102F7000FF90EF90DF90CF90BF90AF909F907F90A9
:102F80006F905F904F903F902F900895AD81BE81DC
:102F900015968D919C91169720910D0230910E02FD
:102FA00082179307D1F451968D919C91EED5ED81C6
:102FB000FE8180819181B12CA12C412C512C3201B8
:102FC000892B89F5BFEFCB1ADB0AEB0AFB0AED81EF
:102FD000FE817396FE83ED83B2CFC114D104E10468
:102FE000F10429F7892B19F7ED81FE8181899289F6
:102FF0008F3F980709F029D5AD81BE8152963C924A
:103000002E925197D4CF8A0D9B1DDC018D919C91FE
:10301000009709F040D4BFEF4B1A5B0A6B0A7B0A9A
:10302000EDE0AE0EB11CAD81BE818D919C911197EA
:1030300012964C9150E070E060E04416550666062A
:1030400077060CF328D4BECFCF93DF93EA0128DFB5
:10305000811109C082E090E09983888385EF9FEF1A
:10306000DF91CF91089581E090E00E94110A81E004
:1030700090E09983888390E080E0F2CF11DF109296
:103080009D0310929C03089542E050E067EB72E0CC
:103090000C942F0AFF920F931F93CF93DF938A0113
:1030A000EC01C60FD71FF980B9D20897F816190698
:1030B00071F068F082E090E0F801918380838EEFF8
:1030C0009FEFDF91CF911F910F91FF9008956C8139
:1030D0007D818E819F814B810E94C40C811108C02B
:1030E00082E090E0F8019183808384EF9FEFE9CF45
:1030F000F9800E94BF0C4F2D50E0BE01685F7F4FEA
:103100000E941B3689810E942E0D81E090E0F8011B
:103110009183808390E080E0D4CFDF92EF92FF92A2
:103120000F931F93CF93DF938A01EC01C60FD71F34
:103130000E94BF0C7C01D98071D2DD2059F002972A
:1031400021E030E0D816190619F010F030E020E048
:10315000232B79F482E090E0F801918380838EEF55
:103160009FEFDF91CF911F910F91FF90EF90DF9034
:103170000895EF2841F482E090E0F8019183808384
:1031800084EF9FEFEECFF9800E94BF0C4F2D50E0EF
:10319000BE016E5F7F4F0E941B3689810E942E0DFB
:1031A00081E090E0F8019183808390E080E0D9CFC6
:1031B00084E498E19093A7038093A60308958091F7
:1031C000A6039091A70308950895FC01118210822F
:1031D000938382830895DB011D921C92DC01129679
:1031E000ED91FC9113977183608313967C936E939A
:1031F00012970895FC0180819181DB018D939C934E
:10320000A081B181109741F08D919C919183808331
:10321000892B11F4F383E2830895FC01808191816D
:10322000DB018D939C93892B11F4738362837183EB
:1032300060830895FC011182108293838283089534
:10324000CF93DF931F921F92CDB7DEB71A821982F8
:10325000F894BE016F5F7F4F8DEA93E0CBDF8981E9
:103260009A81009709F017D389819A81892B89F770
:10327000BE016F5F7F4F81EB93E0BCDF89819A8154
:10328000009709F008D389819A81892B89F778946E
:103290000F900F90DF91CF910895CF93DF931F92FE
:1032A0001F92CDB7DEB71A821982F894BE016F5F04
:1032B0007F4F89EA93E09EDF89819A81009709F028
:1032C000EAD289819A81892B89F778940F900F909F
:1032D000DF91CF91089581E0089590E080E0089516
:1032E000EF92FF920F931F93CF93DF931F921F9242
:1032F000CDB7DEB71A8219828091A80307EF1FEFBE
:103300008823A1F1F894BE016F5F7F4F81EB93E0BA
:1033100071DF789489819A81EE24E394F12C892BD2
:1033200051F4F894BE016F5F7F4F8DEA93E062DF46
:103330007894F12CE12C89819A810EEF1FEF009790
:10334000A9F0FC014281538164E070E07AD68C01DF
:10335000892B61F0F89469817A81C701880F991FE0
:10336000880F991F83559C4F58DF7894C8010F90A0
:103370000F90DF91CF911F910F91FF90EF900895E3
:103380000F931F93CF93DF9300D01F92CDB7DEB77B
:103390001C821B821A8219828091A80307EF1FEFFB
:1033A0008823C1F0AE014D5F5F4F64E070E0CE0155
:1033B0000196BAD68C01892B69F4E981FA818B8157
:1033C0009C8193838283F89469817A8189EA93E06E
:1033D00002DF7894C8010F900F900F900F90DF914B
:1033E000CF911F910F910895BFD7049608958F92A2
:1033F0009F92AF92BF92CF92DF92EF92FF920F9384
:103400001F93CF93DF931F921F92CDB7DEB71A821F
:103410001982BC016F5F7F4F6330710598F0AA2459
:10342000AA94BA2CC5010F900F90DF91CF911F91F4
:103430000F91FF90EF90DF90CF90BF90AF909F9053
:103440008F9008954115510551F3480159018A01A2
:103450006C01CADF8815990511F7E114F104F9F23E
:103460008E0D9F1DA816B906D0F28091A80388235F
:10347000F1F0F894B501645071099701AE014F5F06
:103480005F4FC8010496E5D65C01892B71F48981F0
:103490009A81F80193838283C601880F991F880F50
:1034A000991FB80183559C4F96DE7894BBCF87EF68
:1034B000A82EBB24BA94B6CFAF92BF92CF92DF9220
:1034C000EF92FF920F931F93CF93DF931F921F9260
:1034D000CDB7DEB71A821982892B09F047C0611572
:1034E000710509F443C04115510509F43FC0211588
:1034F000310509F43BC001151105C1F18091A80304
:103500008823B9F179016A015B01F894BE016F5F0C
:103510007F4F89EA93E06EDE789489819A810097E3
:1035200059F1DC0112966D917C91A8010496AAD6FE
:103530008C01E981FA81D501ED93FC93828193811D
:103540000496F601918380834FDFD7018D939C937E
:10355000C8010F900F90DF91CF911F910F91FF90B5
:10356000EF90DF90CF90BF90AF9008950FEF1FEFD7
:10357000EFCF07EF1FEFECCF0EEF1FEFE9CFCF93A9
:10358000DF93EC01672B71F4F8D68C179D0760F080
:10359000EBD62496C80FD91FEAD68C0F9D1FDF915A
:1035A000CF910895E7D6F1CF90E080E0F8CF0F9368
:1035B0001F93CF93DF932091A80321112BC08B0180
:1035C000EC018DEA93E001DE81EB93E0FEDD89EA18
:1035D00093E0FBDD97D00097C1F4CFD670E060E0B8
:1035E000CEDF4BE152E062E070E081D1009769F4F8
:1035F00080911B0290911C02D2D6B801CE0107D552
:10360000009719F421E02093A803DF91CF911F9137
:103610000F91089584EF9FEFF8CFACC6AEC6CF935D
:10362000DF93AED6EC01892B11F40ADE36DECE0133
:10363000DF91CF910895CF93DF93A2D6EC01892B30
:1036400009F4FEDDCE01DF91CF91089580911B0238
:1036500090911C020895CF93DF938091A803D0E04E
:10366000C0E08823D1F0A0D6EC01892BB1F4E8DDCD
:1036700014DE80911B0290911C02E7D1E8D2EC018C
:10368000892B59F48DEA93E0D5DD81EB93E0D2DD0F
:1036900089EA93E0CFDD1092A803CE01DF91CF91AC
:1036A0000895EF92FF920F931F93CF93DF93EC0156
:1036B0007A018B010F5F1F4F0E9DA0010F9D500DD2
:1036C0001E9D500D112470E060E00E94243690E0B1
:1036D00080E0F0E0E0E02FEFE816F90639F4DF9142
:1036E000CF911F910F91FF90EF9008951A82198248
:1036F0002883309711F0D283C1830196FE01C00F59
:10370000D11FEACFCF92DF92EF92FF920F931F93D8
:10371000CF93DF930AEE14E00C7F43E050E06DE1BD
:1037200072E083E292E020D48DE1E82E82E0F82E70
:1037300093E2C92E92E0D92EC1E5D5E0D7014D9193
:103740005D917D01F601619171916F01198308838B
:103750005D834C835B834A837F836E839B012F5FF2
:103760003F4F249FC001259F900D349F900D112441
:10377000998788870115110511F0C80192DF8885A6
:103780009985080F191F2A96F3E2EF16F2E0FF065B
:10379000A9F6E7EBF3E080E391E0DF019C011D92E5
:1037A00021503040E1F71092B6031092B503109209
:1037B000700510926F0510927405109273051092A7
:1037C000720510927105109276051092750510928F
:1037D00078051092770510927A051092790510926B
:1037E0007E0510927D0510927C0510927B0510924B
:1037F000800510927F05109282051092810510922B
:103800004E0510924D051092500510924F0590E014
:1038100080E0DF91CF911F910F91FF90EF90DF90AB
:10382000CF9008950097F1F0F894A3E2B2E0E1E5BB
:10383000F5E030E020E04D915D9148175907A8F080
:10384000428153814115510581F08AE0829FF00148
:10385000839FF00D1124EF5AFA4F808191810097D8
:1038600059F4789490E080E008952F5F3F4F3A96A6
:103870002330310501F7F5CFDC0111966D917C9174
:10388000718360834150510953834283FC0121932A
:10389000CF0178940895009749F1DC018E9185302D
:1038A00041F4E0914F05F09150053097F9F0CD01CA
:1038B00019948530D8F4282F30E0F8948FEF8C934A
:1038C0008AE0829FF001839FF00D1124EF5AFA4F96
:1038D0008081918112969C938E931197B183A083DE
:1038E0008281938101969383828378940895CF9205
:1038F000DF92EF92FF920F931F93CF93DF939C0180
:103900008AEB93E08C7F4115510509F49BC021158A
:10391000310509F497C06115710509F493C07A0166
:10392000AB01B9016D5F7F4F6C7F9B012F5F3F4FF4
:10393000249F8001259F100D349F100D1124F894B1
:1039400020916F0530917005232B59F42091770554
:10395000309178052115310569F12017310708F0FC
:1039600058C02091790530917A05232B91F420914C
:10397000770530917805820F931F20918105309152
:1039800082052115310509F441C02017310708F0DF
:1039900056C07894CFEFDFEF86EF9FEFF701D1832A
:1039A000C083DF91CF911F910F91FF90EF90DF9037
:1039B000CF900895C3E0D0E0C090B503D090B60397
:1039C0002DE231E02C193D092017310710F32AE0D0
:1039D0002C9FF0012D9FF00D1124EF5AFA4F918387
:1039E000808355834483538342837783668311871F
:1039F0000087009709F055DE0C0D1D1D1093B603CE
:103A00000093B503789490E080E0C8CFC4E0D0E0A4
:103A1000D3CFC3E0D0E02AE02C9FF0012D9FF00D22
:103A20001124EF5AFA4F9183808355834483538343
:103A3000428377836683009729F333DEE3CFC4E0C4
:103A4000D0E0E9CF8FEF9FEFACCF9C0103970297B7
:103A500008F069C0F89484E09AE0482F50E02417F9
:103A600035070CF44DC091E08AE0829FF001839FFE
:103A7000F00D1124EF5AFA4F118210821582148230
:103A800013821282178216829923B1F180916F05F9
:103A900090917005892BA9F42091770530917805D4
:103AA0002115310571F08091B5039091B603821B09
:103AB000930B9093B6038093B50310927805109200
:103AC00077058091790590917A05892BA9F4209149
:103AD0008105309182052115310571F08091B50382
:103AE0009091B603821B930B9093B6038093B5031A
:103AF0001092820510928105789490E080E00895FC
:103B0000949FF001959FF00D1124EF5AFA4F4081D8
:103B10005181452B31F440855185452B11F481505D
:103B20009CCF90E0A1CF8FEF9FEF089541155105F5
:103B300049F1009739F16115710521F1F89420914F
:103B40004D0530914E05232BB9F420914F0530914E
:103B50005005232B89F490934E0580934D05709367
:103B6000500560934F05789425E030E090E080E0C8
:103B7000FA0131832083089578942FEF3FEF86EF89
:103B80009FEFF6CF8FEF9FEF0895059769F4F894B4
:103B900010924E0510924D051092500510924F054F
:103BA000789490E080E008958FEF9FEF089561157D
:103BB000710519F4F0E0E0E011C08530910581F461
:103BC000E0914D05F0914E053097A1F3CB010196A0
:103BD0001995009779F3FC0185E08193CF01089551
:103BE0009C01235031092230310520F72AE0289F1B
:103BF000D001299FB00D1124AF5ABA4F2D913C919D
:103C00001197232BB9F216962D913C9117972617F1
:103C1000370780F2F89412962D913C911397211555
:103C2000310529F0ED91FC911197309711F47894BA
:103C3000C1CF4181528111965C934E93215031093D
:103C400013963C932E93129781937894C7CFE7EE07
:103C5000F4E086E6DF011D928A95E9F7E7EBF3E0F1
:103C600080E391E0DF019C011D9221503040E1F79B
:103C70001092B6031092B503E1E5F5E082E3DF01AF
:103C80001D928A95E9F7EDE4F5E084E0DF011D92ED
:103C90008A95E9F790E080E00895CF93DF93C09193
:103CA0002902D0912A02CF3FDC0761F40E946A2DDD
:103CB00090932A028093290297FF09C0D0932A0289
:103CC000C093290284EF9FEFDF91CF91089590E098
:103CD00080E0FACF8230910528F48093830590E04C
:103CE00080E008958FEF9FEF08954F925F926F925B
:103CF0007F92AF92BF92CF92DF92EF92FF920F939B
:103D00001F93CF93DF931F921F92CDB7DEB71A8216
:103D10001982009709F47AC06115710509F476C01B
:103D20002091290230912A0207EF1FEF2F3F3F4FCA
:103D300009F446C06B015C01412C512C3201F12C7D
:103D4000E12C10E000E09E012F5F3F4FA6014E19CD
:103D50005F09B5016E0D7F1D8091290290912A02A5
:103D60000E94C92D892B09F04BC089819A81009747
:103D700041F4E114F10429F420918305222309F48C
:103D800042C0E80EF91EEC14FD04D0F480E8481699
:103D900084E858068EE16806710420F560E070E062
:103DA000CB010E94D5302AE0420E511C611C711CCF
:103DB0000A3F4FEF140721F0043F8FEF1807A1F4DB
:103DC000C8010F900F90DF91CF911F910F91FF903D
:103DD000EF90DF90CF90BF90AF907F906F905F900B
:103DE0004F90089501EF1FEF81E090E0013F2FEF2A
:103DF000120711F090E080E0892B09F4A4CFE0CF06
:103E000004EF1FEFDDCF0AEF1FEFDACF0FEF1FEF49
:103E1000D7CF4F925F926F927F92AF92BF92CF9225
:103E2000DF92EF92FF920F931F93CF93DF931F9236
:103E30001F92CDB7DEB71A821982009709F47AC0B3
:103E40006115710509F476C02091290230912A028A
:103E500007EF1FEF2F3F3F4F09F446C06B015C0196
:103E6000412C512C3201F12CE12C10E000E09E019C
:103E70002F5F3F4FA6014E195F09B5016E0D7F1DE3
:103E80008091290290912A020E947F2D892B09F0AE
:103E90004BC089819A81009741F4E114F10429F41F
:103EA00020918305222309F442C0E80EF91EEC1488
:103EB000FD04D0F480E4481682E458068FE06806DA
:103EC000710420F560E070E0CB010E94D5302AE05B
:103ED000420E511C611C711C0E3F4FEF140721F064
:103EE000043F8FEF1807A1F4C8010F900F90DF91E6
:103EF000CF911F910F91FF90EF90DF90CF90BF90E7
:103F0000AF907F906F905F904F90089502EF1FEFFA
:103F100081E090E0023F2FEF120711F090E080E087
:103F2000892B09F4A4CFE0CF04EF1FEFDDCF0EEF14
:103F30001FEFDACF0FEF1FEFD7CF809129029091BB
:103F40002A028F3F980751F00E94622D892B49F475
:103F50008FEF9FEF90932A028093290290E080E0F8
:103F6000089584EF9FEF0895CF92DF92EF92FF9232
:103F70000F931F93CF93DF9321E04115510509F073
:103F800020E04150510921112CC0DC01FB01D12C52
:103F9000C12C21E022C03FEFC31AD30A7D010D914D
:103FA0001D91E701EA80FB80E016F106A8F420816C
:103FB0003181E280F380F182E08233832283ED90CD
:103FC000FC9011979D0122503109E901F982E882A4
:103FD00011961C930E9320E03296C416D506D8F2A3
:103FE000D2CFDF91CF911F910F91FF90EF90DF9093
:103FF000CF900895FC01680F791F90E080E0E617EC
:10400000F70709F408952191820F911DF8CF2091AF
:104010008405211113C041DE009791F410928A05A6
:1040200010928905109288051092870510928605D6
:104030001092850521E020938405089584EF9FEF79
:104040000895AF92BF92CF92DF92EF92FF920F93BB
:104050001F93CF93DF93009709F460C0463051055A
:1040600008F45CC020918405C7EFDFEF222309F438
:1040700049C08C01060F171FF801C080D180C11400
:10408000D10409F44EC096012A5F3F4F42175307EF
:1040900008F447C07C018091890590918A0593833B
:1040A0008283B6016C5F7F4F5801A60EB71EC80110
:1040B000A1DFF5019183808364E070E0C80115DE23
:1040C000EC01892BF9F481E090E004DEB601C8012F
:1040D00004960BDEEC01892B91F462E070E0C501DF
:1040E00004DEEC01892B59F4C701D5DB80918905E9
:1040F00090918A05019690938A058093890590E0B6
:1041000080E0E8DDCE01DF91CF911F910F91FF900C
:10411000EF90DF90CF90BF90AF900895CFEFDFEF9B
:10412000F1CFC9EFDFEFEECF6F927F928F929F9228
:10413000AF92BF92CF92DF92EF92FF920F931F93B5
:10414000CF93DF9300D01F92CDB7DEB7009709F46D
:104150007AC04115510509F476C02091840507EF16
:104160001FEF222309F44DC03A017B015C0164E09A
:1041700070E0CE0101964DDE8C01892B09F041C023
:1041800009811A810115110509F45AC0480186E018
:10419000880E911CB701680D791D80912B029091BA
:1041A0002C0205DD6C01009709F450C0A70170E0F6
:1041B00060E00E94243689819A81AB81BC81EC0C3D
:1041C000FD1CF70181939193A193B1937F0181E04D
:1041D00090E080DDB801C7011CDE892B31F562E07B
:1041E00070E0C701800F911F14DE8C01892BE9F468
:1041F00090E080E06FDDF501D182C082F301918211
:104200008082C8010F900F900F900F90DF91CF9197
:104210001F910F91FF90EF90DF90CF90BF90AF90E4
:104220009F908F907F906F90089590E080E052DD96
:10423000F50111821082F30111821082C6012BDB7D
:1042400009EF1FEFDECF0FEF1FEFDBCF06EF1FEF02
:10425000D8CF0097A1F04115510589F021153105FE
:1042600071F0F90136966E177F0748F0DC012D9347
:104270003C93DA01ED93FC9390E080E008958FEF9A
:104280009FEF0895AF92BF92CF92DF92EF92FF928D
:104290000F931F93CF93DF93009709F45FC04115ED
:1042A000510509F45BC06530710508F457C02091D1
:1042B0008405C7EFDFEF222391F1DC01CD90DC9084
:1042C00011971296ED91FC9196012A5F3F4FC9EF2D
:1042D000DFEF2617370719F5C0918505D0918605C0
:1042E000209749F521E030E030938605209385053D
:1042F0007A018C01F0938805E09387055601B4E0BC
:10430000AB0EB11CB50176DE0A0D1B1DF801208134
:1043100031818217930729F5D701CD92DC92CE0126
:10432000DF91CF911F910F91FF90EF90DF90CF9091
:10433000BF90AF90089520918705309188052F5F39
:104340003F4FCCEFDFEFE217F30790F2CBEFDFEF59
:104350002E173F0768F2D0E0C0E0CACFCFEFDFEF03
:10436000DECFC3EFDFEFDBCF84E090E0089582E0A3
:1043700090E008958CEF9FEF089580E290E008951B
:1043800010928A051092890510928805109287056F
:10439000109286051092850590E080E00895909334
:1043A0002C0280932B02089580918405882391F03C
:1043B000C4DD009789F410928A0510928905109245
:1043C0008805109287051092860510928505109237
:1043D0008405089590E080E00895009749F0611504
:1043E000710531F0FC0111821082FB0111821082F3
:1043F0000895F3CF90E080E0089580910F069091AA
:104400001006891B990B08959091100680910F0654
:104410002FEF3FEF981748F4E92FF0E0EF5EF94FE8
:10442000208130E09F5F90931006C9010895E091CC
:10443000100680910F06E81730F4F0E0EF5EF94FB8
:10444000808190E008958FEF9FEF0895089591E0A7
:104450009093EB0580930E061092ED051092EC05FB
:10446000089510929E0681E080939C0610929B0610
:1044700061E084E10E940F3261E085E10E940F3229
:10448000E9EBF0E080818E7F808380818D7F808367
:1044900088E48093B80085E48093BC00089541329D
:1044A00008F041C090919E069111FCCF91E090934D
:1044B0009E0620939C062FEF2093310610927606DD
:1044C000240F2093750690939D0690919D06880F6A
:1044D000892B80939D0680919B06813011F5109267
:1044E0009B0680919D068093BB008091BC0083FD5C
:1044F000F8CF85EC8093BC0080919E068130E1F37B
:1045000080917606841710F440917606A7E7B6E00E
:10451000962FFB018E2F891B841730F48D91819388
:10452000F9CF85EEE7CF40E0842F08950F93413215
:1045300008F04BC090919E069111FCCF92E09093B1
:104540009E0600939C069FEF90933106109276068C
:1045500040937506362FA7E7B6E0FB019E2F931B0D
:10456000941718F491919D93F9CF10929D06909114
:104570009D06880F892B80939D0680919B06813034
:1045800011F510929B0680919D068093BB0080914F
:10459000BC0083FDF8CF85EC8093BC00222321F082
:1045A00080919E068230D1F3809131068F3F79F061
:1045B00080913106803269F080913106803359F064
:1045C00084E00F91089585EEE7CF81E0FACF80E097
:1045D000F8CF82E0F6CF83E0F4CF20915306260F88
:1045E0003327331F21323105E4F420919E06243015
:1045F000D1F4FC0190E080E0861760F4A0915306AE
:104600002191AC014B5A594FA40FB52FB11D2C93DA
:104610000196F2CF80915306680F6093530680E0B5
:10462000089581E0089582E00895CF93DF931F926B
:10463000CDB7DEB769832091EB052223F9F02091F5
:10464000EC05203258F021E030E0FC013383228376
:1046500090E080E00F90DF91CF9108958091ED057B
:10466000E82FF0E0E251FA4F998190838F5F8093B9
:10467000ED058093EC0581E090E0ECCF61E0CE01A8
:104680000196ABDFF8CFCF92DF92EF92FF920F93BC
:104690001F93CF93DF937C01CB018A012091EB051F
:1046A000222389F0EB016B01C40ED51ECC15DD056C
:1046B00061F06991D701ED91FC910190F081E02DBD
:1046C000C7011995F3CF642F88DFC801DF91CF911F
:1046D0001F910F91FF90EF90DF90CF90089585ED9F
:1046E0008093BC008091BC0084FDFCCF10929E069C
:1046F000089585EC8093BC0010929E0608951F9249
:104700000F920FB60F9211240BB60F922F933F9377
:104710004F935F936F937F938F939F93AF93BF93C9
:10472000EF93FF938091B900887F803609F44CC0E5
:1047300008F03FC0883209F4A8C028F5803109F498
:104740009CC0C8F4882309F4F8C0883009F495C0E7
:10475000FF91EF91BF91AF919F918F917F916F9159
:104760005F914F913F912F910F900BBE0F900FBE15
:104770000F901F901895883109F487C0803241F757
:104780008093310614C0803409F49CC040F4803317
:10479000B9F38833E9F680933106ABDFD9CF8035A2
:1047A00009F484C0883509F495C0883489F697DF08
:1047B000CFCF883909F48CC038F5883729F050F408
:1047C000883611F0803721F683E080939E061092A0
:1047D000320657C0883809F47BC0803919F0803818
:1047E00009F0B6CF80913206803208F071C0E091B6
:1047F000320681E08E0F809332068091BB00F0E09C
:10480000ED5CF94F80833DC0803B39F0E0F4803AA5
:1048100009F479C0883A09F09BCF84E080939E0622
:104820001092540610925306E0919906F0919A0660
:1048300019958091530681110FC081E08093530632
:104840001092550609C0803C09F475C0883C09F4F3
:1048500072C0883B09F07CCFE091540681E08E0F56
:1048600080935406F0E0EB5AF94F80818093BB00AF
:10487000909154068091530629C080919D068093A3
:10488000BB0085EC8093BC0063CF9091760680914D
:104890007506981758F5E091760681E08E0F8093A3
:1048A0007606F0E0E958F94F8081E9CFE09176068D
:1048B00081E08E0F809376068091BB00F0E0E9588E
:1048C000F94F808390917606809175069817C8F20B
:1048D00085E8D8CFE091760681E08E0F809376064A
:1048E0008091BB00F0E0E958F94F808380919C06ED
:1048F00081115DCF81E080939B0684EA8093BC00A8
:1049000010929E0625CFF5DE80913206803230F47B
:10491000E0913206F0E0ED5CF94F108260913206D2
:1049200070E0E0919706F091980683E396E0199580
:10493000109232060DCF85ECE1CF1092310637CFC1
:104940001092100610920F061092ED051092EC05D1
:1049500088CD0F93062F21E04091EC056EEE75E0B7
:1049600080910E06E3DD1092ED051092EC05109299
:10497000EB050F9108954F925F926F927F92AF92E5
:10498000BF92CF92EF92FF920F931F93CF93DF933B
:104990005C01F62ED42F28013901EE2011F1862F6B
:1049A00056DDCE2DC43008F0C3E0C150B8F028E089
:1049B000C29FC0011124A301920104C056954795DE
:1049C000379527958A95D2F7B901D501ED91FC91DC
:1049D0000190F081E02DC5011995E7CF60E0C50198
:1049E000B8DF4D2FD13208F040E22C2D61E176E0A6
:1049F0008F2D55DD1092100680930F06DF91CF9119
:104A00001F910F91FF90EF90CF90BF90AF907F904C
:104A10006F905F904F900895CF92EF920F931F93F6
:104A2000C22EE12C00E010E09801A5DF1F910F914C
:104A3000EF90CF90089521E0EFCF61E08ACF0F9300
:104A40001F93CF93DF93EC01062F142F8981FFDC96
:104A5000602F8FED95E0E9DD612F8FED95E0E5DDCD
:104A60008FED95E0EADF8883DF91CF911F910F9161
:104A700008951F93CF93DF93EC01162F462F4F77A6
:104A80006AE8DDDF1983DF91CF911F910895FF92CE
:104A90000F931F93CF93DF93EC01F62E142F052F66
:104AA0008981D5DC6F2D8FED95E0BFDD602F8FED17
:104AB00095E0BBDD612F8FED95E0B7DD8FED95E0E3
:104AC000BCDF8883DF91CF911F910F91FF900895F4
:104AD000CF92DF92EF92FF921F93CF93DF93EC017F
:104AE000162F69017A018981B2DC612F8FED95E083
:104AF0009CDD6F2D7727882799278FED95E095DD31
:104B0000B701882799278FED95E08FDD99278F2DA5
:104B10007E2D6D2D8FED95E088DD6C2D8FED95E070
:104B200084DD8FED95E089DF8883DF91CF911F9140
:104B3000FF90EF90DF90CF9008951F93CF93DF9376
:104B4000EC01162F898183DC612F8FED95E06DDDFF
:104B50008FED95E072DF888341E069818FED95E00C
:104B60006ADF8FED95E050DCDF91CF911F910895C2
:104B70001F93CF93DF93EC01162F898168DC612F9F
:104B80008FED95E052DD8FED95E057DF888342E0B1
:104B900069818FED95E04FDF8FED95E035DCD82F03
:104BA00080E0C82F8FED95E02FDC8C2B9D2BDF91C3
:104BB000CF911F910895DF92EF92FF920F931F9371
:104BC000CF93DF937C01C62FD42E052F122FFC012B
:104BD00081813DDC6C2F8FED95E027DDCD2DD02F31
:104BE000115028F069918FED95E01FDDF9CF8FED21
:104BF00095E023DFF7018083DF91CF911F910F9123
:104C0000FF90EF90DF900895EF92FF920F931F9324
:104C1000CF93DF93EC01E62EF42E052F122F89811E
:104C200016DC6E2D8FED95E000DD8FED95E005DF54
:104C30008883412F69818FED95E0FDDECF2DD02F48
:104C4000115028F08FED95E0DFDB8993F9CFDF91EC
:104C5000CF911F910F91FF90EF900895611571050D
:104C600029F460E56ADF8F5F880F08956130710570
:104C700011F460E7F7CF8FEF0895CF92DF92EF92B4
:104C8000FF92CF93DF93EC016A017B0141E060E882
:104C9000D6DE41E06FEFCE01D2DE40E060E0CE0133
:104CA000CEDE4F8161E9CE01CADE41E060E0CE0197
:104CB000C6DE40E06FEFCE01C2DE40E060E8CE012C
:104CC000BEDE42E0C114D104E104F10491F068EFCA
:104CD000CE014EDF009739F0DC01A70196010E945A
:104CE00002366B017C01A701960164E0CE01F0DE83
:104CF00044E060E0CE01DF91CF91FF90EF90DF9034
:104D0000CF909DCE0F931F93CF93DF93EC010E9422
:104D1000A4307E836D8363E1CE010FDF8770C9F419
:104D20008A819B81892BB9F30E94A4302D813E8119
:104D3000621B730B8A819B818617970760F781E05E
:104D40008C830FEF1FEFC801DF91CF911F910F915F
:104D500008956EE1CE010CDF8C0141E06BE0CE01E5
:104D60006EDEF1CFEF92FF920F931F93CF93DF93FD
:104D7000EC017B018A0141E060E861DE41E06FEF18
:104D8000CE015DDE40E060E0CE0159DE46E06FEF2F
:104D9000CE0155DE63E8CE01D0DE482F446063E8E3
:104DA000CE014DDE47E06FEFCE0149DE41E061E824
:104DB000CE0145DE41E060E8CE0141DE4BE664E92C
:104DC000CE013DDE40E063E8CE0139DE0E94A43032
:104DD0007E836D8363E8CE01B0DE811111C08A81CC
:104DE0009B81892BB9F30E94A4302D813E81621BE7
:104DF000730B8A819B818617970760F780E031C02B
:104E000041E063E8CE011BDE62E9CE0196DE982F19
:104E10009F77F7019083881F8827881FF801808378
:104E200040E061E8CE010BDE46E06FEFCE0107DE29
:104E300063E8CE0182DE482F4B7F63E8CE01FFDDC1
:104E400041E06FEFCE01FBDD41E060E0CE01F7DD38
:104E500040E06FEFCE01F3DD40E060E8CE01EFDD32
:104E600081E0DF91CF911F910F91FF90EF90089516
:104E7000CF93DF93EB0161E060DE84FB992790F92B
:104E8000988383FB992790F99A8382FB992790F95D
:104E9000998386FB992790F99B83881F8827881F11
:104EA0008C83DF91CF9108959C013327A90102C023
:104EB000440F551F9A95E2F7CA01019608950F9382
:104EC0001F930097B9F00197B0E0A0E050E040E0F8
:104ED0008C019D010027012B022B032B39F0B69585
:104EE000A795979587954F5F5F4FF2CF342F222775
:104EF000822B932B1F910F9108954F925F926F9287
:104F00007F928F929F92AF92BF92CF92DF92EF9259
:104F1000FF925C01A62FB0E020E03FE24AE350E0C0
:104F20000E9402366B017C0124EFC20E21E0D21EEA
:104F3000E11CF11C88EE482E83E0582E612C712C68
:104F4000C701B601A30192010E94D835D5010E9484
:104F500002364B015C01C701B60120ED37E040E0AD
:104F600050E00E94D835C501B401620F731F841F41
:104F7000951FA30192010E94D835CA01B901FF9083
:104F8000EF90DF90CF90BF90AF909F908F907F90E9
:104F90006F905F904F900895EF92FF920F931F9341
:104FA000CF93DF938C017B01EA0170E060E056DE75
:104FB00090E09983888366E4C801BFDD90E00196A4
:104FC0009D838C83688199DF6A877B878C879D8727
:104FD00061E5C801CDDD68DF9F838E8368818DDF49
:104FE0006E877F87888B998B60E7C801A6DD8F5F0E
:104FF000880F90E09B838A8361E7C801B9DD54DFA5
:1050000099878887F7012381222331F02E813F8100
:10501000821B930B998788876A81888599856DDFC4
:105020006A8B7B8B8C8B9D8BDF91CF911F910F9126
:10503000FF90EF900895CF92DF92EF92FF920F933F
:105040001F93CF93DF93CDB7DEB76B970FB6F8946E
:10505000DEBF0FBECDBF8C01BE01695E7F4F08DF92
:10506000AE014F5F5F4FBE01695E7F4FC80194DFA5
:105070008F89882309F454C06B857C858D859E8536
:105080006C57724F8F4F9F4F298D222309F44DC0CB
:10509000CB84DC84ED84FE8422EBC20E22E0D21E9F
:1050A000E11CF11CCC0CDD1CEE1CFF1C6C0D7D1DED
:1050B0008E1D9F1D2A8D222371F0CF84D888E98808
:1050C000FA88F4E9CF0EF2E0DF1EE11CF11C6C0D52
:1050D0007D1D8E1D9F1D2B8D222371F0CB88DC88BA
:1050E000ED88FE8826E2C20E22E0D21EE11CF11CF1
:1050F0006C0D7D1D8E1D9F1DF80160877187828755
:1051000093876B960FB6F894DEBF0FBECDBFDF91CD
:10511000CF911F910F91FF90EF90DF90CF90089566
:1051200066E37BE080E090E0AFCF288D222311F290
:10513000CB84DC84ED84FE84E4E9CE0EE2E0DE1E66
:10514000E11CF11CB3CF8F929F92AF92BF92CF928E
:10515000DF92EF92FF924B015C01A42FB0E020E0C0
:105160003FE24AE350E00E9402366B017C0124EFEB
:10517000C20E21E0D21EE11CF11CA8EEB3E0A50195
:1051800094010E9402364B015C01C701B60120ED7B
:1051900037E040E050E00E94D835820E931EA41EF6
:1051A000B51EC701B60128EE33E040E050E00E9492
:1051B000D835C501B4010E94D835CA01B901FF90A4
:1051C000EF90DF90CF90BF90AF909F908F90089519
:1051D0008F929F92AF92BF92CF92DF92EF92FF9207
:1051E0000F931F93CF93DF93CDB7DEB76B970FB6B7
:1051F000F894DEBF0FBECDBF40322EE452076105EA
:10520000710508F48DC04A015B017C01BE01695E35
:105210007F4F2EDEAE014F5F5F4FBE01695E7F4F55
:10522000C701BADE8F8908EE18E020E030E088235D
:1052300041F00B851C852D853E850A5C144F2F4F50
:105240003F4F898D882309F45BC08B859C85AD8594
:10525000BE858E549D4FAF4FBF4F880F991FAA1F19
:10526000BB1F080F191F2A1F3B1FCA8CCC2061F0DF
:105270008F859889A989BA898C569D4FAF4FBF4FAA
:10528000080F191F2A1F3B1FDB8CDD2009F445C0C6
:105290000A5D1D4F2F4F3F4F80169106A206B306A1
:1052A00008F43EC0C501B401601B710B820B930B67
:1052B0004B8149DF9B01CC2021F02F813885260FBF
:1052C000371FC901FCDDAC0161E7C701E0DBF70175
:1052D00080869186A286B3868D2D6B960FB6F89444
:1052E000DEBF0FBECDBFDF91CF911F910F91FF9019
:1052F000EF90DF90CF90BF90AF909F908F900895E8
:10530000888D882309F4B1CF8B859C85AD85BE85BA
:105310008C569D4FAF4FBF4FA4CFDD24D394DCCF2D
:10532000D12CDACFCF93DF93EC01462F416060E0C0
:1053300086DB0AD77E836D8363E1CE01FEDB877057
:1053400081F48A819B81892BB9F3FED62D813E8120
:10535000621B730B8A819B818617970768F780E031
:1053600009C041E06BE0CE016ADB40E060E0CE01C5
:1053700066DB81E0DF91CF910895EF92FF920F936A
:105380001F93CF93DF9300D000D01F921F92CDB711
:10539000DEB78C01662339F069E8CFDB482F416026
:1053A00069E8C8014CDB40E068E8C80148DB41E03F
:1053B00060E8C80144DB41E06FEFC80140DB40E03A
:1053C00060E0C8013CDB61E9C801B7DBF801878315
:1053D00041E060E0C80133DB40E06FEFC8012FDB44
:1053E00040E060E8C8012BDB60E6C801A6DB482F7F
:1053F000426160E6C80123DB40E250E064E4C8019A
:1054000046DB4FEF61E0C8011ADBAE01495F5F4F39
:10541000BE01685F7F4FC801A5DC81110FC0F12C70
:105420008F2D28960FB6F894DEBF0FBECDBFDF914B
:10543000CF911F910F91FF90EF90089526E0AE015C
:105440004F5F5F4F60EBC801DFDB41E06FEFC801EA
:10545000F6DA40E06FE4C801F2DA4CE26EE4C8012B
:10546000EEDA40E06FEFC801EADA44EB66EBC80120
:10547000E6DA8F81ACE0811101C0A0E0B88580E060
:1054800090E0EE24E394F12C482F469546954695FE
:1054900050E021E030E02C0F3D1F240F351FF901B3
:1054A0002081682F67708A1710F0B91397C1E1E067
:1054B000F0E0EC0FFD1F4E0F5F1FF70102C0EE0F73
:1054C000FF1F6A95E2F7BF0160952623FA0120834A
:1054D0008F5F8033C9F626E0AE014F5F5F4F60EB10
:1054E000C80169DB41E06FEFC801A9DA40E060E084
:1054F000C801A5DA40E06FEFC801A1DA40E069E039
:10550000C8019DDA40E060E1C80199DA40E061E15C
:10551000C80195DA41E064E2C80191DA4FEF65E233
:10552000C8018DDA40E065E7C80189DA41E06FEF34
:10553000C80185DA4CE26EE4C80181DA40E068E433
:10554000C8017DDA40E260E3C80179DA40E06FEF3C
:10555000C80175DA49E060E3C80171DA40E064E54A
:10556000C8016DDA44E061E3C80169DA43E062E34F
:10557000C80165DA43E860E4C80161DA45E266E43F
:10558000C8015DDA40E060E6C80159DA40E067E250
:10559000C80155DA46E060E5C80151DA40E061E54E
:1055A000C8014DDA46E962E5C80149DA48E066E536
:1055B000C80145DA40E367E5C80141DA40E061E649
:1055C000C8013DDA40E062E6C80139DA40E064E64D
:1055D000C80135DA40E065E6C80131DA40EA66E63E
:1055E000C8012DDA41E06FEFC80129DA42E362E237
:1055F000C80125DA44E167E4C80121DA4FEF69E424
:10560000C8011DDA40E06AE4C80119DA40E06FEF32
:10561000C80115DA4AE06AE7C80111DA40E06BE731
:10562000C8010DDA41E268E7C80109DA41E06FEF2D
:10563000C80105DA44E363E2C80101DA40E062E44C
:10564000C801FDD94FEF64E4C801F9D946E265E429
:10565000C801F5D945E066E4C801F1D940E460E449
:10566000C801EDD946E06EE0C801E9D94AE160E23F
:10567000C801E5D940E463E4C801E1D940E06FEF37
:10568000C801DDD943E064E3C801D9D944E465E346
:10569000C801D5D941E06FEFC801D1D944E061E339
:1056A000C801CDD949E06BE4C801C9D945E06CE433
:1056B000C801C5D944E06DE4C801C1D940E06FEF2D
:1056C000C801BDD940E064E4C801B9D940E265E44D
:1056D000C801B5D948E067E4C801B1D948E268E437
:1056E000C801ADD940E067E6C801A9D944E060E748
:1056F000C801A5D941E061E7C801A1D94EEF62E731
:10570000C8019DD940E066E7C80199D940E067E744
:10571000C80195D941E06FEFC80191D941E06DE032
:10572000C8018DD940E06FEFC80189D941E060E838
:10573000C80185D948EF61E0C80181D941E06FEF28
:10574000C8017DD941E06EE8C80179D941E060E047
:10575000C80175D940E06FEFC80171D940E060E839
:10576000C8016DD944E06AE0C80169D964E8C8019C
:10577000E4D9482F4F7E64E8C80161D941E06BE06D
:10578000C8015DD9C80157DCF8016087718782873D
:10579000938748EE61E0C80152D9F80140855185F0
:1057A00062857385C80114DD41E061E0C80147D915
:1057B00060E4C801B7DD882309F431CE42E061E03E
:1057C000C8013DD960E0C801ADDDF82E882309F499
:1057D00026CE48EE61E0C80132D922CE30E002C0C8
:1057E000359527956A95E2F720FF72CE9F5F70CEC0
:1057F000CF93DF93EC01FA0120E030E040E85FE373
:1058000060817181828193810CD3811121C08BE8E9
:1058100095E078DABC0190E080E033D36883798347
:105820008A839B8387E995E06DDABC0190E080E094
:1058300028D36C837D838E839F8383EA95E062DA2D
:10584000BC0190E080E01DD3688779878A879B87B9
:10585000DF91CF9108954F925F926F927F928F92D6
:105860009F92AF92BF92CF92DF92EF92FF920F93EF
:105870001F93CF93DF938B015A0120E030E040E883
:105880005FE3F5016081718182819381CAD28823AF
:1058900009F469C0E801C8014C96F801119211920F
:1058A00011921192E817F907C9F711E361E0812F0E
:1058B0007AD51F5F1633D1F711E360E0812FAFD5A2
:1058C0001F5F1633D1F78FED95E03AD88BE3E82EC2
:1058D00082E0F82E9DE2C92E92E0D92E0BE815E069
:1058E000412C512C20E8622E2FE3722E34EF832EB0
:1058F0009924939461E0F70181917F0190D56AE04A
:1059000070E080E090E051D489E20E942722F60105
:105910006081F2E0CF0ED11CC801ABD861E0C801B4
:105920002CDD811104C0488259826A827B82F80191
:105930009382828240E050E0BA01C8019ED98FED87
:1059400095E07BD8045F1F4F2496FEE3EF16F2E04C
:10595000FF0681F680E090E0A0E8BFE3F5018083D8
:105960009183A283B383DF91CF911F910F91FF9019
:10597000EF90DF90CF90BF90AF909F908F907F90EF
:105980006F905F904F9008951092E2051092E1059C
:1059900088EE93E0A0E0B0E08093E3059093E40507
:1059A000A093E505B093E60587EC92E09093E005BF
:1059B0008093DF05EBE8F5E089E2818313821282B0
:1059C00014823C9695E0EF3DF907B9F7089526E07B
:1059D00030E040E855E260E070E090E080E000C038
:1059E0008130910569F01CF4892B39F008958230DB
:1059F000910549F0039751F008958CEA96E006C6A8
:105A000089E497E0FCCF86EE97E0F9CF83E898E051
:105A1000F6CF1F920F920FB60F9211240BB60F9272
:105A20002F933F934F935F936F937F938F939F93A6
:105A3000AF93BF93EF93FF938BEC93EF909325017C
:105A400080932401B9D0FF91EF91BF91AF919F91C5
:105A50008F917F916F915F914F913F912F910F9017
:105A60000BBE0F900FBE0F901F9018958BEC93EF0D
:105A70009093250180932401A3E7B0E08C918E7F61
:105A80008C93E0E2F1E080818C7F8083E1E2F1E0C1
:105A90008081877E808380818460808380818C7F09
:105AA00080838C9181608C930895E3E7F0E080819E
:105AB00090819E7F90838170089581E00895109277
:105AC0009F06089568EE73E080E090E06ED390E06A
:105AD00080E0089526E030E040E052EC61E070E0C4
