:1000000005C100000C94082F0C94332F0C945E2F24
:100010000C94892F0C94B42F0C94DF2F0C940A307D
:100020000C94353024C1000022C1000020C1000022
:100030001EC100001CC100001AC1000018C1000050
:1000400016C1000014C1000012C1000010C1000060
:100050000EC100000CC100000AC100000C94603009
:1000600006C100000C9434340C946A3400C10000C2
:10007000FEC00000FCC00000FAC00000F8C0000094
:10008000F6C00000F4C00000F2C00000F0C00000A4
:100090000C94C0340C94F634EAC00000E8C00000B0
:1000A000E6C00000E4C00000E2C00000E0C00000C4
:1000B000DEC00000DCC00000DAC00000D8C00000D4
:1000C000D6C00000D4C000000C94622A0C944C35B9
:1000D0000C948235CCC000000C94D8350C940E36AC
:1000E000C6C0000000000A0B02090C0D0E08070331
:1000F00004010000000000000000000000000000FB
:1001000000000000000000000000000000000000EF
:1001100012111000000000000000000000000000AC
:100120000000000000000000000001021020200874
:100130000810204010204080020102010804020142
:1001400001020408102040808040201008040201B1
:10015000800402018040201008040201080402010A
:100160000102040810204080010204081020408091
:1001700005050505070508080808020202020A0A23
:100180000808040404040101010101010101030341
:10019000030303030303040707070C0C0C0C0C0CEC
:1001A0000C0C0202020206060606060606060B0BE9
:1001B0000B0B0B0B0B0B000020002300260029006B
:1001C0002C002F003200000100000301060109018C
:1001D00000002200250028002B002E0031003400F2
:1001E00002010000050108010B01000021002400AC
:1001F00027002A002D003000330001010000040117
:1002000007010A0193341F35AB35373611241FBE61
:10021000CFEFD1E2DEBFCDBF00E00CBF13E0A0E026
:10022000B2E0E6EFFDE600E00BBF02C007900D92E2
:10023000AA31B107D9F729E0AAE1B3E001C01D92C4
:10024000A236B207E1F711E0C6E0D1E000E006C057
:1002500021970109802FFE010E94C836C230D107C4
:1002600080E00807A9F70E94832B0C94F936C8CECA
:10027000CF92DF92EF92FF92CF93882351F16A01E0
:100280007B01CFEFC80F20E030E0A901CB01B60120
:100290000E94842C18168CF0C701B60190580E9459
:1002A000F52C9B01AC016C2F70E090E080E0CF91C9
:1002B000FF90EF90DF90CF90B2C0C701B6010E94CF
:1002C000F02C8C2FCF91FF90EF90DF90CF900C947B
:1002D0006731CF91FF90EF90DF90CF9008950F930B
:1002E0001F938B019C0183E0369527951795079501
:1002F0008A95D1F7065E1C4F462F477021E030E00B
:10030000F90102C0EE0FFF1F4A95E2F7AF01F801B5
:1003100020812423CB010196211102C090E080E0CE
:100320001F910F9108950F931F938B019C0183E000
:1003300036952795179507958A95D1F7677081E0CF
:1003400090E001C0880F6A95EAF7F801E65EFC4F7D
:100350002081452B31F48095822380831F910F915A
:100360000895822BFACF2F923F924F925F926F9215
:100370007F928F929F92AF92BF92CF92DF92EF9235
:10038000FF920F931F93CF93DF93D62EC72E782E15
:10039000692E49015A01280161E08D2D0E94A13288
:1003A000CD2DDC2D8E010F5F1F4FA8016D2D7C2DF3
:1003B000872D962DB8DF20E030E0A901C201B701FA
:1003C0000E94262E181664F4C201B7010E94F52C73
:1003D0002B01C501B4010E94F52CA201CE0123D04E
:1003E000C801DF91CF911F910F91FF90EF90DF90A7
:1003F000CF90BF90AF909F908F907F906F905F90C5
:100400004F903F902F900895882341F08150682F9E
:1004100070E090E080E050E040E085CF0895862FC6
:10042000B9010C9467319C01FC01EC51FF4FE49140
:10043000E150E231E0F4F0E08827EE5DFD4F8F4FB0
:100440000C94C83634023B023E0255026A0237025F
:100450007F028B028F02A602BB02D002E702FC02DF
:100460003702110328033D0384B5806884BD60E032
:10047000822F0C94DD3284B58062F8CF80918000A9
:100480008C7F82608093800080918100807E80617B
:10049000682B609381005093870040938600809181
:1004A0008000806880938000E2CF809180008C7F04
:1004B00082608093800080918100807E8061682BC3
:1004C0006093810050938700409386008091800064
:1004D0008062E8CF809180008C7F82608093800072
:1004E00080918100807E8061682B609381005093B1
:1004F000870040938600809180008860D3CF8091F0
:10050000B00080688093B0008091B100887F682B34
:100510006093B100ACCF8091B0008062F3CF809146
:1005200090008C7F82608093900080919100807E0B
:100530008061682B609391005093970040939600E0
:100540008091900080688093900091CF809190007E
:100550008C7F82608093900080919100807E80618A
:10056000682B609391005093970040939600809180
:1005700090008062E8CF809190008C7F82608093B1
:10058000900080919100807E8061682B6093910043
:100590005093970040939600809190008860D3CF4D
:1005A0008091A0008C7F82608093A0008091A10048
:1005B000807E8061682B6093A1005093A7004093D8
:1005C000A6008091A00080688093A00050CF809109
:1005D000A0008C7F82608093A0008091A100807E2B
:1005E0008061682B6093A1005093A7004093A60000
:1005F0008091A0008062E8CF8091A0008C7F826013
:100600008093A0008091A100807E8061682B609320
:10061000A1005093A7004093A6008091A00088609D
:10062000D3CF809120018C7F8260809320018091C4
:100630002101807E8061682B609321015093270106
:1006400040932601809120018068809320010FCF84
:10065000809120018C7F8260809320018091210114
:10066000807E8061682B6093210150932701409325
:100670002601809120018062E8CF809120018C7F4B
:1006800082608093200180912101807E8061682BAF
:10069000609321015093270140932601809120010E
:1006A0008860D3CFFC01A781B0858C919185892387
:1006B000A481B5819C9140815181628173812681A1
:1006C000922359F081110BC04F5F5F4F6F4F7F4FE7
:1006D000408351836283738308958111F5CF415024
:1006E000510961097109F4CF84E293E0DBCF8FE215
:1006F00093E0D8CF8AE393E0D5CF85E493E0D2CFDF
:10070000FC01A481B5818C9196818923A781B08554
:100710009C9140815181628173812185922359F09E
:10072000882359F04F5F5F4F6F4F7F4F4083518356
:100730006283738308958823A9F3415051096109A5
:100740007109F4CF84E293E0DBCF8FE293E0D8CF5E
:100750008AE393E0D5CF85E493E0D2CF0F931F9344
:10076000CF93DF93D82FC62F8A01A09123038BE06C
:10077000A89FD0011124AC5DBC4F1D921D921D920B
:100780001C92139781E01A968C931A978D2F90E004
:10079000FC01E65DFE4FE4911696EC931697FC0182
:1007A000E059FE4FE491F0E0EE0FFF1FEA54FE4FD8
:1007B0008591949115969C938E931497862F90E033
:1007C000FC01E65DFE4FE4911996EC931997FC014C
:1007D000E059FE4FE491F0E0EE0FFF1FEA54FE4FA8
:1007E0008591949118969C938E93179760E08D2F26
:1007F0000E94A13260E08C2F0E94A13280912303DD
:10080000813009F43FC0A8F0823009F462C083301F
:1008100009F486C08091230391E0980F90932303FD
:10082000F801808390E080E0DF91CF911F910F91DC
:10083000089580E0D23049F081E0D33031F08EEE7F
:100840008D0F8430D8F487E18D1B41E050E064E7E0
:1008500073E00E948E2E80E0C23049F081E0C33008
:1008600031F08EEE8C0F843058F487E18C1B41E020
:1008700050E062EA73E00E948E2ECCCF8FEFE5CF7E
:100880008FEFF5CF80E0D23049F081E0D33031F006
:100890008EEE8D0F8430C8F487E18D1B41E050E06F
:1008A00067E773E00E948E2E80E0C23049F081E05D
:1008B000C33031F08EEE8C0F843048F487E18C1B0E
:1008C00041E050E065EA73E0D6CF8FEFE7CF8FEFDE
:1008D000F7CF80E0D23049F081E0D33031F08EEEB6
:1008E0008D0F8430C8F487E18D1B41E050E06AE74A
:1008F00073E00E948E2E80E0C23049F081E0C33068
:1009000031F08EEE8C0F843048F487E18C1B41E08F
:1009100050E068EA73E0AFCF8FEFE7CF8FEFF7CF0C
:1009200080E0D23049F081E0D33031F08EEE8D0F8F
:100930008430C8F487E18D1B41E050E06DE773E03F
:100940000E948E2E80E0C23049F081E0C33031F049
:100950008EEE8C0F843048F487E18C1B41E050E030
:100960006BEA73E088CF8FEFE7CF8FEFF7CF9BE095
:10097000899FF0011124EC5DFC4F80819181A2815F
:10098000B381FB0180839183A283B38390E080E0F5
:1009900008959BE0899FF0011124EC5DFC4F1082CB
:1009A00011821282138290E080E0089590E080E04E
:1009B000089590E080E008950F931F93009709F445
:1009C00088C06115710509F484C000914E02109130
:1009D0004F0220915002309151020E3F1F4F2F4F76
:1009E0003F4F09F067C04FEF5FEFBA0140934E02EF
:1009F00050934F02609350027093510240914E0207
:100A000050914F026091500270915102DC01129698
:100A1000ED91FC9180819181A281B3818093C60385
:100A20009093C703A093C803B093C90384819581B1
:100A3000A681B7818093C2039093C303A093C4039C
:100A4000B093C50380859185A285B3858093BE034D
:100A50009093BF03A093C003B093C1038485958591
:100A6000A685B7858093BA039093BB03A093BC037C
:100A7000B093BD031092B6031092B7031092B8035F
:100A80001092B9030E94480E8DE69EE090935103A8
:100A9000809350039093530380935203E8D70097B9
:100AA00031F421E030E03093CB032093CA031F914F
:100AB0000F91089500914E0210914F022091500223
:100AC00030915102DB010D931D932D933C931397AD
:100AD00095CF8FEF9FEFEBCF8F929F92AF92BF9208
:100AE000CF92DF92EF92FF921F93CF93DF934B0150
:100AF0005C011091CD0382E090E09093CB03809352
:100B0000CA0381149104A104B10441F48091CD037E
:100B1000811104C08091CC03C1E08111C0E0C12CDF
:100B2000D12C76018091CD03811106C08091CC0338
:100B3000811102C0CC23D9F083E090E09093CB03E5
:100B40008093CA03CC2379F1CCE9DFEF111102C005
:100B50000E94D111CE01DF91CF911F91FF90EF90B4
:100B6000DF90CF90BF90AF909F908F9008956AE0F4
:100B700070E080E090E00E94CF3080E1C80E87E214
:100B8000D81EE11CF11C8FEF88169806A806B8063F
:100B900031F0C1E08C149D04AE04BF0408F0C0E045
:100BA00080E099D7BFCFD0E0C0E0D0CFCF92DF9226
:100BB000EF92FF920F931F93CF93DF938F3F910597
:100BC00011F008F050C02091CA033091CB032330BC
:100BD000310539F02091CA033091CB032130310522
:100BE00031F424E030E03093CB032093CA036A0150
:100BF0007B01EC0182309105A0F011E0AE01C7014C
:100C0000B60134D7AB01BC01CE011123F9F0DF915D
:100C1000CF911F910F91FF90EF90DF90CF900C94A8
:100C2000FA138C01000F111F005B1C4FD8018D912E
:100C30009C91892B11F30E9404140297F1F6D801BC
:100C4000ED91FC91CE011995182FD8CF0E941C145C
:100C500090E080E0DF91CF911F910F91FF90EF9096
:100C6000DF90CF9008958FEF9FEFF4CF80E033C7F0
:100C7000CF93DF9386E090E09093CB038093CA03F9
:100C800083D7EC01E0E5F3E084E0DF011D928A9573
:100C9000E9F70E9469111092CB031092CA03CE01AA
:100CA000DF91CF9108958091CC0308958091B50391
:100CB000089560934E0270934F0280935002909378
:100CC000510290E080E008952F923F924F925F9200
:100CD0006F927F928F929F92AF92BF92CF92DF924C
:100CE000EF92FF920F931F93CF93DF93CDB7DEB7B1
:100CF0006C970FB6F894DEBF0FBECDBFC0902E022A
:100D0000D0902F02E0903002F0903102A7019601BE
:100D10006091210970912209809123099091240901
:100D20000E94842C882341F0C0922109D09222098C
:100D3000E0922309F09224098091200981111092F8
:100D40002009BE016B5F7F4F8091250910DEC090A6
:100D50003202D0903302E0903402F0903502A701C5
:100D6000960160911509709116098091170990916B
:100D700018090E94842C882341F0C0921509D09252
:100D80001609E0921709F09218098091140981114F
:100D900010921409BE016F5F7F4F80911909E7DD42
:100DA00060913A0270913B0280913C0290913D0229
:100DB0000E94232D20E030E040E05AE20E942A2EDB
:100DC0004B015C01C0903602D0903702E0903802AF
:100DD000F09039026D817E818F8198850E94232D4C
:100DE000A50194010E942A2EA70196010E942A2E95
:100DF0006D8B7E8B8F8B988F69817A818B819C81A3
:100E00000E94232DA50194010E942A2E9B01AC0172
:100E1000C701B6010E942A2E698F7A8F8B8F9C8F13
:100E2000209146093091470940914809509149095C
:100E30006D897E898F89988D0E940C2C6D877E87A5
:100E40008F87988B6093F4087093F5088093F60869
:100E50009093F70820914A0930914B0940914C0931
:100E600050914D09698D7A8D8B8D9C8D0E940C2C33
:100E7000698B7A8B8B8B9C8B6093F8087093F90845
:100E80008093FA089093FB0860904E0970904F0988
:100E9000C0908403D0908503E0908603F090870390
:100EA000D30158968D909D90AD90BC905B97A70113
:100EB0009601C501B4010E94842C87FF8EC1109257
:100EC0000D0910920C0960910C0970910D09072E03
:100ED000000C880B990B0E94232D6093FC087093E3
:100EE000FD088093FE089093FF082D853E854F8571
:100EF00058892093000930930109409302095093C7
:100F0000030929893A894B895C8920930409309324
:100F100005094093060950930709609308097093E7
:100F2000090980930A0990930B0965E070E080E05D
:100F300090E0D5D98C019093450980934409809124
:100F40000C0990910D0960913E0270913F02681763
:100F5000790744F060914002709141026817790767
:100F60000CF4BC0177FF03C07195619571096F3F67
:100F7000710519F014F06FEF70E0072E000C880B6C
:100F8000990B0E94232DAB01BC01C80171D966E009
:100F900070E080E090E0A3D98C0190933D098093AC
:100FA0003C0980910C0990910D0960914202709169
:100FB00043026817790744F060914402709145023A
:100FC000681779070CF4BC0177FF03C07195619530
:100FD00071096F3F710519F014F06FEF70E0072E83
:100FE000000C880B990B0E94232DAB01BC01C8019A
:100FF0003FD964E070E080E090E071D98C0190937B
:1010000035098093340980910C0990910D09609104
:101010004602709147026817790744F060914802D0
:1010200070914902681779070CF4BC0177FF02C080
:1010300070E060E06F3F710519F014F06FEF70E041
:10104000072E000C880B990B0E94232DAB01BC01CD
:10105000C8010ED967E070E080E090E040D98C01D3
:1010600090932D0980932C0980910C0990910D0982
:1010700060914A0270914B026817790744F06091C1
:101080004C0270914D02681779070CF4BC0177FF90
:1010900002C070E060E06F3F710519F014F06FEF6F
:1010A00070E0072E000C880B990B0E94232DAB01DA
:1010B000BC01C801DDD88D899E89AF89B88D809328
:1010C000460990934709A0934809B0934909298D8F
:1010D0003A8D4B8D5C8D20934A0930934B09409398
:1010E0004C0950934D09C0908803D0908903E0903B
:1010F0008A03F0908B033FEFC31AD30AE30AF30A83
:10110000C0928803D0928903E0928A03F0928B0305
:10111000C114D104E104F10499F480918C039091FD
:101120008D03A0918E03B0918F030196A11DB11D77
:1011300080938C0390938D03A0938E03B0938F03C1
:101140008090900390909103A0909203B0909303AD
:1011500060918C0370918D0380918E0390918F0329
:101160000E94212DA50194010E942A2E20E030E04A
:1011700040E85FE40E942A2E2B013C01C701B60122
:101180000E94212DA50194010E942A2E9B01AC01F1
:10119000C301B2010E940D2C6093840370938503F8
:1011A00080938603909387036C960FB6F894DEBF06
:1011B0000FBECDBFDF91CF911F910F91FF90EF90A8
:1011C000DF90CF90BF90AF909F908F907F906F9067
:1011D0005F904F903F902F900895A7019601F301E3
:1011E00060817181828193810E94262E10E000E04F
:1011F00087FF37C0A7019601C501B4010E94842C66
:1012000005E010E018166CF5009158091091590985
:101210005801AA0CBB1CAA0CBB1C43018A0C9B1CCA
:10122000A7019601D4016D917D918D919C910E94B1
:10123000262EB4E0AB0EB11CA60CB71C18160CF091
:1012400050C0E4E08E1A9108A7019601D4011496CB
:101250006D917D918D919C9117970E94262E181665
:10126000DCF1A0905009B0905109109359090093F6
:101270005809F801EE0FFF1FEE0FFF1FE60DF71DD7
:10128000408051806280738048012FEF821A920A59
:1012900084819581A681B78189879A87AB87BC872E
:1012A0009C01AD01C301B2010E94842C81112EC0AA
:1012B000A3019201C701B6010E94842C87FF1EC0C2
:1012C000000F111FA00EB11ED5018D919C9190931E
:1012D0000D0980930C09F7CD01501109B2CF0F5FB2
:1012E0001F4FF50161917191819191915F01A7016A
:1012F00096010E94842C181694F7B3CF880C991C81
:10130000A80CB91CF50180819181E1CF000F111F5C
:10131000F501E00FF11F2080318002811381B801B7
:10132000012E000C880B990B0E94232D4B015C01B0
:1013300020163106D1F1A701960169857A858B8542
:101340009C850E940C2C6B017C01A3019201698594
:101350007A858B859C850E940C2C9B01AC01C70172
:10136000B6010E94882C6B017C01B101330C880B03
:10137000990B0E94232DA70196010E942A2E2B0172
:101380003C01A701960160E070E080E89FE30E94C5
:101390000C2CA50194010E942A2E9B01AC01C301D3
:1013A000B2010E940D2C4B015C0120E03EEF4FEF9B
:1013B00056E4C501B4010E94262E87FD03C08FEFBD
:1013C0009FE785CF20E030E040E057ECC501B40155
:1013D0000E94842C18161CF080E090E878CF20E062
:1013E00030E0A901C501B4010E94262E20E030E0C2
:1013F00040E05FE387FD0DC0C501B4010E940D2CE4
:101400000E945E2D0E94F02C70930D0960930C09D0
:101410005ACDC501B4010E940C2C0E94712CF2CF50
:101420004F925F926F927F92AF92BF92DF92EF9254
:10143000FF920F931F93CF93DF93EEE6F3E08BE2DF
:10144000DF011D928A95E9F780E090E0A0E2B1E427
:1014500086A397A3A0A7B1A78AE097EDA3E2BCE378
:1014600082A393A3A4A3B5A387E09AE4AFE0BAEE66
:1014700084839583A683B78385E392E1A2E4BCE6E7
:1014800080879187A287B38782E394E7AFEDBEEEB2
:1014900084879587A687B78789E19FE3ABE9B0EF9B
:1014A000808B918BA28BB38BA2E6B3E0B383A28334
:1014B000E4E5F3E01196FC93EE9387E892E09183E4
:1014C00080839383828395838483978386839187A4
:1014D0008087938782879587848782E893E0159633
:1014E0009C938E93149782E793E013969C938E932C
:1014F000129784E893E017969C938E931697E4EFE7
:10150000F8E08AE1DF011D928A95E9F7CEE0D9E0A3
:1015100082E5FE0111928A95E9F7DD24D394D092F9
:101520005B098AE2A82E82E0B82EF50184819581BC
:10153000A681B7818B8B9C8BAD8BBE8B412C512CA4
:10154000320143944D865E866F86788A45E259E083
:1015500063E082E003D9D98A1A8A1B861882D09266
:101560005A09F50180859185A285B3858F83988777
:10157000A987BA8749825A826B827C8249E159E005
:1015800063E182E1EBD8DD821E828EE092E09093EF
:101590004F0980934E0980E092E090935109809327
:1015A0005009109259091092580918AAD0925F094F
:1015B00049AA5AAA6BAA7CAAE12CF12C8701A8019E
:1015C000970165E070E080E090E00E94B3019FAB7E
:1015D0008EABDDAA18A6D0925E0949A65AA66BA6C4
:1015E0007CA6A801970166E070E080E090E00E9490
:1015F000B3019FA78EA7DDA618A2D0925D0949A2CC
:101600005AA26BA27CA2A801970164E070E080E07E
:1016100090E00E94B3019FA38EA3DDA2188ED0920A
:101620005C09498E5A8E6B8E7C8EA801970167E00B
:1016300070E080E090E00E94B3019F8F8E8FDD8E7E
:10164000F50180819181A281B38188AF99AFAAAF62
:10165000BBAF8CAF9DAFAEAFBFAF8F899AD98B8533
:10166000DF91CF911F910F91FF90EF90DF90BF908E
:10167000AF907F906F905F904F908BC980911A09C7
:10168000811113C081E080931A0980911B09909108
:101690001C09A0911D09B0911E090197A105B10572
:1016A00021F480911F09811181D980910E09811146
:1016B00013C081E080930E0980910F099091100969
:1016C000A0911109B09112090197A105B10521F46A
:1016D0008091130981116AD980913E0981112EC030
:1016E00081E080933E0980913F0990914009A0914B
:1016F0004109B09142090197A105B105F9F4809122
:1017000043098823D9F065E070E080E090E00E9412
:101710006F01909345098093440940E050E0BA017D
:101720000E94380165E070E080E090E00E946F0167
:1017300090934509809344090E94040280913609E0
:1017400081112EC081E080933609809137099091F4
:101750003809A0913909B0913A090197A105B1055D
:10176000F9F480913B098823D9F066E070E080E0CD
:1017700090E00E946F0190933D0980933C0940E006
:1017800050E0BA010E94380166E070E080E090E02D
:101790000E946F0190933D0980933C090E940402CE
:1017A00080912E0981112EC081E080932E098091B5
:1017B0002F0990913009A0913109B0913209019718
:1017C000A105B105F9F4809133098823D9F064E0CB
:1017D00070E080E090E00E946F0190933509809363
:1017E000340940E050E0BA010E94380164E070E042
:1017F00080E090E00E946F01909335098093340956
:101800000E9404028091260981112EC081E08093FC
:1018100026098091270990912809A0912909B09162
:101820002A090197A105B105F9F480912B098823B4
:10183000D9F067E070E080E090E00E946F01909343
:101840002D0980932C0940E050E0BA010E94380134
:1018500067E070E080E090E00E946F0190932D09B6
:1018600080932C090C94040208954F925F926F921A
:101870007F928F929F92AF92BF92CF92DF92EF9220
:10188000FF920F931F93F8944090A5035090A603E6
:101890006090A7037090A803C0909903D0909A031A
:1018A000E0909B03F0909C03452B09F0A4C09B01A2
:1018B000AC01241935094609570929013A0100915B
:1018C000A1031091A2032091A3033091A403480126
:1018D0005901840C951CA61CB71C80169106A20603
:1018E000B306A0F400919D0310919E0320919F03E5
:1018F0003091A0030F5F1F4F2F4F3F4F00939D0369
:1019000010939E0320939F033093A0038092A10322
:101910009092A203A092A303B092A40300919D030E
:1019200010919E0320919F033091A0038092A90300
:101930009092AA03A092AB03B092AC030093AD03C4
:101940001093AE032093AF033093B0036093A503CD
:101950007093A6038093A7039093A803A0E1B7E236
:10196000A30192010E94D0366C0D7D1D8E1D9F1D1E
:101970006093990370939A0380939B0390939C03C5
:1019800000914E0210914F0220915002309151026D
:101990000F3F1F4F2F4F3F4FF1F000914E0210911C
:1019A0004F0220915002309151020E3F1F4F2F4F96
:1019B0003F4F89F0C0904E02D0904F02E09050020D
:1019C000F090510221E08C149D04AE04BF0408F491
:1019D00020E02093B50378941F910F91FF90EF9032
:1019E000DF90CF90BF90AF909F908F907F906F903F
:1019F0005F904F9008954B015C0184189508A608EC
:101A0000B708A3019201261B370B480B590B64152D
:101A1000750586059705D0F082169306A406B506CF
:101A200040F420E030E0A90181149104A104B10444
:101A300091F4A0E1B7E20E94D036A7019601261BDF
:101A4000370B480B590BCA01B901C5CF8216930653
:101A5000A406B50670F7A0E1B7E2A50194010E94C3
:101A6000D0366C0D7D1D8E1D9F1DB5CFFECECF9344
:101A7000DF9300D01F92CDB7DEB71C821B821A8283
:101A800019821092B1031092B2031092B303109214
:101A9000B403BE016F5F7F4FCE0103960E94322ACE
:101AA00069817A818B819C810E942023009761F457
:101AB000BE016F5F7F4FCE0103960E943E2A69816F
:101AC0007A818B819C812ED50F900F900F900F9073
:101AD000DF91CF910895FF920F931F93CF93DF93E0
:101AE000082F60E070E0CB010E94CF30FF24F39418
:101AF0000E940922EC01892B89F010E0CE3F8FEF84
:101B0000D80769F0002361F160E070E0CB010E942A
:101B1000CF3081E090E0892B59F322C011E025D528
:101B2000EC01892B21F0CE3F8FEFD80759F7111127
:101B30001EC011E0229609F410E00E94B921EC01C8
:101B4000892B21F0CE3F8FEFD807E1F6111111C09C
:101B500011E0CE3F8FEFD80709F410E001110BC060
:101B6000CE01DF91CF911F910F91FF90089511E069
:101B7000E4CF11E0F3CF60E070E0CB010E94CF3002
:101B80001F25812F90E0C7CFCF93DF938091B503BE
:101B9000882321F060E070E0CB014CD635D6D0E050
:101BA000C0E0892B71F06AE070E080E090E00E9474
:101BB000CF3081E090DF28D62196C03D27E0D207C4
:101BC00081F727D60E9474231092CD031092CC0384
:101BD0001092C6031092C7031092C8031092C90353
:101BE0001092C2031092C3031092C4031092C50353
:101BF0001092BE031092BF031092C0031092C10353
:101C00001092BA031092BB031092BC031092BD0352
:101C10001092B6031092B7031092B8031092B90352
:101C20004EEF5FEF6FEF7FEF40934E0250934F0206
:101C300060935002709351021092B503E9EAF3E009
:101C400028E0DF011D922A95E9F71092A503109272
:101C5000A6031092A7031092A8031092A10310925A
:101C6000A2031092A3031092A40310929D0310925A
:101C70009E0310929F031092A0031092990310925A
:101C80009A0310929B0310929C03DF91CF910895C9
:101C90001092D9031092DA031092DB031092DC0346
:101CA0001092D8038091E1039091E2039093D703BF
:101CB0008093D6031092D5031092D4031092D003D0
:101CC0001092D1031092D2031092D3031092DE032C
:101CD0001092DD0390E080E00895CF92DF92EF92C2
:101CE000FF920F931F93CF938C01892B09F055C05E
:101CF0002091E1033091E2038091D6039091D703C4
:101D00004091E1035091E2035093D7034093D603EF
:101D10002817390781F01092D5031092D40310923E
:101D2000D0031092D1031092D2031092D3031092D9
:101D3000DE031092DD038091E1039091E2030197AD
:101D400061F58091DD039091DE03892B21F4809170
:101D50005202811112C08091DD039091DE03019740
:101D6000E1F48091D0039091D103A091D203B0917E
:101D7000D3030197A105B10581F41092D00310920D
:101D8000D1031092D2031092D3031092520282E038
:101D900090E09093DE038093DD038091E1039091C6
:101DA000E203019709F01CC18091F7039091F803B9
:101DB0008017910709F014C18091F3039091F40307
:101DC000A091F503B091F603009709F409C12091A1
:101DD000F20321110DC04091F3035091F40360917F
:101DE000F5037091F603452B462B472B09F4F8C0F9
:101DF0002091DD033091DE032230310509F0F0C07F
:101E00002091D4032111ECC0FC01C080D180E2807C
:101E1000F3808091D803882309F4D3C08091E40330
:101E20009091E503892B09F4FDC02091E4033091E2
:101E3000E50381E02230310509F080E02091E403E0
:101E40003091E503C1E02130310549F02091E403F0
:101E50003091E503C1E02230310509F0C0E088236C
:101E600009F456C02091EE033091EF034091F00346
:101E70005091F103C701B6010E94262E87FD14C0C0
:101E80002091EE033091EF034091F0035091F10364
:101E90006091D9037091DA038091DB039091DC03A8
:101EA0000E94842C87FD22C02091EE033091EF0325
:101EB0004091F0035091F103C701B6010E94262E14
:101EC000181634F52091EE033091EF034091F003A2
:101ED0005091F1036091D9037091DA038091DB0393
:101EE0009091DC030E94842C811112C08091E60342
:101EF0009091E703A091E803B091E903892B8A2B25
:101F00008B2B19F481E08093D50381E08093D40377
:101F1000CC2309F456C02091EE033091EF03409199
:101F2000F0035091F103C701B6010E94842C87FF92
:101F300014C02091EE033091EF034091F0035091D3
:101F4000F1036091D9037091DA038091DB039091E2
:101F5000DC030E94262E87FF22C02091EE033091E1
:101F6000EF034091F0035091F103C701B6010E94C5
:101F7000842C811126C02091EE033091EF03409113
:101F8000F0035091F1036091D9037091DA038091CD
:101F9000DB039091DC030E94262E181694F48091A6
:101FA000E6039091E703A091E803B091E903892B40
:101FB0008A2B8B2B19F481E08093D50381E08093E9
:101FC000D40381E09091D403911180E08093D803F1
:101FD000C092D903D092DA03E092DB03F092DC03E3
:101FE000012B09F067C18091DD039091DE03892BFD
:101FF000D9F41092E3031092D40380915202882303
:1020000079F082E090E09093DE038093DD031092FC
:1020100052022091E1033091E20381E0232BE9F0A9
:1020200080E01BC081E00ACF109252028091E3034E
:10203000882349F01092D5031092DE031092DD033D
:102040001092E303EDCF8091E1039091E203892B9D
:10205000E1F08091D4031092D4032091DD033091FC
:10206000DE032230310509F45EC088F42115310504
:1020700009F448C02130310509F4F3C01092D503AA
:102080001092D4031092E30338C081E0E6CF2330EE
:10209000310509F4B1C02430310581F74091D003F6
:1020A0005091D1036091D2037091D3034115510532
:1020B0006105710561F04150510961097109409351
:1020C000D0035093D1036093D2037093D303409114
:1020D000D0035091D1036091D2037091D303452B6B
:1020E000462B472BD9F42091DF033091E0032130B8
:1020F000310509F046C01092D5031092DE0310920C
:10210000DD030CC080915202882341F082E090E010
:102110009093DE038093DD03109252021092CE035F
:102120008091D503CEC08823C9F38091E6039091B6
:10213000E703A091E803B091E903181619061A06FF
:102140001B060CF07DC08091E1039091E2030197A2
:1021500009F076C08091E6039091E703A091E8032F
:10216000B091E9038093D0039093D103A093D2035D
:10217000B093D30383E090E09093DE038093DD037C
:10218000CDCF4091EA035091EB036091EC03709145
:10219000ED03452B462B472BA9F01092D5038091D8
:1021A000EA039091EB03A091EC03B091ED038093CF
:1021B000D0039093D103A093D203B093D30381E0D3
:1021C00090E0DACF882399F08091530290915402E5
:1021D000A0915502B09156028093D0039093D10301
:1021E000A093D203B093D30384E090E0C5CF1092C4
:1021F000D50382E090E0C0CF8091D0039091D103CD
:10220000A091D203B091D3030097A105B10559F075
:102210000197A109B1098093D0039093D103A093B2
:10222000D203B093D3038091D0039091D103A091B6
:10223000D203B091D303892B8A2B8B2B09F06ECF5D
:102240008091530290915402A0915502B091560290
:10225000892B8A2B8B2B09F44ECF81E08093D503F9
:10226000B3CF4091D0035091D1036091D2037091CC
:10227000D303411551056105710561F041505109C4
:10228000610971094093D0035093D1036093D20345
:102290007093D3034091D0035091D1036091D20346
:1022A0007091D303452B462B472B09F037CF811173
:1022B000C7CF9FCF8091CE03882309F431CF80917F
:1022C000CF03CF911F910F91FF90EF90DF90CF90B0
:1022D00008951092D9031092DA031092DB03109242
:1022E000DC031092D8031092DE031092DD031092EB
:1022F000D7031092D6031092F8031092F7031092AE
:10230000D5031092D4031092D0031092D1031092EF
:10231000D2031092D3031092CF031092CE031092E7
:10232000F3031092F4031092F5031092F603109247
:10233000F2031092EE031092EF031092F00310924A
:10234000F10388EE93E0A0E0B0E080935302909315
:102350005402A0935502B09356021092EA031092D1
:10236000EB031092EC031092ED031092E60310922F
:10237000E7031092E8031092E9031092E50310922C
:10238000E40381E0809352021092E3031092E2038F
:102390001092E1031092E0031092DF0390E080E0DE
:1023A00008958091E1039091E203892B19F58091C2
:1023B0005202882351F08091E303811106C081E02D
:1023C0008093CF038093CE0308952091E30330914F
:1023D000520281E090E0332311F090E080E030E0A1
:1023E00082239323892B21F01092CF0381E0EACF3F
:1023F0001092CE03089582E090E0FA0191838083E9
:102400008FEF9FEF0895CF93DF93EA01009711F0CC
:102410000E9494241982188290E080E0DF91CF918D
:102420000895DB01009719F48FEF8C9308952EEF38
:102430002C93FC013F96EF30F10508F034C088275B
:10244000EB5DFD4E8F4F0C94C83651124F124D125A
:102450004B12491245124712431241123F123C12CD
:10246000381234123A12531280E311968C93089565
:1024700089E2FBCF82E2F9CF11961C92089583E2A4
:10248000F4CF81E2F2CF81E1F0CF87E2EECF8AE2B2
:10249000ECCF80E1EACF84E2E8CF88E2E6CF86E2C3
:1024A000E4CF81E3E2CF80E2E0CF80910504909118
:1024B000060408959093060480930504089580917E
:1024C0000404089590910404892B809304040895D2
:1024D000982F909580910404892380930404089593
:1024E000809103040895809101049091020408955D
:1024F0006115710559F0FB0130E020E070E060E00B
:102500002417350719F06115710511F0CB010895F5
:10251000A081B181A817B90709F4BF012F5F3F4F10
:102520003696EECF8091070481111CC060D266D22E
:102530009093FA038093F9030E94921C0E94A41CBA
:102540009093FE038093FD030E9421210E94282185
:102550009093FC038093FB0381E08093070490E059
:1025600080E0089584EF9FEF08958F929F92AF923D
:10257000BF92CF92DF92EF92FF920F931F93CF9370
:10258000DF9300D000D000D01F92CDB7DEB71A86FF
:10259000198618861F821E821D821C821B821A8247
:1025A00019828091070407EF1FEF882309F49CC06C
:1025B0008E010D5F1F4F9E012B5F3F4FAE01495FA4
:1025C0005F4FBE01675F7F4F90E080E00E94A522D1
:1025D0008C01009721F00596029708F0DBC0298551
:1025E0003A852115310509F402C1ED80FE804B8149
:1025F0005C81B701640F751F8F81988586179707D7
:1026000008F4F5C0E20EF31ED7019C91903C09F04E
:102610007FC04230510508F47BC011968C914091E7
:10262000050450910604452B09F49CC0913F08F025
:1026300071C02CE1290F2D3008F48BC02DE2290F39
:10264000203108F489C0903C21F48150823008F494
:1026500083C088E3890F8B3008F481C091E1C92ED3
:1026600092E1D92EEBEFF1E16D817E81AE014F5FFA
:102670005F4F89859A8519955C01C114D104A1F138
:1026800089809A808114910479F18B819C818815CD
:10269000990508F487C010E000E04B815C8170E090
:1026A00060E0C7010E94F23601151105E9F4498185
:1026B0005A8169857A858D819E81680F791FC50150
:1026C000F6011995E980FA800D811E812F813885E8
:1026D00049855A856FEF7FEF81E090E00E944022AC
:1026E0008C01892B09F056C0C8012A960FB6F894C0
:1026F000DEBF0FBECDBFDF91CF911F910F91FF9035
:10270000EF90DF90CF90BF90AF909F908F90089503
:1027100080E085CF30E020E0220F331FF901E75041
:10272000FC4F0190F081E02D309709F497CF892F6D
:1027300090E01995009709F491CFDC011296ED9184
:10274000FC9113971496CD90DC90309709F08CCFC4
:102750001FC021E030E0E0CF22E030E0DDCF23E019
:1027600030E0DACFD12CC12CE3E0F2E19F3F09F059
:102770007BCFE091F903F091FA03309721F4C9017E
:1027800004EF1FEF0CC08FEF90E019950097A9F6AA
:1027900004EF1FEF89859A85009709F4A5CF0E9461
:1027A0009424A2CF0E946F238C0189859A850E9470
:1027B000942470E060E0C4010E94082398878F830E
:1027C0000E943D229E838D836F81788561157105FE
:1027D00059F0C8010E9420269A87898706EF1FEFCB
:1027E000892B09F058CF59CF08EF1FEF56CF08EFCC
:1027F0001FEFD0CF20910704222319F020E00C9482
:10280000A91C87EF9FEF089580910504909106041D
:1028100008950E942D210E948720F5D0E9EFF3E072
:1028200088E0DF011D928A95E9F71092070490E095
:1028300080E008950C94E51E21E040E050E0BA01EC
:102840000C94A91C86E090E0FA019183808390E0CB
:1028500080E0089547E050E06AE872E049CEDF92F8
:10286000EF92FF920F931F93CF93DF938A01EC01B6
:10287000C60FD71FE0900B04F0900C04D9800E9483
:102880005723D816190678F082E090E0F80191837A
:1028900080838EEF9FEFDF91CF911F910F91FF907B
:1028A000EF90DF900895EF2841F482E090E0F80186
:1028B0009183808384EF9FEFEECF898180930A0418
:1028C00090E00196F8019183808390E080E0E3CF6F
:1028D000CF93DF93EA010E94961F882321F00E9484
:1028E00064230E94971F82E090E0998388838BEF96
:1028F0009FEFDF91CF910895CF93DF93EB0186E0B7
:10290000FB0111928A95E9F78FEF8883D8DD8983DF
:10291000E7DD8A83E8DD9D838C83DF91CF91089585
:10292000CF93DF93EA010E94991F811109C082E0D1
:1029300090E09983888385EF9FEFDF91CF91089591
:1029400090E080E0B7DD81E090E09983888390E0BB
:1029500080E0F3CF0F931F93CF93DF93EA018C01B5
:10296000060F171F0E94991F81110BC082E090E093
:102970009983888385EF9FEFDF91CF911F910F910E
:102980000895F8018181823038F082E090E09983E7
:1029900088838EEF9FEFF0CF81E090E08BDD88E0C1
:1029A00090E09983888390E080E0E6CFCF93DF9337
:1029B0000097D1F4EB01FB01329686E0DF011D9216
:1029C0008A95E9F78FEF888385E089831A820E94D0
:1029D00057238B830E9456239D838C8381E08E83B3
:1029E0008F83DF91CF910895DF91CF911ACD8AE245
:1029F00094E1909309048093080408958091080459
:102A00009091090408951092090410920804089501
:102A100080910B0490910C040895411105C061153B
:102A200071058105910561F060930B0470930C04AE
:102A300080930D0490930E0440930F0481E0089559
:102A400080E00895FF920F931F93CF93DF938A0145
:102A5000EC01C60FD71FF9800E945723F8161906FC
:102A600068F082E090E0F801918380838EEF9FEF21
:102A7000DF91CF911F910F91FF9008956C817D811F
:102A80008E819F814B81C9DF811108C082E090E077
:102A9000F8019183808384EF9FEFEACF898180934F
:102AA0000A0490E00196F8019183808390E080E031
:102AB000DFCFCF93DF93EA01FC01E60FF71F6481BC
:102AC0007581868197814381A8DF811109C082E0E9
:102AD00090E09983888384EF9FEFDF91CF910895F1
:102AE00081E090E09983888390E080E0F6CFEBE08E
:102AF000F4E04081518162817381480F511D611D55
:102B0000711D40835183628373830895CF93C09175
:102B10000A044C2F50E060910B0470910C04019654
:102B20000E94E9368C2FE3DF10920A04CF910895BA
:102B3000009799F480910B0490910C042FEFFB0106
:102B40002083892B59F020910A0430E02F5F3F4FFA
:102B50002417350719F4CB01D9CF63CC089500971A
:102B600099F480910B0490910C042FEFFB012083CA
:102B7000892B59F020910A0430E02F5F3F4F241732
:102B8000350719F4CB01C2CF4CCC089523E1AC0139
:102B9000249FC001259F900D1124E0911404F09111
:102BA0001504E80FF91F238134812250310981E097
:102BB0002230310508F080E008950F931F93CF93E2
:102BC000DF930091160410911704D0E0C0E080E07C
:102BD0000C171D0749F491E0811190E0892FDF91D6
:102BE000CF911F910F9108958111F5CFCE01CEDFC6
:102BF0002196EECFA0911404B0911504109729F1FD
:102C0000209116043091170482179307F0F453E1D2
:102C1000589F9001599F300D1124A20FB31FED91C1
:102C2000FC911197309789F012968C91681768F48F
:102C30008DE0689FE00DF11D112480819181892B29
:102C400021F081E09281491708F080E008959C010D
:102C500043E1429FC001439F900D1124E091140471
:102C6000F0911504E80FF91F8385823091F481E01B
:102C700090E0658176814091570250915802641727
:102C8000750711F490E080E0892B19F081E0232B87
:102C900009F080E00895FC01A081B1818DE0689F7A
:102CA000A00DB11D112413964D915C9185859685DB
:102CB000489F9001499F300D589F300D1124C90144
:102CC0000196611103C0478144FD04960895EF9277
:102CD000FF920F931F93CF93DF93EA01FC01E60F5E
:102CE000F71F02811381E480F5804F2D6E2DC801FE
:102CF00081DF81110DC082E090E0998388838EEF9F
:102D00009FEFDF91CF911F910F91FF90EF9008956A
:102D1000C8013CDF882339F082E090E09983888302
:102D200088EF9FEFEECF10935E0200935D02E0927A
:102D30005F02F092600281E090E09983888390E0E6
:102D400080E0DFCFCF92DF92EF92FF920F931F933D
:102D5000CF93DF937A01EC01C60FD71FC0905D02BD
:102D6000D0905E0200915F0210916002412F602FAF
:102D7000C60140DF811110C082E090E0F70191832D
:102D800080838AEF9FEFDF91CF911F910F91FF908A
:102D9000EF90DF90CF900895C601F8DE882341F0D0
:102DA00082E090E0F7019183808388EF9FEFEBCF83
:102DB0004C815D816E817F819A8189818F3F41F055
:102DC00082E090E0F701918380838EEF9FEFDBCF6D
:102DD000E3E1EC9D9001ED9D300D1124E091140490
:102DE000F0911504E20FF31F0190F081E02D2DE02A
:102DF000029FE00DF11D11240190F081E02D27E0EC
:102E0000129FE00DF11D1124808391838B818283B9
:102E100043835483658376831F5F1093600281E050
:102E200090E0F7019183808390E080E0ACCFEF9257
:102E3000FF920F931F93CF93DF937A018C01060FBC
:102E4000171FC0911404D0911504209781F021E040
:102E500030E0F8018281938140911604509117046B
:102E60008417950710F030E020E0232B71F482E006
:102E700090E0F701918380838EEF9FEFDF91CF91F8
:102E80001F910F91FF90EF90089543E1489F9001AB
:102E9000499F300D1124C20FD31F78DE882341F0E3
:102EA00082E090E0F7019183808388EF9FEFE6CF87
:102EB000F8012481358120383105C8F687818111D8
:102EC000D6CF4181842F90E08F7E009741F082E041
:102ED00090E0F7019183808386EF9FEFCFCF4F8300
:102EE0003E832D83268128871986223010F421E025
:102EF000288721E030E0F70131832083BFCF88E0CD
:102F000090E0FA019183808390E080E00895FB01D6
:102F10008FEF808381E181838FEF9FEF93838283A3
:102F200080E890E095838483168217820895FB01E0
:102F30008FEF808391E0918382839383848384E302
:102F4000858381E090E0978386830895DF92EF92F6
:102F5000FF920F931F93CF93DF93EA01FC01E60FDB
:102F6000F71F8181813071F082E090E0998388833E
:102F70008FEF9FEFDF91CF911F910F91FF90EF9017
:102F8000DF90089582819381D4802581E680F78047
:102F900000911404109115040115110539F482E013
:102FA00090E0998388838CEF9FEFE4CF40911604E3
:102FB000509117048417950738F082E090E09983C8
:102FC00088838EEF9FEFD6CF892B39F082E090E097
:102FD0009983888386EF9FEFCDCF8D2D8D7FB1F7BD
:102FE0002130A1F781E0D11006C091E0E916F1048B
:102FF00031F080E004C0E2E0EE16F104D0F3882363
:1030000029F390E080E0C2DD882339F082E090E08F
:103010009983888388EF9FEFADCFF801D38681E055
:103020008487F686E586108A178681E090E099838A
:10303000888390E080E09ECF4CE050E064EB72E04B
:1030400057CA8F929F92BF92CF92DF92EF92FF92D8
:103050000F931F93CF93DF93EA01FC01E60FF71F55
:10306000828193810481B580E0911404F09115046C
:10307000309791F482E090E0998388838CEF9FEF02
:10308000DF91CF911F910F91FF90EF90DF90CF9044
:10309000BF909F908F90089520911604309117044F
:1030A0008217930738F082E090E0998388838EEF4F
:1030B0009FEFE6CF23E1289F6001299FD00C1124C8
:1030C000EC0DFD1DE080F180E114F10499F28281A4
:1030D000081748F78DE0089F80011124E00EF11ECB
:1030E000F70180819181892B29F6BB20E1F2F7E07D
:1030F000BF9E40011124C4010E945B24F70191830B
:103100008083E0911404F0911504EC0DFD1D0190F5
:10311000F081E02DE00FF11F80819181009739F45B
:1031200082E090E0998388838DEF9FEFA9CFA4017F
:1031300070E060E00E94F2368091140490911504D2
:10314000C80ED91EF60180819181080F191FF80160
:10315000B28281E090E09983888390E080E090CF14
:10316000AF92BF92CF92DF92FF920F931F93CF93B4
:10317000DF93EA01FC01E60FF71F82819381F4805F
:1031800000911404109115040115110581F482E0D9
:1031900090E0998388838CEF9FEFDF91CF911F910F
:1031A0000F91FF90DF90CF90BF90AF900895209146
:1031B0001604309117048217930738F082E090E0EC
:1031C000998388838EEF9FEFE8CF2FEF2F0D2C3F51
:1031D000A8F723E1289F6001299FD00C11240C0D32
:1031E0001D1DF80180819181892B89F6FDE0FF9EEC
:1031F00050011124C5010E945B24F8019183808352
:10320000E0911404F0911504EC0DFD1D8081918175
:10321000009739F482E090E0998388838DEF9FEFE7
:10322000BCCFA50170E060E00E94F236E09114048A
:10323000F0911504EC0DFD1DF28281E090E0998380
:10324000888390E080E0A9CFCF92DF92EF92FF9247
:103250000F931F93CF93DF93860F971FFC0102817B
:1032600013818091140490911504892B81F082E0E0
:1032700090E0FA01918380838CEF9FEFDF91CF91F3
:103280001F910F91FF90EF90DF90CF900895C801AC
:10329000B0E0A0E00197A109B1098F3F9F4FA105C0
:1032A000B10540F082E090E0FA01918380838EEFD7
:1032B0009FEFE4CF7A0183E1809F6001819FD00C72
:1032C0001124C6010E945B24EC01009741F482E0C6
:1032D00090E0F701918380838DEF9FEFCFCFA60120
:1032E00070E060E00E94F236D0931504C09314049D
:1032F000109317040093160490E080E02FEF3FEF47
:1033000041E061E070E08017910741F481E090E0D6
:10331000F7019183808390E080E0B0CF3A8B298BD6
:103320001B864C877E876D87188A1F860196639659
:10333000EACFEF92FF921F93CF93DF93EC0110E05F
:10334000F12CE12C6A811617B0F083E0689FB00180
:103350001124AE014F5E5F4FC7010E94C024009749
:1033600021F02FEF3FEF3A8B298BDF91CF911F9107
:10337000FF90EF900895612FCE018DDC61E070E049
:103380000E940823E816F90608F47C011F5FDACFD3
:10339000F894209112043091130481E02115310535
:1033A00009F080E0232B09F0789408952F923F9242
:1033B0004F925F926F927F928F929F92AF92BF9245
:1033C000CF92DF92EF92FF920F931F93CF93DF93F1
:1033D0003C01660E771EF301828193814C01B12C72
:1033E000A12CC0911404D0911504209769F021E01C
:1033F00030E060911604709117048617970710F05B
:1034000030E020E0232BD1F482E090E0FA019183B8
:1034100080838EEF9FEFDF91CF911F910F91FF90EF
:10342000EF90DF90CF90BF90AF909F908F907F9064
:103430006F905F904F903F902F900895809261021F
:1034400090926202A0926302B092640263E1689F6C
:103450009001699F300D1124C20FD31FF3018181A8
:10346000833040F082E090E0FA019183808386EF20
:103470009FEFD1CF2A012B813C81232BF1F42881AE
:1034800039819F8191FF2EC0232B09F46FC02091B9
:1034900019049A81422F490F5527551FBA0141E05F
:1034A00050E06138710514F050E040E0452B09F41C
:1034B0005DC02A87920F909319048150823008F4DE
:1034C00081C066DF882309F4D8C0F301818181308F
:1034D00009F48DC008F47BC0823009F4C6C090E0C6
:1034E00080E0ADC0232B09F441C0209118049A81DB
:1034F000E22FE90FFF27FF1F41E050E0ED3FF1050C
:1035000014F050E040E0452B89F12A87920F909308
:103510001804D3CFA081B181A20FB31F11966C9173
:10352000060F111D0196295F3F4F8417950794F3ED
:103530008D859E85089F1001099F300C189F300CC7
:103540001124C114D104D1F48F8184FF17C00E94CB
:103550005623F5E02F0E311C21E08215930508F467
:1035600020E0A701435F5F4F21110EC082E090E091
:10357000F2019183808387EF9FEF4DCF0E94562306
:103580002FEF221A320AE8CF88819981E80EF91EBE
:10359000F70114830383FFEFCF1ADF0A7A018A81D0
:1035A0008C151D0409F00CF48CCFE881F981EE0D27
:1035B000FF1D428150E030E020E010E000E090E0AC
:1035C00080E0B3CFF12CE12CD12CC12CE8CF81E0ED
:1035D00090E09C838B83F1DA882309F480CF81E02B
:1035E00090E00E945A1280E40E94681278CF898984
:1035F0009A89019661F083E090E09C838B8382E05E
:1036000090E00E945A1280E40E94621268CF8D817D
:103610009E81209157023091580282179307D1F46E
:1036200060915B0270915C02AE014F5E5F4F8091D2
:10363000590290915A020E94DF250097E1F2789496
:1036400022E030E0F20131832083892B99F08DEF65
:103650009FEFE1CE89288A288B2869F6892B59F6B5
:10366000CE0167DE188A1F86E8CF82E090E09C8357
:103670008B8335CF90E080E0CECE82E090E0F20107
:103680009183808385EF9FEFC6CE8F929F92AF92FA
:10369000BF92CF92DF92EF92FF920F931F93CF933F
:1036A000DF93EA018C01060F171FF8018181833037
:1036B00098F082E090E09983888386EF9FEFDF9116
:1036C000CF911F910F91FF90EF90DF90CF90BF901F
:1036D000AF909F908F90089580911404909115045D
:1036E000892B61F081E090E020911604309117045D
:1036F000232B11F490E080E0892B39F482E090E0F4
:10370000998388838EEF9FEFDACF42DE882309F416
:10371000DFC0F8018181813009F495C0E8F0823082
:1037200099F42091160430911704E0911404F0915B
:10373000150490E080E041E050E02817390709F0D7
:10374000BDC03BDA811117C0789481E090E0998385
:10375000888390E080E0B3CF209116043091170465
:10376000E0911404F091150490E080E041E050E015
:103770002817390741F481E090E00E945A1280E452
:103780000E946812E1CF63817481672B11F054832A
:10379000438301967396ECCFE0911404F0911504E5
:1037A000E00FF11F2381348122303105D9F42189C2
:1037B00032892F3F3F4FB1F4258136814091570226
:1037C000509158022417350761F5AF014F5E5F4FE6
:1037D00060915B0270915C028091590290915A0253
:1037E0000E94DF25EFEFCE1ADE0AEE0AFE0A0D5E1A
:1037F0001F4F409116045091170470E060E0C4160A
:10380000D506E606F7063CF5009731F27894892B49
:1038100009F49BCF82E090E0998388838DEF9FEF3E
:103820004ECFC114D104E104F104E1F6232BD1F60B
:10383000CF017FDDE0911404F0911504E00FF11F3A
:10384000108A1786CFCF10E000E090E080E0C12C16
:10385000D12C7601CECF0097C9F610E000E0812C84
:10386000912C540183E0E82EF12C1AC0E09114044D
:10387000F0911504E00FF11F83819481029749F4C0
:10388000F482E38282E090E00E945A1280E40E9477
:103890006212FFEF8F1A9F0AAF0ABF0A0D5E1F4F19
:1038A0008091160490911704B0E0A0E08816990664
:1038B000AA06BB06DCF290E080E0A8CF63817481A9
:1038C0006230710511F4548343830196739635CFAA
:1038D00082E090E09983888385EF9FEFF0CE009798
:1038E000B9F48FEFFB018083209161023091620275
:1038F00043E1429FC001439F900D1124E0911404C5
:10390000F0911504E80FF91F8285FB01818308956A
:103910000C94111288E090E0FA019183808390E08A
:1039200080E008951092130410921204E4E1F4E090
:1039300086E0DF011D928A95E9F78CE198E190938A
:103940001104809310040895809110049091110443
:1039500008952F923F924F925F926F927F928F9233
:103960009F92AF92BF92CF92DF92EF92FF920F930E
:103970001F93CF93DF93CDB7DEB72F970FB6F89491
:10398000DEBF0FBECDBFF894E0911204F091130496
:103990003196F0931304E093120478944090140449
:1039A000509015044114510409F40CC2E09116041E
:1039B000F0911704EF2B09F405C22D8749875A8728
:1039C0006B877C8798878F831201B12CA12C10E024
:1039D00000E08091160490911704A816B90618F417
:1039E0000115110529F1F8948091120490911304A6
:1039F000019790931304809312047894C8012F9632
:103A00000FB6F894DEBF0FBECDBFDF91CF911F91EF
:103A10000F91FF90EF90DF90CF90BF90AF909F906D
:103A20008F907F906F905F904F903F902F90089570
:103A30007101E418F508D10117968C91179781FD53
:103A400054C013968D919C911497039709F04DC023
:103A500015968D919C91EF81F8858E179F0709F03F
:103A600044C0B50190E080E07FD48A8320911404A3
:103A7000309115043D832C833D85332309F44CC0DC
:103A80004C815D81452B09F49AC180911604909177
:103A90001704A816B90608F092C1C501D8D8882322
:103AA000E9F06C817D816E0D7F1D7D836C83DB0170
:103AB0001F968D919C91892B89F0D12CC12CF12CD2
:103AC000E12CAC81BD8112968C9112978E151F044A
:103AD00009F094F450961C921E921F972A8122237B
:103AE00021F0B50190E080E041D43FEFA31AB30A82
:103AF00043E1240E311C6DCFAC81BD81ED91FC9171
:103B0000EC0DFD1D858196810FD7BFEFEB1AFB0AE7
:103B1000EDE0CE0ED11CD5CFEC81FD81309709F4BC
:103B20004EC18091160490911704A816B90608F0AA
:103B300046C1EE0DFF1DFF87EE87C50188D88B8338
:103B4000882339F1AE85BF851F968D919C91509742
:103B5000019621E01D964D915C918417950709F01F
:103B600020E02E831982712C10E000E0AE85BF8525
:103B700012968C91781608F45DC0EE85FF858785D6
:103B800090890196658576850E949236908B87870D
:103B9000A5CFB1E0BE83E6CF992493946BC08BD6BA
:103BA000F6019683858382C0D601ED90FC90B7E044
:103BB0006B9EE00CF11C1124F701638174818081FC
:103BC0008F3F61F121E030E002C0220F331F8A9560
:103BD000E2F7C901092E000CAA0BBB0BFB014081C7
:103BE00051816281738184239523A623B72321E029
:103BF000892B8A2B8B2B09F420E0D4012C93D7013D
:103C000011968C91F60123853485820F932F911D97
:103C1000880E991E1486138663949BC0418150E0E0
:103C2000C4010E94E936EBCF998206EF1FEFC5C0B1
:103C30001982C3C0F981F111A0CFEDE07E9E700121
:103C40001124AE85BF85CD90DC90CE0CDF1C15D441
:103C50009D838C83BB81BB2309F49ECF81E0EE85DD
:103C6000FF8527853089232B09F080E0982E882353
:103C700009F458C0672D8E859F850DD8D6011896FA
:103C80009C938E93179761E070E0C2D4EE85FF8518
:103C9000218932892F3F320709F481CFBC01C90144
:103CA000CFD7D60116969C938E931597D60115966D
:103CB0008D919C911697009709F4B6CFEC81FD8108
:103CC0008E0F9F1F1A969C938E931997AE85BF8572
:103CD000ED91FC911197EE0EFF1EF70121853285C3
:103CE000148613861A968C91870DD9018D937110C5
:103CF00016C0EE85FF85878184FF11C049855A85EE
:103D00006B857C85F9014183528363837483F7015A
:103D1000838594850496A80FB91F14861386F7012E
:103D2000B287A187D60115968D919C911697892B04
:103D300009F443C0EE85FF852581368180915702C5
:103D4000909158022817390779F019968D909C9018
:103D5000612CD60112968C911297681608F424CF24
:103D60001A969C928E921997BE81BB2309F460CF5C
:103D700061E070E0F601878190854AD4D6011796FC
:103D8000ED90FC90189715964D915C91E1E0F0E074
:103D9000BA81BB2311F0F0E0E0E00C811D819C01B1
:103DA000B501882799278E1B9F0B6AD38C01892B1D
:103DB00021F0F60185819681B7D57394D7CE0FEFA8
:103DC0001FEF8CCE10E000E00ECE2F923F924F926C
:103DD0005F926F927F928F929F92AF92BF92CF929B
:103DE000DF92EF92FF920F931F93CF93DF93809117
:103DF00014049091150410E000E0892BA9F0C8DAB2
:103E00000AEF1FEF882381F02090160430901704EA
:103E1000C0911404D0911504D12CC12C10E000E005
:103E20002C143D04A9F47894C801DF91CF911F911F
:103E30000F91FF90EF90DF90CF90BF90AF909F9049
:103E40008F907F906F905F904F903F902F9008954C
:103E5000C6010E942716882309F18B819C81039754
:103E6000E9F48F859889892BC9F0B60190E080E04C
:103E70007BD221E030E0882311F030E020E04424C0
:103E80005524421A530AB12CA12C912C812C8A81E1
:103E90008815190409F038F4188A1F864FEFC41AE0
:103EA000D40A6396BDCFE881F981EA0DFB1D8581B7
:103EB0009681892BA1F161E070E087819085A8D37C
:103EC0003C01DBD28C01E881F981EA0DFB1D818583
:103ED000928525813681200F311FAC01421B530B87
:103EE0009A0147815085421B530B70E060E00E94AD
:103EF000F236E881F981EA0DFB1DE780F084458107
:103F000056819301B601C201BBD28C01892B39F0D5
:103F1000E881F981EA0DFB1D8581968105D55FEF6A
:103F2000851A950A8DE0A80EB11CB1CF31CA7894DC
:103F300008952F923F924F925F926F927F929F923D
:103F4000AF92BF92CF92DF92EF92FF920F931F93A7
:103F5000CF93DF9300D000D0CDB7DEB7009114042B
:103F600010911504992493940115110509F43EC08C
:103F7000A0901604B09017040BDA982E8823B1F1A4
:103F80001092150410921404109217041092160443
:103F900010921804109219048FEF9FEFDC018093A8
:103FA000610290936202A0936302B09364027894DA
:103FB0007FD31E830D83C12CD12C7601C501B0E0C7
:103FC000A0E089839A83AB83BC8322242A94322C79
:103FD00089819A81AB81BC81C816D906EA06FB06A5
:103FE000F4F0C801A1D480E40E946812892D2696BD
:103FF0000FB6F894DEBF0FBECDBFDF91CF911F91FA
:104000000F91FF90EF90DF90CF90BF90AF909F9077
:104010007F906F905F904F903F902F900895AD816B
:10402000BE8115968D919C911697209157023091E3
:10403000580282179307D1F451968D919C91EED539
:10404000ED81FE8180819181B12CA12C412C512CDC
:104050003201892B89F5BFEFCB1ADB0AEB0AFB0A89
:10406000ED81FE817396FE83ED83B2CFC114D1043E
:10407000E104F10429F7892B19F7ED81FE8181898B
:1040800092898F3F980709F029D5AD81BE8152965C
:104090003C922E925197D4CF8A0D9B1DDC018D91BD
:1040A0009C91009709F040D4BFEF4B1A5B0A6B0A52
:1040B0007B0AEDE0AE0EB11CAD81BE818D919C916D
:1040C000119712964C9150E070E060E0441655064E
:1040D000660677060CF328D4BECFCF93DF93EA01B0
:1040E00028DF811109C082E090E09983888385EF01
:1040F0009FEFDF91CF91089581E090E00E945A12E6
:1041000081E090E09983888390E080E0F2CF11DF36
:104110001092110410921004089542E050E06CEFE8
:1041200072E00C947812FF920F931F93CF93DF935A
:104130008A01EC01C60FD71FF980B9D20897F8168B
:10414000190671F068F082E090E0F80191838083B5
:104150008EEF9FEFDF91CF911F910F91FF90089508
:104160006C817D818E819F814B810E940D15811113
:1041700008C082E090E0F8019183808384EF9FEF94
:10418000E9CFF9800E9408154F2D50E0BE01685F0D
:104190007F4F0E94E93689810E94771581E090E087
:1041A000F8019183808390E080E0D4CFDF92EF929A
:1041B000FF920F931F93CF93DF938A01EC01C60FF9
:1041C000D71F0E9408157C01D98071D2DD2059F0DB
:1041D000029721E030E0D816190619F010F030E00F
:1041E00020E0232B79F482E090E0F8019183808332
:1041F0008EEF9FEFDF91CF911F910F91FF90EF9086
:10420000DF900895EF2841F482E090E0F801918377
:10421000808384EF9FEFEECFF9800E9408154F2D29
:1042200050E0BE016E5F7F4F0E94E93689810E9497
:10423000771581E090E0F8019183808390E080E041
:10424000D9CF8DE890E290931B0480931A040895CF
:1042500080911A0490911B0408950895FC01118225
:104260001082938382830895DB011D921C92DC01EE
:104270001296ED91FC9113977183608313967C9352
:104280006E9312970895FC0180819181DB018D93DB
:104290009C93A081B181109741F08D919C91918365
:1042A0008083892B11F4F383E2830895FC018081DC
:1042B0009181DB018D939C93892B11F4738362832D
:1042C000718360830895FC0111821082938382833D
:1042D0000895CF93DF931F921F92CDB7DEB71A8256
:1042E0001982F894BE016F5F7F4F81E294E0CBDFCB
:1042F00089819A81009709F017D389819A81892B46
:1043000089F7BE016F5F7F4F85E294E0BCDF898152
:104310009A81009709F008D389819A81892B89F7BE
:1043200078940F900F90DF91CF910895CF93DF9302
:104330001F921F92CDB7DEB71A821982F894BE0180
:104340006F5F7F4F8DE194E09EDF89819A810097B6
:1043500009F0EAD289819A81892B89F778940F90A4
:104360000F90DF91CF91089581E0089590E080E073
:104370000895EF92FF920F931F93CF93DF931F92B5
:104380001F92CDB7DEB71A82198280911C0407EF05
:104390001FEF8823A1F1F894BE016F5F7F4F85E284
:1043A00094E071DF789489819A81EE24E394F12C72
:1043B000892B51F4F894BE016F5F7F4F81E294E046
:1043C00062DF7894F12CE12C89819A810EEF1FEF46
:1043D0000097A9F0FC014281538164E070E076D639
:1043E0008C01892B61F0F89469817A81C701880F6B
:1043F000991F880F991F8F5D9B4F58DF7894C801D4
:104400000F900F90DF91CF911F910F91FF90EF9040
:1044100008950F931F93CF93DF9300D01F92CDB7D2
:10442000DEB71C821B821A82198280911C0407EF5E
:104430001FEF8823C1F0AE014D5F5F4F64E070E075
:10444000CE010196B6D68C01892B69F4E981FA81F7
:104450008B819C8193838283F89469817A818DE139
:1044600094E002DF7894C8010F900F900F900F90A6
:10447000DF91CF911F910F910895BBD704960895B6
:104480008F929F92AF92BF92CF92DF92EF92FF9264
:104490000F931F93CF93DF931F921F92CDB7DEB779
:1044A0001A821982BC016F5F7F4F6330710598F0EB
:1044B000AA24AA94BA2CC5010F900F90DF91CF9136
:1044C0001F910F91FF90EF90DF90CF90BF90AF9032
:1044D0009F908F9008954115510551F3480159015E
:1044E0008A016C01CADF8815990511F7E114F104FE
:1044F000F9F28E0D9F1DA816B906D0F280911C040A
:104500008823F1F0F894B501645071099701AE0168
:104510004F5F5F4FC8010496E1D65C01892B71F4AF
:1045200089819A81F80193838283C601880F991F3C
:10453000880F991FB8018F5D9B4F96DE7894BBCF93
:1045400087EFA82EBB24BA94B6CFAF92BF92CF927A
:10455000DF92EF92FF920F931F93CF93DF931F92FF
:104560001F92CDB7DEB71A821982892B09F047C096
:104570006115710509F443C04115510509F43FC0A7
:104580002115310509F43BC001151105C1F18091D8
:104590001C048823B9F179016A015B01F894BE011A
:1045A0006F5F7F4F8DE194E06EDE789489819A8110
:1045B000009759F1DC0112966D917C91A801049647
:1045C000A6D68C01E981FA81D501ED93FC93828115
:1045D00093810496F601918380834FDFD7018D93F9
:1045E0009C93C8010F900F90DF91CF911F910F9175
:1045F000FF90EF90DF90CF90BF90AF9008950FEFB6
:104600001FEFEFCF07EF1FEFECCF0EEF1FEFE9CF5C
:10461000CF93DF93EC01672B71F4F4D68C179D07D1
:1046200060F0E7D62496C80FD91FE6D68C0F9D1FE1
:10463000DF91CF910895E3D6F1CF90E080E0F8CFFD
:104640000F931F93CF93DF9320911C0421112BC054
:104650008B01EC0181E294E001DE85E294E0FEDD75
:104660008DE194E0FBDD97D00097C1F4CBD670E0EC
:1046700060E0CEDF45E652E062E070E081D1009775
:1046800069F48091650290916602CED6B801CE01A0
:1046900003D5009719F421E020931C04DF91CF91FA
:1046A0001F910F91089584EF9FEFF8CFA8C6AAC677
:1046B000CF93DF93AAD6EC01892B11F40ADE36DE04
:1046C000CE01DF91CF910895CF93DF939ED6EC0179
:1046D000892B09F4FEDDCE01DF91CF910895809101
:1046E0006502909166020895CF93DF9380911C0438
:1046F000D0E0C0E08823D1F09CD6EC01892BB1F446
:10470000E8DD14DE8091650290916602E7D1E8D27F
:10471000EC01892B59F481E294E0D5DD85E294E047
:10472000D2DD8DE194E0CFDD10921C04CE01DF914B
:10473000CF910895EF92FF920F931F93CF93DF9342
:10474000EC017A018B010F5F1F4F0E9DA0010F9DA1
:10475000500D1E9D500D112470E060E00E94F23655
:1047600090E080E0F0E0E0E02FEFE816F90639F4A1
:10477000DF91CF911F910F91FF90EF9008951A82D2
:1047800019822883309711F0D283C1830196FE01EC
:10479000C00FD11FEACFCF92DF92EF92FF920F931B
:1047A0001F93CF93DF9302EB15E00C7F43E050E0C3
:1047B00067E672E08DE692E01CD487E6E82E82E0A0
:1047C000F82E9DE6C92E92E0D92EC9E3D6E0D70196
:1047D0004D915D917D01F601619171916F01198398
:1047E00008835D834C835B834A837F836E839B0155
:1047F0002F5F3F4F249FC001259F900D349F900D48
:104800001124998788870115110511F0C80192DFDD
:1048100088859985080F191F2A96FDE6EF16F2E0A4
:10482000FF06A9F6EBE2F4E084E891E0DF019C01E9
:104830001D9221503040E1F710922A041092290471
:10484000109258061092570610925C0610925B0662
:1048500010925A061092590610925E0610925D064A
:104860001092600610925F06109262061092610626
:104870001092660610926506109264061092630606
:10488000109268061092670610926A0610926906E6
:10489000109236061092350610923806109237069E
:1048A00090E080E0DF91CF911F910F91FF90EF900A
:1048B000DF90CF9008950097F1F0F894ADE6B2E064
:1048C000E9E3F6E030E020E04D915D9148175907AB
:1048D000A8F0428153814115510581F08AE0829F01
:1048E000F001839FF00D1124E75CF94F80819181E5
:1048F000009759F4789490E080E008952F5F3F4F3F
:104900003A962330310501F7F5CFDC0111966D9110
:104910007C91718360834150510953834283FC0130
:104920002193CF0178940895009749F1DC018E918D
:10493000853041F4E0913706F09138063097F9F070
:10494000CD0119948530D8F4282F30E0F8948FEFFA
:104950008C938AE0829FF001839FF00D1124E75C25
:10496000F94F8081918112969C938E931197B18318
:10497000A0838281938101969383828378940895A2
:10498000CF92DF92EF92FF920F931F93CF93DF931B
:104990009C018EE294E08C7F4115510509F49BC087
:1049A0002115310509F497C06115710509F493C00B
:1049B0007A01AB01B9016D5F7F4F6C7F9B012F5F67
:1049C0003F4F249F8001259F100D349F100D11240F
:1049D000F8942091570630915806232B59F42091D2
:1049E0005F06309160062115310569F12017310706
:1049F00008F058C02091610630916206232B91F493
:104A000020915F0630916006820F931F2091690606
:104A100030916A062115310509F441C0201731078C
:104A200008F056C07894CFEFDFEF86EF9FEFF701E5
:104A3000D183C083DF91CF911F910F91FF90EF90B1
:104A4000DF90CF900895C3E0D0E0C0902904D090CB
:104A50002A0421E831E02C193D092017310710F311
:104A60002AE02C9FF0012D9FF00D1124E75CF94FF7
:104A70009183808355834483538342837783668302
:104A800011870087009709F055DE0C0D1D1D10934E
:104A90002A0400932904789490E080E0C8CFC4E011
:104AA000D0E0D3CFC3E0D0E02AE02C9FF0012D9FCF
:104AB000F00D1124E75CF94F918380835583448383
:104AC0005383428377836683009729F333DEE3CFF2
:104AD000C4E0D0E0E9CF8FEF9FEFACCF9C0103970C
:104AE000029708F069C0F89484E09AE0482F50E0FB
:104AF000241735070CF44DC091E08AE0829FF00145
:104B0000839FF00D1124E75CF94F1182108215820A
:104B1000148213821282178216829923B1F1809136
:104B2000570690915806892BA9F420915F06309181
:104B300060062115310571F08091290490912A04B5
:104B4000821B930B90932A04809329041092600691
:104B500010925F068091610690916206892BA9F4FC
:104B60002091690630916A062115310571F0809116
:104B7000290490912A04821B930B90932A0480931A
:104B8000290410926A0610926906789490E080E0F9
:104B90000895949FF001959FF00D1124E75CF94F63
:104BA00040815181452B31F440855185452B11F4CD
:104BB00081509CCF90E0A1CF8FEF9FEF08954115DA
:104BC000510549F1009739F16115710521F1F8940A
:104BD0002091350630913606232BB9F42091370603
:104BE00030913806232B89F490933606809335064E
:104BF0007093380660933706789425E030E090E0B3
:104C000080E0FA0131832083089578942FEF3FEFFD
:104C100086EF9FEFF6CF8FEF9FEF0895059769F42A
:104C2000F8941092360610923506109238061092BB
:104C30003706789490E080E008958FEF9FEF089515
:104C40006115710519F4F0E0E0E011C085309105BF
:104C500081F4E0913506F09136063097A1F3CB014F
:104C600001961995009779F3FC0185E08193CF01B6
:104C700008959C01235031092230310520F72AE0A4
:104C8000289FD001299FB00D1124A75CB94F2D9109
:104C90003C911197232BB9F216962D913C911797C1
:104CA0002617370780F2F89412962D913C911397AE
:104CB0002115310529F0ED91FC911197309711F4F0
:104CC0007894C1CF4181528111965C934E932150CB
:104CD000310913963C932E93129781937894C7CF02
:104CE000EFEAF5E086E8DF011D928A95E9F7EBE24D
:104CF000F4E084E891E0DF019C011D9221503040F6
:104D0000E1F710922A0410922904E9E3F6E082E325
:104D1000DF011D928A95E9F7E5E3F6E084E0DF0123
:104D20001D928A95E9F790E080E00895CF93DF9394
:104D3000C0917302D0917402CF3FDC0759F423D4A1
:104D4000909374028093730297FF09C0D09374020A
:104D5000C093730284EF9FEFDF91CF91089590E0AD
:104D600080E0FACF8230910528F480936B0690E0C2
:104D700080E008958FEF9FEF08954F925F926F92BA
:104D80007F92AF92BF92CF92DF92EF92FF920F93FA
:104D90001F93CF93DF931F921F92CDB7DEB71A8276
:104DA0001982009709F479C06115710509F475C07D
:104DB000209173023091740207EF1FEF2F3F3F4F96
:104DC00009F445C06B015C01412C512C3201F12CDE
:104DD000E12C10E000E09E012F5F3F4FA6014E192D
:104DE0005F09B5016E0D7F1D809173029091740271
:104DF0002ED4892B09F04BC089819A81009741F408
:104E0000E114F10429F420916B06222309F442C035
:104E1000E80EF91EEC14FD04D0F480E8481684E88E
:104E200058068EE16806710420F560E070E0CB0161
:104E30000E94CF302AE0420E511C611C711C0A3FB7
:104E40004FEF140721F0043F8FEF1807A1F4C801BA
:104E50000F900F90DF91CF911F910F91FF90EF90E6
:104E6000DF90CF90BF90AF907F906F905F904F900A
:104E7000089501EF1FEF81E090E0013F2FEF12074F
:104E800011F090E080E0892B09F4A5CFE0CF04EF8A
:104E90001FEFDDCF0AEF1FEFDACF0FEF1FEFD7CFF6
:104EA0004F925F926F927F92AF92BF92CF92DF92BA
:104EB000EF92FF920F931F93CF93DF931F921F9256
:104EC000CDB7DEB71A821982009709F479C061154F
:104ED000710509F475C0209173023091740207EFD7
:104EE0001FEF2F3F3F4F09F445C06B015C01412C80
:104EF000512C3201F12CE12C10E000E09E012F5FDB
:104F00003F4FA6014E195F09B5016E0D7F1D8091BF
:104F10007302909174024ED3892B09F04BC08981A2
:104F20009A81009741F4E114F10429F420916B0671
:104F3000222309F442C0E80EF91EEC14FD04D0F45B
:104F400080E4481682E458068FE06806710420F574
:104F500060E070E0CB010E94CF302AE0420E511C8D
:104F6000611C711C0E3F4FEF140721F0043F8FEFBF
:104F70001807A1F4C8010F900F90DF91CF911F91F6
:104F80000F91FF90EF90DF90CF90BF90AF907F9008
:104F90006F905F904F90089502EF1FEF81E090E0D7
:104FA000023F2FEF120711F090E080E0892B09F407
:104FB000A5CFE0CF04EF1FEFDDCF0EEF1FEFDACF6D
:104FC0000FEF1FEFD7CF80917302909174028F3F44
:104FD000980749F0D0D2892B49F48FEF9FEF909337
:104FE00074028093730290E080E0089584EF9FEF55
:104FF0000895CF92DF92EF92FF920F931F93CF937A
:10500000DF9321E04115510509F020E0415051099D
:1050100021112CC0DC01FB01D12CC12C21E022C0CC
:105020003FEFC31AD30A7D010D911D91E701EA807C
:10503000FB80E016F106A8F420813181E280F38044
:10504000F182E08233832283ED90FC9011979D01E1
:1050500022503109E901F982E88211961C930E93DE
:1050600020E03296C416D506D8F2D2CFDF91CF9188
:105070001F910F91FF90EF90DF90CF900895FC016A
:10508000680F791F90E080E0E617F70709F40895AC
:105090002191820F911DF8CF20916C06211113C030
:1050A00045DE009791F410927206109271061092EC
:1050B000700610926F0610926E0610926D0621E037
:1050C00020936C06089584EF9FEF0895AF92BF92EE
:1050D000CF92DF92EF92FF920F931F93CF93DF93C4
:1050E000009709F460C04630510508F45CC0209177
:1050F0006C06C7EFDFEF222309F449C08C01060FCD
:10510000171FF801C080D180C114D10409F44EC02A
:1051100096012A5F3F4F4217530708F447C07C01AE
:10512000809171069091720693838283B6016C5FC1
:105130007F4F5801A60EB71EC801A1DFF50191836C
:10514000808364E070E0C80118DEEC01892BF9F47B
:1051500081E090E007DEB601C80104960EDEEC01A6
:10516000892B91F462E070E0C50107DEEC01892B28
:1051700059F4C701D9DB80917106909172060196AE
:10518000909372068093710690E080E0EBDDCE0193
:10519000DF91CF911F910F91FF90EF90DF90CF9013
:1051A000BF90AF900895CFEFDFEFF1CFC9EFDFEF02
:1051B000EECF6F927F928F929F92AF92BF92CF92DB
:1051C000DF92EF92FF920F931F93CF93DF9300D064
:1051D0001F92CDB7DEB7009709F47AC0411551058B
:1051E00009F476C020916C0607EF1FEF222309F423
:1051F0004DC03A017B015C0164E070E0CE01019694
:105200004FDE8C01892B09F041C009811A810115FB
:10521000110509F45AC0480186E0880E911CB701B7
:10522000680D791D809175029091760209DD6C01FF
:10523000009709F450C0A70170E060E00E94F236C8
:1052400089819A81AB81BC81EC0CFD1CF7018193B3
:105250009193A193B1937F0181E090E083DDB80148
:10526000C7011EDE892B31F562E070E0C701800FB7
:10527000911F16DE8C01892BE9F490E080E072DD4D
:10528000F501D182C082F30191828082C8010F9022
:105290000F900F900F90DF91CF911F910F91FF9082
:1052A000EF90DF90CF90BF90AF909F908F907F90C6
:1052B0006F90089590E080E055DDF5011182108235
:1052C000F30111821082C6012FDB09EF1FEFDECF41
:1052D0000FEF1FEFDBCF06EF1FEFD8CF0097A1F046
:1052E0004115510589F02115310571F0F901369606
:1052F0006E177F0748F0DC012D933C93DA01ED93A4
:10530000FC9390E080E008958FEF9FEF0895AF92B7
:10531000BF92CF92DF92EF92FF920F931F93CF93A2
:10532000DF93009709F45FC04115510509F45BC094
:105330006530710508F457C020916C06C7EFDFEFA8
:10534000222391F1DC01CD90DC9011971296ED9122
:10535000FC9196012A5F3F4FC9EFDFEF2617370711
:1053600019F5C0916D06D0916E06209749F521E0A0
:1053700030E030936E0620936D067A018C01F09335
:105380007006E0936F065601B4E0AB0EB11CB50198
:1053900076DE0A0D1B1DF8012081318182179307EB
:1053A00029F5D701CD92DC92CE01DF91CF911F91EB
:1053B0000F91FF90EF90DF90CF90BF90AF90089546
:1053C00020916F06309170062F5F3F4FCCEFDFEFDB
:1053D000E217F30790F2CBEFDFEF2E173F0768F2EB
:1053E000D0E0C0E0CACFCFEFDFEFDECFC3EFDFEF1B
:1053F000DBCF84E090E0089582E090E008958CEFA8
:105400009FEF089580E290E0089510927206109246
:1054100071061092700610926F0610926E0610922E
:105420006D0690E080E00895909376028093750277
:10543000089580916C06882391F0C5DD009789F46A
:1054400010927206109271061092700610926F06FA
:1054500010926E0610926D0610926C06089590E000
:1054600080E00895009749F06115710531F0FC0165
:1054700011821082FB01118210820895F3CF26E081
:1054800030E040E855E260E070E090E080E000C08D
:105490008130910571F01CF4892B39F00895823028
:1054A000910551F0039759F0089580E896E00C9427
:1054B000D4338DE197E0FBCF8AEB97E0F8CF87E517
:1054C00098E0F5CF1F920F920FB60F9211240BB6F2
:1054D0000F922F933F934F935F936F937F938F938D
:1054E0009F93AF93BF93EF93FF938FE89DEF9093BC
:1054F000250180932401BFD0FF91EF91BF91AF911F
:105500009F918F917F916F915F914F913F912F91DB
:105510000F900BBE0F900FBE0F901F9018958FE845
:105520009DEF9093250180932401A3E7B0E08C9137
:105530008E7F8C93E0E2F1E080818C7F8083E1E2DA
:10554000F1E08081877E8083808184608083808198
:105550008C7F80838C9181608C930895E3E7F0E0E9
:10556000808190819E7F90838170089581E008956D
:1055700010927306089568EE73E080E090E00FD615
:1055800090E080E0089526E030E040E052EC61E0F9
:1055900070E090E080E07CDF80E896E00E940A33D3
:1055A000892B29F080E896E00E942433F5CF90E023
:1055B00080E00895CF92DF92EF92FF920F931F93B6
:1055C000CF93DF936B017A01E9011982188280E899
:1055D00096E00E940A33892B79F18601CC24C3948A
:1055E00082E0D82E80917306811111C080E896E088
:1055F0000E9424330297B1F7C0927306F801D1924A
:105600008F0188819981019699838883EBCF888166
:1056100099818E159F0580F480E896E00E942433DE
:105620008F3F9807A1F3F80181938F0188819981B9
:10563000019699838883EBCF90E080E0DF91CF9152
:105640001F910F91FF90EF90DF90CF9008950F93EF
:105650001F93CF93DF93EA01890180E896E00E94CF
:105660006436F801D183C08390E080E0DF91CF9170
:105670001F910F910895CF92DF92EF92FF92CF93F7
:10568000DF938091740691E0980F909374068823BD
:1056900079F021E030E03093760620937506809310
:1056A0007406DF91CF91FF90EF90DF90CF90089537
:1056B0007894C0918802D09189026E8D7F8D88A1E7
:1056C00099A1BFD120E030E040E85FE4C3D26B0194
:1056D0007C016A8D7B8D8C8D9D8DB3D19B01AC013E
:1056E000C701B6019AD081D16B017C010E9464068A
:1056F000B701A60190E080E00E94D605F894809161
:1057000074068150CCCF0F931F93CF93DF931092E9
:1057100061091092600979D5B2DEC0918802D091FA
:1057200089021982188268EE73E080E090E00E949E
:10573000590670E060E090E080E00E94D904009794
:1057400009F03AC00E94100AF8947894BE016A5D8C
:105750007F4F8A819B810E94DC04892B59F46FEF73
:105760007FEFCB010E946C050E945306882311F045
:1057700081E08AA7F894D3DE0E945606882311F0B0
:1057800080E008C00E9453068111FACF81E09AA5FB
:105790009111F6CF8093600978940E9455128C0184
:1057A00078948091600981110CC00E943E0B0E9488
:1057B0003806F89490E080E0DF91CF911F910F912F
:1057C00008950E9436060E9456068823D9F081E08B
:1057D000809361099091610981E0911180E080934B
:1057E0006009809161098111B9DE0130110529F448
:1057F0000E945512892B09F4BBDE0E9455128C01C0
:10580000B5DECFCF0E9453068111E1CF81E09AA58A
:105810009111DECF80E0DCCF5058BB27AA270ED0F5
:10582000C4C1B5D130F0BAD120F031F49F3F11F4AA
:105830001EF4AAC10EF4E095E7FB77C1E92FC6D1AB
:1058400080F3BA17620773078407950718F071F49D
:105850009EF5F5C10EF4E0950B2EBA2FA02D0B018D
:10586000B90190010C01CA01A0011124FF27591BA5
:1058700099F0593F50F4503E68F11A16F040A22FAB
:10588000232F342F4427585FF3CF4695379527951C
:10589000A795F0405395C9F77EF41F16BA0B620B1B
:1058A000730B840BBAF09150A1F0FF0FBB1F661F62
:1058B000771F881FC2F70EC0BA0F621F731F841FA5
:1058C00048F4879577956795B795F7959E3F08F0CB
:1058D000B3CF9395880F08F09927EE0F979587958A
:1058E000089596D180F09F3740F491110EF4A8C12D
:1058F00060E070E080E89FE3089526F01B16611DCC
:10590000711D811D18C132C1ECD008F481E00895E9
:105910000CD04BC143D140F03AD130F021F45F3F7D
:1059200019F003C151118CC12FC150D198F39923A3
:10593000C9F35523B1F3951B550BBB27AA27621753
:105940007307840738F09F5F5F4F220F331F441F98
:10595000AA1FA9F333D00E2E3AF0E0E830D09150D0
:105960005040E695001CCAF729D0FE2F27D0660FBD
:10597000771F881FBB1F261737074807AB07B0E8FC
:1059800009F0BB0B802DBF01FF2793585F4F2AF012
:105990009E3F510568F0C9C053C15F3FECF3983E8C
:1059A000DCF3869577956795B795F7959F5FC9F76F
:1059B000880F911D9695879597F90895E1E0660FF8
:1059C000771F881FBB1F621773078407BA0720F071
:1059D000621B730B840BBA0BEE1F88F7E0950895DA
:1059E00004D06894B1112CC10895F8D088F09F5765
:1059F00090F0B92F9927B751A0F0D1F0660F771F1B
:105A0000881F991F1AF0BA95C9F712C0B13081F0FA
:105A100016D1B1E0089513C1672F782F8827B85F9A
:105A200039F0B93FCCF3869577956795B395D9F75B
:105A30003EF490958095709561957F4F8F4F9F4F65
:105A40000895E89409C097FB3EF490958095709571
:105A500061957F4F8F4F9F4F9923A9F0F92F96E9BA
:105A6000BB279395F695879577956795B795F1112F
:105A7000F8CFFAF4BB0F11F460FF1BC06F5F7F4FCC
:105A80008F4F9F4F16C0882311F096E911C07723DE
:105A900021F09EE8872F762F05C0662371F096E8E7
:105AA000862F70E060E02AF09A95660F771F881FB6
:105AB000DAF7880F9695879597F90895A9D080F021
:105AC0009F3740F491110EF0BBC060E070E080E8B9
:105AD0009FEB089526F41B16611D711D811D2BC0BF
