:10000000D5C0000004C1000002C1000000C1000012
:10001000FEC00000FCC00000FAC00000F8C00000F4
:10002000F6C00000F4C00000F2C00000F0C0000004
:10003000EEC00000ECC00000EAC00000E8C0000014
:10004000E6C00000E4C00000E2C00000E0C0000024
:10005000DEC00000DCC00000DAC000000C94FE240A
:10006000D6C000000C948E270C94C427D0C000008A
:10007000CEC00000CCC00000CAC00000C8C0000054
:10008000C6C00000C4C00000C2C00000C0C0000064
:100090000C941A280C945028BAC00000B8C0000074
:1000A000B6C00000B4C00000B2C00000B0C0000084
:1000B000AEC00000ACC00000AAC00000A8C0000094
:1000C000A6C00000A4C000000C9457220C94A628DF
:1000D0000C94DC289CC000000C9432290C946829F4
:1000E00096C00000010210202008081020401020B7
:1000F00040800201020108040201010204081020EC
:1001000040808040201008040201800402018040E9
:100110002010080402010804020101020408102052
:1001200040800102040810204080050505050705F0
:1001300008080808020202020A0A08080404040463
:10014000010101010101010103030303030303038F
:10015000040707070C0C0C0C0C0C0C0C020202021E
:1001600006060606060606060B0B0B0B0B0B0B0B07
:1001700000002200250028002B002E003100340052
:1001800002010000050108010B010000210024000C
:1001900027002A002D003000330001010000040177
:1001A00007010A01ED2779280529912911241FBE8D
:1001B000CFEFD1E2DEBFCDBF00E00CBF12E0A0E088
:1001C000B2E0E8ECF4E500E00BBF02C007900D924E
:1001D000A43CB107D9F727E0A4ECB2E001C01D921E
:1001E000A13DB207E1F710E0C6EDD0E000E006C0A7
:1001F00021970109802FFE010E94312AC23DD107BB
:1002000080E00807A9F70E9459230C94622AF8CECF
:10021000CF93DF93882349F0EB0181500E9405269C
:1002200099838883DF91CF910895FB011182108219
:10023000F9CF0F931F938B019C0183E0369527958F
:10024000179507958A95D1F70C531D4F462F477088
:1002500021E030E0F90102C0EE0FFF1F4A95E2F7FE
:10026000AF01F80120812423CB010196211102C0A6
:1002700090E080E01F910F9108950F931F938B01E1
:100280009C0183E036952795179507958A95D1F7B8
:10029000677081E090E001C0880F6A95EAF7F80185
:1002A000EC53FD4F2081452B31F4809582238083D0
:1002B0001F910F910895822BFACFCF92DF92EF9288
:1002C000FF92CF93DF936B017C0160E086E3C81659
:1002D000D104E104F10490F486E38C0D0E942826F9
:1002E000E6012196AE01C701B601C7DFCE01DF915D
:1002F000CF91FF90EF90DF90CF9008958C2DEECFAF
:10030000882341F08150682F70E090E080E050E059
:1003100040E0B3CF089590E080E008950F931F93DD
:10032000009709F487C06115710509F483C0009135
:1003300006021091070220910802309109020E3F37
:100340001F4F2F4F3F4F09F066C04FEF5FEFBA01CD
:1003500040930602509307026093080270930902CB
:1003600040910602509107026091080270910902C3
:10037000DC011296ED91FC9180819181A281B38183
:100380008093350390933603A0933703B0933803DB
:1003900084819581A681B781809331039093320344
:1003A000A0933303B093340380859185A285B385F0
:1003B00080932D0390932E03A0932F03B0933003CB
:1003C00084859585A685B7858093290390932A0314
:1003D000A0932B03B0932C031092250310922603B5
:1003E00010922703109228034BD485E696E0909351
:1003F000CE028093CD029093D0028093CF022FD370
:10040000009731F421E030E030933A032093390330
:100410001F910F91089500910602109107022091FB
:10042000080230910902DB010D931D932D933C933B
:10043000139796CF8FEF9FEFEBCF8F929F92AF9254
:10044000BF92CF92DF92EF92FF921F93CF93DF93F1
:100450004B015C0110913C0382E090E090933A03E1
:100460008093390381149104A104B10441F4809173
:100470003C03811104C080913B03C1E08111C0E0C5
:10048000C12CD12C760180913C03811106C0809152
:100490003B03811102C0CC23D1F083E090E0909324
:1004A0003A0380933903CC2371F1CCE9DFEF1111CA
:1004B00001C06FD7CE01DF91CF911F91FF90EF90D8
:1004C000DF90CF90BF90AF909F908F9008956AE09B
:1004D00070E080E090E00E946D2580E1C80E87E228
:1004E000D81EE11CF11C8FEF88169806A806B806E6
:1004F00031F0C1E08C149D04AE04BF0408F0C0E0EC
:1005000080E0E1D2C0CFD0E0C0E0D1CFCF92DF9287
:10051000EF92FF920F931F93CF93DF938F3F91053D
:1005200011F008F050C02091390330913A03233084
:10053000310539F02091390330913A0321303105EA
:1005400031F424E030E030933A03209339036A0118
:100550007B01EC0182309105A0F011E0AE01C701F2
:10056000B6017CD2AB01BC01CE011123F9F0DF91C1
:10057000CF911F910F91FF90EF90DF90CF900C944F
:10058000F20B8C01000F111F03531D4FD8018D91E9
:100590009C91892B11F30E94FC0B0297F1F6D80174
:1005A000ED91FC91CE011995182FD8CF0E94140C13
:1005B00090E080E0DF91CF911F910F91FF90EF903D
:1005C000DF90CF9008958FEF9FEFF4CF80E07BC254
:1005D000CF93DF9386E090E090933A0380933903C2
:1005E000CBD2EC01EDECF2E084E0DF011D928A95C4
:1005F000E9F767D610923A0310923903CE01DF91E2
:10060000CF91089580913B0308958091240308952C
:100610006093060270930702809308029093090288
:1006200090E080E00895CF92DF92EF92FF92CF9317
:10063000DF931F921F92CDB7DEB7C0900002D0901B
:100640000102E0900202F0900302A701960160917E
:10065000C7077091C8078091C9079091CA070E9487
:10066000E123882341F0C092C707D092C807E092E7
:10067000C907F092CA0767E370E080E090E0D9DD37
:100680009093C6078093C50743E050E0BE016F5FBB
:100690007F4FBEDD2091040230910502A981BA810D
:1006A0000E94392A6093CB077093CC078093CD07C3
:1006B0009093CE076091FB027091FC028091FD0245
:1006C0009091FE026F5F7F4F8F4F9F4F6093FB02B1
:1006D0007093FC028093FD029093FE020E94E5233A
:1006E0009B01AC016091FF027091000380910103B6
:1006F000909102030E944A246093F7027093F802DB
:100700008093F9029093FA020F900F90DF91CF91AE
:10071000FF90EF90DF90CF900895CF93DF93E1EEBD
:10072000F2E080E090E0A0E8BFEB82A393A3A4A353
:10073000B5A38DEC9CECACE4BEE3868F978FA0A3B1
:10074000B1A38FEA9FE0AAEFB4EA84839583A683DE
:10075000B78388E399E5A6EAB3E980879187A28702
:10076000B3878BE397E4A6E9B6E984879587A687E4
:10077000B78781E093ECAAE2BDEA808B918BA28BD4
:10078000B38BA5EDB2E0B383A283E1EDF2E0119665
:10079000FC93EE9380E392E0918380839383828342
:1007A00085EF92E015969C938E93149785EE92E0D8
:1007B00013969C938E93129787EF92E017969C93D3
:1007C0008E931697CFEBD7E018828091000290911C
:1007D0000102A0910202B091030288879987AA873B
:1007E000BB8781E090E0A0E0B0E089839A83AB838F
:1007F000BC8367E370E080E090E05FDD9F838E83E1
:1008000081E08D83DF91CF9108958091BF078111A1
:100810001DC081E08093BF078091C0079091C10700
:10082000A091C207B091C3070197A105B10571F46A
:100830008091C407882351F067E370E080E090E086
:10084000F8DC9093C6078093C5075ACD08954F9260
:100850005F926F927F928F929F92AF92BF92CF9250
:10086000DF92EF92FF920F931F93F894409014033E
:10087000509015036090160370901703C090080302
:10088000D0900903E0900A03F0900B03452B09F088
:10089000A6C09B01AC012419350946095709290155
:1008A0003A0100911003109111032091120330912D
:1008B000130348015901840C951CA61CB71C801613
:1008C0009106A206B306A0F400910C0310910D034B
:1008D00020910E0330910F030F5F1F4F2F4F3F4F9B
:1008E00000930C0310930D0320930E0330930F031A
:1008F0008092100390921103A0921203B0921303FE
:1009000000910C0310910D0320910E0330910F0301
:100910008092180390921903A0921A03B0921B03BD
:1009200000931C0310931D0320931E0330931F0399
:100930006093140370931503809316039093170329
:10094000A301920160E47DE083E090E00E94EC2945
:100950006C0D7D1D8E1D9F1D609308037093090310
:1009600080930A0390930B030091060210910702F3
:1009700020910802309109020F3F1F4F2F4F3F4F28
:10098000F1F00091060210910702209108023091C7
:1009900009020E3F1F4F2F4F3F4F89F0C0900602B4
:1009A000D0900702E0900802F090090221E08C1438
:1009B0009D04AE04BF0408F420E02093240378943F
:1009C0001F910F91FF90EF90DF90CF90BF90AF906D
:1009D0009F908F907F906F905F904F9008954B0104
:1009E0005C0184189508A608B708A3019201261B8C
:1009F000370B480B590B6415750586059705E0F014
:100A000082169306A406B50640F420E030E0A90162
:100A100081149104A104B104A1F460E47DE083E0B9
:100A200090E00E94EC29A7019601261B370B480B8A
:100A3000590BCA01B901C3CF82169306A406B506A5
:100A400060F7A501940160E47DE083E090E00E94FE
:100A5000EC296C0D7D1D8E1D9F1DB1CFF8CECF935F
:100A6000DF9300D01F92CDB7DEB71C821B821A82A3
:100A700019821092200310922103109222031092E7
:100A80002303BE016F5F7F4FCE0103960E94282291
:100A900069817A818B819C810E94181B009761F487
:100AA000BE016F5F7F4FCE0103960E9434226981A1
:100AB0007A818B819C812ED50F900F900F900F9093
:100AC000DF91CF910895FF920F931F93CF93DF9300
:100AD000082F60E070E0CB010E946D25FF24F394A5
:100AE0000E94011AEC01892B89F010E0CE3F8FEFB4
:100AF000D80769F0002361F160E070E0CB010E944B
:100B00006D2581E090E0892B59F322C011E025D5B5
:100B1000EC01892B21F0CE3F8FEFD80759F7111147
:100B20001EC011E0229609F410E00E94B119EC01F8
:100B3000892B21F0CE3F8FEFD807E1F6111111C0BC
:100B400011E0CE3F8FEFD80709F410E001110BC080
:100B5000CE01DF91CF911F910F91FF90089511E089
:100B6000E4CF11E0F3CF60E070E0CB010E946D258F
:100B70001F25812F90E0C7CFCF93DF93809124036F
:100B8000882321F060E070E0CB014CD635D6D0E070
:100B9000C0E0892B71F06AE070E080E090E00E9494
:100BA0006D2581E090DF28D62196C03D27E0D20751
:100BB00081F727D60E946C1B10923C0310923B03D6
:100BC00010923503109236031092370310923803B7
:100BD00010923103109232031092330310923403B7
:100BE00010922D0310922E0310922F0310923003B7
:100BF0001092290310922A0310922B0310922C03B7
:100C000010922503109226031092270310922803B6
:100C10004EEF5FEF6FEF7FEF4093060250930702B6
:100C2000609308027093090210922403E8E1F3E054
:100C300028E0DF011D922A95E9F710921403109223
:100C400015031092160310921703109210031092BE
:100C50001103109212031092130310920C031092BE
:100C60000D0310920E0310920F03109208031092BE
:100C7000090310920A0310920B03DF91CF9108959C
:100C8000109248031092490310924A0310924B03AA
:100C90001092470380915003909151039093460323
:100CA00080934503109244031092430310923F0334
:100CB00010924003109241031092420310924D0390
:100CC00010924C0390E080E00895CF92DF92EF9273
:100CD000FF920F931F93CF938C01892B09F055C07E
:100CE0002091500330915103809145039091460328
:100CF0004091500350915103509346034093450354
:100D00002817390781F01092440310924303109280
:100D10003F0310924003109241031092420310923D
:100D20004D0310924C038091500390915103019711
:100D300061F580914C0390914D03892B21F48091B2
:100D40000A02811112C080914C0390914D030197CA
:100D5000E1F480913F0390914003A0914103B09151
:100D600042030197A105B10581F410923F0310924F
:100D70004003109241031092420310920A0282E053
:100D800090E090934D0380934C0380915003909199
:100D90005103019709F01CC180916603909167038C
:100DA0008017910709F014C1809162039091630349
:100DB000A0916403B0916503009709F409C12091E3
:100DC000610321110DC04091620350916303609152
:100DD000640370916503452B462B472B09F4F8C03B
:100DE00020914C0330914D032230310509F0F0C0C1
:100DF000209143032111ECC0FC01C080D180E2802E
:100E0000F38080914703882309F4D3C08091530372
:100E100090915403892B09F4FDC020915303309124
:100E2000540381E02230310509F080E02091530322
:100E300030915403C1E02130310549F02091530332
:100E400030915403C1E02230310509F0C0E088231D
:100E500009F456C020915D0330915E0340915F0319
:100E600050916003C701B6010E94462487FD14C05B
:100E700020915D0330915E0340915F0350916003C8
:100E8000609148037091490380914A0390914B030C
:100E90000E94E12387FD22C020915D0330915E0313
:100EA00040915F0350916003C701B6010E94462440
:100EB000181634F520915D0330915E0340915F0375
:100EC00050916003609148037091490380914A03F7
:100ED00090914B030E94E123811112C08091550330
:100EE00090915603A0915703B0915803892B8A2BF8
:100EF0008B2B19F481E08093440381E080934303BA
:100F0000CC2309F456C020915D0330915E034091DB
:100F10005F0350916003C701B6010E94E12387FF80
:100F200014C020915D0330915E0340915F035091A6
:100F30006003609148037091490380914A03909146
:100F40004B030E94462487FF22C020915D0330910D
:100F50005E0340915F0350916003C701B6010E9498
:100F6000E123811126C020915D0330915E03409101
:100F70005F03509160036091480370914903809131
:100F80004A0390914B030E944624181694F48091D2
:100F9000550390915603A0915703B0915803892BA4
:100FA0008A2B8B2B19F481E08093440381E080939A
:100FB000430381E090914303911180E080934703C4
:100FC000C0924803D0924903E0924A03F0924B0347
:100FD000012B09F067C180914C0390914D03892B3F
:100FE000D9F4109252031092430380910A0288238D
:100FF00079F082E090E090934D0380934C0310923F
:101000000A02209150033091510381E0232BE9F033
:1010100080E01BC081E00ACF10920A028091520347
:10102000882349F01092440310924D0310924C0310
:1010300010925203EDCF8091500390915103892B70
:10104000E1F0809143031092430320914C033091CF
:101050004D032230310509F45EC088F421153105B5
:1010600009F448C02130310509F4F3C0109244035B
:10107000109243031092520338C081E0E6CF233030
:10108000310509F4B1C02430310581F740913F03A7
:101090005091400360914103709142034115510505
:1010A0006105710561F04150510961097109409371
:1010B0003F03509340036093410370934203409178
:1010C0003F03509140036091410370914203452BCF
:1010D000462B472BD9F420914E0330914F032130FA
:1010E000310509F046C01092440310924D0310924E
:1010F0004C030CC080910A02882341F082E090E00A
:1011000090934D0380934C0310920A0210923D037A
:1011100080914403CEC08823C9F3809155039091F8
:101120005603A0915703B0915803181619061A06D2
:101130001B060CF07DC080915003909151030197E4
:1011400009F076C08091550390915603A091570302
:10115000B091580380933F0390934003A0934103C1
:10116000B093420383E090E090934D0380934C034F
:10117000CDCF4091590350915A0360915B03709118
:101180005C03452B462B472BA9F01092440380911A
:10119000590390915A03A0915B03B0915C03809333
:1011A0003F0390934003A0934103B093420381E037
:1011B00090E0DACF882399F080910B0290910C0295
:1011C000A0910D02B0910E0280933F0390934003D3
:1011D000A0934103B093420384E090E0C5CF109206
:1011E000440382E090E0C0CF80913F0390914003A0
:1011F000A0914103B09142030097A105B10559F0B8
:101200000197A109B10980933F0390934003A093F4
:101210004103B093420380913F0390914003A0911A
:101220004103B0914203892B8A2B8B2B09F06ECF9F
:1012300080910B0290910C02A0910D02B0910E02D0
:10124000892B8A2B8B2B09F44ECF81E080934403AA
:10125000B3CF40913F03509140036091410370919F
:101260004203411551056105710561F04150510975
:101270006109710940933F03509340036093410318
:101280007093420340913F035091400360914103AA
:1012900070914203452B462B472B09F037CF811124
:1012A000C7CF9FCF80913D03882309F431CF809130
:1012B0003E03CF911F910F91FF90EF90DF90CF9061
:1012C0000895109248031092490310924A03109215
:1012D0004B031092470310924D0310924C0310924F
:1012E0004603109245031092670310926603109212
:1012F00044031092430310923F0310924003109254
:1013000041031092420310923E0310923D0310924B
:1013100062031092630310926403109265031092AB
:10132000610310925D0310925E0310925F031092AE
:10133000600388EE93E0A0E0B0E080930B0290930E
:101340000C02A0930D02B0930E021092590310925A
:101350005A0310925B0310925C0310925503109293
:101360005603109257031092580310925403109290
:10137000530381E080930A021092520310925103AA
:101380001092500310924F0310924E0390E080E0B1
:1013900008958091500390915103892B19F5809104
:1013A0000A02882351F080915203811106C081E026
:1013B00080933E0380933D03089520915203309122
:1013C0000A0281E090E0332311F090E080E030E009
:1013D00082239323892B21F010923E0381E0EACFF0
:1013E00010923D03089582E090E0FA01918380839A
:1013F0008FEF9FEF0895CF93DF93EA01009711F0ED
:101400000E948C1C1982188290E080E0DF91CF91BD
:101410000895DB01009719F48FEF8C9308952EEF58
:101420002C93FC013F96EF30F10508F034C088277B
:10143000E35EF54F8F4F0C94312A490A470A450A5B
:10144000430A410A3D0A3F0A3B0A390A370A340A6D
:10145000300A2C0A320A4B0A80E311968C930895C5
:1014600089E2FBCF82E2F9CF11961C92089583E2C4
:10147000F4CF81E2F2CF81E1F0CF87E2EECF8AE2D2
:10148000ECCF80E1EACF84E2E8CF88E2E6CF86E2E3
:10149000E4CF81E3E2CF80E2E0CF809174039091CA
:1014A0007503089590937503809374030895809154
:1014B0007303089590917303892B809373030895A8
:1014C000982F9095809173038923809373030895D7
:1014D0008091720308958091700390917103089533
:1014E0006115710559F0FB0130E020E070E060E02B
:1014F0002417350719F06115710511F0CB01089516
:10150000A081B181A817B90709F4BF012F5F3F4F30
:101510003696EECF8091760381111CC060D266D2E0
:1015200090936903809368030E948A140E949C141C
:1015300090936D0380936C030E9419190E942019E7
:1015400090936B0380936A0381E08093760390E02D
:1015500080E0089584EF9FEF08958F929F92AF925D
:10156000BF92CF92DF92EF92FF920F931F93CF9390
:10157000DF9300D000D000D01F92CDB7DEB71A861F
:10158000198618861F821E821D821C821B821A8267
:1015900019828091760307EF1FEF882309F49CC01E
:1015A0008E010D5F1F4F9E012B5F3F4FAE01495FC4
:1015B0005F4FBE01675F7F4F90E080E00E949D1A01
:1015C0008C01009721F00596029708F0DBC0298571
:1015D0003A852115310509F402C1ED80FE804B8169
:1015E0005C81B701640F751F8F81988586179707F7
:1015F00008F4F5C0E20EF31ED7019C91903C09F06F
:101600007FC04230510508F47BC011968C91409107
:10161000740350917503452B09F49CC0913F08F069
:1016200071C02CE1290F2D3008F48BC02DE2290F59
:10163000203108F489C0903C21F48150823008F4B4
:1016400083C088E3890F8B3008F481C099E0C92EEC
:101650009AE0D92EE3EFF9E06D817E81AE014F5F14
:101660005F4F89859A8519955C01C114D104A1F158
:1016700089809A808114910479F18B819C818815ED
:10168000990508F487C010E000E04B815C8170E0B0
:1016900060E0C7010E945B2A01151105E9F4498148
:1016A0005A8169857A858D819E81680F791FC50170
:1016B000F6011995E980FA800D811E812F81388508
:1016C00049855A856FEF7FEF81E090E00E94381ADC
:1016D0008C01892B09F056C0C8012A960FB6F894E0
:1016E000DEBF0FBECDBFDF91CF911F910F91FF9055
:1016F000EF90DF90CF90BF90AF909F908F90089524
:1017000080E085CF30E020E0220F331FF901E85957
:10171000FC4F0190F081E02D309709F497CF892F8D
:1017200090E01995009709F491CFDC011296ED91A4
:10173000FC9113971496CD90DC90309709F08CCFE4
:101740001FC021E030E0E0CF22E030E0DDCF23E039
:1017500030E0DACFD12CC12CEBEFF9E09F3F09F05C
:101760007BCFE0916803F0916903309721F4C901C0
:1017700004EF1FEF0CC08FEF90E019950097A9F6CA
:1017800004EF1FEF89859A85009709F4A5CF0E9481
:101790008C1CA2CF0E94671B8C0189859A850E94B0
:1017A0008C1C70E060E0C4010E94001B98878F834E
:1017B0000E94351A9E838D836F817885611571052E
:1017C00059F0C8010E94181E9A87898706EF1FEFFB
:1017D000892B09F058CF59CF08EF1FEF56CF08EFEC
:1017E0001FEFD0CF20917603222319F020E00C9434
:1017F000A11487EF9FEF0895809174039091750372
:1018000008950E9425190E947F18F5D0E8E6F3E0BC
:1018100088E0DF011D928A95E9F71092760390E047
:1018200080E008950C94DD1621E040E050E0BA011C
:101830000C94A11486E090E0FA019183808390E0FB
:1018400080E0089547E050E063E372E049CEDF9224
:10185000EF92FF920F931F93CF93DF938A01EC01D6
:10186000C60FD71FE0907A03F0907B03D9800E94C7
:101870004F1BD816190678F082E090E0F8019183AA
:1018800080838EEF9FEFDF91CF911F910F91FF909B
:10189000EF90DF900895EF2841F482E090E0F801A6
:1018A0009183808384EF9FEFEECF898180937903CA
:1018B00090E00196F8019183808390E080E0E3CF8F
:1018C000CF93DF93EA010E948E17882321F00E94B4
:1018D0005C1B0E948F1782E090E0998388838BEFD6
:1018E0009FEFDF91CF910895CF93DF93EB0186E0D7
:1018F000FB0111928A95E9F78FEF8883D8DD898300
:10190000E7DD8A83E8DD9D838C83DF91CF910895A5
:10191000CF93DF93EA010E949117811109C082E001
:1019200090E09983888385EF9FEFDF91CF910895B1
:1019300090E080E0B7DD81E090E09983888390E0DB
:1019400080E0F3CF0F931F93CF93DF93EA018C01D5
:10195000060F171F0E94911781110BC082E090E0C3
:101960009983888385EF9FEFDF91CF911F910F912E
:101970000895F8018181823038F082E090E0998307
:1019800088838EEF9FEFF0CF81E090E08BDD88E0E1
:1019900090E09983888390E080E0E6CFCF93DF9357
:1019A0000097D1F4EB01FB01329686E0DF011D9236
:1019B0008A95E9F78FEF888385E089831A820E94F0
:1019C0004F1B8B830E944E1B9D838C8381E08E83F3
:1019D0008F83DF91CF910895DF91CF911ACD82E26D
:1019E0009CE0909378038093770308958091770328
:1019F00090917803089510927803109277030895D8
:101A000080917A0390917B030895411105C061157F
:101A100071058105910561F060937A0370937B03F2
:101A200080937C0390937D0340937E0381E008952F
:101A300080E00895FF920F931F93CF93DF938A0165
:101A4000EC01C60FD71FF9800E944F1BF81619062C
:101A500068F082E090E0F801918380838EEF9FEF41
:101A6000DF91CF911F910F91FF9008956C817D813F
:101A70008E819F814B81C9DF811108C082E090E097
:101A8000F8019183808384EF9FEFEACF898180936F
:101A9000790390E00196F8019183808390E080E0E3
:101AA000DFCFCF93DF93EA01FC01E60FF71F6481DC
:101AB0007581868197814381A8DF811109C082E009
:101AC00090E09983888384EF9FEFDF91CF91089511
:101AD00081E090E09983888390E080E0F6CFEAE7A8
:101AE000F3E04081518162817381480F511D611D76
:101AF000711D40835183628373830895CF93C09196
:101B000079034C2F50E060917A0370917B0301962A
:101B10000E94522A8C2FE3DF10927903CF9108950F
:101B2000009799F480917A0390917B032FEFFB014A
:101B30002083892B59F02091790330E02F5F3F4FAC
:101B40002417350719F4CB01D9CF63CC089500973A
:101B500099F480917A0390917B032FEFFB0120830E
:101B6000892B59F02091790330E02F5F3F4F2417E4
:101B7000350719F4CB01C2CF4CCC089523E1AC0159
:101B8000249FC001259F900D1124E0918303F091C3
:101B90008403E80FF91F238134812250310981E049
:101BA0002230310508F080E008950F931F93CF9302
:101BB000DF930091850310918603D0E0C0E080E0C0
:101BC0000C171D0749F491E0811190E0892FDF91F6
:101BD000CF911F910F9108958111F5CFCE01CEDFE6
:101BE0002196EECFA0918303B0918403109729F141
:101BF000209185033091860382179307F0F453E117
:101C0000589F9001599F300D1124A20FB31FED91E1
:101C1000FC911197309789F012968C91681768F4AF
:101C20008DE0689FE00DF11D112480819181892B49
:101C300021F081E09281491708F080E008959C012D
:101C400043E1429FC001439F900D1124E091830323
:101C5000F0918403E80FF91F8385823091F481E0CD
:101C600090E06581768140910F02509110026417D7
:101C7000750711F490E080E0892B19F081E0232BA7
:101C800009F080E00895FC01A081B1818DE0689F9A
:101C9000A00DB11D112413964D915C9185859685FB
:101CA000489F9001499F300D589F300D1124C90164
:101CB0000196611103C0478144FD04960895EF9297
:101CC000FF920F931F93CF93DF93EA01FC01E60F7E
:101CD000F71F02811381E480F5804F2D6E2DC8011E
:101CE00081DF81110DC082E090E0998388838EEFBF
:101CF0009FEFDF91CF911F910F91FF90EF9008958B
:101D0000C8013CDF882339F082E090E09983888322
:101D100088EF9FEFEECF1093160200931502E0922A
:101D20001702F092180281E090E09983888390E096
:101D300080E0DFCFCF92DF92EF92FF920F931F935D
:101D4000CF93DF937A01EC01C60FD71FC090150225
:101D5000D09016020091170210911802412F602FA7
:101D6000C60140DF811110C082E090E0F70191834D
:101D700080838AEF9FEFDF91CF911F910F91FF90AA
:101D8000EF90DF90CF900895C601F8DE882341F0F0
:101D900082E090E0F7019183808388EF9FEFEBCFA3
:101DA0004C815D816E817F819A8189818F3F41F075
:101DB00082E090E0F701918380838EEF9FEFDBCF8D
:101DC000E3E1EC9D9001ED9D300D1124E091830342
:101DD000F0918403E20FF31F0190F081E02D2DE0DC
:101DE000029FE00DF11D11240190F081E02D27E00C
:101DF000129FE00DF11D1124808391838B818283DA
:101E000043835483658376831F5F1093180281E0B8
:101E100090E0F7019183808390E080E0ACCFEF9277
:101E2000FF920F931F93CF93DF937A018C01060FDC
:101E3000171FC0918303D0918403209781F021E084
:101E400030E0F801828193814091850350918603AF
:101E50008417950710F030E020E0232B71F482E026
:101E600090E0F701918380838EEF9FEFDF91CF9118
:101E70001F910F91FF90EF90089543E1489F9001CB
:101E8000499F300D1124C20FD31F78DE882341F003
:101E900082E090E0F7019183808388EF9FEFE6CFA7
:101EA000F8012481358120383105C8F687818111F8
:101EB000D6CF4181842F90E08F7E009741F082E061
:101EC00090E0F7019183808386EF9FEFCFCF4F8320
:101ED0003E832D83268128871986223010F421E045
:101EE000288721E030E0F70131832083BFCF88E0ED
:101EF00090E0FA019183808390E080E00895FB01F7
:101F00008FEF808381E181838FEF9FEF93838283C3
:101F100080E890E095838483168217820895FB0100
:101F20008FEF808391E0918382839383848384E322
:101F3000858381E090E0978386830895DF92EF9216
:101F4000FF920F931F93CF93DF93EA01FC01E60FFB
:101F5000F71F8181813071F082E090E0998388835E
:101F60008FEF9FEFDF91CF911F910F91FF90EF9037
:101F7000DF90089582819381D4802581E680F78067
:101F800000918303109184030115110539F482E057
:101F900090E0998388838CEF9FEFE4CF4091850395
:101FA000509186038417950738F082E090E099837A
:101FB00088838EEF9FEFD6CF892B39F082E090E0B7
:101FC0009983888386EF9FEFCDCF8D2D8D7FB1F7DD
:101FD0002130A1F781E0D11006C091E0E916F104AB
:101FE00031F080E004C0E2E0EE16F104D0F3882383
:101FF00029F390E080E0C2DD882339F082E090E0B0
:102000009983888388EF9FEFADCFF801D38681E075
:102010008487F686E586108A178681E090E09983AA
:10202000888390E080E09ECF4CE050E06DE572E068
:1020300057CA8F929F92BF92CF92DF92EF92FF92F8
:102040000F931F93CF93DF93EA01FC01E60FF71F75
:10205000828193810481B580E0918303F0918403B0
:10206000309791F482E090E0998388838CEF9FEF22
:10207000DF91CF911F910F91FF90EF90DF90CF9064
:10208000BF909F908F900895209185033091860393
:102090008217930738F082E090E0998388838EEF6F
:1020A0009FEFE6CF23E1289F6001299FD00C1124E8
:1020B000EC0DFD1DE080F180E114F10499F28281C4
:1020C000081748F78DE0089F80011124E00EF11EEB
:1020D000F70180819181892B29F6BB20E1F2F7E09D
:1020E000BF9E40011124C4010E94531CF70191833B
:1020F0008083E0918303F0918403EC0DFD1D01903A
:10210000F081E02DE00FF11F80819181009739F47B
:1021100082E090E0998388838DEF9FEFA9CFA4019F
:1021200070E060E00E945B2A8091830390918403B9
:10213000C80ED91EF60180819181080F191FF80180
:10214000B28281E090E09983888390E080E090CF34
:10215000AF92BF92CF92DF92FF920F931F93CF93D4
:10216000DF93EA01FC01E60FF71F82819381F4807F
:1021700000918303109184030115110581F482E01D
:1021800090E0998388838CEF9FEFDF91CF911F912F
:102190000F91FF90DF90CF90BF90AF900895209166
:1021A0008503309186038217930738F082E090E030
:1021B000998388838EEF9FEFE8CF2FEF2F0D2C3F71
:1021C000A8F723E1289F6001299FD00C11240C0D52
:1021D0001D1DF80180819181892B89F6FDE0FF9E0C
:1021E00050011124C5010E94531CF8019183808382
:1021F000E0918303F0918403EC0DFD1D80819181BA
:10220000009739F482E090E0998388838DEF9FEF07
:10221000BCCFA50170E060E00E945B2AE0918303DF
:10222000F0918403EC0DFD1DF28281E090E0998332
:10223000888390E080E0A9CFCF92DF92EF92FF9267
:102240000F931F93CF93DF93860F971FFC0102819B
:1022500013818091830390918403892B81F082E024
:1022600090E0FA01918380838CEF9FEFDF91CF9113
:102270001F910F91FF90EF90DF90CF900895C801CC
:10228000B0E0A0E00197A109B1098F3F9F4FA105E0
:10229000B10540F082E090E0FA01918380838EEFF7
:1022A0009FEFE4CF7A0183E1809F6001819FD00C92
:1022B0001124C6010E94531CEC01009741F482E0F6
:1022C00090E0F701918380838DEF9FEFCFCFA60140
:1022D00070E060E00E945B2AD0938403C093830384
:1022E000109386030093850390E080E02FEF3FEF8B
:1022F00041E061E070E08017910741F481E090E0F7
:10230000F7019183808390E080E0B0CF3A8B298BF6
:102310001B864C877E876D87188A1F860196639679
:10232000EACFEF92FF921F93CF93DF93EC0110E07F
:10233000F12CE12C6A811617B0F083E0689FB001A0
:102340001124AE014F5E5F4FC7010E94B81C009779
:1023500021F02FEF3FEF3A8B298BDF91CF911F9127
:10236000FF90EF900895612FCE018DDC61E070E069
:102370000E94001BE816F90608F47C011F5FDACF03
:10238000F894209181033091820381E02115310579
:1023900009F080E0232B09F0789408952F923F9262
:1023A0004F925F926F927F928F929F92AF92BF9265
:1023B000CF92DF92EF92FF920F931F93CF93DF9311
:1023C0003C01660E771EF301828193814C01B12C92
:1023D000A12CC0918303D0918403209769F021E060
:1023E00030E060918503709186038617970710F09F
:1023F00030E020E0232BD1F482E090E0FA019183D9
:1024000080838EEF9FEFDF91CF911F910F91FF900F
:10241000EF90DF90CF90BF90AF909F908F907F9084
:102420006F905F904F903F902F9008958092190287
:1024300090921A02A0921B02B0921C0263E1689F64
:102440009001699F300D1124C20FD31FF3018181C8
:10245000833040F082E090E0FA019183808386EF40
:102460009FEFD1CF2A012B813C81232BF1F42881CE
:1024700039819F8191FF2EC0232B09F46FC02091D9
:1024800088039A81422F490F5527551FBA0141E011
:1024900050E06138710514F050E040E0452B09F43C
:1024A0005DC02A87920F909388038150823008F490
:1024B00081C066DF882309F4D8C0F30181818130AF
:1024C00009F48DC008F47BC0823009F4C6C090E0E6
:1024D00080E0ADC0232B09F441C0209187039A818D
:1024E000E22FE90FFF27FF1F41E050E0ED3FF1052C
:1024F00014F050E040E0452B89F12A87920F909329
:102500008703D3CFA081B181A20FB31F11966C9125
:10251000060F111D0196295F3F4F8417950794F30D
:102520008D859E85089F1001099F300C189F300CE7
:102530001124C114D104D1F48F8184FF17C00E94EB
:102540004E1BF5E02F0E311C21E08215930508F497
:1025500020E0A701435F5F4F21110EC082E090E0B1
:10256000F2019183808387EF9FEF4DCF0E944E1B36
:102570002FEF221A320AE8CF88819981E80EF91EDE
:10258000F70114830383FFEFCF1ADF0A7A018A81F0
:102590008C151D0409F00CF48CCFE881F981EE0D47
:1025A000FF1D428150E030E020E010E000E090E0CC
:1025B00080E0B3CFF12CE12CD12CC12CE8CF81E00D
:1025C00090E09C838B83F1DA882309F480CF81E04B
:1025D00090E00E94520A80E40E94600A78CF8989C4
:1025E0009A89019661F083E090E09C838B8382E07E
:1025F00090E00E94520A80E40E945A0A68CF8D81BE
:102600009E8120910F023091100282179307D1F41E
:102610006091130270911402AE014F5E5F4F809182
:102620001102909112020E94D71D0097E1F2789456
:1026300022E030E0F20131832083892B99F08DEF85
:102640009FEFE1CE89288A288B2869F6892B59F6D5
:10265000CE0167DE188A1F86E8CF82E090E09C8377
:102660008B8335CF90E080E0CECE82E090E0F20127
:102670009183808385EF9FEFC6CE8F929F92AF921A
:10268000BF92CF92DF92EF92FF920F931F93CF935F
:10269000DF93EA018C01060F171FF8018181833057
:1026A00098F082E090E09983888386EF9FEFDF9136
:1026B000CF911F910F91FF90EF90DF90CF90BF903F
:1026C000AF909F908F9008958091830390918403A1
:1026D000892B61F081E090E02091850330918603A1
:1026E000232B11F490E080E0892B39F482E090E014
:1026F000998388838EEF9FEFDACF42DE882309F437
:10270000DFC0F8018181813009F495C0E8F08230A2
:1027100099F42091850330918603E0918303F09131
:10272000840390E080E041E050E02817390709F089
:10273000BDC03BDA811117C0789481E090E09983A5
:10274000888390E080E0B3CF2091850330918603A9
:10275000E0918303F091840390E080E041E050E059
:102760002817390741F481E090E00E94520A80E482
:102770000E94600AE1CF63817481672B11F054835A
:10278000438301967396ECCFE0918303F091840329
:10279000E00FF11F2381348122303105D9F42189E2
:1027A00032892F3F3F4FB1F42581368140910F028E
:1027B000509110022417350761F5AF014F5E5F4F4E
:1027C0006091130270911402809111029091120293
:1027D0000E94D71DEFEFCE1ADE0AEE0AFE0A0D5E4A
:1027E0001F4F409185035091860370E060E0C4164E
:1027F000D506E606F7063CF5009731F27894892B6A
:1028000009F49BCF82E090E0998388838DEF9FEF5E
:102810004ECFC114D104E104F104E1F6232BD1F62B
:10282000CF017FDDE0918303F0918403E00FF11F7E
:10283000108A1786CFCF10E000E090E080E0C12C36
:10284000D12C7601CECF0097C9F610E000E0812CA4
:10285000912C540183E0E82EF12C1AC0E0918303FF
:10286000F0918403E00FF11F83819481029749F472
:10287000F482E38282E090E00E94520A80E40E94A7
:102880005A0AFFEF8F1A9F0AAF0ABF0A0D5E1F4F49
:102890008091850390918603B0E0A0E088169906A8
:1028A000AA06BB06DCF290E080E0A8CF63817481C9
:1028B0006230710511F4548343830196739635CFCA
:1028C00082E090E09983888385EF9FEFF0CE0097B8
:1028D000B9F48FEFFB0180832091190230911A0225
:1028E00043E1429FC001439F900D1124E091830377
:1028F000F0918403E80FF91F8285FB01818308951D
:102900000C94090A88E090E0FA019183808390E0BA
:1029100080E008951092820310928103E3E8F3E0CF
:1029200086E0DF011D928A95E9F784E190E19093BA
:10293000800380937F03089580917F0390918003AB
:1029400008952F923F924F925F926F927F928F9253
:102950009F92AF92BF92CF92DF92EF92FF920F932E
:102960001F93CF93DF93CDB7DEB72F970FB6F894B1
:10297000DEBF0FBECDBFF894E0918103F0918203DA
:102980003196F0938203E09381037894409083031F
:10299000509084034114510409F40CC2E091850362
:1029A000F0918603EF2B09F405C22D8749875A87DA
:1029B0006B877C8798878F831201B12CA12C10E044
:1029C00000E08091850390918603A816B90618F45B
:1029D0000115110529F1F8948091810390918203EA
:1029E000019790938203809381037894C8012F9676
:1029F0000FB6F894DEBF0FBECDBFDF91CF911F9110
:102A00000F91FF90EF90DF90CF90BF90AF909F908D
:102A10008F907F906F905F904F903F902F90089590
:102A20007101E418F508D10117968C91179781FD73
:102A300054C013968D919C911497039709F04DC043
:102A400015968D919C91EF81F8858E179F0709F05F
:102A500044C0B50190E080E07FD48A832091830355
:102A6000309184033D832C833D85332309F44CC08E
:102A70004C815D81452B09F49AC180918503909129
:102A80008603A816B90608F092C1C501D8D88823D4
:102A9000E9F06C817D816E0D7F1D7D836C83DB0190
:102AA0001F968D919C91892B89F0D12CC12CF12CF2
:102AB000E12CAC81BD8112968C9112978E151F046A
:102AC00009F094F450961C921E921F972A8122239B
:102AD00021F0B50190E080E041D43FEFA31AB30AA2
:102AE00043E1240E311C6DCFAC81BD81ED91FC9191
:102AF000EC0DFD1D858196810FD7BFEFEB1AFB0A08
:102B0000EDE0CE0ED11CD5CFEC81FD81309709F4DC
:102B10004EC18091850390918603A816B90608F0EE
:102B200046C1EE0DFF1DFF87EE87C50188D88B8358
:102B3000882339F1AE85BF851F968D919C91509762
:102B4000019621E01D964D915C918417950709F03F
:102B500020E02E831982712C10E000E0AE85BF8545
:102B600012968C91781608F45DC0EE85FF858785F6
:102B700090890196658576850E94FB29908B8787D1
:102B8000A5CFB1E0BE83E6CF992493946BC08BD6DA
:102B9000F6019683858382C0D601ED90FC90B7E064
:102BA0006B9EE00CF11C1124F7016381748180811C
:102BB0008F3F61F121E030E002C0220F331F8A9580
:102BC000E2F7C901092E000CAA0BBB0BFB014081E7
:102BD00051816281738184239523A623B72321E049
:102BE000892B8A2B8B2B09F420E0D4012C93D7015D
:102BF00011968C91F60123853485820F932F911DB8
:102C0000880E991E1486138663949BC0418150E000
:102C1000C4010E94522AEBCF998206EF1FEFC5C074
:102C20001982C3C0F981F111A0CFEDE07E9E700141
:102C30001124AE85BF85CD90DC90CE0CDF1C15D461
:102C40009D838C83BB81BB2309F49ECF81E0EE85FD
:102C5000FF8527853089232B09F080E0982E882373
:102C600009F458C0672D8E859F850DD8D60118961A
:102C70009C938E93179761E070E0C2D4EE85FF8538
:102C8000218932892F3F320709F481CFBC01C90164
:102C9000CFD7D60116969C938E931597D60115968D
:102CA0008D919C911697009709F4B6CFEC81FD8128
:102CB0008E0F9F1F1A969C938E931997AE85BF8592
:102CC000ED91FC911197EE0EFF1EF70121853285E3
:102CD000148613861A968C91870DD9018D937110E5
:102CE00016C0EE85FF85878184FF11C049855A850E
:102CF0006B857C85F9014183528363837483F7017B
:102D0000838594850496A80FB91F14861386F7014E
:102D1000B287A187D60115968D919C911697892B24
:102D200009F443C0EE85FF852581368180910F022D
:102D3000909110022817390779F019968D909C9080
:102D4000612CD60112968C911297681608F424CF44
:102D50001A969C928E921997BE81BB2309F460CF7C
:102D600061E070E0F601878190854AD4D60117961C
:102D7000ED90FC90189715964D915C91E1E0F0E094
:102D8000BA81BB2311F0F0E0E0E00C811D819C01D1
:102D9000B501882799278E1B9F0B6AD38C01892B3D
:102DA00021F0F60185819681B7D57394D7CE0FEFC8
:102DB0001FEF8CCE10E000E00ECE2F923F924F928C
:102DC0005F926F927F928F929F92AF92BF92CF92BB
:102DD000DF92EF92FF920F931F93CF93DF93809137
:102DE00083039091840310E000E0892BA9F0C8DAF6
:102DF0000AEF1FEF882381F020908503309086032F
:102E0000C0918303D0918403D12CC12C10E000E049
:102E10002C143D04A9F47894C801DF91CF911F913F
:102E20000F91FF90EF90DF90CF90BF90AF909F9069
:102E30008F907F906F905F904F903F902F9008956C
:102E4000C6010E941F0E882309F18B819C81039784
:102E5000E9F48F859889892BC9F0B60190E080E06C
:102E60007BD221E030E0882311F030E020E04424E0
:102E70005524421A530AB12CA12C912C812C8A8101
:102E80008815190409F038F4188A1F864FEFC41A00
:102E9000D40A6396BDCFE881F981EA0DFB1D8581D7
:102EA0009681892BA1F161E070E087819085A8D39C
:102EB0003C01DBD28C01E881F981EA0DFB1D8185A3
:102EC000928525813681200F311FAC01421B530BA7
:102ED0009A0147815085421B530B70E060E00E94CD
:102EE0005B2AE881F981EA0DFB1DE780F0844581CA
:102EF00056819301B601C201BBD28C01892B39F0F6
:102F0000E881F981EA0DFB1D8581968105D55FEF8A
:102F1000851A950A8DE0A80EB11CB1CF31CA7894FC
:102F200008952F923F924F925F926F927F929F925D
:102F3000AF92BF92CF92DF92EF92FF920F931F93C7
:102F4000CF93DF9300D000D0CDB7DEB700918303DD
:102F500010918403992493940115110509F43EC03E
:102F6000A0908503B09086030BDA982E8823B1F1E8
:102F700010928403109283031092860310928503AB
:102F800010928703109288038FEF9FEFDC018093EC
:102F9000190290931A02A0931B02B0931C0278941A
:102FA0007FD31E830D83C12CD12C7601C501B0E0E7
:102FB000A0E089839A83AB83BC8322242A94322C99
:102FC00089819A81AB81BC81C816D906EA06FB06C5
:102FD000F4F0C801A1D480E40E94600A892D2696ED
:102FE0000FB6F894DEBF0FBECDBFDF91CF911F911A
:102FF0000F91FF90EF90DF90CF90BF90AF909F9098
:103000007F906F905F904F903F902F900895AD818B
:10301000BE8115968D919C91169720910F0230914B
:10302000100282179307D1F451968D919C91EED5A1
:10303000ED81FE8180819181B12CA12C412C512CFC
:103040003201892B89F5BFEFCB1ADB0AEB0AFB0AA9
:10305000ED81FE817396FE83ED83B2CFC114D1045E
:10306000E104F10429F7892B19F7ED81FE818189AB
:1030700092898F3F980709F029D5AD81BE8152967C
:103080003C922E925197D4CF8A0D9B1DDC018D91DD
:103090009C91009709F040D4BFEF4B1A5B0A6B0A72
:1030A0007B0AEDE0AE0EB11CAD81BE818D919C918D
:1030B000119712964C9150E070E060E0441655066E
:1030C000660677060CF328D4BECFCF93DF93EA01D0
:1030D00028DF811109C082E090E09983888385EF21
:1030E0009FEFDF91CF91089581E090E00E94520A16
:1030F00081E090E09983888390E080E0F2CF11DF57
:103100001092800310927F03089542E050E065EA38
:1031100072E00C94700AFF920F931F93CF93DF938A
:103120008A01EC01C60FD71FF980B9D20897F816AB
:10313000190671F068F082E090E0F80191838083D5
:103140008EEF9FEFDF91CF911F910F91FF90089528
:103150006C817D818E819F814B810E94050D811143
:1031600008C082E090E0F8019183808384EF9FEFB4
:10317000E9CFF9800E94000D4F2D50E0BE01685F3D
:103180007F4F0E94522A89810E946F0D81E090E05A
:10319000F8019183808390E080E0D4CFDF92EF92BA
:1031A000FF920F931F93CF93DF938A01EC01C60F19
:1031B000D71F0E94000D7C01D98071D2DD2059F00B
:1031C000029721E030E0D816190619F010F030E02F
:1031D00020E0232B79F482E090E0F8019183808352
:1031E0008EEF9FEFDF91CF911F910F91FF90EF90A6
:1031F000DF900895EF2841F482E090E0F801918398
:10320000808384EF9FEFEECFF9800E94000D4F2D59
:1032100050E0BE016E5F7F4F0E94522A89810E945A
:103220006F0D81E090E0F8019183808390E080E071
:10323000D9CF85E898E190938A0380938903089514
:103240008091890390918A0308950895FC01118269
:103250001082938382830895DB011D921C92DC010E
:103260001296ED91FC9113977183608313967C9372
:103270006E9312970895FC0180819181DB018D93FB
:103280009C93A081B181109741F08D919C91918385
:103290008083892B11F4F383E2830895FC018081FC
:1032A0009181DB018D939C93892B11F4738362834D
:1032B000718360830895FC0111821082938382835D
:1032C0000895CF93DF931F921F92CDB7DEB71A8276
:1032D0001982F894BE016F5F7F4F80E993E0CBDFE6
:1032E00089819A81009709F017D389819A81892B66
:1032F00089F7BE016F5F7F4F84E993E0BCDF89816E
:103300009A81009709F008D389819A81892B89F7DE
:1033100078940F900F90DF91CF910895CF93DF9322
:103320001F921F92CDB7DEB71A821982F894BE01A0
:103330006F5F7F4F8CE893E09EDF89819A810097D1
:1033400009F0EAD289819A81892B89F778940F90C4
:103350000F90DF91CF91089581E0089590E080E093
:103360000895EF92FF920F931F93CF93DF931F92D5
:103370001F92CDB7DEB71A82198280918B0307EFB7
:103380001FEF8823A1F1F894BE016F5F7F4F84E99E
:1033900093E071DF789489819A81EE24E394F12C93
:1033A000892B51F4F894BE016F5F7F4F80E993E061
:1033B00062DF7894F12CE12C89819A810EEF1FEF66
:1033C0000097A9F0FC014281538164E070E074D65B
:1033D0008C01892B61F0F89469817A81C701880F8B
:1033E000991F880F991F80579C4F58DF7894C80108
:1033F0000F900F90DF91CF911F910F91FF90EF9061
:1034000008950F931F93CF93DF9300D01F92CDB7F2
:10341000DEB71C821B821A82198280918B0307EF10
:103420001FEF8823C1F0AE014D5F5F4F64E070E095
:10343000CE010196B4D68C01892B69F4E981FA8119
:103440008B819C8193838283F89469817A818CE853
:1034500093E002DF7894C8010F900F900F900F90C7
:10346000DF91CF911F910F910895B9D704960895D8
:103470008F929F92AF92BF92CF92DF92EF92FF9284
:103480000F931F93CF93DF931F921F92CDB7DEB799
:103490001A821982BC016F5F7F4F6330710598F00B
:1034A000AA24AA94BA2CC5010F900F90DF91CF9156
:1034B0001F910F91FF90EF90DF90CF90BF90AF9052
:1034C0009F908F9008954115510551F3480159017E
:1034D0008A016C01CADF8815990511F7E114F1041E
:1034E000F9F28E0D9F1DA816B906D0F280918B03BC
:1034F0008823F1F0F894B501645071099701AE0189
:103500004F5F5F4FC8010496DFD65C01892B71F4D1
:1035100089819A81F80193838283C601880F991F5C
:10352000880F991FB80180579C4F96DE7894BBCFC7
:1035300087EFA82EBB24BA94B6CFAF92BF92CF929A
:10354000DF92EF92FF920F931F93CF93DF931F921F
:103550001F92CDB7DEB71A821982892B09F047C0B6
:103560006115710509F443C04115510509F43FC0C7
:103570002115310509F43BC001151105C1F18091F8
:103580008B038823B9F179016A015B01F894BE01CC
:103590006F5F7F4F8CE893E06EDE789489819A812B
:1035A000009759F1DC0112966D917C91A801049667
:1035B000A4D68C01E981FA81D501ED93FC93828137
:1035C00093810496F601918380834FDFD7018D9319
:1035D0009C93C8010F900F90DF91CF911F910F9195
:1035E000FF90EF90DF90CF90BF90AF9008950FEFD6
:1035F0001FEFEFCF07EF1FEFECCF0EEF1FEFE9CF7D
:10360000CF93DF93EC01672B71F4F2D68C179D07F3
:1036100060F0E5D62496C80FD91FE4D68C0F9D1F05
:10362000DF91CF910895E1D6F1CF90E080E0F8CF1F
:103630000F931F93CF93DF9320918B0321112BC006
:103640008B01EC0180E993E001DE84E993E0FEDD8B
:103650008CE893E0FBDD97D00097C1F4C9D670E009
:1036600060E0CEDF4DE152E062E070E081D1009792
:1036700069F480911D0290911E02CCD6B801CE0152
:1036800001D5009719F421E020938B03DF91CF91AE
:103690001F910F91089584EF9FEFF8CFA6C6A8C69B
:1036A000CF93DF93A8D6EC01892B11F40ADE36DE26
:1036B000CE01DF91CF910895CF93DF939CD6EC019B
:1036C000892B09F4FEDDCE01DF91CF910895809121
:1036D0001D0290911E020895CF93DF9380918B037A
:1036E000D0E0C0E08823D1F09AD6EC01892BB1F468
:1036F000E8DD14DE80911D0290911E02E7D1E8D230
:10370000EC01892B59F480E993E0D5DD84E993E05D
:10371000D2DD8CE893E0CFDD10928B03CE01DF91F8
:10372000CF910895EF92FF920F931F93CF93DF9362
:10373000EC017A018B010F5F1F4F0E9DA0010F9DC1
:10374000500D1E9D500D112470E060E00E945B2A18
:1037500090E080E0F0E0E0E02FEFE816F90639F4C1
:10376000DF91CF911F910F91FF90EF9008951A82F2
:1037700019822883309711F0D283C1830196FE010C
:10378000C00FD11FEACFCF92DF92EF92FF920F933B
:103790001F93CF93DF930DE914E00C7F43E050E0DB
:1037A0006FE172E085E292E01AD48FE1E82E82E0C8
:1037B000F82E95E2C92E92E0D92EC4E0D5E0D701CB
:1037C0004D915D917D01F601619171916F011983B8
:1037D00008835D834C835B834A837F836E839B0175
:1037E0002F5F3F4F249FC001259F900D349F900D68
:1037F0001124998788870115110511F0C80192DFFE
:1038000088859985080F191F2A96F5E2EF16F2E0D0
:10381000FF06A9F6EAE9F3E080E091E0DF019C0110
:103820001D9221503040E1F71092990310929803B5
:10383000109223051092220510922705109226055A
:103840001092250510922405109229051092280542
:1038500010922B0510922A0510922D0510922C051E
:10386000109231051092300510922F0510922E05FE
:1038700010923305109232051092350510923405DE
:103880001092010510920005109203051092020596
:1038900090E080E0DF91CF911F910F91FF90EF902A
:1038A000DF90CF9008950097F1F0F894A5E2B2E090
:1038B000E4E0F5E030E020E04D915D9148175907D4
:1038C000A8F0428153814115510581F08AE0829F21
:1038D000F001839FF00D1124EC5FFA4F80819181FC
:1038E000009759F4789490E080E008952F5F3F4F5F
:1038F0003A962330310501F7F5CFDC0111966D9131
:103900007C91718360834150510953834283FC0150
:103910002193CF0178940895009749F1DC018E91AD
:10392000853041F4E0910205F09103053097F9F0FC
:10393000CD0119948530D8F4282F30E0F8948FEF1A
:103940008C938AE0829FF001839FF00D1124EC5F3D
:10395000FA4F8081918112969C938E931197B18337
:10396000A0838281938101969383828378940895C2
:10397000CF92DF92EF92FF920F931F93CF93DF933B
:103980009C018DE993E08C7F4115510509F49BC0A2
:103990002115310509F497C06115710509F493C02B
:1039A0007A01AB01B9016D5F7F4F6C7F9B012F5F87
:1039B0003F4F249F8001259F100D349F100D11242F
:1039C000F8942091220530912305232B59F420915E
:1039D0002A0530912B052115310569F12017310792
:1039E00008F058C020912C0530912D05232B91F41F
:1039F00020912A0530912B05820F931F20913405C9
:103A0000309135052115310509F441C020173107E2
:103A100008F056C07894CFEFDFEF86EF9FEFF70105
:103A2000D183C083DF91CF911F910F91FF90EF90D1
:103A3000DF90CF900895C3E0D0E0C0909803D0907D
:103A400099032DEF30E02C193D092017310710F3B1
:103A50002AE02C9FF0012D9FF00D1124EC5FFA4F0E
:103A60009183808355834483538342837783668322
:103A700011870087009709F055DE0C0D1D1D10936E
:103A8000990300939803789490E080E0C8CFC4E055
:103A9000D0E0D3CFC3E0D0E02AE02C9FF0012D9FEF
:103AA000F00D1124EC5FFA4F91838083558344839A
:103AB0005383428377836683009729F333DEE3CF12
:103AC000C4E0D0E0E9CF8FEF9FEFACCF9C0103972C
:103AD000029708F069C0F89484E09AE0482F50E01B
:103AE000241735070CF44DC091E08AE0829FF00165
:103AF000839FF00D1124EC5FFA4F11821082158222
:103B0000148213821282178216829923B1F1809156
:103B1000220590912305892BA9F420912A05309143
:103B20002B052115310571F080919803909199032F
:103B3000821B930B909399038093980310922B050B
:103B400010922A0580912C0590912D05892BA9F4BE
:103B500020913405309135052115310571F08091A2
:103B6000980390919903821B930B909399038093F0
:103B700098031092350510923405789490E080E017
:103B80000895949FF001959FF00D1124EC5FFA4F7A
:103B900040815181452B31F440855185452B11F4ED
:103BA00081509CCF90E0A1CF8FEF9FEF08954115FA
:103BB000510549F1009739F16115710521F1F8942A
:103BC0002091000530910105232BB9F420910205C5
:103BD00030910305232B89F4909301058093000510
:103BE0007093030560930205789425E030E090E03F
:103BF00080E0FA0131832083089578942FEF3FEF1E
:103C000086EF9FEFF6CF8FEF9FEF0895059769F44A
:103C1000F89410920105109200051092030510927D
:103C20000205789490E080E008958FEF9FEF08956B
:103C30006115710519F4F0E0E0E011C085309105DF
:103C400081F4E0910005F09101053097A1F3CB01DB
:103C500001961995009779F3FC0185E08193CF01D6
:103C600008959C01235031092230310520F72AE0C4
:103C7000289FD001299FB00D1124AC5FBA4F2D9120
:103C80003C911197232BB9F216962D913C911797E1
:103C90002617370780F2F89412962D913C911397CE
:103CA0002115310529F0ED91FC911197309711F410
:103CB0007894C1CF4181528111965C934E932150EB
:103CC000310913963C932E93129781937894C7CF22
:103CD000EAE9F4E086E6DF011D928A95E9F7EAE970
:103CE000F3E080E091E0DF019C011D922150304023
:103CF000E1F71092990310929803E4E0F5E082E373
:103D0000DF011D928A95E9F7E0E0F5E084E0DF014C
:103D10001D928A95E9F790E080E00895CF93DF93B4
:103D2000C0912B02D0912C02CF3FDC0759F420D454
:103D300090932C0280932B0297FF09C0D0932C0202
:103D4000C0932B0284EF9FEFDF91CF91089590E015
:103D500080E0FACF8230910528F48093360590E018
:103D600080E008958FEF9FEF08954F925F926F92DA
:103D70007F92AF92BF92CF92DF92EF92FF920F931A
:103D80001F93CF93DF931F921F92CDB7DEB71A8296
:103D90001982009709F478C06115710509F474C09F
:103DA00020912B0230912C0207EF1FEF2F3F3F4F46
:103DB00009F444C06B015C01412C512C3201F12CFF
:103DC000E12C10E000E09E012F5F3F4FA6014E194D
:103DD0005F09B5016E0D7F1D80912B0290912C0221
:103DE00026D4892B09F04AC089819A81009741F431
:103DF000E114F10429F420913605222309F441C08D
:103E0000E80EF91EEC14FD04C8F480E8481684E8B6
:103E100058068EE16806710418F560E070E0CB0189
:103E20005CD62AE0420E511C611C711C0A3F4FEF08
:103E3000140721F0043F8FEF1807A1F4C8010F9079
:103E40000F90DF91CF911F910F91FF90EF90DF9036
:103E5000CF90BF90AF907F906F905F904F900895FC
:103E600001EF1FEF81E090E0013F2FEF120711F00B
:103E700090E080E0892B09F4A6CFE0CF04EF1FEF9C
:103E8000DDCF0AEF1FEFDACF0FEF1FEFD7CF4F9243
:103E90005F926F927F92AF92BF92CF92DF92EF923A
:103EA000FF920F931F93CF93DF931F921F92CDB773
:103EB000DEB71A821982009709F478C0611571057E
:103EC00009F474C020912B0230912C0207EF1FEFF0
:103ED0002F3F3F4F09F444C06B015C01412C512C32
:103EE0003201F12CE12C10E000E09E012F5F3F4FEA
:103EF000A6014E195F09B5016E0D7F1D80912B0241
:103F000090912C024AD3892B09F04AC089819A8169
:103F1000009741F4E114F10429F42091360522239D
:103F200009F441C0E80EF91EEC14FD04C8F480E465
:103F3000481682E458068FE06806710418F560E0C0
:103F400070E0CB01CAD52AE0420E511C611C711CE5
:103F50000E3F4FEF140721F0043F8FEF1807A1F435
:103F6000C8010F900F90DF91CF911F910F91FF909B
:103F7000EF90DF90CF90BF90AF907F906F905F9069
:103F80004F90089502EF1FEF81E090E0023F2FEF86
:103F9000120711F090E080E0892B09F4A6CFE0CF62
:103FA00004EF1FEFDDCF0EEF1FEFDACF0FEF1FEFA4
:103FB000D7CF80912B0290912C028F3F980749F028
:103FC000CFD2892B49F48FEF9FEF90932C028093EF
:103FD0002B0290E080E0089584EF9FEF0895CF9248
:103FE000DF92EF92FF920F931F93CF93DF9321E025
:103FF0004115510509F020E04150510921112CC013
:10400000DC01FB01D12CC12C21E022C03FEFC31AFF
:10401000D30A7D010D911D91E701EA80FB80E01636
:10402000F106A8F420813181E280F380F182E08200
:1040300033832283ED90FC9011979D01225031092A
:10404000E901F982E88211961C930E9320E03296E2
:10405000C416D506D8F2D2CFDF91CF911F910F9120
:10406000FF90EF90DF90CF900895FC01680F791FCB
:1040700090E080E0E617F70709F408952191820F98
:10408000911DF8CF20913705211113C047DE00970D
:1040900091F410923D0510923C0510923B05109250
:1040A0003A05109239051092380521E02093370522
:1040B000089584EF9FEF0895AF92BF92CF92DF9261
:1040C000EF92FF920F931F93CF93DF93009709F422
:1040D00060C04630510508F45CC020913705C7EF39
:1040E000DFEF222309F449C08C01060F171FF801E6
:1040F000C080D180C114D10409F44EC096012A5F5A
:104100003F4F4217530708F447C07C0180913C059C
:1041100090913D0593838283B6016C5F7F4F580178
:10412000A60EB71EC801A1DFF5019183808364E06C
:1041300070E0C8011ADEEC01892BF9F481E090E00F
:1041400009DEB601C801049610DEEC01892B91F45A
:1041500062E070E0C50109DEEC01892B59F4C7016A
:10416000DBDB80913C0590913D05019690933D05E8
:1041700080933C0590E080E0EDDDCE01DF91CF91B2
:104180001F910F91FF90EF90DF90CF90BF90AF9075
:104190000895CFEFDFEFF1CFC9EFDFEFEECF6F92F2
:1041A0007F928F929F92AF92BF92CF92DF92EF92C7
:1041B000FF920F931F93CF93DF9300D01F92CDB741
:1041C000DEB7009709F47AC04115510509F476C0AD
:1041D0002091370507EF1FEF222309F44DC03A0164
:1041E0007B015C0164E070E0CE01019650DE8C0141
:1041F000892B09F041C009811A810115110509F4C3
:104200005AC0480186E0880E911CB701680D791DDF
:1042100080912D0290912E020BDD6C01009709F424
:1042200050C0A70170E060E00E945B2A89819A81FA
:10423000AB81BC81EC0CFD1CF70181939193A193A0
:10424000B1937F0181E090E085DDB801C7011FDEF9
:10425000892B31F562E070E0C701800F911F17DEF6
:104260008C01892BE9F490E080E074DDF501D182C6
:10427000C082F30191828082C8010F900F900F904D
:104280000F90DF91CF911F910F91FF90EF90DF90F2
:10429000CF90BF90AF909F908F907F906F90089538
:1042A00090E080E057DDF50111821082F301118268
:1042B0001082C60131DB09EF1FEFDECF0FEF1FEFDA
:1042C000DBCF06EF1FEFD8CF0097A1F041155105C6
:1042D00089F02115310571F0F90136966E177F07C7
:1042E00048F0DC012D933C93DA01ED93FC9390E0D0
:1042F00080E008958FEF9FEF0895AF92BF92CF9225
:10430000DF92EF92FF920F931F93CF93DF9300976B
:1043100009F45FC04115510509F45BC065307105B2
:1043200008F457C020913705C7EFDFEF222391F142
:10433000DC01CD90DC9011971296ED91FC919601E5
:104340002A5F3F4FC9EFDFEF2617370719F5C091F6
:104350003805D0913905209749F521E030E03093B8
:104360003905209338057A018C01F0933B05E093E1
:104370003A055601B4E0AB0EB11CB50176DE0A0D6C
:104380001B1DF801208131818217930729F5D70180
:10439000CD92DC92CE01DF91CF911F910F91FF90D2
:1043A000EF90DF90CF90BF90AF90089520913A05A5
:1043B00030913B052F5F3F4FCCEFDFEFE217F30764
:1043C00090F2CBEFDFEF2E173F0768F2D0E0C0E0AE
:1043D000CACFCFEFDFEFDECFC3EFDFEFDBCF84E07D
:1043E00090E0089582E090E008958CEF9FEF0895AB
:1043F00080E290E0089510923D0510923C051092E5
:104400003B0510923A05109239051092380590E05C
:1044100080E0089590932E0280932D02089580915C
:104420003705882391F0C5DD009789F410923D058A
:1044300010923C0510923B0510923A0510923905F6
:104440001092380510923705089590E080E00895A5
:10445000009749F06115710531F0FC01118210825D
:10446000FB01118210820895F3CF26E030E040E88E
:1044700055E260E070E090E080E000C0813091059E
:1044800069F01CF4892B39F008958230910549F0C8
:10449000039751F008958BE495E0E0C488EE95E031
:1044A000FCCF85E896E0F9CF82E297E0F6CF1F9245
:1044B0000F920FB60F9211240BB60F922F933F93CA
:1044C0004F935F936F937F938F939F93AF93BF931C
:1044D000EF93FF938BEC93EF90932501809324014E
:1044E000B9D0FF91EF91BF91AF919F918F917F9143
:1044F0006F915F914F913F912F910F900BBE0F9055
:104500000FBE0F901F9018958BEC93EF90932501A1
:1045100080932401A3E7B0E08C918E7F8C93E0E23E
:10452000F1E080818C7F8083E1E2F1E08081877E11
:10453000808380818560808380818D7F80838C9162
:1045400081608C930895E3E7F0E0808190819E7F05
:1045500090838170089581E0089510923E0508953A
:1045600068EE73E080E090E0B8D290E080E00895DB
:1045700026E030E040E052EC61E070E090E080E066
:104580007DDF8BE495E0A0D3892B21F08BE495E0CF
:10459000B5D3F7CF90E080E00895CF92DF92EF920D
:1045A000FF920F931F93CF93DF936B017A01E90181
:1045B000198218828BE495E087D3892B69F18601F3
:1045C000CC24C39482E0D82E80913E05811110C086
:1045D0008BE495E093D30297B9F7C0923E05F801BA
:1045E000D1928F0188819981019699838883ECCF3C
:1045F000888199818E159F0578F48BE495E07ED3B0
:104600008F3F9807A9F3F80181938F0188819981E1
:10461000019699838883ECCF90E080E0DF91CF9181
:104620001F910F91FF90EF90DF90CF9008950F931F
:104630001F93CF93DF93EA0189018BE495E09ED627
:10464000F801D183C08390E080E0DF91CF911F918A
:104650000F910895CF92DF92EF92FF9280913F05E4
:1046600091E0980F90933F05882369F021E030E0B6
:10467000309341052093400580933F05FF90EF90D4
:10468000DF90CF9008957894E0913102F09132025A
:10469000C28CD38CE48CF58C0E941303B701A60165
:1046A00090E080E00E948602F89480913F0581505E
:1046B000E3CF0F931F93CF93DF931092D007109205
:1046C000CF0741D2D2DEC0913102D091320219829D
:1046D00018826FEF7FEFCB010E94080370E060E06B
:1046E00090E080E00E948B01009709F03AC00E94A0
:1046F0008D03F8947894BE016E5D7F4F8A819B8113
:104700000E948E01892B59F46FEF7FEFCB010E943D
:104710001D020E940203882311F081E08EA3F89409
:10472000F3DE0E940503882311F080E008C00E9498
:1047300002038111FACF81E09EA19111F6CF8093FF
:10474000CF0778940E944D0A8C0178948091CF070E
:1047500081110CC00E9405040E94E802F89490E0C8
:1047600080E0DF91CF911F910F9108950E94E602A2
:104770000E9405038823D9F081E08093D0079091AF
:10478000D00781E0911180E08093CF078091D0071E
:104790008111D9DE0130110529F40E944D0A892BBF
:1047A00009F4DBDE0E944D0A8C01D5DECFCF0E94DA
:1047B00002038111E1CF81E09EA19111DECF80E063
:1047C000DCCF40D008F481E00895E89409C097FB5D
:1047D0003EF490958095709561957F4F8F4F9F4FD8
:1047E0009923A9F0F92F96E9BB279395F69587951C
:1047F00077956795B795F111F8CFFAF4BB0F11F4DF
:1048000060FF1BC06F5F7F4F8F4F9F4F16C0882385
:1048100011F096E911C0772321F09EE8872F762FBB
:1048200005C0662371F096E8862F70E060E02AF0FC
:104830009A95660F771F881FDAF7880F96958795E8
:1048400097F90895990F0008550FAA0BE0E8FEEFBD
:1048500016161706E807F907C0F012161306E40744
:10486000F50798F0621B730B840B950B39F40A263D
:1048700061F0232B242B252B21F408950A2609F41B
:10488000A140A6958FEF811D811D0895DBDF08F4FF
:104890008FEF08950BD078C069D028F06ED018F053
:1048A000952309F05AC05FC01124A2C07ED0A0F3A6
:1048B000959FD1F3950F50E0551F629FF001729FB5
:1048C000BB27F00DB11D639FAA27F00DB11DAA1FD4
:1048D000649F6627B00DA11D661F829F2227B00D21
:1048E000A11D621F739FB00DA11D621F839FA00DAC
:1048F000611D221F749F3327A00D611D231F849FFC
:10490000600D211D822F762F6A2F11249F57504052
:104910008AF0E1F088234AF0EE0FFF1FBB1F661FED
:10492000771F881F91505040A9F79E3F510570F0A6
:1049300014C05EC05F3FECF3983EDCF3869577953C
:104940006795B795F795E7959F5FC1F7FE2B880FA1
:10495000911D9695879597F9089597F99F6780E837
:1049600070E060E008959FEF80EC089500240A94C1
:104970001616170618060906089500240A9412163A
:104980001306140605060895092E0394000C11F46D
:10499000882352F0BB0F40F4BF2B11F460FF04C01A
:1049A0006F5F7F4F8F4F9F4F089557FD9058440F73
:1049B000551F59F05F3F71F04795880F97FB991F7E
:1049C00061F09F3F79F0879508951216130614063B
:1049D000551FF2CF4695F1DF08C0161617061806C8
:1049E000991FF1CF86957105610508940895E894A3
:1049F000BB2766277727CB0197F908951F920F925F
:104A00000FB60F9211242F933F938F939F93AF93E1
:104A1000BF938091430590914405A0914505B091C5
:104A200046053091420523E0230F2D3758F50196B6
:104A3000A11DB11D20934205809343059093440529
:104A4000A0934505B0934605809147059091480590
:104A5000A0914905B0914A050196A11DB11D809311
:104A6000470590934805A0934905B0934A05BF9127
:104A7000AF919F918F913F912F910F900FBE0F900B
:104A80001F90189526E8230F0296A11DB11DD2CFC5
:104A90003FB7F8948091470590914805A09149054A
:104AA000B0914A0526B5A89B05C02F3F19F0019685
:104AB000A11DB11D3FBFBA2FA92F982F8827BC0178
:104AC000CD01620F711D811D911D42E0660F771FA0
:104AD000881F991F4A95D1F708958F929F92AF92A0
:104AE000BF92CF92DF92EF92FF926B017C01D0DFF9
:104AF0004B015C01C114D104E104F104D9F06BD481
:104B0000C7DF681979098A099B09683E73408105E6
:104B1000910580F321E0C21AD108E108F10888EE7E
:104B2000880E83E0981EA11CB11CC114D104E104BD
:104B3000F10431F7FF90EF90DF90CF90BF90AF90EE
:104B40009F908F900895789484B5826084BD84B5D9
:104B5000816084BD85B5826085BD85B5816085BD78
:104B6000EEE6F0E0808181608083E1E8F0E0108291
:104B7000808182608083808181608083E0E8F0E0D2
:104B8000808181608083E1EBF0E0808184608083BC
:104B9000E0EBF0E0808181608083E1E9F0E08081FA
:104BA00082608083808181608083E0E9F0E08081A1
:104BB00081608083E1EAF0E080818260808380818F
:104BC00081608083E0EAF0E0808181608083E1E2BF
:104BD000F1E0808182608083808181608083E0E277
:104BE000F1E0808181608083EAE7F0E08081846089
:104BF00080838081826080838081816080838081E6
:104C0000806880831092C1000895863308F086532F
:104C100020917B00982F9870277F922B90937B0098
:104C200020912F0290E4299F900111248770822BFC
:104C300080937C0080917A00806480937A008091D8
:104C40007A0086FDFCCF80917800909179000895DC
:104C5000CF93DF9390E0FC01EC51FF4F2491865DF0
:104C60009E4FFC0184918823C9F090E0880F991F22
:104C7000FC01E657FE4FA591B491FC01E059FE4FAF
:104C8000C591D49161110DC09FB7F8948C91209576
:104C900082238C938881282328839FBFDF91CF9123
:104CA0000895623051F49FB7F8943C91822F80951B
:104CB00083238C93E8812E2BEFCF8FB7F894EC9160
:104CC0002E2B2C938FBFEACFFC01918D228D892F43
:104CD00090E0805C9F4F821B91098F739927089504
:104CE000FC01918D828D981731F0828DE80FF11DB6
:104CF000858D90E008958FEF9FEF0895FC01918DD1
:104D0000828D981761F0A28DAE0FBF2FB11D5D96F9
:104D10008C91928D9F5F9F73928F90E008958FEF9B
:104D20009FEF0895FC01538D448D252F30E0842F93
:104D300090E0821B930B541710F0CF9608950197C3
:104D40000895FC01A48DA80FB92FB11DA35ABF4F20
:104D50002C91848D90E001968F739927848FA6897A
:104D6000B7892C93A089B1898C91837080648C93CE
:104D7000938D848D981306C00288F389E02D80817D
:104D80008F7D80830895CF93DF93EC01888D8823F6
:104D9000B1F0AA89BB89E889F9898C9185FD03C0A6
:104DA000808186FD0CC00FB607FCF7CF8C9185FF84
:104DB000F2CF808185FFEDCFCE01C3DFEACFDF9157
:104DC000CF910895EF92FF920F931F93CF93DF93AC
:104DD000EC0181E0888F9B8D8C8D98131AC0E88937
:104DE000F989808185FF15C09FB7F894EE89FF8906
:104DF0006083E889F98980818370806480839FBFA4
:104E000081E090E0DF91CF911F910F91FF90EF90A3
:104E10000895F62E0B8D10E00F5F1F4F0F731127B3
:104E2000E02E8C8D8E110BC00FB607FCFACFE889EF
:104E3000F989808185FFF5CFCE0183DFF2CFEB8D3D
:104E4000EC0FFD2FF11DE35AFF4FF0829FB7F8944E
:104E50000B8FEA89FB8980818062D0CFCF92DF926D
:104E6000EF92FF921F93CF93DF93EC016A017B01D6
:104E7000122FE889F98982E08083C11481EED80677
:104E8000E104F10499F060E079E08DE390E0A7019E
:104E90009601C5D2215031094109510956954795CE
:104EA00037952795211580E1380790F0E889F98931
:104EB000108260E874E88EE190E0A7019601AFD21D
:104EC0002150310941095109569547953795279544
:104ED000EC85FD853083EE85FF852083188EEC8977
:104EE000FD891083EA89FB89808180618083EA895A
:104EF000FB89808188608083EA89FB898081806862
:104F00008083EA89FB8980818F7D8083DF91CF91C7
:104F10001F91FF90EF90DF90CF9008951F920F9216
:104F20000FB60F9211240BB60F922F938F939F936E
:104F3000EF93FF93E0915B05F0915C058081E09138
:104F40006105F091620582FD1DC09081809164052C
:104F50008F5F8F7320916505821741F0E0916405A2
:104F6000F0E0E55BFA4F958F80936405FF91EF9138
:104F70009F918F912F910F900BBE0F900FBE0F90AE
:104F80001F9018958081F2CF1F920F920FB60F924B
:104F900011240BB60F922F933F934F935F936F9310
:104FA0007F938F939F93AF93BF93EF93FF938BE484
:104FB00095E0C7DEFF91EF91BF91AF919F918F91E7
:104FC0007F916F915F914F913F912F910F900BBE09
:104FD0000F900FBE0F901F901895EBE4F5E0138231
:104FE000128288EE93E0A0E0B0E084839583A683EC
:104FF000B78385EB92E09183808385EC90E0958781
:10500000848784EC90E09787868780EC90E0918B92
:10501000808B81EC90E0938B828B82EC90E0958B7F
:10502000848B86EC90E0978B868B118E128E138E7C
:10503000148E08951F920F920FB60F9211240BB683
:105040000F922F938F939F93EF93FF93E091F80527
:10505000F091F9058081E091FE05F091FF0582FD58
:105060001DC09081809101068F5F8F732091020691
:10507000821741F0E0910106F0E0E851FA4F958F78
:1050800080930106FF91EF919F918F912F910F9047
:105090000BBE0F900FBE0F901F9018958081F2CF1E
:1050A0001F920F920FB60F9211240BB60F922F93EF
:1050B0003F934F935F936F937F938F939F93AF93A0
:1050C000BF93EF93FF9388EE95E03BDEFF91EF9166
:1050D000BF91AF919F918F917F916F915F914F9110
:1050E0003F912F910F900BBE0F900FBE0F901F900E
:1050F0001895E8EEF5E01382128288EE93E0A0E0C6
:10510000B0E084839583A683B78385EB92E0918397
:1051100080838DEC90E0958784878CEC90E0978776
:10512000868788EC90E0918B808B89EC90E0938B64
:10513000828B8AEC90E0958B848B8EEC90E0978B41
:10514000868B118E128E138E148E08951F920F92DD
:105150000FB60F9211240BB60F922F938F939F933C
:10516000EF93FF93E0919506F09196068081E09190
:105170009B06F0919C0682FD1DC0908180919E0649
:105180008F5F8F7320919F06821741F0E0919E06FA
:10519000F0E0EB57F94F958F80939E06FF91EF91CA
:1051A0009F918F912F910F900BBE0F900FBE0F907C
:1051B0001F9018958081F2CF1F920F920FB60F9219
:1051C00011240BB60F922F933F934F935F936F93DE
:1051D0007F938F939F93AF93BF93EF93FF9385E854
:1051E00096E0AFDDFF91EF91BF91AF919F918F91CD
:1051F0007F916F915F914F913F912F910F900BBED7
:105200000F900FBE0F901F901895E5E8F6E01382FF
:10521000128288EE93E0A0E0B0E084839583A683B9
:10522000B78385EB92E09183808385ED90E095874D
:10523000848784ED90E09787868780ED90E0918B5E
:10524000808B81ED90E0938B828B82ED90E0958B4B
:10525000848B86ED90E0978B868B118E128E138E49
:10526000148E08951F920F920FB60F9211240BB651
:105270000F922F938F939F93EF93FF93E0913207B9
:10528000F09133078081E0913807F091390782FD72
:105290001DC0908180913B078F5F8F7320913C07E9
:1052A000821741F0E0913B07F0E0EE5DF84F958FFB
:1052B00080933B07FF91EF919F918F912F910F90DA
:1052C0000BBE0F900FBE0F901F9018958081F2CFEC
:1052D0001F920F920FB60F9211240BB60F922F93BD
:1052E0003F934F935F936F937F938F939F93AF936E
:1052F000BF93EF93FF9382E297E023DDFF91EF915D
:10530000BF91AF919F918F917F916F915F914F91DD
:105310003F912F910F900BBE0F900FBE0F901F90DB
:105320001895E2E2F7E01382128288EE93E0A0E0A3
:10533000B0E084839583A683B78385EB92E0918365
:10534000808385E391E09587848784E391E0978764
:10535000868780E391E0918B808B81E391E0938B52
:10536000828B82E391E0958B848B86E391E0978B2F
:10537000868B118E128E138E148E0895AF92BF926B
:10538000CF92DF92EF92FF920F931F93CF93DF9311
:105390006C017B018B01040F151FEB015E01AE1840
:1053A000BF08C017D10759F06991D601ED91FC9162
:1053B0000190F081E02DC6011995892B79F7C5017F
:1053C000DF91CF911F910F91FF90EF90DF90CF90E1
:1053D000BF90AF9008950895DB018F939F9358D0AD
:1053E000BF91AF91A29F800D911DA39F900DB29F81
:1053F000900D11240895AA1BBB1B51E107C0AA1FE1
:10540000BB1FA617B70710F0A61BB70B881F991F65
:105410005A95A9F780959095BC01CD010895A1E218
:105420001A2EAA1BBB1BFD010DC0AA1FBB1FEE1F1E
:10543000FF1FA217B307E407F50720F0A21BB30B69
:10544000E40BF50B661F771F881F991F1A9469F7E5
:1054500060957095809590959B01AC01BD01CF0141
:105460000895EE0FFF1F881F8BBF0790F691E02D68
:105470001994A29FB001B39FC001A39F700D811D1D
:105480001124911DB29F700D811D1124911D08954D
:10549000F0DFA59F900DB49F900DA49F800D911DEE
:1054A00011240895FB01DC0102C001900D924150CE
:1054B0005040D8F70895DC0101C06D934150504031
:0854C000E0F70895F894FFCF16
:1054C800000080BF9CC4FEFFFFFF01E8030000FF4F
:1054D800FF00000000FFFFFFFFFFFFFFFFFFFF01CE
:1054E8000001000100200038000800FFFFFFFF0155
:1054F80001E102FF00A20CCE0CFE00880C090AFD97
:10550800001A0C740CFC00600C090AF600510D0915
:105518000AF500270C900DF4001A0DA70DDE00CE39
:10552800116714DD003D13090ADA00770F7F0FD9E0
:105538000082148F0FE2005F0E090AE1009A0E093B
:105548000AE0000F0F090AD6006518090AD5001CE1
:1055580011090AD400A810090AD3001910090AC0B1
:10556800009E0F090AF000CE18090AED008B1809F1
:105578000A00000000E226BE299226C32664267E81
:045588002670260063
:00000001FF
