:100000002BC100000C9489140C94B4140C94DF14CC
:100010000C940A150C9435150C9460150C948B15E2
:100020000C94B6154AC1000048C1000046C100004A
:1000300044C1000042C1000040C100003EC10000B8
:100040003CC100003AC1000038C1000036C10000C8
:1000500034C1000032C1000030C100000C94E11531
:100060002CC100000C945A190C94901926C1000060
:1000700024C1000022C1000020C100001EC10000F8
:100080001CC100001AC1000018C1000016C1000008
:100090000C94E6190C941C1A10C100000EC100004B
:1000A0000CC100000AC1000008C1000006C1000028
:1000B00004C1000002C1000000C10000FEC0000039
:1000C000FCC00000FAC000000C941B100C94721AC3
:1000D0000C94A81AF2C000000C94FE1A0C94341B65
:1000E000ECC00000084AD73B3BCE016E84BCBFFD8C
:1000F000C12F3D6C74319ABD56833DDA3D00C77FF8
:1001000011BED9E4BB4C3E916BAAAABE0000008090
:100110003F05A84CCDB2D44EB93836A9020C50B91F
:10012000918688083CA6AAAA2ABE000000803F004B
:1001300000000A0B02090C0D0E0807030401000061
:1001400000000000000000000000000000000000AF
:10015000000000000000000000000000121110006C
:10016000000000000000000000000000000000008F
:1001700000000000000001021020200808102040AC
:10018000102040800201020108040201010204085B
:1001900010204080804020100804020180040201E9
:1001A0008040201008040201080402010102040832
:1001B000102040800102040810204080050505053C
:1001C000070508080808020202020A0A08080404CF
:1001D00004040101010101010101030303030303FD
:1001E0000303040707070C0C0C0C0C0C0C0C02028C
:1001F000020206060606060606060B0B0B0B0B0B89
:100200000B0B000020002300260029002C002F00EB
:100210003200000100000301060109010000220074
:10022000250028002B002E003100340002010000C0
:10023000050108010B0100002100240027002A000D
:100240002D003000330001010000040107010A0104
:10025000B919451AD11A5D1B11241FBECFEFD1E287
:10026000DEBFCDBF00E00CBF13E0A0E0B2E0E6ECE3
:10027000F7E300E00BBF02C007900D92A832B10770
:10028000D9F726E0A8E2B3E001C01D92A239B20777
:10029000E1F711E0CCE2D1E000E006C021970109CE
:1002A000802FFE010E94D91BC832D10780E00807C9
:1002B000A9F70E9482100C94E11BA2CE611102C02A
:1002C0000C94C7176130E1F362E0FACF662319F0AE
:1002D00061E00C94031860E0FCCFCF92DF92EF92C4
:1002E000FF92CF93882351F16A017B01CFEFC80FB2
:1002F00020E030E0A901CB01B6010E948011181660
:100300008CF0C701B60190580E94F2119B01AC011C
:100310006C2F70E090E080E0CF91FF90EF90DF9045
:10032000CF90B2C0C701B6010E94ED118C2FCF91C2
:10033000FF90EF90DF90CF900C948D16CF91FF90AF
:10034000EF90DF90CF9008950F931F938B019C0146
:1003500083E036952795179507958A95D1F7085D1F
:100360001C4F462F477021E030E0F90102C0EE0F2C
:10037000FF1F4A95E2F7AF01F80120812423CB014A
:100380000196211102C090E080E01F910F91089525
:100390000F931F938B019C0183E03695279517954A
:1003A00007958A95D1F7677081E090E001C0880FCA
:1003B0006A95EAF7F801E85DFC4F2081452B31F49E
:1003C0008095822380831F910F910895822BFACF0D
:1003D0002F923F924F925F926F927F928F929F9255
:1003E000AF92BF92CF92DF92EF92FF920F931F9343
:1003F000CF93DF93D62EC72E782E692E49015A014E
:10040000280161E08D2D0E94C717CD2DDC2D8E01B6
:100410000F5F1F4FA8016D2D7C2D872D962DB8DF06
:1004200020E030E0A901C201B7010E942E13181686
:1004300064F4C201B7010E94F2112B01C501B4019D
:100440000E94F211A201CE0123D0C801DF91CF9109
:100450001F910F91FF90EF90DF90CF90BF90AF90E2
:100460009F908F907F906F905F904F903F902F90D4
:100470000895882341F08150682F70E090E080E07B
:1004800050E040E085CF0895862FB9010C948D1679
:100490009C01FC01E05DFE4FE491E150E231E0F4AB
:1004A000F0E08827E95AFD4F8F4F0C94D91B690261
:1004B000700273028A029F026C02B402C002C4027C
:1004C000DB02F00205031C0331036C0246035D03EB
:1004D000720384B5806884BD60E0822F0C94031899
:1004E00084B58062F8CF809180008C7F8260809399
:1004F000800080918100807E8061682B6093810004
:10050000509387004093860080918000806880939C
:100510008000E2CF809180008C7F82608093800099
:1005200080918100807E8061682B60938100509370
:10053000870040938600809180008062E8CF8091A0
:1005400080008C7F82608093800080918100807E1B
:100550008061682B609381005093870040938600F0
:10056000809180008860D3CF8091B00080688093B4
:10057000B0008091B100887F682B6093B100ACCF50
:100580008091B0008062F3CF809190008C7F826078
:100590008093900080919100807E8061682B6093B1
:1005A000910050939700409396008091900080684E
:1005B0008093900091CF809190008C7F8260809397
:1005C000900080919100807E8061682B6093910003
:1005D0005093970040939600809190008062E8CFFE
:1005E000809190008C7F8260809390008091910038
:1005F000807E8061682B60939100509397004093B8
:100600009600809190008860D3CF8091A0008C7F6D
:1006100082608093A0008091A100807E8061682B21
:100620006093A1005093A7004093A6008091A00082
:1006300080688093A00050CF8091A0008C7F826062
:100640008093A0008091A100807E8061682B6093E0
:10065000A1005093A7004093A6008091A000806263
:10066000E8CF8091A0008C7F82608093A000809171
:10067000A100807E8061682B6093A1005093A70049
:100680004093A6008091A0008860D3CF8091200184
:100690008C7F82608093200180912101807E806127
:1006A000682B60932101509327014093260180918C
:1006B00020018068809320010FCF809120018C7FE2
:1006C00082608093200180912101807E8061682B6F
:1006D00060932101509327014093260180912001CE
:1006E0008062E8CF809120018C7F8260809320011E
:1006F00080912101807E8061682B6093210150935D
:10070000270140932601809120018860D3CFFC010E
:10071000A781B0858C9191858923A481B5819C9115
:1007200040815181628173812681922359F0811128
:100730000BC04F5F5F4F6F4F7F4F4083518362838A
:10074000738308958111F5CF4150510961097109F1
:10075000F4CF82E393E0DBCF8DE393E0D8CF88E45E
:1007600093E0D5CF83E593E0D2CFFC01A481B5819E
:100770008C9196818923A781B0859C91408151817C
:10078000628173812185922359F0882359F04F5F4C
:100790005F4F6F4F7F4F4083518362837383089510
:1007A0008823A9F34150510961097109F4CF82E30B
:1007B00093E0DBCF8DE393E0D8CF88E493E0D5CF0F
:1007C00083E593E0D2CF0F931F93CF93DF93D82F7E
:1007D000C62F8A01A09131038BE0A89FD00111247C
:1007E000AE5CBC4F1D921D921D921C92139781E02E
:1007F0001A968C931A978D2F90E0FC01EA58FE4FC1
:10080000E4911696EC931697FC01E454FE4FE491A4
:10081000F0E0EE0FFF1FEE5FFD4F8591949115966E
:100820009C938E931497862F90E0FC01EA58FE4F1C
:10083000E4911996EC931997FC01E454FE4FE4916E
:10084000F0E0EE0FFF1FEE5FFD4F8591949118963B
:100850009C938E93179760E08D2F0E94C71760E0DE
:100860008C2F0E94C71780913103813009F43FC05B
:10087000A8F0823009F462C0833009F486C0809108
:10088000310391E0980F90933103F801808390E059
:1008900080E0DF91CF911F910F91089580E0D230D9
:1008A00049F081E0D33031F08EEE8D0F8430D8F4F2
:1008B00087E18D1B41E050E069EA73E00E9410146B
:1008C00080E0C23049F081E0C33031F08EEE8C0F11
:1008D000843058F487E18C1B41E050E067ED73E011
:1008E0000E941014CCCF8FEFE5CF8FEFF5CF80E0D3
:1008F000D23049F081E0D33031F08EEE8D0F84306C
:10090000C8F487E18D1B41E050E06CEA73E00E947F
:10091000101480E0C23049F081E0C33031F08EEE37
:100920008C0F843048F487E18C1B41E050E06AED85
:1009300073E0D6CF8FEFE7CF8FEFF7CF80E0D230E5
:1009400049F081E0D33031F08EEE8D0F8430C8F461
:1009500087E18D1B41E050E06FEA73E00E941014C4
:1009600080E0C23049F081E0C33031F08EEE8C0F70
:10097000843048F487E18C1B41E050E06DED73E07A
:10098000AFCF8FEFE7CF8FEFF7CF80E0D23049F0D6
:1009900081E0D33031F08EEE8D0F8430C8F487E1E2
:1009A0008D1B41E050E062EB73E00E94101480E088
:1009B000C23049F081E0C33031F08EEE8C0F8430CC
:1009C00048F487E18C1B41E050E060EE73E088CF93
:1009D0008FEFE7CF8FEFF7CF9BE0899FF0011124D6
:1009E000EE5CFC4F80819181A281B381FB01808309
:1009F0009183A283B38390E080E008959BE0899F78
:100A0000F0011124EE5CFC4F1082118212821382DD
:100A100090E080E0089590E080E008958F929F92AA
:100A2000AF92BF92CF92DF92EF92FF92CF93DF937C
:100A30006B017C0149015A010E94F70F882399F04C
:100A40006091840670918506809186069091870654
:100A5000DF91CF91FF90EF90DF90CF90BF90AF905C
:100A60009F908F900895C501B4010E94F70F8111E6
:100A7000E7CFC701B6010E94B40F8823E1F1C50199
:100A8000B4010E94B40F8823B1F120E030E0A90145
:100A9000C701B6010E942E13CFEFDFEF181614F432
:100AA000C1E0D0E020E030E0A901C501B4010E941E
:100AB0002E136FEF7FEF181614F461E070E0072E2D
:100AC000000C880B990B0E9420126B017C01BE0167
:100AD000DD0F880B990B0E942012A7019601DF9170
:100AE000CF91FF90EF90DF90CF90BF90AF909F900D
:100AF0008F900C942D1120E030E0A901C501B401C4
:100B00000E948011811116C020E030E0A901C701C8
:100B1000B6010E942E13181694F020E030E0A901CF
:100B2000C701B6010E94801187FD0EC060E070E031
:100B3000CB018ECFA5019401C701B601D0CF6BEDDB
:100B40007FE089EC9FE384CF6BED7FE089EC9FEB46
:100B50007FCF4F925F926F927F928F929F92AF92D0
:100B6000BF92CF92DF92EF92FF921F93CF93DF93CA
:100B7000CDB7DEB7A0970FB6F894DEBF0FBECDBFDE
:100B8000C0905C02D0905D02E0905E02F0905F0247
:100B9000A7019601609117067091180680911906B9
:100BA00090911A060E948011882341F0C092170686
:100BB000D0921806E0921906F0921A068091160655
:100BC000811110921606BE016F5F7F4F80911B0648
:100BD00003DFC0906002D0906102E0906202F0906A
:100BE0006302A701960160910B0670910C0680913B
:100BF0000D0690910E060E948011882341F0C0924C
:100C00000B06D0920C06E0920D06F0920E06809133
:100C10000A06811110920A06BE016B5F7F4F809118
:100C20000F06DADE609100037091010380910203E8
:100C3000909103030E94201220E030E040E05AE24D
:100C40000E9439134B015C01C090C402D090C502D0
:100C5000E090C602F090C70269817A818B819C8105
:100C60000E942012A50194010E943913A701960148
:100C70000E9439136D8B7E8B8F8B988F6D817E8157
:100C80008F8198850E942012A50194010E9439133A
:100C90009B01AC01C701B6010E943913698F7A8F9D
:100CA0008B8F9C8F209158063091590640915A069F
:100CB00050915B066D897E898F89988D0E94B9104D
:100CC0004B015C018092580690925906A0925A06F8
:100CD000B0925B0620915C0630915D0640915E0605
:100CE00050915F06698D7A8D8B8D9C8D0E94B91015
:100CF0006B017C01C0925C06D0925D06E0925E06BC
:100D0000F0925F062091AC023091AD024091AE02AC
:100D10005091AF02C501B4010E9439134B015C012F
:100D20002091B4023091B5024091B6025091B702C1
:100D3000C701B6010E9439139B01AC01C501B40182
:100D40000E94BA106D8F7E8F8F8F98A3C09074060B
:100D5000D0907506E0907606F090770620E030E0BF
:100D600040EC50E4C701B6010E94801118160CF443
:100D7000E9C2C701B6010E94ED114B0180914C06FA
:100D800090914D06A0914E06B0914F0689879A87A3
:100D9000AB87BC87F4017A96EE0FFF1FEE0FFF1FA3
:100DA000E050FE4F9C01AD01608171818281938191
:100DB0000E94B9102B013C01809150069091510680
:100DC000A0915206B09153068D879E87AF87B88B4E
:100DD00090E2890E911CF401EE0FFF1FEE0FFF1F32
:100DE000E050FE4F2D853E854F8558896081718189
:100DF000828193810E94B9104B015C01A301920191
:100E0000C301B2010E9439132B013C01A5019401D9
:100E1000C501B4010E9439139B01AC01C301B201A9
:100E20000E94BA100E94A6132B013C018AE999E99D
:100E3000A9E9BEE3898B9A8BAB8BBC8B2EEA37E496
:100E400041E65EE3C301B2010E94801187FD20C22A
:100E50004092E4055092E5056092E6057092E70540
:100E6000C0927406D0927506E0927606F0927706EC
:100E70008092E8059092E905A092EA05B092EB0510
:100E800089899A89AB89BC898093E0059093E105B3
:100E9000A093E205B093E305C701B6010E94ED11EE
:100EA0006B01FB017A96EE0FFF1FEE0FFF1FE05064
:100EB000FE4F29853A854B855C85608171818281F1
:100EC00093810E94B9104B015C0190E2C90ED11CC4
:100ED000F601EE0FFF1FEE0FFF1FE050FE4F2D85B6
:100EE0003E854F85588960817181828193810E94FE
:100EF000B910A501940192DD6093E4057093E505B6
:100F00008093E6059093E7052091540630915506AD
:100F100040915606509157066091E4057091E505A1
:100F20008091E6059091E7050E94B9106093E40571
:100F30007093E5058093E6059093E70520914402C0
:100F40003091450240914602509147020E94391368
:100F500020916006309161064091620650916306CF
:100F60000E94BA106B017C01C092E805D092E9059D
:100F7000E092EA05F092EB058090500290905102C9
:100F8000A0905202B0905302A50194010E942E132A
:100F900018160CF0F0C18092EC059092ED05A0922D
:100FA000EE05B092EF058090E0059090E105A090ED
:100FB000E205B090E305C090EC05D090ED05E0901F
:100FC000EE05F090EF0520919C0230919D0240913A
:100FD0009E0250919F02C501B4010E9439132B015A
:100FE0003C012091A4023091A5024091A6025091AB
:100FF000A702C701B6010E9439139B01AC01C301CE
:10100000B2010E94BA1020915806309159064091C1
:101010005A0650915B060E94B91069877A878B87C0
:101020009C872091A0023091A1024091A202509190
:10103000A302C501B4010E9439134B015C01209148
:10104000A8023091A9024091AA025091AB02C701B7
:10105000B6010E9439139B01AC01C501B4010E9485
:10106000BA1020915C0630915D0640915E06509169
:101070005F060E94B9106B017C01C092E005D0921E
:10108000E105E092E205F092E30520910002309143
:10109000010240910202509103020E9439132091F3
:1010A00064063091650640916606509167060E947D
:1010B000B91020913C0230913D0240913E02509186
:1010C0003F020E9439134B015C018092F00590921F
:1010D000F105A092F205B092F305209148023091FB
:1010E000490240914A0250914B02C701B6010E9449
:1010F0003913209168063091690640916A06509133
:101100006B060E94BA10A50194010E94BA104B010F
:101110005C01C0905402D0905502E0905602F090CD
:1011200057029B01AC01B601C7010E94801187FDE7
:1011300012C0C0903402D0903502E0903602F09098
:1011400037029401A501B601C7010E942E1318169B
:1011500014F0640175012091D4023091D5024091C0
:10116000D6025091D702B601C7010E9439139B01E4
:10117000AC012093F4053093F5054093F6055093A8
:10118000F70511E0609168027091690280916A022E
:1011900090916B020E948011811101C010E0612FBB
:1011A0008CE094D864E070E080E090E0CDD87C01E1
:1011B00090934B0680934A066090F4057090F50575
:1011C000C090F605D090F7058090D8029090D90293
:1011D000A090DA02B090DB02A5019401B301C60130
:1011E0000E942E13181694F08090DC029090DD027D
:1011F000A090DE02B090DF02A5019401B301C60108
:101200000E94801187FD02C043015601E894B7F89F
:1012100020E030E04FE753E4C501B4010E948011A3
:10122000181634F4812C912C9FE7A92E93E4B92E43
:10123000B501A401C70151D865E070E080E090E0FD
:1012400083D87C0190933B0680933A064090F40546
:101250005090F5056090F6057090F7058090E002DB
:101260009090E102A090E202B090E302A501940107
:10127000C301B2010E942E1318160CF094C0809284
:10128000F4059092F505A092F605B092F7059AC084
:1012900020E030E040EC50E4C701B6010E9480112C
:1012A00087FFD6CD20E030E040E85FE3C701B6011C
:1012B00061D76B017C010E94ED114B01FB017A9615
:1012C000EE0FFF1FEE0FFF1FE050FE4F29853A85FE
:1012D0004B855C8560817181828193814AD72B0126
:1012E0003C0190E2890E911CF401EE0FFF1FEE0FFE
:1012F000FF1FE050FE4F2D853E854F855889608148
:1013000071818281938135D74B015C01A3019201E8
:10131000C301B2010E9439132B013C01A5019401C4
:10132000C501B4010E9439139B01AC01C301B20194
:1013300021D70E94A6132B013C018DEC9CECACEC58
:10134000BDE378CD8091540690915506A091560644
:10135000B09157068093E4059093E505A093E605C8
:10136000B093E7051092E0051092E1051092E205B6
:101370001092E305C9CD8090300290903102A09088
:101380003202B0903302A5019401C701B601B8D76B
:1013900087FD01CEC092EC05D092ED05E092EE05FE
:1013A000F092EF0500CE8090E4029090E502A090CC
:1013B000E602B090E702A5019401C301B201A0D7F3
:1013C00087FD5DCF20E030E04FE753E46091F40506
:1013D0007091F5058091F6059091F70591D7181653
:1013E00064F480E090E0AFE7B3E48093F405909379
:1013F000F505A093F605B093F70520E030E0A901CC
:101400006091F4057091F5058091F6059091F705CE
:101410000E942E1387FF08C01092F4051092F50564
:101420001092F6051092F7054091F4055091F505DC
:101430006091F6057091F705C7010E946D0120913A
:10144000040230910502409106025091070269851D
:101450007A858B859C850E94391320916C0630918A
:101460006D0640916E0650916F0683D62091400222
:101470003091410240914202509143020E9439133F
:101480006B017C01C092F405D092F505E092F6055F
:10149000F092F70520914C0230914D0240914E029E
:1014A00050914F0269857A858B859C850E943913FE
:1014B000209170063091710640917206509173062A
:1014C00059D6A701960156D66B017C01C092F8054A
:1014D000D092F905E092FA05F092FB05809058024F
:1014E00090905902A0905A02B0905B02A50194011D
:1014F0000E942E1318164CF48092F8059092F9056C
:10150000A092FA05B092FB050FC08090380290902F
:101510003902A0903A02B0903B02A5019401C701A4
:10152000B601EED687FDE8CF11E02091640230913C
:10153000650240916602509167026091F8057091D2
:10154000F9058091FA059091FB05DAD6811101C069
:1015500010E0612F8DE00E94660167E070E080E09E
:1015600090E00E94A4017C01909343068093420680
:101570006090F8057090F905C090FA05D090FB05D1
:101580008090F0029090F102A090F202B090F302ED
:10159000A5019401B301C6010E942E1318168CF008
:1015A0008090F4029090F502A090F602B090F702BD
:1015B000A5019401B301C601A3D687FD02C0430172
:1015C0005601E894B7F820E030E04FE753E4C50156
:1015D000B40196D6181634F4812C912C8FE7A82EDE
:1015E00083E4B82EB501A401C7010E946D0166E035
:1015F00070E080E090E00E94A4017C0190933306AB
:10160000809332064090F8055090F9056090FA05F5
:101610007090FB058090F8029090F902A090FA0279
:10162000B090FB02A5019401C301B2010E942E13E8
:1016300018164CF48092F8059092F905A092FA05DC
:10164000B092FB050FC08090FC029090FD02A0902C
:10165000FE02B090FF02A5019401C301B20150D671
:1016600087FDE8CF20E030E04FE753E46091F805D4
:101670007091F9058091FA059091FB0541D61816F5
:1016800064F480E090E0AFE7B3E48093F8059093D2
:10169000F905A093FA05B093FB0520E030E0A9011D
:1016A0006091F8057091F9058091FA059091FB051C
:1016B000D5D787FF08C01092F8051092F90510924F
:1016C000FA051092FB054091F8055091F9056091DB
:1016D000FA057091FB05C7010E946D0180914C06CF
:1016E00090914D06A0914E06B0914F068D879E8732
:1016F000AF87B88BC0905406D0905506E090560640
:10170000F0905706C092F805D092F905E092FA05DC
:10171000F092FB05409050065090510660905206A2
:10172000709053064092FC055092FD056092FE05B4
:101730007092FF05C0920006D0920106E092020668
:10174000F0920306C701B601DFD58090BC029090ED
:10175000BD02A090BE02B090BF022D8D3E8D4F8D78
:1017600058A187D7A501940184D72D853E854F8543
:10177000588900D560934C0670934D0680934E06B1
:1017800090934F06C701B601D7D72D8D3E8D4F8D53
:1017900058A16FD7A50194016CD7A3019201EAD497
:1017A00060935006709351068093520690935306AF
:1017B0002091B0023091B1024091B2025091B30237
:1017C000609158067091590680915A0690915B0677
:1017D00050D72B013C012091B8023091B9024091C1
:1017E000BA025091BB0260915C0670915D068091D7
:1017F0005E0690915F063DD79B01AC01C301B2012B
:10180000B9D4A501940135D7A7019601B3D460934B
:1018100054067093550680935606909357068D890B
:101820009E89AF89B88D8093580690935906A093EE
:101830005A06B0935B06898D9A8DAB8DBC8D8093D3
:101840005C0690935D06A0935E06B0935F062091C0
:10185000E8053091E9054091EA055091EB0560916A
:10186000EC057091ED058091EE059091EF0581D426
:1018700020912C0230912D0240912E0250912F0286
:10188000F8D66B017C012091E4053091E50540918B
:10189000E6055091E7056091100270911102809168
:1018A000120290911302E5D69B01AC01C701B6016B
:1018B00061D42091C8023091C9024091CA0250916E
:1018C000CB02D7D620916006309161064091620626
:1018D000509163064FD460936006709361068093C5
:1018E0006206909363062091F0053091F1054091D6
:1018F000F2055091F3056091CC027091CD02809178
:10190000CE029091CF02B5D6209164063091650643
:1019100040916606509167062DD4609364067093DB
:10192000650680936606909367062091E0053091E6
:10193000E1054091E2055091E30560910802709144
:10194000090280910A0290910B0293D62091D00255
:101950003091D1024091D2025091D3028AD6209187
:1019600068063091690640916A0650916B0602D470
:10197000609368067093690680936A0690936B067D
:101980002091F4053091F5054091F6055091F70549
:101990006091E8027091E9028091EA029091EB0275
:1019A00068D620916C0630916D0640916E0650917C
:1019B0006F06E0D360936C0670936D0680936E069D
:1019C00090936F0620910C0230910D0240910E020F
:1019D00050910F0269857A858B859C854AD6209126
:1019E000EC023091ED024091EE025091EF0241D6AF
:1019F00020917006309171064091720650917306E5
:101A0000B9D36093700670937106809372069093B9
:101A10007306A0960FB6F894DEBF0FBECDBFDF9160
:101A2000CF911F91FF90EF90DF90CF90BF90AF903C
:101A30009F908F907F906F905F904F9008958F92BE
:101A40009F92AF92BF92DF92EF92FF920F931F93FC
:101A5000CF93DF9384E090E050D2E0E0F2E0809119
:101A6000C0029091C102A091C202B091C302C4E031
:101A7000D6E080934C0690934D06A0934E06B0930B
:101A80004F068093500690935106A0935206B09350
:101A900053068093540690935506A0935606B09330
:101AA000570684899589A689B789809358069093AB
:101AB0005906A0935A06B0935B0680935C069093F8
:101AC0005D06A0935E06B0935F0680A191A1A2A1DE
:101AD000B3A18093600690936106A0936206B093D1
:101AE0006306808D918DA28DB38D80936406909353
:101AF0006506A0936606B093670684A195A1A6A18A
:101B0000B7A18093680690936906A0936A06B09384
:101B10006B06848D958DA68DB78D80936C06909302
:101B20006D06A0936E06B0936F0680A591A5A2A541
:101B3000B3A58093700690937106A0937206B0933C
:101B4000730680E090E0A0E8BFE380937406909372
:101B50007506A0937606B09377061F8A1C8680913F
:101B60005C0290915D02A0915E02B0915F028B8B4E
:101B70009C8BAD8BBE8B812C912C540183948D86D4
:101B80009E86AF86B88A4BE156E063E082E00E9411
:101B9000E303DD24D394D98A1A8A8F890E94FE0434
:101BA0001B8618828091600290916102A09162026E
:101BB000B09163028F839887A987BA8789829A82B6
:101BC000AB82BC824FE056E062E183E10E94E30316
:101BD000DD821E828B850E94FE0418A289A29AA231
:101BE000ABA2BCA261E08CE00E945E01DDA210927B
:101BF00044068092450690924606A0924706B0920F
:101C00004806E12CF12C8701A801970164E070E0FF
:101C100080E090E00E94E80190934B0680934A0692
:101C2000D092490618AA89AA9AAAABAABCAAA80166
:101C3000970165E070E080E090E00E94E8019FABD2
:101C40008EABDDAA188E898E9A8EAB8EBC8E61E02B
:101C50008DE00E945E01DD8E18AE89AE9AAEABAE0D
:101C6000BCAEA801970167E070E080E090E00E94C0
:101C7000E8019FAF8EAFDDAE18A689A69AA6ABA6E7
:101C8000BCA6A801970166E070E080E090E00E94A9
:101C9000E8019FA78EA7DDA6DF91CF911F910F913D
:101CA000FF90EF90DF90BF90AF909F908F9008953E
:101CB00080911006811114C081E0809310068091FC
:101CC000110690911206A0911306B0911406019787
:101CD000A105B10529F48091150681110E940B051B
:101CE00080910406811114C081E0809304068091E4
:101CF000050690910606A0910706B0910806019787
:101D0000A105B10529F48091090681110E940B05F6
:101D100080912406811103C081E080932406809184
:101D2000440681112EC081E08093440680914506CF
:101D300090914606A0914706B09148060197A105EB
:101D4000B105F9F4809149068823D9F064E070E088
:101D500080E090E00E94A40190934B0680934A0695
:101D600040E050E0BA010E946D0164E070E080E064
:101D700090E00E94A40190934B0680934A060E9433
:101D800039028091340681112EC081E0809334069F
:101D90008091350690913606A0913706B0913806AD
:101DA0000197A105B105F9F4809139068823D9F08E
:101DB00065E070E080E090E00E94A40190933B0613
:101DC00080933A0640E050E0BA010E946D0165E060
:101DD00070E080E090E00E94A40190933B06809325
:101DE0003A060E94390280911C06811103C081E0ED
:101DF00080931C0680913C0681112EC081E0809367
:101E00003C0680913D0690913E06A0913F06B09120
:101E100040060197A105B105F9F480914106882398
:101E2000D9F067E070E080E090E00E94A401909318
:101E300043068093420640E050E0BA010E946D01E3
:101E400067E070E080E090E00E94A4019093430678
:101E5000809342060E94390280912C0681112EC087
:101E600081E080932C0680912D0690912E06A09102
:101E70002F06B09130060197A105B105F9F48091C4
:101E800031068823D9F066E070E080E090E00E949F
:101E9000A401909333068093320640E050E0BA01EB
:101EA0000E946D0166E070E080E090E00E94A40175
:101EB00090933306809332060C943902089560E0C3
:101EC00070E080E89FE7089560E070E080E89FE7B9
:101ED000089560E070E080E89FEF089560E070E0B2
:101EE00080E89FEF089560E070E080EC9FEF089538
:101EF00060E070E080EC9FEF0895F5DF609384066A
:101F0000709385068093860690938706F1DF609331
:101F100078067093790680937A0690937B06CFDFDC
:101F20006093800670938106809382069093830667
:101F3000CBDF60937C0670937D0680937E06909342
:101F40007F06C7DF609388067093890680938A06B0
:101F500090938B06C3DF60938C0670938D068093FD
:101F60008E0690938F060895CF92DF92EF92FF92A4
:101F7000CF936B017C01AC019B0160918006709155
:101F800081068091820690918306BAD1C1E08823B0
:101F900069F0A70196016091880670918906809189
:101FA0008A0690918B06ACD18111C0E08C2FCF9125
:101FB000FF90EF90DF90CF9008950F931F938B01C8
:101FC0009C010027112720783F7701151105204833
:101FD0003F4749F4AB01BC016F77772781E0452B80
:101FE000462B472B09F480E01F910F910895E5CF10
:101FF00026E030E040E855E260E070E090E080E00C
:1020000000C08130910571F01CF4892B39F00895DE
:102010008230910551F0039759F008958CE693E0D2
:102020000C94FA1889E094E0FBCF86EA94E0F8CFAC
:1020300083E495E0F5CF1F920F920FB60F92112413
:102040000BB60F922F933F934F935F936F937F93B2
:102050008F939F93AF93BF93EF93FF938FE89DEF81
:10206000909325018093240134D0FF91EF91BF918B
:10207000AF919F918F917F916F915F914F913F9120
:102080002F910F900BBE0F900FBE0F901F901895C1
:102090008FE89DEF9093250180932401A3E7B0E0A2
:1020A0008C918E7F8C93E0E2F1E080818C7F808345
:1020B000E1E2F1E08081877E80838081846080839B
:1020C00080818C7F80838C9181608C93089581E0E6
:1020D00008958091600391E0980F909360038823A6
:1020E00049F021E030E03093620320936103809354
:1020F0006003089578940E94A905F8948091600384
:102100008150F5CFCF93DF931092910610929006F5
:10211000A2D56EDFC0911403D091150319821882E5
:102120008EDCF894B5DF2881398181E0232B09F01A
:1021300080E0809390067894789480919006811145
:1021400007C0B6DDF89490E080E0DF91CF9108956C
:102150002881398181E0232B09F480E08093910666
:102160009091910681E0911180E080939006AFDF1D
:10217000E4CF5058BB27AA270ED025C2EED130F0AD
:10218000F3D120F031F49F3F11F41EF4BEC10EF4E0
:10219000E095E7FBB4C1E92F38D280F3BA176207A4
:1021A00073078407950718F071F49EF550C20EF47A
:1021B000E0950B2EBA2FA02D0B01B90190010C0157
:1021C000CA01A0011124FF27591B99F0593F50F46F
:1021D000503E68F11A16F040A22F232F342F4427C7
:1021E000585FF3CF469537952795A795F0405395BF
:1021F000C9F77EF41F16BA0B620B730B840BBAF08F
:102200009150A1F0FF0FBB1F661F771F881FC2F7F9
:102210000EC0BA0F621F731F841F48F4879577950D
:102220006795B795F7959E3F08F0B3CF9395880FC4
:1022300008F09927EE0F9795879508958ED158F05D
:1022400080E891E009F49EEF8FD128F040E851E05A
:1022500059F45EEF09C059C1FAC1E92FE078D5D130
:1022600068F3092E052AC1F32617370748075907CF
:1022700038F00E2E07F8E02569F0E025E0640AC08A
:10228000EF6307F8009407FADB01B9019D01DC0157
:10229000CA01AD01EF9348D096D10AD05F91552382
:1022A00031F02BED3FE049E450FD49EC63CF089558
:1022B000DF93DD27B92FBF7740E85FE316161706D7
:1022C00048075B0710F4D92FCDD19F938F937F934D
:1022D0006F937AD2E4EEF0E01BD175D12F913F914C
:1022E0004F915F91D2D1DD2349F09058A2EA2AEDB7
:1022F0003FE049EC5FE3D0785D274DDFDF9163C1BC
:10230000DAD008F481E0089537D1E3956DC12CD17E
:1023100040F023D130F021F45F3F19F0F0C05111AB
:1023200097C1F3C072D198F39923C9F35523B1F340
:10233000951B550BBB27AA2762177307840738F034
:102340009F5F5F4F220F331F441FAA1FA9F333D093
:102350000E2E3AF0E0E830D091505040E695001C47
:10236000CAF729D0FE2F27D0660F771F881FBB1F03
:10237000261737074807AB07B0E809F0BB0B802DDD
:10238000BF01FF2793585F4F2AF09E3F510568F029
:10239000B6C05EC15F3FECF3983EDCF3869577955F
:1023A0006795B795F7959F5FC9F7880F911D96952B
:1023B000879597F90895E1E0660F771F881FBB1F87
:1023C000621773078407BA0720F0621B730B840B34
:1023D000BA0BEE1F88F7E095089504D06894B11108
:1023E00037C108951AD188F09F5790F0B92F9927D7
:1023F000B751A0F0D1F0660F771F881F991F1AF010
:10240000BA95C9F712C0B13081F021D1B1E0089579
:102410001EC1672F782F8827B85F39F0B93FCCF3FA
:10242000869577956795B395D9F73EF49095809505
:10243000709561957F4F8F4F9F4F0895E89409C025
:1024400097FB3EF490958095709561957F4F8F4FE7
:102450009F4F9923A9F0F92F96E9BB279395F695FD
:10246000879577956795B795F111F8CFFAF4BB0F7B
:1024700011F460FF1BC06F5F7F4F8F4F9F4F16C0DF
:10248000882311F096E911C0772321F09EE8872F69
:10249000762F05C0662371F096E8862F70E060E025
:1024A0002AF09A95660F771F881FDAF7880F96959E
:1024B000879597F90895990F0008550FAA0BE0E842
:1024C000FEEF16161706E807F907C0F012161306F6
:1024D000E407F50798F0621B730B840B950B39F436
:1024E0000A2661F0232B242B252B21F408950A269C
:1024F00009F4A140A6958FEF811D811D089597F9DC
:102500009F6780E870E060E008959FEF80EC089599
:10251000DF93CF931F930F93FF92EF92DF927B0194
:102520008C01689405C0DA2EEF01AFD0FE01E8946B
:10253000A5912591359145915591AEF3EF012BDE93
:10254000FE019701A801DA9479F7DF90EF90FF90F0
:102550000F911F91CF91DF91089500240A941616D0
:10256000170618060906089500240A941216130681
:10257000140605060895C9CF50D0E8F3E894E0E0CA
:10258000BB279F57F0F02AED3FE049EC06C0EE0F65
:10259000BB0F661F771F881F28F0B23A62077307C8
:1025A000840728F0B25A620B730B840BE3959A955B
:1025B00072F7803830F49A95BB0F661F771F881F1B
:1025C000D2F7904808C1092E0394000C11F4882317
:1025D00052F0BB0F40F4BF2B11F460FF04C06F5FDB
:1025E0007F4F8F4F9F4F0895EF93E0FF06C0A2EA01
:1025F0002AED3FE049EC5FEBCEDDE5DF0F90039481
:1026000001FC9058E1E1F1E0F9C057FD9058440F0A
:10261000551F59F05F3F71F04795880F97FB991F41
:1026200061F09F3F79F087950895121613061406FE
:10263000551FF2CF4695F1DF08C01616170618068B
:10264000991FF1CF86957105610508940895E89466
:10265000BB2766277727CB0197F908952CDF08F46D
:102660008FEF08959B01AC0160E070E080E89FE38C
:10267000AEC00BD0A8CF71DF28F076DF18F095231D
:1026800009F03DCF42CF1124E3CFBFDFA0F3959FE8
:10269000D1F3950F50E0551F629FF001729FBB2749
:1026A000F00DB11D639FAA27F00DB11DAA1F649FF5
:1026B0006627B00DA11D661F829F2227B00DA11DA8
:1026C000621F739FB00DA11D621F839FA00D611D2E
:1026D000221F749F3327A00D611D231F849F600D4F
:1026E000211D822F762F6A2F11249F5750408AF088
:1026F000E1F088234AF0EE0FFF1FBB1F661F771F14
:10270000881F91505040A9F79E3F510570F0F7CEB9
:102710009FCF5F3FECF3983EDCF386957795679506
:10272000B795F795E7959F5FC1F7FE2B880F911D31
:102730009695879597F908959F931EDF0F9007FC54
:10274000EE5F52CF11F40EF4E0CE43C066DFD0F35B
:102750009923D9F3CEF39F57550B87FF48D0002418
:10276000A0E640EA900180585695979528F4805C41
:10277000660F771F881F20F026173707480730F4A9
:10278000621B730B840B202931294A2BA6951794C1
:102790000794202531254A2758F7660F771F881F91
:1027A00020F026173707480730F4620B730B840BB1
:1027B000200D311D411DA09581F7B901842F91583D
:1027C000880F9695879508959B01AC0152CFAADD9D
:1027D000FACE9F3F31F0915020F487957795679519
:1027E000B795880F911D9695879597F90895915003
:1027F0005040660F771F881FD2F708959F938F93DD
:102800007F936F93FF93EF939B01AC0132DFEF91C6
:10281000FF917EDE2F913F914F915F912ACF0895D6
:10282000883008F075C0E82FF0E0EE0FFF1FEC5F76
:10283000FC4F718360838150873008F03CC0E82FE3
:10284000F0E08827EA5DFB4E8F4FB3C763142D1469
:10285000351441144E146F147C14809169008C7FE0
:10286000482B40936900E89A089580916900837F1E
:10287000440F551F440F551F482B40936900E99A98
:102880000895809169008F7C74E0440F551F7A95FC
:10289000E1F7482B40936900EA9A08958091690016
:1028A0008F7366E0440F551F6A95E1F7482B4093FC
:1028B0006900EB9A089580916A008C7F482B4093C1
:1028C0006A00EC9A089580916A00837F440F551F37
:1028D000440F551F482B40936A00ED9A089580914C
:1028E0006A008F7C24E0440F551F2A95E1F7482B9E
:1028F00040936A00EE9A089580916A008F7396E083
:10290000440F551F9A95E1F7482B40936A00EF9AC0
:1029100008951F920F920FB60F9211240BB60F92CB
:102920002F933F934F935F936F937F938F939F93D7
:10293000AF93BF93EF93FF93E0910803F0910903E6
:102940001995FF91EF91BF91AF919F918F917F91D9
:102950006F915F914F913F912F910F900BBE0F9010
:102960000FBE0F901F9018951F920F920FB60F92E7
:1029700011240BB60F922F933F934F935F936F9356
:102980007F938F939F93AF93BF93EF93FF93E091C8
:102990000A03F0910B031995FF91EF91BF91AF914D
:1029A0009F918F917F916F915F914F913F912F9167
:1029B0000F900BBE0F900FBE0F901F9018951F9297
:1029C0000F920FB60F9211240BB60F922F933F93D5
:1029D0004F935F936F937F938F939F93AF93BF9327
:1029E000EF93FF93E0910C03F0910D031995FF9184
:1029F000EF91BF91AF919F918F917F916F915F9177
:102A00004F913F912F910F900BBE0F900FBE0F90E3
:102A10001F9018951F920F920FB60F9211240BB6AC
:102A20000F922F933F934F935F936F937F938F9367
:102A30009F93AF93BF93EF93FF93E0910E03F091B9
:102A40000F031995FF91EF91BF91AF919F918F91D6
:102A50007F916F915F914F913F912F910F900BBE9E
:102A60000F900FBE0F901F9018951F920F920FB6E8
:102A70000F9211240BB60F922F933F934F935F93B6
:102A80006F937F938F939F93AF93BF93EF93FF9336
:102A9000E0910403F09105031995FF91EF91BF9127
:102AA000AF919F918F917F916F915F914F913F91E6
:102AB0002F910F900BBE0F900FBE0F901F90189587
:102AC0001F920F920FB60F9211240BB60F922F93F5
:102AD0003F934F935F936F937F938F939F93AF93A6
:102AE000BF93EF93FF93E0910603F09107031995CD
:102AF000FF91EF91BF91AF919F918F917F916F91D6
:102B00005F914F913F912F910F900BBE0F900FBE91
:102B10000F901F9018951F920F920FB60F921124CD
:102B20000BB60F922F933F934F935F936F937F93C7
:102B30008F939F93AF93BF93EF93FF93E091100315
:102B4000F09111031995FF91EF91BF91AF919F9172
:102B50008F917F916F915F914F913F912F910F9046
:102B60000BBE0F900FBE0F901F9018951F920F92E3
:102B70000FB60F9211240BB60F922F933F934F93E2
:102B80005F936F937F938F939F93AF93BF93EF93D5
:102B9000FF93E0911203F09113031995FF91EF91C8
:102BA000BF91AF919F918F917F916F915F914F9165
:102BB0003F912F910F900BBE0F900FBE0F901F9063
:102BC00018951F920F920FB60F9211242F933F93D7
:102BD0008F939F93AF93BF9380916403909165030C
:102BE000A0916603B09167033091630323E0230F44
:102BF0002D3758F50196A11DB11D209363038093D5
:102C0000640390936503A0936603B0936703809178
:102C1000680390916903A0916A03B0916B030196D8
:102C2000A11DB11D8093680390936903A0936A036B
:102C3000B0936B03BF91AF919F918F913F912F9173
:102C40000F900FBE0F901F90189526E8230F029645
:102C5000A11DB11DD2CF789484B5826084BD84B5A6
:102C6000816084BD85B5826085BD85B5816085BD87
:102C7000EEE6F0E0808181608083E1E8F0E01082A0
:102C8000808182608083808181608083E0E8F0E0E1
:102C9000808181608083E1EBF0E0808184608083CB
:102CA000E0EBF0E0808181608083E1E9F0E0808109
:102CB00082608083808181608083E0E9F0E08081B0
:102CC00081608083E1EAF0E080818260808380819E
:102CD00081608083E0EAF0E0808181608083E1E2CE
:102CE000F1E0808182608083808181608083E0E286
:102CF000F1E0808181608083EAE7F0E08081846098
:102D000080838081826080838081816080838081F4
:102D1000806880831092C10008951F93CF93DF9342
:102D2000182FEB0161E033D1209731F460E0812F5F
:102D3000DF91CF911F9167C1CF3FD10511F461E0C1
:102D4000F6CFE12FF0E0E05DFE4FE491E150E2319B
:102D500008F0B2C0F0E08827E055F94E8F4F29C542
:102D6000C216CA16CF16D916E3165C17ED16F5165D
:102D7000FD16071711171B172A1734175C173E1774
:102D80004817521784B5806884BDC7BDDF91CF91C5
:102D90001F91089584B5806284BDC8BDF7CF80912E
:102DA0008000806880938000D0938900C093880061
:102DB000EDCF80918000806280938000D0938B0063
:102DC000C0938A00E3CF8091800088608093800068
:102DD000D0938D00C0938C00D9CF8091B0008068D3
:102DE0008093B000C093B300D1CF8091B0008062D7
:102DF0008093B000C093B400C9CF809190008068E8
:102E000080939000D0939900C0939800BFCF809199
:102E10009000806280939000D0939B00C0939A00B2
:102E2000B5CF80919000886080939000D0939D00F2
:102E3000C0939C00ABCF8091A00080688093A000DD
:102E40008091A0008F7B8093A000D093A900C093B5
:102E5000A8009CCF8091A00080628093A000D093B6
:102E6000AB00C093AA0092CF8091A00088608093AD
:102E7000A000D093AD00C093AC0088CF809120011A
:102E8000806880932001D0932901C09328017ECFD0
:102E900080912001806280932001D0932B01C09308
:102EA0002A0174CF80912001886080932001D09303
:102EB0002D01C0932C016ACFC038D1050CF03FCF53
:102EC00035CF8150823108F059C0E82FF0E08827D3
:102ED000E459F84E8F4F6DC48C1790177E178417E6
:102EE0008817BE17931799179D17A317A717AB1726
:102EF000B117B517BE17B917BF17C3178091800058
:102F00008F77809380000895809180008F7DF9CF26
:102F100080918000877FF5CF84B58F7784BD089539
:102F200084B58F7DFBCF8091B0008F778093B00008
:102F300008958091B0008F7DF9CF809190008F77B8
:102F4000809390000895809190008F7DF9CF8091BB
:102F50009000877FF5CF8091A0008F778093A000AD
:102F600008958091A0008F7DF9CF8091A000877F88
:102F7000F5CF809120018F77809320010895809173
:102F800020018F7DF9CF80912001877FF5CFCF93EE
:102F9000DF9390E0FC01EA58FE4F249184549E4F49
:102FA000FC0184918823C9F090E0880F991FFC01EF
:102FB000EA5CFD4FA591B491FC01E45EFD4FC59123
:102FC000D49161110DC09FB7F8948C912095822304
:102FD0008C938881282328839FBFDF91CF91089508
:102FE000623051F49FB7F8943C91822F80958323EF
:102FF0008C93E8812E2BEFCF8FB7F894EC912E2B8A
:103000002C938FBFEACF1F93CF93DF93282F30E00D
:10301000F901E05DFE4F8491F901EA58FE4FD49129
:10302000F901E454FE4FC491CC23A1F0162F811175
:1030300048DFEC2FF0E0EE0FFF1FE45EFD4FA5919F
:10304000B4918FB7F894EC91111108C0D095DE239C
:10305000DC938FBFDF91CF911F910895DE2BF8CFC6
:10306000FC01918D228D892F90E0805C9F4F821B07
:1030700091098F7399270895FC01918D828D98177E
:1030800031F0828DE80FF11D858D90E008958FEF6E
:103090009FEF0895FC01918D828D981761F0A28DAC
:1030A000AE0FBF2FB11D5D968C91928D9F5F9F7368
:1030B000928F90E008958FEF9FEF0895FC01538D5C
:1030C000448D252F30E0842F90E0821B930B541702
:1030D00010F0CF96089501970895FC01A48DA80FD4
:1030E000B92FB11DA35ABF4F2C91848D90E001964A
:1030F0008F739927848FA689B7892C93A089B1896A
:103100008C91837080648C93938D848D981306C00A
:103110000288F389E02D80818F7D80830895CF938D
:10312000DF93EC01888D8823B1F0AA89BB89E889F7
:10313000F9898C9185FD03C0808186FD0CC00FB696
:1031400007FCF7CF8C9185FFF2CF808185FFEDCF13
:10315000CE01C3DFEACFDF91CF910895EF92FF92C6
:103160000F931F93CF93DF93EC0181E0888F9B8DAA
:103170008C8D98131AC0E889F989808185FF15C064
:103180009FB7F894EE89FF896083E889F989808187
:103190008370806480839FBF81E090E0DF91CF9156
:1031A0001F910F91FF90EF900895F62E0B8D10E078
:1031B0000F5F1F4F0F731127E02E8C8D8E110BC0E8
:1031C0000FB607FCFACFE889F989808185FFF5CF32
:1031D000CE0183DFF2CFEB8DEC0FFD2FF11DE35A13
:1031E000FF4FF0829FB7F8940B8FEA89FB898081AB
:1031F0008062D0CFCF92DF92EF92FF921F93CF9356
:10320000DF93EC016A017B01122FE889F98982E0E2
:103210008083C11481EED806E104F10499F060E0E6
:1032200079E08DE390E0A7019601A1D22150310908
:10323000410951095695479537952795211580E104
:10324000380790F0E889F989108260E874E88EE127
:1032500090E0A70196018BD2215031094109510913
:103260005695479537952795EC85FD853083EE85F6
:10327000FF852083188EEC89FD891083EA89FB89FC
:10328000808180618083EA89FB8980818860808376
:10329000EA89FB89808180688083EA89FB89808153
:1032A0008F7D8083DF91CF911F91FF90EF90DF9012
:1032B000CF9008951F920F920FB60F9211240BB664
:1032C0000F922F938F939F93EF93FF93E0917C0343
:1032D000F0917D038081E0918203F091830382FD70
:1032E0001DC09081809185038F5F8F73209186032D
:1032F000821741F0E0918503F0E0E459FC4F958F8F
:1033000080938503FF91EF919F918F912F910F9063
:103310000BBE0F900FBE0F901F9018958081F2CFBB
:103320001F920F920FB60F9211240BB60F922F938C
:103330003F934F935F936F937F938F939F93AF933D
:10334000BF93EF93FF938CE693E0C7DEFF91EF917D
:10335000BF91AF919F918F917F916F915F914F91AD
:103360003F912F910F900BBE0F900FBE0F901F90AB
:103370001895ECE6F3E01382128288EE93E0A0E069
:10338000B0E084839583A683B7838AE193E0918339
:10339000808385EC90E09587848784EC90E0978724
:1033A000868780EC90E0918B808B81EC90E0938B12
:1033B000828B82EC90E0958B848B86EC90E0978BEF
:1033C000868B118E128E138E148E08951F920F927B
:1033D0000FB60F9211240BB60F922F938F939F93DA
:1033E000EF93FF93E0911904F0911A048081E0912A
:1033F0001F04F091200482FD1DC090818091220461
:103400008F5F8F7320912304821741F0E091220493
:10341000F0E0E75FFB4F958F80932204FF91EF91DF
:103420009F918F912F910F900BBE0F900FBE0F9019
:103430001F9018958081F2CF1F920F920FB60F92B6
:1034400011240BB60F922F933F934F935F936F937B
:103450007F938F939F93AF93BF93EF93FF9389E0F5
:1034600094E03BDEFF91EF91BF91AF919F918F91DF
:103470007F916F915F914F913F912F910F900BBE74
:103480000F900FBE0F901F901895E9E0F4E01382A3
:10349000128288EE93E0A0E0B0E084839583A68357
:1034A000B7838AE193E0918380838DEC90E09587E8
:1034B00084878CEC90E09787868788EC90E0918BEE
:1034C000808B89EC90E0938B828B8AEC90E0958BDB
:1034D000848B8EEC90E0978B868B118E128E138EE0
:1034E000148E08951F920F920FB60F9211240BB6EF
:1034F0000F922F938F939F93EF93FF93E091B604D6
:10350000F091B7048081E091BC04F091BD0482FD8C
:103510001DC090818091BF048F5F8F732091C00484
:10352000821741F0E091BF04F0E0EA55FB4F958F20
:103530008093BF04FF91EF919F918F912F910F90F6
:103540000BBE0F900FBE0F901F9018958081F2CF89
:103550001F920F920FB60F9211240BB60F922F935A
:103560003F934F935F936F937F938F939F93AF930B
:10357000BF93EF93FF9386EA94E0AFDDFF91EF9165
:10358000BF91AF919F918F917F916F915F914F917B
:103590003F912F910F900BBE0F900FBE0F901F9079
:1035A0001895E6EAF4E01382128288EE93E0A0E038
:1035B000B0E084839583A683B7838AE193E0918307
:1035C000808385ED90E09587848784ED90E09787F0
:1035D000868780ED90E0918B808B81ED90E0938BDE
:1035E000828B82ED90E0958B848B86ED90E0978BBB
:1035F000868B118E128E138E148E08951F920F9249
:103600000FB60F9211240BB60F922F938F939F93A7
:10361000EF93FF93E0915305F09154058081E09181
:103620005905F0915A0582FD1DC0908180915C057D
:103630008F5F8F7320915D05821741F0E0915C05EB
:10364000F0E0ED5BFA4F958F80935C05FF91EF9171
:103650009F918F912F910F900BBE0F900FBE0F90E7
:103660001F9018958081F2CF1F920F920FB60F9284
:1036700011240BB60F922F933F934F935F936F9349
:103680007F938F939F93AF93BF93EF93FF9383E4C5
:1036900095E023DDFF91EF91BF91AF919F918F91C5
:1036A0007F916F915F914F913F912F910F900BBE42
:1036B0000F900FBE0F901F901895E3E4F5E0138272
:1036C000128288EE93E0A0E0B0E084839583A68325
:1036D000B7838AE193E09183808385E391E09587C6
:1036E000848784E391E09787868780E391E0918BDC
:1036F000808B81E391E0938B828B82E391E0958BC9
:10370000848B86E391E0978B868B118E128E138EBD
:10371000148E0895AF92BF92CF92DF92EF92FF92F4
:103720000F931F93CF93DF936C017B018B01040FE9
:10373000151FEB015E01AE18BF08C017D10759F085
:103740006991D601ED91FC910190F081E02DC601C7
:103750001995892B79F7C501DF91CF911F910F91B1
:10376000FF90EF90DF90CF90BF90AF900895A1E2CF
:103770001A2EAA1BBB1BFD010DC0AA1FBB1FEE1FEB
:10378000FF1FA217B307E407F50720F0A21BB30B36
:10379000E40BF50B661F771F881F991F1A9469F7B2
:1037A00060957095809590959B01AC01BD01CF010E
:1037B0000895EE0FFF1F881F8BBF0790F691E02D35
:0637C0001994F894FFCFFC
:1037C600DE2C0F4361741D43660BB64442C2B644F9
:1037D600A4F43C41000000000000000000000000CE
:1037E6000000000000000000000000006666663F62
:1037F600DB0F49C00000000000000000EA3C8540E5
:10380600FCC57140CFB8E541433DA144E956A84403
:10381600DB0F494000007F4300007F43000080BF6C
:10382600000080BF00000000000000000000000053
:103836006666E63FC3F56840C3F568409A99394025
:103846009A993940000000000000000000000000C6
:10385600F628EC40F628EC40000030410000803F9E
:103866000000803F1D5AE4BD1D5AE43D0000003FA4
:103876006D7F8FC00000003F6D7F8F400AD7233CCD
:10388600000000000000C8420AD7233C0AD7233CA8
:103896000AD7233C6666E63F0000803F00007FC3F0
:1038A60000007F430000803F0AD7233C0AD7233C11
:1038B6000000000000007FC300007F430000803F3F
:1038C600A0989E490F140F140F140F140F140F1401
:1038D6000F140F145E0300000000AE188A1B5E185A
:0838E6008F1830184A183C1835
:00000001FF
