:1000000014C100000C9437330C9462330C948D337C
:100010000C94B8330C94E3330C940E340C943934B0
:100020000C94643433C1000031C100002FC10000C2
:100030002DC100002BC1000029C1000027C1000014
:1000400025C1000023C1000021C100001FC1000024
:100050001DC100001BC1000019C100000C948F34A9
:1000600015C100000C9463380C9499380FC100003E
:100070000DC100000BC1000009C1000007C1000054
:1000800005C1000003C1000001C10000FFC0000065
:100090000C94EF380C942539F9C00000F7C000002B
:1000A000F5C00000F3C00000F1C00000EFC0000088
:1000B000EDC00000EBC00000E9C00000E7C0000098
:1000C000E5C00000E3C000000C94DD2E0C947B39E9
:1000D0000C94B139DBC000000C94073A0C943D3A03
:1000E000D5C0000005A84CCDB2D44EB93836A9020F
:1000F0000C50B9918688083CA6AAAA2ABE00000026
:10010000803F00000A0B02090C0D0E0807030401D2
:1001100000000000000000000000000000000000DF
:1001200000000000000000000000000000001211AC
:1001300010000000000000000000000000000000AF
:10014000000000000000000001021020200808103C
:100150002040102040800201020108040201010237
:100160000408102040808040201008040201800410
:10017000020180402010080402010804020101026B
:10018000040810204080010204081020408005056A
:100190000505070508080808020202020A0A0808FD
:1001A000040404040101010101010101030303032B
:1001B00003030303040707070C0C0C0C0C0C0C0CBA
:1001C0000202020206060606060606060B0B0B0BCB
:1001D0000B0B0B0B000020002300260029002C0035
:1001E0002F00320000010000030106010901000098
:1001F0002200250028002B002E00310034000201CF
:100200000000050108010B01000021002400270067
:100210002A002D0030003300010100000401070115
:100220000A01C2384E39DA39663A11241FBECFEFBF
:10023000D1E2DEBFCDBF00E00CBF13E0A0E0B2E032
:10024000E4E5F6E700E00BBF02C007900D92A0388E
:10025000B107D9F72BE0A0E8B3E001C01D92A235A9
:10026000B207E1F711E0C5E1D1E000E006C0219757
:100270000109802FFE010E94F73AC131D10780E0C9
:100280000807A9F70E94FA2F0C94283BB9CECF9209
:10029000DF92EF92FF92CF93882351F16A017B01A5
:1002A000CFEFC80F20E030E0A901CB01B6010E94DA
:1002B000E83018168CF0C701B60190580E94F4304F
:1002C0009B01AC016C2F70E090E080E0CF91FF903B
:1002D000EF90DF90CF90B2C0C701B6010E94EF301F
:1002E0008C2FCF91FF90EF90DF90CF900C949635AC
:1002F000CF91FF90EF90DF90CF9008950F931F93D1
:100300008B019C0183E036952795179507958A9573
:10031000D1F700581C4F462F477021E030E0F9011B
:1003200002C0EE0FFF1F4A95E2F7AF01F8012081EE
:100330002423CB010196211102C090E080E01F919F
:100340000F9108950F931F938B019C0183E03695C5
:100350002795179507958A95D1F7677081E090E00A
:1003600001C0880F6A95EAF7F801E058FC4F208138
:10037000452B31F48095822380831F910F9108953E
:10038000822BFACF2F923F924F925F926F927F9281
:100390008F929F92AF92BF92CF92DF92EF92FF9295
:1003A0000F931F93CF93DF93D62EC72E782E692EEF
:1003B00049015A01280161E08D2D0E94D036CD2DD2
:1003C000DC2D8E010F5F1F4FA8016D2D7C2D872D19
:1003D000962DB8DF20E030E0A901C201B7010E94EC
:1003E0000B32181664F4C201B7010E94F4302B01DD
:1003F000C501B4010E94F430A201CE0123D0C8018E
:10040000DF91CF911F910F91FF90EF90DF90CF90F0
:10041000BF90AF909F908F907F906F905F904F9024
:100420003F902F900895882341F08150682F70E00D
:1004300090E080E050E040E085CF0895862FB9013C
:100440000C9496359C01FC01EE5FFE4FE491E15067
:10045000E231E0F4F0E08827EF5CFD4F8F4F0C9421
:10046000F73A43024A024D026402790246028E02C2
:100470009A029E02B502CA02DF02F6020B0346028E
:10048000200337034C0384B5806884BD60E0822F6D
:100490000C940C3784B58062F8CF809180008C7FFB
:1004A00082608093800080918100807E8061682BD3
:1004B0006093810050938700409386008091800074
:1004C000806880938000E2CF809180008C7F826082
:1004D0008093800080918100807E8061682B609392
:1004E0008100509387004093860080918000806255
:1004F000E8CF809180008C7F826080938000809123
:100500008100807E8061682B60938100509387001A
:1005100040938600809180008860D3CF8091B000A6
:1005200080688093B0008091B100887F682B6093D1
:10053000B100ACCF8091B0008062F3CF8091900089
:100540008C7F82608093900080919100807E80619A
:10055000682B609391005093970040939600809190
:10056000900080688093900091CF809190008C7F64
:1005700082608093900080919100807E8061682BE2
:100580006093910050939700409396008091900063
:100590008062E8CF809190008C7F82608093900091
:1005A00080919100807E8061682B609391005093D0
:1005B000970040939600809190008860D3CF8091FF
:1005C000A0008C7F82608093A0008091A100807E3B
:1005D0008061682B6093A1005093A7004093A60010
:1005E0008091A00080688093A00050CF8091A000EF
:1005F0008C7F82608093A0008091A100807E8061CA
:10060000682B6093A1005093A7004093A6008091AF
:10061000A0008062E8CF8091A0008C7F82608093F0
:10062000A0008091A100807E8061682B6093A10072
:100630005093A7004093A6008091A0008860D3CF7C
:10064000809120018C7F8260809320018091210124
:10065000807E8061682B6093210150932701409335
:100660002601809120018068809320010FCF809126
:1006700020018C7F82608093200180912101807E07
:100680008061682B609321015093270140932601DC
:10069000809120018062E8CF809120018C7F826070
:1006A0008093200180912101807E8061682B60937E
:1006B00021015093270140932601809120018860F9
:1006C000D3CFFC01A781B0858C9191858923A4812A
:1006D000B5819C91408151816281738126819223F1
:1006E00059F081110BC04F5F5F4F6F4F7F4F4083B9
:1006F00051836283738308958111F5CF415051096D
:1007000061097109F4CF8AE893E0DBCF85E993E0D2
:10071000D8CF80EA93E0D5CF8BEA93E0D2CFFC012B
:10072000A481B5818C9196818923A781B0859C9104
:1007300040815181628173812185922359F0882300
:1007400059F04F5F5F4F6F4F7F4F408351836283FC
:10075000738308958823A9F34150510961097109F0
:10076000F4CF8AE893E0DBCF85E993E0D8CF80EA45
:1007700093E0D5CF8BEA93E0D2CF0F931F93CF9323
:10078000DF93D82FC62F8A01A09189038BE0A89F01
:10079000D0011124A657BC4F1D921D921D921C9290
:1007A000139781E01A968C931A978D2F90E0FC0195
:1007B000E85BFE4FE4911696EC931697FC01E25726
:1007C000FE4FE491F0E0EE0FFF1FEC52FE4F8591DB
:1007D000949115969C938E931497862F90E0FC012C
:1007E000E85BFE4FE4911996EC931997FC01E257F0
:1007F000FE4FE491F0E0EE0FFF1FEC52FE4F8591AB
:10080000949118969C938E93179760E08D2F0E9479
:10081000D03660E08C2F0E94D036809189038130E1
:1008200009F43FC0A8F0823009F462C0833009F4B3
:1008300086C08091890391E0980F90938903F80115
:10084000808390E080E0DF91CF911F910F91089518
:1008500080E0D23049F081E0D33031F08EEE8D0F60
:100860008430D8F487E18D1B41E050E063E873E009
:100870000E94BD3280E0C23049F081E0C33031F0E7
:100880008EEE8C0F843058F487E18C1B41E050E0F1
:1008900061EB73E00E94BD32CCCF8FEFE5CF8FEFDD
:1008A000F5CF80E0D23049F081E0D33031F08EEEE8
:1008B0008D0F8430C8F487E18D1B41E050E066E87D
:1008C00073E00E94BD3280E0C23049F081E0C33065
:1008D00031F08EEE8C0F843048F487E18C1B41E0C0
:1008E00050E064EB73E0D6CF8FEFE7CF8FEFF7CF19
:1008F00080E0D23049F081E0D33031F08EEE8D0FC0
:100900008430C8F487E18D1B41E050E069E873E072
:100910000E94BD3280E0C23049F081E0C33031F046
:100920008EEE8C0F843048F487E18C1B41E050E060
:1009300067EB73E0AFCF8FEFE7CF8FEFF7CF80E0BC
:10094000D23049F081E0D33031F08EEE8D0F84301B
:10095000C8F487E18D1B41E050E06CE873E00E9431
:10096000BD3280E0C23049F081E0C33031F08EEE1C
:100970008C0F843048F487E18C1B41E050E06AEB37
:1009800073E088CF8FEFE7CF8FEFF7CF9BE0899FA2
:10099000F0011124E657FC4F80819181A281B3813F
:1009A000FB0180839183A283B38390E080E008956C
:1009B0009BE0899FF0011124E657FC4F10821182C1
:1009C0001282138290E080E0089590E080E0089524
:1009D00090E080E008950F931F93009709F489C079
:1009E0006115710509F485C00091B4021091B5023A
:1009F0002091B6023091B7020E3F1F4F2F4F3F4F4D
:100A000009F068C04FEF5FEFBA014093B402509312
:100A1000B5026093B6027093B7024091B402509150
:100A2000B5026091B6027091B702DC011296ED91A9
:100A3000FC9180819181A281B38180932E04909357
:100A40002F04A0933004B093310484819581A68152
:100A5000B78180932A0490932B04A0932C04B09325
:100A60002D0480859185A285B3858093260490937B
:100A70002704A0932804B093290484859585A6852E
:100A8000B7858093220490932304A0932404B09309
:100A9000250410921E0410921F041092200410923C
:100AA00021040E94C31288EE92E19093B7038093D1
:100AB000B6039093B9038093B8030E94B2110097D4
:100AC00031F421E030E030933304209332041F915D
:100AD0000F9108950091B4021091B5022091B602D1
:100AE0003091B702DB010D931D932D933C93139727
:100AF00094CF8FEF9FEFEBCF8F929F92AF92BF92E9
:100B0000CF92DF92EF92FF921F93CF93DF934B012F
:100B10005C011091350482E090E09093330480935F
:100B2000320481149104A104B10441F4809135048C
:100B3000811104C080913404C1E08111C0E0C12C56
:100B4000D12C760180913504811106C08091340446
:100B5000811102C0CC23D9F083E090E0909333045C
:100B600080933204CC2381F1CCE9DFEF111102C074
:100B70000E944C16CE01DF91CF911F91FF90EF9014
:100B8000DF90CF90BF90AF909F908F9008956AE0D4
:100B900070E080E090E00E94FE3480E1C80E87E2C1
:100BA000D81EE11CF11C8FEF88169806A806B8061F
:100BB00031F0C1E08C149D04AE04BF0408F0C0E025
:100BC00080E00E94E611BECFD0E0C0E0CFCFCF9250
:100BD000DF92EF92FF920F931F93CF93DF938F3F9C
:100BE000910511F008F051C0209132043091330486
:100BF0002330310539F02091320430913304213013
:100C0000310531F424E030E0309333042093320492
:100C10006A017B01EC0182309105A8F011E0AE0180
:100C2000C701B6010E94B111AB01BC01CE01112375
:100C3000F9F0DF91CF911F910F91FF90EF90DF902E
:100C4000CF900C9475188C01000F111F0A541C4F83
:100C5000D8018D919C91892B09F30E947F180297EE
:100C6000E9F6D801ED91FC91CE011995182FD7CF57
:100C70000E94971890E080E0DF91CF911F910F9133
:100C8000FF90EF90DF90CF9008958FEF9FEFF4CF1C
:100C900080E00C94E611CF93DF9386E090E0909390
:100CA0003304809332040E943F12EC01E6EBF3E040
:100CB00084E0DF011D928A95E9F70E94E415109205
:100CC000330410923204CE01DF91CF9108958091C8
:100CD0003404089580911D0408956093B4027093C4
:100CE000B5028093B6029093B70290E080E0089539
:100CF0004F925F926F927F928F929F92AF92BF922C
:100D0000CF92DF92EF92FF920F931F93CF93DF93D7
:100D1000CDB7DEB7A0970FB6F894DEBF0FBECDBF3C
:100D20004090C00A5090C10A6090C20A7090C30AF5
:100D30004092080B5092090B60920A0B70920B0BB9
:100D40008090C40A9090C50AA090C60AB090C70AC5
:100D500080920C0B90920D0BA0920E0BB0920F0B89
:100D6000C090C80AD090C90AE090CA0AF090CB0A95
:100D7000C092100BD092110BE092120BF092130B59
:100D80008091010B8F3718F48F5F8093010B8FEFE9
:100D90009FEFDC018093F80A9093F90AA093FA0A76
:100DA000B093FB0A8091000B811122C081E08093F7
:100DB000000B1092010B88E090E0A0E0B0E080937F
:100DC000FC0A9093FD0AA093FE0AB093FF0A1092CA
:100DD000400B1092410B1092420B1092430B109259
:100DE000440B1092450B1092460B1092470B52C0C9
:100DF0008091FC0A9091FD0AA091FE0AB091FF0A31
:100E00000197A109B10988309105A105B10508F044
:100E100041C0FC018827E05FF84F8F4F0C94F73AF0
:100E2000180772099A09C609E5090C0A1C0A2B0A57
:100E300026E636E646E65FE3C301B2010E940B32C6
:100E4000181644F587E090E0A0E0B0E08093FC0A3B
:100E50009093FD0AA093FE0AB093FF0A8091F00AD6
:100E60009091F10AA091F20AB091F30A8093400B9D
:100E70009093410BA093420BB093430B8BED9FE0FB
:100E8000A9ECBFE38093440B9093450BA093460BD2
:100E9000B093470BA70196016091440B7091450BED
:100EA0008091460B9091470B0E9483302091340231
:100EB0003091350240913602509137020E940F3234
:100EC0006B017C01C092140BD092150BE092160BB3
:100ED000F092170B8090400B9090410BA090420B2A
:100EE000B090430B8092180B9092190BA0921A0BA2
:100EF000B0921B0BC0921C0BD0921D0BE0921E0BEC
:100F0000F0921F0B209150023091510240915202F9
:100F100050915302C501B4010E940F322B013C01D4
:100F2000209158023091590240915A0250915B022F
:100F3000C701B6010E940F329B01AC01C301B2018F
:100F40000E9484302B013C014092200B5092210BD7
:100F50006092220B7092230B209154023091550223
:100F60004091560250915702C501B4010E940F32C0
:100F70004B015C0120915C0230915D0240915E0268
:100F800050915F02C701B6010E940F329B01AC0174
:100F9000C501B4010E9484306B017C01C092240B16
:100FA000D092250BE092260BF092270B2091E40AB9
:100FB0003091E50A4091E60A5091E70AC301B20177
:100FC0000E94833069877A878B879C872091E80A03
:100FD0003091E90A4091EA0A5091EB0AC701B60143
:100FE0000E9483306D877E878F87988BC0904802E0
:100FF000D0904902E0904A02F0904B02A70196017E
:1010000060919B0A70919C0A80919D0A90919E0A22
:101010000E94E830882341F0C0929B0AD0929C0A3B
:10102000E0929D0AF0929E0A80919A0A8111109294
:101030009A0ABE016B5F7F4F80919F0AA7DCC09028
:101040004C02D0904D02E0904E02F0904F02A7016A
:10105000960160918F0A7091900A8091910A909107
:10106000920A0E94E830882341F0C0928F0AD09201
:10107000900AE092910AF092920A80918E0A811170
:1010800010928E0ABE016F5F7F4F8091930A7EDCC3
:101090006091B0027091B1028091B2029091B3025E
:1010A0000E94223120E030E040E05AE20E940F32FC
:1010B0004B015C01C0907C02D0907D02E0907E02EA
:1010C000F0907F026D817E818F8198850E94223110
:1010D000A50194010E940F32A70196010E940F32D0
:1010E000698B7A8B8B8B9C8B69817A818B819C81BC
:1010F0000E942231A50194010E940F329B01AC0194
:10110000C701B6010E940F326D8B7E8B8F8B988F3B
:101110002091CC0A3091CD0A4091CE0A5091CF0A4D
:1011200069897A898B899C890E9483304B015C0193
:101130008092280B9092290BA0922A0BB0922B0B35
:101140002091D00A3091D10A4091D20A5091D30A0D
:101150006D897E898F89988D0E9483306B017C0117
:10116000C0922C0BD0922D0BE0922E0BF0922F0BF5
:1011700020916002309161024091620250916302BD
:10118000C501B4010E940F322B013C01209168027D
:101190003091690240916A0250916B02C701B60119
:1011A0000E940F329B01AC01C301B2010E94843046
:1011B0006093300B7093310B8093320B9093330B11
:1011C000209164023091650240916602509167025D
:1011D000C501B4010E940F324B015C0120916C02E9
:1011E00030916D0240916E0250916F02C701B601BD
:1011F0000E940F329B01AC01C501B4010E948430F2
:101200006093340B7093350B8093360B9093370BB0
:10121000209100023091010240910202509103029C
:101220006D857E858F8598890E940F322091D40A22
:101230003091D50A4091D60A5091D70A0E94833046
:1012400020912C0230912D0240912E0250912F02BC
:101250000E940F326B017C01C092480BD092490B67
:10126000E0924A0BF0924B0B2091380230913902F8
:1012700040913A0250913B026D857E858F85988919
:101280000E940F322091D80A3091D90A4091DA0A8F
:101290005091DB0A0E948430A70196010E9484309D
:1012A0006B017C01C092380BD092390BE0923A0B63
:1012B000F0923B0B8090400290904102A09042023D
:1012C000B0904302A50194010E940B3218160CF055
:1012D000DCC08092380B9092390BA0923A0BB092FE
:1012E0003B0BE3C02AE939E949E15FE3C501B401F9
:1012F0000E940B3218160CF0CDCD85E090E0A0E0F6
:10130000B0E08093FC0A9093FD0AA093FE0AB0938C
:10131000FF0A8091F00A9091F10AA091F20AB0912F
:10132000F30A8093400B9093410BA093420BB09330
:10133000430B55CD2DEC3CEC4CE650E4C301B2011F
:101340000E940B3218160CF0A5CD86E090E0A0E0CC
:10135000B0E08093FC0A9093FD0AA093FE0AB0933C
:10136000FF0A8091F00A9091F10AA091F20AB091DF
:10137000F30A8093400B9093410BA093420BB093E0
:10138000430B8BED9FE0A9ECBFEB7CCD2AE939E95B
:1013900049E150ECC501B4010E94E83087FF7ACDE5
:1013A00089E090E0A0E0B0E08093FC0A9093FD0A11
:1013B000A093FE0AB093FF0A1092400B1092410BCB
:1013C0001092420B1092430B65CD2AE037ED43E2B9
:1013D0005CE3C701B6010E94E83087FF5BCD83E084
:1013E00090E0A0E0B0E08093FC0A9093FD0AA09307
:1013F000FE0AB093FF0A8091EC0A9091ED0AA09149
:10140000EE0AB091EF0A8093400B9093410BA093AA
:10141000420BB093430B3ECD2BED3FE049EC5FEB2D
:10142000C701B6010E94E83018160CF433CD84E0F1
:1014300090E0A0E0B0E0D7CF2BED3FE049EC5FE3D8
:10144000C701B6010E940B3287FD24CD82E090E0F7
:10145000A0E0B0E0C8CF8091010B843608F41ACD2B
:1014600081E090E0A0E0B0E08093FC0A9093FD0A58
:10147000A093FE0AB093FF0A8091EC0A9091ED0AC6
:10148000A091EE0AB091EF0A4CCF80902402909088
:101490002502A0902602B0902702A5019401C70161
:1014A000B6010E94E83087FD14CF65E070E080E06F
:1014B00090E00E947E013C019093BF0A8093BE0A97
:1014C0008090380B9090390BA0903A0BB0903B0B6A
:1014D000C0908802D0908902E0908A02F0908B023E
:1014E000A7019601B401C5010E940B32181694F0B1
:1014F000C0908C02D0908D02E0908E02F0908F020E
:10150000A7019601B401C5010E94E83087FD02C021
:1015100064017501E894F7F820E030E04FE753E408
:10152000C701B6010E94E830181634F4C12CD12C42
:101530009FE7E92E93E4F92EB701A601C3010E94AB
:10154000470164E070E080E090E00E947E014C0181
:101550009093AF0A8093AE0AA090380BB090390BED
:10156000C0903A0BD0903B0BE0909002F09091022B
:1015700000919202109193029701A801B501C60152
:101580000E940B32181694F0E0909402F0909502AD
:1015900000919602109197029701A801B501C6012A
:1015A0000E94E83087FD02C07501860120E030E02E
:1015B0004FE753E4B701C8010E94E83018160CF455
:1015C0007BC020E030E0A901B701C8010E940B32C6
:1015D00087FF04C0E12CF12C00E010E0A701B80166
:1015E000C4010E94470120910402309105024091FC
:1015F00006025091070269857A858B859C850E9439
:101600000F322091DC0A3091DD0A4091DE0A5091C0
:10161000DF0A0E94833020913002309131024091E4
:101620003202509133020E940F326B017C01C09252
:101630004C0BD0924D0BE0924E0BF0924F0B209141
:101640003C0230913D0240913E0250913F0269853B
:101650007A858B859C850E940F322091E00A30911B
:10166000E10A4091E20A5091E30A0E948430A70106
:1016700096010E9484306B017C01C0923C0BD09299
:101680003D0BE0923E0BF0923F0B80904402909015
:101690004502A0904602B0904702A50194010E9425
:1016A0000B32181674F480923C0B90923D0BA09272
:1016B0003E0BB0923F0B15C0E12CF12C0FE713E469
:1016C0008DCF8090280290902902A0902A02B0909D
:1016D0002B02A5019401C701B6010E94E83087FDE5
:1016E000E2CF66E070E080E090E00E947E014C0175
:1016F0009093B70A8093B60AA0903C0BB0903D0B34
:1017000000913E0B10913F0BC090A002D090A1021F
:10171000E090A202F090A302A7019601B501C801D2
:101720000E940B32181694F0C090A402D090A5022B
:10173000E090A602F090A702A7019601B501C801AA
:101740000E94E83087FD02C065017801E894F7F84F
:1017500020E030E04FE753E4C701B6010E94E830D3
:10176000181634F4C12CD12C8FE7E82E83E4F82E20
:10177000B701A601C4010E94470167E070E080E064
:1017800090E00E947E014C019093A70A8093A60AE4
:10179000A0903C0BB0903D0BC0903E0BD0903F0B07
:1017A000E090A802F090A9020091AA021091AB0269
:1017B0009701A801B501C6010E940B32181694F0DA
:1017C000E090AC02F090AD020091AE021091AF0239
:1017D0009701A801B501C6010E94E83087FD02C04B
:1017E0007501860120E030E04FE753E4B701C801FE
:1017F0000E94E83018160CF4E2C120E030E0A901A4
:10180000B701C8010E940B3287FF04C0E12CF12C04
:1018100000E010E0A701B801C4010E9447018091D7
:10182000C40A9091C50AA091C60AB091C70A898FCF
:101830009A8FAB8FBC8F8091C80A9091C90AA091F2
:10184000CA0AB091CB0A8D8F9E8FAF8FB8A34090FC
:10185000100B5090110B6090120B7090130BC30182
:10186000B2010E94EC308090300B9090310BA09030
:10187000320BB090330BC0907002D0907102E090A8
:101880007202F0907302A50194010E940F32A70129
:1018900096010E940F322091C00A3091C10A4091F6
:1018A000C20A5091C30A0E9484306093C00A7093A8
:1018B000C10A8093C20A9093C30AC301B2010E9475
:1018C00072329B01AC01C501B4010E940F32A70125
:1018D00096010E940F32298D3A8D4B8D5C8D0E94AE
:1018E00084306093C40A7093C50A8093C60A9093AB
:1018F000C70A2091340B3091350B4091360B509133
:10190000370BC701B6010E940F322D8D3E8D4F8DD2
:1019100058A10E9484306093C80A7093C90A8093CA
:10192000CA0A9093CB0A8091280B9091290BA09121
:101930002A0BB0912B0B8093E40A9093E50AA093B5
:10194000E60AB093E70A89899A89AB89BC898093B2
:10195000CC0A9093CD0AA093CE0AB093CF0A80917F
:101960002C0B90912D0BA0912E0BB0912F0B8093EF
:10197000E80A9093E90AA093EA0AB093EB0A8D89EA
:101980009E89AF89B88D8093D00A9093D10AA09395
:10199000D20AB093D30A2091480B3091490B409161
:1019A0004A0B50914B0B60918002709181028091A3
:1019B0008202909183020E940F322091D40A3091CA
:1019C000D50A4091D60A5091D70A0E94843060937C
:1019D000D40A7093D50A8093D60A9093D70A20919F
:1019E00008023091090240910A0250910B026D8564
:1019F0007E858F8598890E940F32209184023091D4
:101A0000850240918602509187020E940F322091F8
:101A1000D80A3091D90A4091DA0A5091DB0A0E9423
:101A200084306093D80A7093D90A8093DA0A90932D
:101A3000DB0A20914C0B30914D0B40914E0B509195
:101A40004F0B609198027091990280919A02909147
:101A50009B020E940F322091DC0A3091DD0A4091F6
:101A6000DE0A5091DF0A0E9484306093DC0A709392
:101A7000DD0A8093DE0A9093DF0A20910C023091F8
:101A80000D0240910E0250910F0269857A858B8577
:101A90009C850E940F3220919C0230919D024091C2
:101AA0009E0250919F020E940F322091E00A3091D5
:101AB000E10A4091E20A5091E30A0E948430609367
:101AC000E00A7093E10A8093E20A9093E30AC090DF
:101AD000F003D090F103E090F203F090F3039FEF56
:101AE000C91AD90AE90AF90AC092F003D092F1039F
:101AF000E092F203F092F303C114D104E104F10483
:101B000099F48091F4039091F503A091F603B091BC
:101B1000F7030196A11DB11D8093F4039093F50383
:101B2000A093F603B093F7038090F8039090F90325
:101B3000A090FA03B090FB036091F4037091F50359
:101B40008091F6039091F7030E942031A501940142
:101B50000E940F3220E030E040E85FE40E940F3244
:101B60002B013C01C701B6010E942031A50194015F
:101B70000E940F329B01AC01C301B2010E9484306C
:101B80006093EC037093ED038093EE039093EF0367
:101B9000A0960FB6F894DEBF0FBECDBFDF91CF91F8
:101BA0001F910F91FF90EF90DF90CF90BF90AF907B
:101BB0009F908F907F906F905F904F900895E12C51
:101BC000F12C0FE713E426CE4F925F926F927F9233
:101BD0008F929F92AF92BF92DF92EF92FF920F93FC
:101BE0001F93CF93DF93E6EDF3E08BE2DF011D92CD
:101BF0008A95E9F780E090E0A6E1B3E486A397A395
:101C0000A0A7B1A78AE097EDA3E2BCE382A393A3C8
:101C1000A4A3B5A387EC9CE8A8E6B7E384839583E7
:101C2000A683B78380EC96EAAEE6B9EF808791870A
:101C3000A287B38787E299EBAAE4B5EB84879587FF
:101C4000A687B7878CE894EDA4E6BBEF808B918BD9
:101C5000A28BB38BAAECB3E0B383A283EAEBF3E0ED
:101C60001196FC93EE938DEE92E0918380839383A3
:101C700082839583848397838683918780879387E4
:101C8000828795878487978786878AEE93E0159663
:101C90009C938E9314978AED93E013969C938E9366
:101CA00012978CEE93E017969C938E93169788E08C
:101CB000882E8BE0982E88E4F40111928A95E9F73A
:101CC000C8E8DAE080E8DE011D928A95E9F7DD24B4
:101CD000D394D092030B90E0A92E92E0B92E80917C
:101CE000480290914902A0914A02B0914B028B8B1D
:101CF0009C8BAD8BBE8B412C512C320143944D8675
:101D00005E866F86788A4FE95AE063E082E00E943F
:101D1000BD03D98A1A8A1B861882D092020B809141
:101D20004C0290914D02A0914E02B0914F028F83D0
:101D30009887A987BA8749825A826B827C8243E955
:101D40005AE063E182E10E94BD03DD821E8218AA8F
:101D5000D092070B49AA5AAA6BAA7CAAE12CF12CB3
:101D60008701A801970165E070E080E090E00E94A3
:101D7000C2019FAB8EABDDAA18A2D092050B49A27F
:101D80005AA26BA27CA2A801970164E070E080E0F7
:101D900090E00E94C2019FA38EA3DDA218A6D0925C
:101DA000060B49A65AA66BA67CA6A801970166E079
:101DB00070E080E090E00E94C2019FA78EA7DDA6A0
:101DC000188ED092040B498E5A8E6B8E7C8EA80191
:101DD000970167E070E080E090E00E94C2019F8F71
:101DE0008E8FDD8E8091740290917502A0917602A3
:101DF000B091770288AF99AFAAAFBBAF8CAF9DAF60
:101E0000AEAFBFAF8093C80A9093C90AA093CA0A25
:101E1000B093CB0A409178025091790260917A0296
:101E200070917B024093E40A5093E50A6093E60ABE
:101E30007093E70AF50180899189A289B38980931B
:101E4000CC0A9093CD0AA093CE0AB093CF0A4093C8
:101E5000E80A5093E90A6093EA0A7093EB0A8093C8
:101E6000D00A9093D10AA093D20AB093D30A84895E
:101E70009589A689B7898093D40A9093D50AA093AF
:101E8000D60AB093D70A848D958DA68DB78D809391
:101E9000D80A9093D90AA093DA0AB093DB0A808D0E
:101EA000918DA28DB38D8093DC0A9093DD0AA0936F
:101EB000DE0AB093DF0A80A191A1A2A1B3A1809311
:101EC000E00A9093E10AA093E20AB093E30A109229
:101ED000010B8FEF9FEFDC018093F80A9093F90AD2
:101EE000A093FA0AB093FB0A1092000B1092FC0A1E
:101EF0001092FD0A1092FE0A1092FF0AD401D896A1
:101F0000ED92FD920D931C93DB97F401E4AEF5AED8
:101F100006AF17AF85E89BEEA1E5BEE38093EC0A20
:101F20009093ED0AA093EE0AB093EF0A8DEC9CEC2F
:101F3000ACECBDE38093F00A9093F10AA093F20A0F
:101F4000B093F30A8F890E94D8048B85DF91CF91DB
:101F50001F910F91FF90EF90DF90BF90AF909F90F7
:101F60008F907F906F905F904F900C94D8048091E9
:101F7000940A811114C081E08093940A8091950A9B
:101F80009091960AA091970AB091980A0197A1059D
:101F9000B10529F48091990A81110E94E50480918C
:101FA000880A811114C081E08093880A8091890A8F
:101FB00090918A0AA0918B0AB0918C0A0197A10591
:101FC000B10529F480918D0A81110E94E504809168
:101FD000B80A81112EC081E08093B80A8091B90AB5
:101FE0009091BA0AA091BB0AB091BC0A0197A105D1
:101FF000B105F9F48091BD0A8823D9F065E070E05D
:1020000080E090E00E947E019093BF0A8093BE0A18
:1020100040E050E0BA010E94470165E070E080E0D6
:1020200090E00E947E019093BF0A8093BE0A0E94B6
:1020300013028091A80A81112EC081E08093A80A22
:102040008091A90A9091AA0AA091AB0AB091AC0A1A
:102050000197A105B105F9F48091AD0A8823D9F063
:1020600064E070E080E090E00E947E019093AF0A0F
:102070008093AE0A40E050E0BA010E94470164E05C
:1020800070E080E090E00E947E019093AF0A809320
:10209000AE0A0E9413028091B00A81112EC081E025
:1020A0008093B00A8091B10A9091B20AA091B30ACC
:1020B000B091B40A0197A105B105F9F48091B50A70
:1020C0008823D9F066E070E080E090E00E947E0115
:1020D0009093B70A8093B60A40E050E0BA010E949C
:1020E000470166E070E080E090E00E947E019093FE
:1020F000B70A8093B60A0E9413028091A00A811148
:102100002EC081E08093A00A8091A10A9091A20A3A
:10211000A091A30AB091A40A0197A105B105F9F411
:102120008091A50A8823D9F067E070E080E090E014
:102130000E947E019093A70A8093A60A40E050E097
:10214000BA010E94470167E070E080E090E00E94E1
:102150007E019093A70A8093A60A0C941302089517
:102160004F925F926F927F928F929F92AF92BF92A7
:10217000CF92DF92EF92FF920F931F93F8944090CB
:102180000D0450900E0460900F0470901004C090E5
:102190000104D0900204E0900304F0900404452B65
:1021A00009F0A4C09B01AC0124193509460957095F
:1021B00029013A010091090410910A0420910B04AD
:1021C00030910C0448015901840C951CA61CB71CC5
:1021D00080169106A206B306A0F4009105041091A2
:1021E000060420910704309108040F5F1F4F2F4F02
:1021F0003F4F009305041093060420930704309387
:1022000008048092090490920A04A0920B04B092F0
:102210000C040091050410910604209107043091EC
:1022200008048092110490921204A0921304B092B8
:10223000140400931504109316042093170430938C
:10224000180460930D0470930E0480930F04909310
:102250001004A0E1B7E2A30192010E94FF3A6C0DC5
:102260007D1D8E1D9F1D6093010470930204809359
:102270000304909304040091B4021091B5022091DC
:10228000B6023091B7020F3F1F4F2F4F3F4FF1F073
:102290000091B4021091B5022091B6023091B702BC
:1022A0000E3F1F4F2F4F3F4F89F0C090B402D09088
:1022B000B502E090B602F090B70221E08C149D04C4
:1022C000AE04BF0408F420E020931D0478941F910D
:1022D0000F91FF90EF90DF90CF90BF90AF909F90C5
:1022E0008F907F906F905F904F9008954B015C01AD
:1022F00084189508A608B708A3019201261B370B7E
:10230000480B590B6415750586059705D0F08216A4
:102310009306A406B50640F420E030E0A90181143C
:102320009104A104B10491F4A0E1B7E20E94FF3A44
:10233000A7019601261B370B480B590BCA01B9019F
:10234000C5CF82169306A406B50670F7A0E1B7E2E2
:10235000A50194010E94FF3A6C0D7D1D8E1D9F1DED
:10236000B5CFFECECF93DF9300D01F92CDB7DEB7AF
:102370001C821B821A8219821092190410921A046C
:1023800010921B0410921C04BE016F5F7F4FCE01A0
:1023900003960E94AD2E69817A818B819C810E9477
:1023A0009B27009761F4BE016F5F7F4FCE010396BC
:1023B0000E94B92E69817A818B819C812ED50F90E4
:1023C0000F900F900F90DF91CF910895FF920F9390
:1023D0001F93CF93DF93082F60E070E0CB010E9442
:1023E000FE34FF24F3940E948426EC01892B89F0AB
:1023F00010E0CE3F8FEFD80769F0002361F160E075
:1024000070E0CB010E94FE3481E090E0892B59F30B
:1024100022C011E025D5EC01892B21F0CE3F8FEFB2
:10242000D80759F711111EC011E0229609F410E0E7
:102430000E943426EC01892B21F0CE3F8FEFD80784
:10244000E1F6111111C011E0CE3F8FEFD80709F46A
:1024500010E001110BC0CE01DF91CF911F910F91C0
:10246000FF90089511E0E4CF11E0F3CF60E070E059
:10247000CB010E94FE341F25812F90E0C7CFCF9360
:10248000DF9380911D04882321F060E070E0CB0190
:102490004CD635D6D0E0C0E0892B71F06AE070E010
:1024A00080E090E00E94FE3481E090DF28D6219603
:1024B000C03D27E0D20781F727D60E94EF27109270
:1024C00035041092340410922E0410922F041092AE
:1024D00030041092310410922A0410922B041092AE
:1024E0002C0410922D0410922604109227041092AE
:1024F00028041092290410922204109223041092AE
:1025000024041092250410921E0410921F041092AD
:102510002004109221044EEF5FEF6FEF7FEF4093A6
:10252000B4025093B5026093B6027093B702109252
:102530001D04E1E1F4E028E0DF011D922A95E9F7AE
:1025400010920D0410920E0410920F0410921004B9
:102550001092090410920A0410920B0410920C04B9
:1025600010920504109206041092070410920804B9
:1025700010920104109202041092030410920404B9
:10258000DF91CF910895109241041092420410926D
:1025900043041092440410924004809149049091A5
:1025A0004A0490933F0480933E0410923D0410929D
:1025B0003C04109238041092390410923A0410929C
:1025C0003B04109246041092450490E080E0089588
:1025D000CF92DF92EF92FF920F931F93CF938C01D4
:1025E000892B09F055C02091490430914A0480910B
:1025F0003E0490913F044091490450914A04509305
:102600003F0440933E042817390781F010923D049F
:1026100010923C04109238041092390410923A043B
:1026200010923B0410924604109245048091490494
:1026300090914A04019761F5809145049091460478
:10264000892B21F48091B802811112C08091450438
:10265000909146040197E1F48091380490913904F7
:10266000A0913A04B0913B040197A105B10581F412
:10267000109238041092390410923A0410923B04DC
:102680001092B80282E090E0909346048093450453
:102690008091490490914A04019709F01CC18091EE
:1026A0005F04909160048017910709F014C1809134
:1026B0005B0490915C04A0915D04B0915E0400976E
:1026C00009F409C120915A0421110DC040915B0405
:1026D00050915C0460915D0470915E04452B462B23
:1026E000472B09F4F8C0209145043091460422306C
:1026F000310509F0F0C020913C042111ECC0FC012F
:10270000C080D180E280F38080914004882309F466
:10271000D3C080914C0490914D04892B09F4FDC0E5
:1027200020914C0430914D0481E02230310509F0B4
:1027300080E020914C0430914D04C1E021303105FE
:1027400049F020914C0430914D04C1E02230310514
:1027500009F0C0E0882309F456C020915604309156
:1027600057044091580450915904C701B6010E9482
:102770000B3287FD14C020915604309157044091CC
:102780005804509159046091410470914204809121
:102790004304909144040E94E83087FD22C02091B8
:1027A0005604309157044091580450915904C70180
:1027B000B6010E940B32181634F520915604309160
:1027C000570440915804509159046091410470910C
:1027D000420480914304909144040E94E8308111A6
:1027E00012C080914E0490914F04A0915004B0917A
:1027F0005104892B8A2B8B2B19F481E080933D04A3
:1028000081E080933C04CC2309F456C02091560407
:10281000309157044091580450915904C701B601B2
:102820000E94E83087FF14C020915604309157046D
:1028300040915804509159046091410470914204B0
:1028400080914304909144040E940B3287FF22C080
:1028500020915604309157044091580450915904E6
:10286000C701B6010E94E830811126C020915604AC
:10287000309157044091580450915904609141049B
:102880007091420480914304909144040E940B3261
:10289000181694F480914E0490914F04A091500426
:1028A000B0915104892B8A2B8B2B19F481E08093F2
:1028B0003D0481E080933C0481E090913C049111BF
:1028C00080E080934004C0924104D0924204E092A0
:1028D0004304F0924404012B09F067C18091450440
:1028E00090914604892BD9F410924B0410923C0429
:1028F0008091B802882379F082E090E090934604BA
:10290000809345041092B8022091490430914A0402
:1029100081E0232BE9F080E01BC081E00ACF109218
:10292000B80280914B04882349F010923D04109224
:1029300046041092450410924B04EDCF8091490457
:1029400090914A04892BE1F080913C0410923C0460
:1029500020914504309146042230310509F45EC0CF
:1029600088F42115310509F448C02130310509F4F6
:10297000F3C010923D0410923C0410924B0438C0F6
:1029800081E0E6CF2330310509F4B1C024303105B0
:1029900081F7409138045091390460913A04709164
:1029A0003B04411551056105710561F04150510924
:1029B00061097109409338045093390460933A04D3
:1029C00070933B04409138045091390460913A046B
:1029D00070913B04452B462B472BD9F4209147049B
:1029E000309148042130310509F046C010923D0471
:1029F00010924604109245040CC08091B8028823BE
:102A000041F082E090E09093460480934504109258
:102A1000B8021092360480913D04CEC08823C9F3D9
:102A200080914E0490914F04A0915004B0915104B4
:102A3000181619061A061B060CF07DC08091490471
:102A400090914A04019709F076C080914E049091CC
:102A50004F04A0915004B091510480933804909396
:102A60003904A0933A04B0933B0483E090E0909340
:102A7000460480934504CDCF4091520450915304B5
:102A80006091540470915504452B462B472BA9F0B7
:102A900010923D048091520490915304A0915404EB
:102AA000B09155048093380490933904A0933A046C
:102AB000B0933B0481E090E0DACF882399F08091D5
:102AC000B9029091BA02A091BB02B091BC0280936E
:102AD000380490933904A0933A04B0933B0484E003
:102AE00090E0C5CF10923D0482E090E0C0CF80918D
:102AF000380490913904A0913A04B0913B040097B6
:102B0000A105B10559F00197A109B10980933804D5
:102B100090933904A0933A04B0933B048091380415
:102B200090913904A0913A04B0913B04892B8A2BEF
:102B30008B2B09F06ECF8091B9029091BA02A091CF
:102B4000BB02B091BC02892B8A2B8B2B09F44ECF90
:102B500081E080933D04B3CF409138045091390413
:102B600060913A0470913B0441155105610571056E
:102B700061F0415051096109710940933804509343
:102B8000390460933A0470933B04409138045091A7
:102B9000390460913A0470913B04452B462B472B36
:102BA00009F037CF8111C7CF9FCF8091360488239A
:102BB00009F431CF80913704CF911F910F91FF908D
:102BC000EF90DF90CF90089510924104109242044C
:102BD0001092430410924404109240041092460450
:102BE0001092450410923F0410923E04109260042B
:102BF00010925F0410923D0410923C04109238042D
:102C00001092390410923A0410923B041092370447
:102C10001092360410925B0410925C0410925D04D2
:102C200010925E0410925A041092560410925704A7
:102C3000109258041092590488EE93E0A0E0B0E09E
:102C40008093B9029093BA02A093BB02B093BC02E6
:102C5000109252041092530410925404109255048E
:102C600010924E0410924F0410925004109251048E
:102C700010924D0410924C0481E08093B80210929F
:102C80004B0410924A041092490410924804109286
:102C9000470490E080E008958091490490914A04AF
:102CA000892B19F58091B802882351F080914B044B
:102CB000811106C081E08093370480933604089523
:102CC00020914B043091B80281E090E0332311F061
:102CD00090E080E030E082239323892B21F0109252
:102CE000370481E0EACF10923604089582E090E044
:102CF000FA01918380838FEF9FEF0895CF93DF9345
:102D0000EA01009711F00E940F291982188290E0C1
:102D100080E0DF91CF910895DB01009719F48FEFE8
:102D20008C9308952EEF2C93FC013F96EF30F10524
:102D300008F034C08827E056F94E8F4F0C94F73ACC
:102D4000CC16CA16C816C616C416C016C216BE16AB
:102D5000BC16BA16B716B316AF16B516CE1680E364
:102D600011968C93089589E2FBCF82E2F9CF1196F8
:102D70001C92089583E2F4CF81E2F2CF81E1F0CF9B
:102D800087E2EECF8AE2ECCF80E1EACF84E2E8CFBF
:102D900088E2E6CF86E2E4CF81E3E2CF80E2E0CFD3
:102DA00080916D0490916E04089590936E048093C9
:102DB0006D04089580916C04089590916C04892BA2
:102DC00080936C040895982F909580916C048923CA
:102DD00080936C04089580916B0408958091690438
:102DE00090916A0408956115710559F0FB0130E076
:102DF00020E070E060E02417350719F061157105D7
:102E000011F0CB010895A081B181A817B90709F489
:102E1000BF012F5F3F4F3696EECF80916F04811137
:102E20001CC060D266D290936204809361040E94B9
:102E30000D210E941F2190936604809365040E94D7
:102E40009C250E94A325909364048093630481E0F1
:102E500080936F0490E080E0089584EF9FEF0895E1
:102E60008F929F92AF92BF92CF92DF92EF92FF929A
:102E70000F931F93CF93DF9300D000D000D01F9209
:102E8000CDB7DEB71A86198618861F821E821D826C
:102E90001C821B821A82198280916F0407EF1FEF38
:102EA000882309F49CC08E010D5F1F4F9E012B5F8C
:102EB0003F4FAE01495F5F4FBE01675F7F4F90E0BC
:102EC00080E00E9420278C01009721F00596029750
:102ED00008F0DBC029853A852115310509F402C1C6
:102EE000ED80FE804B815C81B701640F751F8F817F
:102EF00098858617970708F4F5C0E20EF31ED701F0
:102F00009C91903C09F07FC04230510508F47BC091
:102F100011968C9140916D0450916E04452B09F4EB
:102F20009CC0913F08F071C02CE1290F2D3008F4AE
:102F30008BC02DE2290F203108F489C0903C21F488
:102F40008150823008F483C088E3890F8B3008F405
:102F500081C09CE8C92E96E1D92EE6E7F6E16D81A5
:102F60007E81AE014F5F5F4F89859A8519955C011F
:102F7000C114D104A1F189809A808114910479F15E
:102F80008B819C818815990508F487C010E000E0CA
:102F90004B815C8170E060E0C7010E94213B01151C
:102FA0001105E9F449815A8169857A858D819E816F
:102FB000680F791FC501F6011995E980FA800D8126
:102FC0001E812F81388549855A856FEF7FEF81E01B
:102FD00090E00E94BB268C01892B09F056C0C801E5
:102FE0002A960FB6F894DEBF0FBECDBFDF91CF910A
:102FF0001F910F91FF90EF90DF90CF90BF90AF9017
:103000009F908F90089580E085CF30E020E0220FE0
:10301000331FF901EF59FB4F0190F081E02D3097FC
:1030200009F497CF892F90E01995009709F491CF73
:10303000DC011296ED91FC9113971496CD90DC90E3
:10304000309709F08CCF1FC021E030E0E0CF22E0C4
:1030500030E0DDCF23E030E0DACFD12CC12CEEE739
:10306000F6E19F3F09F07BCFE0916104F0916204AB
:10307000309721F4C90104EF1FEF0CC08FEF90E0EF
:1030800019950097A9F604EF1FEF89859A85009797
:1030900009F4A5CF0E940F29A2CF0E94EA278C0134
:1030A00089859A850E940F2970E060E0C4010E9422
:1030B000832798878F830E94B8269E838D836F8194
:1030C00078856115710559F0C8010E949B2A9A877D
:1030D000898706EF1FEF892B09F058CF59CF08EFEA
:1030E0001FEF56CF08EF1FEFD0CF20916F042223A0
:1030F00019F020E00C94242187EF9FEF0895809130
:103100006D0490916E0408950E94A8250E940225E6
:10311000F5D0E1E6F4E088E0DF011D928A95E9F759
:1031200010926F0490E080E008950C94602321E0F9
:1031300040E050E0BA010C94242186E090E0FA01CE
:103140009183808390E080E0089547E050E060EF55
:1031500072E049CEDF92EF92FF920F931F93CF93CD
:10316000DF938A01EC01C60FD71FE0907304F09043
:103170007404D9800E94D227D816190678F082E00C
:1031800090E0F801918380838EEF9FEFDF91CF91E4
:103190001F910F91FF90EF90DF900895EF2841F479
:1031A00082E090E0F8019183808384EF9FEFEECF7F
:1031B00089818093720490E00196F8019183808365
:1031C00090E080E0E3CFCF93DF93EA010E941124E7
:1031D000882321F00E94DF270E94122482E090E0E1
:1031E000998388838BEF9FEFDF91CF910895CF93E1
:1031F000DF93EB0186E0FB0111928A95E9F78FEFEF
:103200008883D8DD8983E7DD8A83E8DD9D838C832D
:10321000DF91CF910895CF93DF93EA010E941424A8
:10322000811109C082E090E09983888385EF9FEF48
:10323000DF91CF91089590E080E0B7DD81E090E0EC
:103240009983888390E080E0F3CF0F931F93CF930F
:10325000DF93EA018C01060F171F0E9414248111CD
:103260000BC082E090E09983888385EF9FEFDF9128
:10327000CF911F910F910895F8018181823038F02C
:1032800082E090E0998388838EEF9FEFF0CF81E01A
:1032900090E08BDD88E090E09983888390E080E087
:1032A000E6CFCF93DF930097D1F4EB01FB01329689
:1032B00086E0DF011D928A95E9F78FEF888385E02C
:1032C00089831A820E94D2278B830E94D1279D83F3
:1032D0008C8381E08E838F83DF91CF910895DF917E
:1032E000CF911ACD85EA98E1909371048093700490
:1032F0000895809170049091710408951092710462
:10330000109270040895809173049091740408954C
:10331000411105C0611571058105910561F060934A
:1033200073047093740480937504909376044093AF
:10333000770481E0089580E00895FF920F931F9332
:10334000CF93DF938A01EC01C60FD71FF9800E944B
:10335000D227F816190668F082E090E0F801918310
:1033600080838EEF9FEFDF91CF911F910F91FF90A0
:1033700008956C817D818E819F814B81C9DF811190
:1033800008C082E090E0F8019183808384EF9FEF92
:10339000EACF89818093720490E00196F8019183CD
:1033A000808390E080E0DFCFCF93DF93EA01FC01E0
:1033B000E60FF71F64817581868197814381A8DFBD
:1033C000811109C082E090E09983888384EF9FEFA8
:1033D000DF91CF91089581E090E09983888390E018
:1033E00080E0F6CFE3E7F4E04081518162817381B0
:1033F000480F511D611D711D40835183628373838A
:103400000895CF93C09172044C2F50E060917304E3
:103410007091740401960E94183B8C2FE3DF109288
:103420007204CF910895009799F48091730490915C
:1034300074042FEFFB012083892B59F02091720433
:1034400030E02F5F3F4F2417350719F4CB01D9CF58
:1034500063CC0895009799F480917304909174045B
:103460002FEFFB012083892B59F02091720430E06B
:103470002F5F3F4F2417350719F4CB01C2CF4CCC37
:10348000089523E1AC01249FC001259F900D1124D4
:10349000E0917C04F0917D04E80FF91F23813481D1
:1034A0002250310981E02230310508F080E0089592
:1034B0000F931F93CF93DF9300917E0410917F04AD
:1034C000D0E0C0E080E00C171D0749F491E08111C5
:1034D00090E0892FDF91CF911F910F910895811175
:1034E000F5CFCE01CEDF2196EECFA0917C04B09136
:1034F0007D04109729F120917E0430917F0482177A
:103500009307F0F453E1589F9001599F300D112417
:10351000A20FB31FED91FC911197309789F012968D
:103520008C91681768F48DE0689FE00DF11D1124FF
:1035300080819181892B21F081E09281491708F0E7
:1035400080E008959C0143E1429FC001439F900D9C
:103550001124E0917C04F0917D04E80FF91F83852C
:10356000823091F481E090E0658176814091BD02E6
:103570005091BE026417750711F490E080E0892B2A
:1035800019F081E0232B09F080E00895FC01A0816F
:10359000B1818DE0689FA00DB11D112413964D914E
:1035A0005C9185859685489F9001499F300D589F75
:1035B000300D1124C9010196611103C0478144FDFA
:1035C00004960895EF92FF920F931F93CF93DF938A
:1035D000EA01FC01E60FF71F02811381E480F58008
:1035E0004F2D6E2DC80181DF81110DC082E090E06A
:1035F000998388838EEF9FEFDF91CF911F910F9179
:10360000FF90EF900895C8013CDF882339F082E0F5
:1036100090E09983888388EF9FEFEECF1093C402E8
:103620000093C302E092C502F092C60281E090E0EE
:103630009983888390E080E0DFCFCF92DF92EF9292
:10364000FF920F931F93CF93DF937A01EC01C60F84
:10365000D71FC090C302D090C4020091C502109140
:10366000C602412F602FC60140DF811110C082E0E9
:1036700090E0F701918380838AEF9FEFDF91CF91F4
:103680001F910F91FF90EF90DF90CF900895C601AA
:10369000F8DE882341F082E090E0F7019183808397
:1036A00088EF9FEFEBCF4C815D816E817F819A81A6
:1036B00089818F3F41F082E090E0F7019183808320
:1036C0008EEF9FEFDBCFE3E1EC9D9001ED9D300DA0
:1036D0001124E0917C04F0917D04E20FF31F01902E
:1036E000F081E02D2DE0029FE00DF11D11240190ED
:1036F000F081E02D27E0129FE00DF11D1124808361
:1037000091838B81828343835483658376831F5F98
:103710001093C60281E090E0F7019183808390E0EE
:1037200080E0ACCFEF92FF920F931F93CF93DF9384
:103730007A018C01060F171FC0917C04D0917D0483
:10374000209781F021E030E0F8018281938140915F
:103750007E0450917F048417950710F030E020E03C
:10376000232B71F482E090E0F701918380838EEF48
:103770009FEFDF91CF911F910F91FF90EF900895F0
:1037800043E1489F9001499F300D1124C20FD31F80
:1037900078DE882341F082E090E0F7019183808316
:1037A00088EF9FEFE6CFF80124813581203831057D
:1037B000C8F687818111D6CF4181842F90E08F7E1A
:1037C000009741F082E090E0F7019183808386EFDB
:1037D0009FEFCFCF4F833E832D8326812887198685
:1037E000223010F421E0288721E030E0F701318316
:1037F0002083BFCF88E090E0FA019183808390E03E
:1038000080E00895FB018FEF808381E181838FEF5A
:103810009FEF9383828380E890E095838483168270
:1038200017820895FB018FEF808391E0918382835B
:103830009383848384E3858381E090E09783868308
:103840000895DF92EF92FF920F931F93CF93DF9330
:10385000EA01FC01E60FF71F8181813071F082E0FF
:1038600090E0998388838FEF9FEFDF91CF911F9135
:103870000F91FF90EF90DF90089582819381D48023
:103880002581E680F78000917C0410917D0401156C
:10389000110539F482E090E0998388838CEF9FEFE3
:1038A000E4CF40917E0450917F048417950738F04F
:1038B00082E090E0998388838EEF9FEFD6CF892BAB
:1038C00039F082E090E09983888386EF9FEFCDCF37
:1038D0008D2D8D7FB1F72130A1F781E0D11006C089
:1038E00091E0E916F10431F080E004C0E2E0EE1668
:1038F000F104D0F3882329F390E080E0C2DD88232F
:1039000039F082E090E09983888388EF9FEFADCF14
:10391000F801D38681E08487F686E586108A1786CB
:1039200081E090E09983888390E080E09ECF4CE036
:1039300050E06AE173E057CA8F929F92BF92CF9294
:10394000DF92EF92FF920F931F93CF93DF93EA01E1
:10395000FC01E60FF71F828193810481B580E0911D
:103960007C04F0917D04309791F482E090E099839B
:1039700088838CEF9FEFDF91CF911F910F91FF9084
:10398000EF90DF90CF90BF909F908F9008952091FF
:103990007E0430917F048217930738F082E090E034
:1039A000998388838EEF9FEFE6CF23E1289F600104
:1039B000299FD00C1124EC0DFD1DE080F180E11455
:1039C000F10499F28281081748F78DE0089F800181
:1039D0001124E00EF11EF70180819181892B29F6D7
:1039E000BB20E1F2F7E0BF9E40011124C4010E9418
:1039F000D628F70191838083E0917C04F0917D04C7
:103A0000EC0DFD1D0190F081E02DE00FF11F808194
:103A10009181009739F482E090E0998388838DEF5B
:103A20009FEFA9CFA40170E060E00E94213B80914C
:103A30007C0490917D04C80ED91EF601808191818D
:103A4000080F191FF801B28281E090E09983888302
:103A500090E080E090CFAF92BF92CF92DF92FF9242
:103A60000F931F93CF93DF93EA01FC01E60FF71F3B
:103A700082819381F48000917C0410917D04011572
:103A8000110581F482E090E0998388838CEF9FEFA9
:103A9000DF91CF911F910F91FF90DF90CF90BF905A
:103AA000AF90089520917E0430917F048217930790
:103AB00038F082E090E0998388838EEF9FEFE8CF23
:103AC0002FEF2F0D2C3FA8F723E1289F6001299F9E
:103AD000D00C11240C0D1D1DF80180819181892BC2
:103AE00089F6FDE0FF9E50011124C5010E94D628F1
:103AF000F80191838083E0917C04F0917D04EC0DCA
:103B0000FD1D80819181009739F482E090E09983D6
:103B100088838DEF9FEFBCCFA50170E060E00E942D
:103B2000213BE0917C04F0917D04EC0DFD1DF282BF
:103B300081E090E09983888390E080E0A9CFCF92E4
:103B4000DF92EF92FF920F931F93CF93DF93860F35
:103B5000971FFC010281138180917C0490917D0468
:103B6000892B81F082E090E0FA01918380838CEFD1
:103B70009FEFDF91CF911F910F91FF90EF90DF901A
:103B8000CF900895C801B0E0A0E00197A109B10964
:103B90008F3F9F4FA105B10540F082E090E0FA0110
:103BA000918380838EEF9FEFE4CF7A0183E1809F42
:103BB0006001819FD00C1124C6010E94D628EC011F
:103BC000009741F482E090E0F701918380838DEFCC
:103BD0009FEFCFCFA60170E060E00E94213BD09321
:103BE0007D04C0937C0410937F0400937E0490E0D6
:103BF00080E02FEF3FEF41E061E070E08017910738
:103C000041F481E090E0F7019183808390E080E0CF
:103C1000B0CF3A8B298B1B864C877E876D87188A9D
:103C20001F8601966396EACFEF92FF921F93CF9380
:103C3000DF93EC0110E0F12CE12C6A811617B0F053
:103C400083E0689FB0011124AE014F5E5F4FC70152
:103C50000E943B29009721F02FEF3FEF3A8B298BF1
:103C6000DF91CF911F91FF90EF900895612FCE01CA
:103C70008DDC61E070E00E948327E816F90608F405
:103C80007C011F5FDACFF89420917A0430917B0495
:103C900081E02115310509F080E0232B09F07894AB
:103CA00008952F923F924F925F926F927F928F92E0
:103CB0009F92AF92BF92CF92DF92EF92FF920F93BB
:103CC0001F93CF93DF933C01660E771EF301828131
:103CD00093814C01B12CA12CC0917C04D0917D0426
:103CE000209769F021E030E060917E0470917F04BC
:103CF0008617970710F030E020E0232BD1F482E004
:103D000090E0FA01918380838EEF9FEFDF91CF9156
:103D10001F910F91FF90EF90DF90CF90BF90AF90E9
:103D20009F908F907F906F905F904F903F902F90DB
:103D300008958092C7029092C802A092C902B092E0
:103D4000CA0263E1689F9001699F300D1124C20F80
:103D5000D31FF3018181833040F082E090E0FA01CB
:103D60009183808386EF9FEFD1CF2A012B813C8105
:103D7000232BF1F4288139819F8191FF2EC0232BC1
:103D800009F46FC0209181049A81422F490F552771
:103D9000551FBA0141E050E06138710514F050E060
:103DA00040E0452B09F45DC02A87920F909381046F
:103DB0008150823008F481C066DF882309F4D8C0BE
:103DC000F3018181813009F48DC008F47BC0823019
:103DD00009F4C6C090E080E0ADC0232B09F441C0D7
:103DE000209180049A81E22FE90FFF27FF1F41E015
:103DF00050E0ED3FF10514F050E040E0452B89F133
:103E00002A87920F90938004D3CFA081B181A20F13
:103E1000B31F11966C91060F111D0196295F3F4F3C
:103E20008417950794F38D859E85089F1001099F3F
:103E3000300C189F300C1124C114D104D1F48F819F
:103E400084FF17C00E94D127F5E02F0E311C21E01E
:103E50008215930508F420E0A701435F5F4F21110D
:103E60000EC082E090E0F2019183808387EF9FEFA4
:103E70004DCF0E94D1272FEF221A320AE8CF888136
:103E80009981E80EF91EF70114830383FFEFCF1A1F
:103E9000DF0A7A018A818C151D0409F00CF48CCF9D
:103EA000E881F981EE0DFF1D428150E030E020E015
:103EB00010E000E090E080E0B3CFF12CE12CD12CB9
:103EC000C12CE8CF81E090E09C838B83F1DA8823DA
:103ED00009F480CF81E090E00E94D51680E40E9432
:103EE000E31678CF89899A89019661F083E090E0A2
:103EF0009C838B8382E090E00E94D51680E40E9430
:103F0000DD1668CF8D819E812091BD023091BE0269
:103F100082179307D1F46091C1027091C202AE0181
:103F20004F5E5F4F8091BF029091C0020E945A2A5B
:103F30000097E1F2789422E030E0F20131832083AF
:103F4000892B99F08DEF9FEFE1CE89288A288B2865
:103F500069F6892B59F6CE0167DE188A1F86E8CFED
:103F600082E090E09C838B8335CF90E080E0CECEE2
:103F700082E090E0F2019183808385EF9FEFC6CECF
:103F80008F929F92AF92BF92CF92DF92EF92FF9269
:103F90000F931F93CF93DF93EA018C01060F171F36
:103FA000F8018181833098F082E090E099838883E2
:103FB00086EF9FEFDF91CF911F910F91FF90EF90D0
:103FC000DF90CF90BF90AF909F908F900895809199
:103FD0007C0490917D04892B61F081E090E0209138
:103FE0007E0430917F04232B11F490E080E0892B34
:103FF00039F482E090E0998388838EEF9FEFDACFE7
:1040000042DE882309F4DFC0F8018181813009F4A0
:1040100095C0E8F0823099F420917E0430917F04BD
:10402000E0917C04F0917D0490E080E041E050E07C
:104030002817390709F0BDC03BDA811117C0789401
:1040400081E090E09983888390E080E0B3CF209175
:104050007E0430917F04E0917C04F0917D0490E037
:1040600080E041E050E02817390741F481E090E01A
:104070000E94D51680E40E94E316E1CF638174812B
:10408000672B11F05483438301967396ECCFE09134
:104090007C04F0917D04E00FF11F238134812230F4
:1040A0003105D9F4218932892F3F3F4FB1F4258161
:1040B00036814091BD025091BE022417350761F54B
:1040C000AF014F5E5F4F6091C1027091C20280915B
:1040D000BF029091C0020E945A2AEFEFCE1ADE0A68
:1040E000EE0AFE0A0D5E1F4F40917E0450917F0440
:1040F00070E060E0C416D506E606F7063CF50097CA
:1041000031F27894892B09F49BCF82E090E0998377
:1041100088838DEF9FEF4ECFC114D104E104F104E9
:10412000E1F6232BD1F6CF017FDDE0917C04F09105
:104130007D04E00FF11F108A1786CFCF10E000E05A
:1041400090E080E0C12CD12C7601CECF0097C9F64B
:1041500010E000E0812C912C540183E0E82EF12C3A
:104160001AC0E0917C04F0917D04E00FF11F83817F
:104170009481029749F4F482E38282E090E00E9405
:10418000D51680E40E94DD16FFEF8F1A9F0AAF0A52
:10419000BF0A0D5E1F4F80917E0490917F04B0E0B6
:1041A000A0E088169906AA06BB06DCF290E080E043
:1041B000A8CF638174816230710511F45483438305
:1041C0000196739635CF82E090E09983888385EFDE
:1041D0009FEFF0CE0097B9F48FEFFB018083209121
:1041E000C7023091C80243E1429FC001439F900D36
:1041F0001124E0917C04F0917D04E80FF91F828581
:10420000FB01818308950C948C1688E090E0FA01FC
:104210009183808390E080E0089510927B04109257
:104220007A04ECE7F4E086E0DF011D928A95E9F775
:1042300087E99CE1909379048093780408958091B4
:1042400078049091790408952F923F924F925F9253
:104250006F927F928F929F92AF92BF92CF92DF9296
:10426000EF92FF920F931F93CF93DF93CDB7DEB7FB
:104270002F970FB6F894DEBF0FBECDBFF894E09134
:104280007A04F0917B043196F0937B04E0937A04F6
:10429000789440907C0450907D044114510409F4BA
:1042A0000CC2E0917E04F0917F04EF2B09F405C26B
:1042B0002D8749875A876B877C8798878F83120160
:1042C000B12CA12C10E000E080917E0490917F043D
:1042D000A816B90618F40115110529F1F894809172
:1042E0007A0490917B04019790937B0480937A04E5
:1042F0007894C8012F960FB6F894DEBF0FBECDBFDD
:10430000DF91CF911F910F91FF90EF90DF90CF90B1
:10431000BF90AF909F908F907F906F905F904F90E5
:104320003F902F9008957101E418F508D101179678
:104330008C91179781FD54C013968D919C91149781
:10434000039709F04DC015968D919C91EF81F885EA
:104350008E179F0709F044C0B50190E080E07FD43C
:104360008A8320917C0430917D043D832C833D859C
:10437000332309F44CC04C815D81452B09F49AC16B
:1043800080917E0490917F04A816B90608F092C12E
:10439000C501D8D88823E9F06C817D816E0D7F1D21
:1043A0007D836C83DB011F968D919C91892B89F015
:1043B000D12CC12CF12CE12CAC81BD8112968C91B9
:1043C00012978E151F0409F094F450961C921E92B9
:1043D0001F972A81222321F0B50190E080E041D48B
:1043E0003FEFA31AB30A43E1240E311C6DCFAC8119
:1043F000BD81ED91FC91EC0DFD1D858196810FD75E
:10440000BFEFEB1AFB0AEDE0CE0ED11CD5CFEC814D
:10441000FD81309709F44EC180917E0490917F0414
:10442000A816B90608F046C1EE0DFF1DFF87EE87FE
:10443000C50188D88B83882339F1AE85BF851F9647
:104440008D919C915097019621E01D964D915C9124
:104450008417950709F020E02E831982712C10E053
:1044600000E0AE85BF8512968C91781608F45DC089
:10447000EE85FF85878590890196658576850E9402
:10448000C13A908B8787A5CFB1E0BE83E6CF992450
:1044900093946BC08BD6F6019683858382C0D60138
:1044A000ED90FC90B7E06B9EE00CF11C1124F7013D
:1044B0006381748180818F3F61F121E030E002C02F
:1044C000220F331F8A95E2F7C901092E000CAA0BAF
:1044D000BB0BFB0140815181628173818423952351
:1044E000A623B72321E0892B8A2B8B2B09F420E00C
:1044F000D4012C93D70111968C91F6012385348534
:10450000820F932F911D880E991E14861386639433
:104510009BC0418150E0C4010E94183BEBCF9982BF
:1045200006EF1FEFC5C01982C3C0F981F111A0CFFA
:10453000EDE07E9E70011124AE85BF85CD90DC90AC
:10454000CE0CDF1C15D49D838C83BB81BB2309F467
:104550009ECF81E0EE85FF8527853089232B09F0EA
:1045600080E0982E882309F458C0672D8E859F859A
:104570000DD8D60118969C938E93179761E070E042
:10458000C2D4EE85FF85218932892F3F320709F495
:1045900081CFBC01C901CFD7D60116969C938E93CB
:1045A0001597D60115968D919C911697009709F451
:1045B000B6CFEC81FD818E0F9F1F1A969C938E9330
:1045C0001997AE85BF85ED91FC911197EE0EFF1EF8
:1045D000F70121853285148613861A968C91870DF2
:1045E000D9018D93711016C0EE85FF85878184FFF8
:1045F00011C049855A856B857C85F90141835283B9
:1046000063837483F701838594850496A80FB91F8B
:1046100014861386F701B287A187D60115968D916E
:104620009C911697892B09F443C0EE85FF8525815F
:1046300036818091BD029091BE022817390779F02A
:1046400019968D909C90612CD60112968C911297A0
:10465000681608F424CF1A969C928E921997BE8100
:10466000BB2309F460CF61E070E0F601878190859B
:104670004AD4D6011796ED90FC90189715964D9157
:104680005C91E1E0F0E0BA81BB2311F0F0E0E0E002
:104690000C811D819C01B501882799278E1B9F0BDA
:1046A0006AD38C01892B21F0F60185819681B7D5DB
:1046B0007394D7CE0FEF1FEF8CCE10E000E00ECE3C
:1046C0002F923F924F925F926F927F928F929F9222
:1046D000AF92BF92CF92DF92EF92FF920F931F9310
:1046E000CF93DF9380917C0490917D0410E000E0F3
:1046F000892BA9F0C8DA0AEF1FEF882381F02090F8
:104700007E0430907F04C0917C04D0917D04D12C34
:10471000C12C10E000E02C143D04A9F47894C801E9
:10472000DF91CF911F910F91FF90EF90DF90CF908D
:10473000BF90AF909F908F907F906F905F904F90C1
:104740003F902F900895C6010E94A21A882309F174
:104750008B819C810397E9F48F859889892BC9F017
:10476000B60190E080E07BD221E030E0882311F0B8
:1047700030E020E044245524421A530AB12CA12CE5
:10478000912C812C8A818815190409F038F4188A33
:104790001F864FEFC41AD40A6396BDCFE881F98112
:1047A000EA0DFB1D85819681892BA1F161E070E006
:1047B00087819085A8D33C01DBD28C01E881F98107
:1047C000EA0DFB1D8185928525813681200F311FE1
:1047D000AC01421B530B9A0147815085421B530B7E
:1047E00070E060E00E94213BE881F981EA0DFB1D49
:1047F000E780F084458156819301B601C201BBD2A6
:104800008C01892B39F0E881F981EA0DFB1D858146
:10481000968105D55FEF851A950A8DE0A80EB11C2B
:10482000B1CF31CA789408952F923F924F925F9200
:104830006F927F929F92AF92BF92CF92DF92EF9250
:10484000FF920F931F93CF93DF9300D000D0CDB78B
:10485000DEB700917C0410917D0499249394011596
:10486000110509F43EC0A0907E04B0907F040BDADD
:10487000982E8823B1F110927D0410927C0410923E
:104880007F0410927E0410928004109281048FEFB6
:104890009FEFDC018093C7029093C802A093C902E6
:1048A000B093CA0278947FD31E830D83C12CD12C80
:1048B0007601C501B0E0A0E089839A83AB83BC8315
:1048C00022242A94322C89819A81AB81BC81C8161A
:1048D000D906EA06FB06F4F0C801A1D480E40E94E0
:1048E000E316892D26960FB6F894DEBF0FBECDBF16
:1048F000DF91CF911F910F91FF90EF90DF90CF90BC
:10490000BF90AF909F907F906F905F904F903F903F
:104910002F900895AD81BE8115968D919C9116972B
:104920002091BD023091BE0282179307D1F45196B7
:104930008D919C91EED5ED81FE8180819181B12C8C
:10494000A12C412C512C3201892B89F5BFEFCB1AB8
:10495000DB0AEB0AFB0AED81FE817396FE83ED8391
:10496000B2CFC114D104E104F10429F7892B19F75E
:10497000ED81FE81818992898F3F980709F029D5C1
:10498000AD81BE8152963C922E925197D4CF8A0D22
:104990009B1DDC018D919C91009709F040D4BFEFE5
:1049A0004B1A5B0A6B0A7B0AEDE0AE0EB11CAD81BF
:1049B000BE818D919C91119712964C9150E070E0C0
:1049C00060E044165506660677060CF328D4BECF81
:1049D000CF93DF93EA0128DF811109C082E090E0E4
:1049E0009983888385EF9FEFDF91CF91089581E0D0
:1049F00090E00E94D51681E090E09983888390E052
:104A000080E0F2CF11DF10927904109278040895BB
:104A100042E050E062E673E00C94F316FF920F93CD
:104A20001F93CF93DF938A01EC01C60FD71FF98044
:104A3000B9D20897F816190671F068F082E090E094
:104A4000F801918380838EEF9FEFDF91CF911F91CB
:104A50000F91FF9008956C817D818E819F814B81A4
:104A60000E948819811108C082E090E0F8019183CA
:104A7000808384EF9FEFE9CFF9800E9483194F2D47
:104A800050E0BE01685F7F4F0E94183B89810E9401
:104A9000F21981E090E0F8019183808390E080E05A
:104AA000D4CFDF92EF92FF920F931F93CF93DF93B8
:104AB0008A01EC01C60FD71F0E9483197C01D9809F
:104AC00071D2DD2059F0029721E030E0D8161906A6
:104AD00019F010F030E020E0232B79F482E090E030
:104AE000F801918380838EEF9FEFDF91CF911F912B
:104AF0000F91FF90EF90DF900895EF2841F482E04E
:104B000090E0F8019183808384EF9FEFEECFF980EE
:104B10000E9483194F2D50E0BE016E5F7F4F0E94AF
:104B2000183B89810E94F21981E090E0F80191839D
:104B3000808390E080E0D9CF88E095E29093830471
:104B40008093820408958091820490918304089553
:104B50000895FC0111821082938382830895DB0102
:104B60001D921C92DC011296ED91FC9113977183BA
:104B7000608313967C936E9312970895FC01808155
:104B80009181DB018D939C93A081B181109741F0BD
:104B90008D919C9191838083892B11F4F383E2831F
:104BA0000895FC0180819181DB018D939C93892B79
:104BB00011F473836283718360830895FC01118211
:104BC0001082938382830895CF93DF931F921F9265
:104BD000CDB7DEB71A821982F894BE016F5F7F4F9E
:104BE00089E894E0CBDF89819A81009709F017D397
:104BF00089819A81892B89F7BE016F5F7F4F8DE88C
:104C000094E0BCDF89819A81009709F008D38981FB
:104C10009A81892B89F778940F900F90DF91CF912B
:104C20000895CF93DF931F921F92CDB7DEB71A82FC
:104C30001982F894BE016F5F7F4F85E894E09EDF94
:104C400089819A81009709F0EAD289819A81892B1A
:104C500089F778940F900F90DF91CF91089581E0BC
:104C6000089590E080E00895EF92FF920F931F93D4
:104C7000CF93DF931F921F92CDB7DEB71A821982AE
:104C80008091840407EF1FEF8823A1F1F894BE01FF
:104C90006F5F7F4F8DE894E071DF789489819A810E
:104CA000EE24E394F12C892B51F4F894BE016F5F4C
:104CB0007F4F89E894E062DF7894F12CE12C8981C0
:104CC0009A810EEF1FEF0097A9F0FC0142815381FA
:104CD00064E070E076D68C01892B61F0F8946981EC
:104CE0007A81C701880F991F880F991F87579B4F9B
:104CF00058DF7894C8010F900F90DF91CF911F91EA
:104D00000F91FF90EF9008950F931F93CF93DF9330
:104D100000D01F92CDB7DEB71C821B821A82198287
:104D20008091840407EF1FEF8823C1F0AE014D5F2F
:104D30005F4F64E070E0CE010196B6D68C01892BFE
:104D400069F4E981FA818B819C8193838283F89451
:104D500069817A8185E894E002DF7894C8010F9038
:104D60000F900F900F90DF91CF911F910F910895A9
:104D7000BBD7049608958F929F92AF92BF92CF9225
:104D8000DF92EF92FF920F931F93CF93DF931F92C7
:104D90001F92CDB7DEB71A821982BC016F5F7F4FB9
:104DA0006330710598F0AA24AA94BA2CC5010F901B
:104DB0000F90DF91CF911F910F91FF90EF90DF90B7
:104DC000CF90BF90AF909F908F900895411551055F
:104DD00051F3480159018A016C01CADF8815990510
:104DE00011F7E114F104F9F28E0D9F1DA816B90612
:104DF000D0F2809184048823F1F0F894B5016450D6
:104E000071099701AE014F5F5F4FC8010496E1D66B
:104E10005C01892B71F489819A81F80193838283E3
:104E2000C601880F991F880F991FB80187579B4F9C
:104E300096DE7894BBCF87EFA82EBB24BA94B6CF6A
:104E4000AF92BF92CF92DF92EF92FF920F931F9398
:104E5000CF93DF931F921F92CDB7DEB71A821982CC
:104E6000892B09F047C06115710509F443C041154C
:104E7000510509F43FC02115310509F43BC0011566
:104E80001105C1F1809184048823B9F179016A0187
:104E90005B01F894BE016F5F7F4F85E894E06EDEA2
:104EA000789489819A81009759F1DC0112966D916D
:104EB0007C91A8010496A6D68C01E981FA81D501DE
:104EC000ED93FC93828193810496F6019183808314
:104ED0004FDFD7018D939C93C8010F900F90DF9106
:104EE000CF911F910F91FF90EF90DF90CF90BF90E7
:104EF000AF9008950FEF1FEFEFCF07EF1FEFECCF4D
:104F00000EEF1FEFE9CFCF93DF93EC01672B71F426
:104F1000F4D68C179D0760F0E7D62496C80FD91FEA
:104F2000E6D68C0F9D1FDF91CF910895E3D6F1CF88
:104F300090E080E0F8CF0F931F93CF93DF93209101
:104F4000840421112BC08B01EC0189E894E001DE7F
:104F50008DE894E0FEDD85E894E0FBDD97D00097D6
:104F6000C1F4CBD670E060E0CEDF4BEC52E062E003
:104F700070E081D1009769F48091CB029091CC02CE
:104F8000CED6B801CE0103D5009719F421E02093C5
:104F90008404DF91CF911F910F91089584EF9FEFCB
:104FA000F8CFA8C6AAC6CF93DF93AAD6EC01892B67
:104FB00011F40ADE36DECE01DF91CF910895CF9352
:104FC000DF939ED6EC01892B09F4FEDDCE01DF9143
:104FD000CF9108958091CB029091CC020895CF9308
:104FE000DF9380918404D0E0C0E08823D1F09CD688
:104FF000EC01892BB1F4E8DD14DE8091CB029091B5
:10500000CC02E7D1E8D2EC01892B59F489E894E08D
:10501000D5DD8DE894E0D2DD85E894E0CFDD109217
:105020008404CE01DF91CF910895EF92FF920F9308
:105030001F93CF93DF93EC017A018B010F5F1F4F1A
:105040000E9DA0010F9D500D1E9D500D112470E06E
:1050500060E00E94213B90E080E0F0E0E0E02FEF94
:10506000E816F90639F4DF91CF911F910F91FF9067
:10507000EF9008951A8219822883309711F0D28315
:10508000C1830196FE01C00FD11FEACFCF92DF92FC
:10509000EF92FF920F931F93CF93DF9306E117E0F8
:1050A0000C7F43E050E06DEC72E083ED92E01CD4A5
:1050B0008DECE82E82E0F82E93EDC92E92E0D92EE9
:1050C000CDECD7E0D7014D915D917D01F601619165
:1050D00071916F01198308835D834C835B834A83DD
:1050E0007F836E839B012F5F3F4F249FC001259FCD
:1050F000900D349F900D1124998788870115110513
:1051000011F0C80192DF88859985080F191F2A962A
:10511000F3EDEF16F2E0FF06A9F6E3E9F4E080E82C
:1051200092E0DF019C011D9221503040E1F7109286
:105130009204109291041092EC071092EB071092D7
:10514000F0071092EF071092EE071092ED07109201
:10515000F2071092F1071092F4071092F3071092E1
:10516000F6071092F5071092FA071092F9071092BD
:10517000F8071092F7071092FC071092FB071092A5
:10518000FE071092FD071092CA071092C9071092ED
:10519000CC071092CB0790E080E0DF91CF911F9178
:1051A0000F91FF90EF90DF90CF9008950097F1F06E
:1051B000F894A3EDB2E0EDECF7E030E020E04D91A3
:1051C0005D9148175907A8F0428153814115510557
:1051D00081F08AE0829FF001839FF00D1124E35358
:1051E000F84F80819181009759F4789490E080E0A5
:1051F00008952F5F3F4F3A962330310501F7F5CFE1
:10520000DC0111966D917C9171836083415051094D
:1052100053834283FC012193CF0178940895009732
:1052200049F1DC018E91853041F4E091CB07F0919A
:10523000CC073097F9F0CD0119948530D8F4282F98
:1052400030E0F8948FEF8C938AE0829FF001839F87
:10525000F00D1124E353F84F8081918112969C93B5
:105260008E931197B183A08382819381019693835A
:10527000828378940895CF92DF92EF92FF920F93FA
:105280001F93CF93DF939C0186E994E08C7F4115B7
:10529000510509F49BC02115310509F497C061152A
:1052A000710509F493C07A01AB01B9016D5F7F4FBD
:1052B0006C7F9B012F5F3F4F249F8001259F100D26
:1052C000349F100D1124F8942091EB073091EC07D6
:1052D000232B59F42091F3073091F4072115310560
:1052E00069F12017310708F058C02091F507309177
:1052F000F607232B91F42091F3073091F407820FE6
:10530000931F2091FD073091FE072115310509F407
:1053100041C02017310708F056C07894CFEFDFEF77
:1053200086EF9FEFF701D183C083DF91CF911F916B
:105330000F91FF90EF90DF90CF900895C3E0D0E001
:10534000C0909104D09092042DE732E02C193D09D1
:105350002017310710F32AE02C9FF0012D9FF00D4C
:105360001124E353F84F91838083558344835383FF
:1053700042837783668311870087009709F055DEA3
:105380000C0D1D1D1093920400939104789490E0ED
:1053900080E0C8CFC4E0D0E0D3CFC3E0D0E02AE0C3
:1053A0002C9FF0012D9FF00D1124E353F84F9183B2
:1053B0008083558344835383428377836683009736
:1053C00029F333DEE3CFC4E0D0E0E9CF8FEF9FEFE6
:1053D000ACCF9C010397029708F069C0F89484E071
:1053E0009AE0482F50E0241735070CF44DC091E0A7
:1053F0008AE0829FF001839FF00D1124E353F84F60
:1054000011821082158214821382128217821682F0
:105410009923B1F18091EB079091EC07892BA9F4C6
:105420002091F3073091F4072115310571F0809137
:10543000910490919204821B930B90939204809319
:1054400091041092F4071092F3078091F507909160
:10545000F607892BA9F42091FD073091FE0721154D
:10546000310571F08091910490919204821B930B0D
:1054700090939204809391041092FE071092FD077E
:10548000789490E080E00895949FF001959FF00D4E
:105490001124E353F84F40815181452B31F440856D
:1054A0005185452B11F481509CCF90E0A1CF8FEF17
:1054B0009FEF08954115510549F1009739F16115A4
:1054C000710521F1F8942091C9073091CA07232B67
:1054D000B9F42091CB073091CC07232B89F490931A
:1054E000CA078093C9077093CC076093CB07789461
:1054F00025E030E090E080E0FA01318320830895D8
:1055000078942FEF3FEF86EF9FEFF6CF8FEF9FEF6F
:105510000895059769F4F8941092CA071092C90784
:105520001092CC071092CB07789490E080E0089519
:105530008FEF9FEF08956115710519F4F0E0E0E039
:1055400011C08530910581F4E091C907F091CA0737
:105550003097A1F3CB0101961995009779F3FC01DF
:1055600085E08193CF0108959C01235031092230B9
:10557000310520F72AE0289FD001299FB00D112482
:10558000A353B84F2D913C911197232BB9F2169646
:105590002D913C9117972617370780F2F8941296B1
:1055A0002D913C9113972115310529F0ED91FC9136
:1055B0001197309711F47894C1CF4181528111969F
:1055C0005C934E932150310913963C932E9312977E
:1055D00081937894C7CFE3E1F7E086EBDF011D927A
:1055E0008A95E9F7E3E9F4E080E892E0DF019C01C5
:1055F0001D9221503040E1F71092920410929104D4
:10560000EDECF7E082E3DF011D928A95E9F7E9EC22
:10561000F7E084E0DF011D928A95E9F790E080E0F1
:105620000895CF93DF93C091D902D091DA02CF3F92
:10563000DC0759F423D49093DA028093D90297FFC0
:1056400009C0D093DA02C093D90284EF9FEFDF91B3
:10565000CF91089590E080E0FACF8230910528F450
:105660008093FF0790E080E008958FEF9FEF08950B
:105670004F925F926F927F92AF92BF92CF92DF92E2
:10568000EF92FF920F931F93CF93DF931F921F927E
:10569000CDB7DEB71A821982009709F479C0611577
:1056A000710509F475C02091D9023091DA0207EF33
:1056B0001FEF2F3F3F4F09F445C06B015C01412CA8
:1056C000512C3201F12CE12C10E000E09E012F5F03
:1056D0003F4FA6014E195F09B5016E0D7F1D8091E8
:1056E000D9029091DA022AD4892B09F04BC0898122
:1056F0009A81009741F4E114F10429F42091FF0705
:10570000222309F442C0E80EF91EEC14FD04D0F483
:1057100080E8481684E858068EE16806710420F592
:1057200060E070E0CB010E94FE342AE0420E511C82
:10573000611C711C0A3F4FEF140721F0043F8FEFEB
:105740001807A1F4C8010F900F90DF91CF911F911E
:105750000F91FF90EF90DF90CF90BF90AF907F9030
:105760006F905F904F90089501EF1FEF81E090E000
:10577000013F2FEF120711F090E080E0892B09F430
:10578000A5CFE0CF04EF1FEFDDCF0AEF1FEFDACF99
:105790000FEF1FEFD7CF4F925F926F927F92AF9232
:1057A000BF92CF92DF92EF92FF920F931F93CF930E
:1057B000DF931F921F92CDB7DEB71A82198200972E
:1057C00009F479C06115710509F475C02091D902F9
:1057D0003091DA0207EF1FEF2F3F3F4F09F445C02A
:1057E0006B015C01412C512C3201F12CE12C10E0B9
:1057F00000E09E012F5F3F4FA6014E195F09B501E2
:105800006E0D7F1D8091D9029091DA024DD3892BC4
:1058100009F04BC089819A81009741F4E114F104A9
:1058200029F42091FF07222309F442C0E80EF91E53
:10583000EC14FD04D0F480E4481682E458068FE0AE
:105840006806710420F560E070E0CB010E94FE3430
:105850002AE0420E511C611C711C0E3F4FEF1407D1
:1058600021F0043F8FEF1807A1F4C8010F900F90AB
:10587000DF91CF911F910F91FF90EF90DF90CF902C
:10588000BF90AF907F906F905F904F90089502EF20
:105890001FEF81E090E0023F2FEF120711F090E040
:1058A00080E0892B09F4A5CFE0CF04EF1FEFDDCF17
:1058B0000EEF1FEFDACF0FEF1FEFD7CF8091D90296
:1058C0009091DA028F3F980749F0D0D2892B49F4A2
:1058D0008FEF9FEF9093DA028093D90290E080E0FF
:1058E000089584EF9FEF0895CF92DF92EF92FF9299
:1058F0000F931F93CF93DF9321E04115510509F0DA
:1059000020E04150510921112CC0DC01FB01D12CB8
:10591000C12C21E022C03FEFC31AD30A7D010D91B3
:105920001D91E701EA80FB80E016F106A8F42081D2
:105930003181E280F380F182E08233832283ED9033
:10594000FC9011979D0122503109E901F982E8820A
:1059500011961C930E9320E03296C416D506D8F209
:10596000D2CFDF91CF911F910F91FF90EF90DF90F9
:10597000CF900895FC01680F791F90E080E0E61752
:10598000F70709F408952191820F911DF8CF209116
:105990000008211113C045DE009791F4109206080B
:1059A0001092050810920408109203081092020841
:1059B0001092010821E020930008089584EF9FEFE2
:1059C0000895AF92BF92CF92DF92EF92FF920F9322
:1059D0001F93CF93DF93009709F460C046305105C1
:1059E00008F45CC020910008C7EFDFEF222309F420
:1059F00049C08C01060F171FF801C080D180C11467
:105A0000D10409F44EC096012A5F3F4F4217530755
:105A100008F447C07C0180910508909106089383A3
:105A20008283B6016C5F7F4F5801A60EB71EC80176
:105A3000A1DFF5019183808364E070E0C80118DE86
:105A4000EC01892BF9F481E090E007DEB601C80192
:105A500004960EDEEC01892B91F462E070E0C50142
:105A600007DEEC01892B59F4C701D9DB80910508C9
:105A7000909106080196909306088093050890E09F
:105A800080E0EBDDCE01DF91CF911F910F91FF9070
:105A9000EF90DF90CF90BF90AF900895CFEFDFEF02
:105AA000F1CFC9EFDFEFEECF6F927F928F929F928F
:105AB000AF92BF92CF92DF92EF92FF920F931F931C
:105AC000CF93DF9300D01F92CDB7DEB7009709F4D4
:105AD0007AC04115510509F476C02091000807EFFE
