:100000002BC100000C94EF120C941A130C9445139E
:100010000C9470130C949B130C94C6130C94F11352
:100020000C941C144AC1000048C1000046C10000E5
:1000300044C1000042C1000040C100003EC10000B8
:100040003CC100003AC1000038C1000036C10000C8
:1000500034C1000032C1000030C100000C944714CC
:100060002CC100000C94C0170C94F61726C1000098
:1000700024C1000022C1000020C100001EC10000F8
:100080001CC100001AC1000018C1000016C1000008
:100090000C944C180C94821810C100000EC1000082
:1000A0000CC100000AC1000008C1000006C1000028
:1000B00004C1000002C1000000C10000FEC0000039
:1000C000FCC00000FAC000000C94810E0C94D818FB
:1000D0000C940E19F2C000000C9464190C949A1937
:1000E000ECC00000084AD73B3BCE016E84BCBFFD8C
:1000F000C12F3D6C74319ABD56833DDA3D00C77FF8
:1001000011BED9E4BB4C3E916BAAAABE0000008090
:100110003F05A84CCDB2D44EB93836A9020C50B91F
:10012000918688083CA6AAAA2ABE000000803F004B
:1001300000000A0B02090C0D0E0807030401000061
:1001400000000000000000000000000000000000AF
:10015000000000000000000000000000121110006C
:10016000000000000000000000000000000000008F
:1001700000000000000001021020200808102040AC
:10018000102040800201020108040201010204085B
:1001900010204080804020100804020180040201E9
:1001A0008040201008040201080402010102040832
:1001B000102040800102040810204080050505053C
:1001C000070508080808020202020A0A08080404CF
:1001D00004040101010101010101030303030303FD
:1001E0000303040707070C0C0C0C0C0C0C0C02028C
:1001F000020206060606060606060B0B0B0B0B0B89
:100200000B0B000020002300260029002C002F00EB
:100210003200000100000301060109010000220074
:10022000250028002B002E003100340002010000C0
:10023000050108010B0100002100240027002A000D
:100240002D003000330001010000040107010A0104
:100250001F18AB183719C31911241FBECFEFD1E2F5
:10026000DEBFCDBF00E00CBF13E0A0E0B2E0E2E9EA
:10027000F4E300E00BBF02C007900D92A430B10779
:10028000D9F726E0A4E0B3E001C01D92A036B20782
:10029000E1F711E0CCE2D1E000E006C021970109CE
:1002A000802FFE010E943F1AC832D10780E0080764
:1002B000A9F70E94E80E0C94471AA2CECF92DF92C3
:1002C000EF92FF92CF93882351F16A017B01CFEF28
:1002D000C80F20E030E0A901CB01B6010E94E60F73
:1002E00018168CF0C701B60190580E9458109B0157
:1002F000AC016C2F70E090E080E0CF91FF90EF9028
:10030000DF90CF90B2C0C701B6010E9453108C2F6E
:10031000CF91FF90EF90DF90CF900C94F314CF919A
:10032000FF90EF90DF90CF9008950F931F938B0174
:100330009C0183E036952795179507958A95D1F707
:100340000C5F1C4F462F477021E030E0F90102C0DE
:10035000EE0FFF1F4A95E2F7AF01F8012081242339
:10036000CB010196211102C090E080E01F910F9116
:1003700008950F931F938B019C0183E03695279579
:10038000179507958A95D1F7677081E090E001C0D5
:10039000880F6A95EAF7F801EC5FFC4F2081452B46
:1003A00031F48095822380831F910F910895822BD1
:1003B000FACF2F923F924F925F926F927F928F92DD
:1003C0009F92AF92BF92CF92DF92EF92FF920F93E4
:1003D0001F93CF93DF93D62EC72E782E692E490117
:1003E0005A01280161E08D2D0E942D16CD2DDC2DA6
:1003F0008E010F5F1F4FA8016D2D7C2D872D962D2F
:10040000B8DF20E030E0A901C201B7010E949411D9
:10041000181664F4C201B7010E9458102B01C501DF
:10042000B4010E945810A201CE0123D0C801DF916F
:10043000CF911F910F91FF90EF90DF90CF90BF90E1
:10044000AF909F908F907F906F905F904F903F9074
:100450002F900895882341F08150682F70E090E03C
:1004600080E050E040E085CF0895862FB9010C94DC
:10047000F3149C01FC01E05DFE4FE491E150E23198
:10048000E0F4F0E08827E85BFD4F8F4F0C943F1AB3
:100490005A02610264027B0290025D02A502B1026F
:1004A000B502CC02E102F6020D0322035D0237031E
:1004B0004E03630384B5806884BD60E0822F0C9492
:1004C000691684B58062F8CF809180008C7F82604D
:1004D0008093800080918100807E8061682B609392
:1004E000810050938700409386008091800080684F
:1004F00080938000E2CF809180008C7F8260809327
:10050000800080918100807E8061682B60938100F3
:100510005093870040938600809180008062E8CFEE
:10052000809180008C7F8260809380008091810028
:10053000807E8061682B6093810050938700409398
:100540008600809180008860D3CF8091B000806861
:100550008093B0008091B100887F682B6093B100D8
:10056000ACCF8091B0008062F3CF809190008C7FFF
:1005700082608093900080919100807E8061682BE2
:100580006093910050939700409396008091900063
:1005900080688093900091CF809190008C7F8260E2
:1005A0008093900080919100807E8061682B6093A1
:1005B0009100509397004093960080919000806244
:1005C000E8CF809190008C7F826080939000809132
:1005D0009100807E8061682B60939100509397001A
:1005E00040939600809190008860D3CF8091A000C6
:1005F0008C7F82608093A0008091A100807E8061CA
:10060000682B6093A1005093A7004093A6008091AF
:10061000A00080688093A00050CF8091A0008C7FC4
:1006200082608093A0008091A100807E8061682B11
:100630006093A1005093A7004093A6008091A00072
:100640008062E8CF8091A0008C7F82608093A000C0
:100650008091A100807E8061682B6093A1005093FF
:10066000A7004093A6008091A0008860D3CF80911E
:1006700020018C7F82608093200180912101807E07
:100680008061682B609321015093270140932601DC
:10069000809120018068809320010FCF80912001FC
:1006A0008C7F82608093200180912101807E806117
:1006B000682B60932101509327014093260180917C
:1006C00020018062E8CF809120018C7F826080933E
:1006D000200180912101807E8061682B609321013F
:1006E0005093270140932601809120018860D3CF49
:1006F000FC01A781B0858C9191858923A481B58166
:100700009C9140815181628173812681922359F0AD
:1007100081110BC04F5F5F4F6F4F7F4F40835183FD
:100720006283738308958111F5CF415051096109A6
:100730007109F4CF8EE093E0DBCF89E193E0D8CF6D
:1007400084E293E0D5CF8FE293E0D2CFFC01A48185
:10075000B5818C9196818923A781B0859C91408138
:100760005181628173812185922359F0882359F048
:100770004F5F5F4F6F4F7F4F40835183628373831F
:1007800008958823A9F34150510961097109F4CFF3
:100790008EE093E0DBCF89E193E0D8CF84E293E071
:1007A000D5CF8FE293E0D2CF0F931F93CF93DF93F8
:1007B000D82FC62F8A01A0910D038BE0A89FD001EE
:1007C0001124A25FBC4F1D921D921D921C92139783
:1007D00081E01A968C931A978D2F90E0FC01EA58CD
:1007E000FE4FE4911696EC931697FC01E454FE4FED
:1007F000E491F0E0EE0FFF1FEE5FFD4F85919491C5
:1008000015969C938E931497862F90E0FC01EA58DE
:10081000FE4FE4911996EC931997FC01E454FE4FB6
:10082000E491F0E0EE0FFF1FEE5FFD4F8591949194
:1008300018969C938E93179760E08D2F0E942D162B
:1008400060E08C2F0E942D1680910D03813009F4F9
:100850003FC0A8F0823009F462C0833009F486C03A
:1008600080910D0391E0980F90930D03F801808320
:1008700090E080E0DF91CF911F910F91089580E08B
:10088000D23049F081E0D33031F08EEE8D0F8430DC
:10089000D8F487E18D1B41E050E06AE973E00E94E3
:1008A000761280E0C23049F081E0C33031F08EEE44
:1008B0008C0F843058F487E18C1B41E050E068ECE9
:1008C00073E00E947612CCCF8FEFE5CF8FEFF5CF9C
:1008D00080E0D23049F081E0D33031F08EEE8D0FE0
:1008E0008430C8F487E18D1B41E050E06DE973E08E
:1008F0000E94761280E0C23049F081E0C33031F0CE
:100900008EEE8C0F843048F487E18C1B41E050E080
:100910006BEC73E0D6CF8FEFE7CF8FEFF7CF80E0B0
:10092000D23049F081E0D33031F08EEE8D0F84303B
:10093000C8F487E18D1B41E050E060EA73E00E945B
:10094000761280E0C23049F081E0C33031F08EEEA3
:100950008C0F843048F487E18C1B41E050E06EEC52
:1009600073E0AFCF8FEFE7CF8FEFF7CF80E0D230DC
:1009700049F081E0D33031F08EEE8D0F8430C8F431
:1009800087E18D1B41E050E063EA73E00E9476123C
:1009900080E0C23049F081E0C33031F08EEE8C0F40
:1009A000843048F487E18C1B41E050E061ED73E056
:1009B00088CF8FEFE7CF8FEFF7CF9BE0899FF001D4
:1009C0001124E25FFC4F80819181A281B381FB0100
:1009D00080839183A283B38390E080E008959BE0BD
:1009E000899FF0011124E25FFC4F10821182128274
:1009F000138290E080E0089590E080E008958F9267
:100A00009F92AF92BF92CF92DF92EF92FF92CF93DD
:100A1000DF936B017C0149015A010E945D0E88231E
:100A200099F060915206709153068091540690910E
:100A30005506DF91CF91FF90EF90DF90CF90BF9060
:100A4000AF909F908F900895C501B4010E945D0EF4
:100A50008111E7CFC701B6010E941A0E8823E1F188
:100A6000C501B4010E941A0E8823B1F120E030E0E4
:100A7000A901C701B6010E949411CFEFDFEF18164C
:100A800014F4C1E0D0E020E030E0A901C501B401D8
:100A90000E9494116FEF7FEF181614F461E070E07C
:100AA000072E000C880B990B0E9486106B017C01AD
:100AB000BE01DD0F880B990B0E948610A7019601DD
:100AC000DF91CF91FF90EF90DF90CF90BF90AF90EC
:100AD0009F908F900C94930F20E030E0A901C50106
:100AE000B4010E94E60F811116C020E030E0A90198
:100AF000C701B6010E949411181694F020E030E06E
:100B0000A901C701B6010E94E60F87FD0EC060E093
:100B100070E0CB018ECFA5019401C701B601D0CF03
:100B20006BED7FE089EC9FE384CF6BED7FE089EC98
:100B30009FEB7FCF2F923F924F925F926F927F9267
:100B40008F929F92AF92BF92CF92DF92EF92FF92DD
:100B50000F931F93CF93DF93CDB7DEB768970FB690
:100B6000F894DEBF0FBECDBF409010065090110626
:100B700060901206709013064092BC055092BD051D
:100B80006092BE057092BF05809014069090150685
:100B9000A0901606B09017068092C0059092C105ED
:100BA000A092C205B092C3058091180690911906D3
:100BB000A0911A06B0911B068093C4059093C505B9
:100BC000A093C605B093C70585E89BEEA1E5BEE3FB
:100BD0008093C8059093C905A093CA05B093CB052F
:100BE0001092CC051092CD051092CE051092CF0533
:100BF00020E030E040E85FE3609134067091350614
:100C000080913606909137060E94E60F87FF0CC050
:100C100080E090E0A0E8BFE380933406909335062F
:100C2000A0933606B0933706C0903406D0903506B0
:100C3000E0903606F090370620E030E040EA50E4DD
:100C4000C701B6010E94E60F18160CF443C2C70193
:100C5000B6010E94531069877A878B879C87E98544
:100C6000FA857396EE0FFF1FEE0FFF1FE050FE4F49
:100C7000A301920160817181828193810E941F0F83
:100C80002B013C01E985FA857896EE0FFF1FEE0FE8
:100C9000FF1FE050FE4FA5019401608171818281A8
:100CA00093810E941F0F4B015C01A3019201C301BC
:100CB000B2010E949F1169877A878B879C87A50163
:100CC0009401C501B4010E949F119B01AC0169858B
:100CD0007A858B859C850E94200F0E940C122DEC3A
:100CE0003CEC4CE45EE30E94941118160CF0E2C157
:100CF000A3019201C501B40182DE6093CC0570931B
:100D0000CD058093CE059093CF052091C4053091F9
:100D1000C5054091C6055091C7056091CC057091FD
:100D2000CD058091CE059091CF050E941F0F209197
:100D300034023091350240913602509137020E94C0
:100D40009F116B017C018090C8059090C905A0900F
:100D5000CA05B090CB05209178023091790240917C
:100D60007A0250917B02C501B4010E949F112B01B0
:100D70003C01209180023091810240918202509189
:100D80008302C701B6010E949F119B01AC01C30100
:100D9000B2010E94200F209138063091390640910F
:100DA0003A0650913B060E941F0F6093CC0570934A
:100DB000CD058093CE059093CF0520917C02309194
:100DC0007D0240917E0250917F02C501B4010E94D4
:100DD0009F114B015C01209184023091850240916A
:100DE000860250918702C701B6010E949F119B01A4
:100DF000AC01C501B4010E94200F20913C06309146
:100E00003D0640913E0650913F060E941F0F6093A1
:100E1000C8057093C9058093CA059093CB05C0900F
:100E20004802D0904902E0904A02F0904B02A7019C
:100E300096016091EB057091EC058091ED05909124
:100E4000EE050E94E60F882341F0C092EB05D09298
:100E5000EC05E092ED05F092EE058091EA05811136
:100E60001092EA05BE016B5F7F4F8091EF05A5DD13
:100E7000C0904C02D0904D02E0904E02F0904F0294
:100E8000A70196016091DF057091E0058091E10571
:100E90009091E2050E94E60F882341F0C092DF05A1
:100EA000D092E005E092E105F092E2058091DE0546
:100EB00081111092DE05BE016F5F7F4F8091E305C7
:100EC0007CDD6091DC027091DD028091DE02909108
:100ED000DF020E94861020E030E040E05AE20E94EB
:100EE0009F114B015C01C090A802D090A902E09034
:100EF000AA02F090AB026D817E818F8198850E945D
:100F00008610A50194010E949F11A70196010E94DD
:100F10009F1169877A878B879C8769817A818B810A
:100F20009C810E948610A50194010E949F119B0143
:100F3000AC01C701B6010E949F116D877E878F8724
:100F4000988B20911C0630911D0640911E065091F1
:100F50001F0669857A858B859C8571D74B015C015D
:100F60008092380690923906A0923A06B0923B06DB
:100F700020912006309121064091220650912306AF
:100F80006D857E858F8598895AD76B017C01C092CB
:100F90003C06D0923D06E0923E06F0923F0620913C
:100FA00088023091890240918A0250918B02C501DA
:100FB000B4010E949F114B015C012091900230917D
:100FC00091024091920250919302C701B6010E9492
:100FD0009F119B01AC01C501B40132D71B012C014B
:100FE0008090C8059090C905A090CA05B090CB0527
:100FF00020910002309101024091020250910302BF
:10100000C501B4010E949F1120912406309125064C
:10101000409126065091270612D720912C0230913C
:101020002D0240912E0250912F020E949F116B01C0
:101030007C01C092D005D092D105E092D205F09209
:10104000D305209138023091390240913A025091F3
:101050003B02C501B4010E949F11209128063091E6
:10106000290640912A0650912B06EAD6A70196013F
:10107000E7D66B017C01C092D405D092D505E092F1
:10108000D605F092D7058090400290904102A09042
:101090004202B0904302A50194010E9494111816D7
:1010A00014F58092D4059092D505A092D605B09201
:1010B000D70528C020E030E040E85FE3C701B60173
:1010C000BFD66093340670933506809336069093AE
:1010D00037061BCE1092C8051092C9051092CA059A
:1010E0001092CB0512CE8090240290902502A09001
:1010F0002602B0902702A5019401C701B60166D768
:1011000087FDCFCF65E070E080E090E00ED97C01F4
:1011100090930F0680930E06C090D405D090D5050D
:101120000091D6051091D7058090B4029090B50239
:10113000A090B602B090B702A5019401B601C80113
:101140000E94941118168CF08090B8029090B90209
:10115000A090BA02B090BB02A5019401B601C801EB
:1011600035D787FD02C046015801E894B7F820E062
:1011700030E04FE753E4C501B40128D7181634F422
:10118000812C912C9FE7A92E93E4B92EB501A401DF
:10119000C70194D864E070E080E090E0C6D88C018C
:1011A0009093FF058093FE058090D4059090D5051F
:1011B000A090D605B090D705C090BC02D090BD02DB
:1011C000E090BE02F090BF02A7019601C501B401F4
:1011D0000E94941118164CF4C092D405D092D505F3
:1011E000E092D605F092D7050FC0C090C002D09013
:1011F000C102E090C202F090C302A7019601C501AE
:10120000B401E4D687FDE8CF20E030E04FE753E4B7
:101210006091D4057091D5058091D6059091D70540
:10122000D5D6181664F480E090E0AFE7B3E480937D
:10123000D4059093D505A093D605B093D70520E0AB
:1012400030E0A9016091D4057091D5058091D60553
:101250009091D7050E94941187FF08C01092D40581
:101260001092D5051092D6051092D7054091D4055D
:101270005091D5056091D6057091D705C8011ED84B
:101280008090CC059090CD05A090CE05B090CF0574
:10129000209104023091050240910602509107020C
:1012A000C501B4010E949F1120912C0630912D069A
:1012B00040912E0650912F06C2D5209130023091D8
:1012C000310240913202509133020E949F116B0112
:1012D0007C01C092D405D092D505E092D605F0925B
:1012E000D70520913C0230913D0240913E02509141
:1012F0003F02C501B4010E949F1120913006309138
:10130000310640913206509133069AD5A7019601D5
:1013100097D57B018C018090440290904502A0906B
:101320004602B09047029B01AC01B401C5014ED604
:1013300087FD11C08090280290902902A0902A0277
:10134000B0902B029701A801B401C501EDD7181682
:1013500014F04701580166E070E080E090E00E94E0
:1013600095013C019093070680930606C090CC023D
:10137000D090CD02E090CE02F090CF029401A50172
:10138000C701B60123D687FD11C0C090D002D0900E
:10139000D102E090D202F090D3029401A501C701DE
:1013A000B601C2D7181614F064017501E894F7F875
:1013B00020E030E04FE753E4C701B60107D6181626
:1013C00034F4C12CD12C8FE7E82E83E4F82EB7013A
:1013D000A601C3010E945E0167E070E080E090E03A
:1013E0000E9495017C019093F7058093F605C090CB
:1013F000D402D090D5020091D6021091D702940168
:10140000A501B601C801E2D587FD11C0C090D80280
:10141000D090D9020091DA021091DB029401A5016B
:10142000B601C80181D7181614F06401850120E0C7
:1014300030E04FE753E4B601C801C8D518160CF4E4
:101440006DC120E030E0A901B601C8016DD787FF6A
:1014500004C0C12CD12C00E010E0A601B801C701E6
:101460000E945E018091140690911506A0911606C7
:10147000B0911706898B9A8BAB8BBC8B8091180629
:1014800090911906A0911A06B0911B068D8B9E8B28
:10149000AF8BB88F8090C4059090C505A090C6050D
:1014A000B090C705C501B40195D5C0909802D09001
:1014B0009902E0909A02F0909B02A20191013FD71D
:1014C000A70196013CD7209110063091110640915A
:1014D000120650911306B4D460931006709311064F
:1014E0008093120690931306C501B4018BD7A20115
:1014F000910125D7A701960122D729893A894B89DD
:101500005C899ED46093140670931506809316062A
:101510009093170620918C0230918D0240918E029B
:1015200050918F02609138067091390680913A0689
:1015300090913B0604D74B015C01209194023091BD
:101540009502409196025091970260913C067091ED
:101550003D0680913E0690913F06F1D69B01AC017D
:10156000C501B4016DD4A7019601E9D62D893E8944
:101570004F89588D65D4609318067093190680932F
:101580001A0690931B0689859A85AB85BC85809346
:101590001C0690931D06A0931E06B0931F068D8512
:1015A0009E85AF85B8898093200690932106A093ED
:1015B0002206B09323062091D0053091D1054091A9
:1015C000D2055091D3056091AC027091AD0280912B
:1015D000AE029091AF02B3D6209124063091250639
:1015E00040912606509127062BD4609324067093D1
:1015F000250680932606909327062091C8053091F2
:10160000C9054091CA055091CB05609108027091BF
:10161000090280910A0290910B0291D62091B002AA
:101620003091B1024091B2025091B30288D620911C
:1016300028063091290640912A0650912B0600D4A5
:10164000609328067093290680932A0690932B06B0
:101650002091D4053091D5054091D6055091D705FC
:101660006091C4027091C5028091C6029091C70238
:1016700066D620912C0630912D0640912E06509171
:101680002F06DED360932C0670932D0680932E06D2
:1016900090932F062091CC053091CD054091CE0539
:1016A0005091CF0560910C0270910D0280910E0255
:1016B00090910F0244D62091C8023091C902409106
:1016C000CA025091CB023BD62091300630913106B0
:1016D0004091320650913306B3D360933006709335
:1016E0003106809332069093330668960FB6F894CD
:1016F000DEBF0FBECDBFDF91CF911F910F91FF9045
:10170000EF90DF90CF90BF90AF909F908F907F90A1
:101710006F905F904F903F902F900895C12CD12CE7
:101720000FE713E49ACE4F925F926F927F92AF923F
:10173000BF92DF92EF92FF920F931F93CF93DF93AD
:1017400084E090E040D210923B0310923A03C8ED3F
:10175000D5E08EE6FE0111928A95E9F7DD24D39457
:10176000D092410680E0A82E82E0B82E80914802F7
:1017700090914902A0914A02B0914B028B8B9C8BB5
:10178000AD8BBE8B412C512C320143944D865E862D
:101790006F86788A4FEE55E063E082E005D8D98AFB
:1017A0001A8A1B861882D092400680914C02909132
:1017B0004D02A0914E02B0914F028F839887A98766
:1017C000BA8749825A826B827C8243EE55E063E19C
:1017D00082E10E94D403DD821E8218AAD0924506BF
:1017E00049AA5AAA6BAA7CAAE12CF12C8701A8016C
:1017F000970165E070E080E090E00E94D9019FAB26
:101800008EABDDAA18A2D092430649A25AA26BA2BF
:101810007CA2A801970164E070E080E090E00E9463
:10182000D9019FA38EA3DDA218A6D092440649A693
:101830005AA66BA67CA6A801970166E070E080E03E
:1018400090E00E94D9019FA78EA7DDA6188ED092A6
:101850004206498E5A8E6B8E7C8EA801970167E0F6
:1018600070E080E090E00E94D9019F8F8E8FDD8E26
:1018700080919C0290919D02A0919E02B0919F0246
:1018800088AF99AFAAAFBBAF8CAF9DAFAEAFBFAFC4
:101890008093180690931906A0931A06B0931B061E
:1018A0008091A0029091A102A091A202B091A30206
:1018B0008093340690933506A0933606B09337068E
:1018C0004091A4025091A5026091A6027091A702D6
:1018D000409338065093390660933A0670933B065E
:1018E000F50180899189A289B38980931C06909320
:1018F0001D06A0931E06B0931F0640933C0650930E
:101900003D0660933E0670933F06809320069093B9
:101910002106A0932206B093230684899589A6897F
:10192000B7898093240690932506A0932606B0934A
:101930002706848D958DA68DB78D8093280690936C
:101940002906A0932A06B0932B06808D918DA28D37
:10195000B38D80932C0690932D06A0932E06B09302
:101960002F0680A191A1A2A1B3A1809330069093EC
:101970003106A0933206B09333068F8930D88B8519
:10198000DF91CF911F910F91FF90EF90DF90BF906B
:10199000AF907F906F905F904F9021C88091E40549
:1019A000811113C081E08093E4058091E505909159
:1019B000E605A091E705B091E8050197A105B105FD
:1019C00021F48091E905811117D88091D805811102
:1019D00013C081E08093D8058091D9059091DA05F4
:1019E000A091DB05B091DC050197A105B10521F4BB
:1019F0008091DD05811100D88091080681112EC0EB
:101A000081E0809308068091090690910A06A091D2
:101A10000B06B0910C060197A105B105F9F4809170
:101A20000D068823D9F065E070E080E090E00E9428
:101A3000950190930F0680930E0640E050E0BA01A6
:101A40000E945E0165E070E080E090E00E949501F8
:101A500090930F0680930E060E942A028091F8054B
:101A600081112EC081E08093F8058091F905909155
:101A7000FA05A091FB05B091FC050197A105B10500
:101A8000F9F48091FD058823D9F064E070E080E0EE
:101A900090E00E9495019093FF058093FE0540E041
:101AA00050E0BA010E945E0164E070E080E090E0E6
:101AB0000E9495019093FF058093FE050E942A02E3
:101AC0008091000681112EC081E0809300068091F4
:101AD000010690910206A0910306B09104060197B9
:101AE000A105B105F9F4809105068823D9F066E0D7
:101AF00070E080E090E00E9495019093070680934B
:101B0000060640E050E0BA010E945E0166E070E027
:101B100080E090E00E94950190930706809306066E
:101B20000E942A028091F00581112EC081E08093ED
:101B3000F0058091F1059091F205A091F305B09127
:101B4000F4050197A105B105F9F48091F505882305
:101B5000D9F067E070E080E090E00E9495019093FA
:101B6000F7058093F60540E050E0BA010E945E015F
:101B700067E070E080E090E00E9495019093F705A7
:101B80008093F6050C942A02089560E070E080E8E6
:101B90009FE7089560E070E080E89FE7089560E0C7
:101BA00070E080E89FEF089560E070E080E89FEFCC
:101BB000089560E070E080EC9FEF089560E070E0D1
:101BC00080EC9FEF0895F5DF609352067093530603
:101BD0008093540690935506F1DF60934606709308
:101BE00047068093480690934906CFDF60934E06E0
:101BF00070934F068093500690935106CBDF60930D
:101C00004A0670934B0680934C0690934D06C7DFAF
:101C10006093560670935706809358069093590622
:101C2000C3DF60935A0670935B0680935C069093C3
:101C30005D060895CF92DF92EF92FF92CF936B01F2
:101C40007C01AC019B0160914E0670914F06809122
:101C5000500690915106BAD1C1E0882369F0A701DE
:101C600096016091560670915706809158069091A2
:101C70005906ACD18111C0E08C2FCF91FF90EF902D
:101C8000DF90CF9008950F931F938B019C01002745
:101C9000112720783F770115110520483F4749F467
:101CA000AB01BC016F77772781E0452B462B472B93
:101CB00009F480E01F910F910895E5CF26E030E010
:101CC00040E855E260E070E090E080E000C08130E4
:101CD000910571F01CF4892B39F00895823091053B
:101CE00051F0039759F0089588E493E00C9460173D
:101CF00085EE93E0FBCF82E894E0F8CF8FE195E0AA
:101D0000F5CF1F920F920FB60F9211240BB60F92C0
:101D10002F933F934F935F936F937F938F939F93F3
:101D2000AF93BF93EF93FF938FE89DEF90932501BF
:101D30008093240134D0FF91EF91BF91AF919F9197
:101D40008F917F916F915F914F913F912F910F9064
:101D50000BBE0F900FBE0F901F9018958FE89DEF50
:101D60009093250180932401A3E7B0E08C918E7FAE
:101D70008C93E0E2F1E080818C7F8083E1E2F1E00E
:101D80008081877E808380818460808380818C7F56
:101D900080838C9181608C93089581E00895809177
:101DA0003C0391E0980F90933C03882349F021E095
:101DB00030E030933E0320933D0380933C0308952D
:101DC00078940E949A05F89480913C038150F5CF55
:101DD000CF93DF9310925F0610925E06A2D56EDF5E
:101DE000C091F002D091F102198218829CDCF89423
:101DF000B5DF81E028813981232B09F080E08093D1
:101E00005E067894789480915E06811107C0C6DDE5
:101E1000F89490E080E0DF91CF91089581E02881EF
:101E20003981232B09F480E080935F0690915F064F
:101E300081E0911180E080935E06AFDFE4CF5058DF
:101E4000BB27AA270ED025C2EED130F0F3D120F067
:101E500031F49F3F11F41EF4BEC10EF4E095E7FB90
:101E6000B4C1E92F38D280F3BA1762077307840729
:101E7000950718F071F49EF550C20EF4E0950B2E04
:101E8000BA2FA02D0B01B90190010C01CA01A001CC
:101E90001124FF27591B99F0593F50F4503E68F127
:101EA0001A16F040A22F232F342F4427585FF3CF68
:101EB000469537952795A795F0405395C9F77EF439
:101EC0001F16BA0B620B730B840BBAF09150A1F082
:101ED000FF0FBB1F661F771F881FC2F70EC0BA0F08
:101EE000621F731F841F48F4879577956795B79590
:101EF000F7959E3F08F0B3CF9395880F08F0992788
:101F0000EE0F9795879508958ED158F080E891E06F
:101F100009F49EEF8FD128F040E851E059F45EEFCC
:101F200009C059C1FAC1E92FE078D5D168F3092E6B
:101F3000052AC1F3261737074807590738F00E2E30
:101F400007F8E02569F0E025E0640AC0EF6307F8D0
:101F5000009407FADB01B9019D01DC01CA01AD0162
:101F6000EF9348D096D10AD05F91552331F02BEDF5
:101F70003FE049E450FD49EC63CF0895DF93DD274E
:101F8000B92FBF7740E85FE31616170648075B07CF
:101F900010F4D92FCDD19F938F937F936F937AD2E3
:101FA000E4EEF0E01BD175D12F913F914F915F91FD
:101FB000D2D1DD2349F09058A2EA2AED3FE049EC66
:101FC0005FE3D0785D274DDFDF9163C1DAD008F49D
:101FD00081E0089537D1E3956DC12CD140F023D134
:101FE00030F021F45F3F19F0F0C0511197C1F3C0F8
:101FF00072D198F39923C9F35523B1F3951B550B6F
:10200000BB27AA2762177307840738F09F5F5F4FCB
:10201000220F331F441FAA1FA9F333D00E2E3AF00C
:10202000E0E830D091505040E695001CCAF729D026
:10203000FE2F27D0660F771F881FBB1F2617370775
:102040004807AB07B0E809F0BB0B802DBF01FF27A5
:1020500093585F4F2AF09E3F510568F0B6C05EC1AD
:102060005F3FECF3983EDCF3869577956795B795DF
:10207000F7959F5FC9F7880F911D9695879597F9FA
:102080000895E1E0660F771F881FBB1F6217730773
:102090008407BA0720F0621B730B840BBA0BEE1F88
:1020A00088F7E095089504D06894B11137C1089578
:1020B0001AD188F09F5790F0B92F9927B751A0F007
:1020C000D1F0660F771F881F991F1AF0BA95C9F7CC
:1020D00012C0B13081F021D1B1E008951EC1672F47
:1020E000782F8827B85F39F0B93FCCF3869577957C
:1020F0006795B395D9F73EF4909580957095619565
:102100007F4F8F4F9F4F0895E89409C097FB3EF48F
:1021100090958095709561957F4F8F4F9F4F992334
:10212000A9F0F92F96E9BB279395F69587957795B2
:102130006795B795F111F8CFFAF4BB0F11F460FF72
:102140001BC06F5F7F4F8F4F9F4F16C0882311F0CA
:1021500096E911C0772321F09EE8872F762F05C0DE
:10216000662371F096E8862F70E060E02AF09A9579
:10217000660F771F881FDAF7880F9695879597F96E
:102180000895990F0008550FAA0BE0E8FEEF161608
:102190001706E807F907C0F012161306E407F5075B
:1021A00098F0621B730B840B950B39F40A2661F0CF
:1021B000232B242B252B21F408950A2609F4A14072
:1021C000A6958FEF811D811D089597F99F6780E87F
:1021D00070E060E008959FEF80EC0895DF93CF9367
:1021E0001F930F93FF92EF92DF927B018C01689413
:1021F00005C0DA2EEF01AFD0FE01E894A59125913C
:10220000359145915591AEF3EF012BDEFE0197011B
:10221000A801DA9479F7DF90EF90FF900F911F916A
:10222000CF91DF91089500240A9416161706180618
:102230000906089500240A941216130614060506CA
:102240000895C9CF50D0E8F3E894E0E0BB279F574A
:10225000F0F02AED3FE049EC06C0EE0FBB0F661F21
:10226000771F881F28F0B23A62077307840728F0A7
:10227000B25A620B730B840BE3959A9572F7803810
:1022800030F49A95BB0F661F771F881FD2F79048CE
:1022900008C1092E0394000C11F4882352F0BB0FDF
:1022A00040F4BF2B11F460FF04C06F5F7F4F8F4F6E
:1022B0009F4F0895EF93E0FF06C0A2EA2AED3FE0AA
:1022C00049EC5FEBCEDDE5DF0F90039401FC905805
:1022D000E1E1F1E0F9C057FD9058440F551F59F066
:1022E0005F3F71F04795880F97FB991F61F09F3F03
:1022F00079F087950895121613061406551FF2CF2C
:102300004695F1DF08C0161617061806991FF1CF7B
:1023100086957105610508940895E894BB276627A2
:102320007727CB0197F908952CDF08F48FEF0895F4
:102330009B01AC0160E070E080E89FE3AEC00BD091
:10234000A8CF71DF28F076DF18F0952309F03DCF94
:1023500042CF1124E3CFBFDFA0F3959FD1F3950FB8
:1023600050E0551F629FF001729FBB27F00DB11D19
:10237000639FAA27F00DB11DAA1F649F6627B00DA9
:10238000A11D661F829F2227B00DA11D621F739F92
:10239000B00DA11D621F839FA00D611D221F749FA0
:1023A0003327A00D611D231F849F600D211D822FE7
:1023B000762F6A2F11249F5750408AF0E1F088232E
:1023C0004AF0EE0FFF1FBB1F661F771F881F91503B
:1023D0005040A9F79E3F510570F0F7CE9FCF5F3F69
:1023E000ECF3983EDCF3869577956795B795F7956E
:1023F000E7959F5FC1F7FE2B880F911D96958795F6
:1024000097F908959F931EDF0F9007FCEE5F52CF60
:1024100011F40EF4E0CE43C066DFD0F39923D9F374
:10242000CEF39F57550B87FF48D00024A0E640EA23
:10243000900180585695979528F4805C660F771F19
:10244000881F20F026173707480730F4621B730BEC
:10245000840B202931294A2BA6951794079420250F
:1024600031254A2758F7660F771F881F20F0261757
:102470003707480730F4620B730B840B200D311DB6
:10248000411DA09581F7B901842F9158880F969529
:10249000879508959B01AC0152CFAADDFACE9F3FEC
:1024A00031F0915020F4879577956795B795880F0F
:1024B000911D9695879597F9089591505040660F14
:1024C000771F881FD2F708959F938F937F936F9301
:1024D000FF93EF939B01AC0132DFEF91FF917EDE22
:1024E0002F913F914F915F912ACF0895883008F046
:1024F00075C0E82FF0E0EE0FFF1FE052FD4F718333
:1025000060838150873008F03CC0E82FF0E08827D6
:10251000E457FD4E8F4FB3C7C91293129B12A712F7
:10252000B412D512E212809169008C7F482B40933F
:102530006900E89A089580916900837F440F551FD0
:10254000440F551F482B40936900E99A08958091E4
:1025500069008F7C74E0440F551F7A95E1F7482B92
:1025600040936900EA9A0895809169008F7366E04C
:10257000440F551F6A95E1F7482B40936900EB9A89
:10258000089580916A008C7F482B40936A00EC9AF2
:10259000089580916A00837F440F551F440F551F93
:1025A000482B40936A00ED9A089580916A008F7CD1
:1025B00024E0440F551F2A95E1F7482B40936A0009
:1025C000EE9A089580916A008F7396E0440F551F2C
:1025D0009A95E1F7482B40936A00EF9A08951F926D
:1025E0000F920FB60F9211240BB60F922F933F93B9
:1025F0004F935F936F937F938F939F93AF93BF930B
:10260000EF93FF93E091E402F091E5021995FF91B9
:10261000EF91BF91AF919F918F917F916F915F915A
:102620004F913F912F910F900BBE0F900FBE0F90C7
:102630001F9018951F920F920FB60F9211240BB690
:102640000F922F933F934F935F936F937F938F934B
:102650009F93AF93BF93EF93FF93E091E602F091C6
:10266000E7021995FF91EF91BF91AF919F918F91E3
:102670007F916F915F914F913F912F910F900BBE82
:102680000F900FBE0F901F9018951F920F920FB6CC
:102690000F9211240BB60F922F933F934F935F939A
:1026A0006F937F938F939F93AF93BF93EF93FF931A
:1026B000E091E802F091E9021995FF91EF91BF9145
:1026C000AF919F918F917F916F915F914F913F91CA
:1026D0002F910F900BBE0F900FBE0F901F9018956B
:1026E0001F920F920FB60F9211240BB60F922F93D9
:1026F0003F934F935F936F937F938F939F93AF938A
:10270000BF93EF93FF93E091EA02F091EB021995EA
:10271000FF91EF91BF91AF919F918F917F916F91B9
:102720005F914F913F912F910F900BBE0F900FBE75
:102730000F901F9018951F920F920FB60F921124B1
:102740000BB60F922F933F934F935F936F937F93AB
:102750008F939F93AF93BF93EF93FF93E091E0022A
:10276000F091E1021995FF91EF91BF91AF919F9187
:102770008F917F916F915F914F913F912F910F902A
:102780000BBE0F900FBE0F901F9018951F920F92C7
:102790000FB60F9211240BB60F922F933F934F93C6
:1027A0005F936F937F938F939F93AF93BF93EF93B9
:1027B000FF93E091E202F091E3021995FF91EF910E
:1027C000BF91AF919F918F917F916F915F914F9149
:1027D0003F912F910F900BBE0F900FBE0F901F9047
:1027E00018951F920F920FB60F9211240BB60F92ED
:1027F0002F933F934F935F936F937F938F939F9309
:10280000AF93BF93EF93FF93E091EC02F091ED0251
:102810001995FF91EF91BF91AF919F918F917F910A
:102820006F915F914F913F912F910F900BBE0F9041
:102830000FBE0F901F9018951F920F920FB60F9218
:1028400011240BB60F922F933F934F935F936F9387
:102850007F938F939F93AF93BF93EF93FF93E091F9
:10286000EE02F091EF021995FF91EF91BF91AF91B8
:102870009F918F917F916F915F914F913F912F9198
:102880000F900BBE0F900FBE0F901F9018951F92C8
:102890000F920FB60F9211242F933F938F939F9314
:1028A000AF93BF938091400390914103A091420365
:1028B000B091430330913F0323E0230F2D3758F5A8
:1028C0000196A11DB11D20933F0380934003909377
:1028D0004103A0934203B09343038091440390913A
:1028E0004503A0914603B09147030196A11DB11D78
:1028F0008093440390934503A0934603B09347030A
:10290000BF91AF919F918F913F912F910F900FBEEB
:102910000F901F90189526E8230F0296A11DB11D58
:10292000D2CF789484B5826084BD84B5816084BD43
:1029300085B5826085BD85B5816085BDEEE6F0E038
:10294000808181608083E1E8F0E010828081826094
:102950008083808181608083E0E8F0E08081816015
:102960008083E1EBF0E0808184608083E0EBF0E045
:10297000808181608083E1E9F0E0808182608083F2
:10298000808181608083E0E9F0E0808181608083E4
:10299000E1EAF0E0808182608083808181608083D1
:1029A000E0EAF0E0808181608083E1E2F1E0808113
:1029B00082608083808181608083E0E2F1E08081B9
:1029C00081608083EAE7F0E0808184608083808199
:1029D0008260808380818160808380818068808341
:1029E0001092C10008951F93CF93DF93182FEB012E
:1029F00061E033D1209731F460E0812FDF91CF91F6
:102A00001F9167C1CF3FD10511F461E0F6CFE12FEF
:102A1000F0E0E05DFE4FE491E150E23108F0B2C039
:102A2000F0E08827EA5EFA4E8F4F29C52815301549
:102A300035153F154915C21553155B1563156D15F1
:102A40007715811590159A15C215A415AE15B815F0
:102A500084B5806884BDC7BDDF91CF911F91089573
:102A600084B5806284BDC8BDF7CF80918000806846
:102A700080938000D0938900C0938800EDCF80912F
:102A80008000806280938000D0938B00C0938A0086
:102A9000E3CF80918000886080938000D0938D0088
:102AA000C0938C00D9CF8091B00080688093B00033
:102AB000C093B300D1CF8091B00080628093B0000A
:102AC000C093B400C9CF809190008068809390003B
:102AD000D0939900C0939800BFCF809190008062FE
:102AE00080939000D0939B00C0939A00B5CF8091C3
:102AF0009000886080939000D0939D00C0939C00CC
:102B0000ABCF8091A00080688093A0008091A0004E
:102B10008F7B8093A000D093A900C093A8009CCF86
:102B20008091A00080628093A000D093AB00C093FE
:102B3000AA0092CF8091A00088608093A000D093DB
:102B4000AD00C093AC0088CF809120018068809355
:102B50002001D0932901C09328017ECF80912001CC
:102B6000806280932001D0932B01C0932A0174CFFF
:102B700080912001886080932001D0932D01C09323
:102B80002C016ACFC038D1050CF03FCF35CF815032
:102B9000823108F059C0E82FF0E08827EE52FA4E53
:102BA0008F4F6DC4F215F615E415EA15EE152416CF
:102BB000F915FF15031609160D16111617161B1613
:102BC00024161F1625162916809180008F77809372
:102BD00080000895809180008F7DF9CF80918000E2
:102BE000877FF5CF84B58F7784BD089584B58F7DB9
:102BF000FBCF8091B0008F778093B00008958091D3
:102C0000B0008F7DF9CF809190008F7780939000F6
:102C10000895809190008F7DF9CF80919000877FFB
:102C2000F5CF8091A0008F778093A00008958091C8
:102C3000A0008F7DF9CF8091A000877FF5CF809194
:102C400020018F77809320010895809120018F7D4E
:102C5000F9CF80912001877FF5CFCF93DF9390E06C
:102C6000FC01EA58FE4F249184549E4FFC0184914C
:102C70008823C9F090E0880F991FFC01EA5CFD4FA2
:102C8000A591B491FC01E45EFD4FC591D491611111
:102C90000DC09FB7F8948C91209582238C938881E6
:102CA000282328839FBFDF91CF910895623051F48C
:102CB0009FB7F8943C91822F809583238C93E88171
:102CC0002E2BEFCF8FB7F894EC912E2B2C938FBF38
:102CD000EACF1F93CF93DF93282F30E0F901E05D17
:102CE000FE4F8491F901EA58FE4FD491F901E45462
:102CF000FE4FC491CC23A1F0162F811148DFEC2F99
:102D0000F0E0EE0FFF1FE45EFD4FA591B4918FB789
:102D1000F894EC91111108C0D095DE23DC938FBF9D
:102D2000DF91CF911F910895DE2BF8CFFC01918D9B
:102D3000228D892F90E0805C9F4F821B91098F73B9
:102D400099270895FC01918D828D981731F0828D1D
:102D5000E80FF11D858D90E008958FEF9FEF0895A6
:102D6000FC01918D828D981761F0A28DAE0FBF2F5F
:102D7000B11D5D968C91928D9F5F9F73928F90E0B5
:102D800008958FEF9FEF0895FC01538D448D252FFB
:102D900030E0842F90E0821B930B541710F0CF96F5
:102DA000089501970895FC01A48DA80FB92FB11DB6
:102DB000A35ABF4F2C91848D90E001968F73992771
:102DC000848FA689B7892C93A089B1898C9183704F
:102DD00080648C93938D848D981306C00288F38948
:102DE000E02D80818F7D80830895CF93DF93EC0168
:102DF000888D8823B1F0AA89BB89E889F9898C91EB
:102E000085FD03C0808186FD0CC00FB607FCF7CF9F
:102E10008C9185FFF2CF808185FFEDCFCE01C3DF9E
:102E2000EACFDF91CF910895EF92FF920F931F9316
:102E3000CF93DF93EC0181E0888F9B8D8C8D98136D
:102E40001AC0E889F989808185FF15C09FB7F89479
:102E5000EE89FF896083E889F989808183708064C5
:102E600080839FBF81E090E0DF91CF911F910F9110
:102E7000FF90EF900895F62E0B8D10E00F5F1F4F1F
:102E80000F731127E02E8C8D8E110BC00FB607FC2F
:102E9000FACFE889F989808185FFF5CFCE0183DFFC
:102EA000F2CFEB8DEC0FFD2FF11DE35AFF4FF082B7
:102EB0009FB7F8940B8FEA89FB8980818062D0CF1D
:102EC000CF92DF92EF92FF921F93CF93DF93EC01AB
:102ED0006A017B01122FE889F98982E08083C1149D
:102EE00081EED806E104F10499F060E079E08DE329
:102EF00090E0A7019601A1D2215031094109510961
:102F00005695479537952795211580E1380790F01C
:102F1000E889F989108260E874E88EE190E0A70101
:102F200096018BD221503109410951095695479597
:102F300037952795EC85FD853083EE85FF852083C9
:102F4000188EEC89FD891083EA89FB898081806174
:102F50008083EA89FB89808188608083EA89FB8994
:102F6000808180688083EA89FB8980818F7D80836E
:102F7000DF91CF911F91FF90EF90DF90CF90089558
:102F80001F920F920FB60F9211240BB60F922F9330
:102F90008F939F93EF93FF93E0915803F091590320
:102FA0008081E0915E03F0915F0382FD1DC09081FE
:102FB000809161038F5F8F7320916203821741F0CC
:102FC000E0916103F0E0E85BFC4F958F8093610333
:102FD000FF91EF919F918F912F910F900BBE0F90CA
:102FE0000FBE0F901F9018958081F2CF1F920F9205
:102FF0000FB60F9211240BB60F922F933F934F935E
:103000005F936F937F938F939F93AF93BF93EF9350
:10301000FF9388E493E0C7DEFF91EF91BF91AF91FA
:103020009F918F917F916F915F914F913F912F91E0
:103030000F900BBE0F900FBE0F901F901895E8E4F5
:10304000F3E01382128288EE93E0A0E0B0E0848384
:103050009583A683B78386EF92E09183808385EC86
:1030600090E09587848784EC90E09787868780EC52
:1030700090E0918B808B81EC90E0938B828B82EC43
:1030800090E0958B848B86EC90E0978B868B118EED
:10309000128E138E148E08951F920F920FB60F92F8
:1030A00011240BB60F922F938F939F93EF93FF935F
:1030B000E091F503F091F6038081E091FB03F0913C
:1030C000FC0382FD1DC090818091FE038F5F8F7392
:1030D0002091FF03821741F0E091FE03F0E0EB51F5
:1030E000FC4F958F8093FE03FF91EF919F918F91FD
:1030F0002F910F900BBE0F900FBE0F901F90189541
:103100008081F2CF1F920F920FB60F9211240BB64F
:103110000F922F933F934F935F936F937F938F9370
:103120009F93AF93BF93EF93FF9385EE93E03BDEC6
:10313000FF91EF91BF91AF919F918F917F916F918F
:103140005F914F913F912F910F900BBE0F900FBE4B
:103150000F901F901895E5EEF3E01382128288EE2F
:1031600093E0A0E0B0E084839583A683B78386EFE5
:1031700092E0918380838DEC90E0958784878CEC3E
:1031800090E09787868788EC90E0918B808B89EC24
:1031900090E0938B828B8AEC90E0958B848B8EEC05
:1031A00090E0978B868B118E128E138E148E08955D
:1031B0001F920F920FB60F9211240BB60F922F93FE
:1031C0008F939F93EF93FF93E0919204F091930478
:1031D0008081E0919804F091990482FD1DC0908156
:1031E00080919B048F5F8F7320919C04821741F024
:1031F000E0919B04F0E0EE57FB4F958F80939B048A
:10320000FF91EF919F918F912F910F900BBE0F9097
:103210000FBE0F901F9018958081F2CF1F920F92D2
:103220000FB60F9211240BB60F922F933F934F932B
:103230005F936F937F938F939F93AF93BF93EF931E
:10324000FF9382E894E0AFDDFF91EF91BF91AF91E2
:103250009F918F917F916F915F914F913F912F91AE
:103260000F900BBE0F900FBE0F901F901895E2E8C5
:10327000F4E01382128288EE93E0A0E0B0E0848351
:103280009583A683B78386EF92E09183808385ED53
:1032900090E09587848784ED90E09787868780ED1E
:1032A00090E0918B808B81ED90E0938B828B82ED0F
:1032B00090E0958B848B86ED90E0978B868B118EBA
:1032C000128E138E148E08951F920F920FB60F92C6
:1032D00011240BB60F922F938F939F93EF93FF932D
:1032E000E0912F05F09130058081E0913505F09156
:1032F000360582FD1DC09081809138058F5F8F73E8
:1033000020913905821741F0E0913805F0E0E15E47
:10331000FA4F958F80933805FF91EF919F918F9190
:103320002F910F900BBE0F900FBE0F901F9018950E
:103330008081F2CF1F920F920FB60F9211240BB61D
:103340000F922F933F934F935F936F937F938F933E
:103350009F93AF93BF93EF93FF938FE195E023DDAE
:10336000FF91EF91BF91AF919F918F917F916F915D
:103370005F914F913F912F910F900BBE0F900FBE19
:103380000F901F901895EFE1F5E01382128288EEFE
:1033900093E0A0E0B0E084839583A683B78386EFB3
:1033A00092E09183808385E391E09587848784E32D
:1033B00091E09787868780E391E0918B808B81E312
:1033C00091E0938B828B82E391E0958B848B86E3F3
:1033D00091E0978B868B118E128E138E148E08952A
:1033E000AF92BF92CF92DF92EF92FF920F931F9313
:1033F000CF93DF936C017B018B01040F151FEB0151
:103400005E01AE18BF08C017D10759F06991D60107
:10341000ED91FC910190F081E02DC6011995892B69
:1034200079F7C501DF91CF911F910F91FF90EF9038
:10343000DF90CF90BF90AF900895A1E21A2EAA1B03
:10344000BB1BFD010DC0AA1FBB1FEE1FFF1FA21754
:10345000B307E407F50720F0A21BB30BE40BF50B51
:10346000661F771F881F991F1A9469F760957095DA
:10347000809590959B01AC01BD01CF010895EE0FA1
:10348000FF1F881F8BBF0790F691E02D1994F894C9
:02349000FFCF6C
:10349200000000000000000001D9FC44E12FFF44BD
:1034A200000000000000000000000000000000001A
:1034B2000000000000007FC300007FC30000C8427C
:1034C2000000C842BDBDC03F1CBDF4425C6EF0426C
:1034D20000007F4300007F43000080BF000080BFE8
:1034E200000000006666663F6666663FCDCC6C40B3
:1034F200CDCC6C4000000000000000009A99193FFA
:103502009A99193F9A9919C00000803F0000803FA4
:10351200AE47E1BDAE47E13D0000003F5D7491C0A2
:103522000000003F5D7491400AD7233C0000000078
:1035320000000000000000000000C8420AD7233C3F
:103542000AD7233C0000000000007FC300007F4335
:10355200000000000AD7233C0AD7233C00000000E9
:1035620000007FC300007F430000000059EC474A7F
:103572007512751275127512751275127512751211
:103582003A03000000001417F019C416F516961637
:04359200B016A216B7
:00000001FF
