:1000000005C100000C94900F0C94BB0F0C94E60FEC
:100010000C9411100C943C100C9467100C949210DA
:100020000C94BD1024C1000022C1000020C10000BA
:100030001EC100001CC100001AC1000018C1000050
:1000400016C1000014C1000012C1000010C1000060
:100050000EC100000CC100000AC100000C94E810A1
:1000600006C100000C9461140C94971400C10000A8
:10007000FEC00000FCC00000FAC00000F8C0000094
:10008000F6C00000F4C00000F2C00000F0C00000A4
:100090000C94ED140C942315EAC00000E8C0000095
:1000A000E6C00000E4C00000E2C00000E0C00000C4
:1000B000DEC00000DCC00000DAC00000D8C00000D4
:1000C000D6C00000D4C000000C94C50C0C94791567
:1000D0000C94AF15CCC000000C9405160C943B1684
:1000E000C6C0000000000A0B02090C0D0E08070331
:1000F00004010000000000000000000000000000FB
:1001000000000000000000000000000000000000EF
:1001100012111000000000000000000000000000AC
:100120000000000000000000000001021020200874
:100130000810204010204080020102010804020142
:1001400001020408102040808040201008040201B1
:10015000800402018040201008040201080402010A
:100160000102040810204080010204081020408091
:1001700005050505070508080808020202020A0A23
:100180000808040404040101010101010101030341
:10019000030303030303040707070C0C0C0C0C0CEC
:1001A0000C0C0202020206060606060606060B0BE9
:1001B0000B0B0B0B0B0B000020002300260029006B
:1001C0002C002F003200000100000301060109018C
:1001D00000002200250028002B002E0031003400F2
:1001E00002010000050108010B01000021002400AC
:1001F00027002A002D003000330001010000040117
:1002000007010A01C0144C15D815641611241FBE2D
:10021000CFEFD1E2DEBFCDBF00E00CBF13E0A0E026
:10022000B2E0E4EDFDE200E00BBF02C007900D92EA
:10023000A038B107D9F726E0A0E8B3E001C01D92CD
:10024000AA3BB207E1F711E0C6E0D1E000E006C04A
:1002500021970109802FFE010E94E016C230D107CC
:1002600080E00807A9F70E942C0D0C94E816C8CE70
:10027000611102C00C94CE126130E1F362E0FACF5A
:10028000662319F061E00C940A1360E0FCCFCF9272
:10029000DF92EF92FF92CF93882351F16A017B01A5
:1002A000CFEFC80F20E030E0A901CB01B6010E94DA
:1002B000C80D18168CF0C701B60190580E94D10DD8
:1002C0009B01AC016C2F70E090E080E0CF91FF903B
:1002D000EF90DF90CF90B2C0C701B6010E94CC0D65
:1002E0008C2FCF91FF90EF90DF90CF900C949411D2
:1002F000CF91FF90EF90DF90CF9008950F931F93D1
:100300008B019C0183E036952795179507958A9573
:10031000D1F700581C4F462F477021E030E0F9011B
:1003200002C0EE0FFF1F4A95E2F7AF01F8012081EE
:100330002423CB010196211102C090E080E01F919F
:100340000F9108950F931F938B019C0183E03695C5
:100350002795179507958A95D1F7677081E090E00A
:1003600001C0880F6A95EAF7F801E058FC4F208138
:10037000452B31F48095822380831F910F9108953E
:10038000822BFACF2F923F924F925F926F927F9281
:100390008F929F92AF92BF92CF92DF92EF92FF9295
:1003A0000F931F93CF93DF93D62EC72E782E692EEF
:1003B00049015A01280161E08D2D0E94CE12CD2DF8
:1003C000DC2D8E010F5F1F4FA8016D2D7C2D872D19
:1003D000962DB8DF20E030E0A901C201B7010E94EC
:1003E000AF0E181664F4C201B7010E94D10D2B01A3
:1003F000C501B4010E94D10DA201CE0123D0C801D4
:10040000DF91CF911F910F91FF90EF90DF90CF90F0
:10041000BF90AF909F908F907F906F905F904F9024
:100420003F902F900895882341F08150682F70E00D
:1004300090E080E050E040E085CF0895862FB9013C
:100440000C9494119C01FC01EC51FF4FE491E1509C
:10045000E231E0F4F0E08827EF5CFD4F8F4F0C9421
:10046000E01643024A024D026402790246028E02FD
:100470009A029E02B502CA02DF02F6020B0346028E
:10048000200337034C0384B5806884BD60E0822F6D
:100490000C940A1384B58062F8CF809180008C7F21
:1004A00082608093800080918100807E8061682BD3
:1004B0006093810050938700409386008091800074
:1004C000806880938000E2CF809180008C7F826082
:1004D0008093800080918100807E8061682B609392
:1004E0008100509387004093860080918000806255
:1004F000E8CF809180008C7F826080938000809123
:100500008100807E8061682B60938100509387001A
:1005100040938600809180008860D3CF8091B000A6
:1005200080688093B0008091B100887F682B6093D1
:10053000B100ACCF8091B0008062F3CF8091900089
:100540008C7F82608093900080919100807E80619A
:10055000682B609391005093970040939600809190
:10056000900080688093900091CF809190008C7F64
:1005700082608093900080919100807E8061682BE2
:100580006093910050939700409396008091900063
:100590008062E8CF809190008C7F82608093900091
:1005A00080919100807E8061682B609391005093D0
:1005B000970040939600809190008860D3CF8091FF
:1005C000A0008C7F82608093A0008091A100807E3B
:1005D0008061682B6093A1005093A7004093A60010
:1005E0008091A00080688093A00050CF8091A000EF
:1005F0008C7F82608093A0008091A100807E8061CA
:10060000682B6093A1005093A7004093A6008091AF
:10061000A0008062E8CF8091A0008C7F82608093F0
:10062000A0008091A100807E8061682B6093A10072
:100630005093A7004093A6008091A0008860D3CF7C
:10064000809120018C7F8260809320018091210124
:10065000807E8061682B6093210150932701409335
:100660002601809120018068809320010FCF809126
:1006700020018C7F82608093200180912101807E07
:100680008061682B609321015093270140932601DC
:10069000809120018062E8CF809120018C7F826070
:1006A0008093200180912101807E8061682B60937E
:1006B00021015093270140932601809120018860F9
:1006C000D3CFFC01A781B0858C9191858923A4812A
:1006D000B5819C91408151816281738126819223F1
:1006E00059F081110BC04F5F5F4F6F4F7F4F4083B9
:1006F00051836283738308958111F5CF415051096D
:1007000061097109F4CF8AE893E0DBCF85E993E0D2
:10071000D8CF80EA93E0D5CF8BEA93E0D2CFFC012B
:10072000A481B5818C9196818923A781B0859C9104
:1007300040815181628173812185922359F0882300
:1007400059F04F5F5F4F6F4F7F4F408351836283FC
:10075000738308958823A9F34150510961097109F0
:10076000F4CF8AE893E0DBCF85E993E0D8CF80EA45
:1007700093E0D5CF8BEA93E0D2CF0F931F93CF9323
:10078000DF93D82FC62F8A01A09189038BE0A89F01
:10079000D0011124A657BC4F1D921D921D921C9290
:1007A000139781E01A968C931A978D2F90E0FC0195
:1007B000E65DFE4FE4911696EC931697FC01E05926
:1007C000FE4FE491F0E0EE0FFF1FEA54FE4F8591DB
:1007D000949115969C938E931497862F90E0FC012C
:1007E000E65DFE4FE4911996EC931997FC01E059F0
:1007F000FE4FE491F0E0EE0FFF1FEA54FE4F8591AB
:10080000949118969C938E93179760E08D2F0E9479
:10081000CE1260E08C2F0E94CE128091890381302D
:1008200009F43FC0A8F0823009F462C0833009F4B3
:1008300086C08091890391E0980F90938903F80115
:10084000808390E080E0DF91CF911F910F91089518
:1008500080E0D23049F081E0D33031F08EEE8D0F60
:100860008430D8F487E18D1B41E050E063E873E009
:100870000E94170F80E0C23049F081E0C33031F0B0
:100880008EEE8C0F843058F487E18C1B41E050E0F1
:1008900061EB73E00E94170FCCCF8FEFE5CF8FEFA6
:1008A000F5CF80E0D23049F081E0D33031F08EEEE8
:1008B0008D0F8430C8F487E18D1B41E050E066E87D
:1008C00073E00E94170F80E0C23049F081E0C3302E
:1008D00031F08EEE8C0F843048F487E18C1B41E0C0
:1008E00050E064EB73E0D6CF8FEFE7CF8FEFF7CF19
:1008F00080E0D23049F081E0D33031F08EEE8D0FC0
:100900008430C8F487E18D1B41E050E069E873E072
:100910000E94170F80E0C23049F081E0C33031F00F
:100920008EEE8C0F843048F487E18C1B41E050E060
:1009300067EB73E0AFCF8FEFE7CF8FEFF7CF80E0BC
:10094000D23049F081E0D33031F08EEE8D0F84301B
:10095000C8F487E18D1B41E050E06CE873E00E9431
:10096000170F80E0C23049F081E0C33031F08EEEE5
:100970008C0F843048F487E18C1B41E050E06AEB37
:1009800073E088CF8FEFE7CF8FEFF7CF9BE0899FA2
:10099000F0011124E657FC4F80819181A281B3813F
:1009A000FB0180839183A283B38390E080E008956C
:1009B0009BE0899FF0011124E657FC4F10821182C1
:1009C0001282138290E080E0089590E080E0089524
:1009D0002F923F924F925F926F927F928F929F924F
:1009E000AF92BF92CF92DF92EF92FF920F931F933D
:1009F000CF93DF93CDB7DEB764970FB6F894DEBF21
:100A00000FBECDBF6091B8037091B9038091BA0356
:100A10009091BB030E94FD0D2AE037ED43E25CE3B9
:100A20000E94B30E6B017C016090A8067090A9062D
:100A3000AC019B01D3016D917D918D919C910E94A0
:100A4000AF0E18160CF4FCC14090AA065090AB06ED
:100A5000F30184A895A8A6A8B7A8A7019601C50187
:100A6000B4010E94C80D811198C1D201D4964D9055
:100A70005D906D907C90D7972090AE063090AF0639
:100A8000A7019601F10160817181828193810E94A9
:100A9000AF0E18160CF42DC28091B0069091B106DD
:100AA0009A878987D10194968D909D90AD90BC9046
:100AB0009797A7019601C501B4010E94C80D811145
:100AC000C3C1E985FA85C4A0D5A0E6A0F7A08090AF
:100AD000040390900503A0900603B0900703A501BE
:100AE000940160915B0670915C0680915D06909127
:100AF0005E060E94C80D882341F080925B069092AA
:100B00005C06A0925D06B0925E0680915A06811145
:100B100010925A06BE016F5F7F4F80915F0636DFED
:100B20008090080390900903A0900A03B0900B03F3
:100B3000A501940160914F06709150068091510675
:100B4000909152060E94C80D882341F080924F0672
:100B500090925006A0925106B092520680914E0695
:100B6000811110924E06BE016B5F7F4F809153063C
:100B70000DDF609158037091590380915A03909151
:100B80005B030E94FF0D20E030E040E05AE20E944B
:100B9000B30E4B015C018091240390912503A09139
:100BA0002603B091270389879A87AB87BC87698121
:100BB0007A818B819C810E94FF0DA50194010E9486
:100BC000B30E29853A854B855C850E94B30E6D87EF
:100BD0007E878F87988B6D817E818F8198850E941B
:100BE000FF0DA50194010E94B30E9B01AC01698524
:100BF0007A858B859C850E94B30E698B7A8B8B8B53
:100C00009C8B209114033091150340911603509151
:100C10001703C301B2010E94B30E4B015C01209186
:100C20001C0330911D0340911E0350911F03C70107
:100C3000B6010E94B30E9B01AC01C501B40144D7BB
:100C40004B015C01209190063091910640919206F3
:100C5000509193066D857E858F85988934D79B0149
:100C6000AC01C501B4012FD769877A878B879C8730
:100C7000209118033091190340911A0350911B03DE
:100C8000C301B2010E94B30E4B015C01209120030D
:100C9000309121034091220350912303C701B601F3
:100CA0000E94B30E9B01AC01C501B4010DD76B01CD
:100CB0007C012091940630919506409196065091C2
:100CC000970669897A898B899C89FDD69B01AC013D
:100CD000C701B601F8D66B017C012091C0023091AA
:100CE000C1024091C2025091C3020E94B30E2091F2
:100CF00098063091990640919A0650919B06E3D64A
:100D00002091EC023091ED024091EE025091EF0201
:100D10000E94B30E4B015C0180923C0690923D060E
:100D2000A0923E06B0923F062091F4023091F50267
:100D30004091F6025091F702C701B6010E94B30E2E
:100D400020919C0630919D0640919E0650919F06F1
:100D5000BBD6A5019401B8D64B015C018092400638
:100D600090924106A0924206B09243064090FC0247
:100D70005090FD026090FE027090FF02A30192016C
:100D8000EED718160CF0B9C04092400650924106BA
:100D90006092420670924306BFC0A7019601C5014A
:100DA000B401F6D687FD4CC00091B4061091B5068B
:100DB0005801AA0CBB1CAA0CBB1C43018A0C9B1C2F
:100DC000A7019601F4016081718182819381C7D767
:100DD000F4E0AF0EB11C6A0C7B1C18162CF584E0F5
:100DE000881A9108A7019601D40114966D917D91FE
:100DF0008D919C911797B3D718168CF0C801880F66
:100E0000991F880F991F480E591ED2014D905D9071
:100E10006D907C901093B5060093B4062DCE0150D2
:100E20001109DDCF0F5F1F4FF30161917191819126
:100E300091913F01A7019601ABD618169CF7DECF22
:100E4000412C512C320118CEA7019601C501B401E5
:100E50009FD687FD4EC08090B6069090B70684015D
:100E6000000F111F000F111F5101A00EB11EA7018D
:100E70009601D5016D917D918D919C9170D70C5FFC
:100E80001F4F020D131D181644F5E4E0AE1AB10809
:100E9000A7019601D50114966D917D918D919C913C
:100EA00017975DD7181694F0F401EE0FFF1FEE0FA1
:100EB000FF1F89859A85E80FF91FC080D180E280E5
:100EC000F3809092B7068092B60601CEB1E08B1AFD
:100ED0009108DBCFBFEF8B1A9B0AF80161917191EA
:100EE000819191918F01A701960152D6181694F71E
:100EF000DBCFC12CD12C7601EACD4090E40250909A
:100F0000E5026090E6027090E702A3019201C5013C
:100F1000B4013ED687FD38CF11E020911003309107
:100F20001103409112035091130360914006709198
:100F3000410680914206909143062AD6811101C054
:100F400010E0612F8CE09CD964E070E080E090E0DC
:100F5000D5D92C0190938F0680938E061091400670
:100F600000914106709042066090430680903003E5
:100F700090903103A0903203B0903303A501940107
:100F8000612F702F872D962DEAD61816ACF0809021
:100F9000340390903503A0903603B0903703A50139
:100FA0009401612F702F872D962DF2D587FD04C0F7
:100FB000812E902EA72CB62CE894B7F820E030E0D4
:100FC0004FE753E4C501B401E3D5181634F4812C7E
:100FD000912C9FE7A92E93E4B92EB501A401C2017B
:100FE00056D965E070E080E090E088D98C0190935C
:100FF0007F0680937E0640904006509041066090A8
:101000004206709043068090380390903903A09078
:101010003A03B0903B03A5019401C301B2019FD6EE
:1010200018164CF48092400690924106A092420617
:10103000B09243060FC080903C0390903D03A09077
:101040003E03B0903F03A5019401C301B201A0D5B6
:1010500087FDE8CF20E030E04FE753E460914006A1
:1010600070914106809142069091430691D51816E1
:1010700064F480E090E0AFE7B3E48093400690939F
:101080004106A0934206B093430620E030E0A90158
:10109000609140067091410680914206909143060E
:1010A0005ED687FF08C0109240061092410610924B
:1010B00042061092430640914006509141066091CD
:1010C000420670914306C801E2D82091C4023091D3
:1010D000C5024091C6025091C70269857A858B8509
:1010E0009C8541D62091A0063091A1064091A20690
:1010F0005091A306E8D42091F0023091F102409182
:10110000F2025091F3022FD64B015C01809240060F
:1011100090924106A0924206B09243062091F802B6
:101120003091F9024091FA025091FB0269857A856B
:101130008B859C8518D62091A4063091A5064091F8
:10114000A6065091A706C0D4A5019401BDD44B01B9
:101150005C018092440690924506A0924606B092A9
:101160004706409000035090010360900203709086
:101170000303A3019201F3D518164CF440924406E0
:101180005092450660924606709247060FC0409006
:10119000E8025090E9026090EA027090EB02A3012D
:1011A0009201C501B401F4D487FDE8CF11E020918C
:1011B0000C0330910D0340910E0350910F03609189
:1011C0004406709145068091460690914706E0D40A
:1011D000811101C010E0612F8DE052D867E070E00E
:1011E00080E090E08BD82C01909387068093860650
:1011F000109144060091450670904606609047069F
:101200008090480390904903A0904A03B0904B030C
:10121000A5019401612F702F872D962DA0D518164A
:10122000ACF080904C0390904D03A0904E03B09092
:101230004F03A5019401612F702F872D962DA8D4FF
:1012400087FD04C0812E902EA72CB62CE894B7F809
:1012500020E030E04FE753E4C501B40199D41816FB
:1012600034F4812C912C8FE7A82E83E4B82EB5019D
:10127000A401C2010CD866E070E080E090E03ED8A6
:101280008C019093770680937606409044065090A8
:1012900045066090460670904706809050039090F7
:1012A0005103A0905203B0905303A5019401C301D0
:1012B000B20155D518164CF480924406909245061A
:1012C000A0924606B09247060FC0809054039090BB
:1012D0005503A0905603B0905703A5019401C30194
:1012E000B20156D487FDE8CF20E030E04FE753E469
:1012F000609144067091450680914606909147069C
:1013000047D4181664F480E090E0AFE7B3E480932C
:10131000440690934506A0934606B093470620E006
:1013200030E0A9016091440670914506809146061F
:101330009091470614D587FF08C01092440610927A
:101340004506109246061092470640914406509179
:1013500045066091460670914706C8010E94470104
:101360008D859E85AF85B889809390069093910670
:10137000A0939206B093930689899A89AB89BC8918
:101380008093940690939506A0939606B093970643
:1013900020913C0630913D0640913E0650913F061B
:1013A000609128037091290380912A0390912B0367
:1013B000DAD4209198063091990640919A0650917E
:1013C0009B0682D3609398067093990680939A0641
:1013D00090939B062091C8023091C9024091CA02A5
:1013E0005091CB02C701B601BED420912C0330919D
:1013F0002D0340912E0350912F03B5D420919C06CC
:1014000030919D0640919E0650919F065DD360935A
:101410009C0670939D0680939E0690939F06209154
:10142000400630914106409142065091430660913A
:10143000400370914103809142039091430393D400
:101440002091A0063091A1064091A2065091A306DA
:101450003BD36093A0067093A1068093A20690935D
:10146000A3062091CC023091CD024091CE02509142
:10147000CF0269857A858B859C8575D4209144033C
:101480003091450340914603509147036CD420911D
:10149000A4063091A5064091A6065091A70614D344
:1014A0006093A4067093A5068093A6069093A70662
:1014B0008091B8039091B903A091BA03B091BB0396
:1014C0000196A11DB11D8093B8039093B903A09319
:1014D000BA03B093BB0364960FB6F894DEBF0FBE99
:1014E000CDBFDF91CF911F910F91FF90EF90DF90D3
:1014F000CF90BF90AF909F908F907F906F905F90B4
:101500004F903F902F9008958F929F92AF92BF92ED
:10151000DF92EF92FF920F931F93CF93DF93C8E474
:10152000D6E088E892E09093A9068093A80680E52B
:1015300092E09093AB068093AA061092B5061092A3
:10154000B40688E292E09093AF068093AE0680E006
:1015500092E09093B1068093B0061092B706109275
:10156000B606E0ECF2E080899189A289B389809384
:10157000900690939106A0939206B0939306809361
:10158000940690939506A0939606B0939706848947
:101590009589A689B7898093980690939906A09318
:1015A0009A06B0939B06848D958DA68DB78D8093FA
:1015B0009C0690939D06A0939E06B0939F06808DF7
:1015C000918DA28DB38D8093A0069093A106A093D8
:1015D000A206B093A30680A191A1A2A1B3A180937A
:1015E000A4069093A506A093A606B093A7061F8A0B
:1015F0001C868091040390910503A0910603B0918D
:1016000007038B8B9C8BAD8BBE8B812C912C540153
:1016100083948D869E86AF86B88A4FE556E063E058
:1016200082E0ABD8DD24D394D98A1A8A8F89C0D9B5
:101630001B8618828091080390910903A0910A03E8
:10164000B0910B038F839887A987BA8789829A8282
:10165000AB82BC8243E556E062E183E18ED8DD8255
:101660001E828B85A5D918A289A29AA2ABA2BCA280
:1016700061E08CE00E943801DDA210928806809221
:10168000890690928A06A0928B06B0928C06E12C75
:10169000F12C8701A801970164E070E080E090E000
:1016A0000E94C20190938F0680938E06D0928D0681
:1016B00018AA89AA9AAAABAABCAAA801970165E0B0
:1016C00070E080E090E00E94C2019FAB8EABDDAA8B
:1016D000188E898E9A8EAB8EBC8E61E08DE00E9452
:1016E0003801DD8E18AE89AE9AAEABAEBCAEA801A5
:1016F000970167E070E080E090E00E94C2019FAF38
:101700008EAFDDAE18A689A69AA6ABA6BCA6A80188
:10171000970166E070E080E090E00E94C2019FA720
:101720008EA7DDA6DF91CF911F910F91FF90EF90D3
:10173000DF90BF90AF909F908F9008958091540656
:10174000811113C081E080935406809155069091D9
:101750005606A0915706B09158060197A105B1050C
:1017600021F480915906811130D980914806811168
:1017700013C081E0809348068091490690914A0603
:10178000A0914B06B0914C060197A105B10521F43B
:1017900080914D06811119D980916806811103C08D
:1017A00081E0809368068091880681112EC081E0D7
:1017B000809388068091890690918A06A0918B0675
:1017C000B0918C060197A105B105F9F480918D06C1
:1017D0008823D9F064E070E080E090E00E947E0110
:1017E00090938F0680938E0640E050E0BA010E94ED
:1017F000470164E070E080E090E00E947E019093F9
:101800008F0680938E060E941302809178068111C4
:101810002EC081E0809378068091790690917A06B7
:10182000A0917B06B0917C060197A105B105F9F462
:1018300080917D068823D9F065E070E080E090E03B
:101840000E947E0190937F0680937E0640E050E0E8
:10185000BA010E94470165E070E080E090E00E94DC
:101860007E0190937F0680937E060E9413028091F2
:101870006006811103C081E080936006809180063C
:1018800081112EC081E08093800680918106909125
:101890008206A0918306B09184060197A105B10547
:1018A000F9F4809185068823D9F067E070E080E044
:1018B00090E00E947E01909387068093860640E028
:1018C00050E0BA010E94470167E070E080E090E0DC
:1018D0000E947E0190938706809386060E941302E1
:1018E0008091700681112EC081E0809370068091F6
:1018F000710690917206A0917306B09174060197DB
:10190000A105B105F9F4809175068823D9F066E048
:1019100070E080E090E00E947E01909377068093D3
:10192000760640E050E0BA010E94470166E070E0B0
:1019300080E090E00E947E01909377068093760687
:101940000C941302089526E030E040E855E260E090
:1019500070E090E080E000C08130910569F01CF4F7
:10196000892B39F008958230910549F0039751F0A1
:10197000089588EC93E045C785E694E0FCCF82E0CB
:1019800095E0F9CF8FE995E0F6CF1F920F920FB651
:101990000F9211240BB60F922F933F934F935F93A7
:1019A0006F937F938F939F93AF93BF93EF93FF9327
:1019B0008FE89DEF909325018093240134D0FF910F
:1019C000EF91BF91AF919F918F917F916F915F91B7
:1019D0004F913F912F910F900BBE0F900FBE0F9024
:1019E0001F9018958FE89DEF909325018093240117
:1019F000A3E7B0E08C918E7F8C93E0E2F1E08081F0
:101A00008C7F8083E1E2F1E08081877E808380812A
:101A10008460808380818C7F80838C9181608C93B3
:101A2000089581E008958091BC0391E0980F909310
:101A3000BC03882349F021E030E03093BE032093BB
:101A4000BD038093BC03089578940E94E804F89441
:101A50008091BC038150F5CFCF93DF931092B906EC
:101A60001092B806FFD36FDFC0916C03D0916D0365
:101A70001982188249DDF894B5DF2881398181E027
:101A8000232B09F080E08093B806789478948091B5
:101A9000B806811107C052DEF89490E080E0DF9133
:101AA000CF9108952881398181E0232B09F480E0CA
:101AB0008093B9069091B90681E0911180E08093FE
:101AC000B806AFDFE4CF5058BB27AA270ED00DC110
:101AD000FED030F003D120F031F49F3F11F41EF41A
:101AE000F3C00EF4E095E7FBE9C0E92F0FD180F3D6
:101AF000BA17620773078407950718F071F49EF50B
:101B000027C10EF4E0950B2EBA2FA02D0B01B901C1
:101B100090010C01CA01A0011124FF27591B99F063
:101B2000593F50F4503E68F11A16F040A22F232F6F
:101B3000342F4427585FF3CF469537952795A795BF
:101B4000F0405395C9F77EF41F16BA0B620B730B66
:101B5000840BBAF09150A1F0FF0FBB1F661F771FD7
:101B6000881FC2F70EC0BA0F621F731F841F48F48C
:101B7000879577956795B795F7959E3F08F0B3CF12
:101B80009395880F08F09927EE0F979587950895FC
:101B900071D008F481E0089504D06894B111D9C0DF
:101BA0000895BCD088F09F5790F0B92F9927B7516E
:101BB000A0F0D1F0660F771F881F991F1AF0BA9511
:101BC000C9F712C0B13081F0C3D0B1E00895C0C0F0
:101BD000672F782F8827B85F39F0B93FCCF3869507
:101BE00077956795B395D9F73EF490958095709564
:101BF00061957F4F8F4F9F4F0895E89409C097FBE1
:101C00003EF490958095709561957F4F8F4F9F4FD3
:101C10009923A9F0F92F96E9BB279395F695879517
:101C200077956795B795F111F8CFFAF4BB0F11F4DA
:101C300060FF1BC06F5F7F4F8F4F9F4F16C0882381
:101C400011F096E911C0772321F09EE8872F762FB7
:101C500005C0662371F096E8862F70E060E02AF0F8
:101C60009A95660F771F881FDAF7880F96958795E4
:101C700097F90895990F0008550FAA0BE0E8FEEFB9
:101C800016161706E807F907C0F012161306E40740
:101C9000F50798F0621B730B840B950B39F40A2639
:101CA00061F0232B242B252B21F408950A2609F417
:101CB000A140A6958FEF811D811D089597F99F671B
:101CC00080E870E060E008959FEF80EC08950024C4
:101CD0000A941616170618060906089500240A9491
:101CE00012161306140605060895092E0394000C17
:101CF00011F4882352F0BB0F40F4BF2B11F460FFA6
:101D000004C06F5F7F4F8F4F9F4F089557FD9058CE
:101D1000440F551F59F05F3F71F04795880F97FBAF
:101D2000991F61F09F3F79F0879508951216130669
:101D30001406551FF2CF4695F1DF08C01616170698
:101D40001806991FF1CF86957105610508940895CD
:101D5000E894BB2766277727CB0197F908958ADF98
:101D600008F48FEF08950BD0C0CFB1DF28F0B6DFB5
:101D700018F0952309F0A2CFA7CF1124EACFC6DF30
:101D8000A0F3959FD1F3950F50E0551F629FF0018E
:101D9000729FBB27F00DB11D639FAA27F00DB11DE7
:101DA000AA1F649F6627B00DA11D661F829F222770
:101DB000B00DA11D621F739FB00DA11D621F839FF7
:101DC000A00D611D221F749F3327A00D611D231FCD
:101DD000849F600D211D822F762F6A2F11249F571B
:101DE00050408AF0E1F088234AF0EE0FFF1FBB1F3E
:101DF000661F771F881F91505040A9F79E3F5105DD
:101E000070F05CCFA6CF5F3FECF3983EDCF3869595
:101E100077956795B795F795E7959F5FC1F7FE2B87
:101E2000880F911D9695879597F9089508958830A4
:101E300008F075C0E82FF0E0EE0FFF1FE45AFC4FEA
:101E4000718360838150873008F03CC0E82FF0E058
:101E50008827E35DF04F8F4FB3C76A0F340F3C0FF5
:101E6000480F550F760F830F809169008C7F482BA8
:101E700040936900E89A089580916900837F440F38
:101E8000551F440F551F482B40936900E99A089548
:101E9000809169008F7C74E0440F551F7A95E1F7BB
:101EA000482B40936900EA9A0895809169008F73E6
:101EB00066E0440F551F6A95E1F7482B409369008F
:101EC000EB9A089580916A008C7F482B40936A00BA
:101ED000EC9A089580916A00837F440F551F440F48
:101EE000551F482B40936A00ED9A089580916A002F
:101EF0008F7C24E0440F551F2A95E1F7482B40932F
:101F00006A00EE9A089580916A008F7396E0440FFC
:101F1000551F9A95E1F7482B40936A00EF9A089570
:101F20001F920F920FB60F9211240BB60F922F93A0
:101F30003F934F935F936F937F938F939F93AF9351
:101F4000BF93EF93FF93E0916003F09161031995C4
:101F5000FF91EF91BF91AF919F918F917F916F9181
:101F60005F914F913F912F910F900BBE0F900FBE3D
:101F70000F901F9018951F920F920FB60F92112479
:101F80000BB60F922F933F934F935F936F937F9373
:101F90008F939F93AF93BF93EF93FF93E09162036F
:101FA000F09163031995FF91EF91BF91AF919F91CC
:101FB0008F917F916F915F914F913F912F910F90F2
:101FC0000BBE0F900FBE0F901F9018951F920F928F
:101FD0000FB60F9211240BB60F922F933F934F938E
:101FE0005F936F937F938F939F93AF93BF93EF9381
:101FF000FF93E0916403F09165031995FF91EF91D0
:10200000BF91AF919F918F917F916F915F914F9110
:102010003F912F910F900BBE0F900FBE0F901F900E
:1020200018951F920F920FB60F9211240BB60F92B4
:102030002F933F934F935F936F937F938F939F93D0
:10204000AF93BF93EF93FF93E0916603F091670323
:102050001995FF91EF91BF91AF919F918F917F91D2
:102060006F915F914F913F912F910F900BBE0F9009
:102070000FBE0F901F9018951F920F920FB60F92E0
:1020800011240BB60F922F933F934F935F936F934F
:102090007F938F939F93AF93BF93EF93FF93E091C1
:1020A0005C03F0915D031995FF91EF91BF91AF91A2
:1020B0009F918F917F916F915F914F913F912F9160
:1020C0000F900BBE0F900FBE0F901F9018951F9290
:1020D0000F920FB60F9211240BB60F922F933F93CE
:1020E0004F935F936F937F938F939F93AF93BF9320
:1020F000EF93FF93E0915E03F0915F031995FF91D9
:10210000EF91BF91AF919F918F917F916F915F916F
:102110004F913F912F910F900BBE0F900FBE0F90DC
:102120001F9018951F920F920FB60F9211240BB6A5
:102130000F922F933F934F935F936F937F938F9360
:102140009F93AF93BF93EF93FF93E0916803F09158
:1021500069031995FF91EF91BF91AF919F918F9175
:102160007F916F915F914F913F912F910F900BBE97
:102170000F900FBE0F901F9018951F920F920FB6E1
:102180000F9211240BB60F922F933F934F935F93AF
:102190006F937F938F939F93AF93BF93EF93FF932F
:1021A000E0916A03F0916B031995FF91EF91BF9154
:1021B000AF919F918F917F916F915F914F913F91DF
:1021C0002F910F900BBE0F900FBE0F901F90189580
:1021D0001F920F920FB60F9211242F933F938F935C
:1021E0009F93AF93BF938091C0039091C103A0913F
:1021F000C203B091C3033091BF0323E0230F2D37F7
:1022000058F50196A11DB11D2093BF038093C00313
:102210009093C103A093C203B093C3038091C403FE
:102220009091C503A091C603B091C7030196A11D6B
:10223000B11D8093C4039093C503A093C603B093CC
:10224000C703BF91AF919F918F913F912F910F90B5
:102250000FBE0F901F90189526E8230F0296A11D20
:10226000B11DD2CF789484B5826084BD84B581607D
:1022700084BD85B5826085BD85B5816085BDEEE68E
:10228000F0E0808181608083E1E8F0E0108280816D
:1022900082608083808181608083E0E8F0E08081DB
:1022A00081608083E1EBF0E0808184608083E0EBFB
:1022B000F0E0808181608083E1E9F0E080818260EC
:1022C0008083808181608083E0E9F0E080818160AB
:1022D0008083E1EAF0E08081826080838081816098
:1022E0008083E0EAF0E0808181608083E1E2F1E0D8
:1022F000808182608083808181608083E0E2F1E080
:10230000808181608083EAE7F0E08081846080835F
:102310008081826080838081816080838081806809
:1023200080831092C10008951F93CF93DF93182FDD
:10233000EB0161E033D1209731F460E0812FDF9130
:10234000CF911F9167C1CF3FD10511F461E0F6CF66
:10235000E12FF0E0EC51FF4FE491E150E23108F061
:10236000B2C0F0E08827E954FE4E8F4F29C5C9114D
:10237000D111D611E011EA116312F411FC1104120B
:102380000E121812221231123B12631245124F1212
:10239000591284B5806884BDC7BDDF91CF911F916C
:1023A000089584B5806284BDC8BDF7CF8091800058
:1023B000806880938000D0938900C0938800EDCF1F
:1023C00080918000806280938000D0938B00C093C6
:1023D0008A00E3CF80918000886080938000D09352
:1023E0008D00C0938C00D9CF8091B000806880931D
:1023F000B000C093B300D1CF8091B00080628093D1
:10240000B000C093B400C9CF8091900080688093E1
:102410009000D0939900C0939800BFCF8091900016
:10242000806280939000D0939B00C0939A00B5CFB8
:1024300080919000886080939000D0939D00C0931D
:102440009C00ABCF8091A00080688093A000809119
:10245000A0008F7B8093A000D093A900C093A80018
:102460009CCF8091A00080628093A000D093AB00AD
:10247000C093AA0092CF8091A00088608093A000B2
:10248000D093AD00C093AC0088CF809120018068CC
:1024900080932001D0932901C09328017ECF8091A1
:1024A0002001806280932001D0932B01C0932A01E8
:1024B00074CF80912001886080932001D0932D01FA
:1024C000C0932C016ACFC038D1050CF03FCF35CF77
:1024D0008150823108F059C0E82FF0E08827ED588C
:1024E000FD4E8F4F6DC49312971285128B128F126F
:1024F000C5129A12A012A412AA12AE12B212B812E7
:10250000BC12C512C012C612CA12809180008F7709
:10251000809380000895809180008F7DF9CF809115
:102520008000877FF5CF84B58F7784BD089584B50B
:102530008F7DFBCF8091B0008F778093B00008959E
:102540008091B0008F7DF9CF809190008F7780933C
:1025500090000895809190008F7DF9CF8091900038
:10256000877FF5CF8091A0008F778093A00008959A
:102570008091A0008F7DF9CF8091A000877FF5CF5B
:10258000809120018F778093200108958091200110
:102590008F7DF9CF80912001877FF5CFCF93DF9397
:1025A00090E0FC01E65DFE4F249180599E4FFC01B6
:1025B00084918823C9F090E0880F991FFC01E651AF
:1025C000FE4FA591B491FC01E053FE4FC591D4910B
:1025D00061110DC09FB7F8948C91209582238C9344
:1025E0008881282328839FBFDF91CF91089562308F
:1025F00051F49FB7F8943C91822F809583238C935C
:10260000E8812E2BEFCF8FB7F894EC912E2B2C93E3
:102610008FBFEACF1F93CF93DF93282F30E0F901CC
:10262000EC51FF4F8491F901E65DFE4FD491F90121
:10263000E059FE4FC491CC23A1F0162F811148DF41
:10264000EC2FF0E0EE0FFF1FE053FE4FA591B49189
:102650008FB7F894EC91111108C0D095DE23DC936C
:102660008FBFDF91CF911F910895DE2BF8CFFC0132
:10267000918D228D892F90E0805C9F4F821B910964
:102680008F7399270895FC01918D828D981731F0F1
:10269000828DE80FF11D858D90E008958FEF9FEFFB
:1026A0000895FC01918D828D981761F0A28DAE0F77
:1026B000BF2FB11D5D968C91928D9F5F9F73928FFE
:1026C00090E008958FEF9FEF0895FC01538D448DA6
:1026D000252F30E0842F90E0821B930B541710F0CD
:1026E000CF96089501970895FC01A48DA80FB92FE6
:1026F000B11DA35ABF4F2C91848D90E001968F732A
:102700009927848FA689B7892C93A089B1898C9148
:10271000837080648C93938D848D981306C0028897
:10272000F389E02D80818F7D80830895CF93DF939F
:10273000EC01888D8823B1F0AA89BB89E889F989E1
:102740008C9185FD03C0808186FD0CC00FB607FC0F
:10275000F7CF8C9185FFF2CF808185FFEDCFCE0141
:10276000C3DFEACFDF91CF910895EF92FF920F93ED
:102770001F93CF93DF93EC0181E0888F9B8D8C8D2D
:1027800098131AC0E889F989808185FF15C09FB721
:10279000F894EE89FF896083E889F98980818370E4
:1027A000806480839FBF81E090E0DF91CF911F9193
:1027B0000F91FF90EF900895F62E0B8D10E00F5FB4
:1027C0001F4F0F731127E02E8C8D8E110BC00FB68B
:1027D00007FCFACFE889F989808185FFF5CFCE0122
:1027E00083DFF2CFEB8DEC0FFD2FF11DE35AFF4F8E
:1027F000F0829FB7F8940B8FEA89FB898081806211
:10280000D0CFCF92DF92EF92FF921F93CF93DF93BF
:10281000EC016A017B01122FE889F98982E080834B
:10282000C11481EED806E104F10499F060E079E08A
:102830008DE390E0A7019601A1D221503109410911
:1028400051095695479537952795211580E1380709
:1028500090F0E889F989108260E874E88EE190E0F0
:10286000A70196018BD22150310941095109569592
:10287000479537952795EC85FD853083EE85FF8557
:102880002083188EEC89FD891083EA89FB89808179
:1028900080618083EA89FB89808188608083EA89FE
:1028A000FB89808180688083EA89FB8980818F7DB4
:1028B0008083DF91CF911F91FF90EF90DF90CF90B9
:1028C00008951F920F920FB60F9211240BB60F921C
:1028D0002F938F939F93EF93FF93E091D803F09101
:1028E000D9038081E091DE03F091DF0382FD1DC0FA
:1028F00090818091E1038F5F8F732091E2038217B3
:1029000041F0E091E103F0E0E853FC4F958F8093B4
:10291000E103FF91EF919F918F912F910F900BBE4B
:102920000F900FBE0F901F9018958081F2CF1F92CD
:102930000F920FB60F9211240BB60F922F933F9365
:102940004F935F936F937F938F939F93AF93BF93B7
:10295000EF93FF9388EC93E0C7DEFF91EF91BF9177
:10296000AF919F918F917F916F915F914F913F9127
:102970002F910F900BBE0F900FBE0F901F901895C8
:10298000E8ECF3E01382128288EE93E0A0E0B0E07E
:1029900084839583A683B78382E793E091838083C2
:1029A00085EC90E09587848784EC90E09787868714
:1029B00080EC90E0918B808B81EC90E0938B828B0C
:1029C00082EC90E0958B848B86EC90E0978B868BE5
:1029D000118E128E138E148E08951F920F920FB6C1
:1029E0000F9211240BB60F922F938F939F93EF9317
:1029F000FF93E0917504F09176048081E0917B046F
:102A0000F0917C0482FD1DC0908180917E048F5FD7
:102A10008F7320917F04821741F0E0917E04F0E0F3
:102A2000EB59FB4F958F80937E04FF91EF919F911F
:102A30008F912F910F900BBE0F900FBE0F901F9094
:102A400018958081F2CF1F920F920FB60F9211242A
:102A50000BB60F922F933F934F935F936F937F9398
:102A60008F939F93AF93BF93EF93FF9385E694E08B
:102A70003BDEFF91EF91BF91AF919F918F917F913D
:102A80006F915F914F913F912F910F900BBE0F90DF
:102A90000FBE0F901F901895E5E6F4E013821282A6
:102AA00088EE93E0A0E0B0E084839583A683B783AB
:102AB00082E793E0918380838DEC90E09587848713
:102AC0008CEC90E09787868788EC90E0918B808BE8
:102AD00089EC90E0938B828B8AEC90E0958B848BD1
:102AE0008EEC90E0978B868B118E128E138E148E47
:102AF00008951F920F920FB60F9211240BB60F92EA
:102B00002F938F939F93EF93FF93E0911205F09192
:102B100013058081E0911805F091190582FD1DC013
:102B2000908180911B058F5F8F7320911C05821708
:102B300041F0E0911B05F0E0EE5FFA4F958F809336
:102B40001B05FF91EF919F918F912F910F900BBEDD
:102B50000F900FBE0F901F9018958081F2CF1F929B
:102B60000F920FB60F9211240BB60F922F933F9333
:102B70004F935F936F937F938F939F93AF93BF9385
:102B8000EF93FF9382E095E0AFDDFF91EF91BF916E
:102B9000AF919F918F917F916F915F914F913F91F5
:102BA0002F910F900BBE0F900FBE0F901F90189596
:102BB000E2E0F5E01382128288EE93E0A0E0B0E05C
:102BC00084839583A683B78382E793E09183808390
:102BD00085ED90E09587848784ED90E097878687E0
:102BE00080ED90E0918B808B81ED90E0938B828BD8
:102BF00082ED90E0958B848B86ED90E0978B868BB1
:102C0000118E128E138E148E08951F920F920FB68E
:102C10000F9211240BB60F922F938F939F93EF93E4
:102C2000FF93E091AF05F091B0058081E091B5058B
:102C3000F091B60582FD1DC090818091B8058F5F2F
:102C40008F732091B905821741F0E091B805F0E04B
:102C5000E156FA4F958F8093B805FF91EF919F91C0
:102C60008F912F910F900BBE0F900FBE0F901F9062
:102C700018958081F2CF1F920F920FB60F921124F8
:102C80000BB60F922F933F934F935F936F937F9366
:102C90008F939F93AF93BF93EF93FF938FE995E04B
:102CA00023DDFF91EF91BF91AF919F918F917F9124
:102CB0006F915F914F913F912F910F900BBE0F90AD
:102CC0000FBE0F901F901895EFE9F5E01382128266
:102CD00088EE93E0A0E0B0E084839583A683B78379
:102CE00082E793E09183808385E391E095878487F1
:102CF00084E391E09787868780E391E0918B808BD6
:102D000081E391E0938B828B82E391E0958B848BBE
:102D100086E391E0978B868B118E128E138E148E24
:102D20000895AF92BF92CF92DF92EF92FF920F93EE
:102D30001F93CF93DF936C017B018B01040F151F51
:102D4000EB015E01AE18BF08C017D10759F06991B9
:102D5000D601ED91FC910190F081E02DC60119950D
:102D6000892B79F7C501DF91CF911F910F91FF90CA
:102D7000EF90DF90CF90BF90AF900895A1E21A2E10
:102D8000AA1BBB1BFD010DC0AA1FBB1FEE1FFF1F0F
:102D9000A217B307E407F50720F0A21BB30BE40B5F
:102DA000F50B661F771F881F991F1A9469F76095A6
:102DB0007095809590959B01AC01BD01CF01089560
:102DC000EE0FFF1F881F8BBF0790F691E02D19941F
:042DD000F894FFCFA5
:102DD4000000000000000000920A06BF920A06BF2D
:102DE4000000000000000000920A06BF920A06BF1D
:102DF400000000000000000000000000000000418E
:102E040000000041000030410000304100006041FA
:102E14000000604100008841000088410000204219
:102E240000000000000000009A99993E9A99993E8A
:102E3400CDCCCC3DCDCCCC3D9A99993E9A99993E36
:102E4400CDCCCC3DCDCCCC3D9A99993E9A99993E26
:102E54000000000000000000000000000000803FAF
:102E64000000803F000000410000004100003041AC
:102E740000003041000060410000604100008841D2
:102E8400000088410000A8410000A8410000204241
:102E9400DE2C0F4361741D43660BB64442C2B64434
:102EA400000000000000000000000000000000001E
:102EB400000000000000000000000000EA3C854023
:102EC400FCC57140433DA144E956A84400007F433A
:102ED40000007F43000080BF000080BF00000000AE
:102EE400000000000000803F0000803F1D5AE4BD48
:102EF4001D5AE43D0000C8420AD7233C0AD7233CAC
:102F04000000803F00007FC300007F430000803F3B
:102F14000AD7233C0AD7233C0000000000007FC3EB
:102F240000007F430000803FA0989E49160F160FB3
:102F3400160F160F160F160F160F160FB6030000F6
:102F44000000B513911665139613371351134313E9
:00000001FF
