:100000002CC100000C9407240C9432240C945D2421
:100010000C9488240C94B3240C94DE240C940925AD
:100020000C9434254BC1000049C1000047C10000B9
:1000300045C1000043C1000041C100003FC10000B4
:100040003DC100003BC1000039C1000037C10000C4
:1000500035C1000033C1000031C100000C945F25A0
:100060002DC100000C9462290C94982927C100002E
:1000700025C1000023C1000021C100001FC10000F4
:100080001DC100001BC1000019C1000017C1000004
:100090000C94EE290C94242A11C100000C94C9156B
:1000A0000DC100000BC1000009C1000007C1000024
:1000B00005C1000003C1000001C10000FFC0000035
:1000C000FDC00000FBC000000C94591F0C947A2A5C
:1000D0000C94B02AF3C000000C94062B0C943C2B1B
:1000E000EDC00000084AD73B3BCE016E84BCBFFD8B
:1000F000C12F3D6C74319ABD56833DDA3D00C77FF8
:1001000011BED9E4BB4C3E916BAAAABE0000008090
:100110003F05A84CCDB2D44EB93836A9020C50B91F
:10012000918688083CA6AAAA2ABE000000803F004B
:1001300000000A0B02090C0D0E0807030401000061
:1001400000000000000000000000000000000000AF
:10015000000000000000000000000000121110006C
:10016000000000000000000000000000000000008F
:1001700000000000000001021020200808102040AC
:10018000102040800201020108040201010204085B
:1001900010204080804020100804020180040201E9
:1001A0008040201008040201080402010102040832
:1001B000102040800102040810204080050505053C
:1001C000070508080808020202020A0A08080404CF
:1001D00004040101010101010101030303030303FD
:1001E0000303040707070C0C0C0C0C0C0C0C02028C
:1001F000020206060606060606060B0B0B0B0B0B89
:100200000B0B000020002300260029002C002F00EB
:100210003200000100000301060109010000220074
:10022000250028002B002E003100340002010000C0
:10023000050108010B0100002100240027002A000D
:100240002D003000330001010000040107010A0104
:10025000131FC1294D2AD92A652B11241FBECFEFA8
:10026000D1E2DEBFCDBF00E00CBF13E0A0E0B2E002
:10027000EAE0F8E500E00BBF02C007900D92AA3655
:10028000B107D9F728E0AAE6B3E001C01D92AE3865
:10029000B207E1F711E0CDE2D1E000E006C021971E
:1002A0000109802FFE010E94E22BC832D10780E0B5
:1002B0000807A9F70E94FD1F0C94032CA1CECF9331
:1002C000DF93882349F0EB0181500E9472269983C5
:1002D0008883DF91CF910895FB0111821082F9CFBD
:1002E0000F931F938B019C0183E0369527951795FB
:1002F00007958A95D1F70D581C4F462F477021E07E
:1003000030E0F90102C0EE0FFF1F4A95E2F7AF019E
:10031000F80120812423CB010196211102C090E035
:1003200080E01F910F9108950F931F938B019C0103
:1003300083E036952795179507958A95D1F76770CD
:1003400081E090E001C0880F6A95EAF7F801ED5866
:10035000FC4F2081452B31F48095822380831F91AF
:100360000F910895822BFACFCF92DF92EF92FF92F6
:10037000CF93DF936B017C0160E086E3C816D10464
:10038000E104F10490F486E38C0D0E94CF27E6018E
:100390002196AE01C701B601C7DFCE01DF91CF9133
:1003A000FF90EF90DF90CF9008958C2DEECF8823B3
:1003B00041F08150682F70E090E080E050E040E034
:1003C000B3CF0895611102C00C94CF276130E1F3DF
:1003D00062E0FACF662319F061E00C940B2860E02C
:1003E000FCCFCF92DF92EF92FF92CF93882351F10F
:1003F0006A017B01CFEFC80F20E030E0A901CB01FB
:10040000B6010E94FD2018168CF0C701B601905865
:100410000E946F219B01AC016C2F70E090E080E0A6
:10042000CF91FF90EF90DF90CF90B2C0C701B6019F
:100430000E946A218C2FCF91FF90EF90DF90CF9098
:100440000C949526CF91FF90EF90DF90CF90089578
:100450000F931F938B019C0183E036952795179589
:1004600007958A95D1F706591C4F462F477021E012
:1004700030E0F90102C0EE0FFF1F4A95E2F7AF012D
:10048000F80120812423CB010196211102C090E0C4
:1004900080E01F910F9108950F931F938B019C0192
:1004A00083E036952795179507958A95D1F767705C
:1004B00081E090E001C0880F6A95EAF7F801E659FB
:1004C000FC4F2081452B31F48095822380831F913E
:1004D0000F910895822BFACF2F923F924F925F9205
:1004E0006F927F928F929F92AF92BF92CF92DF9244
:1004F000EF92FF920F931F93CF93DF93D62EC72EC9
:10050000782E692E49015A01280161E08D2D0E9443
:10051000CF27CD2DDC2D8E010F5F1F4FA8016D2D34
:100520007C2D872D962DB8DF20E030E0A901C20197
:10053000B7010E94AB22181664F4C201B7010E94F1
:100540006F212B01C501B4010E946F21A201CE01D0
:1005500023D0C801DF91CF911F910F91FF90EF90B1
:10056000DF90CF90BF90AF909F908F907F906F90D3
:100570005F904F903F902F900895882341F08150D5
:10058000682F70E090E080E050E040E085CF089573
:10059000862FB9010C9495269C01FC01E05DFE4F6D
:1005A000E491E150E231E0F4F0E08827E552FD4FBC
:1005B0008F4F0C94E22BED02F402F7020E0323039B
:1005C000F0023803440348035F0374038903A00364
:1005D000B503F002CA03E103F60384B5806884BD65
:1005E00060E0822F0C940B2884B58062F8CF809154
:1005F00080008C7F82608093800080918100807E6B
:100600008061682B6093810050938700409386003F
:1006100080918000806880938000E2CF809180008C
:100620008C7F82608093800080918100807E8061D9
:10063000682B6093810050938700409386008091DF
:1006400080008062E8CF809180008C7F8260809300
:10065000800080918100807E8061682B60938100A2
:100660005093870040938600809180008860D3CFAC
:100670008091B00080688093B0008091B100887F45
:10068000682B6093B100ACCF8091B0008062F3CF53
:10069000809190008C7F8260809390008091910087
:1006A000807E8061682B6093910050939700409307
:1006B00096008091900080688093900091CF809107
:1006C00090008C7F82608093900080919100807E6A
:1006D0008061682B6093910050939700409396003F
:1006E000809190008062E8CF809190008C7F826042
:1006F0008093900080919100807E8061682B609350
:1007000091005093970040939600809190008860EC
:10071000D3CF8091A0008C7F82608093A0008091D5
:10072000A100807E8061682B6093A1005093A70098
:100730004093A6008091A00080688093A00050CFD5
:100740008091A0008C7F82608093A0008091A100A6
:10075000807E8061682B6093A1005093A700409336
:10076000A6008091A0008062E8CF8091A0008C7FDD
:1007700082608093A0008091A100807E8061682BC0
:100780006093A1005093A7004093A6008091A00021
:100790008860D3CF809120018C7F8260809320017C
:1007A00080912101807E8061682B609321015093AC
:1007B00027014093260180912001806880932001C9
:1007C0000FCF809120018C7F8260809320018091E7
:1007D0002101807E8061682B609321015093270165
:1007E00040932601809120018062E8CF8091200112
:1007F0008C7F82608093200180912101807E8061C6
:10080000682B60932101509327014093260180912A
:1008100020018860D3CFFC01A781B0858C919185A0
:100820008923A481B5819C9140815181628173812A
:100830002681922359F081110BC04F5F5F4F6F4F9C
:100840007F4F408351836283738308958111F5CF75
:100850004150510961097109F4CF8DE793E0DBCF75
:1008600088E893E0D8CF83E993E0D5CF8EE993E091
:10087000D2CFFC01A481B5818C9196818923A78177
:10088000B0859C9140815181628173812185922341
:1008900059F0882359F04F5F5F4F6F4F7F4F408370
:1008A00051836283738308958823A9F341505109CA
:1008B00061097109F4CF8DE793E0DBCF88E893E01D
:1008C000D8CF83E993E0D5CF8EE993E0D2CF0F93D1
:1008D0001F93CF93DF93D82FC62F8A01A0917C035B
:1008E0008BE0A89FD0011124A358BC4F1D921D92EC
:1008F0001D921C92139781E01A968C931A978D2F54
:1009000090E0FC01EA58FE4FE4911696EC9316979E
:10091000FC01E454FE4FE491F0E0EE0FFF1FEE5FA8
:10092000FD4F8591949115969C938E931497862FE5
:1009300090E0FC01EA58FE4FE4911996EC93199768
:10094000FC01E454FE4FE491F0E0EE0FFF1FEE5F78
:10095000FD4F8591949118969C938E93179760E024
:100960008D2F0E94CF2760E08C2F0E94CF2780918F
:100970007C03813009F43FC0A8F0823009F462C0E2
:10098000833009F486C080917C0391E0980F9093A6
:100990007C03F801808390E080E0DF91CF911F918C
:1009A0000F91089580E0D23049F081E0D33031F0EA
:1009B0008EEE8D0F8430D8F487E18D1B41E050E03E
:1009C0006DE274E00E948D2380E0C23049F081E046
:1009D000C33031F08EEE8C0F843058F487E18C1BDD
:1009E00041E050E06BE574E00E948D23CCCF8FEFA7
:1009F000E5CF8FEFF5CF80E0D23049F081E0D33002
:100A000031F08EEE8D0F8430C8F487E18D1B41E00C
:100A100050E060E374E00E948D2380E0C23049F032
:100A200081E0C33031F08EEE8C0F843048F487E1E2
:100A30008C1B41E050E06EE574E0D6CF8FEFE7CF3E
:100A40008FEFF7CF80E0D23049F081E0D33031F042
:100A50008EEE8D0F8430C8F487E18D1B41E050E0AD
:100A600063E374E00E948D2380E0C23049F081E0AE
:100A7000C33031F08EEE8C0F843048F487E18C1B4C
:100A800041E050E061E674E0AFCF8FEFE7CF8FEF4A
:100A9000F7CF80E0D23049F081E0D33031F08EEEF4
:100AA0008D0F8430C8F487E18D1B41E050E066E390
:100AB00074E00E948D2380E0C23049F081E0C330B1
:100AC00031F08EEE8C0F843048F487E18C1B41E0CE
:100AD00050E064E674E088CF8FEFE7CF8FEFF7CF79
:100AE0009BE0899FF0011124E358FC4F80819181A4
:100AF000A281B381FB0180839183A283B38390E0C1
:100B000080E008959BE0899FF0011124E358FC4F99
:100B1000108211821282138290E080E0089590E0AA
:100B200080E00895FC0191E08091AC03811190E098
:100B3000918308958F929F92AF92BF92CF92DF924E
:100B4000EF92FF92CF93DF936B017C0149015A0131
:100B50000E943F14882399F0609180087091810869
:100B60008091820890918308DF91CF91FF90EF9060
:100B7000DF90CF90BF90AF909F908F900895C50168
:100B8000B4010E943F148111E7CFC701B6010E9452
:100B9000FA138823E1F1C501B4010E94FA138823F6
:100BA000B1F120E030E0A901C701B6010E94AB22FB
:100BB000CFEFDFEF181614F4C1E0D0E020E030E012
:100BC000A901C501B4010E94AB226FEF7FEF181697
:100BD00014F461E070E0072E000C880B990B0E9462
:100BE0009D216B017C01BE01DD0F880B990B0E94DA
:100BF0009D21A7019601DF91CF91FF90EF90DF90AB
:100C0000CF90BF90AF909F908F900C94AA2020E03F
:100C100030E0A901C501B4010E94FD20811116C078
:100C200020E030E0A901C701B6010E94AB221816EE
:100C300094F020E030E0A901C701B6010E94FD2038
:100C400087FD0EC060E070E0CB018ECFA50194015E
:100C5000C701B601D0CF6BED7FE089EC9FE384CF75
:100C60006BED7FE089EC9FEB7FCF2F923F924F920D
:100C70005F926F927F928F929F92AF92BF92CF922C
:100C8000DF92EF92FF920F931F93CF93DF93CDB735
:100C9000DEB763970FB6F894DEBF0FBECDBF80916D
:100CA000AC0391E0811190E09093AD038F5F8530AC
:100CB00008F0F3C08093AC03C0904802D090490282
:100CC000E0904A02F0904B02A701960160917107F3
:100CD0007091720780917307909174070E94FD20B4
:100CE000882341F0C0927107D0927207E092730797
:100CF000F092740767E370E080E090E0F1DA90939F
:100D0000700780936F0723E030E0309357082093FB
:100D1000560843E050E0BE01675F7F4FD0DAC090D5
:100D20004C02D0904D02E0904E02F0904F02A7018D
:100D300096016091650770916607809167079091B1
:100D400068070E94FD20882341F0C0926507D09279
:100D50006607E0926707F092680768E370E080E05A
:100D600090E0BEDA909364078093630723E030E05D
:100D7000309357082093560843E050E0BE01675F68
:100D80007F4F9DDA8091AD03882309F460C0809184
:100D9000ED079091EE07A091EF07B091F0078093D7
:100DA000260890932708A0932808B09329088091DB
:100DB000F1079091F207A091F307B091F4078093A7
:100DC0002A0890932B08A0932C08B0932D088091AB
:100DD000F5079091F607A091F707B091F807809377
:100DE0002E0890932F08A0933008B093310880917B
:100DF000F9079091FA07A091FB07B091FC07809347
:100E0000320890933308A0933408B093350880914A
:100E1000FD079091FE07A091FF07B0910008809315
:100E2000360890933708A0933808B093390880911A
:100E3000010890910208A0910308B09104088093E2
:100E40003A0890933B08A0933C08B0933D088091EA
:100E500017088F3F19F08F5F80931708809115084E
:100E600081111EC081E08093150884E080931608EC
:100E7000109258081092590810925A0810925B0864
:100E800010925C0810925D0810925E0810925F0844
:100E9000312C212C02E010E054C01092AC030CCF96
:100EA000809116088230D1F0833049F1813009F009
:100EB000F6C2809117088436C0F68DEC9CECACEC41
:100EC000BDE38093580890935908A0935A08B093B3
:100ED0005B088BED9FE0A9E4BFE326C08091170873
:100EE000863918F6109258081092590810925A082C
:100EF00010925B088BED9FE0A9ECBFE315C08091D9
:100F00001708843608F0B1CF8DEC9CECACECBDE357
:100F10008093580890935908A0935A08B0935B089F
:100F20008BED9FE0A9E4BFEB80935C0890935D0894
:100F3000A0935E08B0935F0822242394312C0CE028
:100F400010E0C80196958795282F21702B8BC8013A
:100F50009695879596958795988B8F8785E89BEED4
:100F6000A1E5BEE38093600890936108A0936208B6
:100F7000B093630810926408109265081092660896
:100F80001092670820E030E040E85FE360910508D8
:100F90007091060880910708909108080E94FD2032
:100FA00087FF0CC080E090E0A0E8BFE380930508D5
:100FB00090930608A0930708B0930808809005084E
:100FC00090900608A0900708B090080820E030E054
:100FD00040EA50E4C501B4010E94FD2018160CF44B
:100FE000B1C2C501B4010E946A216B01FB01759673
:100FF000EE0FFF1FEE0FFF1FE050FE4F2091C507C1
:101000003091C6074091C7075091C8076081718130
:10101000828193810E9436202B013C019AE1C90E06
:10102000D11CF601EE0FFF1FEE0FFF1FE050FE4F29
:101030002091C9073091CA074091CB075091CC0746
:1010400060817181828193810E9436206B017C01D5
:10105000C0926808D0926908E0926A08F0926B0822
:10106000A3019201C301B2010E94B6226B877C8763
:101070008D879E87A7019601C701B6010E94B622FF
:101080009B01AC016B857C858D859E850E943720F8
:101090000E9423232DEC3CEC4CE45EE30E94AB2247
:1010A00018160CF03EC2A3019201C701B60142DD41
:1010B000609364087093650880936608909367084E
:1010C000B101330C880B990B0E949D212091C00225
:1010D0003091C1024091C2025091C3020E94AB22E2
:1010E00018160CF038C28091580890915908A091B8
:1010F0005A08B0915B088093600890936108A093B0
:101100006208B09363088090600890906108A09096
:101110006208B0906308C0905C08D0905D08E090D1
:101120005E08F0905F08209180023091810240912A
:10113000820250918302C501B4010E94B6222B01A4
:101140003C01209188023091890240918A0250919D
:101150008B02C701B6010E94B6229B01AC01C301FC
:10116000B2010E9437202091090830910A0840916D
:101170000B0850910C080E94362060935808709319
:10118000590880935A0890935B082091840230910B
:1011900085024091860250918702C501B4010E94E8
:1011A000B6224B015C0120918C0230918D0240915E
:1011B0008E0250918F02C701B6010E94B6229B0198
:1011C000AC01C501B4010E94372020910D08309177
:1011D0000E0840910F08509110080E94362060932D
:1011E0005C0870935D0880935E0890935F08C090E0
:1011F0005002D0905102E0905202F0905302A701A9
:101200009601609158077091590780915A07909103
:101210005B070E94FD20882341F0C0925807D092BE
:101220005907E0925A07F0925B07809157078111A6
:1012300010925707BE016F5F7F4F80915C0750DCB3
:10124000C0905402D0905502E0905602F0905702A0
:10125000A701960160914C0770914D0780914E0750
:1012600090914F070E94FD20882341F0C0924C07C7
:10127000D0924D07E0924E07F0924F0780914B07B6
:10128000811110924B07BE016B5F7F4F8091500719
:1012900027DC609118037091190380911A039091D3
:1012A0001B030E949D2120E030E040E05AE20E94B2
:1012B000B6222B013C018090C8029090C902A090F8
:1012C000CA02B090CB0269817A818B819C810E9495
:1012D0009D21A30192010E94B622A50194010E94C2
:1012E000B6226B017C01C0926008D0926108E09246
:1012F0006208F09263086D817E818F8198850E94DB
:101300009D21A30192010E94B622A50194010E9491
:10131000B6224B015C018092640890926508A0920D
:101320006608B09267082091D1073091D2074091AA
:10133000D3075091D407C701B6010E9436206B0134
:101340007C01C0920908D0920A08E0920B08F09242
:101350000C082091D5073091D6074091D7075091BE
:10136000D807C501B4010E9436204B015C01809270
:101370000D0890920E08A0920F08B09210082091CC
:101380009002309191024091920250919302C701D4
:10139000B6010E94B6226B017C0120919802309127
:1013A000990240919A0250919B02C501B4010E949A
:1013B000B6229B01AC01C701B6010E9437202B0168
:1013C0003C0180905C0890905D08A0905E08B09011
:1013D0005F08209100023091010240910202509179
:1013E0000302C501B4010E94B6222091D9073091B1
:1013F000DA074091DB075091DC070E9436202091EC
:101400002C0230912D0240912E0250912F020E9409
:10141000B6226B017C01C0926808D0926908E09204
:101420006A08F0926B08209138023091390240919D
:101430003A0250913B02C501B4010E94B6222091AC
:10144000DD073091DE074091DF075091E0070E94F1
:101450003720A70196010E9437206B017C01C092C2
:101460006C08D0926D08E0926E08F0926F08809040
:10147000400290904102A0904202B0904302A50128
:1014800094010E94AB2218160CF08AC080926C085E
:1014900090926D08A0926E08B0926F0891C020E003
:1014A00030E048EC51E4609132087091330880914B
:1014B0003408909135080E94FD2087FF06C01092E5
:1014C000170883E0809316081FCD20E030E048EC39
:1014D00051E460913A0870913B0880913C089091EA
:1014E0003D080E94FD2087FF06C01092170881E08A
:1014F00080931608E2CC20E030E040E751E46091B0
:1015000036087091370880913808909139080E9408
:10151000FD2087FFADCC1092170882E0809316085B
:10152000E1CC20E030E040E85FE3C501B4010E9477
:1015300037206093050870930608809307089093FE
:101540000808BECD109260081092610810926208DF
:1015500010926308B5CD2091CD073091CE07409110
:10156000CF075091D0076091640870916508809111
:101570006608909167080E943620209134023091CD
:10158000350240913602509137020E94B622609394
:101590005C0870935D0880935E0890935F08B3CDFC
:1015A0008090240290902502A0902602B0902702FD
:1015B000A5019401C701B6010E94FD2087FD66CFF9
:1015C00065E070E080E090E00E9428027C0190934A
:1015D000C4078093C30720906C0830906D08C090BA
:1015E0006E08D0906F088090D4029090D502A090A1
:1015F000D602B090D702A5019401B101C6010E94A4
:10160000AB22181694F08090D8029090D902A09046
:10161000DA02B090DB02A5019401B101C6010E947B
:10162000FD2087FD02C041015601E894B7F820E093
:1016300030E04FE753E4C501B4010E94FD201816C5
:1016400034F4812C912C2FE7A22E23E4B22EB50185
:10165000A401C7010E94F10164E070E080E090E025
:101660000E9428021C019093B4078093B307C09096
:101670006C08D0906D08E0906E08F0906F08809034
:10168000DC029090DD02A090DE02B090DF02A501A6
:101690009401C701B6010E94AB2218164CF4809247
:1016A0006C0890926D08A0926E08B0926F0810C0FE
:1016B0008090E0029090E102A090E202B090E302FC
:1016C000A5019401C701B6010E94FD2087FDE7CF67
:1016D00020E030E04FE753E460916C0870916D08B2
:1016E00080916E0890916F080E94FD20181664F496
:1016F00080E090E0AFE7B3E480936C0890936D08CE
:10170000A0936E08B0936F0820E030E0A9016091CB
:101710006C0870916D0880916E0890916F080E941E
:10172000AB2287FF08C010926C0810926D081092CF
:101730006E0810926F0840916C0850916D0860918E
:101740006E0870916F08C1010E94F10180905808E5
:1017500090905908A0905A08B0905B08209104021C
:10176000309105024091060250910702C501B40173
:101770000E94B6222091E1073091E2074091E307F1
:101780005091E4070E9436202091300230913102BE
:1017900040913202509133020E94B6226B017C01CB
:1017A000C0926C08D0926D08E0926E08F0926F08BB
:1017B00020913C0230913D0240913E0250913F0207
:1017C000C501B4010E94B6222091E5073091E607D9
:1017D0004091E7075091E8070E943720A701960142
:1017E0000E9437206B017C01C0927008D092710872
:1017F000E0927208F0927308809044029090450243
:10180000A0904602B0904702A50194010E94AB222D
:1018100018164CF48092700890927108A092720889
:10182000B092730810C08090280290902902A09076
:101830002A02B0902B02A5019401C701B6010E94B3
:10184000FD2087FDE7CF66E070E080E090E00E9439
:1018500028027C019093BC078093BB0720907008FE
:1018600030907108C0907208D09073088090EC029C
:101870009090ED02A090EE02B090EF02A5019401CD
:10188000B101C6010E94AB22181694F08090F002BC
:101890009090F102A090F202B090F302A5019401A1
:1018A000B101C6010E94FD2087FD02C04101560121
:1018B000E894B7F820E030E04FE753E4C501B40105
:1018C0000E94FD20181634F4812C912C9FE7A92E3C
:1018D00093E4B92EB501A401C7010E94F10167E0AC
:1018E00070E080E090E00E9428021C019093AC0719
:1018F0008093AB07C0907008D0907108E090720898
:10190000F09073088090F4029090F502A090F60297
:10191000B090F702A5019401C701B6010E94AB2265
:1019200018164CF48092700890927108A092720878
:10193000B092730810C08090F8029090F902A090C5
:10194000FA02B090FB02A5019401C701B6010E9402
:10195000FD2087FDE7CF20E030E04FE753E46091C2
:1019600070087091710880917208909173080E94BC
:10197000FD20181664F480E090E0AFE7B3E48093B4
:10198000700890937108A0937208B093730820E0D8
:1019900030E0A9016091700870917108809172081F
:1019A000909173080E94AB2287FF08C010927008C4
:1019B000109271081092720810927308409170088A
:1019C000509171086091720870917308C1010E9472
:1019D000F1018090110890901208A0901308B09027
:1019E0001408C501B4010E949D216B877C878D87F7
:1019F0009E87209104033091050340910603509186
:101A000007030E94FD2087FFE2C1B7FCE0C1C09040
:101A1000FC02D090FD02E090FE02F090FF0220E078
:101A200030E040E85FE36091000370910103809132
:101A30000203909103030E9436209B01AC016B8549
:101A40007C858D859E850E94AB2287FDC4C1109246
:101A5000110810921208109213081092140883E0D3
:101A6000169507958A95E1F7012B09F4C2C111E09B
:101A700020E030E0A901C701B6010E94FD208111DC
:101A800010E0F12E60E08AE00E94EA0160E08DE063
:101A90000E94EA01AB89A11101C010E0612F89E029
:101AA0000E94EA01612F8CE00E94EA010F851889EB
:101AB00001701127BF85B0FF05C091E0F11001C092
:101AC00090E0092F602F88E00E94EA01602F8BE0F0
:101AD0000E94EA018091C5079091C607A091C707AF
:101AE000B091C8078B879C87AD87BE87C090CD0714
:101AF000D090CE07E090CF07F090D007C09270084A
:101B0000D0927108E0927208F09273088091C90730
:101B10009091CA07A091CB07B091CC078F87988B83
:101B2000A98BBA8BC701B6010E9401218090A8023F
:101B30009090A902A090AA02B090AB02A3019201DA
:101B40000E94B622A50194010E94B6222B853C85F5
:101B50004D855E850E9437206093C5077093C60748
:101B60008093C7079093C807C701B6010E94192345
:101B7000A30192010E94B622A50194010E94B622FF
:101B80002F85388949895A890E9437206093C9076F
:101B90007093CA078093CB079093CC07209194024F
:101BA00030919502409196025091970260910908F8
:101BB00070910A0880910B0890910C080E94B6223F
:101BC0002B013C0120919C0230919D0240919E028C
:101BD00050919F0260910D0870910E0880910F083E
:101BE000909110080E94B6229B01AC01C301B20182
:101BF0000E943720A50194010E94B622A7019601F8
:101C00000E9437206093CD077093CE078093CF0753
:101C10009093D0078091600890916108A09162082C
:101C2000B09163088093D1079093D207A093D30714
:101C3000B093D4078091640890916508A0916608DC
:101C4000B09167088093D5079093D607A093D707E4
:101C5000B093D807209168083091690840916A08CC
:101C600050916B086091CC027091CD028091CE02B0
:101C70009091CF020E94B6222091D9073091DA07C5
:101C80004091DB075091DC070E9437206093D90711
:101C90007093DA078093DB079093DC0720915C0850
:101CA00030915D0840915E0850915F086091080294
:101CB0007091090280910A0290910B020E94B62253
:101CC0002091D0023091D1024091D2025091D302A2
:101CD0000E94B6222091DD073091DE074091DF0798
:101CE0005091E0070E9437206093DD077093DE0774
:101CF0008093DF079093E00720916C0830916D0886
:101D000040916E0850916F086091E4027091E50275
:101D10008091E6029091E7020E94B6222091E107AD
:101D20003091E2074091E3075091E4070E94372089
:101D30006093E1077093E2078093E3079093E407D1
:101D4000209158083091590840915A0850915B08E9
:101D500060910C0270910D0280910E0290910F0221
:101D60000E94B6222091E8023091E9024091EA02F5
:101D70005091EB020E94B6222091E5073091E607D0
:101D80004091E7075091E8070E9437206093E507EC
:101D90007093E6078093E7079093E80763960FB682
:101DA000F894DEBF0FBECDBFDF91CF911F910F9191
:101DB000FF90EF90DF90CF90BF90AF909F908F906B
:101DC0007F906F905F904F903F902F900895C12C1F
:101DD000D12C760124CED501C4010196A11DB11DDF
:101DE0008093110890931208A0931308B0931408DD
:101DF00036CE11E046CE4F925F926F927F928F92D5
:101E00009F92AF92BF92CF92DF92EF92FF92CF93C9
:101E1000DF9349EE57E06AE478E08EE398E030D54E
:101E2000C0900C03D0900D03E0900E03F0900F03D0
:101E30008090100390901103A0901203B0901303B0
:101E4000C6E2D8E028A139A14AA15BA1C701B60129
:101E50000E94B622A50194010E9436202B013C016C
:101E600040920108509202086092030870920408A0
:101E70002C8D3D8D4E8D5F8DC701B6010E94B6221F
:101E8000A50194010E9436204B015C01288D398DFB
:101E90004A8D5B8DC701B6010E94B62220911403C2
:101EA0003091150340911603509117030E9436207C
:101EB0006093ED077093EE078093EF079093F00720
:101EC0008092F1079092F207A092F307B092F40784
:101ED0004092F5075092F6076092F7077092F80764
:101EE0006093F9077093FA078093FB079093FC07C0
:101EF0008092FD079092FE07A092FF07B092000823
:101F000049EE57E06AE478E08EE398E0DF91CF9104
:101F1000FF90EF90DF90CF90BF90AF909F908F9009
:101F20007F906F905F904F90ADC42F923F924F92F1
:101F30005F926F927F929F92AF92BF92CF92DF9209
:101F4000EF92FF920F931F93CF93DF9384E090E083
:101F50001AD4E9EAF3E085E0DF011D928A95E9F7FA
:101F600006E218E08EE4F80111928A95E9F7C5E4DB
:101F7000D7E081EEDE011D928A95E9F799249394CA
:101F80009092250880E0C82E82E0D82E80914802E9
:101F900090914902A0914A02B0914B028CA79DA753
:101FA000AEA7BFA7412C512C320143944DA25EA293
:101FB0006FA278A667E370E080E090E00E94B40131
:101FC0009BA78AA799A6188E9092240880914C020C
:101FD00090914D02A0914E02B0914F0288A399A317
:101FE000AAA3BBA3498E5A8E6B8E7C8E68E370E0E9
:101FF00080E090E00E94B4019F8F8E8F9D8E24EA36
:10200000A22E22E0B22EF50180819181A281B381BE
:10201000F80180839183A283B38384839583A6830D
:10202000B78380879187A287B38730EB232E32E076
:10203000332EF10180819181A281B381F8018487DF
:102040009587A687B787E4EBF2E080819181A28132
:10205000B381F801808B918BA28BB38BE8EBF2E01C
:1020600080819181A281B381F801848B958BA68BAD
:10207000B78B1F8A1C86909219088091500290910C
:102080005102A0915202B09153028B8B9C8BAD8B6D
:10209000BE8B4D865E866F86788A4CE557E063E09E
:1020A00082E00E946704998A1A8A1B86188290929D
:1020B00018088091540290915502A0915602B09157
:1020C00057028F839887A987BA8749825A826B8281
:1020D0007C8240E557E063E182E10E9467049D82D3
:1020E0001E821092BD0790921D084092BE0750922A
:1020F000BF076092C0077092C107E12CF12C8701E5
:10210000A801970165E070E080E090E00E946C0219
:102110009093C4078093C3079092C2071092AD07B3
:1021200090921B084092AE075092AF076092B007A2
:102130007092B107A801970164E070E080E090E040
:102140000E946C029093B4078093B3079092B207F9
:102150001092B50790921C084092B6075092B707AC
:102160006092B8077092B907A801970166E070E025
:1021700080E090E00E946C029093BC078093BB07C4
:102180009092BA071092A50790921A084092A6075B
:102190005092A7076092A8077092A907A80197011B
:1021A00067E070E080E090E00E946C029093AC07E2
:1021B0008093AB079092AA07109211081092120810
:1021C000109213081092140810929D079092230801
:1021D00040929E0750929F076092A0077092A107BD
:1021E00061E08AE00E94E2019092A20710929507B6
:1021F0009092220840929607509297076092980713
:102200007092990761E08DE00E94E20190929A0736
:1022100010928D079092210840928E0750928F075E
:10222000609290077092910761E089E00E94E2015C
:10223000909292071092850790922008409286070C
:1022400050928707609288077092890761E08CE05E
:102250000E94E20190928A0718AE90921F0849AE40
:102260005AAE6BAE7CAE61E088E00E94E2019DAEAA
:1022700018AA90921E0849AA5AAA6BAA7CAA61E0E1
:102280008BE00E94E2019DAAF50180819181A281EB
:10229000B3818093ED079093EE07A093EF07B0937F
:1022A000F0078093F1079093F207A093F307B093A0
:1022B000F4078093F5079093F607A093F707B09380
:1022C000F8078091AC029091AD02A091AE02B0915E
:1022D000AF028093C5079093C607A093C707B0933A
:1022E000C8078093C9079093CA07A093CB07B09300
:1022F000CC078093CD079093CE07A093CF07B093E0
:10230000D007F10180819181A281B3818093F90787
:102310009093FA07A093FB07B093FC07E4EBF2E07D
:1023200080819181A281B3818093FD079093FE0704
:10233000A093FF07B0930008E8EBF2E08081918161
:10234000A281B3818093010890930208A0930308AF
:10235000B09304088091BC029091BD02A091BE028E
:10236000B091BF028093050890930608A0930708D8
:10237000B09308084091C4025091C5026091C60212
:102380007091C7024093090850930A0860930B08A4
:1023900070930C08F60180899189A289B389809392
:1023A000D1079093D207A093D307B093D40740935B
:1023B0000D0850930E0860930F08709310088093D7
:1023C000D5079093D607A093D707B093D8078489F1
:1023D0009589A689B7898093D9079093DA07A09346
:1023E000DB07B093DC07848D958DA68DB78D809328
:1023F000DD079093DE07A093DF07B093E007808DA1
:10240000918DA28DB38D8093E1079093E207A09305
:10241000E307B093E40780A191A1A2A1B3A18093A7
:10242000E5079093E607A093E707B093E807E092EB
:10243000E907F092EA070093EB071093EC0710927C
:10244000170810921508109216088F890E948205AD
:102450008B85DF91CF911F910F91FF90EF90DF90CF
:10246000CF90BF90AF909F907F906F905F904F9074
:102470003F902F900C9482058091690781111FC0B5
:1024800081E08093690780916A0790916B07A09122
:102490006C07B0916D070197A105B10581F480919A
:1024A0006E07882361F067E370E080E090E00E94AF
:1024B00070019093700780936F070E94D7018091FD
:1024C0005D0781111FC081E080935D0780915E07E9
:1024D00090915F07A0916007B09161070197A105F6
:1024E000B10581F480916207882361F068E370E0B0
:1024F00080E090E00E9470019093640780936307EE
:102500000E94D70180915107811114C081E080930E
:1025100051078091520790915307A0915407B091B1
:1025200055070197A105B10529F48091560781113E
:102530000E948F0580914507811114C081E080932E
:1025400045078091460790914707A0914807B091B1
:1025500049070197A105B10529F480914A07811126
:102560000E948F058091BD0781112EC081E080936C
:10257000BD078091BE079091BF07A091C007B091A1
:10258000C1070197A105B105F9F48091C20788231D
:10259000D9F065E070E080E090E00E94280290931E
:1025A000C4078093C30740E050E0BA010E94F101E4
:1025B00065E070E080E090E00E9428029093C407FC
:1025C0008093C3070E94BD028091AD0781112EC088
:1025D00081E08093AD078091AE079091AF07A09105
:1025E000B007B091B1070197A105B105F9F4809149
:1025F000B2078823D9F064E070E080E090E00E94A8
:1026000028029093B4078093B30740E050E0BA01EA
:102610000E94F10164E070E080E090E00E942802F6
:102620009093B4078093B3070E94BD028091B507D1
:1026300081112EC081E08093B5078091B6079091FB
:10264000B707A091B807B091B9070197A105B105E7
:10265000F9F48091BA078823D9F066E070E080E051
:1026600090E00E9428029093BC078093BB0740E053
:1026700050E0BA010E94F10166E070E080E090E075
:102680000E9428029093BC078093BB070E94BD0262
:102690008091A50781112EC081E08093A5078091CC
:1026A000A6079091A707A091A807B091A907019745
:1026B000A105B105F9F48091AA078823D9F067E054
:1026C00070E080E090E00E9428029093AC07809335
:1026D000AB0740E050E0BA010E94F10167E070E012
:1026E00080E090E00E9428029093AC078093AB07B3
:1026F0000E94BD0280919D07811103C081E08093FB
:102700009D0780919507811103C081E08093950713
:1027100080918D07811103C081E080938D078091A6
:102720008507811103C081E08093850780917D0733
:10273000811103C081E080937D078091750781112D
:1027400003C081E080937507089560E070E080E841
:102750009FE7089560E070E080E89FE7089560E0FB
:1027600070E080E89FEF089560E070E080E89FEF00
:10277000089560E070E080EC9FEF089560E070E005
:1027800080EC9FEF0895F5DF6093800870938108D7
:102790008093820890938308F1DF609374087093AC
:1027A00075088093760890937708CFDF60937C0854
:1027B00070937D0880937E0890937F08CBDF6093B1
:1027C00078087093790880937A0890937B08C7DF24
:1027D0006093840870938508809386089093870897
:1027E000C3DF609388087093890880938A08909368
:1027F0008B080895CF92DF92EF92FF92CF936B01F7
:102800007C01AC019B0160917C0870917D088091F6
:102810007E0890917F080E94FD20C1E0882371F01E
:10282000A7019601609184087091850880918608BF
:10283000909187080E94FD208111C0E08C2FCF91DC
:10284000FF90EF90DF90CF9008950F931F938B012F
:102850009C010027112720783F770115110520489A
:102860003F4749F4AB01BC016F77772781E0452BE7
:10287000462B472B09F480E01F910F910895E5CF77
:102880000C94441E0C94771E90E080E00895809193
:10289000320490913304891B990B0895909133046D
:1028A000809132042FEF3FEF981748F4E92FF0E0C2
:1028B000EC5CFB4F208130E09F5F90933304C901B3
:1028C0000895E091330480913204E81730F4F0E089
:1028D000EC5CFB4F808190E008958FEF9FEF0895AF
:1028E000089591E090930E048093310410921004A7
:1028F00010920F0408951092C10481E08093BF04E8
:102900001092BE0461E084E10E940B2861E085E141
:102910000E940B28E9EBF0E080818E7F808380812C
:102920008D7F808388E48093B80085E48093BC0029
:102930000895413208F041C09091C1049111FCCF3B
:1029400091E09093C1042093BF042FEF209354048F
:1029500010929904240F209398049093C0049091AE
:10296000C004880F892B8093C0048091BE048130FD
:1029700011F51092BE048091C0048093BB00809139
:10298000BC0083FDF8CF85EC8093BC008091C1042E
:102990008130E1F380919904841710F440919904F7
:1029A000AAE9B4E0962FFB018E2F891B841730F41F
:1029B0008D918193F9CF85EEE7CF40E0842F089584
:1029C0000F93413208F04BC09091C1049111FCCF9C
:1029D00092E09093C1040093BF049FEF909354043E
:1029E0001092990440939804362FAAE9B4E0FB01B1
:1029F0009E2F931B941718F491919D93F9CF1092E9
:102A0000C0049091C004880F892B8093C0048091EA
:102A1000BE04813011F51092BE048091C0048093F1
:102A2000BB008091BC0083FDF8CF85EC8093BC0097
:102A3000222321F08091C1048230D1F3809154048B
:102A40008F3F79F080915404803269F08091540472
:102A5000803359F084E00F91089585EEE7CF81E04F
:102A6000FACF80E0F8CF82E0F6CF83E0F4CF209178
:102A70007604260F3327331F21323105E4F42091E9
:102A8000C1042430D1F4FC0190E080E0861760F4AA
:102A9000A09176042191AC0148585B4FA40FB52F4B
:102AA000B11D2C930196F2CF80917604680F60934C
:102AB000760480E0089581E0089582E00895CF9340
:102AC000DF931F92CDB7DEB7698320910E042223D6
:102AD000F9F020910F04203258F021E030E0FC01A1
:102AE0003383228390E080E00F90DF91CF910895AF
:102AF00080911004E82FF0E0EF5EFB4F9981908306
:102B00008F5F8093100480930F0481E090E0ECCFFE
:102B100061E0CE010196ABDFF8CFCF92DF92EF926A
:102B2000FF920F931F93CF93DF937C01CB018A0118
:102B300020910E04222389F0EB016B01C40ED51EF7
:102B4000CC15DD0561F06991D701ED91FC91019003
:102B5000F081E02DC7011995F3CF642F88DFC801FC
:102B6000DF91CF911F910F91FF90EF90DF90CF9069
:102B7000089585ED8093BC008091BC0084FDFCCF5E
:102B80001092C104089585EC8093BC001092C1049A
:102B900008951F920F920FB60F9211240BB60F9249
:102BA0002F933F934F935F936F937F938F939F9355
:102BB000AF93BF93EF93FF938091B900887F8036E6
:102BC00009F44CC008F03FC0883209F4A8C028F5C9
:102BD000803109F49CC0C8F4882309F4F8C0883017
:102BE00009F495C0FF91EF91BF91AF919F918F91A3
:102BF0007F916F915F914F913F912F910F900BBEFD
:102C00000F900FBE0F901F901895883109F487C060
:102C1000803241F78093540414C0803409F49CC07E
:102C200040F48033B9F38833E9F680935404ABDF82
:102C3000D9CF803509F484C0883509F495C088342B
:102C400089F697DFCFCF883909F48CC038F58837FB
:102C500029F050F4883611F0803721F683E0809314
:102C6000C1041092550457C0883809F47BC08039DC
:102C700019F0803809F0B6CF80915504803208F001
:102C800071C0E091550481E08E0F809355048091CE
:102C9000BB00F0E0EA5AFB4F80833DC0803B39F037
:102CA000E0F4803A09F479C0883A09F09BCF84E0D7
:102CB0008093C1041092770410927604E091BC04D2
:102CC000F091BD0419958091760481110FC081E0C7
:102CD000809376041092780409C0803C09F475C092
:102CE000883C09F472C0883B09F07CCFE0917704FE
:102CF00081E08E0F80937704F0E0E858FB4F8081ED
:102D00008093BB00909177048091760429C08091D4
:102D1000C0048093BB0085EC8093BC0063CF90918E
:102D2000990480919804981758F5E091990481E0EE
:102D30008E0F80939904F0E0E656FB4F8081E9CF37
:102D4000E091990481E08E0F809399048091BB00FB
:102D5000F0E0E656FB4F80839091990480919804AF
:102D60009817C8F285E8D8CFE091990481E08E0FDA
:102D7000809399048091BB00F0E0E656FB4F80837E
:102D80008091BF0481115DCF81E08093BE0484EA0D
:102D90008093BC001092C10425CFF5DE80915504CC
:102DA000803230F4E0915504F0E0EA5AFB4F108293
:102DB0006091550470E0E091BA04F091BB0486E59F
:102DC00094E01995109255040DCF85ECE1CF109247
:102DD000540437CF1092330410923204109210042E
:102DE00010920F0488CD0F93062F21E040910F041D
:102DF00061E174E080913104E3DD109210041092DF
:102E00000F0410920E040F9108954F925F926F92EB
:102E10007F92AF92BF92CF92EF92FF920F931F9348
:102E2000CF93DF935C01F62ED42F28013901EE20D9
:102E300011F1862F56DDCE2DC43008F0C3E0C1500D
:102E4000B8F028E0C29FC0011124A301920104C080
:102E500056954795379527958A95D2F7B901D501AB
:102E6000ED91FC910190F081E02DC5011995E7CF1E
:102E700060E0C501B8DF4D2FD13208F040E22C2DC3
:102E800064E374E08F2D55DD109233048093320497
:102E9000DF91CF911F910F91FF90EF90CF90BF9056
:102EA000AF907F906F905F904F900895CF92EF9288
:102EB0000F931F93C22EE12C00E010E09801A5DFD4
:102EC0001F910F91EF90CF90089521E0EFCF61E037
:102ED0008ACF0F931F93CF93DF93EC01062F142F0C
:102EE0008981FFDC602F82E094E0E9DD612F82E0E0
:102EF00094E0E5DD82E094E0EADF8883DF91CF9122
:102F00001F910F9108951F93CF93DF93EC01162F1C
:102F1000462F4F776AE8DDDF1983DF91CF911F914C
:102F20000895FF920F931F93CF93DF93EC01F62E3A
:102F3000142F052F8981D5DC6F2D82E094E0BFDD51
:102F4000602F82E094E0BBDD612F82E094E0B7DD8A
:102F500082E094E0BCDF8883DF91CF911F910F91D5
:102F6000FF900895CF92DF92EF92FF921F93CF933D
:102F7000DF93EC01162F69017A018981B2DC612FA0
:102F800082E094E09CDD6F2D77278827992782E0E7
:102F900094E095DDB7018827992782E094E08FDDE2
:102FA00099278F2D7E2D6D2D82E094E088DD6C2D8C
:102FB00082E094E084DD82E094E089DF8883DF9121
:102FC000CF911F91FF90EF90DF90CF9008951F93C6
:102FD000CF93DF93EC01162F898183DC612F82E090
:102FE00094E06DDD82E094E072DF888341E06981E6
:102FF00082E094E06ADF82E094E050DCDF91CF91E0
:103000001F9108951F93CF93DF93EC01162F8981B1
:1030100068DC612F82E094E052DD82E094E057DFCB
:10302000888342E0698182E094E04FDF82E094E0AF
:1030300035DCD82F80E0C82F82E094E02FDC8C2B89
:103040009D2BDF91CF911F910895DF92EF92FF9218
:103050000F931F93CF93DF937C01C62FD42E052FA0
:10306000122FFC0181813DDC6C2F82E094E027DD92
:10307000CD2DD02F115028F0699182E094E01FDD12
:10308000F9CF82E094E023DFF7018083DF91CF91D5
:103090001F910F91FF90EF90DF900895EF92FF92B4
:1030A0000F931F93CF93DF93EC01E62EF42E052FA1
:1030B000122F898116DC6E2D82E094E000DD82E023
:1030C00094E005DF8883412F698182E094E0FDDE92
:1030D000CF2DD02F115028F082E094E0DFDB8993D0
:1030E000F9CFDF91CF911F910F91FF90EF9008954D
:1030F0006115710529F460E56ADF8F5F880F089517
:103100006130710511F460E7F7CF8FEF0895CF922A
:10311000DF92EF92FF92CF93DF93EC016A017B0184
:1031200041E060E8D6DE41E06FEFCE01D2DE40E064
:1031300060E0CE01CEDE4F8161E9CE01CADE41E022
:1031400060E0CE01C6DE40E06FEFCE01C2DE40E0BF
:1031500060E8CE01BEDE42E0C114D104E104F10416
:1031600091F068EFCE014EDF009739F0DC01A70146
:1031700096010E94EA2B6B017C01A701960164E095
:10318000CE01F0DE44E060E0CE01DF91CF91FF9010
:10319000EF90DF90CF909DCE0F931F93CF93DF934F
:1031A000EC010E94A9257E836D8363E1CE010FDFD0
:1031B0008770C9F48A819B81892BB9F30E94A92564
:1031C0002D813E81621B730B8A819B818617970735
:1031D00060F781E08C830FEF1FEFC801DF91CF9183
:1031E0001F910F9108956EE1CE010CDF8C0141E03B
:1031F0006BE0CE016EDEF1CFEF92FF920F931F9343
:10320000CF93DF93EC017B018A0141E060E861DE4E
:1032100041E06FEFCE015DDE40E060E0CE0159DEBF
:1032200046E06FEFCE0155DE63E8CE01D0DE482FD9
:10323000446063E8CE014DDE47E06FEFCE0149DE2A
:1032400041E061E8CE0145DE41E060E8CE0141DECB
:103250004BE664E9CE013DDE40E063E8CE0139DEB5
:103260000E94A9257E836D8363E8CE01B0DE8111C3
:1032700011C08A819B81892BB9F30E94A9252D81D8
:103280003E81621B730B8A819B818617970760F7CB
:1032900080E031C041E063E8CE011BDE62E9CE018F
:1032A00096DE982F9F77F7019083881F8827881FC5
:1032B000F801808340E061E8CE010BDE46E06FEF6D
:1032C000CE0107DE63E8CE0182DE482F4B7F63E844
:1032D000CE01FFDD41E06FEFCE01FBDD41E060E0BC
:1032E000CE01F7DD40E06FEFCE01F3DD40E060E8B6
:1032F000CE01EFDD81E0DF91CF911F910F91FF9023
:10330000EF900895CF93DF93EB0161E060DE84FBE3
:10331000992790F9988383FB992790F99A8382FBE8
:10332000992790F9998386FB992790F99B83881FA9
:103330008827881F8C83DF91CF9108959C013327C4
:10334000A90102C0440F551F9A95E2F7CA010196E0
:1033500008950F931F930097B9F00197B0E0A0E094
:1033600050E040E08C019D010027012B022B032B34
:1033700039F0B695A795979587954F5F5F4FF2CF38
:10338000342F2227822B932B1F910F9108954F9258
:103390005F926F927F928F929F92AF92BF92CF92E5
:1033A000DF92EF92FF925C01A62FB0E020E03FE2B7
:1033B0004AE350E00E94EA2B6B017C0124EFC20E2D
:1033C00021E0D21EE11CF11C88EE482E83E0582E2D
:1033D000612C712CC701B601A30192010E94C02B80
:1033E000D5010E94EA2B4B015C01C701B60120ED1B
:1033F00037E040E050E00E94C02BC501B401620FED
:10340000731F841F951FA30192010E94C02BCA0144
:10341000B901FF90EF90DF90CF90BF90AF909F9059
:103420008F907F906F905F904F900895EF92FF92F2
:103430000F931F93CF93DF938C017B01EA0170E020
:1034400060E056DE90E09983888366E4C801BFDDC2
:1034500090E001969D838C83688199DF6A877B87E2
:103460008C879D8761E5C801CDDD68DF9F838E83F2
:1034700068818DDF6E877F87888B998B60E7C801B5
:10348000A6DD8F5F880F90E09B838A8361E7C80188
:10349000B9DD54DF99878887F7012381222331F032
:1034A0002E813F81821B930B998788876A8188854B
:1034B00099856DDF6A8B7B8B8C8B9D8BDF91CF9198
:1034C0001F910F91FF90EF900895CF92DF92EF92AE
:1034D000FF920F931F93CF93DF93CDB7DEB76B9718
:1034E0000FB6F894DEBF0FBECDBF8C01BE01695E82
:1034F0007F4F08DFAE014F5F5F4FBE01695E7F4FB8
:10350000C80194DF8F89882309F454C06B857C85BA
:103510008D859E856C57724F8F4F9F4F298D22232B
:1035200009F44DC0CB84DC84ED84FE8422EBC20E12
:1035300022E0D21EE11CF11CCC0CDD1CEE1CFF1C99
:103540006C0D7D1D8E1D9F1D2A8D222371F0CF8451
:10355000D888E988FA88F4E9CF0EF2E0DF1EE11C92
:10356000F11C6C0D7D1D8E1D9F1D2B8D222371F076
:10357000CB88DC88ED88FE8826E2C20E22E0D21ECF
:10358000E11CF11C6C0D7D1D8E1D9F1DF8016087D7
:103590007187828793876B960FB6F894DEBF0FBE54
:1035A000CDBFDF91CF911F910F91FF90EF90DF90F2
:1035B000CF90089566E37BE080E090E0AFCF288D68
:1035C000222311F2CB84DC84ED84FE84E4E9CE0E68
:1035D000E2E0DE1EE11CF11CB3CF8F929F92AF920E
:1035E000BF92CF92DF92EF92FF924B015C01A42F2A
:1035F000B0E020E03FE24AE350E00E94EA2B6B019A
:103600007C0124EFC20E21E0D21EE11CF11CA8EEC9
:10361000B3E0A50194010E94EA2B4B015C01C701B4
:10362000B60120ED37E040E050E00E94C02B820E52
:10363000931EA41EB51EC701B60128EE33E040E07C
:1036400050E00E94C02BC501B4010E94C02BCA01EA
:10365000B901FF90EF90DF90CF90BF90AF909F9017
:103660008F9008958F929F92AF92BF92CF92DF92E8
:10367000EF92FF920F931F93CF93DF93CDB7DEB7F7
:103680006B970FB6F894DEBF0FBECDBF40322EE46D
:1036900052076105710508F48DC04A015B017C0188
:1036A000BE01695E7F4F2EDEAE014F5F5F4FBE01F0
:1036B000695E7F4FC701BADE8F8908EE18E020E00F
:1036C00030E0882341F00B851C852D853E850A5C02
:1036D000144F2F4F3F4F898D882309F45BC08B8592
:1036E0009C85AD85BE858E549D4FAF4FBF4F880FD3
:1036F000991FAA1FBB1F080F191F2A1F3B1FCA8C27
:10370000CC2061F08F859889A989BA898C569D4F04
:10371000AF4FBF4F080F191F2A1F3B1FDB8CDD2047
:1037200009F445C00A5D1D4F2F4F3F4F801691068B
:10373000A206B30608F43EC0C501B401601B710BBC
:10374000820B930B4B8149DF9B01CC2021F02F8111
:103750003885260F371FC901FCDDAC0161E7C701C1
:10376000E0DBF70180869186A286B3868D2D6B966D
:103770000FB6F894DEBF0FBECDBFDF91CF911F9182
:103780000F91FF90EF90DF90CF90BF90AF909F9000
:103790008F900895888D882309F4B1CF8B859C85FF
:1037A000AD85BE858C569D4FAF4FBF4FA4CFDD2456
:1037B000D394DCCFD12CDACFCF93DF93EC01462F1B
:1037C000416060E086DB0E94A9257E836D8363E112
:1037D000CE01FDDB877089F48A819B81892BB9F347
:1037E0000E94A9252D813E81621B730B8A819B81DA
:1037F0008617970760F780E009C041E06BE0CE01D3
:1038000068DB40E060E0CE0164DB81E0DF91CF91D6
:103810000895EF92FF920F931F93CF93DF9300D001
:1038200000D01F921F92CDB7DEB78C01662339F00E
:1038300069E8CDDB482F416069E8C8014ADB40E018
:1038400068E8C80146DB41E060E8C80142DB41E0CE
:103850006FEFC8013EDB40E060E0C8013ADB61E9A0
:10386000C801B5DBF801878341E060E0C80131DBC6
:1038700040E06FEFC8012DDB40E060E8C80129DBC4
:1038800060E6C801A4DB482F426160E6C80121DB85
:1038900040E250E064E4C80144DB4FEF61E0C8015E
:1038A00018DBAE01495F5F4FBE01685F7F4FC80103
:1038B000A3DC81110FC0F12C8F2D28960FB6F89440
:1038C000DEBF0FBECDBFDF91CF911F910F91FF9053
:1038D000EF90089526E0AE014F5F5F4F60EBC801A7
:1038E000DDDB41E06FEFC801F4DA40E06FE4C801CE
:1038F000F0DA4CE26EE4C801ECDA40E06FEFC801A8
:10390000E8DA44EB66EBC801E4DA8F81ACE08111C0
:1039100001C0A0E0B88580E090E0EE24E394F12CB3
:10392000482F46954695469550E021E030E02C0F13
:103930003D1F240F351FF9012081682F67708A17FA
:1039400010F0B91397C1E1E0F0E0EC0FFD1F4E0F4E
:103950005F1FF70102C0EE0FFF1F6A95E2F7BF017C
:1039600060952623FA0120838F5F8033C9F626E015
:10397000AE014F5F5F4F60EBC80167DB41E06FEF67
:10398000C801A7DA40E060E0C801A3DA40E06FEFC9
:10399000C8019FDA40E069E0C8019BDA40E060E1DD
:1039A000C80197DA40E061E1C80193DA41E064E2DE
:1039B000C8018FDA4FEF65E2C8018BDA40E065E7B6
:1039C000C80187DA41E06FEFC80183DA4CE26EE4A8
:1039D000C8017FDA40E068E4C8017BDA40E260E3D6
:1039E000C80177DA40E06FEFC80173DA49E060E3BD
:1039F000C8016FDA40E064E5C8016BDA44E061E3D6
:103A0000C80167DA43E062E3C80163DA43E860E4CF
:103A1000C8015FDA45E266E4C8015BDA40E060E6CF
:103A2000C80157DA40E067E2C80153DA46E060E5D2
:103A3000C8014FDA40E061E5C8014BDA46E962E5CA
:103A4000C80147DA48E066E5C80143DA40E367E5C4
:103A5000C8013FDA40E061E6C8013BDA40E062E6D7
:103A6000C80137DA40E064E6C80133DA40E065E6D1
:103A7000C8012FDA40EA66E6C8012BDA41E06FEFB1
:103A8000C80127DA42E362E2C80123DA44E167E4CD
:103A9000C8011FDA4FEF69E4C8011BDA40E06AE4AD
:103AA000C80117DA40E06FEFC80113DA4AE06AE7AD
:103AB000C8010FDA40E06BE7C8010BDA41E268E7C2
:103AC000C80107DA41E06FEFC80103DA44E363E2BB
:103AD000C801FFD940E062E4C801FBD94FEF64E4BC
:103AE000C801F7D946E265E4C801F3D945E066E4C8
:103AF000C801EFD940E460E4C801EBD946E06EE0CC
:103B0000C801E7D94AE160E2C801E3D940E463E4CF
:103B1000C801DFD940E06FEFC801DBD943E064E3BF
:103B2000C801D7D944E465E3C801D3D941E06FEFB8
:103B3000C801CFD944E061E3C801CBD949E06BE4C7
:103B4000C801C7D945E06CE4C801C3D944E06DE4BD
:103B5000C801BFD940E06FEFC801BBD940E064E4C1
:103B6000C801B7D940E265E4C801B3D948E067E4C9
:103B7000C801AFD948E268E4C801ABD940E067E6C4
:103B8000C801A7D944E060E7C801A3D941E061E7D3
:103B9000C8019FD94EEF62E7C8019BD940E066E7B4
:103BA000C80197D940E067E7C80193D941E06FEFBA
:103BB000C8018FD941E06DE0C8018BD940E06FEFBB
:103BC000C80187D941E060E8C80183D948EF61E0C6
:103BD000C8017FD941E06FEFC8017BD941E06EE8B1
:103BE000C80177D941E060E0C80173D940E06FEFC8
:103BF000C8016FD940E060E8C8016BD944E06AE0D1
:103C0000C80167D964E8C801E2D9482F4F7E64E84B
:103C1000C8015FD941E06BE0C8015BD9C80155DC40
:103C2000F801608771878287938748EE61E0C80159
:103C300050D9F8014085518562857385C80112DD30
:103C400041E061E0C80145D960E4C801B5DD8823E1
:103C500009F431CE42E061E0C8013BD960E0C8011F
:103C6000ABDDF82E882309F426CE48EE61E0C801CA
:103C700030D922CE30E002C0359527956A95E2F71B
:103C800020FF72CE9F5F70CECF93DF93EC01FA01DD
:103C900020E030E040E85FE36081718182819381C0
:103CA000ACD2811121C08EEA93E076DABC0190E0BB
:103CB00080E041D3688379838A839B838AEB93E096
:103CC0006BDABC0190E080E036D36C837D838E8319
:103CD0009F8386EC93E060DABC0190E080E02BD318
:103CE000688779878A879B87DF91CF9108954F9264
:103CF0005F926F927F928F929F92AF92BF92CF927C
:103D0000DF92EF92FF920F931F93CF93DF938B017C
:103D10005A0120E030E040E85FE3F5016081718105
:103D2000828193816AD2882309F46CC0E801C801BA
:103D30004C96F8011192119211921192E817F9071D
:103D4000C9F710E361E0812F0E94CF271F5F153371
:103D5000C9F710E360E0812F0E940B281F5F153325
:103D6000C9F782E094E036D88CE2E82E83E0F82EA2
:103D70009EE1C92E93E0D92E0EEA13E0412C512C7E
:103D800020E8622E2FE3722E34EF832E9924939431
:103D900061E0F70181917F010E940B286AE070E0E9
:103DA00080E090E007D789E20E947114F6016081FB
:103DB000F2E0CF0ED11CC801A6D861E0C80129DD10
:103DC000811104C0488259826A827B82F801938201
:103DD000828240E050E0BA01C80199D982E094E0C3
:103DE00076D8045F1F4F2496FFE2EF16F3E0FF063C
:103DF00079F680E090E0A0E8BFE3F501808391834D
:103E0000A283B383DF91CF911F910F91FF90EF9029
:103E1000DF90CF90BF90AF909F908F907F906F90EA
:103E20005F904F900895109205041092040488EE5C
:103E300093E0A0E0B0E08093060490930704A09381
:103E40000804B09309048AE493E0909303048093F8
:103E50000204EEEAF3E089E2818313821282148283
:103E60003C9694E0E230F907B9F7089526E030E097
:103E700040E855E260E070E090E080E000C0813012
:103E8000910571F01CF4892B39F008958230910569
:103E900051F0039759F0089581ED94E00C940229B4
:103EA0008EE695E0FBCF8BE096E0F8CF88EA96E0CF
:103EB000F5CF1F920F920FB60F9211240BB60F92EF
:103EC0002F933F934F935F936F937F938F939F9322
:103ED000AF93BF93EF93FF938FE89DEF90932501EE
:103EE0008093240134D0FF91EF91BF91AF919F91C6
:103EF0008F917F916F915F914F913F912F910F9093
:103F00000BBE0F900FBE0F901F9018958FE89DEF7E
:103F10009093250180932401A3E7B0E08C918E7FDC
:103F20008C93E0E2F1E080818C7F8083E1E2F1E03C
:103F30008081877E808380818460808380818C7F84
:103F400080838C9181608C93089581E00895CF9354
:103F5000DF931F921F92CDB7DEB78091C40491E02A
:103F6000980F9093C404882369F021E030E03093E7
:103F7000C7042093C6048093C4040F900F90DF9170
:103F8000CF910895CE0101960E94920578940E94E7
:103F90003506F8948091C40481508093C4048A81CA
:103FA000882389F08091C30491E0980F9093C30413
:103FB000882349F021E030E03093C7042093C60401
:103FC0008093C304DACF8091C3048823B1F2809137
:103FD000C5048111D2CF81E08093C50478940E94FA
:103FE000FB0EF8948091C30481508093C3048091A8
:103FF000C50481508093C504C0CFCF93DF93109246
:104000008D0810928C080CD631DFC0914403D091FA
:104010004503198218820E94950FF89477DF81E09A
:1040200028813981232B09F080E080938C087894D3
:10403000789480918C08811108C00E943C12F894F9
:1040400090E080E0DF91CF91089581E0288139816F
:10405000232B09F480E080938D0890918D0881E0F6
:10406000911180E080938C0870DFE3CF5058BB271C
:10407000AA270ED025C2EED130F0F3D120F031F4D2
:104080009F3F11F41EF4BEC10EF4E095E7FBB4C1EE
:10409000E92F38D280F3BA176207730784079507B0
:1040A00018F071F49EF550C20EF4E0950B2EBA2F65
:1040B000A02D0B01B90190010C01CA01A00111242E
:1040C000FF27591B99F0593F50F4503E68F11A16DA
:1040D000F040A22F232F342F4427585FF3CF46956B
:1040E00037952795A795F0405395C9F77EF41F168D
:1040F000BA0B620B730B840BBAF09150A1F0FF0F57
:10410000BB1F661F771F881FC2F70EC0BA0F621F42
:10411000731F841F48F4879577956795B795F79532
:104120009E3F08F0B3CF9395880F08F09927EE0FC4
:104130009795879508958ED158F080E891E009F41D
:104140009EEF8FD128F040E851E059F45EEF09C0AE
:1041500059C1FAC1E92FE078D5D168F3092E052AB3
:10416000C1F3261737074807590738F00E2E07F80E
:10417000E02569F0E025E0640AC0EF6307F80094E9
:1041800007FADB01B9019D01DC01CA01AD01EF9322
:1041900048D096D10AD05F91552331F02BED3FE006
:1041A00049E450FD49EC63CF0895DF93DD27B92F33
:1041B000BF7740E85FE31616170648075B0710F461
:1041C000D92FCDD19F938F937F936F937AD2E4EEC3
:1041D000F0E01BD175D12F913F914F915F91D2D1DA
:1041E000DD2349F09058A2EA2AED3FE049EC5FE375
:1041F000D0785D274DDFDF9163C1DAD008F481E02C
:10420000089537D1E3956DC12CD140F023D130F022
:1042100021F45F3F19F0F0C0511197C1F3C072D182
:1042200098F39923C9F35523B1F3951B550BBB277D
:10423000AA2762177307840738F09F5F5F4F220F2A
:10424000331F441FAA1FA9F333D00E2E3AF0E0E823
:1042500030D091505040E695001CCAF729D0FE2F6F
:1042600027D0660F771F881FBB1F26173707480701
:10427000AB07B0E809F0BB0B802DBF01FF279358B7
:104280005F4F2AF09E3F510568F0B6C05EC15F3FA8
:10429000ECF3983EDCF3869577956795B795F7959F
:1042A0009F5FC9F7880F911D9695879597F9089597
:1042B000E1E0660F771F881FBB1F62177307840733
:1042C000BA0720F0621B730B840BBA0BEE1F88F742
:1042D000E095089504D06894B11137C108951AD1BA
:1042E00088F09F5790F0B92F9927B751A0F0D1F0DF
:1042F000660F771F881F991F1AF0BA95C9F712C069
:10430000B13081F021D1B1E008951EC1672F782F1F
:104310008827B85F39F0B93FCCF3869577956795D4
:10432000B395D9F73EF490958095709561957F4F40
:104330008F4F9F4F0895E89409C097FB3EF49095E6
:104340008095709561957F4F8F4F9F4F9923A9F06E
:10435000F92F96E9BB279395F695879577956795FD
:10436000B795F111F8CFFAF4BB0F11F460FF1BC041
:104370006F5F7F4F8F4F9F4F16C0882311F096E9D4
:1043800011C0772321F09EE8872F762F05C0662382
:1043900071F096E8862F70E060E02AF09A95660F3B
:1043A000771F881FDAF7880F9695879597F90895F4
:1043B000990F0008550FAA0BE0E8FEEF1616170636
:1043C000E807F907C0F012161306E407F50798F09E
:1043D000621B730B840B950B39F40A2661F0232BB7
:1043E000242B252B21F408950A2609F4A140A69533
:1043F0008FEF811D811D089597F99F6780E870E018
:1044000060E008959FEF80EC0895DF93CF931F93B2
:104410000F93FF92EF92DF927B018C01689405C0AD
:10442000DA2EEF01AFD0FE01E894A59125913591E8
:1044300045915591AEF3EF012BDEFE019701A801E6
:10444000DA9479F7DF90EF90FF900F911F91CF9161
:10445000DF91089500240A94161617061806090617
:10446000089500240A9412161306140605060895EA
:10447000C9CF50D0E8F3E894E0E0BB279F57F0F0B5
:104480002AED3FE049EC06C0EE0FBB0F661F771F19
:10449000881F28F0B23A62077307840728F0B25ADF
:1044A000620B730B840BE3959A9572F7803830F4A6
:1044B0009A95BB0F661F771F881FD2F7904808C1D7
:1044C000092E0394000C11F4882352F0BB0F40F422
:1044D000BF2B11F460FF04C06F5F7F4F8F4F9F4F62
:1044E0000895EF93E0FF06C0A2EA2AED3FE049EC11
:1044F0005FEBCEDDE5DF0F90039401FC9058E1E126
:10450000F1E0F9C057FD9058440F551F59F05F3F37
:1045100071F04795880F97FB991F61F09F3F79F0E5
:1045200087950895121613061406551FF2CF469567
:10453000F1DF08C0161617061806991FF1CF8695E9
:104540007105610508940895E894BB2766277727CD
:10455000CB0197F908952CDF08F48FEF08959B01A4
:10456000AC0160E070E080E89FE3AEC00BD0A8CF64
:1045700071DF28F076DF18F0952309F03DCF42CFA8
:104580001124E3CFBFDFA0F3959FD1F3950F50E047
:10459000551F629FF001729FBB27F00DB11D639FF5
:1045A000AA27F00DB11DAA1F649F6627B00DA11D9B
:1045B000661F829F2227B00DA11D621F739FB00D41
:1045C000A11D621F839FA00D611D221F749F3327B1
:1045D000A00D611D231F849F600D211D822F762F4A
:1045E0006A2F11249F5750408AF0E1F088234AF047
:1045F000EE0FFF1FBB1F661F771F881F9150504093
:10460000A9F79E3F510570F0F7CE9FCF5F3FECF3C7
:10461000983EDCF3869577956795B795F795E7957E
:104620009F5FC1F7FE2B880F911D9695879597F98F
:1046300008959F931EDF0F9007FCEE5F52CF11F499
:104640000EF4E0CE43C066DFD0F39923D9F3CEF366
:104650009F57550B87FF48D00024A0E640EA900101
:1046600080585695979528F4805C660F771F881FB1
:1046700020F026173707480730F4621B730B840BB2
:10468000202931294A2BA6951794079420253125F6
:104690004A2758F7660F771F881F20F0261737071D
:1046A000480730F4620B730B840B200D311D411D44
:1046B000A09581F7B901842F9158880F9695879519
:1046C00008959B01AC0152CFAADDFACE9F3F31F095
:1046D000915020F4879577956795B795880F911D30
:1046E0009695879597F9089591505040660F771FDA
:1046F000881FD2F708959F938F937F936F93FF93B3
:10470000EF939B01AC0132DFEF91FF917EDE2F91A1
:104710003F914F915F912ACF0895883008F076C07D
:10472000E82FF0E0EE0FFF1FED5CFC4F718360831C
:104730008150873008F03DC0E82FF0E08827EC5525
:10474000FC4D8F4F0C94E22BE123AB23B323BF230B
:10475000CC23ED23FA23809169008C7F482B409372
:104760006900E89A089580916900837F440F551F7E
:10477000440F551F482B40936900E99A0895809192
:1047800069008F7C74E0440F551F7A95E1F7482B40
:1047900040936900EA9A0895809169008F7366E0FA
:1047A000440F551F6A95E1F7482B40936900EB9A37
:1047B000089580916A008C7F482B40936A00EC9AA0
:1047C000089580916A00837F440F551F440F551F41
:1047D000482B40936A00ED9A089580916A008F7C7F
:1047E00024E0440F551F2A95E1F7482B40936A00B7
:1047F000EE9A089580916A008F7396E0440F551FDA
:104800009A95E1F7482B40936A00EF9A08951F921A
:104810000F920FB60F9211240BB60F922F933F9366
:104820004F935F936F937F938F939F93AF93BF93B8
:10483000EF93FF93E0913703F09138031995FF91BF
:10484000EF91BF91AF919F918F917F916F915F9108
:104850004F913F912F910F900BBE0F900FBE0F9075
:104860001F9018951F920F920FB60F9211240BB63E
:104870000F922F933F934F935F936F937F938F93F9
:104880009F93AF93BF93EF93FF93E0913903F09120
:104890003A031995FF91EF91BF91AF919F918F913D
:1048A0007F916F915F914F913F912F910F900BBE30
:1048B0000F900FBE0F901F9018951F920F920FB67A
:1048C0000F9211240BB60F922F933F934F935F9348
:1048D0006F937F938F939F93AF93BF93EF93FF93C8
:1048E000E0913B03F0913C031995FF91EF91BF914B
:1048F000AF919F918F917F916F915F914F913F9178
:104900002F910F900BBE0F900FBE0F901F90189518
:104910001F920F920FB60F9211240BB60F922F9386
:104920003F934F935F936F937F938F939F93AF9337
:10493000BF93EF93FF93E0913D03F0913E031995F0
:10494000FF91EF91BF91AF919F918F917F916F9167
:104950005F914F913F912F910F900BBE0F900FBE23
:104960000F901F9018951F920F920FB60F9211245F
:104970000BB60F922F933F934F935F936F937F9359
:104980008F939F93AF93BF93EF93FF93E091330384
:10499000F09134031995FF91EF91BF91AF919F91E1
:1049A0008F917F916F915F914F913F912F910F90D8
:1049B0000BBE0F900FBE0F901F9018951F920F9275
:1049C0000FB60F9211240BB60F922F933F934F9374
:1049D0005F936F937F938F939F93AF93BF93EF9367
:1049E000FF93E0913503F09136031995FF91EF9114
:1049F000BF91AF919F918F917F916F915F914F91F7
:104A00003F912F910F900BBE0F900FBE0F901F90F4
:104A100018951F920F920FB60F9211240BB60F929A
:104A20002F933F934F935F936F937F938F939F93B6
:104A3000AF93BF93EF93FF93E0913F03F091400357
:104A40001995FF91EF91BF91AF919F918F917F91B8
:104A50006F915F914F913F912F910F900BBE0F90EF
:104A60000FBE0F901F9018951F920F920FB60F92C6
:104A700011240BB60F922F933F934F935F936F9335
:104A80007F938F939F93AF93BF93EF93FF93E091A7
:104A90004103F09142031995FF91EF91BF91AF91BE
:104AA0009F918F917F916F915F914F913F912F9146
:104AB0000F900BBE0F900FBE0F901F9018951F9276
:104AC0000F920FB60F9211242F933F938F939F93C2
:104AD000AF93BF938091C9049091CA04A091CB0475
:104AE000B091CC043091C80423E0230F2D3758F542
:104AF0000196A11DB11D2093C8048093C904909311
:104B0000CA04A093CB04B093CC048091CD049091BF
:104B1000CE04A091CF04B091D0040196A11DB11D87
:104B20008093CD049093CE04A093CF04B093D0048F
:104B3000BF91AF919F918F913F912F910F900FBE99
:104B40000F901F90189526E8230F0296A11DB11D06
:104B5000D2CF2FB7F8946091C9047091CA048091A4
:104B6000CB049091CC042FBF08953FB7F894809167
:104B7000CD049091CE04A091CF04B091D00426B57D
:104B8000A89B05C02F3F19F00196A11DB11D3FBF85
:104B9000BA2FA92F982F8827BC01CD01620F711D54
:104BA000811D911D42E0660F771F881F991F4A954E
:104BB000D1F708958F929F92AF92BF92CF92DF92DA
:104BC000EF92FF926B017C01D0DF4B015C01C114BD
:104BD000D104E104F104D9F0D2D5C7DF681979090D
:104BE0008A099B09683E73408105910580F321E0A5
:104BF000C21AD108E108F10888EE880E83E0981EF9
:104C0000A11CB11CC114D104E104F10431F7FF90DF
:104C1000EF90DF90CF90BF90AF909F908F900895CE
:104C2000789484B5826084BD84B5816084BD85B587
:104C3000826085BD85B5816085BDEEE6F0E080814E
:104C400081608083E1E8F0E010828081826080836F
:104C5000808181608083E0E8F0E0808181608083F2
:104C6000E1EBF0E0808184608083E0EBF0E0808124
:104C700081608083E1E9F0E08081826080838081CF
:104C800081608083E0E9F0E0808181608083E1EAF7
:104C9000F0E0808182608083808181608083E0EAAF
:104CA000F0E0808181608083E1E2F1E080818260D8
:104CB0008083808181608083E0E2F1E08081816097
:104CC0008083EAE7F0E08081846080838081826075
:104CD000808380818160808380818068808310925E
:104CE000C1000895863308F0865320917B00982FE9
:104CF0009870277F922B90937B002091430390E440
:104D0000299F900111248770822B80937C008091D1
:104D10007A00806480937A0080917A0086FDFCCFCF
:104D2000809178009091790008951F93CF93DF933D
:104D3000182FEB0161E033D1209731F460E0812F2F
:104D4000DF91CF911F9167C1CF3FD10511F461E091
:104D5000F6CFE12FF0E0E05DFE4FE491E150E2316B
:104D600008F0B2C0F0E08827E854F94D8F4F2AC50B
:104D7000CA26D226D726E126EB266427F526FD266D
:104D800005270F271927232732273C276427462783
:104D900050275A2784B5806884BDC7BDDF91CF9165
:104DA0001F91089584B5806284BDC8BDF7CF8091FE
:104DB0008000806880938000D0938900C093880031
:104DC000EDCF80918000806280938000D0938B0033
:104DD000C0938A00E3CF8091800088608093800038
:104DE000D0938D00C0938C00D9CF8091B0008068A3
:104DF0008093B000C093B300D1CF8091B0008062A7
:104E00008093B000C093B400C9CF809190008068B7
:104E100080939000D0939900C0939800BFCF809169
:104E20009000806280939000D0939B00C0939A0082
:104E3000B5CF80919000886080939000D0939D00C2
:104E4000C0939C00ABCF8091A00080688093A000AD
:104E50008091A0008F7B8093A000D093A900C09385
:104E6000A8009CCF8091A00080628093A000D09386
:104E7000AB00C093AA0092CF8091A000886080937D
:104E8000A000D093AD00C093AC0088CF80912001EA
:104E9000806880932001D0932901C09328017ECFA0
:104EA00080912001806280932001D0932B01C093D8
:104EB0002A0174CF80912001886080932001D093D3
:104EC0002D01C0932C016ACFC038D1050CF03FCF23
:104ED00035CF8150823108F059C0E82FF0E08827A3
:104EE000EC58F84D8F4F6EC49427982786278C274F
:104EF0009027C6279B27A127A527AB27AF27B32736
:104F0000B927BD27C627C127C727CB278091800097
:104F10008F77809380000895809180008F7DF9CFF6
:104F200080918000877FF5CF84B58F7784BD089509
:104F300084B58F7DFBCF8091B0008F778093B000D8
:104F400008958091B0008F7DF9CF809190008F7788
:104F5000809390000895809190008F7DF9CF80918B
:104F60009000877FF5CF8091A0008F778093A0007D
:104F700008958091A0008F7DF9CF8091A000877F58
:104F8000F5CF809120018F77809320010895809143
:104F900020018F7DF9CF80912001877FF5CFCF93BE
:104FA000DF9390E0FC01EA58FE4F249184549E4F19
:104FB000FC0184918823C9F090E0880F991FFC01BF
:104FC000EA5CFD4FA591B491FC01E45EFD4FC591F3
:104FD000D49161110DC09FB7F8948C9120958223D4
:104FE0008C938881282328839FBFDF91CF910895D8
:104FF000623051F49FB7F8943C91822F80958323BF
:105000008C93E8812E2BEFCF8FB7F894EC912E2B59
:105010002C938FBFEACF1F93CF93DF93282F30E0DD
:10502000F901E05DFE4F8491F901EA58FE4FD491F9
:10503000F901E454FE4FC491CC23A1F0162F811145
:1050400048DFEC2FF0E0EE0FFF1FE45EFD4FA5916F
:10505000B4918FB7F894EC91111108C0D095DE236C
:10506000DC938FBFDF91CF911F910895DE2BF8CF96
:10507000FC01918D228D892F90E0805C9F4F821BD7
:1050800091098F7399270895FC01918D828D98174E
:1050900031F0828DE80FF11D858D90E008958FEF3E
:1050A0009FEF0895FC01918D828D981761F0A28D7C
:1050B000AE0FBF2FB11D5D968C91928D9F5F9F7338
:1050C000928F90E008958FEF9FEF0895FC01538D2C
:1050D000448D252F30E0842F90E0821B930B5417D2
:1050E00010F0CF96089501970895FC01A48DA80FA4
:1050F000B92FB11DA35ABF4F2C91848D90E001961A
:105100008F739927848FA689B7892C93A089B18939
:105110008C91837080648C93938D848D981306C0DA
:105120000288F389E02D80818F7D80830895CF935D
:10513000DF93EC01888D8823B1F0AA89BB89E889C7
:10514000F9898C9185FD03C0808186FD0CC00FB666
:1051500007FCF7CF8C9185FFF2CF808185FFEDCFE3
:10516000CE01C3DFEACFDF91CF910895EF92FF9296
:105170000F931F93CF93DF93EC0181E0888F9B8D7A
:105180008C8D98131AC0E889F989808185FF15C034
:105190009FB7F894EE89FF896083E889F989808157
:1051A0008370806480839FBF81E090E0DF91CF9126
:1051B0001F910F91FF90EF900895F62E0B8D10E048
:1051C0000F5F1F4F0F731127E02E8C8D8E110BC0B8
:1051D0000FB607FCFACFE889F989808185FFF5CF02
:1051E000CE0183DFF2CFEB8DEC0FFD2FF11DE35AE3
:1051F000FF4FF0829FB7F8940B8FEA89FB8980817B
:105200008062D0CFCF92DF92EF92FF921F93CF9325
:10521000DF93EC016A017B01122FE889F98982E0B2
:105220008083C11481EED806E104F10499F060E0B6
:1052300079E08DE390E0A7019601A2D221503109D7
:10524000410951095695479537952795211580E1D4
:10525000380790F0E889F989108260E874E88EE1F7
:1052600090E0A70196018CD22150310941095109E2
:105270005695479537952795EC85FD853083EE85C6
:10528000FF852083188EEC89FD891083EA89FB89CC
:10529000808180618083EA89FB8980818860808346
:1052A000EA89FB89808180688083EA89FB89808123
:1052B0008F7D8083DF91CF911F91FF90EF90DF90E2
:1052C000CF9008951F920F920FB60F9211240BB634
:1052D0000F922F938F939F93EF93FF93E091E104AD
:1052E000F091E2048081E091E704F091E80482FD0E
:1052F0001DC090818091EA048F5F8F732091EB0431
:10530000821741F0E091EA04F0E0EF52FB4F958FF5
:105310008093EA04FF91EF919F918F912F910F90CD
:105320000BBE0F900FBE0F901F9018958081F2CF8B
:105330001F920F920FB60F9211240BB60F922F935C
:105340003F934F935F936F937F938F939F93AF930D
:10535000BF93EF93FF9381ED94E0C7DEFF91EF9150
:10536000BF91AF919F918F917F916F915F914F917D
:105370003F912F910F900BBE0F900FBE0F901F907B
:105380001895E1EDF4E01382128288EE93E0A0E03C
:10539000B0E084839583A683B7838CE593E0918303
:1053A000808385EC90E09587848784EC90E09787F4
:1053B000868780EC90E0918B808B81EC90E0938BE2
:1053C000828B82EC90E0958B848B86EC90E0978BBF
:1053D000868B118E128E138E148E08951F920F924B
:1053E0000FB60F9211240BB60F922F938F939F93AA
:1053F000EF93FF93E0917E05F0917F058081E0912E
:105400008405F091850582FD1DC0908180918705FE
:105410008F5F8F7320918805821741F0E091870597
:10542000F0E0E259FA4F958F80938705FF91EF9155
:105430009F918F912F910F900BBE0F900FBE0F90E9
:105440001F9018958081F2CF1F920F920FB60F9286
:1054500011240BB60F922F933F934F935F936F934B
:105460007F938F939F93AF93BF93EF93FF938EE6BA
:1054700095E03BDEFF91EF91BF91AF919F918F91AE
:105480007F916F915F914F913F912F910F900BBE44
:105490000F900FBE0F901F901895EEE6F5E0138267
:1054A000128288EE93E0A0E0B0E084839583A68327
:1054B000B7838CE593E0918380838DEC90E09587B2
:1054C00084878CEC90E09787868788EC90E0918BBE
:1054D000808B89EC90E0938B828B8AEC90E0958BAB
:1054E000848B8EEC90E0978B868B118E128E138EB0
:1054F000148E08951F920F920FB60F9211240BB6BF
:105500000F922F938F939F93EF93FF93E0911B063E
:10551000F0911C068081E0912106F091220682FD27
:105520001DC09081809124068F5F8F732091250686
:10553000821741F0E0912406F0E0E55FF94F958F86
:1055400080932406FF91EF919F918F912F910F905F
:105550000BBE0F900FBE0F901F9018958081F2CF59
:105560001F920F920FB60F9211240BB60F922F932A
:105570003F934F935F936F937F938F939F93AF93DB
:10558000BF93EF93FF938BE096E0AFDDFF91EF9138
:10559000BF91AF919F918F917F916F915F914F914B
:1055A0003F912F910F900BBE0F900FBE0F901F9049
:1055B0001895EBE0F6E01382128288EE93E0A0E00B
:1055C000B0E084839583A683B7838CE593E09183D1
:1055D000808385ED90E09587848784ED90E09787C0
:1055E000868780ED90E0918B808B81ED90E0938BAE
:1055F000828B82ED90E0958B848B86ED90E0978B8B
:10560000868B118E128E138E148E08951F920F9218
:105610000FB60F9211240BB60F922F938F939F9377
:10562000EF93FF93E091B806F091B9068081E09185
:10563000BE06F091BF0682FD1DC090818091C1061B
:105640008F5F8F732091C206821741F0E091C106EF
:10565000F0E0E855F94F958F8093C106FF91EF91E7
:105660009F918F912F910F900BBE0F900FBE0F90B7
:105670001F9018958081F2CF1F920F920FB60F9254
:1056800011240BB60F922F933F934F935F936F9319
:105690007F938F939F93AF93BF93EF93FF9388EA8A
:1056A00096E023DDFF91EF91BF91AF919F918F9194
:1056B0007F916F915F914F913F912F910F900BBE12
:1056C0000F900FBE0F901F901895E8EAF6E0138236
:1056D000128288EE93E0A0E0B0E084839583A683F5
:1056E000B7838CE593E09183808385E391E0958790
:1056F000848784E391E09787868780E391E0918BAC
:10570000808B81E391E0938B828B82E391E0958B98
:10571000848B86E391E0978B868B118E128E138E8D
:10572000148E0895AF92BF92CF92DF92EF92FF92C4
:105730000F931F93CF93DF936C017B018B01040FB9
:10574000151FEB015E01AE18BF08C017D10759F055
:105750006991D601ED91FC910190F081E02DC60197
:105760001995892B79F7C501DF91CF911F910F9181
:10577000FF90EF90DF90CF90BF90AF900895089585
:10578000A1E21A2EAA1BBB1BFD010DC0AA1FBB1F45
:10579000EE1FFF1FA217B307E407F50720F0A21BB7
:1057A000B30BE40BF50B661F771F881F991F1A9424
:1057B00069F760957095809590959B01AC01BD014E
:1057C000CF010895EE0FFF1F881F8BBF0790F69142
:1057D000E02D199409D0A59F900DB49F900DA49F22
:1057E000800D911D11240895A29FB001B39FC001A7
:1057F000A39F700D811D1124911DB29F700D811DFD
:0A5800001124911D0895F894FFCFC4
:10580A00000000000000000001D9FC44E12FFF4421
:10581A00000000000000000000000000000000007E
:10582A000000000000007FC300007FC30000C842E0
:10583A000000C842BDBDC03F1CBDF4425C6EF042D0
:10584A0000007F4300007F43000080BF000080BF4C
:10585A00000080BF000080BF000000006666663F4F
:10586A006666663FCDCC6C40CDCC6C400000000033
:10587A00000000003333333F9A99193F9A9919C0AF
:10588A000000803F0000803FAE47E1BDAE47E13DEA
:10589A000000003F5D7491C00000003F5D749140BC
:1058AA000000C03F000000000AD7233C00000000AF
:1058BA0000000000000000000000000000000000DE
:1058CA0000000000000000000000C8420AD7233C84
:1058DA000AD7233C0000000000007FC300007F437A
:1058EA00000000000AD7233C0AD7233C000000002E
:1058FA0000007FC300007F43000000000000803FDB
:10590A00000048420000C84100000000CDCCCC3D58
:10591A000000A0400000404059EC474A00962A0087
:10592A002C002E000000000000000000303234007D
:10593A000000008C238C238C238C238C238C238CB7
:10594A00238C2301A903000000005F158D15441460
:10595A00701447144E14611400000000B628922BEC
:0A596A0066289728382852284428A0
:00000001FF
