:1000000014C100000C94CA100C94F5100C9420112B
:100010000C944B110C9476110C94A1110C94CC11EE
:100020000C94F71133C1000031C100002FC1000052
:100030002DC100002BC1000029C1000027C1000014
:1000400025C1000023C1000021C100001FC1000024
:100050001DC100001BC1000019C100000C94221238
:1000600015C100000C949B150C94D1150FC1000014
:100070000DC100000BC1000009C1000007C1000054
:1000800005C1000003C1000001C10000FFC0000065
:100090000C9427160C945D16F9C00000F7C0000000
:1000A000F5C00000F3C00000F1C00000EFC0000088
:1000B000EDC00000EBC00000E9C00000E7C0000098
:1000C000E5C00000E3C000000C94790D0C94B31659
:1000D0000C94E916DBC000000C943F170C947517C4
:1000E000D5C0000005A84CCDB2D44EB93836A9020F
:1000F0000C50B9918688083CA6AAAA2ABE00000026
:10010000803F00000A0B02090C0D0E0807030401D2
:1001100000000000000000000000000000000000DF
:1001200000000000000000000000000000001211AC
:1001300010000000000000000000000000000000AF
:10014000000000000000000001021020200808103C
:100150002040102040800201020108040201010237
:100160000408102040808040201008040201800410
:10017000020180402010080402010804020101026B
:10018000040810204080010204081020408005056A
:100190000505070508080808020202020A0A0808FD
:1001A000040404040101010101010101030303032B
:1001B00003030303040707070C0C0C0C0C0C0C0CBA
:1001C0000202020206060606060606060B0B0B0BCB
:1001D0000B0B0B0B000020002300260029002C0035
:1001E0002F00320000010000030106010901000098
:1001F0002200250028002B002E00310034000201CF
:100200000000050108010B01000021002400270067
:100210002A002D0030003300010100000401070115
:100220000A01FA15861612179E1711241FBECFEF6A
:10023000D1E2DEBFCDBF00E00CBF12E0A0E0B2E033
:10024000E8E4F0E300E00BBF02C007900D92A03D90
:10025000B107D9F726E0A0EDB2E001C01D92A731A9
:10026000B207E1F711E0C5E1D1E000E006C0219757
:100270000109802FFE010E941A18C131D10780E0C8
:100280000807A9F70E94E00D0C942218B9CECF926E
:10029000DF92EF92FF92CF93882351F16A017B01A5
:1002A000CFEFC80F20E030E0A901CB01B6010E94DA
:1002B0007C0E18168CF0C701B60190580E94880E6B
:1002C0009B01AC016C2F70E090E080E0CF91FF903B
:1002D000EF90DF90CF90B2C0C701B6010E94830EAD
:1002E0008C2FCF91FF90EF90DF90CF900C94CE1297
:1002F000CF91FF90EF90DF90CF9008950F931F93D1
:100300008B019C0183E036952795179507958A9573
:10031000D1F700531D4F462F477021E030E0F9011F
:1003200002C0EE0FFF1F4A95E2F7AF01F8012081EE
:100330002423CB010196211102C090E080E01F919F
:100340000F9108950F931F938B019C0183E03695C5
:100350002795179507958A95D1F7677081E090E00A
:1003600001C0880F6A95EAF7F801E053FD4F20813C
:10037000452B31F48095822380831F910F9108953E
:10038000822BFACF2F923F924F925F926F927F9281
:100390008F929F92AF92BF92CF92DF92EF92FF9295
:1003A0000F931F93CF93DF93D62EC72E782E692EEF
:1003B00049015A01280161E08D2D0E940814CD2DBC
:1003C000DC2D8E010F5F1F4FA8016D2D7C2D872D19
:1003D000962DB8DF20E030E0A901C201B7010E94EC
:1003E0009F0F181664F4C201B7010E94880E2B01FA
:1003F000C501B4010E94880EA201CE0123D0C8011C
:10040000DF91CF911F910F91FF90EF90DF90CF90F0
:10041000BF90AF909F908F907F906F905F904F9024
:100420003F902F900895882341F08150682F70E00D
:1004300090E080E050E040E085CF0895862FB9013C
:100440000C94CE129C01FC01EE5FFE4FE491E15052
:10045000E231E0F4F0E08827EF5CFD4F8F4F0C9421
:100460001A1843024A024D026402790246028E02C1
:100470009A029E02B502CA02DF02F6020B0346028E
:10048000200337034C0384B5806884BD60E0822F6D
:100490000C94441484B58062F8CF809180008C7FE6
:1004A00082608093800080918100807E8061682BD3
:1004B0006093810050938700409386008091800074
:1004C000806880938000E2CF809180008C7F826082
:1004D0008093800080918100807E8061682B609392
:1004E0008100509387004093860080918000806255
:1004F000E8CF809180008C7F826080938000809123
:100500008100807E8061682B60938100509387001A
:1005100040938600809180008860D3CF8091B000A6
:1005200080688093B0008091B100887F682B6093D1
:10053000B100ACCF8091B0008062F3CF8091900089
:100540008C7F82608093900080919100807E80619A
:10055000682B609391005093970040939600809190
:10056000900080688093900091CF809190008C7F64
:1005700082608093900080919100807E8061682BE2
:100580006093910050939700409396008091900063
:100590008062E8CF809190008C7F82608093900091
:1005A00080919100807E8061682B609391005093D0
:1005B000970040939600809190008860D3CF8091FF
:1005C000A0008C7F82608093A0008091A100807E3B
:1005D0008061682B6093A1005093A7004093A60010
:1005E0008091A00080688093A00050CF8091A000EF
:1005F0008C7F82608093A0008091A100807E8061CA
:10060000682B6093A1005093A7004093A6008091AF
:10061000A0008062E8CF8091A0008C7F82608093F0
:10062000A0008091A100807E8061682B6093A10072
:100630005093A7004093A6008091A0008860D3CF7C
:10064000809120018C7F8260809320018091210124
:10065000807E8061682B6093210150932701409335
:100660002601809120018068809320010FCF809126
:1006700020018C7F82608093200180912101807E07
:100680008061682B609321015093270140932601DC
:10069000809120018062E8CF809120018C7F826070
:1006A0008093200180912101807E8061682B60937E
:1006B00021015093270140932601809120018860F9
:1006C000D3CFFC01A781B0858C9191858923A4812A
:1006D000B5819C91408151816281738126819223F1
:1006E00059F081110BC04F5F5F4F6F4F7F4F4083B9
:1006F00051836283738308958111F5CF415051096D
:1007000061097109F4CF8AED92E0DBCF85EE92E0CA
:10071000D8CF80EF92E0D5CF8BEF92E0D2CFFC0123
:10072000A481B5818C9196818923A781B0859C9104
:1007300040815181628173812185922359F0882300
:1007400059F04F5F5F4F6F4F7F4F408351836283FC
:10075000738308958823A9F34150510961097109F0
:10076000F4CF8AED92E0DBCF85EE92E0D8CF80EF38
:1007700092E0D5CF8BEF92E0D2CF0F931F93CF9320
:10078000DF93D82FC62F8A01A091D9028BE0A89FB2
:10079000D0011124A652BD4F1D921D921D921C9294
:1007A000139781E01A968C931A978D2F90E0FC0195
:1007B000E85BFE4FE4911696EC931697FC01E25726
:1007C000FE4FE491F0E0EE0FFF1FEC52FE4F8591DB
:1007D000949115969C938E931497862F90E0FC012C
:1007E000E85BFE4FE4911996EC931997FC01E257F0
:1007F000FE4FE491F0E0EE0FFF1FEC52FE4F8591AB
:10080000949118969C938E93179760E08D2F0E9479
:10081000081460E08C2F0E9408148091D902813066
:1008200009F43FC0A8F0823009F462C0833009F4B3
:1008300086C08091D90291E0980F9093D902F80177
:10084000808390E080E0DF91CF911F910F91089518
:1008500080E0D23049F081E0D33031F08EEE8D0F60
:100860008430D8F487E18D1B41E050E063E873E009
:100870000E94511080E0C23049F081E0C33031F075
:100880008EEE8C0F843058F487E18C1B41E050E0F1
:1008900061EB73E00E945110CCCF8FEFE5CF8FEF6B
:1008A000F5CF80E0D23049F081E0D33031F08EEEE8
:1008B0008D0F8430C8F487E18D1B41E050E066E87D
:1008C00073E00E94511080E0C23049F081E0C330F3
:1008D00031F08EEE8C0F843048F487E18C1B41E0C0
:1008E00050E064EB73E0D6CF8FEFE7CF8FEFF7CF19
:1008F00080E0D23049F081E0D33031F08EEE8D0FC0
:100900008430C8F487E18D1B41E050E069E873E072
:100910000E94511080E0C23049F081E0C33031F0D4
:100920008EEE8C0F843048F487E18C1B41E050E060
:1009300067EB73E0AFCF8FEFE7CF8FEFF7CF80E0BC
:10094000D23049F081E0D33031F08EEE8D0F84301B
:10095000C8F487E18D1B41E050E06CE873E00E9431
:10096000511080E0C23049F081E0C33031F08EEEAA
:100970008C0F843048F487E18C1B41E050E06AEB37
:1009800073E088CF8FEFE7CF8FEFF7CF9BE0899FA2
:10099000F0011124E652FD4F80819181A281B38143
:1009A000FB0180839183A283B38390E080E008956C
:1009B0009BE0899FF0011124E652FD4F10821182C5
:1009C0001282138290E080E0089590E080E0089524
:1009D0004F925F926F927F928F929F92AF92BF924F
:1009E000CF92DF92EF92FF92CF93DF93CDB7DEB736
:1009F000A0970FB6F894DEBF0FBECDBFC0904402E3
:100A0000D0904502E0904602F0904702A70196017F
:100A10006091B7057091B8058091B9059091BA05BC
:100A20000E947C0E882341F0C092B705D092B80591
:100A3000E092B905F092BA058091B6058111109245
:100A4000B605BE016F5F7F4F8091BB059FDFC090F1
:100A50004802D0904902E0904A02F0904B02A70170
:100A600096016091AB057091AC058091AD059091B8
:100A7000AE050E947C0E882341F0C092AB05D09257
:100A8000AC05E092AD05F092AE058091AA0581110A
:100A90001092AA05BE016B5F7F4F8091AF0576DF94
:100AA0006091A8027091A9028091AA029091AB0274
:100AB0000E94B60E20E030E040E05AE20E94A30F10
:100AC0004B015C01C0907402D0907502E0907602F8
:100AD000F090770269817A818B819C810E94B60EA9
:100AE000A50194010E94A30FA70196010E94A30FE4
:100AF000698B7A8B8B8B9C8B6D817E818F819885A6
:100B00000E94B60EA50194010E94A30F9B01AC01A7
:100B1000C701B6010E94A30F6D8B7E8B8F8B988FC0
:100B20002091E8053091E9054091EA055091EB05E7
:100B300069897A898B899C890E94170E6B017C01D7
:100B4000C092E805D092E905E092EA05F092EB0543
:100B50002091EC053091ED054091EE055091EF05A7
:100B60006D897E898F89988D0E94170E2B013C011B
:100B70004092EC055092ED056092EE057092EF0503
:100B800020915C0230915D0240915E0250915F02C3
:100B9000C701B6010E94A30F4B015C0120916402C2
:100BA000309165024091660250916702C301B20123
:100BB0000E94A30F9B01AC01C501B4010E94180E55
:100BC000698F7A8F8B8F9C8F80910E068F3718F4E8
:100BD0008F5F80930E0680910C06811119C081E011
:100BE00080930C0610920E0688E080930D061092FA
:100BF00088051092890510928A0510928B05109233
:100C00008C0510928D0510928E0510928F0548C0AC
:100C1000E0910D06E150E83008F042C0F0E088278E
:100C2000EB5EF94F8F4F0C941A181D061B074907EE
:100C30005C076D079007A107B30726E636E646E690
:100C40005FE36091DC057091DD058091DE05909198
:100C5000DF050E949F0F18161CF587E080930D0694
:100C60008091080690910906A0910A06B0910B06A2
:100C70008093880590938905A0938A05B0938B058E
:100C80008091040690910506A0910606B091070692
:100C900080938C0590938D05A0938E05B0938F055E
:100CA0008090880590908905A0908A05B0908B056A
:100CB00080918C0590918D05A0918E05B0918F0546
:100CC00089879A87AB87BC8720914C0230914D026F
:100CD00040914E0250914F02C501B4010E94A30FF2
:100CE0006D877E878F87988B2091540230915502B3
:100CF000409156025091570269857A858B859C8573
:100D00000E94A30F9B01AC016D857E858F8598891C
:100D10008FD7A70196018BD76D877E878F87988B9A
:100D20002091500230915102409152025091530251
:100D3000C501B4010E94A30F6B017C0120915802F0
:100D40003091590240915A0250915B0269857A852F
:100D50008B859C850E94A30F9B01AC01C701B60146
:100D600067D7A301920163D769877A878B879C87AE
:100D70002091000230910102409102025091030241
:100D80000E94A30F2091F0053091F1054091F205EA
:100D90005091F3054CD720912C0230912D024091B7
:100DA0002E0250912F020E94A30F6B017C01C09272
:100DB0009005D0929105E0929205F09293052091D2
:100DC00034023091350240913602509137026985E4
:100DD0007A858B859C850E94A30F2091F405309124
:100DE000F5054091F6055091F70522D7A701960128
:100DF0001FD76B017C01C0929405D0929505E092BB
:100E00009605F092970580903C0290903D02A0904C
:100E10003E02B0903F02A50194010E949F0F181658
:100E20000CF0A8C08092940590929505A09296052A
:100E3000B0929705AEC02AE939E949E15FE36091D4
:100E4000E0057091E1058091E2059091E3050E9433
:100E50009F0F18160CF024CF85E080930D0680912B
:100E6000080690910906A0910A06B0910B0680939E
:100E7000880590938905A0938A05B0938B0580918E
:100E8000040690910506A0910606B0910706B05899
:100E9000FFCE2DEC3CEC4CE650E46091DC0570910B
:100EA000DD058091DE059091DF050E949F0F1816E9
:100EB0000CF0F6CE86E0D1CF2AE939E949E150ECD1
:100EC0006091E0057091E1058091E2059091E30564
:100ED00013D787FFE5CE89E088CE2DEC3CEC4CECB7
:100EE0005DE36091E4057091E5058091E6059091E0
:100EF000E70502D787FFD4CE83E080930D0680916B
:100F0000000690910106A0910206B091030680931D
:100F1000880590938905A0938A05B0938B056FCEC1
:100F200026EF38E24CEB5FEB6091E4057091E5054C
:100F30008091E6059091E705DFD687FFB1CE84E08A
:100F4000DCCF20E030E040EC5FE36091E40570919D
:100F5000E5058091E6059091E705F1D718160CF0AC
:100F60009FCE82E0CACF80910E06843608F498CED8
:100F700081E0C3CF8090240290902502A0902602A9
:100F8000B0902702A5019401C701B601B5D687FD2F
:100F900049CF65E070E080E090E0B0D93C019093EB
:100FA000DB058093DA058090940590909505A090DC
:100FB0009605B0909705C0908002D0908102E09095
:100FC0008202F0908302A7019601B401C501B7D750
:100FD00018168CF0C0908402D0908502E0908602B2
:100FE000F0908702A7019601B401C50185D687FD5F
:100FF00002C064017501E894F7F820E030E04FE7A3
:1010000053E4C701B60178D6181634F4C12CD12C9C
:101010009FE7E92E93E4F92EB701A601C30137D962
:1010200064E070E080E090E069D97C019093CB05AA
:101030008093CA0540909405509095056090960560
:10104000709097058090880290908902A0908A0203
:10105000B0908B02A5019401C301B20170D718169C
:101060004CF48092940590929505A0929605B092CA
:1010700097050FC080908C0290908D02A0908E02F8
:10108000B0908F02A5019401C301B20135D687FD4E
:10109000E8CF20E030E04FE753E460919405709191
:1010A0009505809196059091970526D6181664F4BB
:1010B00080E090E0AFE7B3E48093940590939505CA
:1010C000A0939605B093970520E030E0A9016091C8
:1010D00094057091950580919605909197052FD76D
:1010E00087FF08C0109294051092950510929605FE
:1010F0001092970540919405509195056091960541
:1011000070919705C701C3D8209104023091050260
:1011100040910602509107026D857E858F859889E2
:1011200012D72091F8053091F9054091FA055091B8
:10113000FB057DD520913002309131024091320281
:101140005091330200D76B017C01C0929405D0927C
:101150009505E0929605F09297052091380230911E
:10116000390240913A0250913B026D857E858F8510
:101170009889E9D62091FC053091FD054091FE0546
:101180005091FF0555D5A701960152D56B017C0101
:10119000C0929805D0929905E0929A05F0929B052D
:1011A0008090400290904102A0904202B090430291
:1011B000A5019401C4D618164CF48092980590921B
:1011C0009905A0929A05B0929B050FC080902802C5
:1011D00090902902A0902A02B0902B02A5019401C0
:1011E000C701B60189D587FDE8CF66E070E080E0F1
:1011F00090E084D83C019093D3058093D2058090F1
:10120000980590909905A0909A05B0909B05C09084
:101210009802D0909902E0909A02F0909B02A70168
:101220009601B401C5018BD618168CF0C0909C02B3
:10123000D0909D02E0909E02F0909F02A70196013F
:10124000B401C50159D587FD02C064017501E89458
:10125000F7F820E030E04FE753E4C701B6014CD582
:10126000181634F4C12CD12C8FE7E82E83E4F82E25
:10127000B701A601C3010BD867E070E080E090E001
:101280003DD87C019093C3058093C205409098059A
:101290005090990560909A0570909B058090A002EF
:1012A0009090A102A090A202B090A302A501940187
:1012B000C301B20144D618164CF48092980590925E
:1012C0009905A0929A05B0929B050FC08090A40248
:1012D0009090A502A090A602B090A702A50194014B
:1012E000C301B20109D587FDE8CF20E030E04FE728
:1012F00053E4609198057091990580919A059091B9
:101300009B05FAD4181664F480E090E0AFE7B3E4EC
:101310008093980590939905A0939A05B0939B05A7
:1013200020E030E0A90160919805709199058091C5
:101330009A0590919B0503D687FF08C010929805E7
:101340001092990510929A0510929B05409198056C
:101350005091990560919A0570919B05C7010E9473
:1013600047018091DC059091DD05A091DE05B091EB
:10137000DF058D8F9E8FAF8FB8A34090E40550900E
:10138000E5056090E6057090E7054092980550925B
:10139000990560929A0570929B058090E005909067
:1013A000E105A090E205B090E30580929C05909243
:1013B0009D05A0929E05B0929F054092A005509277
:1013C000A1056092A2057092A305C301B20198D451
:1013D000C0906C02D0906D02E0906E02F0906F02AF
:1013E000298D3A8D4B8D5C8DAED5A7019601ABD57D
:1013F0002D8D3E8D4F8D58A11BD46093DC057093CD
:10140000DD058093DE059093DF05C301B201FED5B3
:10141000298D3A8D4B8D5C8D96D5A701960193D57C
:10142000A501940105D46093E0057093E1058093D4
:10143000E2059093E30520916002309161024091B2
:101440006202509163026091E8057091E905809114
:10145000EA059091EB0577D54B015C01209168027C
:101460003091690240916A0250916B026091EC05E3
:101470007091ED058091EE059091EF0564D59B018B
:10148000AC01C501B401D4D3A70196015CD5A30179
:101490009201CED36093E4057093E5058093E60551
:1014A0009093E70589899A89AB89BC898093E8057F
:1014B0009093E905A093EA05B093EB058D899E8989
:1014C000AF89B88D8093EC059093ED05A093EE0560
:1014D000B093EF05209190053091910540919205D0
:1014E00050919305609178027091790280917A020F
:1014F00090917B0228D52091F0053091F105409123
:10150000F2055091F30594D36093F0057093F105C3
:101510008093F2059093F30520910802309109021F
:1015200040910A0250910B0269857A858B859C85D2
:101530000AD520917C0230917D0240917E0250912B
:101540007F0201D52091F4053091F5054091F60513
:101550005091F7056DD36093F4057093F505809372
:10156000F6059093F70520919405309195054091EB
:10157000960550919705609190027091910280912B
:10158000920290919302DFD42091F8053091F905F1
:101590004091FA055091FB054BD36093F805709389
:1015A000F9058093FA059093FB0520910C02309188
:1015B0000D0240910E0250910F026D857E858F8540
:1015C0009889C1D42091940230919502409196025D
:1015D00050919702B8D42091FC053091FD054091BF
:1015E000FE055091FF0524D36093FC057093FD0523
:1015F0008093FE059093FF05A0960FB6F894DEBF8A
:101600000FBECDBFDF91CF91FF90EF90DF90CF90D5
:10161000BF90AF909F908F907F906F905F904F9012
:1016200008954F925F926F927F928F929F92AF92A6
:10163000BF92DF92EF92FF920F931F93CF93DF93AE
:10164000109207031092060388E8882E85E0982EF2
:101650008CE1F40111928A95E9F7C4EAD5E081E7BB
:10166000FE0111928A95E9F7DD24D394D0921006F9
:1016700090E0A92E92E0B92E80914402909145020B
:10168000A0914602B09147028B8B9C8BAD8BBE8B99
:10169000412C512C320143944D865E866F86788AA8
:1016A0004BEB55E063E082E068D8D98A1A8A1B8642
:1016B0001882D0920F068091480290914902A09121
:1016C0004A02B0914B028F839887A987BA874982D3
:1016D0005A826B827C824FEA55E063E182E14DD809
:1016E000DD821E8218AAD092140649AA5AAA6BAAB1
:1016F0007CAAE12CF12C8701A801970165E070E03C
:1017000080E090E00E94C2019FAB8EABDDAA18A2E0
:10171000D092120649A25AA26BA27CA2A8019701FC
:1017200064E070E080E090E00E94C2019FA38EA37D
:10173000DDA218A6D092130649A65AA66BA67CA6CF
:10174000A801970166E070E080E090E00E94C2018D
:101750009FA78EA7DDA6188ED0921106498E5A8EAD
:101760006B8E7C8EA801970167E070E080E090E0CE
:101770000E94C2019F8F8E8FDD8E809170029091AA
:101780007102A0917202B091730288AF99AFAAAFB3
:10179000BBAF8CAF9DAFAEAFBFAF8093E40590936E
:1017A000E505A093E605B093E705F50180899189E9
:1017B000A289B3898093E8059093E905A093EA058F
:1017C000B093EB058093EC059093ED05A093EE05A7
:1017D000B093EF0584899589A689B7898093F00530
:1017E0009093F105A093F205B093F305848D958D48
:1017F000A68DB78D8093F4059093F505A093F6051B
:10180000B093F705808D918DA28DB38D8093F805EF
:101810009093F905A093FA05B093FB0580A191A1DF
:10182000A2A1B3A18093FC059093FD05A093FE05B2
:10183000B093FF0510920E0610920C0610920D0642
:10184000F401E082F18202831383E482F58206834D
:10185000178385E89BEEA1E5BEE380930006909395
:101860000106A0930206B09303068DEC9CECACEC51
:10187000BEE38093040690930506A0930606B093FA
:1018800007068DEC9CECACECBDE3809308069093CE
:101890000906A0930A06B0930B068F8989D88B8519
:1018A000DF91CF911F910F91FF90EF90DF90BF904C
:1018B000AF909F908F907F906F905F904F9078C87F
:1018C0008091B005811113C081E08093B0058091B3
:1018D000B1059091B205A091B305B091B4050197FF
:1018E000A105B10521F48091B50581116ED88091D3
:1018F000A405811113C081E08093A4058091A50502
:101900009091A605A091A705B091A8050197A10502
:10191000B10521F48091A905811157D88091D40592
:1019200081112EC081E08093D4058091D5059091DE
:10193000D605A091D705B091D8050197A105B105AD
:10194000F9F48091D9058823D9F065E070E080E052
:1019500090E00E947E019093DB058093DA0540E0E1
:1019600050E0BA010E94470165E070E080E090E03D
:101970000E947E019093DB058093DA050E9413029A
:101980008091C40581112EC081E08093C4058091AF
:10199000C5059091C605A091C705B091C8050197EE
:1019A000A105B105F9F48091C9058823D9F064E057
:1019B00070E080E090E00E947E019093CB058093E0
:1019C000CA0540E050E0BA010E94470164E070E0BF
:1019D00080E090E00E947E019093CB058093CA0541
:1019E0000E9413028091CC0581112EC081E080936A
:1019F000CC058091CD059091CE05A091CF05B091F9
:101A0000D0050197A105B105F9F48091D10588238E
:101A1000D9F066E070E080E090E00E947E01909353
:101A2000D3058093D20540E050E0BA010E944701FF
:101A300066E070E080E090E00E947E019093D30524
:101A40008093D2050E9413028091BC0581112EC0A3
:101A500081E08093BC058091BD059091BE05A09169
:101A6000BF05B091C0050197A105B105F9F48091BA
:101A7000C1058823D9F067E070E080E090E00E9423
:101A80007E019093C3058093C20540E050E0BA0107
:101A90000E94470167E070E080E090E00E947E01D4
:101AA0009093C3058093C2050C941302089526E019
:101AB00030E040E855E260E070E090E080E000C097
:101AC0008130910569F01CF4892B39F0089582303A
:101AD000910549F0039751F0089584E193E0CBC755
:101AE00081EB93E0FCCF8EE494E0F9CF8BEE94E0B1
:101AF000F6CF1F920F920FB60F9211240BB60F92D2
:101B00002F933F934F935F936F937F938F939F9305
:101B1000AF93BF93EF93FF938FE89DEF90932501D1
:101B20008093240134D0FF91EF91BF91AF919F91A9
:101B30008F917F916F915F914F913F912F910F9076
:101B40000BBE0F900FBE0F901F9018958FE89DEF62
:101B50009093250180932401A3E7B0E08C918E7FC0
:101B60008C93E0E2F1E080818C7F8083E1E2F1E020
:101B70008081877E808380818460808380818C7F68
:101B800080838C9181608C93089581E00895809189
:101B9000080391E0980F90930803882349F021E00F
:101BA00030E030930A0320930903809308030895DB
:101BB00078940E94E804F894809108038150F5CF4E
:101BC000CF93DF93109216061092150685D46FDF1F
:101BD000C091BC02D091BD021982188222DDF89416
:101BE000B5DF81E028813981232B09F080E08093E3
:101BF00015067894789480911506811107C060DEEF
:101C0000F89490E080E0DF91CF91089581E0288101
:101C10003981232B09F480E08093160690911606F3
:101C200081E0911180E080931506AFDFE4CF50583A
:101C3000BB27AA270ED038C101D130F006D120F041
:101C400031F49F3F11F41EF4F6C00EF4E095E7FB6B
:101C5000ECC0E92F4BD180F3BA17620773078407F2
:101C6000950718F071F49EF563C10EF4E0950B2E04
:101C7000BA2FA02D0B01B90190010C01CA01A001DE
:101C80001124FF27591B99F0593F50F4503E68F139
:101C90001A16F040A22F232F342F4427585FF3CF7A
:101CA000469537952795A795F0405395C9F77EF44B
:101CB0001F16BA0B620B730B840BBAF09150A1F094
:101CC000FF0FBB1F661F771F881FC2F70EC0BA0F1A
:101CD000621F731F841F48F4879577956795B795A2
:101CE000F7959E3F08F0B3CF9395880F08F099279A
:101CF000EE0F97958795089574D008F481E00895C4
:101D0000ACD0E395E2C004D06894B11112C108953B
:101D1000F5D088F09F5790F0B92F9927B751A0F0D0
:101D2000D1F0660F771F881F991F1AF0BA95C9F76F
:101D300012C0B13081F0FCD0B1E00895F9C0672F36
:101D4000782F8827B85F39F0B93FCCF3869577951F
:101D50006795B395D9F73EF4909580957095619508
:101D60007F4F8F4F9F4F0895E89409C097FB3EF433
:101D700090958095709561957F4F8F4F9F4F9923D8
:101D8000A9F0F92F96E9BB279395F6958795779556
:101D90006795B795F111F8CFFAF4BB0F11F460FF16
:101DA0001BC06F5F7F4F8F4F9F4F16C0882311F06E
:101DB00096E911C0772321F09EE8872F762F05C082
:101DC000662371F096E8862F70E060E02AF09A951D
:101DD000660F771F881FDAF7880F9695879597F912
:101DE0000895990F0008550FAA0BE0E8FEEF1616AC
:101DF0001706E807F907C0F012161306E407F507FF
:101E000098F0621B730B840B950B39F40A2661F072
:101E1000232B242B252B21F408950A2609F4A14015
:101E2000A6958FEF811D811D089597F99F6780E822
:101E300070E060E008959FEF80EC089500240A941C
:101E40001616170618060906089500240A94121695
:101E50001306140605060895EECF50D0E8F3E89473
:101E6000E0E0BB279F57F0F02AED3FE049EC06C0C9
:101E7000EE0FBB0F661F771F881F28F0B23A62076C
:101E80007307840728F0B25A620B730B840BE39537
:101E90009A9572F7803830F49A95BB0F661F771FBA
:101EA000881FD2F79048BAC0092E0394000C11F491
:101EB000882352F0BB0F40F4BF2B11F460FF04C025
:101EC0006F5F7F4F8F4F9F4F0895EF93E0FF06C0E6
:101ED000A2EA2AED3FE049EC5FEBBBDEE5DF0F90C5
:101EE000039401FC9058E4EEF0E0A4C057FD905834
:101EF000440F551F59F05F3F71F04795880F97FBCE
:101F0000991F61F09F3F79F0879508951216130687
:101F10001406551FF2CF4695F1DF08C016161706B6
:101F20001806991FF1CF86957105610508940895EB
:101F3000E894BB2766277727CB0197F9089551DFEF
:101F400008F48FEF08950BD0AFCF78DF28F07DDF56
:101F500018F0952309F069CF6ECF1124EACFC6DFC0
:101F6000A0F3959FD1F3950F50E0551F629FF001AC
:101F7000729FBB27F00DB11D639FAA27F00DB11D05
:101F8000AA1F649F6627B00DA11D661F829F22278E
:101F9000B00DA11D621F739FB00DA11D621F839F15
:101FA000A00D611D221F749F3327A00D611D231FEB
:101FB000849F600D211D822F762F6A2F11249F5739
:101FC00050408AF0E1F088234AF0EE0FFF1FBB1F5C
:101FD000661F771F881F91505040A9F79E3F5105FB
:101FE00070F023CFA6CF5F3FECF3983EDCF38695ED
:101FF00077956795B795F795E7959F5FC1F7FE2BA6
:10200000880F911D9695879597F908959F9325DFE1
:102010000F9007FCEE5F59CF9F3F31F0915020F4B5
:10202000879577956795B795880F911D96958795B4
:1020300097F908959F938F937F936F93FF93EF93F7
:102040009B01AC0180DFEF91FF9105D02F913F9173
:102050004F915F9178CFDF93CF931F930F93FF92B0
:10206000EF92DF927B018C01689405C0DA2EEF01BC
:1020700076DFFE01E894A591259135914591559122
:10208000AEF3EF01E6DDFE019701A801DA9479F7DE
:10209000DF90EF90FF900F911F91CF91DF91089506
:1020A0000895883008F075C0E82FF0E0EE0FFF1FAC
:1020B000E455FD4F718360838150873008F03CC048
:1020C000E82FF0E08827E959FF4E8F4FB3C7A410DF
:1020D0006E10761082108F10B010BD1080916900C4
:1020E0008C7F482B40936900E89A0895809169009D
:1020F000837F440F551F440F551F482B40936900A1
:10210000E99A0895809169008F7C74E0440F551F0F
:102110007A95E1F7482B40936900EA9A08958091F7
:1021200069008F7366E0440F551F6A95E1F7482BED
:1021300040936900EB9A089580916A008C7F482B48
:1021400040936A00EC9A089580916A00837F440F5F
:10215000551F440F551F482B40936A00ED9A089570
:1021600080916A008F7C24E0440F551F2A95E1F787
:10217000482B40936A00EE9A089580916A008F730D
:1021800096E0440F551F9A95E1F7482B40936A005B
:10219000EF9A08951F920F920FB60F9211240BB66B
:1021A0000F922F933F934F935F936F937F938F93F0
:1021B0009F93AF93BF93EF93FF93E091B002F091A1
:1021C000B1021995FF91EF91BF91AF919F918F91BE
:1021D0007F916F915F914F913F912F910F900BBE27
:1021E0000F900FBE0F901F9018951F920F920FB671
:1021F0000F9211240BB60F922F933F934F935F933F
:102200006F937F938F939F93AF93BF93EF93FF93BE
:10221000E091B202F091B3021995FF91EF91BF9155
:10222000AF919F918F917F916F915F914F913F916E
:102230002F910F900BBE0F900FBE0F901F9018950F
:102240001F920F920FB60F9211240BB60F922F937D
:102250003F934F935F936F937F938F939F93AF932E
:10226000BF93EF93FF93E091B402F091B5021995FB
:10227000FF91EF91BF91AF919F918F917F916F915E
:102280005F914F913F912F910F900BBE0F900FBE1A
:102290000F901F9018951F920F920FB60F92112456
:1022A0000BB60F922F933F934F935F936F937F9350
:1022B0008F939F93AF93BF93EF93FF93E091B602F9
:1022C000F091B7021995FF91EF91BF91AF919F9156
:1022D0008F917F916F915F914F913F912F910F90CF
:1022E0000BBE0F900FBE0F901F9018951F920F926C
:1022F0000FB60F9211240BB60F922F933F934F936B
:102300005F936F937F938F939F93AF93BF93EF935D
:10231000FF93E091AC02F091AD021995FF91EF911E
:10232000BF91AF919F918F917F916F915F914F91ED
:102330003F912F910F900BBE0F900FBE0F901F90EB
:1023400018951F920F920FB60F9211240BB60F9291
:102350002F933F934F935F936F937F938F939F93AD
:10236000AF93BF93EF93FF93E091AE02F091AF0272
:102370001995FF91EF91BF91AF919F918F917F91AF
:102380006F915F914F913F912F910F900BBE0F90E6
:102390000FBE0F901F9018951F920F920FB60F92BD
:1023A00011240BB60F922F933F934F935F936F932C
:1023B0007F938F939F93AF93BF93EF93FF93E0919E
:1023C000B802F091B9021995FF91EF91BF91AF91C9
:1023D0009F918F917F916F915F914F913F912F913D
:1023E0000F900BBE0F900FBE0F901F9018951F926D
:1023F0000F920FB60F9211240BB60F922F933F93AB
:102400004F935F936F937F938F939F93AF93BF93FC
:10241000EF93FF93E091BA02F091BB021995FF91FF
:10242000EF91BF91AF919F918F917F916F915F914C
:102430004F913F912F910F900BBE0F900FBE0F90B9
:102440001F9018951F920F920FB60F9211242F9381
:102450003F938F939F93AF93BF9380910C03909181
:102460000D03A0910E03B0910F0330910B0323E0F5
:10247000230F2D3758F50196A11DB11D20930B0395
:1024800080930C0390930D03A0930E03B0930F035E
:102490008091100390911103A0911203B091130346
:1024A0000196A11DB11D8093100390931103A09379
:1024B0001203B0931303BF91AF919F918F913F91FE
:1024C0002F910F900FBE0F901F90189526E8230FA5
:1024D0000296A11DB11DD2CF789484B5826084BDCF
:1024E00084B5816084BD85B5826085BD85B5816018
:1024F00085BDEEE6F0E0808181608083E1E8F0E078
:102500001082808182608083808181608083E0E8A6
:10251000F0E0808181608083E1EBF0E08081846085
:102520008083E0EBF0E0808181608083E1E9F0E08E
:10253000808182608083808181608083E0E9F0E037
:10254000808181608083E1EAF0E080818260808325
:10255000808181608083E0EAF0E080818160808317
:10256000E1E2F1E08081826080838081816080830C
:10257000E0E2F1E0808181608083EAE7F0E0808141
:102580008460808380818260808380818160808399
:102590008081806880831092C10008951F93CF933B
:1025A000DF93182FEB0161E033D1209731F460E025
:1025B000812FDF91CF911F9167C1CF3FD10511F4DA
:1025C00061E0F6CFE12FF0E0EE5FFE4FE491E150E5
:1025D000E23108F0B2C0F0E08827EF50FD4E8F4F97
:1025E00029C503130B1310131A1324139D132E1351
:1025F00036133E13481352135C136B1375139D135C
:102600007F138913931384B5806884BDC7BDDF91A0
:10261000CF911F91089584B5806284BDC8BDF7CF66
:1026200080918000806880938000D0938900C0935F
:102630008800EDCF80918000806280938000D093ED
:102640008B00C0938A00E3CF8091800088608093E4
:102650008000D0938D00C0938C00D9CF8091B000C2
:1026600080688093B000C093B300D1CF8091B00058
:1026700080628093B000C093B400C9CF8091900075
:10268000806880939000D0939900C0939800BFCF4A
:1026900080919000806280939000D0939B00C093C3
:1026A0009A00B5CF80919000886080939000D0937D
:1026B0009D00C0939C00ABCF8091A0008068809368
:1026C000A0008091A0008F7B8093A000D093A900F0
:1026D000C093A8009CCF8091A00080628093A0004E
:1026E000D093AB00C093AA0092CF8091A0008860E5
:1026F0008093A000D093AD00C093AC0088CF8091B0
:102700002001806880932001D0932901C093280183
:102710007ECF80912001806280932001D0932B0195
:10272000C0932A0174CF809120018860809320019A
:10273000D0932D01C0932C016ACFC038D1050CF085
:102740003FCF35CF8150823108F059C0E82FF0E0FB
:102750008827E355FC4E8F4F6DC4CD13D113BF13A3
:10276000C513C913FF13D413DA13DE13E413E813EC
:10277000EC13F213F613FF13FA13001404148091F0
:1027800080008F77809380000895809180008F7DF6
:10279000F9CF80918000877FF5CF84B58F7784BD96
:1027A000089584B58F7DFBCF8091B0008F778093A3
:1027B000B00008958091B0008F7DF9CF8091900096
:1027C0008F77809390000895809190008F7DF9CF4E
:1027D00080919000877FF5CF8091A0008F778093C4
:1027E000A00008958091A0008F7DF9CF8091A00076
:1027F000877FF5CF809120018F7780932001089506
:10280000809120018F7DF9CF80912001877FF5CFC6
:10281000CF93DF9390E0FC01E85BFE4F2491825759
:102820009E4FFC0184918823C9F090E0880F991F86
:10283000FC01E85FFD4FA591B491FC01E251FE4F10
:10284000C591D49161110DC09FB7F8948C912095DA
:1028500082238C938881282328839FBFDF91CF9187
:102860000895623051F49FB7F8943C91822F80957F
:1028700083238C93E8812E2BEFCF8FB7F894EC91C4
:102880002E2B2C938FBFEACF1F93CF93DF93282F4C
:1028900030E0F901EE5FFE4F8491F901E85BFE4FF5
:1028A000D491F901E257FE4FC491CC23A1F0162F29
:1028B000811148DFEC2FF0E0EE0FFF1FE251FE4FD9
:1028C000A591B4918FB7F894EC91111108C0D095EF
:1028D000DE23DC938FBFDF91CF911F910895DE2B14
:1028E000F8CFFC01918D228D892F90E0805C9F4F65
:1028F000821B91098F7399270895FC01918D828D18
:10290000981731F0828DE80FF11D858D90E00895C4
:102910008FEF9FEF0895FC01918D828D981761F0E4
:10292000A28DAE0FBF2FB11D5D968C91928D9F5FD2
:102930009F73928F90E008958FEF9FEF0895FC01B1
:10294000538D448D252F30E0842F90E0821B930B14
:10295000541710F0CF96089501970895FC01A48DA7
:10296000A80FB92FB11DA35ABF4F2C91848D90E0B1
:1029700001968F739927848FA689B7892C93A08994
:10298000B1898C91837080648C93938D848D98131E
:1029900006C00288F389E02D80818F7D80830895B1
:1029A000CF93DF93EC01888D8823B1F0AA89BB898E
:1029B000E889F9898C9185FD03C0808186FD0CC072
:1029C0000FB607FCF7CF8C9185FFF2CF808185FF92
:1029D000EDCFCE01C3DFEACFDF91CF910895EF9223
:1029E000FF920F931F93CF93DF93EC0181E0888FC9
:1029F0009B8D8C8D98131AC0E889F989808185FF99
:102A000015C09FB7F894EE89FF896083E889F9893A
:102A100080818370806480839FBF81E090E0DF913C
:102A2000CF911F910F91FF90EF900895F62E0B8D8F
:102A300010E00F5F1F4F0F731127E02E8C8D8E114A
:102A40000BC00FB607FCFACFE889F989808185FFB2
:102A5000F5CFCE0183DFF2CFEB8DEC0FFD2FF11D13
:102A6000E35AFF4FF0829FB7F8940B8FEA89FB89F6
:102A700080818062D0CFCF92DF92EF92FF921F933E
:102A8000CF93DF93EC016A017B01122FE889F9896A
:102A900082E08083C11481EED806E104F10499F04C
:102AA00060E079E08DE390E0A7019601A1D221508A
:102AB00031094109510956954795379527952115B3
:102AC00080E1380790F0E889F989108260E874E8BD
:102AD0008EE190E0A70196018BD221503109410986
:102AE00051095695479537952795EC85FD85308397
:102AF000EE85FF852083188EEC89FD891083EA8995
:102B0000FB89808180618083EA89FB89808188607C
:102B10008083EA89FB89808180688083EA89FB89D8
:102B200080818F7D8083DF91CF911F91FF90EF9007
:102B3000DF90CF9008951F920F920FB60F9211243D
:102B40000BB60F922F938F939F93EF93FF93E09188
:102B50002403F09125038081E0912A03F0912B0357
:102B600082FD1DC0908180912D038F5F8F73209116
:102B70002E03821741F0E0912D03F0E0EC5EFC4F54
:102B8000958F80932D03FF91EF919F918F912F91BE
:102B90000F900BBE0F900FBE0F901F901895808165
:102BA000F2CF1F920F920FB60F9211240BB60F9215
:102BB0002F933F934F935F936F937F938F939F9345
:102BC000AF93BF93EF93FF9384E193E0C7DEFF9150
:102BD000EF91BF91AF919F918F917F916F915F9195
:102BE0004F913F912F910F900BBE0F900FBE0F9002
:102BF0001F901895E4E1F3E01382128288EE93E0CF
:102C0000A0E0B0E084839583A683B78382EC92E052
:102C10009183808385EC90E09587848784EC90E0B5
:102C20009787868780EC90E0918B808B81EC90E099
:102C3000938B828B82EC90E0958B848B86EC90E07A
:102C4000978B868B118E128E138E148E08951F9281
:102C50000F920FB60F9211240BB60F922F938F93F2
:102C60009F93EF93FF93E091C103F091C2038081A2
:102C7000E091C703F091C80382FD1DC0908180914F
:102C8000CA038F5F8F732091CB03821741F0E091CD
:102C9000CA03F0E0EF54FC4F958F8093CA03FF9175
:102CA000EF919F918F912F910F900BBE0F900FBEC0
:102CB0000F901F9018958081F2CF1F920F920FB640
:102CC0000F9211240BB60F922F933F934F935F9364
:102CD0006F937F938F939F93AF93BF93EF93FF93E4
:102CE00081EB93E03BDEFF91EF91BF91AF919F911C
:102CF0008F917F916F915F914F913F912F910F90A5
:102D00000BBE0F900FBE0F901F901895E1EBF3E0F4
:102D10001382128288EE93E0A0E0B0E08483958372
:102D2000A683B78382EC92E0918380838DEC90E060
:102D3000958784878CEC90E09787868788EC90E075
:102D4000918B808B89EC90E0938B828B8AEC90E066
:102D5000958B848B8EEC90E0978B868B118E128EE8
:102D6000138E148E08951F920F920FB60F92112496
:102D70000BB60F922F938F939F93EF93FF93E09156
:102D80005E04F0915F048081E0916404F091650439
:102D900082FD1DC09081809167048F5F8F732091A9
:102DA0006804821741F0E0916704F0E0E25BFB4FBA
:102DB000958F80936704FF91EF919F918F912F9151
:102DC0000F900BBE0F900FBE0F901F901895808133
:102DD000F2CF1F920F920FB60F9211240BB60F92E3
:102DE0002F933F934F935F936F937F938F939F9313
:102DF000AF93BF93EF93FF938EE494E0AFDDFF9129
:102E0000EF91BF91AF919F918F917F916F915F9162
:102E10004F913F912F910F900BBE0F900FBE0F90CF
:102E20001F901895EEE4F4E01382128288EE93E08E
:102E3000A0E0B0E084839583A683B78382EC92E020
:102E40009183808385ED90E09587848784ED90E081
:102E50009787868780ED90E0918B808B81ED90E065
:102E6000938B828B82ED90E0958B848B86ED90E046
:102E7000978B868B118E128E138E148E08951F924F
:102E80000F920FB60F9211240BB60F922F938F93C0
:102E90009F93EF93FF93E091FB04F091FC048081FA
:102EA000E0910105F091020582FD1DC090818091A5
:102EB00004058F5F8F7320910505821741F0E09123
:102EC0000405F0E0E551FB4F958F80930405FF91D9
:102ED000EF919F918F912F910F900BBE0F900FBE8E
:102EE0000F901F9018958081F2CF1F920F920FB60E
:102EF0000F9211240BB60F922F933F934F935F9332
:102F00006F937F938F939F93AF93BF93EF93FF93B1
:102F10008BEE94E023DDFF91EF91BF91AF919F91F4
:102F20008F917F916F915F914F913F912F910F9072
:102F30000BBE0F900FBE0F901F901895EBEEF4E0B4
:102F40001382128288EE93E0A0E0B0E08483958340
:102F5000A683B78382EC92E09183808385E391E03E
:102F60009587848784E391E09787868780E391E063
:102F7000918B808B81E391E0938B828B82E391E054
:102F8000958B848B86E391E0978B868B118E128EC6
:102F9000138E148E0895AF92BF92CF92DF92EF926C
:102FA000FF920F931F93CF93DF936C017B018B01F3
:102FB000040F151FEB015E01AE18BF08C017D10743
:102FC00059F06991D601ED91FC910190F081E02DCD
:102FD000C6011995892B79F7C501DF91CF911F9112
:102FE0000F91FF90EF90DF90CF90BF90AF9008953A
:102FF000A1E21A2EAA1BBB1BFD010DC0AA1FBB1FFD
:10300000EE1FFF1FA217B307E407F50720F0A21B6E
:10301000B30BE40BF50B661F771F881F991F1A94DB
:1030200069F760957095809590959B01AC01BD0105
:10303000CF010895EE0FFF1F881F8BBF0790F691F9
:08304000E02D1994F894FFCF74
:10304800000000000000000001D9FC44E12FFF440B
:103058000000000000000000000000000000000068
:103068000000000000007FC300007FC30000C842CA
:103078000000C8421CBDF4425C6EF04200007F4371
:1030880000007F43000080BF000080BF0000803F39
:103098000000803FAE47E1BDAE47E13D0000003F84
:1030A8005D7491C00000003F5D7491400AD7233CD5
:1030B800000000000000C8420AD7233C0AD7233C7E
:1030C8000000000000007FC300007F4300000000F4
:1030D8000AD7233C0AD7233C0000000000007FC326
:1030E80000007F430000000059EC474A5010501080
:1030F800501050105010501050105010060300007F
:103108000000EF14CB179F14D01471148B147D1486
:00000001FF
