:100000002CC100000C94402D0C946B2D0C94962D5B
:100010000C94C12D0C94EC2D0C94172E0C94422EA4
:100020000C946D2E4BC1000049C1000047C1000077
:1000300045C1000043C1000041C100003FC10000B4
:100040003DC100003BC1000039C1000037C10000C4
:1000500035C1000033C1000031C100000C94982E5E
:100060002DC100000C9478320C94AE3227C10000F0
:1000700025C1000023C1000021C100001FC10000F4
:100080001DC100001BC1000019C1000017C1000004
:100090000C9404330C943A3311C100000C946F1E7D
:1000A0000DC100000BC1000009C1000007C1000024
:1000B00005C1000003C1000001C10000FFC0000035
:1000C000FDC00000FBC000000C94FF270C9490338F
:1000D0000C94C633F3C000000C941C340C945234BE
:1000E000EDC00000084AD73B3BCE016E84BCBFFD8B
:1000F000C12F3D6C74319ABD56833DDA3D00C77FF8
:1001000011BED9E4BB4C3E916BAAAABE0000008090
:100110003F05A84CCDB2D44EB93836A9020C50B91F
:10012000918688083CA6AAAA2ABE000000803F004B
:1001300000000A0B02090C0D0E0807030401000061
:1001400000000000000000000000000000000000AF
:10015000000000000000000000000000121110006C
:10016000000000000000000000000000000000008F
:1001700000000000000001021020200808102040AC
:10018000102040800201020108040201010204085B
:1001900010204080804020100804020180040201E9
:1001A0008040201008040201080402010102040832
:1001B000102040800102040810204080050505053C
:1001C000070508080808020202020A0A08080404CF
:1001D00004040101010101010101030303030303FD
:1001E0000303040707070C0C0C0C0C0C0C0C02028C
:1001F000020206060606060606060B0B0B0B0B0B89
:100200000B0B000020002300260029002C002F00EB
:100210003200000100000301060109010000220074
:10022000250028002B002E003100340002010000C0
:10023000050108010B0100002100240027002A000D
:100240002D003000330001010000040107010A0104
:10025000B927D7326333EF337B3411241FBECFEF7E
:10026000D1E2DEBFCDBF00E00CBF13E0A0E0B2E002
:10027000E6E3FAE600E00BBF02C007900D92A83358
:10028000B107D9F728E0A8E3B3E001C01D92A73C6D
:10029000B207E1F711E0CDE2D1E000E006C021971E
:1002A0000109802FFE010E94F834C832D10780E096
:1002B0000807A9F70E94A3280C941935A1CE611153
:1002C00002C00C94E5306130E1F362E0FACF6623BE
:1002D00019F061E00C94213160E0FCCFCF92DF9205
:1002E000EF92FF92CF93882351F16A017B01CFEF08
:1002F000C80F20E030E0A901CB01B6010E94A3297C
:1003000018168CF0C701B60190580E94172A9B015D
:10031000AC016C2F70E090E080E0CF91FF90EF9007
:10032000DF90CF90B2C0C701B6010E94122A8C2F75
:10033000CF91FF90EF90DF90CF900C94AB2FCF91A7
:10034000FF90EF90DF90CF9008950F931F938B0154
:100350009C0183E036952795179507958A95D1F7E7
:10036000085C1C4F462F477021E030E0F90102C0C5
:10037000EE0FFF1F4A95E2F7AF01F8012081242319
:10038000CB010196211102C090E080E01F910F91F6
:1003900008950F931F938B019C0183E03695279559
:1003A000179507958A95D1F7677081E090E001C0B5
:1003B000880F6A95EAF7F801E85CFC4F2081452B2D
:1003C00031F48095822380831F910F910895822BB1
:1003D000FACF2F923F924F925F926F927F928F92BD
:1003E0009F92AF92BF92CF92DF92EF92FF920F93C4
:1003F0001F93CF93DF93D62EC72E782E692E4901F7
:100400005A01280161E08D2D0E94E530CD2DDC2DB3
:100410008E010F5F1F4FA8016D2D7C2D872D962D0E
:10042000B8DF20E030E0A901C201B7010E94F42B3F
:10043000181664F4C201B7010E94172A2B01C501E6
:10044000B4010E94172AA201CE0123D0C801DF9176
:10045000CF911F910F91FF90EF90DF90CF90BF90C1
:10046000AF909F908F907F906F905F904F903F9054
:100470002F900895882341F08150682F70E090E01C
:1004800080E050E040E085CF0895862FB9010C94BC
:10049000AB2F9C01FC01E05DFE4FE491E150E231A5
:1004A000E0F4F0E08827E85AFD4F8F4F0C94F834C1
:1004B0006A02710274028B02A0026D02B502C102CF
:1004C000C502DC02F10206031D0332036D0247037D
:1004D0005E03730384B5806884BD60E0822F0C9452
:1004E000213184B58062F8CF809180008C7F82605A
:1004F0008093800080918100807E8061682B609372
:10050000810050938700409386008091800080682E
:1005100080938000E2CF809180008C7F8260809306
:10052000800080918100807E8061682B60938100D3
:100530005093870040938600809180008062E8CFCE
:10054000809180008C7F8260809380008091810008
:10055000807E8061682B6093810050938700409378
:100560008600809180008860D3CF8091B000806841
:100570008093B0008091B100887F682B6093B100B8
:10058000ACCF8091B0008062F3CF809190008C7FDF
:1005900082608093900080919100807E8061682BC2
:1005A0006093910050939700409396008091900043
:1005B00080688093900091CF809190008C7F8260C2
:1005C0008093900080919100807E8061682B609381
:1005D0009100509397004093960080919000806224
:1005E000E8CF809190008C7F826080939000809112
:1005F0009100807E8061682B6093910050939700FA
:1006000040939600809190008860D3CF8091A000A5
:100610008C7F82608093A0008091A100807E8061A9
:10062000682B6093A1005093A7004093A60080918F
:10063000A00080688093A00050CF8091A0008C7FA4
:1006400082608093A0008091A100807E8061682BF1
:100650006093A1005093A7004093A6008091A00052
:100660008062E8CF8091A0008C7F82608093A000A0
:100670008091A100807E8061682B6093A1005093DF
:10068000A7004093A6008091A0008860D3CF8091FE
:1006900020018C7F82608093200180912101807EE7
:1006A0008061682B609321015093270140932601BC
:1006B000809120018068809320010FCF80912001DC
:1006C0008C7F82608093200180912101807E8061F7
:1006D000682B60932101509327014093260180915C
:1006E00020018062E8CF809120018C7F826080931E
:1006F000200180912101807E8061682B609321011F
:100700005093270140932601809120018860D3CF28
:10071000FC01A781B0858C9191858923A481B58145
:100720009C9140815181628173812681922359F08D
:1007300081110BC04F5F5F4F6F4F7F4F40835183DD
:100740006283738308958111F5CF41505109610986
:100750007109F4CF82E493E0DBCF8DE493E0D8CF4E
:1007600088E593E0D5CF83E693E0D2CFFC01A48166
:10077000B5818C9196818923A781B0859C91408118
:100780005181628173812185922359F0882359F028
:100790004F5F5F4F6F4F7F4F4083518362837383FF
:1007A00008958823A9F34150510961097109F4CFD3
:1007B00082E493E0DBCF8DE493E0D8CF88E593E04B
:1007C000D5CF83E693E0D2CF0F931F93CF93DF93E0
:1007D000D82FC62F8A01A09141038BE0A89FD0019A
:1007E0001124AE5BBC4F1D921D921D921C9213975B
:1007F00081E01A968C931A978D2F90E0FC01EA58AD
:10080000FE4FE4911696EC931697FC01E454FE4FCC
:10081000E491F0E0EE0FFF1FEE5FFD4F85919491A4
:1008200015969C938E931497862F90E0FC01EA58BE
:10083000FE4FE4911996EC931997FC01E454FE4F96
:10084000E491F0E0EE0FFF1FEE5FFD4F8591949174
:1008500018969C938E93179760E08D2F0E94E53039
:1008600060E08C2F0E94E53080914103813009F4D3
:100870003FC0A8F0823009F462C0833009F486C01A
:100880008091410391E0980F90934103F801808398
:1008900090E080E0DF91CF911F910F91089580E06B
:1008A000D23049F081E0D33031F08EEE8D0F8430BC
:1008B000D8F487E18D1B41E050E06AEA73E00E94C2
:1008C000C62C80E0C23049F081E0C33031F08EEEBA
:1008D0008C0F843058F487E18C1B41E050E068EDC8
:1008E00073E00E94C62CCCCF8FEFE5CF8FEFF5CF12
:1008F00080E0D23049F081E0D33031F08EEE8D0FC0
:100900008430C8F487E18D1B41E050E06DEA73E06C
:100910000E94C62C80E0C23049F081E0C33031F043
:100920008EEE8C0F843048F487E18C1B41E050E060
:100930006BED73E0D6CF8FEFE7CF8FEFF7CF80E08F
:10094000D23049F081E0D33031F08EEE8D0F84301B
:10095000C8F487E18D1B41E050E060EB73E00E943A
:10096000C62C80E0C23049F081E0C33031F08EEE19
:100970008C0F843048F487E18C1B41E050E06EED31
:1009800073E0AFCF8FEFE7CF8FEFF7CF80E0D230BC
:1009900049F081E0D33031F08EEE8D0F8430C8F411
:1009A00087E18D1B41E050E063EB73E00E94C62CB1
:1009B00080E0C23049F081E0C33031F08EEE8C0F20
:1009C000843048F487E18C1B41E050E061EE73E035
:1009D00088CF8FEFE7CF8FEFF7CF9BE0899FF001B4
:1009E0001124EE5BFC4F80819181A281B381FB01D8
:1009F00080839183A283B38390E080E008959BE09D
:100A0000899FF0011124EE5BFC4F1082118212824B
:100A1000138290E080E0089590E080E008954F9286
:100A20005F926F927F928F929F92AF92BF92CF927E
:100A3000DF92EF92FF92CF93DF9300D01F92CDB75A
:100A4000DEB79A838983DC018D909D90AD90BC9038
:100A500075016401E894F7F820E030E0A901C701CE
:100A6000B6010E94F42B18160CF459C020E030E0B7
:100A7000A901C501B4010E94AA299B01AC010E94F1
:100A8000FF2B2B013C01C12CD12C7601A981BA810D
:100A900014968D919D910D90BC91A02D89839A8380
:100AA000AB83BC834C015D01E894B7F8A5019401C8
:100AB000C701B6010E94A32987FF38C0A501940190
:100AC000C701B6010E94AA296B017C01AC019B0100
:100AD000C301B2010E94FF2BA70196010E94FF2BC8
:100AE00020E030E040E85FE30E94DD280E946C2CAB
:100AF000A50194010E94FF2B0F900F900F900F9073
:100B0000DF91CF91FF90EF90DF90CF90BF90AF90AB
:100B10009F908F907F906F905F904F900895412CA1
:100B2000512C80E8682E8FE3782EB0CFA701960174
:100B300069817A818B819C810E94AA299B01AC01E9
:100B40000E94FF2BA30192010E94DD28460157015C
:100B5000CDCF2F923F924F925F926F927F928F9262
:100B60009F92AF92BF92CF92DF92EF92FF920F933C
:100B70001F93CF93DF9300D000D000D01F92CDB74A
:100B8000DEB79A8789878B011A01C0905508D090EB
:100B90005608E0905708F0905808DC018D909D9021
:100BA000AD90BC904090590850905A0860905B08F6
:100BB00070905C08A5019401C701B6010E94A329A9
:100BC00081110DC0E985FA852481358146815781DF
:100BD000C301B2010E94A329882309F4B1C1A7016E
:100BE0009601C501B4010E94DC284B015C01809292
:100BF000A1089092A208A092A308B092A408209104
:100C0000E2073091E3074091E4075091E507E98559
:100C1000FA8560817181828193810E94DC28A5011F
:100C200094010E94FF2B69837A838B839C8360935A
:100C3000A5087093A6088093A7089093A808A5011B
:100C40009401C501B4010E94FF2B6D837E838F83C5
:100C500098876093A9087093AA088093AB08909333
:100C6000AC08A3019201A985BA8514966D917D9176
:100C70008D919C9117970E94DC284B015C0180921A
:100C8000A1089092A208A092A308B092A408209173
:100C9000E6073091E7074091E8075091E907E985B9
:100CA000FA8564817581868197810E94DC28A5017F
:100CB00094010E94FF2B29813A814B815C810E9423
:100CC000DD282B013C01A5019401C501B4010E945E
:100CD000FF2B2D813E814F8158850E94DD289B018D
:100CE000AC01C301B2010E94AA294B015C018092B0
:100CF000A1089092A208A092A308B092A40820E0B4
:100D000030E040E85FE30E94F42B1816C4F0A98598
:100D1000BA854D905D906D907C9020E030E0A90107
:100D2000C501B4010E94A32987FF9CC04092A50879
:100D30005092A6086092A7087092A80808C0C092B6
:100D4000A508D092A608E092A708F092A808809182
:100D5000A5089091A608A091A708B091A808F8014D
:100D600080839183A283B3832091A5083091A60844
:100D70004091A7085091A8086091E2077091E3079D
:100D80008091E4079091E5070E94DC2860935D085C
:100D900070935E0880935F089093600820E030E0D5
:100DA00040E85FE3C501B4010E94F42B18160CF073
:100DB0007CC08091590890915A08A0915B08B0912D
:100DC0005C088093A5089093A608A093A708B09309
:100DD000A8088091A5089091A608A091A708B091B5
:100DE000A808F80184839583A683B7832091A5087A
:100DF0003091A6084091A7085091A8086091E60795
:100E00007091E7078091E8079091E9070E94DC283C
:100E100060936108709362088093630890936408FC
:100E20008DE598E0FCDDD1016D937D938D939C93CE
:100E300013972A960FB6F894DEBF0FBECDBFDF9191
:100E4000CF911F910F91FF90EF90DF90CF90BF90C7
:100E5000AF909F908F907F906F905F904F903F905A
:100E60002F900895A501940160E070E080E89FE371
:100E70000E94DC28A30192010E94FF2B2B013C0160
:100E8000A7019601C501B4010E94FF2B9B01AC0193
:100E9000C301B2010E94DD286093A5087093A608E3
:100EA0008093A7089093A80852CFA985BA85149675
:100EB000CD90DD90ED90FC90179720E030E0A901F7
:100EC000C501B4010E94A32987FF09C0C092A508EB
:100ED000D092A608E092A708F092A8087ACF809056
:100EE000A1089090A208A090A308B090A408209117
:100EF000590830915A0840915B0850915C08C5012F
:100F0000B4010E94FF2B2B013C01A501940160E07C
:100F100070E080E89FE30E94DC28A70196010E9410
:100F2000FF2B9B01AC01C301B2010E94DD2860933D
:100F3000A5087093A6088093A7089093A80849CFA6
:100F4000D801CD92DD92ED92FC9213972091550835
:100F50003091560840915708509158086091E20727
:100F60007091E3078091E4079091E5070E94DC28E7
:100F700060935D0870935E0880935F0890936008AB
:100F80008091590890915A08A0915B08B0915C0833
:100F9000F80184839583A683B78320915908309103
:100FA0005A0840915B0850915C0828CFFC0191E001
:100FB00080917103811190E0918308958F929F92A7
:100FC000AF92BF92CF92DF92EF92FF92CF93DF93D7
:100FD0006B017C0149015A010E94E51C882399F0AC
:100FE0006091B9087091BA088091BB089091BC08D3
:100FF000DF91CF91FF90EF90DF90CF90BF90AF90B7
:101000009F908F900895C501B4010E94E51C811145
:10101000E7CFC701B6010E94A01C8823E1F1C501FA
:10102000B4010E94A01C8823B1F120E030E0A901A6
:10103000C701B6010E94F42BCFEFDFEF181614F4AE
:10104000C1E0D0E020E030E0A901C501B4010E9478
:10105000F42B6FEF7FEF181614F461E070E0072EA9
:10106000000C880B990B0E94452A6B017C01BE0184
:10107000DD0F880B990B0E94452AA7019601DF918D
:10108000CF91FF90EF90DF90CF90BF90AF909F9067
:101090008F900C94502920E030E0A901C501B401E3
:1010A0000E94A329811116C020E030E0A901C701E8
:1010B000B6010E94F42B181694F020E030E0A9014C
:1010C000C701B6010E94A32987FD0EC060E070E051
:1010D000CB018ECFA5019401C701B601D0CF6BED36
:1010E0007FE089EC9FE384CF6BED7FE089EC9FEBA1
:1010F0007FCF2F923F924F925F926F927F928F920B
:101100009F92AF92BF92CF92DF92EF92FF920F9396
:101110001F93CF93DF93CDB7DEB7A4970FB6F894A4
:10112000DEBF0FBECDBF8091710391E0811190E0D1
:10113000909372038F5F853008F04AC180937103EA
:10114000C0905002D0905102E0905202F0905302B1
:10115000A70196016091AD077091AE078091AF072E
:101160009091B0070E94A329882341F0C092AD0757
:10117000D092AE07E092AF07F092B0078091AC0733
:1011800081111092AC07BE01635F7F4F8091B10760
:1011900024DCC0905402D0905502E0905602F090AA
:1011A0005702A70196016091A1077091A207809153
:1011B000A3079091A4070E94A329882341F0C0921D
:1011C000A107D092A207E092A307F092A407809112
:1011D000A00781111092A007BE016F5E7F4F809122
:1011E000A507FBDB6091E8027091E9028091EA02B9
:1011F0009091EB020E94452A20E030E040E05AE264
:101200000E94FF2B2B013C01C090A802D090A902A4
:10121000E090AA02F090AB026D857E858F8598895B
:101220000E94452AA30192010E94FF2BA70196016B
:101230000E94FF2B4B015C0180928D0890928E08DA
:10124000A0928F08B092900869897A898B899C89CD
:101250000E94452AA30192010E94FF2BA70196013B
:101260000E94FF2B6B017C01C0929108D0929208E2
:10127000E0929308F09294082091EE073091EF07E6
:101280004091F0075091F107C501B4010E94DC289C
:101290004B015C018092EE079092EF07A092F0075D
:1012A000B092F1072091F2073091F3074091F407D3
:1012B0005091F507C701B6010E94DC286B017C0143
:1012C000C092F207D092F307E092F407F092F5078C
:1012D000209190023091910240919202509193029C
:1012E000C501B4010E94FF2B4B015C0120919802C3
:1012F0003091990240919A0250919B02C701B60128
:101300000E94FF2B9B01AC01C501B4010E94DD28A6
:1013100060939D0870939E0880939F089093A00807
:1013200080917203882381F180910A0890910B08C3
:10133000A0910C08B0910D088093190890931A0899
:10134000A0931B08B0931C0880910E0890910F0881
:10135000A0911008B091110880931D0890931E0869
:10136000A0931F08B0932008809112089091130851
:10137000A0911408B0911508809321089093220839
:10138000A0932308B0932408809118088F3F19F088
:101390008F5F809318088091160881111CC081E02E
:1013A000809316081092180885E080931708109211
:1013B00071081092720810927308109274081092BB
:1013C00075081092760810927708109278088FC2EC
:1013D00010927103B5CE80911708823009F494C23F
:1013E00038F4813081F180911808883C88F5DFCF8E
:1013F000833009F48FC28430B1F720E030E040E25E
:1014000052E4609121087091220880912308909104
:1014100024080E94A32987FF93C21092180883E032
:10142000809317088DEC9CECACECBDE380937108C5
:1014300090937208A0937308B09374088BED9FE0AB
:10144000A9E4BFEB4CC280911808843608F426C288
:1014500084E080931708109271081092720810921D
:101460007308109274081092750810927608109202
:1014700077081092780810926D0810926E081092FA
:101480006F0810927008C0904402D0904502E0901E
:101490004602F0904702A7019601609156077091AD
:1014A000570780915807909159070E94A3298823D4
:1014B00041F0C0925607D0925707E0925807F09239
:1014C0005907C0904802D0904902E0904A02F0903B
:1014D0004B02A701960160914E0770914F078091D2
:1014E0005007909151070E94A329882341F0C09290
:1014F0004E07D0924F07E0925007F0925107C090EC
:101500004C02D0904D02E0904E02F0904F02A701A5
:101510009601609152077091530780915407909102
:1015200055070E94A329882341F0C0925207D09208
:101530005307E0925407F0925507EAE7CE2EE7E012
:10154000DE2E00E612E0FAE9AF2EF7E0BF2E7801BA
:10155000D6014D905D906D907D906D01F7012191C8
:101560003191419151917F01C301B2010E94A329A0
:1015700081110CC2AC14BD0459F765E6E62E68E093
:10158000F62E70E8C72E72E0D72ED8016D917D91AE
:101590008D919D918D010E94E51C91E0811190E05B
:1015A000F70191937F01C016D10679F78091650804
:1015B000882329F031E080916908811101C030E071
:1015C0003D8380916608882329F021E080916A0894
:1015D000811101C020E02E8380916708882329F0C3
:1015E00091E080916B08811101C090E09F83809110
:1015F0006808882329F081E040916C08411101C0FE
:1016000080E0888739832A839B838C838E010B5FDC
:101610001F4FBE016F5F7F4FD80180E030E020E0B8
:10162000F12CE12C9D91992351F049E050E04C0FB1
:101630005D1F420F531FFA0180832F5F3F4FFB0155
:101640009191BF01992319F0FFEFEF1AFF0A8F5F05
:10165000843041F7E114F10409F0BAC11092950801
:1016600010929608109297081092980810927D0890
:1016700010927E0810927F08109280082091B0028C
:101680003091B1024091B2025091B30260916D0865
:1016900070916E0880916F08909170080E94F42BF1
:1016A000181604F58091710890917208A091730842
:1016B000B09174088093950890939608A09397082A
:1016C000B09398088091750890917608A09177085A
:1016D000B091780880937D0890937E08A0937F084E
:1016E000B09380088090950890909608A0909708F5
:1016F000B0909808C0907D08D0907E08E0907F0858
:10170000F090800820918002309181024091820205
:1017100050918302C501B4010E94FF2B2B013C01B3
:10172000209188023091890240918A0250918B0267
:10173000C701B6010E94FF2B9B01AC01C301B2019E
:101740000E94DD282091EE073091EF074091F007CD
:101750005091F1070E94DC2860933D0870933E0889
:1017600080933F0890934008209184023091850235
:101770004091860250918702C501B4010E94FF2B5F
:101780004B015C0120918C0230918D0240918E02C0
:1017900050918F02C701B6010E94FF2B9B01AC0143
:1017A000C501B4010E94DD282091F2073091F307B2
:1017B0004091F4075091F5070E94DC286B017C01F1
:1017C000C0924108D0924208E0924308F092440847
:1017D00020910002309101024091020250910302D7
:1017E0000E94FF2B2091F6073091F7074091F807F0
:1017F0005091F9070E94DC2820912C0230912D0293
:1018000040912E0250912F020E94FF2B4B015C0150
:1018100080927D0890927E08A0927F08B092800806
:1018200020913402309135024091360250913702B6
:10183000C701B6010E94FF2B2091FA073091FB07E8
:101840004091FC075091FD070E94DD28A5019401FD
:101850000E94DD286B017C01C0929908D0929A0801
:10186000E0929B08F0929C0880903C0290903D0290
:10187000A0903E02B0903F02A50194010E94F42B7B
:10188000181614F00C9467148092990890929A0894
:10189000A0929B08B0929C080C94791420E030E050
:1018A00040E252E46091210870912208809123085F
:1018B000909124080E94A32987FFE5CD1092180873
:1018C00082E08093170810927108109272081092AB
:1018D0007308109274088BED9FE0A9ECBFE380932E
:1018E000750890937608A0937708B093780880E005
:1018F00090E0A0E8BFE380936D0890936E08A093FA
:101900006F08B0937008BFCD80911808863908F031
:101910009FCDB9CD20E030E040E252E4609119085B
:1019200070911A0880911B0890911C080E94A329AD
:1019300087FDC4CF80911808843608F089CDA3CDE7
:1019400020E030E040E252E46091190870911A08FA
:1019500080911B0890911C080E94A32987FF93CDBA
:101960001092180881E0809317088DEC9CECACEC89
:10197000BDE38093710890937208A0937308B093AD
:1019800074088BED9FE0A9E4BFE3A9CFC301B201C6
:101990000E94E51C882351F0F70134976081718122
:1019A000828193810E94E51C8111E4CD80E2E0E612
:1019B000F2E0AAE7B7E001900D928A95E1F7109264
:1019C0006207109263071092640710926507D5CDE5
:1019D00020E030E0A9016091620770916307809177
:1019E0006407909165070E94A329811115C289851A
:1019F000082E000C990BFC01EE0FFF1FEE0FFF1FCE
:101A0000E05AFD4F408151816281738140935A07B2
:101A100050935B0760935C0770935D07880F991F75
:101A2000880F991FFC01E059FD4F80819181A281AF
:101A3000B38180935E0790935F07A0936007B09394
:101A4000610780E090E0A0E8BFE380936207909395
:101A50006307A0936407B093650721E0298FC8014D
:101A600004961E8A1D8AD8012D918D01222329F00A
:101A7000ED89FE893196FE8BED8B8017910799F7E2
:101A80002D893E892130310509F0C8C18985082E8C
:101A9000000C990BFC01EE0FFF1FEE0FFF1FE05A29
:101AA000FD4F408151816281738140935A07509369
:101AB0005B0760935C0770935D07880F991F880F21
:101AC000991FFC01E059FD4F80819181A281B38172
:101AD00080935E0790935F07A0936007B0936107C0
:101AE0004093660750936707609368077093690790
:101AF00080936A0790936B07A0936C07B0936D0770
:101B00002091E2073091E3074091E4075091E50707
:101B100060916607709167078091680790916907E7
:101B20000E94DC286B017C012091E6073091E707D9
:101B30004091E8075091E90760916A0770916B073F
:101B400080916C0790916D070E94DC28A701960197
:101B500035DA2091EA073091EB074091EC0750917C
:101B6000ED070E94DC286B017C01C0929508D092A1
:101B70009608E0929708F09298089F772BED3FE047
:101B800049E450E40E94F42B18160CF063C02BEDCE
:101B90003FE049E450E4C701B6010E94DD280E94FD
:101BA000E51C882309F4B6C58091B9089091BA085C
:101BB000A091BB08B091BC0880937D0890937E08EB
:101BC000A0937F08B093800820E030E0A9016091E5
:101BD0007D0870917E0880917F08909180080E9416
:101BE000A329811121C02BED3FE049E450E460912D
:101BF00095087091960880919708909198080E9496
:101C0000DD2820E030E0A9010E94F42B181664F4CE
:101C10008BED9FE0A9ECB0E480937D0890937E0863
:101C2000A0937F08B09380082BED3FE049E450E497
:101C300060917D0870917E0880917F089091800866
:101C40000E94DC286093950870939608809397080B
:101C500090939808C0909508D0909608E0909708C7
:101C6000F0909808C701B6010E94622C9B01AC015C
:101C70000E94DD282091520730915307409154076C
:101C8000509155070E94AA294B015C0180927D0862
:101C900090927E08A0927F08B0928008C701B6019A
:101CA0009F772BED3FE049E450E40E94DC289F77CA
:101CB00020E030E040E852E30E94A32987FF23C0E0
:101CC000C501B4010E94E51C81111DC0C0907D08B2
:101CD000D0907E08E0907F08F090800820E030E00F
:101CE000A901C701B6010E94A32987FFB6C580E0FC
:101CF00090E0A0E8BFEB80937D0890937E08A093CE
:101D00007F08B0938008C0907D08D0907E08E09056
:101D10007F08F0908008C701B6019F7720914E0799
:101D200030914F0740915007509151070E94F42B7A
:101D300018168CF5C701B6010E94E51C882309F42A
:101D40009EC58091B9089091BA08A091BB08B09146
:101D5000BC088093950890939608A0939708B09339
:101D6000980820914E0730914F07409150075091AD
:101D7000510760919508709196088091970890910D
:101D800098080E94FF2B60937D0870937E088093D3
:101D90007F08909380088091560790915707A091F3
:101DA0005807B09159078093950890939608A0938F
:101DB0009708B09398088091E2079091E307A0916B
:101DC000E407B091E50780936E0790936F07A093A7
:101DD0007007B09371078091E6079091E707A09193
:101DE000E807B091E9078093720790937307A09377
:101DF0007407B09375078091EA079091EB07A09163
:101E0000EC07B091ED078093760790937707A09346
:101E10007807B093790732CC198E21CE20E030E0DC
:101E200040E85FE360916207709163078091640707
:101E3000909165070E94DD280E94122A1E0138E059
:101E4000230E311C620D731DDB018C91082E000CDA
:101E5000990BFC01EE0FFF1FEE0FFF1FE05AFD4F25
:101E6000408151816281738140934D0850934E08A7
:101E700060934F0870935008880F991F880F991F1F
:101E8000FC01E059FD4F80819181A281B381809353
:101E9000510890935208A0935308B093540880912E
:101EA0005A0790915B07A0915C07B0915D07809302
:101EB000550890935608A0935708B09358088091FE
:101EC0005E0790915F07A0916007B09161078093D2
:101ED000590890935A08A0935B08B0935C0849E7AF
:101EE00058E06AE577E08DE498E00E94A90520E0DB
:101EF00030E040E85FE36091620770916307809192
:101F00006407909165070E94DD284B015C010E94E7
:101F1000122A620D731DFB010081002E000C110BB3
:101F2000F801EE0FFF1FEE0FFF1FE05AFD4F20815B
:101F300031814281538160915A0770915B07809192
:101F40005C0790915D070E94DC2860934D087093B8
:101F50004E0880934F0890935008000F111F000FF8
:101F6000111FF801E059FD4F2081318142815381D9
:101F700060915E0770915F078091600790916107A3
:101F80000E94DC2860935108709352088093530894
:101F9000909354088DE498E00E940F0560937D08AB
:101FA00070937E0880937F089093800880928508C4
:101FB00090928608A0928708B0928808B701FF0C1B
:101FC000880B990B0E94452A20E030E040E85FE34F
:101FD0000E94DC286B017C01A501940160E070E0A7
:101FE00080E89FE30E94DC289B01AC01C701B60199
:101FF0000E94DD280E94122A9B01215031093CA336
:102000002BA310E000E02BA13CA120173107A4F185
:10201000B801012E000C880B990B0E94452A2091D3
:1020200085083091860840918708509188080E9461
:10203000DD286B017C01C0928108D0928208E09279
:102040008308F092840840907D0850907E0860904C
:102050007F0870908008398D311191C1A3019201E0
:1020600060915207709153078091540790915507E2
:102070000E94A32987FF83C1C0906207D0906307A5
:10208000E0906407F090650720E030E040E85FE30F
:10209000C701B6010E94DD280E94122A620D731D3D
:1020A000DB010C91002E000C110BF801EE0FFF1F4D
:1020B000EE0FFF1FE05AFD4F208131814281538195
:1020C000209395083093960840939708509398086A
:1020D00080905A0790905B07A0905C07B0905D07D6
:1020E000C501B4010E94DC2860934D0870934E082E
:1020F00080934F0890935008000F111F000F111F7D
:10210000F801E059FD4F20813181428153812093B4
:10211000990830939A0840939B0850939C084090EC
:102120005E0750905F076090600770906107C30181
:10213000B2010E94DC28609351087093520880938A
:102140005308909354088DE498E00E940F05609323
:102150007D0870937E0880937F089093800880921A
:102160003D0890923E08A0923F08B09240084092ED
:10217000410850924208609243087092440880904F
:10218000520790905307A0905407B0905507A501AF
:1021900094010E94DC2860938508709386088093E0
:1021A000870890938808C0927908D0927A08E092C4
:1021B0007B08F0927C082D893E89032E000C440B8D
:1021C000550B2D8B3E8B4F8B588FC0908508D09030
:1021D0008608E0908708F090880820E030E0A901A8
:1021E000C701B6010E94A32987FF1CC0409079084F
:1021F00050907A0860907B0870907C086D897E8989
:102200008F89988D0E94452A20E030E040E85FE306
:102210000E94DC289B01AC01C301B2010E94A329EA
:1022200087FDAEC120913D0830913E0840913F08A6
:10223000509140082D8B3E8B4F8B588F40909508C6
:10224000509096086090970870909808A3019201AA
:102250006D897E898F89988D0E94DC2860934D0856
:1022600070934E0880934F089093500880914108D6
:1022700090914208A0914308B0914408898F9A8FA9
:10228000AB8FBC8F8090990890909A08A0909B0883
:10229000B0909C08A5019401BC01CD010E94DC28EE
:1022A0006093510870935208809353089093540898
:1022B0008DE498E00E940F059B01AC01C701B601B7
:1022C0000E94AA296B017C01C0927D08D0927E08F1
:1022D000E0927F08F092800820E030E0A9010E949F
:1022E000F42B18160CF005C2A701960160E070E00F
:1022F00080E89FE30E94DC286D8F7E8F8F8F98A3EC
:102300009B01AC01C301B2010E94FF2B2B013C01D8
:10231000A70196016D897E898F89988D0E94FF2B78
:102320009B01AC01C301B2010E94DD2860936607E6
:102330007093670780936807909369072D8D3E8D92
:102340004F8D58A1C501B4010E94FF2B4B015C01C8
:10235000A7019601698D7A8D8B8D9C8D0E94FF2B34
:102360009B01AC01C501B4010E94DD2860936A079E
:1023700070936B0780936C0790936D07C1CBC70177
:10238000B6010E94122A620D731DDB018C91E82FA9
:10239000880FFF0BFE8FED8FEE0FFF1FEE0FFF1F5D
:1023A000E05AFD4F80809180A280B38020E030E031
:1023B00040E85FE3C701B6010E94DD280E94122AAF
:1023C000620D731DDB018C91E82F880FFF0BFAA3C0
:1023D000E9A3EE0FFF1FEE0FFF1FE05AFD4FC08075
:1023E000D180E280F380A7019601C501B4010E946B
:1023F000DC2860934D0870934E0880934F089093AB
:1024000050088092550890925608A0925708B092B2
:102410005808C0924508D0924608E0924708F092CA
:102420004808ED8DFE8DEE0FFF1FEE0FFF1FE059E8
:10243000FD4F80809180A280B38080929508909219
:102440009608A0929708B0929808E9A1FAA1EE0F19
:10245000FF1FEE0FFF1FE059FD4FC080D180E280CB
:10246000F380C0929908D0929A08E0929B08F0926B
:102470009C08A7019601C501B4010E94DC28609365
:102480005108709352088093530890935408809297
:10249000590890925A08A0925B08B0925C08C092CA
:1024A0004908D0924A08E0924B08F0924C088DE41B
:1024B00098E00E940F05A30192010E94DD2860931D
:1024C0007D0870937E0880937F089093800845E98B
:1024D00058E06DE378E085E498E00E94A905C0909B
:1024E0009508D0909608E0909708F0909808209171
:1024F000790830917A0840917B0850917C08C70197
:10250000B6010E94A32987FF38C0C0927908D092F3
:102510007A08E0927B08F0927C0880913D089091C7
:102520003E08A0913F08B091400880935A079093CD
:102530005B07A0935C07B0935D0780914108909181
:102540004208A0914308B091440880935E0790939D
:102550005F07A0936007B093610780918108909115
:102560008208A0918308B0918408809362079093B9
:102570006307A0936407B09365070F5F1F4F43CDB8
:1025800020E030E040E85FE3C301B2010E94DD28B3
:102590006B017C01C0927908D0927A08E0927B08A6
:1025A000F0927C080E94122A620D731DDB010C91CF
:1025B000002E000C110BF801EE0FFF1FEE0FFF1F96
:1025C000E05AFD4F408051806280738040923D0808
:1025D00050923E0860923F087092400820E030E040
:1025E00040E85FE3C701B6010E94DD280E94122A7D
:1025F000620D731DFB01E0800E2C000CFF08F7013B
:10260000EE0FFF1FEE0FFF1FE05AFD4F20813181BB
:102610004281538120939508309396084093970800
:1026200050939808C301B2010E94DC2860934D08C2
:1026300070934E0880934F0890935008000F111F1D
:10264000000F111FF801E059FD4F608171818281F7
:102650009381609385087093860880938708909390
:1026600088086093410870934208809343089093D0
:102670004408F701EE0FFF1FEE0FFF1FE059FD4F5B
:1026800020813181428153812093990830939A08A7
:1026900040939B0850939C080E94DC28609351084B
:1026A0007093520880935308909354088DE498E0F7
:1026B0000E940F0520917D0830917E0840917F088F
:1026C000509180080E94DD2860937D0870937E08F9
:1026D00080937F0890938008A50194010E94DC28D4
:1026E0006093850870938608809387089093880884
:1026F0006CCD4092660750926707609268077092AF
:10270000690780926A0790926B07A0926C07B0925B
:102710006D07F6C92BED3FE049E450E46091950860
:102720007091960880919708909198080E94DD28F2
:102730000E94A01C811138CA2BED3FE049E450E40F
:1027400060919508709196088091970890919808EB
:102750000E94DD284B015C0120E030E0A9010E94CD
:10276000A329811109C010927D0810927E08109251
:102770007F081092800828CA2BED3FE049EC50E416
:10278000C501B4010E949A2A2B013C0140927D08A8
:1027900050927E0860927F087092800820E030E0BE
:1027A000A9010E94A3298823F1F22BED3FE049EC17
:1027B00050E4C501B4010E94AA296B017C01E89490
:1027C000F7F8C0929908D0929A08E0929B08F0928C
:1027D0009C0820E030E040E05FE3C701B6010E94C2
:1027E000DD280E94802A9B01AC01C701B6010E942E
:1027F000DC289B01AC015F772D8B3E8B4F8B588F74
:1028000020E030E040E855E2C701B6010E94FF2B0E
:102810009B01AC016D897E898F89988D0E94F42B74
:1028200018160CF0A0CF20E030E0A901C501B401DA
:102830000E94A32987FFC8C92BED3FE049EC50E473
:10284000C301B2010E94DD2860937D0870937E0869
:1028500080937F0890938008B7C920E030E0A901F9
:10286000C701B6010E94F42B18162CF480E090E00A
:10287000A0E8BFE340CA80E090E0DC013CCAC09021
:102880007D08D0907E08E0907F08F090800820E0DE
:1028900030E0A901C701B6010E94A32987FF05C046
:1028A00080E090E0A0E8BFEB54CA20E030E0A9014E
:1028B000C701B6010E94F42B18162CF480E090E0BA
:1028C000A0E8BFE346CA80E090E0DC0142CA809005
:1028D000240290902502A0902602B0902702A50124
:1028E0009401C701B6010E94A32987FF02C00C947E
:1028F000440C11E020915C0230915D0240915E0237
:1029000050915F026091990870919A0880919B089C
:1029100090919C080E94A329811101C010E0612FB1
:102920008CE00E94670164E070E080E090E00E942B
:10293000A5018C019093E1078093E007C09099086E
:10294000D0909A08E0909B08F0909C088090BC0280
:102950009090BD02A090BE02B090BF02A50194016C
:10296000C701B6010E94F42B18160CF05CC08092CF
:10297000950890929608A0929708B0929808C090F7
:102980009508D0909608E0909708F0909808E89401
:10299000F7F820E030E04FE753E4C701B6010E94AA
:1029A000A32918160CF458C0C0929508D092960826
:1029B000E0929708F09298084091950850919608F7
:1029C0006091970870919808C8010E946E0165E0B7
:1029D00070E080E090E00E94A5018C019093D10707
:1029E0008093D0078090990890909A08A0909B08B7
:1029F000B0909C08C090C402D090C502E090C6027E
:102A0000F090C702A7019601C501B4010E94F42B02
:102A100018167CF5C0929908D0929A08E0929B080B
:102A2000F0929C0836C08090C0029090C102A090A5
:102A3000C202B090C302A5019401C701B6010E9471
:102A4000A32987FD94CFC0929508D0929608E09272
:102A50009708F092980893CF80E090E0AFE7B3E456
:102A60008093950890939608A0939708B093980840
:102A7000A3CFC090C802D090C902E090CA02F090E3
:102A8000CB02A7019601C501B4010E94A32987FDCD
:102A9000C1CF20E030E04FE753E460919908709196
:102AA0009A0880919B0890919C080E94A32918166F
:102AB00064F480E090E0AFE7B3E4809399089093EA
:102AC0009A08A0939B08B0939C0820E030E0A901ED
:102AD0006091990870919A0880919B0890919C0848
:102AE0000E94F42B87FF08C01092990810929A0850
:102AF00010929B0810929C084091990850919A0856
:102B000060919B0870919C08C8010E946E018090A2
:102B10003D0890903E08A0903F08B090400820915A
:102B20000402309105024091060250910702C5014E
:102B3000B4010E94FF2B2091FE073091FF074091C6
:102B40000008509101080E94DC2820913002309149
:102B5000310240913202509133020E94FF2B6B01EF
:102B60007C01C0927908D0927A08E0927B08F092BA
:102B70007C08209138023091390240913A025091FC
:102B80003B02C501B4010E94FF2B20910208309145
:102B9000030840910408509105080E94DD28A70110
:102BA00096010E94DD286B017C01C0929908D092A9
:102BB0009A08E0929B08F0929C08809040029090C6
:102BC0004102A0904202B0904302A50194010E94EC
:102BD000F42B18164CF48092990890929A08A092BF
:102BE0009B08B0929C0810C0809028029090290207
:102BF000A0902A02B0902B02A5019401C701B60152
:102C00000E94A32987FDE7CF11E02091580230915F
:102C1000590240915A0250915B026091990870915B
:102C20009A0880919B0890919C080E94A329811189
:102C300001C010E0612F8DE00E94670167E070E045
:102C400080E090E00E94A5018C019093D9078093C9
:102C5000D807C0909908D0909A08E0909B08F0900F
:102C60009C088090D4029090D502A090D602B0909B
:102C7000D702A5019401C701B6010E94F42B1816D2
:102C80000CF05CC08092950890929608A0929708EC
:102C9000B0929808C0909508D0909608E090970858
:102CA000F0909808E894F7F820E030E04FE753E41C
:102CB000C701B6010E94A32918160CF458C0C0928F
:102CC0009508D0929608E0929708F0929808409163
:102CD0009508509196086091970870919808C801DE
:102CE0000E946E0166E070E080E090E00E94A50125
:102CF0008C019093C9078093C807809099089090A1
:102D00009A08A0909B08B0909C08C090DC02D090DC
:102D1000DD02E090DE02F090DF02A7019601C5011E
:102D2000B4010E94F42B18167CF5C0929908D09239
:102D30009A08E0929B08F0929C0836C08090D802D6
:102D40009090D902A090DA02B090DB02A501940124
:102D5000C701B6010E94A32987FD94CFC0929508B0
:102D6000D0929608E0929708F092980893CF80E06E
:102D700090E0AFE7B3E48093950890939608A09312
:102D80009708B0939808A3CFC090E002D090E102DA
:102D9000E090E202F090E302A7019601C501B401C0
:102DA0000E94A32987FDC1CF20E030E04FE753E424
:102DB0006091990870919A0880919B0890919C0865
:102DC0000E94A329181664F480E090E0AFE7B3E412
:102DD0008093990890939A08A0939B08B0939C08BD
:102DE00020E030E0A9016091990870919A088091E3
:102DF0009B0890919C080E94F42B87FF08C01092BA
:102E0000990810929A0810929B0810929C08409181
:102E1000990850919A0860919B0870919C08C8018C
:102E20000E946E014090E2075090E3076090E40733
:102E30007090E50740929508509296086092970826
:102E400070929808C090EA07D090EB07E090EC07EA
:102E5000F090ED07C0929908D0929A08E0929B08F2
:102E6000F0929C088091E6079091E707A091E8070F
:102E7000B091E9078D8B9E8BAF8BB88F80938508BF
:102E800090938608A0938708B0938808C092810821
:102E9000D0928208E0928308F0928408C092890858
:102EA000D0928A08E0928B08F0928C08C701B60194
:102EB0000E94A72920919D0830919E0840919F086B
:102EC0005091A008298F3A8F4B8F5C8F8090A00281
:102ED0009090A102A090A202B090A3020E94FF2BAA
:102EE000A50194010E94FF2BA30192010E94DD28FD
:102EF0006093E2077093E3078093E4079093E507FC
:102F0000C701B6010E94622C9B01AC01698D7A8DCC
:102F10008B8D9C8D0E94FF2BA50194010E94FF2B9D
:102F20002D893E894F89588D0E94DD286093E607E0
:102F30007093E7078093E8079093E9072091940244
:102F40003091950240919602509197026091EE0760
:102F50007091EF078091F0079091F1070E94FF2B8D
:102F60002B013C0120919C0230919D0240919E02D8
:102F700050919F026091F2077091F3078091F407DE
:102F80009091F5070E94FF2B9B01AC01C301B20198
:102F90000E94DD28A50194010E94FF2BA701960144
:102FA0000E94DD286093EA077093EB078093EC079B
:102FB0009093ED0780918D0890918E08A0918F08D5
:102FC000B09190088093EE079093EF07A093F007DD
:102FD000B093F1078091910890919208A091930885
:102FE000B09194088093F2079093F307A093F407AD
:102FF000B093F50720917D0830917E0840917F08BD
:10300000509180086091B4027091B5028091B6022F
:103010009091B7020E94FF2B2091F6073091F7079D
:103020004091F8075091F9070E94DD286093F60758
:103030007093F7078093F8079093F9072091410860
:103040003091420840914308509144086091080231
:103050007091090280910A0290910B020E94FF2B4D
:103060002091B8023091B9024091BA025091BB024E
:103070000E94FF2B2091FA073091FB074091FC073B
:103080005091FD070E94DD286093FA077093FB07BB
:103090008093FC079093FD072091790830917A087E
:1030A00040917B0850917C086091CC027091CD02D8
:1030B0008091CE029091CF020E94FF2B2091FE07BB
:1030C0003091FF0740910008509101080E94DD28CF
:1030D0006093FE077093FF078093000890930108A8
:1030E00020913D0830913E0840913F0850914008A2
:1030F00060910C0270910D0280910E0290910F026E
:103100000E94FF2B2091D0023091D1024091D20237
:103110005091D3020E94FF2B2091020830910308A6
:1031200040910408509105080E94DD286093020830
:10313000709303088093040890930508A4960FB633
:10314000F894DEBF0FBECDBFDF91CF911F910F91DD
:10315000FF90EF90DF90CF90BF90AF909F908F90B7
:103160007F906F905F904F903F902F900895CF92F7
:10317000DF92EF92FF92CF93DF9346E058E061E356
:1031800078E085E298E022D4C090E402D090E50295
:10319000E090E602F090E702C9E1D8E0A7019601CD
:1031A0006C857D858E859F850E94FF2B60930A0824
:1031B00070930B0880930C0890930D08A70196015B
:1031C000688979898A899B890E94FF2B60930E0800
:1031D00070930F088093100890931108A70196012F
:1031E0006C897D898E899F890E94FF2B60931208CC
:1031F00070931308809314089093150846E058E0E4
:1032000061E378E085E298E0DF91CF91FF90EF9065
:10321000DF90CF90DDC38F929F92AF92BF92EF92DB
:10322000FF920F931F93CF9384E090E052D380914D
:10323000AC029091AD02A091AE02B091AF0280932A
:10324000190890931A08A0931B08B0931C08809348
:103250001D0890931E08A0931F08B0932008809328
:10326000210890932208A0932308B093240840914A
:10327000A4025091A5026091A6027091A70240930A
:10328000E2075093E3076093E4077093E5074093E8
:10329000E6075093E7076093E8077093E9074093C8
:1032A000EA075093EB076093EC077093ED074091AA
:1032B000100250911102609112027091130240931A
:1032C000EE075093EF076093F0077093F107409378
:1032D000F2075093F3076093F4077093F507809318
:1032E0000A0890930B08A0930C08B0930D088093E4
:1032F0000E0890930F08A0931008B09311088093C4
:10330000120890931308A0931408B09315088091A5
:10331000140290911502A0911602B09117028093A9
:10332000F6079093F707A093F807B093F9078091F9
:103330001C0290911D02A0911E02B0911F02809369
:10334000FA079093FB07A093FC07B093FD078091C9
:10335000180290911902A0911A02B0911B02809359
:10336000FE079093FF07A0930008B0930108809197
:10337000200290912102A0912202B0912302809319
:10338000020890930308A0930408B09305081092D4
:103390000608109207081092080810920908109267
:1033A000B1071092A6078091500290915102A0910E
:1033B0005202B09153028093AD079093AE07A09351
:1033C000AF07B093B007812C912C54018394809265
:1033D000A7079092A807A092A907B092AA0741EB6D
:1033E00057E063E082E00E94E403C1E0C093AB07D2
:1033F0001092AC078091B1070E94FF041092A507BC
:1034000010929A078091540290915502A091560211
:10341000B09157028093A1079093A207A093A307AE
:10342000B093A40780929B0790929C07A0929D075F
:10343000B0929E0745EA57E062E183E10E94E4030F
:10344000C0939F071092A0078091A5070E94FF04D8
:103450008091440290914502A0914602B0914702AA
:103460008093560790935707A0935807B093590736
:103470008091480290914902A0914A02B0914B027A
:1034800080934E0790934F07A0935007B093510736
:1034900080914C0290914D02A0914E02B0914F024A
:1034A0008093520790935307A0935407B093550706
:1034B00080920A0790920B07A0920C07B0920D071A
:1034C0008091B9089091BA08A091BB08B091BC084E
:1034D000EAE7F7E081939193A193B19327E0EA396A
:1034E000F207C1F7109266071092670710926807FB
:1034F0001092690710926A0710926B0710926C077E
:1035000010926D0710926E0710926F07109270075D
:10351000109271071092720710927307109274073D
:10352000109275071092760710927707109278071D
:103530001092790780935A0790935B07A0935C07DA
:10354000B0935D0780935E0790935F07A093600739
:10355000B09361071092620710926307109264079C
:10356000109265071092BA07812C912C5401839414
:103570008092BB079092BC07A092BD07B092BE0795
:1035800061E08CE00E945F01C1E0C093BF07109230
:10359000DA078092DB079092DC07A092DD07B092F9
:1035A000DE07E12CF12C8701A801970164E070E0AF
:1035B00080E090E00E94E9019093E1078093E007AA
:1035C000C093DF071092CA078092CB079092CC0776
:1035D000A092CD07B092CE07A801970165E070E0F8
:1035E00080E090E00E94E9019093D1078093D0079A
:1035F000C093CF071092B2078092B3079092B4079E
:10360000A092B507B092B60761E08DE00E945F011D
:10361000C093B7071092D2078092D3079092D40735
:10362000A092D507B092D607A801970167E070E095
:1036300080E090E00E94E9019093D9078093D80739
:10364000C093D7071092C2078092C3079092C40715
:10365000A092C507B092C607A801970166E070E086
:1036600080E090E00E94E9019093C9078093C80729
:10367000C093C707CF911F910F91FF90EF90BF901C
:10368000AF909F908F9008958091A607811114C0EC
:1036900081E08093A6078091A7079091A807A09149
:1036A000A907B091AA070197A105B10529F4809156
:1036B000AB0781110E940C0580919A07811114C0FB
:1036C00081E080939A0780919B0790919C07A0913D
:1036D0009D07B0919E070197A105B10529F480913E
:1036E0009F0781110E940C058091BA07811103C0C8
:1036F00081E08093BA078091DA0781112EC081E0C2
:103700008093DA078091DB079091DC07A091DD07B9
:10371000B091DE070197A105B105F9F48091DF07AB
:103720008823D9F064E070E080E090E00E94A50179
:103730009093E1078093E00740E050E0BA010E94D7
:103740006E0164E070E080E090E00E94A50190933B
:10375000E1078093E0070E943A028091CA07811135
:103760002EC081E08093CA078091CB079091CC074F
:10377000A091CD07B091CE070197A105B105F9F44D
:103780008091CF078823D9F065E070E080E090E079
:103790000E94A5019093D1078093D00740E050E0AC
:1037A000BA010E946E0165E070E080E090E00E9446
:1037B000A5019093D1078093D0070E943A0280918F
:1037C000B207811103C081E08093B2078091D207D4
:1037D00081112EC081E08093D2078091D307909110
:1037E000D407A091D507B091D6070197A105B105DF
:1037F000F9F48091D7078823D9F067E070E080E082
:1038000090E00E94A5019093D9078093D80740E0EB
:1038100050E0BA010E946E0167E070E080E090E045
:103820000E94A5019093D9078093D8070E943A027D
:103830008091C20781112EC081E08093C2078091E0
:10384000C3079091C407A091C507B091C60701971F
:10385000A105B105F9F48091C7078823D9F066E086
:1038600070E080E090E00E94A5019093C9078093EA
:10387000C80740E050E0BA010E946E0166E070E0C7
:1038800080E090E00E94A5019093C9078093C8074B
:103890000C943A02089560E070E080E89FE7089594
:1038A00060E070E080E89FE7089560E070E080E805
:1038B0009FEF089560E070E080E89FEF089560E07A
:1038C00070E080EC9FEF089560E070E080EC9FEF87
:1038D0000895F5DF6093B9087093BA088093BB0828
:1038E0009093BC08F1DF6093AD087093AE088093AD
:1038F000AF089093B008CFDF6093B5087093B60817
:103900008093B7089093B808CBDF6093B1087093A9
:10391000B2088093B3089093B408C7DF6093BD08E2
:103920007093BE088093BF089093C008C3DF609374
:10393000C1087093C2088093C3089093C408089587
:10394000CF92DF92EF92FF92CF936B017C01AC019B
:103950009B016091B5087091B6088091B70890916D
:10396000B8080E94A329C1E0882371F0A70196013D
:103970006091BD087091BE088091BF089091C00809
:103980000E94A3298111C0E08C2FCF91FF90EF906E
:10399000DF90CF9008950F931F938B019C01002718
:1039A000112720783F770115110520483F4749F43A
:1039B000AB01BC016F77772781E0452B462B472B66
:1039C00009F480E01F910F910895E5CF0C94EA2649
:1039D0000C941D2790E080E008958091F70390916A
:1039E000F803891B990B08959091F8038091F703D0
:1039F0002FEF3FEF981748F4E92FF0E0E750FC4F26
:103A0000208130E09F5F9093F803C9010895E09111
:103A1000F8038091F703E81730F4F0E0E750FC4F2B
:103A2000808190E008958FEF9FEF0895089591E0D1
:103A30009093D3038093F6031092D5031092D4038E
:103A400008951092860481E0809384041092830488
:103A500061E084E10E94213161E085E10E94213131
:103A6000E9EBF0E080818E7F808380818D7F808391
:103A700088E48093B80085E48093BC0008954132C7
:103A800008F041C0909186049111FCCF91E0909391
:103A90008604209384042FEF2093190410925E046F
:103AA000240F20935D049093850490918504880FE2
:103AB000892B8093850480918304813011F51092C5
:103AC0008304809185048093BB008091BC0083FDBA
:103AD000F8CF85EC8093BC00809186048130E1F3BF
:103AE00080915E04841710F440915E04AFE5B4E069
:103AF000962FFB018E2F891B841730F48D918193B3
:103B0000F9CF85EEE7CF40E0842F08950F9341323F
:103B100008F04BC0909186049111FCCF92E09093F5
:103B20008604009384049FEF9093190410925E041E
:103B300040935D04362FAFE5B4E0FB019E2F931B4D
:103B4000941718F491919D93F9CF10928504909158
:103B50008504880F892B80938504809183048130AC
:103B600011F510928304809185048093BB008091AD
:103B7000BC0083FDF8CF85EC8093BC00222321F0AC
:103B8000809186048230D1F3809119048F3F79F0BF
:103B900080911904803269F080911904803359F0C2
:103BA00084E00F91089585EEE7CF81E0FACF80E0C1
:103BB000F8CF82E0F6CF83E0F4CF20913B04260FCC
:103BC0003327331F21323105E4F420918604243059
:103BD000D1F4FC0190E080E0861760F4A0913B04F2
:103BE0002191AC01435C5B4FA40FB52FB11D2C9309
:103BF0000196F2CF80913B04680F60933B0480E014
:103C0000089581E0089582E00895CF93DF931F9295
:103C1000CDB7DEB769832091D3032223F9F0209139
:103C2000D403203258F021E030E0FC0133832283BA
:103C300090E080E00F90DF91CF9108958091D503BF
:103C4000E82FF0E0EA52FC4F998190838F5F8093D8
:103C5000D5038093D40381E090E0ECCF61E0CE0106
:103C60000196ABDFF8CFCF92DF92EF92FF920F93E6
:103C70001F93CF93DF937C01CB018A012091D30363
:103C8000222389F0EB016B01C40ED51ECC15DD0596
:103C900061F06991D701ED91FC910190F081E02DE7
:103CA000C7011995F3CF642F88DFC801DF91CF9149
:103CB0001F910F91FF90EF90DF90CF90089585EDC9
:103CC0008093BC008091BC0084FDFCCF10928604E0
:103CD000089585EC8093BC001092860408951F928D
:103CE0000F920FB60F9211240BB60F922F933F93A2
:103CF0004F935F936F937F938F939F93AF93BF93F4
:103D0000EF93FF938091B900887F803609F44CC00F
:103D100008F03FC0883209F4A8C028F5803109F4C2
:103D20009CC0C8F4882309F4F8C0883009F495C011
:103D3000FF91EF91BF91AF919F918F917F916F9183
:103D40005F914F913F912F910F900BBE0F900FBE3F
:103D50000F901F901895883109F487C0803241F781
:103D60008093190414C0803409F49CC040F480335B
:103D7000B9F38833E9F680931904ABDFD9CF8035E6
:103D800009F484C0883509F495C0883489F697DF32
:103D9000CFCF883909F48CC038F5883729F050F432
:103DA000883611F0803721F683E0809386041092E4
:103DB0001A0457C0883809F47BC0803919F080385C
:103DC00009F0B6CF80911A04803208F071C0E091FA
:103DD0001A0481E08E0F80931A048091BB00F0E0FA
:103DE000E55EFB4F80833DC0803B39F0E0F4803AD4
:103DF00009F479C0883A09F09BCF84E08093860467
:103E000010923C0410923B04E0918104F0918204F2
:103E1000199580913B0481110FC081E080933B0490
:103E200010923D0409C0803C09F475C0883C09F437
:103E300072C0883B09F07CCFE0913C0481E08E0F9A
:103E400080933C04F0E0E35CFB4F80818093BB00F7
:103E500090913C0480913B0429C08091850480931B
:103E6000BB0085EC8093BC0063CF90915E04809191
:103E70005D04981758F5E0915E0481E08E0F809301
:103E80005E04F0E0E15AFB4F8081E9CFE0915E04EF
:103E900081E08E0F80935E048091BB00F0E0E15AD8
:103EA000FB4F808390915E0480915D049817C8F267
:103EB00085E8D8CFE0915E0481E08E0F80935E04A8
:103EC0008091BB00F0E0E15AFB4F80838091840435
:103ED00081115DCF81E08093830484EA8093BC00EC
:103EE0001092860425CFF5DE80911A04803230F4DA
:103EF000E0911A04F0E0E55EFB4F108260911A0435
:103F000070E0E0917F04F09180048BE194E01995DA
:103F100010921A040DCF85ECE1CF1092190437CF1F
:103F20001092F8031092F7031092D5031092D40365
:103F300088CD0F93062F21E04091D40366ED73E006
:103F40008091F603E3DD1092D5031092D403109212
:103F5000D3030F9108954F925F926F927F92AF9229
:103F6000BF92CF92EF92FF920F931F93CF93DF9365
:103F70005C01F62ED42F28013901EE2011F1862F95
:103F800056DDCE2DC43008F0C3E0C150B8F028E0B3
:103F9000C29FC0011124A301920104C05695479508
:103FA000379527958A95D2F7B901D501ED91FC9106
:103FB0000190F081E02DC5011995E7CF60E0C501C2
:103FC000B8DF4D2FD13208F040E22C2D69EF73E0BD
:103FD0008F2D55DD1092F8038093F703DF91CF9179
:103FE0001F910F91FF90EF90CF90BF90AF907F9077
:103FF0006F905F904F900895CF92EF920F931F9321
:10400000C22EE12C00E010E09801A5DF1F910F9176
:10401000EF90CF90089521E0EFCF61E08ACF0F932A
:104020001F93CF93DF93EC01062F142F8981FFDCC0
:10403000602F87EC93E0E9DD612F87EC93E0E5DD0D
:1040400087EC93E0EADF8883DF91CF911F910F9196
:1040500008951F93CF93DF93EC01162F462F4F77D0
:104060006AE8DDDF1983DF91CF911F910895FF92F8
:104070000F931F93CF93DF93EC01F62E142F052F90
:104080008981D5DC6F2D87EC93E0BFDD602F87EC55
:1040900093E0BBDD612F87EC93E0B7DD87EC93E025
:1040A000BCDF8883DF91CF911F910F91FF9008951E
:1040B000CF92DF92EF92FF921F93CF93DF93EC01A9
:1040C000162F69017A018981B2DC612F87EC93E0B8
:1040D0009CDD6F2D77278827992787EC93E095DD66
:1040E000B7018827992787EC93E08FDD99278F2DDB
:1040F0007E2D6D2D87EC93E088DD6C2D87EC93E0B1
:1041000084DD87EC93E089DF8883DF91CF911F9175
:10411000FF90EF90DF90CF9008951F93CF93DF93A0
:10412000EC01162F898183DC612F87EC93E06DDD34
:1041300087EC93E072DF888341E0698187EC93E04C
:104140006ADF87EC93E050DCDF91CF911F910895F7
:104150001F93CF93DF93EC01162F898168DC612FC9
:1041600087EC93E052DD87EC93E057DF888342E0F1
:10417000698187EC93E04FDF87EC93E035DCD82F43
:1041800080E0C82F87EC93E02FDC8C2B9D2BDF91F8
:10419000CF911F910895DF92EF92FF920F931F939B
:1041A000CF93DF937C01C62FD42E052F122FFC0155
:1041B00081813DDC6C2F87EC93E027DDCD2DD02F66
:1041C000115028F0699187EC93E01FDDF9CF87EC5F
:1041D00093E023DFF7018083DF91CF911F910F914F
:1041E000FF90EF90DF900895EF92FF920F931F934F
:1041F000CF93DF93EC01E62EF42E052F122F898149
:1042000016DC6E2D87EC93E000DD87EC93E005DF94
:104210008883412F698187EC93E0FDDECF2DD02F7D
:10422000115028F087EC93E0DFDB8993F9CFDF9121
:10423000CF911F910F91FF90EF9008956115710537
:1042400029F460E56ADF8F5F880F0895613071059A
:1042500011F460E7F7CF8FEF0895CF92DF92EF92DE
:10426000FF92CF93DF93EC016A017B0141E060E8AC
:10427000D6DE41E06FEFCE01D2DE40E060E0CE015D
:10428000CEDE4F8161E9CE01CADE41E060E0CE01C1
:10429000C6DE40E06FEFCE01C2DE40E060E8CE0156
:1042A000BEDE42E0C114D104E104F10491F068EFF4
:1042B000CE014EDF009739F0DC01A70196010E9484
:1042C00000356B017C01A701960164E0CE01F0DEB0
:1042D00044E060E0CE01DF91CF91FF90EF90DF905E
:1042E000CF909DCE0F931F93CF93DF93EC010E944D
:1042F000E22E7E836D8363E1CE010FDF8770C9F408
:104300008A819B81892BB9F30E94E22E2D813E8107
:10431000621B730B8A819B818617970760F781E088
:104320008C830FEF1FEFC801DF91CF911F910F9189
:1043300008956EE1CE010CDF8C0141E06BE0CE010F
:104340006EDEF1CFEF92FF920F931F93CF93DF9327
:10435000EC017B018A0141E060E861DE41E06FEF42
:10436000CE015DDE40E060E0CE0159DE46E06FEF59
:10437000CE0155DE63E8CE01D0DE482F446063E80D
:10438000CE014DDE47E06FEFCE0149DE41E061E84E
:10439000CE0145DE41E060E8CE0141DE4BE664E956
:1043A000CE013DDE40E063E8CE0139DE0E94E22E20
:1043B0007E836D8363E8CE01B0DE811111C08A81F6
:1043C0009B81892BB9F30E94E22E2D813E81621BD5
:1043D000730B8A819B818617970760F780E031C055
:1043E00041E063E8CE011BDE62E9CE0196DE982F44
:1043F0009F77F7019083881F8827881FF8018083A3
:1044000040E061E8CE010BDE46E06FEFCE0107DE53
:1044100063E8CE0182DE482F4B7F63E8CE01FFDDEB
:1044200041E06FEFCE01FBDD41E060E0CE01F7DD62
:1044300040E06FEFCE01F3DD40E060E8CE01EFDD5C
:1044400081E0DF91CF911F910F91FF90EF90089540
:10445000CF93DF93EB0161E060DE84FB992790F955
:10446000988383FB992790F99A8382FB992790F987
:10447000998386FB992790F99B83881F8827881F3B
:104480008C83DF91CF9108959C013327A90102C04D
:10449000440F551F9A95E2F7CA01019608950F93AC
:1044A0001F930097B9F00197B0E0A0E050E040E022
:1044B0008C019D010027012B022B032B39F0B695AF
:1044C000A795979587954F5F5F4FF2CF342F22279F
:1044D000822B932B1F910F9108954F925F926F92B1
:1044E0007F928F929F92AF92BF92CF92DF92EF9284
:1044F000FF925C01A62FB0E020E03FE24AE350E0EB
:104500000E9400356B017C0124EFC20E21E0D21E17
:10451000E11CF11C88EE482E83E0582E612C712C92
:10452000C701B601A30192010E94D634D5010E94B1
:1045300000354B015C01C701B60120ED37E040E0DA
:1045400050E00E94D634C501B401620F731F841F6E
:10455000951FA30192010E94D634CA01B901FF90B0
:10456000EF90DF90CF90BF90AF909F908F907F9013
:104570006F905F904F900895EF92FF920F931F936B
:10458000CF93DF938C017B01EA0170E060E056DE9F
:1045900090E09983888366E4C801BFDD90E00196CE
:1045A0009D838C83688199DF6A877B878C879D8751
:1045B00061E5C801CDDD68DF9F838E8368818DDF73
:1045C0006E877F87888B998B60E7C801A6DD8F5F38
:1045D000880F90E09B838A8361E7C801B9DD54DFCF
:1045E00099878887F7012381222331F02E813F812B
:1045F000821B930B998788876A81888599856DDFEF
:104600006A8B7B8B8C8B9D8BDF91CF911F910F9150
:10461000FF90EF900895CF92DF92EF92FF920F9369
:104620001F93CF93DF93CDB7DEB76B970FB6F89498
:10463000DEBF0FBECDBF8C01BE01695E7F4F08DFBC
:10464000AE014F5F5F4FBE01695E7F4FC80194DFCF
:104650008F89882309F454C06B857C858D859E8560
:104660006C57724F8F4F9F4F298D222309F44DC0F5
:10467000CB84DC84ED84FE8422EBC20E22E0D21EC9
:10468000E11CF11CCC0CDD1CEE1CFF1C6C0D7D1D17
:104690008E1D9F1D2A8D222371F0CF84D888E98832
:1046A000FA88F4E9CF0EF2E0DF1EE11CF11C6C0D7C
:1046B0007D1D8E1D9F1D2B8D222371F0CB88DC88E4
:1046C000ED88FE8826E2C20E22E0D21EE11CF11C1B
:1046D0006C0D7D1D8E1D9F1DF8016087718782877F
:1046E00093876B960FB6F894DEBF0FBECDBFDF91F8
:1046F000CF911F910F91FF90EF90DF90CF90089591
:1047000066E37BE080E090E0AFCF288D222311F2BA
:10471000CB84DC84ED84FE84E4E9CE0EE2E0DE1E90
:10472000E11CF11CB3CF8F929F92AF92BF92CF92B8
:10473000DF92EF92FF924B015C01A42FB0E020E0EA
:104740003FE24AE350E00E9400356B017C0124EF18
:10475000C20E21E0D21EE11CF11CA8EEB3E0A501BF
:1047600094010E9400354B015C01C701B60120EDA8
:1047700037E040E050E00E94D634820E931EA41E23
:10478000B51EC701B60128EE33E040E050E00E94BC
:10479000D634C501B4010E94D634CA01B901FF90D4
:1047A000EF90DF90CF90BF90AF909F908F90089543
:1047B0008F929F92AF92BF92CF92DF92EF92FF9231
:1047C0000F931F93CF93DF93CDB7DEB76B970FB6E1
:1047D000F894DEBF0FBECDBF40322EE45207610514
:1047E000710508F48DC04A015B017C01BE01695E60
:1047F0007F4F2EDEAE014F5F5F4FBE01695E7F4F80
:10480000C701BADE8F8908EE18E020E030E0882387
:1048100041F00B851C852D853E850A5C144F2F4F7A
:104820003F4F898D882309F45BC08B859C85AD85BE
:10483000BE858E549D4FAF4FBF4F880F991FAA1F43
:10484000BB1F080F191F2A1F3B1FCA8CCC2061F009
:104850008F859889A989BA898C569D4FAF4FBF4FD4
:10486000080F191F2A1F3B1FDB8CDD2009F445C0F0
:104870000A5D1D4F2F4F3F4F80169106A206B306CB
:1048800008F43EC0C501B401601B710B820B930B91
:104890004B8149DF9B01CC2021F02F813885260FE9
:1048A000371FC901FCDDAC0161E7C701E0DBF7019F
:1048B00080869186A286B3868D2D6B960FB6F8946E
:1048C000DEBF0FBECDBFDF91CF911F910F91FF9043
:1048D000EF90DF90CF90BF90AF909F908F90089512
:1048E000888D882309F4B1CF8B859C85AD85BE85E5
:1048F0008C569D4FAF4FBF4FA4CFDD24D394DCCF58
:10490000D12CDACFCF93DF93EC01462F416060E0EA
:1049100086DB0E94E22E7E836D8363E1CE01FDDBA8
:10492000877089F48A819B81892BB9F30E94E22EDA
:104930002D813E81621B730B8A819B8186179707AD
:1049400060F780E009C041E06BE0CE0168DB40E049
:1049500060E0CE0164DB81E0DF91CF910895EF92BA
:10496000FF920F931F93CF93DF9300D000D01F923D
:104970001F92CDB7DEB78C01662339F069E8CDDB35
:10498000482F416069E8C8014ADB40E068E8C80197
:1049900046DB41E060E8C80142DB41E06FEFC8015F
:1049A0003EDB40E060E0C8013ADB61E9C801B5DB0D
:1049B000F801878341E060E0C80131DB40E06FEF40
:1049C000C8012DDB40E060E8C80129DB60E6C801D2
:1049D000A4DB482F426160E6C80121DB40E250E0E1
:1049E00064E4C80144DB4FEF61E0C80118DBAE01AD
:1049F000495F5F4FBE01685F7F4FC801A3DC811133
:104A00000FC0F12C8F2D28960FB6F894DEBF0FBE85
:104A1000CDBFDF91CF911F910F91FF90EF9008953F
:104A200026E0AE014F5F5F4F60EBC801DDDB41E088
:104A30006FEFC801F4DA40E06FE4C801F0DA4CE24D
:104A40006EE4C801ECDA40E06FEFC801E8DA44EB4D
:104A500066EBC801E4DA8F81ACE0811101C0A0E00F
:104A6000B88580E090E0EE24E394F12C482F469541
:104A70004695469550E021E030E02C0F3D1F240F75
:104A8000351FF9012081682F67708A1710F0B9135C
:104A900097C1E1E0F0E0EC0FFD1F4E0F5F1FF70143
:104AA00002C0EE0FFF1F6A95E2F7BF016095262353
:104AB000FA0120838F5F8033C9F626E0AE014F5F95
:104AC0005F4F60EBC80167DB41E06FEFC801A7DA19
:104AD00040E060E0C801A3DA40E06FEFC8019FDA70
:104AE00040E069E0C8019BDA40E060E1C80197DA84
:104AF00040E061E1C80193DA41E064E2C8018FDA85
:104B00004FEF65E2C8018BDA40E065E7C80187DA5C
:104B100041E06FEFC80183DA4CE26EE4C8017FDA4E
:104B200040E068E4C8017BDA40E260E3C80177DA7C
:104B300040E06FEFC80173DA49E060E3C8016FDA63
:104B400040E064E5C8016BDA44E061E3C80167DA7C
:104B500043E062E3C80163DA43E860E4C8015FDA76
:104B600045E266E4C8015BDA40E060E6C80157DA76
:104B700040E067E2C80153DA46E060E5C8014FDA79
:104B800040E061E5C8014BDA46E962E5C80147DA71
:104B900048E066E5C80143DA40E367E5C8013FDA6B
:104BA00040E061E6C8013BDA40E062E6C80137DA7E
:104BB00040E064E6C80133DA40E065E6C8012FDA78
:104BC00040EA66E6C8012BDA41E06FEFC80127DA58
:104BD00042E362E2C80123DA44E167E4C8011FDA74
:104BE0004FEF69E4C8011BDA40E06AE4C80117DA54
:104BF00040E06FEFC80113DA4AE06AE7C8010FDA54
:104C000040E06BE7C8010BDA41E268E7C80107DA68
:104C100041E06FEFC80103DA44E363E2C801FFD962
:104C200040E062E4C801FBD94FEF64E4C801F7D962
:104C300046E265E4C801F3D945E066E4C801EFD96E
:104C400040E460E4C801EBD946E06EE0C801E7D972
:104C50004AE160E2C801E3D940E463E4C801DFD976
:104C600040E06FEFC801DBD943E064E3C801D7D966
:104C700044E465E3C801D3D941E06FEFC801CFD95F
:104C800044E061E3C801CBD949E06BE4C801C7D96E
:104C900045E06CE4C801C3D944E06DE4C801BFD964
:104CA00040E06FEFC801BBD940E064E4C801B7D968
:104CB00040E265E4C801B3D948E067E4C801AFD970
:104CC00048E268E4C801ABD940E067E6C801A7D96B
:104CD00044E060E7C801A3D941E061E7C8019FD97A
:104CE0004EEF62E7C8019BD940E066E7C80197D95B
:104CF00040E067E7C80193D941E06FEFC8018FD961
:104D000041E06DE0C8018BD940E06FEFC80187D961
:104D100041E060E8C80183D948EF61E0C8017FD96C
:104D200041E06FEFC8017BD941E06EE8C80177D957
:104D300041E060E0C80173D940E06FEFC8016FD96E
:104D400040E060E8C8016BD944E06AE0C80167D977
:104D500064E8C801E2D9482F4F7E64E8C8015FD9F2
:104D600041E06BE0C8015BD9C80155DCF801608700
:104D700071878287938748EE61E0C80150D9F801B6
:104D80004085518562857385C80112DD41E061E08F
:104D9000C80145D960E4C801B5DD882309F431CEE6
:104DA00042E061E0C8013BD960E0C801ABDDF82E0C
:104DB000882309F426CE48EE61E0C80130D922CE1E
:104DC00030E002C0359527956A95E2F720FF72CE54
:104DD0009F5F70CECF93DF93EC01FA0120E030E0CB
:104DE00040E85FE36081718182819381ACD281115F
:104DF00021C083E793E076DABC0190E080E043D302
:104E0000688379838A839B838FE793E06BDABC01A5
:104E100090E080E038D36C837D838E839F838BE822
:104E200093E060DABC0190E080E02DD36887798759
:104E30008A879B87DF91CF9108954F925F926F92FF
:104E40007F928F929F92AF92BF92CF92DF92EF921A
:104E5000FF920F931F93CF93DF938B015A0120E0B2
:104E600030E040E85FE3F5016081718182819381E8
:104E70006AD2882309F46CC0E801C8014C96F80195
:104E80001192119211921192E817F907C9F711E3E3
:104E900061E0812F0E94E5301F5F1633C9F711E3EF
:104EA00060E0812F0E9421311F5F1633C9F787EC24
:104EB00093E036D88AEFE82E82E0F82E9CEEC92ED9
:104EC00092E0D92E03E713E0412C512C20E8622E0A
:104ED0002FE3722E34EF832E9924939461E0F7012F
:104EE00081917F010E9421316AE070E080E090E0D2
:104EF0009AD789E20E94171DF6016081F2E0CF0E79
:104F0000D11CC801A6D861E0C80129DD811104C007
:104F1000488259826A827B82F8019382828240E0D1
:104F200050E0BA01C80199D987EC93E076D8045FC4
:104F30001F4F2496FDEFEF16F2E0FF0679F680E0B2
:104F400090E0A0E8BFE3F50180839183A283B3835F
:104F5000DF91CF911F910F91FF90EF90DF90CF9055
:104F6000BF90AF909F908F907F906F905F904F9089
:104F700008951092CA031092C90388EE93E0A0E04E
:104F8000B0E08093CB039093CC03A093CD03B09378
:104F9000CE0387E193E09093C8038093C703E3E7D0
:104FA000F3E089E281831382128214823C9693E0BB
:104FB000E73CF907B9F7089526E030E040E855E20C
:104FC00060E070E090E080E000C08130910571F019
:104FD0001CF4892B39F008958230910551F0039724
:104FE00059F0089586E994E00C94183283E395E033
:104FF000FBCF80ED95E0F8CF8DE696E0F5CF1F92E0
:105000000F920FB60F9211240BB60F922F933F936E
:105010004F935F936F937F938F939F93AF93BF93C0
:10502000EF93FF938FE89DEF9093250180932401E8
:1050300034D0FF91EF91BF91AF919F918F917F916C
:105040006F915F914F913F912F910F900BBE0F90F9
:105050000FBE0F901F9018958FE89DEF909325013C
:1050600080932401A3E7B0E08C918E7F8C93E0E2E3
:10507000F1E080818C7F8083E1E2F1E08081877EB6
:10508000808380818460808380818C7F80838C9109
:1050900081608C93089581E00895CF93DF931F92F0
:1050A0001F92CDB7DEB78091890491E0980F90935D
:1050B0008904882369F021E030E030938C04209348
:1050C0008B04809389040F900F90DF91CF91089506
:1050D000CE0101960E94D60778940E947908F89430
:1050E000809189048150809389048A81882389F082
:1050F0008091880491E0980F90938804882349F068
:1051000021E030E030938C0420938B04809388045A
:10511000DACF809188048823B1F280918A048111CA
:10512000D2CF81E080938A0478940E94B718F894D3
:105130008091880481508093880480918A048150F2
:1051400080938A04C0CFCF93DF931092C608109249
:10515000C5089FD631DFC0911103D0911203198287
:1051600018820E940B19F89477DF2881398181E039
:10517000232B09F080E08093C5087894789480917F
:10518000C508811108C00E94441BF89490E080E09B
:10519000DF91CF9108952881398181E0232B09F493
:1051A00080E08093C6089091C60881E0911180E06C
:1051B0008093C50870DFE3CF5058BB27AA270ED0D5
:1051C000B1C27AD230F07FD220F031F49F3F11F497
:1051D0001EF44AC20EF4E095E7FB17C2E92FC4D2D1
:1051E00080F3BA17620773078407950718F071F404
:1051F0009EF5F3C20EF4E0950B2EBA2FA02D0B01F5
:10520000B90190010C01CA01A0011124FF27591B0B
:1052100099F0593F50F4503E68F11A16F040A22F11
:10522000232F342F4427585FF3CF46953795279582
:10523000A795F0405395C9F77EF41F16BA0B620B81
:10524000730B840BBAF09150A1F0FF0FBB1F661FC8
:10525000771F881FC2F70EC0BA0F621F731F841F0B
:1052600048F4879577956795B795F7959E3F08F031
:10527000B3CF9395880F08F09927EE0F97958795F0
:1052800008951AD258F080E891E009F49EEF1BD2FD
:1052900028F040E851E059F45EEF09C0E5C19DC235
:1052A000E92FE07861D268F3092E052AC1F32617A9
:1052B00037074807590738F00E2E07F8E02569F040
:1052C000E025E0640AC0EF6307F8009407FADB0109
:1052D000B9019D01DC01CA01AD01EF934AD022D290
:1052E0000AD05F91552331F02BED3FE049E450FDAA
:1052F00049EC63CF0895DF93DD27B92FBF7740E8EE
:105300005FE31616170648075B0710F4D92F70D213
:105310009F938F937F936F931DD3E4EEF0E0A7D11B
:1053200001D22F913F914F915F9175D2DD2349F0CA
:105330009058A2EA2AED3FE049EC5FE3D0785D2780
:105340004DDFDF91EFC13DD108F481E00895C3D175
:10535000E395F9C10CD0E6C1B6D140F0ADD130F043
:1053600021F45F3F19F051C1511138C27DC1FCD108
:1053700098F39923C9F35523B1F3951B550BBB271C
:10538000AA2762177307840738F09F5F5F4F220FC9
:10539000331F441FAA1FA9F333D00E2E3AF0E0E8C2
:1053A00030D091505040E695001CCAF729D0FE2F0E
:1053B00027D0660F771F881FBB1F261737074807A0
:1053C000AB07B0E809F0BB0B802DBF01FF27935856
:1053D0005F4F2AF09E3F510568F017C1FFC15F3F44
:1053E000ECF3983EDCF3869577956795B795F7953E
:1053F0009F5FC9F7880F911D9695879597F9089536
:10540000E1E0660F771F881FBB1F621773078407D1
:10541000BA0720F0621B730B840BBA0BEE1F88F7E0
:10542000E095089504D06894B111D8C10895A4D12D
:1054300088F09F5790F0B92F9927B751A0F0D1F07D
:10544000660F771F881F991F1AF0BA95C9F712C007
:10545000B13081F0C2D1B1E00895BFC1672F782F7C
:105460008827B85F39F0B93FCCF386957795679573
:10547000B395D9F73EF490958095709561957F4FDF
:105480008F4F9F4F0895E89409C097FB3EF4909585
:105490008095709561957F4F8F4F9F4F9923A9F00D
:1054A000F92F96E9BB279395F6958795779567959C
:1054B000B795F111F8CFFAF4BB0F11F460FF1BC0E0
:1054C0006F5F7F4F8F4F9F4F16C0882311F096E973
:1054D00011C0772321F09EE8872F762F05C0662321
:1054E00071F096E8862F70E060E02AF09A95660FDA
:1054F000771F881FDAF7880F9695879597F9089593
:1055000055D180F09F3740F491110EF067C160E0F3
:1055100070E080E89FEB089526F41B16611D711D55
:10552000811D79C093C0C8D018F011F0CCD038F4E8
:105530009BC054C1E92F18D1B0F35523C9F3E7FB41
:105540006217730784079507A8F199F3E92FFF27DE
:1055500088232AF03197660F771F881FDAF7952F77
:105560005527442332F091505040220F331F441FDF
:10557000D2F7BB27E91BF50B621B730B840BB10938
:10558000C1F222F4620F731F841FB11D31972AF0FC
:10559000660F771F881FBB1FEFCF915050405AF006
:1055A00041F0882332F0660F771F881F91505040DA
:1055B000C1F793954BC08695779567959F5FD9F70F
:1055C000F8CF990F0008550FAA0BE0E8FEEF16166A
:1055D0001706E807F907C0F012161306E407F507E7
:1055E00098F0621B730B840B950B39F40A2661F05B
:1055F000232B242B252B21F408950A2609F4A140FE
:10560000A6958FEF811D811D089597F99F6780E80A
:1056100070E060E00895882371F4772321F09850BA
:10562000872B762F07C0662311F499270DC0905160
:10563000862B70E060E02AF09A95660F771F881F2E
:10564000DAF7880F9695879597F908959F3F31F07F
:10565000915020F4879577956795B795880F911DA0
:105660009695879597F908959FEF80EC0895DF93BD
:10567000CF931F930F93FF92EF92DF927B018C01E8
:10568000689405C0DA2EEF01C6D0FE01E894A5911A
:105690002591359145915591AEF3EF019FDDFE01C6
:1056A0009701A801DA9479F7DF90EF90FF900F91BE
:1056B0001F91CF91DF91089500240A9416161706C2
:1056C00018060906089500240A94121613061406F3
:1056D00005060895C9CF50D0E8F3E894E0E0BB2771
:1056E0009F57F0F02AED3FE049EC06C0EE0FBB0FEC
:1056F000661F771F881F28F0B23A62077307840776
:1057000028F0B25A620B730B840BE3959A9572F7EB
:10571000803830F49A95BB0F661F771F881FD2F729
:10572000904896CF092E0394000C11F4882352F070
:10573000BB0F40F4BF2B11F460FF04C06F5F7F4FBD
:105740008F4F9F4F0895EF93E0FF06C0A2EA2AED26
:105750003FE049EC5FEB42DDE5DF0F90039401FC95
:105760009058E1E1F1E000C157FD9058440F551FFA
:1057700059F05F3F71F04795880F97FB991F61F0D3
:105780009F3F79F087950895121613061406551F4A
:10579000F2CF4695F1DF08C0161617061806991FB6
:1057A000F1CF86957105610508940895E5DFA0F0B5
:1057B000BEE7B91788F4BB279F3860F41616B11DF1
:1057C000672F782F8827985FF7CF8695779567950D
:1057D000B11D93959639C8F30895E894BB276627C1
:1057E0007727CB0197F90895ECDE08F48FEF089541
:1057F0009B01AC0160E070E080E89FE3ABCD0BD093
:1058000091CF5ADF28F05FDF18F0952309F0FDCE25
:105810002BCF1124E3CFA8DFA0F3959FD1F3950FF1
:1058200050E0551F629FF001729FBB27F00DB11D24
:10583000639FAA27F00DB11DAA1F649F6627B00DB4
:10584000A11D661F829F2227B00DA11D621F739F9D
:10585000B00DA11D621F839FA00D611D221F749FAB
:105860003327A00D611D231F849F600D211D822FF2
:10587000762F6A2F11249F5750408AF0E1F0882339
:105880004AF0EE0FFF1FBB1F661F771F881F915046
:105890005040A9F79E3F510570F0B7CE9FCF5F3FB4
:1058A000ECF3983EDCF3869577956795B795F79579
:1058B000E7959F5FC1F7FE2B880F911D9695879501
:1058C00097F908959F9307DF0F9007FCEE5F3BCF9A
:1058D00011F40EF4C9CEBACE4FDFD0F39923D9F329
:1058E000CEF39F57550B87FF38D00024A0E640EA3F
:1058F000900180585695979528F4805C660F771F25
:10590000881F20F026173707480730F4621B730BF7
:10591000840B202931294A2BA6951794079420251A
:1059200031254A2758F7660F771F881F20F0261762
:105930003707480730F4620B730B840B200D311DC1
:10594000411DA09581F7B901842F9158880F969534
:10595000879508959B01AC0152CF91505040660F3E
:10596000771F881FD2F708959F938F937F936F932C
:10597000FF93EF939B01AC0142DFEF91FF9177DE44
:105980002F913F914F915F913ACF0895883008F061
:1059900076C0E82FF0E0EE0FFF1FEF5FFC4F718342
:1059A00060838150873008F03DC0E82FF0E0882701
:1059B000E352F34D8F4F0C94F8341A2DE42CEC2C59
:1059C000F82C052D262D332D809169008C7F482BD6
:1059D00040936900E89A089580916900837F440F9D
:1059E000551F440F551F482B40936900E99A0895AD
:1059F000809169008F7C74E0440F551F7A95E1F720
:105A0000482B40936900EA9A0895809169008F734A
:105A100066E0440F551F6A95E1F7482B40936900F3
:105A2000EB9A089580916A008C7F482B40936A001E
:105A3000EC9A089580916A00837F440F551F440FAC
:105A4000551F482B40936A00ED9A089580916A0093
:105A50008F7C24E0440F551F2A95E1F7482B409393
:105A60006A00EE9A089580916A008F7396E0440F61
:105A7000551F9A95E1F7482B40936A00EF9A0895D5
:105A80001F920F920FB60F9211240BB60F922F9305
:105A90003F934F935F936F937F938F939F93AF93B6
:105AA000BF93EF93FF93E0910503F09106031995DF
:105AB000FF91EF91BF91AF919F918F917F916F91E6
:105AC0005F914F913F912F910F900BBE0F900FBEA2
:105AD0000F901F9018951F920F920FB60F921124DE
